:1000000048C2000064C2000062C200000C94F413F5
:100010005EC200005CC200005AC2000058C200006C
:1000200056C2000054C2000052C2000050C200007C
:100030004EC200000C948D134AC2000048C200005A
:100040007DC4000044C2000042C2000040C2000063
:100050000C9488200C9450203AC2000038C2000052
:1000600036C2000034C2000032C2000030C20000BC
:100070000C94AD412CC200002AC2000028C200002E
:1000800026C2000024C2000022C200008A2D942F44
:10009000A42DA42ECB2EEB2EF52E982E6D1F2042D4
:1000A000FE0862374743E603461E0B5A391A693287
:1000B0003F41890D47210B4D590B52C10754971BE6
:1000C00056680957350858EE0E4FB73D6526096644
:1000D000561F6CED08741E05758116487143591939
:1000E0004A78AD03459423630D36718924000000DE
:1000F000202F2000203D2000072E050DD391FF0862
:100100000500000C0021656A2D3B1322F862073FB1
:10011000181D1CC700B0876BF8B611EA2A001F41F2
:10012000000D2E2D07D3913D0432000006002165FD
:100130006A55E43023B900070018146C0700908753
:100140006BF85611E92A001F410000030F1E2627F5
:10015000000000030F1E2536386700030F25674097
:10016000605000030F275188838100030F2750C878
:10017000C3C200270000000000000067000000006C
:10018000000000500000000000000081000000009E
:10019000000000C2000000000000504C4C310D0A6D
:1001A00000504C4C300D0A005620312E363720437B
:1001B000554E4F383638005620312E3637204355AD
:1001C0004E4F34333300202F2000203D20004C4F71
:1001D00056460D0A004552523A4343410D0A000B60
:1001E00008105B11F81547191D1A1C1BC71C001DB0
:1001F000B221B623EA0007022E030D04E905CA075F
:100200000C0B060D210E650F6A10C8119312031511
:10021000341733181819161B4321562500261129A7
:10022000592C812D353EC3424F56460D0A004C4590
:100230004E4552520D0A004C4F56460D0A004C4591
:100240004E4552520D0A000007024604C605260B11
:100250000610C81193120313221534173F182819DA
:10026000161B432156250026110D210E650F6A0726
:100270000C160720F81E871F6B29592C812D353E3F
:10028000C3FF004E2F4100454F420D0A004E2F4143
:10029000004E2F410000535300547D7DFFFF4B4B18
:1002A0007E7E0020697320756E6B6E6F776E2920DD
:1002B000557365206F6E65206F66003F20280041F2
:1002C0003435303535004134353035350030300087
:1002D000302E302E302E300032333233003139326E
:1002E0002E3136382E302E31003235352E3235351E
:1002F0002E3235352E30003139322E3136382E300F
:100300002E3234340031000D2E2D07D3913D0432AE
:100310000000060010B07155E43023B90007001842
:10032000146C070090876BF85611E92A001F4100F2
:100330002053495A453A0020444154413A00204351
:1003400052433A00204F563A002050453A0020468A
:10035000453A0020524543563A0053454E543A0020
:10036000483F207374617475732C20487361616217
:100370006263632E2E2E2073656E64206D65737329
:10038000616765206161626263632E2E2E00746F67
:100390006F2073686F72742C206D696E696D756D56
:1003A00020392062797465733A20646464646464FB
:1003B00063637373737373737373004F4646004FB5
:1003C000464600544D4F444500534D4F44450004AC
:1003D00054053D1700000602000B080C000D210E0D
:1003E0006B0FD0105C11041206132214F80A0015CA
:1003F0004421B622101818192E1ABF1B431C091DC0
:10040000B523EA242A2500261F29592C812D352EB3
:100410000907040800090006FF3EC2FF047605969E
:100420001700000602000B080C000D210E650F6A74
:10043000106A114A1206132214F80A00154721B651
:1004400022101818192E1A6D1B041C091DB223EA5C
:10045000242A2500261F29592C812D352E09070411
:100460000800090006FF3EC2FF0D2E2D07D3913D67
:1004700004320000060010ABA5550A3023B900076E
:100480000018146C070090876BF85611E92A001FBA
:10049000410011241FBECFEFD0E4DEBFCDBF12E07C
:1004A000A0E0B1E0E0EDF1EA00E00BBF02C0079090
:1004B0000D92A83BB107D9F722E2A8EBB2E001C048
:1004C0001D92AC36B207E1F703D00C94E65098CDFC
:1004D00088E10FB6F89480936000109260000FBE20
:1004E000549A5C9A5D9A5E9A209A289A0E94E836FD
:1004F000DCD660E083E390E00E94B6500E94FE36B6
:100500000E94303B0E94883A89EF87BD84E085BD18
:1005100082E084BD80936E00109280008AE0809318
:10052000810090E080E80FB6F8948093610090938A
:1005300061000FBE84B7877F84BF2FE088E190E021
:100540000FB6F894A895809360000FBE20936000CA
:1005500089E190E80E94BC200E94371B0E94C80ECF
:1005600088E191E290938B0980938A090E94A315F8
:1005700089E08093BB020E94262328980E949C4118
:1005800078940E94DD200E94F1107DD20E949C1F71
:100590000E9423170E940F0C0E9458220E94C1192A
:1005A0000E947F420E943845ECCF8EBD0DB407FEFD
:1005B000FDCF8EB50895A1E0B0E0E1EEF2E00C943D
:1005C0002C4F482F8A3008F048E088E0489F70019F
:1005D0001124F701E65BFE4F7F018BE290E0F7010B
:1005E00064918C010F5F1F4F498396D4FFEFEF1A80
:1005F000FF0A49810333110511F0C801F0CF4550BE
:10060000453010F461E101C067E184E290E084D4F8
:100610002196E6E00C94484FCF93DF9382E090E080
:10062000FC01E15EFE4F6491EC01219675D4CB3262
:10063000D10511F0CE01F4CF87E390E0FC01EF5338
:10064000FF4F6491EC01219667D4C036D10511F0BB
:10065000CE01F4CF4D9918C060E18FE090E05CD4FA
:1006600060EB80E190E058D461E781E190E054D400
:1006700060E184E490E050D460EB85E490E04CD4F9
:1006800061E786E490E048D488E095DFDF91CF9180
:1006900008952C98806C89DF80E087DF2C9A08957C
:1006A000A1E0B0E0E6E5F3E00C94304F2C988064D4
:1006B00069837BDF6981862F78DF2C9A2196E2E0BF
:1006C0000C944C4F2C9871DF2C9A0895EF92FF9266
:1006D0000F931F93CF93DF93EC0110926703EA9877
:1006E000249A2C9A8EE190E04BD22C988EE190E0E7
:1006F00047D22C9A8DE290E043D280E3E3DF84E698
:1007000090E03ED22C9880E450DF7E0189E2E80E32
:10071000F11C8E010F5F1F4FCE0103D446DF0E1573
:100720001F0511F0E801F5CF2C9A2C988EE73DDFDC
:100730008BE290E0EC012196F4D337DFC333D1058F
:1007400011F0CE01F7CF2C9A83E3BCDF81E01DD2FC
:10075000CDB7DEB7E6E00C94484FA1E0B0E0E3EBA4
:10076000F3E00C94304F22E0298341E0BE016F5F3B
:100770007F4F019649D389811EDF82E090E0A6DF9A
:100780002196E2E00C944C4FCF93EA9886E39ADFEF
:10079000CFEF85E397DFC1508077803229F08AE080
:1007A00090E0EED1C111F5CFCF910895CF93CFEF67
:1007B00084E388DFC1508077803129F08AE090E0BF
:1007C000DFD1C111F5CFEA9ACF910895A2E0B0E050
:1007D000ECEEF3E00C942E4F8C01FC018181873705
:1007E000E9F441E0BE016F5F7F4FC80102960CD370
:1007F000892BA1F041E0BE016E5F7F4FC8010496D6
:1008000003D3892B59F06A8189814ADF83E35ADF58
:10081000CDDF8981F5D28A81F3D22CC041E0BE01BF
:100820006E5F7F4FC8010196EFD2892B21F18A813B
:10083000893969F410E0812F2CDFE2D2812F877093
:10084000873009F469D21F5F1033A9F714C021DF84
:10085000182F83E40AD28A81D3D284EF90E04FD25A
:10086000812FCED280EF90E04AD240E262E0812F29
:1008700090E056D251D22296E4E00C944A4F86E39F
:1008800021DF10928C091092C10210926703089523
:1008900082E090E01BDF81E080938C091092C1021E
:1008A0001092670308950F931F93CF93DF93082F40
:1008B00010E0C62FD0E085E3ECDE801731F0CE01EA
:1008C0005FD11150C1F781E001C080E0DF91CF918D
:1008D0001F910F91089585E2DCDE8F3311F080E0E7
:1008E000089586E3EFDE8091B802811104C081EAA9
:1008F00091E005D202C08DE3E5DE83E3E3DE64E050
:1009000081E0D1DF85E2C5DE8F3349F78091B802FF
:10091000811103C08AE991E0F2D181E0089585E375
:10092000B8DE8D3051F485E2B4DE8F3331F4D3DF9D
:1009300084E3C8DE80778031D9F708951F920F9243
:100940000FB60F9211240BB60F928F939F93AF9314
:10095000BF93EF93FF9380918E0990918F09A0919F
:100960009009B09191090196A11DB11D80938E0946
:1009700090938F09A0939009B093910980918D096C
:100980008F5F80938D0980917E1E8F5F80937E1E86
:100990008D37A8F080910D0190910E01A0910F016B
:1009A000B09110010196A11DB11D80930D0190938E
:1009B0000E01A0930F01B093100110927E1EE3EB85
:1009C000FDE080819181181619061CF4019791832E
:1009D000808336968DE0EB3CF80799F78091CD0D3A
:1009E0009091CE0D009729F001979093CE0D8093B2
:1009F000CD0D8091E00D8F3F19F081508093E00D77
:100A0000FF91EF91BF91AF919F918F910F900BBE8E
:100A10000F900FBE0F901F9018952FB7F89440912C
:100A20008E0950918F096091900970919109FC0194
:100A300040835183628373832FBF0895A4E0B0E0A5
:100A4000E4E2F5E00C94304FCE010196E6DF8C81B4
:100A5000D7D18B81D5D18A81D3D18981D1D15CD1B4
:100A60002496E2E00C944C4FA4E0B0E0EAE3F5E019
:100A70000C94304FCE010196D0DF89819A81249663
:100A8000E2E00C944C4F1F93CF93DF9380918E093B
:100A900090918F09A0919009B09191092091BA028B
:100AA000281709F469C080918E0990918F09A0914F
:100AB0009009B09191098093BA02A895C3EBDDE04B
:100AC00010E028813981232B19F4812F0E94C61D43
:100AD0001F5F26961430A9F78091CD0D9091CE0D11
:100AE000892B11F40E94221E8091E00D811102C019
:100AF0000E94801E8091A40D882339F0815080933C
:100B0000A40D811102C00E94C1170E947A3B8091FE
:100B10008D098D3788F110928D098091000181FF38
:100B200004C085B191E0892785B98091920990919F
:100B30009309843823E0920728F40196909393094F
:100B4000809392090E94893780910D01811102C022
:100B50000E948D368091B9028F5F8093B9028C33E9
:100B600059F41092B9028091B20D8F5F8093B20D4B
:100B70008C3310F01092B20DDF91CF911F91089538
:100B8000880F991F0197F1F7089520ED37E0815004
:100B900020F0F9013197F1F7FACF0895CF93DF9361
:100BA000DC0116968C911697843509F05BC0CD0157
:100BB0000696CD91DC9111974DE0242F30E02C1753
:100BC0003D0740F0AE014F5051092417350709F099
:100BD00049C008C0FC01E20FF31F50815B3391F361
:100BE0004F5FEBCFFE013E97E80FF91F20812435C0
:100BF000C9F517963C9117972181321333C0189687
:100C00003C911897228132132DC019963C91199767
:100C10002381321327C01A963C911A9724813213EC
:100C200021C06197C80FD91F8581888386818983F8
:100C300081858A8382858B8383858C8384858D835C
:100C400085858E838D919C9111970A9711969C931F
:100C50008E9314968D919C9115970A9715969C9357
:100C60008E931497DF91CF910895CF93C82F8091E1
:100C7000BB0282FF03C08C2F0E947C248091BB02A8
:100C800080FF13C02091F60D3091F70D2E3F83E0C9
:100C9000380738F02115344040F4CD3011F0CA3017
:100CA00021F46C2F82EF9DE024D38091AF0D882337
:100CB000C9F08091BB0283FF15C0CA3099F0CD30D6
:100CC00011F46BE301C06C2F8CE999E012D3CD30A5
:100CD00019F48CE999E062DF83E08093A40D82E04F
:100CE0008093AA0DCF910895CF93DF93EC01899162
:100CF000882311F0BADFFBCFDF91CF910895CF9316
:100D0000DF93EC01FE018491882319F0AEDF219678
:100D1000F9CFDF91CF9108958DE0A7DF8AE0A5CFCD
:100D2000A6E0B0E0E6E9F6E00C942E4F062F1E8216
:100D300015E02AE030E01150E1E0F0E0EC0FFD1F9B
:100D4000E10FF11DB9010E94B84E805D8083CB0197
:100D50000150009769F01111EECF0AC0112359F02C
:100D60001150E1E0F0E0EC0FFD1FE10FF11D4083B9
:100D7000015007FFF3CF81E090E08C0F9D1F810FA2
:100D8000911DB2DF2696E4E00C944A4FA5E0B0E056
:100D9000ECECF6E00C94304F1D8224E0382F3F70CD
:100DA0002150E22FF0E03A3010F4305D01C0395CA0
:100DB000A1E0B0E0AC0FBD1FEA0FFB1F308334E0B1
:100DC000969587953A95E1F76150009739F761500C
:100DD00067FD0BC0222349F02150E1E0F0E0EC0F69
:100DE000FD1FE20FF11D4083F2CF81E090E08C0FF8
:100DF0009D1F820F911D78DF2596E2E00C944C4FE9
:100E000040E362E090E0C2CFDC01FB0130E090E023
:100E10008D918823A9F0813608F0805220ED280FAB
:100E20002A3030F02FEB280F263030F429EC280F31
:100E3000292B332379F006C0803251F38A3341F3F2
:100E4000CF0105C0CF0101962083415041F4861B9C
:100E5000970B0895922F9295907F31E0D9CFFC01A6
:100E6000D5CFFB0150E020E0DC013D91CD013323E3
:100E7000D1F050ED530F5A3050F4522F550F252F0B
:100E8000220F220F250F2053230F51E0EDCF3032D8
:100E900011F03E3279F4442321F020834150319601
:100EA000E1CF50E0E1CFDF01552321F0442311F0E1
:100EB00031962C93CF01861B970B089520E030E0EC
:100EC0005AE0FC014191CF01442379F0E0EDE40FB9
:100ED000EA30B8F7F9015E9F90015F9F300D112451
:100EE00020533109240F311DECCFFB0131832083C6
:100EF0000895982F92959F709A3010F4905D01C0DC
:100F0000995CFB0190838F708A3010F4805D01C082
:100F1000895CFB01818308950E94C850F999FECF36
:100F200008950C94A95008951F93CF93DF9314E074
:100F3000115068F0EC012196F4DF40E261E090E0AE
:100F4000EFDE112311F08EE290DECE01F1CFDF91C2
:100F5000CF911F9108951F93CF93DF93162F1150B8
:100F60001F3F59F0EC012196DCDF4ADF112311F01D
:100F70008AE37BDE1150CE01F3CFDF91CF911F9139
:100F80000895A2E0B0E0E7ECF7E00C942D4FFC01EF
:100F90002181293691F582818D3621F466E082E641
:100FA00090E030C0843619F488E690E019C08136AC
:100FB00019F489E690E00EC08E3619F48DE690E0C3
:100FC00009C0873619F481E790E004C08E3421F41B
:100FD00085E790E0A9DF44C08F3629F48BE790E0E5
:100FE000A0DF0EDF3DC0803709F03AC089E790E00E
:100FF0000E94B15040E260E032C02D3429F466E036
:101000008AEF9FE0A8DF2CC0203521F460E18AED53
:101010009FE0F8CF1A82198242E0BE016F5F7F4FD6
:101020000196F2DE098110E0823021F4102F0027B2
:101030008A81082BC80175DFF82E82E516DE40E3B1
:1010400064E0C801A3DE8AEC91E059DE8F2DD8DE82
:1010500086EC91E054DE40E262E08F2D90E060DEAD
:101060005BDE2296E5E00C94494FA8E0B0E0EBE3AC
:10107000F8E00C942A4F9C01FC0181818E010F5FE6
:101080001F4F893609F06BC082818D3649F446E0E6
:10109000B801C9010396B8DE82E690E026E04DC0B3
:1010A000843639F4B801C901039608DF88E690E078
:1010B0003FC0813641F444E0B801C9010396D1DE56
:1010C00089E690E027C08E3641F444E0B801C901BA
:1010D0000396C7DE8DE690E01DC0873641F444E0FC
:1010E000B801C9010396BDDE81E790E013C08037E7
:1010F00041F4B801C9010396E1DE89E790E022E0FE
:101100001CC08E3449F444E0B801C9010396A9DE3D
:1011100085E790E024E011C08F3661F441E0B8012A
:10112000C901039671DE898180937F1E8BE790E071
:1011300021E003C080E090E020E078013E2D301BEC
:10114000321708F046C0F70161917F016C01FFEF93
:10115000CF1ADF0A2887E0DEC6012885EFCF43E0FB
:10116000B801C901019628873F834EDE28853F815B
:10117000823078F1C980D12C823021F0DC2CCC2453
:101180004A81C42A7C01FF24FE01EE0DFF1D60810F
:10119000C60128873F83C0DEEE0CFF1C8FEFE81AE4
:1011A000F80A28853F81E20EF31EF701808188232B
:1011B00081F041E0B801C70127DE892B51F0EFEF44
:1011C000CE1ADE0A6981C601A7DEF2E0EF0EF11C3D
:1011D000ECCF2896E8E00C94464F41E060E071E0E7
:1011E000019612DE8091000180FF02C0289A01C0A2
:1011F00028986091000184E390E08ECEA1E0B0E0F9
:10120000E4E0F9E00C94304F1982009731F041E0AE
:10121000BE016F5F7F4F0196F7DD89818F3F09F433
:10122000FFCF882321F061E083E390E075DE109228
:101230006E00F89428E088E190E00FB6F894A89545
:10124000809360000FBE20936000FFCFCF93DF93A9
:10125000EC0161E080E090E05FDE63E481E090E03B
:101260005BDEDAD960E080E690E056DE60E081E6A1
:1012700090E052DE60E083E390E04EDE62E084E3E3
:1012800090E04ADE0E94972160E080E690E044DE34
:1012900060E081E690E040DE8981883719F080E0E7
:1012A00090E0ACDFDF91CF91089580E090E039DEEF
:1012B000813029F481E090E034DE833419F080E05D
:1012C00090E0C4DF84E390E02CDE80930001089579
:1012D0004D9903C087EB91E002C088EA91E00FDDF1
:1012E0001BCDFC011582148211821082138212829E
:1012F0000895FC014FB7F89484819581811524E00D
:10130000920798F401969583848320813181C901E5
:10131000019691838083DF01A20FB31F16966C9311
:101320008115944011F4118210824FBF0895FC0181
:101330004FB7F89484819581009719F44FBF80E0EE
:101340000895019795838483828193819C012F5F07
:101350003F4F33832283DF01A80FB91F16968C916C
:101360002115344011F4138212824FBF0895FA01FF
:101370003081882369F0E1E0F0E0022E01C0EE0F39
:101380000A94EAF7DB01A30FB11D9C919E2B9C935D
:10139000222319F08FEF820F0BC081E0830F8C3076
:1013A00010F4FA018083FB01E80FF11D108287E041
:1013B00090E00895CF93C82F299A882319F080913F
:1013C000BE0202C08091C00220E1829FC0011124B0
:1013D000D7DB2998CC2319F08091BD0202C08091FF
:1013E000BF0220E1829FC0011124CADBCF91089582
:1013F000A3E0B0E0EEEFF9E00C94204F5C01162F73
:10140000622E842F90E09B838A83209192093091F1
:1014100093090296089F802D1124992787FD9095A6
:101420002817390720F48EEC91E069DC7DC0281B79
:10143000390B3093930920939209289A809167037E
:10144000882341F0109267038BEA92E0C7D4FF240F
:10145000F39401C0F12C80918C09811101C018DA3C
:1014600093D9812E912CCC24C394D12C712C512C46
:10147000852D992787FD90958815990524F480E09E
:1014800099DF5394F5CF112311F081E093DF20E031
:10149000422E552447FC5094EA81FB814E165F068C
:1014A0002CF097E0392E4A0C5B1C1AC087E0282EDE
:1014B000312C4A0C5B1CC601022C01C0880F0A9417
:1014C000EAF7F20190818923298374DFF1E02F1A72
:1014D000310829818FEF2816380669F72F5FD8CF9A
:1014E000832D992787FD90956816790664F4C601C7
:1014F000032C01C0880F0A94EAF7F2019081892336
:1015000059DF3A94EDCF8E2D40DB015009F0AFCF7B
:1015100080919509882311F049D902C086E3D2D879
:10152000F1100E94DD1728982396E2E10C943C4FBD
:10153000ADE0B0E0EEE9FAE00C94234F7C01162F09
:10154000842F022F6701C60ED11C462FB7015DD430
:10155000D6018C931F5F1D8619825E2C670127E0E0
:1015600066246394712C8C2D8519811788F547E0CA
:10157000A42EB12C4701880E911CF3010A2C01C046
:10158000EE0F0A94EAF7D4018C91AE01435F5F4FEE
:10159000BE016F5F7F4F8E23EADE282FB1E0AB1ACA
:1015A000B10858F7D6018D916D01082E82958025DE
:1015B000082E8695869580258F5F86958170AE0171
:1015C000435F5F4FBE016F5F7F4FD1DE282FCBCFD0
:1015D000222311F0215004C08D858F5F8D8727E075
:1015E00089E18093BF028093C00285E28093BD02AF
:1015F0008093BE023AE0E32E4D856CE0CE01019669
:10160000F7DE2D96EFE00C943F4FADE0B0E0EBE05D
:10161000FBE00C942F4F162F242F4BE0BE016F5F81
:101620007F4F01962D87F0DB2D85412F682FCE014E
:1016300001967EDF2D96E3E00C944B4F43E066E08D
:10164000E4CFEF920F93CF93DF93CDB7DEB76097E0
:101650000FB6F894DEBF0FBECDBF40E1BE016F5F95
:101660007F4F0196D1DB69814A810B818C81809308
:10167000C0028D818093BF028E818093BE028F81D4
:101680008093BD02E02EE2947FE0E7220F70242FCA
:101690002F7042954F70CE010896AADE60960FB665
:1016A000F894DEBF0FBECDBFDF91CF910F91EF90C9
:1016B0000895A9E1B0E0EFE5FBE00C94284F4BE082
:1016C000BE016F5F7F4F01969FDB182F893009F0B5
:1016D0005AC099E19093BF029093C0029093BE02CA
:1016E00082E38093BD0269E0CE01019698D3E1E0E8
:1016F000F0E0EC0FFD1FE10FF11D8083198E1D86B8
:10170000CE0101967C016E019BE0C90ED11C27E041
:10171000AA24A394B12CEC14FD0429F100E010E0FC
:10172000F501002E01C0EE0F0A94EAF7D7018C9163
:10173000AE01475E5F4FBE01635F7F4F8E2317DEB2
:10174000282F0F5F1F4F0830110551F7AE01475E7C
:101750005F4FBE01635F7F4F81E009DE282FBFEF3F
:10176000EB1AFB0AD8CF222311F0215004C0898D37
:101770008F5F898F27E0EAE0EE2E03E0498D6CE071
:10178000CE010D9635DE6996EAE00C94444FCF9376
:10179000DF93EA98249A2C9A8EE190E0F1D92C9864
:1017A0008EE190E0EDD92C9A8DE290E0E9D980E3CA
:1017B0000E94620384E690E0E3D9C5EFD1E0FE0128
:1017C00031966491FE0184910E9450032296F2E0CA
:1017D000C732DF07A1F78091C202811106C083E3FF
:1017E0000E94620384E0D1D90FC0CFEDD1E0FE01A9
:1017F00031966491FE0184910E9450032296F1E09B
:10180000C53FDF07A1F7EBCF84E30E94620385E3C6
:101810000E9449038D30C1F7DF91CF910895A2E373
:10182000B0E0E5E1FCE00C942E4F8091C1028823EA
:1018300009F49BC01A9B84C08FE30E9449038F77F1
:101840008983823368F08AE30E94620386E30E9400
:1018500062038DE30E94620384E30E94620385C0F9
:101860002C988FEF0E94D50210E08981181760F440
:1018700080E00E94D502E2E0F0E0EC0FFD1FE10FF6
:10188000F11D80831F5FF1CF80E00E94D502082FF9
:1018900080E00E94D5022C9A84E30E94620385E3D3
:1018A0000E9449038D30C1F72A8196E792279A83D7
:1018B00092E08981E92FF0E0981768F441E050E068
:1018C0004C0F5D1FE40FF51F308124522327208326
:1018D0009F5F232FEECF81E090E08C0F9D1FE80FDC
:1018E000F91F90818B81982790838091950984FFBF
:1018F00010C081E6BAD910E08981811708F1E1E0D2
:10190000F0E0EC0FFD1FE10FF11D8081AED91F5FEC
:10191000F3CF81E4AAD910E08981811750F0E1E08A
:10192000F0E0EC0FFD1FE10FF11D808169DA1F5F10
:10193000F3CF8091950985FF02C0802F61DAECD941
:1019400085E30E944903813029F0813161F48AE303
:101950000E94620386E30E9462038DE30E94620399
:1019600084E30E9462030E948F04E296E4E00C94F8
:101970004A4F8F929F92AF92BF92DF92EF92FF9267
:101980000F931F93CF93DF93CDB7DEB7EA970FB6D0
:10199000F894DEBF0FBECDBF41E38E010F5F1F4F36
:1019A000B801019631DA7C0199270197298130E04D
:1019B0008217930709F09BC08091C102811103C077
:1019C000E6DE83E0E2D8DB808A8196E789278A8396
:1019D00022E03981822F90E0F801E80FF91F2317E8
:1019E00050F4DE01A80FB91F8C9184529081892791
:1019F00080832F5FEECF80818D258083CE01C796B7
:101A00000CD885E30E94620385E30E944903833179
:101A100071F1CE01C39601D84BA95CA96DA97EA92D
:101A20008FA998ADA9ADBAAD84179507A607B707DA
:101A300060F44A015B01881A990AAA0ABB0A2DEBD5
:101A400082169104A104B10470F4481759076A077B
:101A50007B0768F484549F4FAF4FBF4F841795079F
:101A6000A607B70720F485ED91E049D924C085E3A6
:101A70000E944903833129F6D4FE06C088E785D841
:101A800088E783D888E701C08AE07FD82C988FE761
:101A90000E94D50258018A2D801B8E1530F4F50165
:101AA00081915F010E94D502F6CF2C9A85E30E94B6
:101AB00049038331D9F385E30E944903863149F410
:101AC0008BE30E94620386E30E9462038DE30E941F
:101AD00062038091C102882349F084E30E9462037B
:101AE00085E30E9449038D30C1F701C068D1EA96B1
:101AF0000FB6F894DEBF0FBECDBFDF91CF911F911F
:101B00000F91FF90EF90DF90BF90AF909F908F90DC
:101B10000895FC012181223731F0223559F481E00A
:101B20008093C20202C01092C20231DE81E0809333
:101B3000C1020895233711F401961BCF1092C10200
:101B400008958F929F92AF92BF92DF92EF92FF9291
:101B50000F931F93CF93DF931092DE021092F30244
:101B6000FC012181220F220F220F3381231B57E01A
:101B7000520F1092DF0210E070E038E0D32ED20E48
:101B8000FF24F39447E007E0E12CC7E0D0E0A1E0B8
:101B9000B0E0FD1409F47FC0FC01EE0DF11D2481BD
:101BA00030E0002E02C0359527950A94E2F72170A7
:101BB0003327E22F002311F0015002C0E39407E025
:101BC0006B3471F4433009F04AC0111107C0E111C0
:101BD0005FC01092DE027093F30274C010E041C047
:101BE0004F3F31F56634A9F4E72FF0E0E152FD4FA5
:101BF000E0810E2EE295E0250E2EE695E695E02595
:101C0000EF5FE1FB882480F8912C8216930641F067
:101C100004C0653429F4E11103C01093DE02DBCF68
:101C20007F5FE72FF0E0E152FD4F108247E031C0C7
:101C3000EE2361F1663471F4E72FF0E0E152FD4FDD
:101C4000A0809D01042E01C0220F0A94EAF7A22A67
:101C5000A0821CC0653439F06B34C1F404C04F3F1E
:101C6000D1F2EE2399F0E72FF0E0E152FD4F9E0113
:101C7000241B310947FD33955D0102C0AA0CBB1C32
:101C80002A95E2F795013081322B3083415001C013
:101C900011E0F3947ECF1093DE027093F3025F1590
:101CA00088F4653431F44F3F21F47F5F7093F30281
:101CB00004C08091DE028111F8CF81E09091F3029F
:101CC000911101C080E0DF91CF911F910F91FF90A2
:101CD000EF90DF90BF90AF909F908F9008951092FB
:101CE0006F00E091F6028CE1E89FF0011124E950C9
:101CF000FD4F1082809194098D7F809394090895FF
:101D0000FC012181243108F0EACF3381662381F080
:101D100081E090E0032E01C0880F0A94EAF7DF010A
:101D2000A20FB11D14969C911497982B14969C9316
:101D3000332319F031503383089587E083832F5F75
:101D40002183E20FF11D14820895DC011196EC91BC
:101D50001197F0E050E02C91CF01841B950B0B966E
:101D60004797A0F430E070E0C901861B970B0B96F3
:101D7000479760F42E0F3F1F640F751F261B370B0C
:101D8000255F3F4F81E02731310508F080E008955D
:101D9000219A29982298E9E6F0E080818061808389
:101DA00082EC91E09093930980939209109213032F
:101DB00010922F0310924B0310928C09089580917A
:101DC000830981110AC080919509882321F00E941E
:101DD00048040C94D6030C943F040895FC0121811F
:101DE00021110DC0809195090BD840E265E08091EA
:101DF0009209909193090E9490060C948C0641E000
:101E000065E979E0019600D8DACF442339F04150F2
:101E1000FB01E40FF11D9081890FF7CF089520E0B9
:101E2000662339F06150FC01E60FF11D3081232754
:101E3000F7CF822F0895A091DE0240E035E020E048
:101E4000662399F06150FC01E60FF11D5081752F5A
:101E500072957F702727370FAA2311F0442319F0BA
:101E60005F702527350F4F5FEBCF320F40E1349F76
:101E7000C0011124822B0895FC0132812381A081AD
:101E8000B181A30FB11D8C9190E0022E02C09595F7
:101E900087950A94E2F7817099274FEF420F4383A9
:101EA000211104C03F5F328327E023830895A2E01D
:101EB000B0E0EDE5FFE00C94284F7C01A12CB12CA3
:101EC000D12CCC24C394062F10E001501109A61682
:101ED000F0F4C7014A836983CFDF4A81698188238F
:101EE00091F0442349F098012A193B098C2D01C037
:101EF000880F2A95EAF706C08C2D0A2C01C0880F9E
:101F00000A94EAF7D82A8FEFA81AB80AE0CF8D2DE5
:101F10002296EAE00C94444FA4E0B0E0E2E9FFE04E
:101F20000C94274F1B8227E02C839C012C5F3F4F92
:101F30003A8329831092F302FC012181338187E0E7
:101F400090E0831B9109F8E02F9F800D911D1124D3
:101F5000853491050CF44EC0B12CA090F302F5E04D
:101F6000FA1558F10A2D10E040E068E0CE01019624
:101F70009EDF01521D4FF8018083982E092C929408
:101F80009024092C969496949024CE01019674DFA7
:101F9000939491FACC24C0F8D12C90E0C816D906BD
:101FA00049F5CE01019668DF811124C0F8018081D6
:101FB000B826A394A092F302D0CF40E068E0CE010F
:101FC000019675DF082F182F012E12951025012E6E
:101FD000169516951025CE0101964EDF1F5F11FB59
:101FE000EE24E0F8F12C282F30E0E216F30611F48D
:101FF00081E0B01280E02496EBE00C94434FA5E022
:10200000B0E0E5E0F0E10C942B4FFC011B8287E08F
:102010008C83CF0104969A8389838081853009F06F
:1020200051C02181338187E090E0831B910938E022
:10203000239F800D911D11248039910509F042C024
:102040001092F3020FE010EF29E88091F302E82EDE
:10205000F12CDD24D394D80E41E068E08F3088F471
:10206000CE0101962D8323DF080F111DF701E152E8
:10207000FD4F2D812827208324E2280FD092F302E0
:10208000E4CFCE01019613DF080F111DD092F302A9
:10209000F701E152FD4F8095808341E068E0CE0179
:1020A000019605DF90E0982F8827081B190B41E067
:1020B00068E0CE010196FBDE282F30E081E00217B8
:1020C000130709F080E02596E7E00C94474FA4E061
:1020D000B0E0EDE6F0E10C942D4F1B8227E02C835D
:1020E0009C012C5F3F4F3A832983FC0121812430DE
:1020F000A1F58381813089F51092F3028091F3027A
:10210000082F10E0FF24F394F80E41E0843098F497
:10211000811106C067E0CE010196C9DE806804C067
:1021200068E0CE010196C3DEF801E152FD4F8083E5
:10213000F092F302E3CF67E0CE010196B8DEF8013A
:10214000E152FD4F880F8083F092F3029091DF02FD
:1021500092959F7081E09A3009F080E02496E5E046
:102160000C94494FCF93DF93FC0181818330E9F4D4
:1021700083818730D1F480818830B9F41092F302E2
:1021800020E0822F90E0DC01A152BD4FEF01C80F8B
:10219000D91F8C818C9381E0820F833010F4282F1B
:1021A000F0CF8093F30281E001C080E0DF91CF9116
:1021B0000895FC01908180919409993611F093372C
:1021C00051F4982F9370913011F4826006C080FF13
:1021D00007C08B7F03C080FD03C084608093940997
:1021E0000895A1E0B0E0E7EFF0E10C942C4F1982E4
:1021F0008091C3028823B9F18091950987FF17C0A8
:1022000084E30E9449038058803458F0803C58F49D
:1022100090E08055910953E0959587955A95E1F79F
:1022200003C080E001C08FE08F590E943506809185
:10223000950983FF16C082E70E94350680919509B3
:1022400084FF04C08091C4020E94350686E60E9485
:1022500035068091950984FF04C08091C3020E94D5
:1022600035061092C3028091F402882309F451C20A
:10227000289A0091F5022CE1029F80011124095057
:102280001D4F8981811106C0C8016CDF882311F0C0
:1022900083E789838981811106C0C801B0DE882364
:1022A00011F083E589838981811139C066E4C80111
:1022B00048DC8823A1F1F090F302FA94F092F30243
:1022C0004F2D6FED72E086E0A0DDEF2DF0E0E152E2
:1022D000FD4FE0808E1105C093E09F1510F486E459
:1022E0001BC0282F30E02F5F3F4F6E2D70E0261768
:1022F000370739F423E02F1520F496E4998380837F
:102300000EC04F2D6FED72E08CE07FDD8E1106C0A8
:1023100083E08F1518F484E5898301C019828981CF
:10232000811116C065E4C8010CDC882389F0809116
:10233000F30281508093F302893051F469E08FED0C
:1023400092E06DDD9091E802891302C085E48983F3
:102350008981811106C0C801DFDD882311F088E47E
:1023600089838981811106C0C801B1DE882311F0FB
:1023700084E789838981811133C0F801438D60919D
:10238000C402C8014A96E1DC682FC801B9DC6BE4DD
:10239000C801D7DB8823B1F0F090F302FA94F092F1
:1023A000F3026F2D8FED92E046DDEF2DF0E090917E
:1023B000DE02E91BF109E152FD4F9081891302C051
:1023C0008BE48983898181110BC0F801838191E0BD
:1023D000980F9383873021F4138281818150818308
:1023E000898181112DC0F8018181843049F5838173
:1023F000843031F54EE16CE3C8014896A6DC8823B1
:10240000F9F04EE16091C402C8014A969EDC682F43
:10241000C80176DC20E0822F90E0FC01E152FD4F04
:10242000D801A80FB91F14968C91808381E0820F88
:10243000853010F4282FEFCF8093F30282E5898353
:102440003981332309F4D9C02091950920FFD5C0E3
:10245000809194098E7F8B7F8093940921FD64C0C5
:102460005091DD02F090F3025F113DC040E045174E
:10247000C0F4842F90E061E0640FFC01E753FD4F4E
:10248000DC01A152BD4F70818C91781741F04093CF
:10249000DD02809194098D7F8093940904C0462FBA
:1024A000E6CF4093DD0245131EC040918E09509146
:1024B0008F0960919009709191098091C502909166
:1024C000C602A091C702B091C802481B590B6A0B03
:1024D0007B0B463251056105710528F48091940902
:1024E00081608093940940E04F1560F4842F90E060
:1024F000FC01E753FD4FDC01A152BD4F8C9180835D
:102500004F5FF2CF4093DD0280918E0990918F0949
:10251000A0919009B09191098093C5029093C60251
:10252000A093C702B093C8023435E9F426FD1BC05E
:102530008091F3028530B8F08091E1028B3471F024
:10254000893661F09DEA980F923040F08D578230C5
:1025500028F08091E2028077803729F480919409F5
:10256000816080939409B801CE01019622DE8981B1
:10257000843569F49091AF0D992349F09091B10D94
:10258000911105C0909194099B7F9093940990912B
:10259000940992FF32C00E9435068091DE028823A2
:1025A00029F08091F30281508093F302F12CE091A5
:1025B000F302FE1648F4EF2DF0E0E152FD4F80816A
:1025C0000E940007F394F3CF8091DE02882351F03C
:1025D000F0E0E152FD4F80818F7040E361E090E0D8
:1025E0000E94C6068091950985FF05C084E30E947C
:1025F00049030E9400070E948C068091950982FF82
:102600006FC080E70E943506F801808140E262E0F9
:1026100090E00E949006F801808D40E265E0F0E1D4
:102620008F9FC00111240E949006F801818D40E225
:1026300065E0F0E18F9FC00111240E949006F8012F
:10264000828D40E265E0F0E18F9FC00111240E947D
:102650009006F801838D40E265E0F0E18F9FC001B4
:1026600011240E949006F801828140E263E090E02C
:102670000E949006F801818140E263E090E00E94B0
:102680009006F801238140E262E087E090E0821B3F
:1026900091090E94900680E20E943506809195097A
:1026A00085FF08C084E30E9449030E94000780E27E
:1026B0000E943506F8018381873019F081818F5F90
:1026C0008183F12CF8018181F81640F4F801EF0DB7
:1026D000F11D84810E940007F394F4CF0E948C06C0
:1026E000F80110828091F40281508093F40280916D
:1026F000F5028F5F843019F08093F50202C01092CA
:10270000F50228988981843521F48FED92E00E94AA
:102710008F1E2196E6E00C94484F1F920F920FB641
:102720000F9211240BB60F922F933F934F935F9309
:102730006F937F938F939F93AF93BF93EF93FF9389
:1027400010926F008091950983FF03C08EE20E9472
:1027500035068091F6029CE1899FF0011124E95031
:10276000FD4F9081933018F09181923010F4B7DAD8
:1027700018C09091F402933049F48091950982FF3A
:10278000F6CF87E292E00E947F06F1CF9F5F9093A1
:10279000F4028F5F843019F08093F60202C0109229
:1027A000F602FF91EF91BF91AF919F918F917F9131
:1027B0006F915F914F913F912F910F900BBE0F90B2
:1027C0000FBE0F901F9018959BED980F973150F406
:1027D00096EF960F9D3130F491E0681708F090E085
:1027E000892F089580E008951F920F920FB60F92DF
:1027F00011240BB60F92FF920F931F932F933F93C9
:102800004F935F936F937F938F939F93AF93BF93F8
:10281000CF93DF93EF93FF938091F10D882321F005
:1028200082E08093F10D63C18091A50D823021F487
:1028300083E08093A50D5BC1009184001091850019
:1028400064E0169507956A95E1F7C091F6029CE160
:10285000C99FE0011124C950DD4F9881943031F4B3
:102860000E3208F444C10F3448F0B6C0953031F44C
:10287000073108F43CC1083208F0AEC01A990DC007
:102880009450923038F461E0CE013ADA109285002B
:10289000109284000093C4022AC18091C402081BD4
:1028A0000093C302109285001092840098819830A2
:1028B00071F42A8121110BC021E02A83888F8A8F2D
:1028C000098F0B3B10F4000F01C006950B8F94503D
:1028D000923020F460E0CE0113DA09C182E086BBB9
:1028E000F880F11011C09091C402953608F0FFC035
:1028F0008091C302853608F0FAC0988F898F81E0F5
:102900008A8382E08883F3C01091C30282E0F812C8
:1029100073C00091C402412F602FCE01489615DA92
:102920006A818823F9F0488D50E09A01220F331F05
:10293000240F351F200F311D359527953595279587
:10294000288F298D30E0C901880F991F820F931FAE
:10295000810F911D9595879595958795898F6F5FC7
:102960006A83C5C0643008F445C020EA3FE0309374
:102970008900209388008A818C3050F0888D298DC1
:1029800030E0280F311D2536310524F084E027C0C2
:102990008A3088F0888D298D30E0280F311D25324E
:1029A00031054CF485E0888328EE33E030938900CC
:1029B0002093880015C080919B09882379F0612FAE
:1029C000802F02DF882351F0688D898DFDDE8823FA
:1029D00029F081E08093A50D82D989C083E08883A6
:1029E0000A8F1B8F198287E08B831C8282E0809381
:1029F0006F007DC0188277CF98E0F91225C081E979
:102A0000810F8D3178F460E0CE017AD9288D30E0E5
:102A1000C901880F991F820F931F2091C402820F52
:102A2000911D4EC0173E08F462C061E0CE0168D926
:102A30002A8D30E0C901880F991F820F931F2091C2
:102A4000C402820F911D15C00091C402412F602F56
:102A5000CE014A967AD9882301F161E0CE0150D99E
:102A60002A8D30E0C901880F991F820F931F800FB4
:102A7000911D95958795959587958A8F2B8D30E03B
:102A8000C901880F991F820F931F810F911D959582
:102A90008795959587958B8F2AC0412F602FCE0102
:102AA000489653D9882301F160E0CE0129D9288DB9
:102AB00030E0C901880F991F820F931F800F911D6D
:102AC0009595879595958795888F298D30E0C901D3
:102AD000880F991F820F931F810F911D95958795E0
:102AE00095958795898F03C087E0F81275CFFF9180
:102AF000EF91DF91CF91BF91AF919F918F917F9196
:102B00006F915F914F913F912F911F910F91FF9086
:102B10000F900BBE0F900FBE0F901F901895E09175
:102B2000F6028CE1E89FF0011124E950FD4F80810D
:102B3000811107C081E09091E00D9F3F19F480E082
:102B4000089581E0089580E690E00E9491078093C7
:102B50009B0981E690E00E9491078093AF0D882346
:102B600021F081E2809395092AC90895299A0C944D
:102B7000C00529980C94C005A7E0B0E0E2ECF5E1AF
:102B80000C942B4F9091A209943559F42091A80DE3
:102B90003091A90D2F5F3F4F3093A90D2093A80DC1
:102BA0003EC0963459F42091A60D3091A70D2F5FA9
:102BB0003F4F3093A70D2093A60D31C0953459F4A3
:102BC00020919809309199092F5F3F4F30939909CF
:102BD0002093980924C09B3459F42091AB0D309177
:102BE000AC0D2F5F3F4F3093AC0D2093AB0D17C052
:102BF000983459F42091AD0D3091AE0D2F5F3F4FB9
:102C00003093AE0D2093AD0D0AC0209196093091FE
:102C100097092F5F3F4F309397092093960995E7C7
:102C20009983882399F0BE016E5F7F4F8091AF0D2D
:102C30000E947907BE016C5F7F4F80919B090E94C3
:102C4000790785E58E8386E0D82E02C0DD24D394F3
:102C50000E9448040E94C40316E080E891E086DFE9
:102C600080E093E086DF1150C1F780E093E07EDFE3
:102C700080E891E07EDF80E891E078DF299887E3C3
:102C800090E00E94660383E00E94C5052C988FE7C0
:102C90000E94D5028091A0098D0D0E94D502CE011F
:102CA00001967C018C01F80181918F010E94D5026F
:102CB000802F8E198D15B8F38091A0099091A109EC
:102CC000892B39F08CE999E00E9497090E94D5027E
:102CD000F3CF2C9A0E94C4038CE999E00E947109F9
:102CE00015E18AE30E9449038F7731F0115021F0FA
:102CF00081E00E94C505F5CF62D82796E7E00C94E5
:102D0000474FCF93DF93EC018981811107C08091F8
:102D10009B090E9400078091AF0D13C08436A1F477
:102D200080918E0990918F09A0919009B09191099D
:102D300040E364E00E94C6068EE20E943506809160
:102D4000A40D0E9400074DC0833709F04DC040E339
:102D500061E08091A80D9091A90D0E94C6068EE2B7
:102D60000E94350640E361E08091A60D9091A70D89
:102D70000E94C6068EE20E94350640E361E0809123
:102D80009809909199090E94C6068EE20E94350624
:102D900040E361E08091AB0D9091AC0D0E94C606BE
:102DA0008EE20E94350640E361E08091AD0D909186
:102DB000AE0D0E94C6068EE20E94350640E361E039
:102DC00080919609909197090E94C6068EE20E9412
:102DD000350640E361E08091A20D9091A30D0E9421
:102DE000C6060E948C062CC08936D9F441E06BE9F6
:102DF00079E0CE0102960E94040760919B0980E66B
:102E000090E00E948C0741E06FEA7DE0CE010496DD
:102E10000E9404076091AF0D81E690E00E948C074C
:102E20000FC08CE999E00E9471092196699166238F
:102E300029F08CE999E00E947909F8CF80E09CDEC6
:102E4000DF91CF910895A1E0B0E0E9E2F7E10C94C1
:102E50002A4F8091A50D882309F48FC0C0908E0958
:102E6000D0908F09E0909009F0909109833009F09B
:102E70006AC08FE30E944903182F8630C8F088EF9C
:102E800091E10E9471092C988FEF0E94D50280E099
:102E90000E94D502082F115049F080E00E94D5020F
:102EA000682F88EF91E10E947909F5CF2C9A01C033
:102EB00000E00E94DF0E1092A50D053709F05DC0FD
:102EC00041E0BE016F5F7F4F8EEF91E10E940407EA
:102ED0000197A1F5998180919B0998132FC080914A
:102EE0000212853581F48091FC119091FD11892B9E
:102EF00039F088EF91E10E9497090E943506F3CFDF
:102F00000E948C063AC08091FC119091FD110497AB
:102F10009093FD118093FC1184E090E09093FB115D
:102F20008093FA116AE088EF91E10E947909E091BB
:102F30008A09F0918B0988E009951FC088EF91E11B
:102F40000E9471091AC0823059F480919A099C2D0F
:102F5000981B983090F00E94DF0E1092A50D0DC0C6
:102F6000813059F487E390E00E9466030E94D60303
:102F700082E08093A50DC0929A092196E8E00C9416
:102F8000464FCDDD882361F083E08093AA0D8091C8
:102F9000A20D9091A30D01969093A30D8093A20D85
:102FA0008091AA0D81508093AA0D882321F083E09F
:102FB0008093A40D089581E0DFCDCF93DF93EA984D
:102FC000249A2C9A8EE190E00E94C0052C988EE104
:102FD00090E00E94C0052C9A8DE290E00E94C0050E
:102FE00080E30E94620384E690E00E94C005C7E48B
:102FF000D2E0FE018491813440F083E30E946203B9
:1030000084E00E94C505CFEF0DC0FE0131966491AA
:10301000FE0184910E9450032296F2E0C338DF073C
:1030200041F7EBCF84E30E9462038AE090E00E94C4
:10303000C005C150B9F781E080936703DF91CF915C
:103040000895EF92FF920F931F93CF93DF93EC01BC
:103050008B01F880F3946115710519F0E4E6F0E056
:1030600002C0E0E0F0E028E0F29EC00111246AE036
:1030700070E00E94CC4E9B012E0F3F1FC901AA2772
:1030800097FDA095BA2FE0919209F0919309AF01B5
:1030900060E070E0481759076A077B0728F487E368
:1030A00092E00E947F06D9C0E21BF30BF0939309D4
:1030B000E093920980916703811101C07EDF85E36F
:1030C0000E9449038D3071F08AE50E94350685E43F
:1030D0000E94350682E50E94350682E50E9435068B
:1030E00081E34CC08091680390916903A0916A03C9
:1030F000B0916B03892B8A2B8B2B51F50E94C40353
:1031000085E30E944903833109F443C08AE50E94A4
:10311000350685E40E94350682E50E94350682E583
:103120000E94350682E32AC080918E0990918F0912
:10313000A0919009B09191094F5F5F4F6F4F7F4F02
:1031400084179507A607B707C9F681E00E94C50551
:1031500080918E0990918F09A0919009B091910969
:10316000409168035091690360916A0370916B0309
:1031700084179507A607B707B9F6E7CF0E9435066B
:1031800085E30E9449030E9400070E948C0615DF18
:1031900064C0012B41F42C988FE70E94D502EC2EDD
:1031A0000C2F1D2F0BC00AE010E084E60E94C5051D
:1031B0000150110901151105C1F7EDCF802F8E19AE
:1031C0008F1530F4F80181918F010E94D502F6CF5E
:1031D0002C9AC8EC85E30E9449038D30E9F485E31D
:1031E0000E9449038D3019F18AE50E94350685E475
:1031F0000E94350682E50E94350682E50E9435066A
:1032000083E30E94350685E30E9449030E9400077C
:103210000E948C06D2DE0BC085E30E9449038331F5
:10322000F1F681E00E94C505C150A1F6D8CF80918A
:103230006703811102C00E94DF0E80918E09909178
:103240008F09A0919009B0919109809368039093A0
:103250006903A0936A03B0936B03CDB7DEB7E6E0D2
:103260000C94484FACE0B0E0E8E3F9E10C942F4F48
:10327000FC018BE0898381818A831B8282E08C83BD
:1032800087818D8380858E8381858F8384818887E4
:103290008581898786818A871B861C8684E10E94B6
:1032A000C50560E070E0CE010196CBDE8AE50E94A4
:1032B000350610E0812F90E0298130E0281739078A
:1032C0005CF0E1E0F0E0EC0FFD1FE80FF91F8081FA
:1032D0000E9400071F5FEECF8091950985FF03C014
:1032E00080E00E9400070E948C062C96E3E00C947C
:1032F0004B4FCF93DF93EC0180916F03811108C096
:1033000090917003911104C0909171039923A9F0D9
:103310009B81903319F09F7E903479F49F819813AC
:103320000CC0988580917003981307C0998580918F
:103330007103981302C0CE0195DF80916C03811157
:1033400008C090916D03911104C090916E03992370
:10335000A9F098819B3091F49B81903479F49F81FE
:1033600098130CC0988580916D03981307C09985B8
:1033700080916E03981302C0CE0174DFDF91CF916C
:103380000895AEE1B0E0E7ECF9E10C942E4F8091A6
:103390006703882309F469C01A9B59C08FE30E9410
:1033A00049038F778E3108F08DE189832C988FEF58
:1033B0000E94D50210E08981181760F480E00E9415
:1033C000D502E2E0F0E0EC0FFD1FE10FF11D80837C
:1033D0001F5FF1CF80E00E94D502082F80E00E949D
:1033E000D5022C9ACE01019684DF8091950984FF45
:1033F00012C08AE70E94350610E089818117A8F182
:10340000E1E0F0E0EC0FFD1FE10FF11D80810E9473
:1034100035061F5FF2CF8AE50E94350610E08981EC
:10342000811758F0E1E0F0E0EC0FFD1FE10FF11D16
:1034300080810E9400071F5FF2CF8091950985FF70
:1034400003C0802F0E9400070E948C060EC085E3F7
:103450000E944903813149F48AE30E94620386E3B2
:103460000E94620384E30E9462036E96E4E00C947F
:103470004A4FAEE1B0E0EFE3FAE10C942E4F8C013D
:10348000FC018181823711F498DD36C0833711F059
:10349000863601F54DE1BE016F5F7F4FC801029690
:1034A0000E94040799270197298130E0821793072A
:1034B00029F08EE292E00E947F061EC061E070E07B
:1034C000F8018181833711F060E070E0CE01019650
:1034D000B8DD12C0813621F443E06FE673E005C029
:1034E000873741F443E06CE673E0C80102960E941E
:1034F000040702C0109267036E96E4E00C944A4FF2
:103500001092CB0D10922D0483E0809377038FEF00
:103510008093E00D0895E8E7F3E02081211105C0D4
:10352000892BB1F080E090E00895B4E0E632FB072B
:10353000B8F7009751F04181DC013C91431305C07D
:10354000428111963C91431751F0E20FF11DE5CFF6
:1035500034E0E632F30719F010F0E6E2F4E0CF01D0
:10356000089594E0899FF0011124EF51F24F80817A
:103570008F3F91F0809372038181809373038281E6
:103580008093740383818093750321E04CE064E0B1
:1035900082E793E00C94980A089587E294E0BBDFF9
:1035A000009799F020917703FC013081231768F48C
:1035B000E20FF11D80818093290489E780932A041A
:1035C000818180932B0481E0089580E00895EF923B
:1035D000FF921F93CF93DF931F92CDB7DEB7182FC3
:1035E0008091950986FF18C084E599830E9435066D
:1035F000E12E9981F92E15E0F70181917F010E945A
:1036000000071150C9F78091950985FF03C08AEF23
:103610000E9400070E948C060F90DF91CF911F91AE
:10362000FF90EF90089586E30E9462038091290441
:10363000833511F48BE901C08BE40E94C50521E0BC
:103640004CE065E087E294E00E94980A0E94D6036D
:1036500087E294E0BCCFE7DF80912904893631F01E
:1036600081E08093260489E28093E00D0895CF9352
:1036700085E390E00E9491078093B10D86E390E08E
:103680000E9491078093DF0DCFEFC093CF0DC093C1
:10369000D10DC093D30DC093D50DC093D70DC0935A
:1036A000D90DC093DB0DC093DD0D2ADF1092780396
:1036B00081E08093B00DC093E10D8FEF9FEF909369
:1036C000B40D8093B30D1092B60D1092B50D1092FB
:1036D000B80D1092B70DC093E50D9093BA0D80937D
:1036E000B90D1092BC0D1092BB0D1092BE0D109230
:1036F000BD0DC093E90D9093C00D8093BF0D109246
:10370000C20D1092C10D1092C40D1092C30DC09342
:10371000ED0D9093C60D8093C50D1092C80D1092BB
:10372000C70D1092CA0D1092C90DCF910895ACE04B
:10373000B0E0EDE9FBE10C94294F6C018C010F5FC7
:103740001F4F45E0BE016F5F7F4FC8010E94040715
:10375000843008F0F3C099819130A9F4833061F48A
:103760006A8185E390E00E948C076B8186E390E09C
:103770000E948C077CDF06C28091B10D0E94000779
:103780008091DF0D9AC0923009F051C0813039F03C
:1037900081E09A81913009F080E0F82E02C0FF2488
:1037A000F39480917803811104C083E892E00E9431
:1037B0007F0608E713E0F8018081882309F4BBC085
:1037C000F4E006321F0708F0B6C033E008371307ED
:1037D00019F080E20E943506F80181810E940007FD
:1037E000F80182810E940007FF20E1F08AE30E9435
:1037F000350693E0F80180819817A0F4943038F0F2
:1038000090FF05C08CE29C870E9435069C85EE24C3
:10381000E394E90EF801E90FF11D80810E94000791
:103820009E2DE8CFF8018081080F111DC4CF933081
:1038300049F480E090E06FDE885793409EEA981B41
:10384000892F3BC0903171F50FEC1DE080EDE82E23
:103850008DE0F82EC12CD12CF80180818F3FA1F092
:10386000DD2019F080E20E9435068C2D0E940007B1
:103870008AE30E943506F80180810E940007F70163
:1038800080810E940007D3940E5F1F4FC394F2E023
:10389000EF0EF11C38E0C312DFCFD1104CC081E92C
:1038A00092E047C0913161F48091CD0D9091CE0DA1
:1038B0006DE770E00E94B84E862F0E9400073BC063
:1038C0009231C9F511EEE12E1DE0F12E04EE1DE05E
:1038D000C12CD12CF70180818F3FF1F0DD2019F050
:1038E00080E20E9435068C2D0E9400078AE30E9428
:1038F0003506F70180810E940007F8013297808128
:103900000E940007F801319780810E940007F801AA
:1039100080810E940007D394F4E0EF0EF11CC39461
:103920000C5F1F4F34E0C312D5CFD11004C08DE817
:1039300092E00E947F060E948C0624C144E0BE01F2
:10394000695F7F4FC8010E9404074F81493608F420
:1039500077C07A85588569857C3009F04BC020E0B6
:1039600030E080E090E0F901EF51F24F7081741384
:103970001CC0A181A51319C0A281A61316C02CE0FA
:1039800023839C01220F331F280F391FF901EE0FEB
:10399000FF1FED54F24F11821082F901EE0FFF1F4D
:1039A000EB54F24F11821082CFC07F3FD9F4408395
:1039B000518362832CE023839C01220F331F280F45
:1039C000391FF901EE0FFF1FED54F24F11821082E3
:1039D000F901EE0FFF1FEB54F24F1182108210928B
:1039E000B00DB2C001962C5F3F4F2031310509F078
:1039F000BACFC8C080E090E020E030E0FC01EF5199
:103A0000F24FA081A41315C0A181A51312C0A281F9
:103A1000A6130FC07383F901EE0FFF1FE20FF31F10
:103A2000EE0FFF1FEB54F24F81E090E09183808313
:103A3000A9C02F5F3F4F049680319105F9F6A2C0CF
:103A4000E9818091B10DE817C0F190E0F0E09C01B0
:103A5000295F3F4F2E173F0784F13A812091DF0DF8
:103A600032132BC03C813F3231F442E06CE0C6019E
:103A70000E94050B87C02D813C32B1F42093CC0D00
:103A800081E090E09093CE0D8093CD0D80919209CE
:103A900090919309E4E02E9F800D911D1124909345
:103AA0009309809392096EC0E81BF90BEE0FF0E0CA
:103AB000E153F24F3083218365C080E090E02BDD3D
:103AC0007C01F80101900020E9F73197E01BF10B30
:103AD000F695E795BB24B394BE0EC7018B0D911DDF
:103AE000885793408F3A91050CF048C0F701B19286
:103AF0008F0121E0822F880F81502B15D8F441E0EF
:103B0000B801F601E80FF11DCF012C870E940407D0
:103B10002C85233058F020FD09C0D80111978C91D5
:103B2000843621F4F80180818093B20D2F5F0F5FFE
:103B30001F4FE0CFF6E2EF16F4E0FF0618F5F701AD
:103B4000E20FF11D10821EC022E04CE064E0CE01C5
:103B500007960E94980A8FE08A8722E04CE064E092
:103B6000CE0107960E94980A82E08A8722E04CE004
:103B700064E0CE0107960E94980A04C087E892E0AC
:103B80000E947F062C96E9E00C94454F0F931F93FB
:103B9000CF93DF939091B00D91114FC093E0899F27
:103BA00080011124F801EE0FFF1FED54F24F94E055
:103BB000899FD0011124AF51B24F12969C919770FA
:103BC00040E850E0491B51099AEF949F9001959F5E
:103BD000300D112435952795359527953183208310
:103BE000E801CC0FDD1FC954D24F288139812F5FE6
:103BF0003F4F39832883000F111F0B54124FF801D8
:103C0000408151814115510529F424303105A9F431
:103C1000A8DC11C04130510539F4A3DC82E090E00A
:103C2000F8019183808309C04230510531F499DC59
:103C3000F8011182108219821882DF91CF911F91B1
:103C40000F910895A6E0B0E0E8E2FEE10C942C4F5D
:103C50002091DF0D2A831B828091CC0D882341F0B7
:103C6000833019F487E791E00FC08DE790E00CC036
:103C7000277030E02A513F4F4DE7429FC001439FDC
:103C8000900D1124959587959093CE0D8093CD0D31
:103C900000ED1DE0F12C7CE2E72EF80131979081D8
:103CA0009F3FC1F08091B10D8F0D89838091CC0D24
:103CB000882311F0EC8203C09C83F80180818D83FE
:103CC00021E04CE065E0CE0101960E94980ACE0109
:103CD00001967DDCF3940E5F1F4FF8E0FF12DDCFFD
:103CE0008091CC0D882341F0833019F41092CC0DD3
:103CF00003C082508093CC0D2696E6E00C94484F8A
:103D000080912604882351F08EDC89E28093E00DB7
:103D1000809126048150809326040895F1CBFF9270
:103D20000F931F93CF93DF93FC01F0800181C28139
:103D3000D38114818FE58093E00D10922604809149
:103D4000B10D811105C08091DF0D882309F4A9C050
:103D5000809127048F1104C080912804801729F0D6
:103D6000CFDBF0922704009328048091CB0D8F3F86
:103D700009F497C0C0932904D0932A0410932B040C
:103D8000CC23F1F081111CC08091B10D181761F0A6
:103D9000143651F08DEA8C0F823010F0CD3739F4A3
:103DA0008FEF8093CB0D7DC0C43509F47AC08D2F81
:103DB000807F803609F075C0D067D0932A0457C041
:103DC000ECDB811105C08091CB0D882309F469C01B
:103DD00080912D04811107C0E091CB0DF0E0EB56EE
:103DE000FD4FE49101C0E82FE33541F4C43531F4CF
:103DF0009091CB0D9E5F9093CB0D04C0EC1711F00A
:103E00007FDB4FC0882369F0809177038E5F8093BA
:103E10007703C3DB81110EC08091CB0D8E5F809341
:103E2000CB0D8091CB0DE82FF0E0EA56FD4F1491B9
:103E30001F3F59F48091290480932D048436B9F4EE
:103E40008091B20D80932B0412C01093290497E740
:103E500090932A049091B10D90932B048E5F8093E0
:103E6000CB0D10922D048E3021F01123D1F0F3DB15
:103E700018C087E294E04FDBDC01009781F02C91C1
:103E800030E086E294E0821B930BA817B90730F468
:103E9000ED01C20FD31F48814D93F7CF1C9230DB49
:103EA000E4CFCDB7DEB7E5E00C94494FFF920F9316
:103EB0001F93CF93DF938C01EC0109900020E9F769
:103EC0002197C81BD90BFC018181823751F487E30C
:103ED00090E00E9466030E94D60381E08093F10D7A
:103EE00026C0833711F5FC2E2C988FE70E94D5024F
:103EF0008C2F82500E94D502E801229612E01F15F5
:103F000028F489910E94D5021F5FF9CF2C9A0E9454
:103F1000C4038AE30E9449038F7721F081E00E9465
:103F2000C505F7CF0E94D60302C01092F10DCDB7A0
:103F3000DEB7E5E00C94494FA0E0B4E0E2EAFFE12F
:103F40000C942A4F8091F10D882309F452C08130DE
:103F500011F580918E0990918F09A0919009B091EF
:103F6000910920912E04281709F443C085E30E948B
:103F70004903813129F48AE30E9462030E94D60337
:103F800080918E0990918F09A0919009B09191092B
:103F900080932E042EC08FE30E944903D82E2C98C4
:103FA0008FEF0E94D5028E010F5F1F4F7801C02E48
:103FB0008E2D801B8D1538F480E00E94D502F7010C
:103FC00081937F01F5CF2C9A81E08093BB02802FF3
:103FD0008C198D1530F4F80181918F010E943506FE
:103FE000F6CF0E948C068FEF8093BB0281E0809316
:103FF000F10DDC5FE8E00C94464F2091682230918F
:1040000069222115310521F42091290130912A01DD
:104010008091270190912801009741F48DB79EB7B8
:1040200040912B0150912C01841B950B28173907C7
:1040300018F4821B930B089580E090E0089582E4C9
:104040000E94350640E265E08091682290916922E5
:104050000E9490060E948C0683E50E94350640E28D
:1040600065E08091290190912A010E9490060E94AA
:104070008C0685E40E94350640E265E080912701C8
:10408000909128010E9490060E948C0686E40E946E
:104090003506B3DF40E265E00E9490060C948C0682
:1040A0001F920F920FB60F9211240BB60F922F93FF
:1040B0003F934F935F936F937F938F939F93AF93B0
:1040C000BF93EF93FF938091F60D9091F70D892B9D
:1040D00039F082EF9DE00E9497098093C60005C0E9
:1040E0008091C1008F7D8093C100FF91EF91BF91BE
:1040F000AF919F918F917F916F915F914F913F9180
:104100002F910F900BBE0F900FBE0F901F90189520
:104110001F920F920FB60F9211240BB60F922F938E
:104120003F934F935F936F937F938F939F93AF933F
:10413000BF93EF93FF9385B191E0892785B9609193
:10414000C6008091C000887121F488EF91E10E943F
:104150007909FF91EF91BF91AF919F918F917F91DD
:104160006F915F914F913F912F910F900BBE0F90E8
:104170000FBE0F901F90189597FF04C022E0209368
:10418000C0009F779093C5008093C40088E9809316
:10419000C10086E08093C20008958091C10085FD32
:1041A0000BC08091F60D9091F70D892B29F080912D
:1041B000C10080628093C1000895E0918A09F09166
:1041C0008B0981E00995E9CF0F931F93CF93DF937C
:1041D000EC0110E0212F30E0F901EE0FFF1FE20F9C
:1041E000F31FE456FF4F0491F901EE0FFF1FE20F9A
:1041F000F31FE356FF4F25913491002399F0209748
:1042000039F480E20E943506802F0E94350608C0EE
:104210008881801305C0CE01F901099581E003C0B2
:104220001F5FD8CF80E0DF91CF911F910F9108954C
:10423000CF93C091BB028093BB028091FC119091FF
:10424000FD11892B91F188EF91E10E949709E0918E
:104250002F048A3011F08D30F9F4EE2371F3F0E081
:10426000E05DFB4F108280E394E0AEDF811111C06E
:104270008BEB92E00E947F0680E394E00E9474063C
:1042800083EA92E00E947F0680E090E09DDF0E943A
:104290008C0610922F04D1CF91E09E0F90932F04A3
:1042A000F0E0E05DFB4F8083C8CFC093BB02CF91AD
:1042B00008951F93CF93DF93EC0116E0115048F05F
:1042C00089910E9400071123C9F38AE30E943506F1
:1042D000F5CFDF91CF911F910895EF92FF920F9349
:1042E0001F93CF93DF93EB01FC01E080F180FE246C
:1042F000EF24FE24028113811027012710276F2D40
:10430000CE010E948C076E2DCE0101960E948C0773
:10431000612FCE0102960E948C07602FCE0103967A
:104320000E948C07CDB7DEB7E6E00C94484FA5E1BC
:10433000B0E0EDE9F1E20C942E4F89E68A8384E641
:104340008B8365E073E0CE0104960E947E50CE011F
:1043500001960E94350881E68B8367EF72E0CE01FB
:1043600004960E947E50CE0101960E9435088EE68A
:104370008B8369EE72E0CE0104960E947E50CE01DE
:1043800001960E94350887E68B836DED72E0CE01C1
:1043900004960E947E50CE0101960E94350880E767
:1043A0008B8368ED72E0CE0104960E947E50CE01B0
:1043B00001960E9435088EE48B8360ED72E0CE0199
:1043C00004960E947E50CE0101960E9435088FE629
:1043D0008B836DEC72E0CE0104960E947E50CE017C
:1043E00001960E9435088AEF9FE00E949107843A67
:1043F00071F58BEF9FE00E949107803541F58CEFBE
:104400009FE00E949107853511F58DE68B8366EC60
:1044100072E0CE0104960E947E508DEF9FE00E94D4
:104420009107BE01665F7F4F0E9479078EEF9FE084
:104430000E949107BE01645F7F4F0E9479078FEF52
:104440009FE00E949107BE01625F7F4F26C08DE60C
:104450008B836FEB72E0CE0104960E947E50E0E009
:10446000F0E000E010E081E2809357009491090FA2
:10447000111D3196E032F105B9F7BE01665F7F4F3D
:1044800080E00E947907BE01645F7F4F812F0E9408
:104490007907BE01625F7F4F802F0E947907188ADB
:1044A000CE0101960E9435086596E4E00C944A4FCF
:1044B000AED582E096E10E942D32892B09F438C0F6
:1044C00082E096E10E9419328BE196E190931A16F0
:1044D0008093191682E0FAD680910C1690910D16F1
:1044E000892B19F00E941231C0D480E29EE1909392
:1044F00016168093151685E0E9D680910C169091DA
:104500000D16892B19F00E941231AFD48FE49EE171
:10451000909316168093151685E0D8D680910C16C8
:1045200090910D16892B19F00E9412319ED498D5C6
:104530008EEF95E10E942D32892B31F08EEF95E1BF
:104540000E9419320C9448300895A0E0B0E0EBEAE4
:10455000F2E20C942A4F8C01EB01CB010E949107EF
:104560007E018FEFE81AF80AC7010E949107D82E42
:10457000CE010E949107C82EC7010E9491072C2DE1
:1045800030E03D29F801318320837E01F2E0EF0E17
:10459000F11CC7010E9491072396CE010E9491074A
:1045A000D82EC7010E949107F82ECE010E949107D4
:1045B0002F2D30E03D29F80133832283CDB7DEB7BC
:1045C000E8E00C94464FA4E0B0E0E9EEF2E20C948F
:1045D000304F69E670E0CE010196B7DF89819A819C
:1045E00090933D1880933C188B819C8190933F1849
:1045F00080933E1861E770E0CE010196A6DF8981C5
:104600009A8190933518809334188B819C81909374
:104610003718809336186DE670E0CE01019695DF6D
:1046200089819A8190933918809338188B819C8165
:1046300090933B1880933A1886E794E013D446D1C0
:104640000E94AC342496E2E00C944C4F549A5C984F
:1046500088EC0E94C5055C9A88EC0E94C505E8D3E9
:1046600082E690E00E9491078093330883E690E011
:104670000E9491078093340884E690E00E9491079D
:104680008093350885E690E00E9491078093360874
:1046900086E690E00E9491078093370887E690E0D5
:1046A0000E9491078093380883E398E0C3D38091F8
:1046B000330880933A088091340880933B088091B6
:1046C000350880933C088091360880933D0880919E
:1046D000370880933E088091380880933F0873D54F
:1046E0001092D3081092D2086FE170E082E096E158
:1046F0000E940D3262EE74E08EEF95E10E940D3261
:1047000088E690E00E949107882351F086EA94E0C1
:10471000A9D383E398E00E94783410923208089578
:1047200082E0809332084FCF1F93CF93DF93FC0139
:104730008181893611F48ADF2BC08336C1F4CCE342
:10474000D8E114E0115060F0899140E261E090E01E
:104750000E9490061123B1F38EE20E943506F2CF3B
:1047600080E20E9435068AE398E0A3DD0AC0843621
:1047700059F4809131088F5F8370809331080E94D3
:1047800000070E948C0604C08E3611F40E948D36FC
:10479000DF91CF911F910895CF93DF93EC010097A4
:1047A00011F411DF3CC069E670E0469696DD8E8913
:1047B0009F8990933D1880933C18888D998D909394
:1047C0003F1880933E1861E770E0CE01829685DD48
:1047D0008AA19BA190933518809334188CA19DA138
:1047E00090933718809336186DE670E0CE014A96A4
:1047F00074DD8A8D9B8D90933918809338188C8D39
:104800009D8D90933B1880933A18EB81FC81158223
:10481000148286E794E026D359D00E94AC34DF910D
:10482000CF910895E0911916F0911A1624813581DF
:1048300080910616909107162817390709F470C061
:10484000089580913208823029F00E944833809385
:1048500032080895E0911516F0911616309759F028
:104860008091141681FF07C08481958181159B4733
:1048700011F40C94BD3608951F93CF93DF93C0912C
:104880001916D0911A168091F60D9091F70D892B7B
:10489000C9F089A18A3F49F482E018D50E941231FB
:1048A000E4D282E00E94C50503DE19A181E0810FF8
:1048B00089A382EF9DE00E949709FE01E10FF11D9F
:1048C00082A3E1CFDF91CF911F91089589E790E016
:1048D0000E94B150292F30E040E050E0582FC9012C
:1048E000842B952B9093071680930616DED4109296
:1048F0000916109208160895E0913C16EA3F40F41C
:1049000091E09E0F90933C16F0E0E95CF94E8683AF
:104910000895E0911916F0911A1682E0848F089597
:10492000EF92FF920F931F93CF93DF93009119168D
:1049300010911A168091141686FF1CC0F80111A25E
:1049400081E0848F80910816909109169C012F5F59
:104950003F4F3093091620930816892B29F4809134
:10496000BB0284608093BB0266EA7EE0C8014D967C
:104970000E940D32F801848D8230B9F481E0848F79
:1049800080E1809314168091081690910916019782
:104990009093091680930816892B09F0C0C0809166
:1049A000BB028B7F8093BB02BAC080911416982FF4
:1049B000907311F487FF0AC0E0911916F0911A164E
:1049C00011A2DF01A45EBE4F1C92148E81FF31C084
:1049D000E0900C16F0900D16E114F10451F13091B5
:1049E0001716209118168CE394E29093890980930E
:1049F0008809C32FD22F699188EF91E10E9479092C
:104A00008091FC119091FD118115944031F4E09159
:104A10008A09F0918B0984E0099521E0E21AF108F6
:104A2000E114F10441F7E0918A09F0918B0984E0E7
:104A3000099580911416982F947082FD06C0282F36
:104A4000237019F4887409F451C0C0911916D091DB
:104A50001A16992311F17E0184EEE81A8EEFF80AF6
:104A6000F7014081442309F441C050E0BE01635E78
:104A70007E4F80911716909118160E949250F70160
:104A8000608170E080911716909118160E94A32FF4
:104A9000CE014D960E94233229C049A1442331F111
:104AA0007E01F2E2EF0EF11C50E0B7018091171683
:104AB000909118160E94925069A170E0809117168B
:104AC000909118160E94A32FCE014D960E9423327A
:104AD00049A150E0B701CE01835E9E4F0E949250E3
:104AE000FE01E45EFE4F89A1808319A2F801848D46
:104AF0008130A9F4035E1F4FC8010E942D32892B1B
:104B000071F0C8010E941932C091BB0284E0809309
:104B1000BB028EEA92E00E946809C093BB02CDB747
:104B2000DEB7E6E00C94484F14988AE30E94F8360A
:104B300080E00E94F836149A0895CF93C82F1498F5
:104B40008AE70E94F8368C2F0E94F836149ACF918B
:104B50000895CF93C82F40EA63E08FE1A1D06C2F76
:104B6000637040E88FE19CD0C0933908CF910895DD
:104B7000CF93DF93C82FD82FDF712D2F30E02B314B
:104B8000310584F4282F2076822F90E025E095953A
:104B900087952A95E1F74091390850E084179507E9
:104BA00009F0D7DF14988D2F0E94F83680E00E941C
:104BB000F836C7FF03C080E00E94F836149ADF91F0
:104BC000CF91089514988FEF0E94F8368DE1D0DFD1
:104BD00080FFFCCF149A0895CF93DF93D62FC82F70
:104BE000CF714C2F50E04B31510584F4282F2076A3
:104BF000822F90E035E0959587953A95E1F74091C1
:104C0000390850E08417950709F0A3DF14988C2F1A
:104C100080640E94F8368D2F0E94F836149ADF9136
:104C2000CF910895A1E0B0E0E8E1F6E20C94304FB6
:104C3000682F80E09983D0DF9981692F81E0CCDFF4
:104C40002196E2E00C944C4FA1E0B0E0EAE2F6E2FB
:104C50000C94304F682F82E09983BEDF9981692FD1
:104C600083E0BADF2196E2E00C944C4FA1E0B0E083
:104C7000ECE3F6E20C942F4F162F682F84ED798326
:104C8000ABDF612F86EDA8DF7981672F87EDA4DF89
:104C90008AEE6EDF80FDFCCF2196E3E00C944B4F53
:104CA000A1E0B0E0E6E5F6E20C942E4F062F182FB7
:104CB0001F71E12FF0E07B9794F4282F2076822F4C
:104CC00090E055E0959587955A95E1F7E091390880
:104CD000F0E08E179F0719F049833BDF4981149854
:104CE000812F842B0E94F836802F0E94F836149A68
:104CF0002196E4E00C944A4FCF93682F84ED6CDF4B
:104D000040E861E082EDCCDF8AEE32DF80FDFCCF4F
:104D100040EA61E082EDC4DF88ED2ADFC82F89ED2B
:104D200027DF2C2F30E0A901582BCA01CF9108951D
:104D30000C9A149A47DF60E088E04EDF60E089E07B
:104D40004BDF6FEF8AE048DF6FE08BE045DF60E02C
:104D500084E042DF60E185E03FDF60E08CE03CDF43
:104D600060E08DE039DF60E08EE036DF60E08FE00C
:104D700033DF10920B1610920A1640EA60E881ECBD
:104D80008FDF40E86DE080EC8BDF40E862E382EC8F
:104D900087DF60E070E080E069DF80E0ADDF90FFFA
:104DA00006C040E861E082EC7BDF62E105C040EADA
:104DB00061E082EC75DF65E184EC0EDF62E186EC98
:104DC0000BDF6CE087EC08DF60EE8AEC05DF65E066
:104DD0008BEC02DF60913A0884EEFEDE60913B08C6
:104DE00085EEFADE60913C0882EEF6DE60913D08C9
:104DF00083EEF2DE60913E0880EEEEDE60913F08C9
:104E000081EEEADE63E888E3E7DE62E17CE084E1EC
:104E10002DDF6BED8BE1E0DE62E170E082E126DF09
:104E200040E864E08FE13CDF40E860E88EE138CFA5
:104E30007FCF0895CF93DF93EC01688184EECCDEC1
:104E4000698185EEC9DE6A8182EEC6DE6B8183EE02
:104E5000C3DE6C8180EEC0DE6D8181EEBDDEDF9150
:104E6000CF910895BC0184E101CFCF93DF93C4E6D5
:104E70008FE17EDE83FF03C0C150D0F702C0CC2398
:104E800091F160E084E0A8DE60E185E0A5DE60915C
:104E90000C1686E0A1DE80910C1690910D16905FA5
:104EA000692F87E099DE80E090E1CEDE80E045DE8C
:104EB000C0E4D8E180910C1690910D169E0120540B
:104EC00038412817390718F4899137DEF3CF40E8C5
:104ED00060E88FE1E5DE40EA60E88FE1E1DE40E88E
:104EE00068E08FE1DDDEDF91CF910895A4E0B0E0CE
:104EF000ECE7F7E20C942C4F89E33ADE882309F4BF
:104F000080C080910A1690910B168CDE0DDE182F52
:104F10000BDE212F30E0382B30930B1620930A162E
:104F20008E010F5F1F4F7E0125E0E20EF11CFCDDBC
:104F3000F80181938F01EE15FF05C9F789819A81E8
:104F40008C01045011091A83098342978F3C9540C4
:104F500028F480E4E82E88E1F82E02C0E9DE51C092
:104F6000C701805498418017910728F4DDDDF701CF
:104F700081937F01F5CF10930D1600930C1680914D
:104F80004C1890914D189827892798278115F8E09B
:104F90009F0761F086309840A1F40E9472308091A2
:104FA0000C1690910D16892B61F00AC081E08ED10C
:104FB00080910C1690910D16892B19F00E941231D8
:104FC00054DF60910A1670910B16CB010197811581
:104FD000904128F06FEF8CE0FFDD6FE009C0615079
:104FE0008CE0FADD80910A1690910B160197692FDB
:104FF0008DE0F2DD40E860E48EE152DE81E090E099
:1050000002C080E090E02496E6E00C94484FCF93F5
:1050100089E3AEDD882311F18CE1AADDC82F40EAD7
:1050200060E88BE13DDEC3FF08C040EA68E08CE148
:1050300037DE40EA6AE08DE133DE58DFC0FF04C0AE
:1050400040EA61E08CE12CDEC1FF04C040EA62E08E
:105050008CE126DE40E860E88BE122DECF91089506
:1050600082EC86DD8273823309F062CE80EC80DDD3
:105070008D30D9F70895FB0141505109460F571F54
:10508000E417F50778F4208130E0322F2227618180
:10509000260F311D820F931F8217930708F4019684
:1050A0003296EECFE417F50751F4208130E0322F2D
:1050B0002227820F931F8217930708F40196089501
:1050C000FC015381560F50931316872F9927428165
:1050D000480F40931216A181A0931116E081E0932E
:1050E0001016242F30E02817390748F481E08A0F82
:1050F00080931116811103C0EF5FE0931016852F86
:1051000090E077278617970788F44F5F4093121631
:1051100041110CC0809111168F5F8093111681117F
:1051200005C0809110168F5F80931016089520910E
:10513000191630911A16BC01C9010896C1DFE09119
:105140001916F0911A168091101680878091111609
:105150008187809112168287809113168387089524
:1051600044E150E06EE478E180E090E084DF009775
:1051700021F098278927982708958FEF9FEF0895AA
:10518000CF93DF93C0915018D0E0DC2FCC278091D3
:105190005118C80FD11D48E050E06AE578E1CE0112
:1051A0000E9769DFAE014451510962E678E163DF91
:1051B000009721F098278927982702C08FEF9FEF4B
:1051C000DF91CF91089510923318109232181092F7
:1051D000341680E09FE2989FF0011124E05EF14ECA
:1051E000158214828F5F8230B0F380934308089554
:1051F0002091440830914508A091241EB091251EAD
:10520000E091531EF091541E2F5F3F4F21154DE743
:10521000340710F020E030E1522F432FA417B507D8
:1052200099F3E417F50781F3309345082093440878
:1052300040E05FE24230A0F4A1E0A40F549FF001EF
:105240001124E05EF14E24813581232B39F4409303
:105250004308309741F480E090E008954A2FEACF68
:1052600040934308F8CF20914408309145083227F5
:10527000232732273583248377836683009729F495
:1052800010821182128213820CC0DC012D913C919C
:1052900011973183208312968D919C91139793835C
:1052A000828380E48087CF01089520913218309165
:1052B0003318232B39F410924308909333188093BA
:1052C0003218089581E08093430808950F931F9347
:1052D000CF93DF93C0911916D0911A16843009F438
:1052E0009CC126E738E130931816209317163093A7
:1052F0000F1620930E16833059F4898D8F708330EA
:1053000009F012C688899989892B09F00DC677C0E2
:10531000823009F079C0809149088F5F80934908F5
:10532000811113C0809148088F5F809348088111D4
:105330000CC0809147088F5F80934708811105C09A
:10534000809146088F5F8093460810920D16109248
:105350000C1610921F1E10921E1E298D822F8D7FFB
:10536000853041F48A8D8F5F8A8F883709F0DCC5DC
:10537000198EDAC5222309F4D7C588899989892B22
:10538000D1F18A8D9FEF980F9A8F8111CDC58B8DAA
:10539000883031F09FEF920F923040F4853031F435
:1053A000198E80E8809314163DDA67C4853038F48E
:1053B00093E0082E01C0990F0A94EAF701C090E328
:1053C0009A8F8F5F8B8F822F8F70843009F4EDC39B
:1053D00058F4813009F4DDC2833009F0A5C584E0BA
:1053E000809314161FDA7DC4863009F4DEC388303A
:1053F00009F09AC5DAC32F70233009F095C588E00B
:10540000809314160FDA30C4853019F5E091151623
:10541000F091161684819581892B09F485C5109227
:105420001A16109219168AE698E19093181680932E
:10543000171690930F1680930E1610921F1E10923F
:105440001E1E10920D1610920C1688E080931416F2
:10545000E3C080914E18853409F066C5C09150189C
:10546000D0E0DC2FCC2780915118C80FD11D80913E
:105470000C1690910D168C179D0708F455C5D09306
:105480000D16C0930C16809154188F7309F04CC5FB
:1054900080915518811148C500913C1810913D1814
:1054A0000115110531F480913E1890913F18892B18
:1054B000A1F080915E1890915F188017910709F014
:1054C00033C5209160183091611880913E189091F9
:1054D0003F182817390709F027C542DE019609F061
:1054E00023C580915718863009F4EEC08131B1F19F
:1054F000813009F019C580916218883009F014C50F
:10550000109262188091641890916518873FCFEFD0
:105510009C0710F0099601C0089690936518809337
:10552000641880915A1890915B1890935F1880933B
:105530005E1880915C1890915D189093611880932B
:10554000601810935B1800935A1880913E18909140
:105550003F1890935D1880935C18EAC46C97D093C1
:105560000D16C0930C162091641830916518409167
:1055700062185091631860915A1870915B18A0914D
:105580005C18B0915D18E0E2FEE18EE1EE37F807BD
:1055900008F0C6C484819581009719F1281739074E
:1055A00001F586819781009719F048175907C9F4CA
:1055B00080819181009729F4C281D381CD2B49F458
:1055C00012C08F3F1FEF910721F4C281D381219632
:1055D00051F06817790729F482819381A817B907D8
:1055E00011F0BF96D2CFF0931616E09315161092D5
:1055F0001A161092191682E0809314168AE698E122
:10560000909318168093171690930F1680930E168A
:1056100010921F1E10921E1E14D980911E1E909172
:105620001F1E009709F480C49C01245E3F4F3093F5
:105630000D1620930C163093501820935118E091BA
:105640001516F091161620852093561821E1209307
:10565000571808969827892798279093671880935A
:105660006618109269181092681884819581909339
:105670006318809362188681978190936518809350
:10568000641880913C1890913D1890935B1880931A
:105690005A1880913E1890913F1890935D1880930E
:1056A0005C188081918190935F1880935E1882814D
:1056B0009381909361188093601886E798E19093A6
:1056C0001816809317160AC45BDD019609F02CC4E6
:1056D0005091341640916F18552369F12091641848
:1056E0003091651880911F16909120162817390760
:1056F00011F52091621830916318809121169091D4
:10570000221628173907B9F420915A1830915B18DE
:1057100080911B1690911C162817390761F420916F
:105720005C1830915D1880911D1690911E162817F7
:10573000390709F445C1842F8F73823019F042FD77
:10574000F3C317C080916418909165189093410835
:1057500080934008209132183091331882179307B4
:1057600009F0EDC3511176C010924308CBE1D6E1A8
:105770007BC084E180936F1888E290E090930D16CF
:1057800080930C1680E580936E1880916918909133
:105790006D18909369183091681890916C189093D7
:1057A000681830936C182091671890916B1890933B
:1057B000671820936B189091661890934308409156
:1057C0006A184093661890936A188F5F80936D18DB
:1057D00081110FC081E0830F80936C18811109C083
:1057E00081E0820F80936B18811103C09F5F9093BB
:1057F0006A18809162189091631890934108809381
:1058000040082091641830916518309363182093F4
:105810006218909365188093641880915A1890913B
:105820005B1890935F1880935E1880915C1890913C
:105830005D18909361188093601810935B18009323
:105840005A1880913E1890913F1890935D1880935C
:105850005C182AC3573019F4CBE1D6E102C0C0E08E
:10586000D0E081E080934308209709F45DC3D09392
:105870001A16C093191683E08A8F888F1E8A84E0D7
:105880008F8B1B8E80916418909165189D838C83FB
:1058900080916218909163189F838E8380915A182B
:1058A00090915B189983888380915C1890915D1822
:1058B0009B838A8381E0898F809146088C878091C1
:1058C00047088D87809148088E87809149088F8787
:1058D00081E090E0998B888B809169188B8780910B
:1058E00068188A87809167188987809166188887E9
:1058F00081E090E01CDC80916E18282F207F30E042
:10590000213531050CF445C082958F7090E00597E4
:10591000880F991F880F991F3091420820E0E22FCD
:10592000F0E0E817F9078CF5E05CF74E36A9311185
:1059300005C020934308109242082BC0313011F467
:105940002F5FEDCF3230E1F447A94430C9F4209302
:1059500043083093420880AD90E0982F882721AD0E
:10596000822B9093410880934008873A15E0910775
:1059700010F086EA95E09B8B8A8B9D8B8C8B09C0FF
:1059800047A9442311F0240FCACF20934308309332
:10599000420882E180936F1882E08093761884E059
:1059A0008093771885E08093781886EA8093791839
:1059B0008CE290E090930D1680930C1680E621C245
:1059C0008BE196E190931A16809319161092141693
:1059D00042FF04C01092341680E2B1C180916E186B
:1059E00082958F70880F880F80934308C81BD10958
:1059F0006497D0930D16C0930C165F70523021F44B
:105A0000842F8F738231E9F0CD2B19F4842F8370AA
:105A1000C1F090916618809123169813E6C1909179
:105A20006718809124169813E0C1909168188091AE
:105A300025169813DAC1909169188091261698134B
:105A4000D4C144FF58C060912B1670912C1661157B
:105A5000710509F450C087E296E132DB30916A1893
:105A600080911016381347C020916B188091111641
:105A7000281341C090916C188091121698133BC066
:105A800080916D1840911316841335C030932716FA
:105A9000209328169093291680932A168091361603
:105AA00081111EC0909131168091331620913516C8
:105AB000821B292F269526952695821B980F909359
:105AC000311620913216322F36953695831B820F70
:105AD00080933216969596959695980F90933316D7
