:100000006BC200000C942C1085C2000083C200005B
:1000100081C200007FC200007DC200007BC20000E0
:1000200079C2000077C2000075C2000073C20000F0
:1000300071C200000C94C20F6DC200006BC20000C0
:100040004CC4000067C2000065C2000063C200002B
:100050000C9431210C94F9205DC200005BC20000B9
:1000600059C2000057C2000055C2000053C2000030
:1000700051C200004FC200004DC200004BC2000040
:1000800049C2000047C2000045C200006DC22143C2
:10009000420346A00969B5184150155AB7174BA23B
:1000A0001A47A3094DDB0952EB06545A1D56E607C1
:1000B000572D0758960B65A60766DF1F6C700774EF
:1000C000AD04757B1278F903000000072E050DD3EF
:1000D00091FF080500000C0021656A2D3B1322F8F2
:1000E00062073F181D1CC700B0876BF8B611EA2ADB
:1000F000001F41000D2E2D07D3913D043200000654
:100100000021656A55E43023B900070018146C0714
:100110000090876BF85611E92A001F410000030F79
:100120001E2627000000030F1E2536386700030F28
:10013000256740605000030F275188838100030F1B
:100140002750C8C3C200270000000000000067005D
:1001500000000000000050000000000000008100CE
:10016000000000000000C2000000000000203D2050
:1001700000202F2000504C4C300D0A00504C4C31C8
:100180000D0A00203D2000202F20005620312E3661
:10019000312043534D383638004C4F56460D0A0037
:1001A000424F56460D0A000007022E030D04E905D2
:1001B000CA070C0B060D210E650F6A10C8119312A9
:1001C0000315341733181819161B4321562500261A
:1001D0001129592C812D353EC30007024604C6055E
:1001E000260B0610C81193120313221534173F185B
:1001F0002819161B432156250026110D210E650FC7
:100200006A070C160720F81E871F6B29592C812DB1
:10021000353EC3FF004C454E4552520D0A004C4F2F
:1002200056460D0A004C454E4552520D0A000D2E01
:100230002D07D3913D04320000060010B07155E443
:100240003023B900070018146C070090876BF8562C
:1002500011E92A001F4100072E4607AA540FE000AB
:100260000000060021656A97831663B947070029D5
:10027000366C074091876BF85611E92A001F410040
:1002800054585F494E49545F4552525F0054726161
:100290006E736D6974740D0A00636F6D6D616E64C9
:1002A0006C696E65706172616D657465723A20008B
:1002B0000D0A537472696E676C656E6774683A20D4
:1002C00020202020000D0A4E65787420436861725A
:1002D00061637465722028696E7429206166746593
:1002E0007220706172616D65746572202873686F29
:1002F000756C64206265206C696E6520656E642093
:10030000636861726163746572293A20000D0A4165
:100310006D6F756E74206F66204279746573202846
:100320004865782920666F756E6420696E7369640C
:100330006520636F6D6D616E64206C696E65207001
:100340006172616D657465723A2020202020202042
:1003500020202020000D0A005469636B2054696D31
:1003600065723A2020202020202020202020000D0F
:100370000A004B65794F666654696D653A20202006
:100380002020202020202020006D7365630D0A00AE
:100390004B65794F666654696D6520696E20746996
:1003A000636B733A2020005B6865785D0D0A00542A
:1003B00069636B2054696D65723A202020202020EB
:1003C0002020202020005B6865785D0D0A00426CCB
:1003D0006F636B2053746172742054696D653A20A9
:1003E00020202020005B6865785D0D0A004B657950
:1003F0004F666654696D653A202020202020202019
:10040000202020005B6865785D0D0A007469636BCD
:10041000732D426C6F636B537461727454696D65B4
:100420003A20005B6865785D0D0A00426C6F636B73
:10043000320D0A00426C6F636B330D0A004B6F7014
:1004400070205472616E736D69747420436F6D6DAA
:10045000616E64206E6F7420657175616C20746FBD
:100460002000204279746573206F72204B65796398
:100470006F6465206973206E6F20686578207661EF
:100480006C75650D0A004B6F707020537562436F79
:100490006D6D616E6420556E6B6E6F776E0D0A0028
:1004A00000535300547D7DFFFF4B4B7E7E004E2F4B
:1004B0004100454F420D0A004E2F41003F202800C9
:1004C00020697320756E6B6E6F776E29205573658A
:1004D000206F6E65206F660011241FBECFEFD0E441
:1004E000DEBFCDBF11E0A0E0B1E0E6EFF7E400E051
:1004F0000BBF02C007900D92A234B107D9F713E2E7
:10050000A2E4B1E001C01D92A031B107E1F703D030
:100510000C94F92375CD88E10FB6F89480936000B0
:10052000109260000FBE90E080E80FB6F8948093C0
:100530006100909361000FBE3E9A469A0E948D2101
:1005400032D589EF87BD84E085BD82E084BD80938C
:100550006E00109280008AE08093810084B7877FCC
:1005600084BF2FE088E190E00FB6F894A8958093BF
:1005700060000FBE2093600089E190E80E94652131
:100580000E94391D0E94770B85EB90E29093BC0A84
:100590008093BB0A81E0809345010E949B1180916A
:1005A0004501886080934501469878940E94862191
:1005B0000E946E0DE2D10E9425200E941D130E9410
:1005C00011140E944117F2CF8EBD0DB407FEFDCF6E
:1005D0008EB50895A1E0B0E0E0EFF2E00C942622A1
:1005E000482F8A3008F048E088E0489F70011124C5
:1005F000EDE1F1E0EE0EFF1E8BE290E0F701649179
:100600008C010F5F1F4F4983C8D3FFEFEF1AFF0A1A
:10061000C80149810333110589F74550453010F46D
:1006200061E101C067E184E290E0B7D32196E6E0A2
:100630000C944222CF93DF9382E090E0FC01EE50D5
:10064000FF4F6491EC012196A8D3CE01CB32D105A6
:10065000A9F787E390E0FC01EC56FF4F6491EC01B1
:1006600021969BD3CE01C036D105A9F788E0B2DF31
:10067000DF91CF9108952C98806CA6DF80E0A4DFF5
:100680002C9A0895A1E0B0E0E8E4F3E00C9429226C
:1006900041E0BE016F5F7F4F01961BD3892B21F193
:1006A0008981893969F410E0812FE5DF0ED3812F2C
:1006B0008770873009F495D21F5F1033A9F714C0F3
:1006C000DADF182F83E43DD28981FFD28DE691E0F5
:1006D0007BD2812FFAD281E791E076D240E262E0CC
:1006E000812F90E082D27DD22196E3E00C944522C6
:1006F000A1E0B0E0EEE7F3E00C942A222C988064AD
:10070000698362DF6981862F5FDF2C9A2196E2E0A0
:100710000C9446222C9858DF2C9A0895CF93CFEF53
:1007200007C08AE090E086D1C11102C0E89A07C0F4
:1007300084E3F0DFC1508077803199F7F7CFCF9114
:100740000895CF93E89886E3E5DFCFEF05C08AE010
:1007500090E070D1CC2331F085E3DCDFC1508077AD
:100760008032A9F7CF910895EF92FF920F931F93D4
:10077000CF93DF93EC011092F001E898249A2C9A21
:100780008EE190E057D12C988EE190E053D12C9AD5
:100790008DE290E04FD180E3BDDF84E690E04AD166
:1007A0002C9880E411DF8E01075D1F4F7E018FEFD3
:1007B000E81AF80ACE01F6D207DFE701E016F106E3
:1007C000A9F72C9A2C988EE7FFDE8BE290E0EC01E3
:1007D0002196E8D2F9DECE01C333D105C1F72C9AB8
:1007E00083E398DF81E02BD1CDB7DEB7E6E00C9450
:1007F0004222A1E0B0E0EFEFF3E00C942A2222E0E5
:10080000298341E0BE016F5F7F4F019662D28981EB
:10081000E1DE82E090E0A8DF2196E2E00C9446223F
:1008200086E378DF1092BD0A1092EF011092F0017A
:10083000089582E090E098DF81E08093BD0A1092F5
:10084000EF011092F00108951F93CF93DF93D82FFB
:10085000162FC0E085E30FDF8D1739F0812F90E070
:10086000E9D0C150B9F781E001C080E0DF91CF91BC
:100870001F91089585E2FFDE8F3311F080E0089527
:1008800086E348DF80914201811104C085E791E051
:100890009BD102C08DE33EDF83E33CDF64E081E077
:1008A000D3DF85E2E8DE8F3349F780914201811181
:1008B00003C08CE791E088D181E0089585E3DBDE19
:1008C0008D3051F485E2D7DE8F3331F4D3DF84E30A
:1008D00021DF80778031D9F708951F920F920FB6EC
:1008E0000F9211248F939F93AF93BF938091BF0A70
:1008F0009091C00AA091C10AB091C20A0196A11DAF
:10090000B11D8093BF0A9093C00AA093C10AB0930F
:10091000C20A8091BE0A8F5F8093BE0A8D3710F0A5
:100920001092BE0A8091E9129091EA12009729F084
:1009300001979093EA128093E9128091FC128F3F05
:1009400019F081508093FC12BF91AF919F918F91CC
:100950000F900FBE0F901F901895CF93DF93CFEBA2
:10096000DAE08B81B2D18A81B0D18981AED1888120
:10097000ACD137D1DF91CF9108958091BF0A90918A
:10098000C00AA091C10AB091C20A20914301281760
:1009900009F44FC08091BF0A9091C00AA091C10A8A
:1009A000B091C20A80934301A8958091E912909179
:1009B000EA12892B11F40E94AF1E8091FC12811162
:1009C00002C00E94081F8091D412882339F0815000
:1009D0008093D412811102C00E94BA138091BE0A82
:1009E000811127C08091000181FF04C088B190E48B
:1009F000892788B98091C30A9091C40A843823E07A
:100A0000920728F401969093C40A8093C30A8091B8
:100A100044018F5F809344018C3359F41092440158
:100A20008091E6128F5F8093E6128C3310F0109263
:100A3000E6120895880F991F0197F1F7089520EDA8
:100A400037E003C0F9013197F1F78150D8F70895E5
:100A5000CF93DF93FC018681843509F06FC0C0819C
:100A6000D1812DE001C02F5F822F90E08C179D0770
:100A700040F09E012F5031098217930709F05EC0A4
:100A800008C0DF01A80FB91F16963C913B3359F7F8
:100A9000F0CFDE011E97AE0FBF1F16968C918435E6
:100AA00009F04CC0DE011897AE0FBF1F9781119659
:100AB0008C911197981342C0908512968C91129741
:100AC00098133CC0918513968C911397981336C058
:100AD000928514968C911497981330C0CE0141974B
:100AE000AE014B5051094E0F5F1F15962C91159773
:100AF0008E0F9F1FEC012E8316968C911697EA019C
:100B0000898319968C9119978A831A968C911A97D2
:100B10008B831B968C911B978C831C968C911C97B6
:100B20008D831D968C918E83808191810A9791830C
:100B30008083848195810A9795838483DF91CF9107
:100B40000895CF93C82F8091450180FF13C0209155
:100B50000213309103132E3F87E0380738F0211538
:100B6000384040F4CD3011F0CA3021F46C2F8EEFB4
:100B700092E138D28091DF128823C9F0809145013B
:100B800083FF15C0CA3099F0CD3011F46BE301C07A
:100B90006C2F8CEC9AE026D2CD3019F48CEC9AE0D4
:100BA00057DF83E08093D41282E08093DA12CF91F2
:100BB0000895CF93DF93EC0101C0C3DF89918111C8
:100BC000FCCFDF91CF910895CF93DF93EC0102C06A
:100BD000B8DF2196FE0184918111FACFDF91CF9188
:100BE00008958DE0AEDF8AE0ACCFA6E0B0E0EBEF99
:100BF000F5E00C942822062F1E8215E02AE030E052
:100C00001150E1E0F0E0EC0FFD1FE10FF11DB90123
:100C10000E94F321805D8083CB010150009759F041
:100C20001111EECF08C01150E1E0F0E0EC0FFD1F14
:100C3000E10FF11D4083015007FD02C01111F3CFF8
:100C400081E090E08C0F9D1F810F911DB2DF2696F1
:100C5000E4E00C944422A5E0B0E0E1E3F6E00C947B
:100C60002A221D8224E0382F3F702150E22FF0E02D
:100C70003A3010F4305D01C0395CA1E0B0E0AC0F57
:100C8000BD1FEA0FFB1F308334E0969587953A9598
:100C9000E1F76150009739F708C02150E1E0F0E03A
:100CA000EC0FFD1FE20FF11D4083615067FD02C094
:100CB0002111F3CF81E090E08C0F9D1F820F911DD9
:100CC00078DF2596E2E00C94462240E362E090E073
:100CD000C2CFFB012AC0A32FA053AA3018F42A2B9D
:100CE000A1E001C0A0E0B32FB154B63020F4A32F8F
:100CF000A7532A2BA1E0B32FB156B63018F43755BD
:100D0000232B07C0A11105C0303289F03A3379F0A6
:100D100005C0552331F02193415039F4E61BF70B00
:100D20000CC02295207F51E002C050E020E0DC01A1
:100D30003D91CD013111CFCFF1CFCF01089520E00A
:100D400030E05AE00EC0E42FE053EA3050F4F901ED
:100D50005E9F90015F9F300D112420533109240FB5
:100D6000311DFC014191CF014111EDCFFB013183D8
:100D700020830895982F92959F709A3010F4905D7B
:100D800001C0995CFB0190838F708A3010F4805D04
:100D900001C0895CFB01818308950E94A123F99918
:100DA000FECF08950C94992308951F93CF93DF935A
:100DB0000AC0EC012196F6DF88DF112311F08AE3E7
:100DC000C0DE612FCE01162F11506111F2CFDF91DD
:100DD000CF911F910895A2E0B0E0E1EFF6E00C940E
:100DE0002722FC0121812D3421F466E08AEF9FE067
:100DF00005C0203529F460E18AED9FE0D6DF28C0E8
:100E00001A82198242E0BE016F5F7F4F019661DF57
:100E10009981823029F4192F00E08A81082B02C0C1
:100E2000092F10E0C801BEDFF82E82E58ADE40E31C
:100E300064E0C80110DF83E891E0C6DE8F2D45DF56
:100E400087E891E0C1DE40E262E08F2D90E0CDDEE8
:100E5000C8DE2296E5E00C944322A6E0B0E0E3E38E
:100E6000F7E00C9424226C0143E0BE016F5F7F4FDA
:100E700001962FDF823080F12981823019F4E22E31
:100E8000F12C04C0F22EE12C2A81E22A8C011127D8
:100E9000FE01E00FF11F6081C7017FDF000F111F0E
:100EA0000F5F1F4F0C0D1D1D8FEFE81AF80A10C0C1
:100EB00041E0BE016F5F7F4FC8010BDF892B61F0FE
:100EC0006981C7016ADF0E5F1F4FE2E0EE0EF11C81
:100ED000F80180818111ECCF2696E8E00C94402245
:100EE00041E060E071E00196F4DE8091000180FF56
:100EF00002C0469A01C046986091000184E390E0E8
:100F00004CCFA1E0B0E0E7E8F7E00C942A22198288
:100F1000009731F041E0BE016F5F7F4F0196D9DE4F
:100F20008981882321F061E083E390E036DF10922D
:100F30006E00F89428E088E190E00FB6F894A89548
:100F4000809360000FBE20936000FFCFCF93DF93AC
:100F5000EC0161E080E090E020DF6DE381E090E073
:100F60001CDF68DB60E080E690E017DF60E081E690
:100F700090E013DF60E083E390E00FDF62E084E362
:100F800090E00BDF60E080E690E007DF60E081E664
:100F900090E003DF8981883719F080E090E0B1DFCD
:100FA000DF91CF91089580E090E0FCDE813029F45C
:100FB00081E090E0F7DE8D3319F080E090E0C6DF4D
:100FC00084E390E0EFDE8093000108958BE891E0E8
:100FD000FBDD07CEFC011582148211821082138280
:100FE00012820895FC012FB7F894848195818115B0
:100FF00038E0930708F014C00196958384838081BC
:101000009181DF01A80FB91F16966C930196811587
:1010100038E0930719F09183808302C01182108217
:101020002FBF0895FC014FB7F894848195810097F4
:1010300019F44FBF80E0089501979583848322813E
:101040003381DF01A20FB31F16968C912F5F3F4FA4
:10105000211598E0390719F03383228302C01382E7
:1010600012824FBF0895FA013081882369F0DB01B5
:10107000A30FB11DE1E0F0E0022E01C0EE0F0A94D3
:10108000EAF79C919E2B9C93222319F0822F81508A
:101090000BC0832F8F5F8C3010F4FA018083FB012B
:1010A000E80FF11D108287E090E00895CF93C82FDC
:1010B000299A882319F080914A0102C08091480141
:1010C00020E1829FC0011124B5DC2998CC2319F0BE
:1010D0008091490102C08091470120E1829FC001B7
:1010E0001124A8DCCF910895A6E0B0E0EAE7F8E08B
:1010F0000C941A226C016983942EA22EEA82842F0A
:1011000090E09E838D832091C30A3091C40A029699
:10111000089F802D1124992787FD9095281739075E
:1011200020F489E991E050DD7EC0281B390B309313
:10113000C40A2093C30A469A8091F001882339F0AB
:101140001092F0018CE391E0F1D211E001C010E0C7
:101150008091BD0A811101C06CDBF3DAF981EF2FB8
:10116000F0E0FC83EB83EE24E394F12CB12CC60178
:10117000890D911D97FC9A954C01612C712C05C02D
:1011800080E094DF9FEF691A790AEB81FC816E168B
:101190007F06B4F3F981FF2311F081E087DF412C52
:1011A000512C17C097E0292E312C3601640C751C88
:1011B000C701022C01C0880F0A94EAF7F30190815D
:1011C000892374DFF1E02F1A310890F79FEF491A55
:1011D000590AED81FE814E165F0624F387E0682EE2
:1011E000712C0DC0C701062C01C0880F0A94EAF7C4
:1011F000F401908189235ADFF1E06F1A7108A61477
:10120000B70484F38A811BDC015009F0B6CF8091CA
:10121000C50A882311F082DA02C086E37BDA111155
:101220000E94601546982696E2E10C943622ADE0C5
:10123000B0E0EDE1F9E00C941D227C01162F842F23
:10124000022F6701C60ED11C462FB70184D2D601EA
:101250008C931F5F1D8619825E2C670127E088240E
:101260008394912C32C047E0A42EB12C3701680E34
:10127000711CF4010A2C01C0EE0F0A94EAF7D301A5
:101280008C91AE01435F5F4FBE016F5F7F4F8E2336
:10129000EADE282FB1E0AB1AB10858F7D601ED917C
:1012A0006D010E2EE295E0250E2EE695E695E025E1
:1012B000F0E03196E1FB882780F9AE01435F5F4F94
:1012C000BE016F5F7F4FCFDE282F8C2D85198117D0
:1012D00008F4C9CF222311F0215004C08D858F5FFF
:1012E0008D8727E089E1809347018093480185E25B
:1012F0008093490180934A013AE0E32E4D856CE0EA
:10130000CE010196F1DE2D96EFE00C943922ADE08E
:10131000B0E0EDE8F9E00C942922162F242F4BE0E1
:10132000BE016F5F7F4F01962D87D3DC2D85412F46
:10133000682FCE0101967BDF2D96E3E00C944522C9
:1013400043E066E0E4CFEF920F93CF93DF93CDB706
:10135000DEB760970FB6F894DEBF0FBECDBF40E199
:10136000BE016F5F7F4F0196B4DC69814A810B81BA
:101370008C81809348018D81809347018E81809379
:101380004A018F8180934901E02EE2947FE0E722B9
:101390000F70242F2F7042954F70CE010896A4DE57
:1013A00060960FB6F894DEBF0FBECDBFDF91CF9130
:1013B0000F91EF900895A9E1B0E0E1EEF9E00C940F
:1013C00022224BE0BE016F5F7F4F019682DC182F17
:1013D000893009F05BC099E19093470190934801EF
:1013E00090934A0182E38093490169E0CE0101961E
:1013F000BCD1E1E0F0E0EC0FFD1FE10FF11D8083B7
:10140000198E1D868E010F5F1F4F6E018BE0C80E77
:10141000D11C27E0AA24A394B12C25C0E12CF12CE7
:10142000F5010E2C01C0EE0F0A94EAF7D8018C9159
:10143000AE01475E5F4FBE01635F7F4F8E2313DEB9
:10144000282FBFEFEB1AFB0A88E0E816F10441F7FA
:10145000AE01475E5F4FBE01635F7F4F81E003DEF9
:10146000282F0F5F1F4F0C151D05C1F6222311F009
:10147000215004C0898D8F5F898F27E0EAE0EE2E2E
:1014800003E0498D6CE0CE010D962EDE6996EAE010
:101490000C943E226F927F928F929F92BF92CF9236
:1014A000DF92FF920F931F93CF93DF93A62F10929B
:1014B000BB011092BC01FC016181660F660F660FD3
:1014C0002381621B695F1092BD01F12C70E047E03F
:1014D000F7E0DF2EC12C20E007E010E0C1E0D0E013
:1014E0007DC0FC01EC0DF11D248130E00D2C02C00B
:1014F000359527950A94E2F721703327522FDD2086
:1015000011F0DA9403C0C394E7E0DE2EAB3491F41B
:10151000433009F081C0F11007C051115CC0109236
:10152000BB017093BC0176C0F12C79C0AB3409F0DB
:1015300050C03CC04F3F41F5A634B9F4E72FF0E06E
:10154000E354FE4F4081042E42954025042E4695DB
:101550004695402550E04F5F5F4F41FB882480F85F
:10156000912C8216930641F004C0A53429F4511140
:1015700003C0F092BB01D5CF7F5FE72FF0E0E354CB
:10158000FE4F108247E029C0552319F1A63459F4C3
:10159000E72FF0E0E354FE4F9E01042E01C0220F1E
:1015A0000A94EAF713C0A53409F0C0CFE72FF0E0A2
:1015B000E354FE4F9801241B310947FD33953E014A
:1015C00002C0660C771C2A95E2F793013081322B1A
:1015D0003083415002C0FF24F3942B2DB22EB394DC
:1015E000261708F47ECFF092BB017093BC016B15F7
:1015F00088F4A53419F44F3F09F404C08091BB016D
:10160000882319F07F5F7093BC0181E09091BC0149
:10161000911108C080E006C04F3F09F4A8CF5111D6
:10162000C5CFD7CFDF91CF911F910F91FF90DF9062
:10163000CF90BF909F908F907F906F900895109261
:101640006F00E091EE018CE1E89FF0011124E55B71
:10165000FE4F10820895FC01218130E050E070813E
:10166000C901841B950B0B964797C8F4872F90E010
:1016700070E0FC01E61BF70BEC30F10584F4E53F6C
:10168000FF4F6CF0280F391F640F751F261B370B97
:101690002C30310524F481E0253F3F4F0CF480E0ED
:1016A0000895FC012181243108F0C9CF662389F017
:1016B000DC01A20FB11D81E090E0038002C0880F21
:1016C000991F0A94E2F714969C911497982B1496FC
:1016D0009C938381882319F081508383089587E048
:1016E00083832F5F2183E20FF11D14820895219AD5
:1016F00029985298E9E6F0E080818160808382EC4D
:1017000091E09093C40A8093C30A109267011092EB
:10171000830110929F011092BD0A08958091C50A1D
:10172000882319F086D80C948E037AC8FC01218195
:1017300021110BC08091C50AC8DA40E265E08091B2
:10174000C30A9091C40A51DA4CCA41E065EC7AE0D0
:101750000196BFDAE3CF06C04150FB01E40FF11D53
:101760009081890F4111F8CF089520E006C06150A3
:10177000FC01E60FF11D308123276111F8CF822F84
:101780000895A091BB0140E035E020E012C0615017
:10179000FC01E60FF11D5081752F72957F70272790
:1017A000370FAA2311F0442319F05F702527350F56
:1017B0004F5F6111ECCF320F40E1349FC001112423
:1017C000822B0895FC0132812381A081B181A30F76
:1017D000B11D8C9190E0022E02C0959587950A94D8
:1017E000E2F78170922F91509383211104C03F5FE3
:1017F000328397E0938308958F929F92BF92CF9206
:10180000DF92EF92FF920F931F93CF93DF9300D05D
:10181000CDB7DEB76C01812C912CB12CEE24E39472
:10182000F12C062F10E0015011091DC0C6014A839A
:101830006983C8DF4A816981882391F0442349F094
:101840009801281939098E2D01C0880F2A95EAF7C9
:1018500006C08E2D082C01C0880F0A94EAF7B82A1A
:101860008FEF881A980A861608F38B2D0F900F9029
:10187000DF91CF911F910F91FF90EF90DF90CF906C
:10188000BF909F908F900895A4E0B0E0EAE4FCE060
:101890000C9421221B8227E02C839C012C5F3F4F5C
:1018A0003A8329831092BC01FC012181338187E0B6
:1018B00090E0831B9109F8E02F9F800D911D11246A
:1018C000853491057CF554C00A2D10E040E068E0B5
:1018D000CE01019691DF03541E4FF8018083982EAC
:1018E000092C92949024092C969496949024CE01DD
:1018F000019668DF292D30E02F5F3F4F21FBCC247C
:10190000C0F8D12C90E0C816D90691F5CE01019609
:1019100059DF81112DC0F8018081B826A394A092CF
:10192000BC0101C0B12CA090BC01F5E0FA1560F635
:1019300040E068E0CE0101965FDF082F182F012EEE
:1019400012951025012E169516951025CE0101969B
:1019500039DF212F30E02F5F3F4F21FBEE24E0F8ED
:10196000F12C282F30E0E216F30611F481E0B012DA
:1019700080E02496EBE00C943D22A5E0B0E0E3EC9F
:10198000FCE00C942722FC011B8287E08C83CF01B2
:1019900004969A8389831092BC018081853009F076
:1019A0004EC02181338187E090E0831B910938E0AC
:1019B000239F800D911D11248039910509F03FC0AE
:1019C0000FE010EF29E812C0CE0101962D8314DF3D
:1019D000080F111DEF2DF0E0E354FE4F2D81282755
:1019E0002083282F2C5DF394F092BC01F090BC0171
:1019F0008EE041E068E08F1538F7CE010196FCDEFD
:101A0000080F111DEF2DF0E0E354FE4F8095808309
:101A1000F394F092BC0141E068E0CE010196ECDE67
:101A2000382F20E0021B130B41E068E0CE01019645
:101A3000E3DE282F30E081E00217130709F080E091
:101A40002596E5E00C944322A4E0B0E0EAE2FDE054
:101A50000C9429221B8227E02C839C012C5F3F4F92
:101A60003A832983FC012181243099F583818130D7
:101A700081F51092BC0114C0111106C067E0CE01BF
:101A80000196BADE806804C068E0CE010196B4DE3B
:101A9000E12FF0E0E354FE4F80831F5F1093BC0101
:101AA0001091BC0141E0143038F367E0CE0101969B
:101AB000A3DEE12FF0E0E354FE4F880F80831F5F29
:101AC0001093BC019091BD0192959F7081E09A3076
:101AD00009F080E02496E3E00C944522A0E0B0E019
:101AE000E4E7FDE00C9424228091D101882399F150
:101AF0008091C50A87FF16C084E30E943B0380588B
:101B0000803458F0803C58F490E080559109B3E05F
:101B100095958795BA95E1F703C080E001C08FE005
:101B20008F590FD88091C50A83FF13C082E709D867
:101B30008091C50A84FF03C08091D20102D886E655
:101B400000D88091C50A84FF04C08091D1010E9411
:101B5000A1051092D1018091D301882309F40DC20F
:101B6000469AC091D4012CE1C29FE0011124C55BCB
:101B7000DE4FCE0102DF8111C7C1C0C11091BC018F
:101B800011501093BC01412F6DEB71E086E0E3DD55
:101B9000612F70E0FB01E354FE4F0081801303C00E
:101BA000143008F0B3C1282F30E02F5F3F4FE02FF3
:101BB000F0E02E173F0739F4143028F0FB01E3540E
:101BC000FE4F8083A3C1412F6DEB71E08CE0C3DD3C
:101BD000801731F065E4CE015DDC811105C09AC14A
:101BE000143008F095C1F6CF8091BC0181508093EC
:101BF000BC01893009F08EC169E08DEB91E0B5DD63
:101C00009091C601891386C18AC1F090BC01FA94F3
:101C1000F092BC016F2D8DEB91E0B3DDEF2DF0E084
:101C20009091BB01E91BF109E354FE4F90818917A4
:101C300009F492C18B81873009F090C11B828981A0
:101C4000815089838DC18B81843009F0D4C04EE1ED
:101C50006CE3CE014896FFDC882309F4CCC04EE14A
:101C60006E2DC801F8DC682FCE011BDD20E0822F2D
:101C700090E0FC01E354FE4FDE01A80FB91F14965B
:101C80008C9180832F5F253090F36FC1A1FD5DC0E3
:101C90003091D501B091BC013B1333C020E014C09A
:101CA000822F90E0422F4F5FFC01EA52FE4F835497
:101CB0009E4F5081FC018081581729F02093D50157
:101CC00023131FC004C0242F231750F3F7CF4091D4
:101CD000BF0A5091C00A6091C10A7091C20AC090B7
:101CE000EA01D090EB01E090EC01F090ED014C198D
:101CF0005D096E097F0931E04632510561057105C4
:101D000008F030E020E00CC0822F90E0AC014A5295
:101D10005E4F83549E4FFC018081FA0180832F5FC8
:101D20002B1790F32093D5014091BF0A5091C00A20
:101D30006091C10A7091C20A4093EA015093EB018D
:101D40006093EC017093ED0101C030E00435E9F4DB
:101D5000A6FD1BC08091BC018530B8F08091BF0109
:101D60008B3409F449C0893609F446C0833509F437
:101D700043C0843509F440C08D37F1F18E37E1F16D
:101D80008091C00180778037B9F1311135C0802F43
:101D90000E94A1058091BB01882329F08091BC019C
:101DA00081508093BC0110E008C0E12FF0E0E354C3
:101DB000FE4F80810E9465061F5FE091BC011E17E7
:101DC000A0F38091BB01882351F0F0E0E354FE4F73
:101DD000808140E361E08F7090E00E942B0680914B
:101DE000C50A85FF05C084E30E943B030E94650687
:101DF0000E94F10501C000E08091C50A82FF65C024
:101E000080E70E94A10540E262E0888190E00E94A4
:101E1000F505888D40E265E0F0E18F9FC001112457
:101E20000E94F505898D40E265E020E1829FC001B6
:101E300011240E94F5058A8D40E265E0E0E18E9F65
:101E4000C00111240E94F5058B8D40E265E0F0E1B0
:101E50008F9FC00111240E94F50540E263E08A8152
:101E600090E00E94F50540E263E0898190E00E94E5
:101E7000F5052B8140E262E087E090E0821B91094A
:101E80000E94F50580E20E94A1058091C50A85FFA8
:101E900008C084E30E943B030E94650680E20E9422
:101EA000A1058B81873019F089818F5F898310E0CC
:101EB00007C0FE01E10FF11D84810E9465061F5FCE
:101EC00089811817B0F30E94F10518828091D3011F
:101ED00081508093D3018091D4018F5F843019F0B9
:101EE0008093D40102C01092D4014698043509F0C1
:101EF00044C08DEB91E00E94171F3FC066E4CE0105
:101F0000C9DA81113BCE66CE03E532C006E430C0AB
:101F100004E52EC0CE01B8DC811108C002C005E482
:101F200027C0CE0191DD811103C004C008E420C0A8
:101F300004E71EC0E090D2018E01065E1F4F4B8D5C
:101F40006E2DC80188DB682FCE01ABDB6BE4CE01C0
:101F5000A1DA81115ACE6ECE0BE40AC08F5F8B835B
:101F60008981843009F46FCE46CF2093BC0102E50D
:101F7000A091C50AA0FD8ACE3FCFCDB7DEB7E8E07D
:101F80000C9440221F920F920FB60F9211240BB6A1
:101F90000F922F933F934F935F936F937F938F9302
:101FA0009F93AF93BF93EF93FF9310926F00809135
:101FB000C50A83FF03C08EE20E94A1058091EE0155
:101FC0009CE1899FF0011124E55BFE4F90819330E5
:101FD00018F09181923010F432DB18C09091D30147
:101FE000933049F48091C50A82FFF6CF80EA91E0F0
:101FF0000E94E405F1CF9F5F9093D3018F5F8430FF
:1020000019F08093EE0102C01092EE01FF91EF9162
:10201000BF91AF919F918F917F916F915F914F9100
:102020003F912F910F900BBE0F900FBE0F901F90FE
:102030001895982F9552973160F46A3050F06732B6
:1020400040F421E030E0681710F020E030E0C901F2
:10205000089580E090E008951F920F920FB60F92BE
:1020600011240BB60F920F931F932F933F934F930F
:102070005F936F937F938F939F93AF93BF93CF9310
:10208000DF93EF93FF938091FD12882321F082E08C
:102090008093FD1222C18091D512823021F483E019
:1020A0008093D5121AC18091840090918500E4E05C
:1020B00096958795EA95E1F7182FC091EE018CE18E
:1020C000C89FE0011124C55BDE4F8881843031F464
:1020D0001E3208F402C11F3448F0A3C0853031F429
:1020E000173108F4FAC0183208F09BC04A990DC0A5
:1020F0008450823038F461E0CE01D3DA109285004A
:10210000109284001093D201E8C00091D201101BFC
:102110001093D10110928500109284008881845020
:10212000823020F460E0CE01BCDAD7C082E086BB0A
:102130008881811111C09091D201953608F0CDC0EF
:102140008091D101853608F0C8C0988F898F81E0D1
:102150008A8382E08883C1C0412F602F823009F0DA
:1021600070C0CE01489677DA882301F1888D90E01F
:102170009C01220F331F280F391F200F311D359569
:10218000279535952795288F298D30E0C901880F2F
:10219000991F820F931F810F911D95958795959596
:1021A0008795898F8A818F5F8A8397C08A818430DF
:1021B00008F445C080EA9FE09093890080938800EE
:1021C0008A818C3050F0888D298D30E0280F311DA8
:1021D0002536310524F084E027C08A3088F0888DC8
:1021E000298D30E0280F311D253231054CF485E072
:1021F000888388EE93E0909389008093880015C0CF
:102200008091CB0A882379F0612F802F12DF8823F9
:1022100051F0688D898D0DDF882329F081E080934E
:10222000D5120DDA5AC083E088830A8F1B8F19827A
:1022300087E08B831C8282E080936F004EC01882FF
:102240007ACFCE014A9607DA882301F161E0CE0108
:1022500028DA4A8D50E09A01220F331F240F351FD0
:10226000200F311D35952795359527952A8F2B8D74
:1022700030E0C901880F991F820F931F810F911DB4
:1022800095958795959587958B8F27C0412F602FC2
:10229000CE014896E0D9882309F4C3CF60E0CE018F
:1022A00000DA488D50E09A01220F331F240F351FAA
:1022B000200F311D3595279535952795288F298D28
:1022C00030E0C901880F991F820F931F810F911D64
:1022D0009595879595958795898FFF91EF91DF91DA
:1022E000CF91BF91AF919F918F917F916F915F91AE
:1022F0004F913F912F911F910F910F900BBE0F9017
:102300000FBE0F901F901895E091EE018CE1E89FB1
:10231000F0011124E55BFE4F8081811109C081E04D
:1023200090E02091FC122F3F29F480E090E0089586
:1023300081E090E0089580E690E00E94D2068093CC
:10234000CB0A81E690E00E94D2068093DF128823B8
:1023500021F081E28093C50AE1C90895299A0C947D
:102360001A0529980C941A05A7E0B0E0EAEBF1E110
:102370000C9425229091D70A943559F42091D812C3
:102380003091D9122F5F3F4F3093D9122093D8123A
:102390003EC0963459F42091D6123091D7122F5F57
:1023A0003F4F3093D7122093D61231C0953459F451
:1023B0002091C80A3091C90A2F5F3F4F3093C90A54
:1023C0002093C80A24C09B3459F42091DB12309129
:1023D000DC122F5F3F4F3093DC122093DB1217C0CB
:1023E000983459F42091DD123091DE122F5F3F4F67
:1023F0003093DE122093DD120AC02091C60A30917C
:10240000C70A2F5F3F4F3093C70A2093C60A95E74C
:102410009983882399F0BE016E5F7F4F8091DF1210
:102420000E94BA06BE016C5F7F4F8091CB0A0E946A
:10243000BA0685E58E8396E0D92E02C0DD24D394BA
:102440000E9419040E94A10316E080E891E086DF53
:1024500080E093E086DF1150C1F780E093E07EDFFB
:1024600080E891E07EDF80E891E078DF299887E3DB
:1024700090E00E94B40383E00E941F052C988FE730
:102480000E94E4028091D00A8D0D0E94E402EE24A5
:10249000E394F12CEC0EFD1E8701F80181918F0170
:1024A0000E94E402802F8E198D15B8F306C08CECC3
:1024B0009AE00E9412080E94E4028091D00A909152
:1024C000D10A892BA1F72C9A0E94A1038CEC9AE0E7
:1024D0000E94EA0715E103C081E00E941F058AE31C
:1024E0000E943B038F7711F01150B1F717D927964F
:1024F000E7E00C944122CF93DF93EC0189818111B5
:1025000007C08091CB0A0E9465068091DF1213C03C
:102510008436A1F48091BF0A9091C00AA091C10AAB
:10252000B091C20A40E364E00E942B068EE20E9452
:10253000A1058091D4120E9465064DC0833709F031
:102540004DC040E361E08091D8129091D9120E9471
:102550002B068EE20E94A10540E361E08091D61235
:102560009091D7120E942B068EE20E94A10540E3B3
:1025700061E08091C80A9091C90A0E942B068EE200
:102580000E94A10540E361E08091DB129091DC1292
:102590000E942B068EE20E94A10540E361E080913B
:1025A000DD129091DE120E942B068EE20E94A105A0
:1025B00040E361E08091C60A9091C70A0E942B0611
:1025C0008EE20E94A10540E361E08091D2129091D9
:1025D000D3120E942B060E94F1052CC08936D9F433
:1025E00041E06BEC7AE0CE0102960E9469066091B0
:1025F000CB0A80E690E00E94CD0641E06FED72E1EB
:10260000CE0104960E9469066091DF1281E690E097
:102610000E94CD060FC08CEC9AE00E94EA0721963A
:1026200004C08CEC9AE00E94F20769916111F9CF25
:1026300080E09ADEDF91CF910895A1E0B0E0E3E27F
:10264000F3E10C9424228091D512882309F48EC0E2
:10265000C090BF0AD090C00AE090C10AF090C20AB0
:10266000833009F069C08FE30E943B03182F863046
:10267000C8F084E09BE10E94EA072C988FEF0E944B
:10268000E40280E00E94E402082F08C080E00E947B
:10269000E402682F84E09BE10E94F2071150B1F739
:1026A0002C9A01C000E03AD81092D512053709F0F3
:1026B0005DC041E0BE016F5F7F4F8AE09BE10E94F9
:1026C00069060197A1F599818091CB0A98132FC0D3
:1026D00080910E1B853581F406C084E09BE10E9449
:1026E00012080E94A1058091081B9091091B892B5B
:1026F000A1F70E94F1053AC08091081B9091091B37
:1027000004979093091B8093081B84E090E09093BA
:10271000071B8093061B6AE084E09BE10E94F2079E
:10272000E091BB0AF091BC0A88E009951FC084E0E3
:102730009BE10E94EA071AC0823059F49091CA0ABC
:102740008C2D891B883090F00E948E0B1092D51230
:102750000DC0813059F487E390E00E94B4030E94D9
:102760008E0382E08093D512C092CA0A2196E8E0D7
:102770000C944022C9DD882361F083E08093DA1253
:102780008091D2129091D31201969093D31280939C
:10279000D2128091DA1281508093DA12882321F0CC
:1027A00083E08093D412089581E0DECDCF93DF9350
:1027B000E898249A2C9A8EE190E00E941A052C98B1
:1027C0008EE190E00E941A052C9A8DE290E00E9422
:1027D0001A0580E30E948A0384E690E00E941A05AD
:1027E000C0E0D0E0FE01E855FE4F6491FE01E955DE
:1027F000FE4F84910E9478032296C233D10591F74F
:1028000083E30E948A0384E00E941F0584E30E9400
:102810008A0385E30E943B038D30C1F7DF91CF919E
:102820000895AEE1B0E0E7E1F4E10C942822809154
:10283000EF01882309F4A2C04A9B8BC08FE30E945A
:102840003B038F7789838E3168F08AE30E948A0385
:1028500086E30E948A038DE30E948A0384E30E9438
:102860008A038CC02C988FEF0E94E40210E00BC00A
:1028700080E00E94E402E2E0F0E0EC0FFD1FE10FD7
:10288000F11D80831F5F8981181790F380E00E94FB
:10289000E402082F80E00E94E4022C9A84E30E9464
:1028A0008A0385E30E943B038D30C1F72A8196E7B6
:1028B00092279A8392E00CC041E050E04C0F5D1FDC
:1028C000E40FF51F30812452232720839F5F232F9D
:1028D0008981E92FF0E0981778F381E090E08C0F80
:1028E0009D1FE80FF91F90818B819827908380911D
:1028F000C50A84FF13C081E60E94A10510E00AC04A
:10290000E1E0F0E0EC0FFD1FE10FF11D80810E947E
:10291000A1051F5F8981811798F71BC081E40E9480
:10292000A10510E00AC0E1E0F0E0EC0FFD1FE10FAF
:10293000F11D80810E9465061F5F8981811798F7CC
:102940008091C50A85FF03C0802F0E9465060E9402
:10295000F10585E30E943B03813029F0813161F468
:102960008AE30E948A0386E30E948A038DE30E9421
:102970008A0384E30E948A030E945E046E96E4E068
:102980000C944422AEE1B0E0E8ECF4E10C94242293
:102990004DE1BE016F5F7F4F01960E9469067C0189
:1029A0009C01332721503109898190E0281739078C
:1029B00009F072C08091EF01811104C0F7DE83E05D
:1029C0000E941F051B818A8196E789278A8392E0EE
:1029D00009C0DE01A20FB31F8C918452208182278F
:1029E00080839F5F8981292F30E0E1E0F0E0EC0FE8
:1029F000FD1FE20FF31F981760F38081812780830A
:102A000085E30E948A0385E30E943B038331C1F77B
:102A100014FF08C088E70E941F0588E70E941F0571
:102A200088E701C08AE00E941F052C988FE70E946A
:102A3000E402CC24C394D12CCC0EDD1E860105C04B
:102A4000F80181918F010E94E402802F8C198E156C
:102A5000B8F32C9A85E30E943B038331D9F385E3D5
:102A60000E943B03863149F48BE30E948A0386E38C
:102A70000E948A038DE30E948A038091EF018823DC
:102A800049F084E30E948A0385E30E943B038D3072
:102A9000C1F702C00E948E0B6E96E8E00C944022B3
:102AA000FC012181223729F481DE81E08093EF014E
:102AB0000895233711F4019665CF1092EF01089520
:102AC000CF93DF93E898249A2C9A8EE190E00E94AD
:102AD0001A052C988EE190E00E941A052C9A8DE23E
:102AE00090E00E941A0580E30E948A0384E690E049
:102AF0000E941A05C0E0D0E0FE01E752FE4F84912B
:102B0000813440F083E30E948A0384E00E941F0521
:102B1000CFEF0BC0FE01E652FE4F64910E94780396
:102B20002296CC33D10541F7EDCF84E30E948A038E
:102B30008AE090E00E941A05C150B9F781E08093C5
:102B4000F001DF91CF910895EF92FF920F931F93C1
:102B5000CF93DF93EC018B01F880F394611571053D
:102B600019F0E4E6F0E002C0E0E0F0E028E0F29ED8
:102B7000C00111246AE070E00E9407229B012E0F21
:102B80003F1FC901AA2797FDA095BA2FE091C30A5C
:102B9000F091C40AAF0160E070E0481759076A0776
:102BA0007B0728F48EE192E00E94E405D6C0E21B88
:102BB000F30BF093C40AE093C30A8091F0018111F2
:102BC00001C07EDF85E30E943B038D3071F08AE512
:102BD0000E94A10585E40E94A10582E50E94A1054D
:102BE00082E50E94A10581E34CC08091F70190919C
:102BF000F801A091F901B091FA01892B8A2B8B2B56
:102C000061F40E94A10385E30E943B03833109F430
:102C100043C02AC081E00E941F058091BF0A9091A5
:102C2000C00AA091C10AB091C20A4091F701509127
:102C3000F8016091F9017091FA0184179507A607D0
:102C4000B70741F38091BF0A9091C00AA091C10AD1
:102C5000B091C20A4F5F5F4F6F4F7F4F8417950748
:102C6000A607B707B9F2CDCF8AE50E94A10585E492
:102C70000E94A10582E50E94A10582E50E94A105AE
:102C800082E30E94A10585E30E943B030E94650642
:102C90000E94F10515DF61C0012B41F42C988FE7EC
:102CA0000E94E402EC2E0C2F1D2F0EC00AE010E053
:102CB00084E60E941F0501501109D1F7EFCFF801FA
:102CC00081918F010E94E402802F8E198F15B8F335
:102CD0002C9AC8EC85E30E943B038D3031F485E3E8
:102CE0000E943B038D3061F422C085E30E943B03C8
:102CF0008331A9F781E00E941F05C15059F7EFCF3A
:102D00008AE50E94A10585E40E94A10582E50E9452
:102D1000A10582E50E94A10583E30E94A10585E348
:102D20000E943B030E9465060E94F105C9DE809166
:102D3000F001811102C00E948E0B8091BF0A909118
:102D4000C00AA091C10AB091C20A8093F701909382
:102D5000F801A093F901B093FA01CDB7DEB7E6E030
:102D60000C944222ACE0B0E0E8EBF6E10C942722B0
:102D7000FC018BE0898381818A831B8282E08C83C2
:102D800087818D8380858E8381858F8384818887E9
:102D90008581898786818A871B861C8684E10E94BB
:102DA0001F0560E070E08E010F5F1F4FC801CCDE91
:102DB0008AE50E94A105F12C07C0F801E80FF91F70
:102DC00080810E946506F3948F2D90E0298130E088
:102DD0002817390794F78091C50A85FF03C080E062
:102DE0000E9465060E94F1052C96E5E00C944322B2
:102DF000CF93DF93EC019091F101911108C0809184
:102E0000F201811104C08091F301811116C08B8100
:102E1000803321F0803411F0803579F48F8189136B
:102E20000CC098858091F201981307C09985809114
:102E3000F301981302C0CE0195DF8091F401811156
:102E400008C09091F501911104C09091F601992369
:102E5000A9F098819B3091F49B81903479F49F8103
:102E600098130CC098858091F501981307C0998537
:102E70008091F601981302C0CE0174DFDF91CF91EB
:102E80000895AEE1B0E0E7E4F7E10C9426228091EA
:102E9000F001882309F467C04A9B57C08FE30E9462
:102EA0003B038F778E3108F401C08DE189832C9824
:102EB0008FEF0E94E40210E00BC080E00E94E40269
:102EC000E2E0F0E0EC0FFD1FE10FF11D80831F5FDA
:102ED0008981181790F380E00E94E402E82E80E0D8
:102EE0000E94E4022C9A8E010F5F1F4FC80180DF01
:102EF0008091C50A84FF10C08AE70E94A105F12CC9
:102F000007C0F801EF0DF11D80810E94A105F39427
:102F100089818F15B0F727C08AE50E94A105F12CA1
:102F200007C0F801EF0DF11D80810E946506F39442
:102F300089818F15B0F78091C50A85FF03C08E2D5A
:102F40000E9465060E94F1050EC085E30E943B03C6
:102F5000813149F48AE30E948A0386E30E948A034E
:102F600084E30E948A036E96E6E00C944222AEE16E
:102F7000B0E0EDEBF7E10C9428228C01FC0181819B
:102F8000823711F49DDD36C0833711F0863601F5A6
:102F90004DE1BE016F5F7F4FC80102960E94690636
:102FA00099270197298130E08217930729F085E25C
:102FB00092E00E94E4051EC061E070E0F8018181AA
:102FC000833711F060E070E0CE010196BDDD12C0E4
:102FD000813621F443E061EF71E005C0873741F4A9
:102FE00043E064EF71E0C80102960E94690602C0E6
:102FF0001092F0016E96E4E00C944422282F809108
:10300000060190910701299A213069F49C01220F51
:10301000331F820F931F0E941A0529988091060181
:10302000909107012EC0211120C00E941A052998F5
:1030300080910601909107019C01220F331F820F9E
:10304000931F0E941A05299A809106019091070109
:103050000E941A05299880910601909107019C0110
:10306000220F331F820F931F1FC00E941A05299839
:1030700080910601909107019C01220F331F820F5E
:10308000931F0E941A05299A8091060190910701C9
:103090009C01220F331F820F931F0E941A0529984B
:1030A00080910601909107010C941A05CF93DF934C
:1030B000E898249A2C9A8EE190E00E941A052C98A8
:1030C0008EE190E00E941A052C9A8DE290E00E9419
:1030D0001A0580E30E948A0384E690E00E941A05A4
:1030E0002C9880E40E94E402CEE2D2E0FE018491BA
:1030F0000E94E4022196F2E0CB33DF07B9F780911A
:1031000001010E94E402809102010E94E402809188
:1031100003010E94E402C0E0D0E0FE01E25CFD4F4A
:1031200084910E94E4022196C931D105B1F72C9A0D
:103130002C988EE70E94E4028BE290E0EC0121964D
:103140000E94D2060E94E402CE01C333D105B1F73A
:103150002C9A83E30E948A0381E00E941F0581E08C
:103160008093BD0ADF91CF910895A0E0B0E0EBEB32
:10317000F8E10C942322EC018981843769F466E03C
:1031800071E0CE0102960E949F0640E260E08091CD
:1031900006019091070112C0833709F0A9C08A8106
:1031A000823789F464E071E0CE0103960E949F06A5
:1031B00040E260E080910401909105010E94F505D4
:1031C0000E94F105FFC0469A8091FD01811116C051
:1031D0008091EF01882329F081E08093FC01109217
:1031E000EF018091F001882329F081E08093FB01B9
:1031F0001092F0015BDF83E00E941F0586E30E94CE
:103200008A038AE30E948A038BE30E948A030E9456
:10321000A10300E010E06E0182E0C80ED11C23C0C3
:10322000F70181917F01803311F480E005C0813383
:1032300011F481E001C082E0E1DEBA9489F7299AB5
:1032400080910601909107010E941A052998AFE12B
:10325000FA2E80910601909107010E941A05FA94B6
:10326000C1F70F5F1F4F809104019091050108176E
:10327000190720F47601FCE0BF2ED2CF8091FD012A
:10328000882341F08091C50A81110EC086E30E9417
:103290008A0317C08091FC01882349F01092FC0139
:1032A00085DA81E08093EF010E948E030AC080914D
:1032B000FB01882321F01092FB0102DC02C00E9476
:1032C0008E0B469889E60E94A10583E70E94A1051E
:1032D000229611E08991803309F404C0813309F406
:1032E00001C086E40E94A1051F5F1D3099F768CFD9
:1032F0008237B9F48091EF01882329F081E080932F
:10330000FC011092EF018091F001882329F081E007
:103310008093FB011092F001C9DE81E08093FD01F2
:1033200051C0863651F58A81803351F480E1809313
:10333000010180EB8093020181E78093030107C0C4
:1033400043E061E071E0CE0102960E94690689E6E1
:103350000E94A10586E60E94A1058AE30E94A105BC
:10336000809101010E946506809102010E9465061C
:10337000809103010E94650623CF883719F580915B
:10338000FC01882339F01092FC0110DA81E080936F
:10339000EF0110C08091FB01882321F01092FB0106
:1033A0008FDB0EC082E090E00E94B4038091C50ADA
:1033B000882319F00E948E0303C086E30E948A03CB
:1033C0001092FD01CDB7DEB7E9E00C943F22CF9318
:1033D000DF93E898249A2C9A8EE190E00E941A05D7
:1033E0002C988EE190E00E941A052C9A8DE290E0D4
:1033F0000E941A0580E30E948A0384E690E00E94FE
:103400001A052C9880E40E94E402C7E5D2E0FE0190
:1034100084910E94E4022196F2E0C038DF07B9F7F8
:103420002C9A2C988EE70E94E4028BE290E0EC014B
:1034300021960E94D2060E94E402CE01C333D10538
:10344000B1F72C9A83E30E948A0381E00E941F0552
:1034500081E08093BD0A8093FE01DF91CF910895B2
:10346000A0E0B0E0E5E3FAE1EEC78C018091E01264
:10347000F801838364839DE0E92EF12C0E94A1036F
:1034800085E30E943B03833169F080E892E00E946B
:10349000E40585E30E943B030E9465060E94F10556
:1034A00096DF4CC04091BF0A5091C00A6091C10A9A
:1034B0007091C20A4093E1125093E2126093E312BA
:1034C0007093E4122C988FE70E94E4026801C0E038
:1034D000D0E08AEAB82EF60180810E94E402C93069
:1034E000D10544F4F6018081B826C730D10511F426
:1034F000F801B0862196FFEFCF1ADF0ACF30D10551
:1035000051F72C9AC8EC85E30E943B038D3031F4CF
:1035100081E0E81AF10809F0B1CF0BC085E30E9401
:103520003B038331A9F781E00E941F05C15059F781
:10353000EFCF8091E0128F5F8093E012CDB7DEB7BE
:10354000E9E09DC7ABE3B0E0E7EAFAE179C77C01C7
:10355000DC010D900020E9F7AD0141505109481BF5
:10356000590B6C01B2E0CB0ED11CBE01625D7F4FE6
:10357000C6010E946906082F6FE371E089E091E0BF
:103580000E948323F7011181812F8357823008F035
:10359000CBC187858A3411F489E501C08EE480931C
:1035A00008018090BF0A9090C00AA090C10AB09014
:1035B000C20A4091BF0A5091C00A6091C10A70913D
:1035C000C20A4093E1125093E2126093E3127093A7
:1035D000E41280910801893509F054C08DE892E029
:1035E0000E94E40589E992E00E94E405C7010E9477
:1035F000D90580EB92E00E94E405D7010D900020F0
:10360000E9F7CD01019740E260E08E199F090E9421
:10361000F50585EC92E00E94E405F7010190002099
:10362000E9F73197EE19FF09EE0DFF1D40E260E06A
:10363000808190E00E94F5058DE093E00E94E40512
:1036400040E260E0802F90E00E94F50585E593E080
:103650000E94E40588E593E00E94E40540E364E00D
:103660008091E3129091E4120E942B0640E364E003
:103670008091E1129091E2120E942B068FE693E076
:103680000E94E405D7010D900020E9F75197AE158F
:10369000BF0509F03CC142E0BE01625D7F4FC6013B
:1036A0000E946906029709F032C191DE0EA5B701AA
:1036B000665F7F4F45E050E0CE0101960E948A236D
:1036C0001E824AE050E060E070E0CE010196E9D64B
:1036D0006B017C0123E0F694E794D794C7942A9574
:1036E000D1F7809108018935F1F482E793E00E94D7
:1036F000E405CE0101960E94D90589E893E00E9475
:10370000E40580E993E00E94E40540E364E0C7013A
:103710000E942B0640E364E0C6010E942B0687EA64
:1037200093E00E94E4058FE0EDE2F1E0DE015F96B8
:1037300001900D928A95E1F78FA588A388A989A3A6
:1037400089A98EA3602FCE014F968ADE133709F424
:10375000F1C007FFEFC04091E1125091E212609179
:10376000E3127091E4128091BF0A9091C00AA09177
:10377000C10AB091C20A88199909AA09BB098E37F2
:103780009105A105B10548F48090BF0A9090C00A48
:10379000A090C10AB090C20AA8958091BF0A9091EA
:1037A000C00AA091C10AB091C20A841B950BA60B56
:1037B000B70BC816D906EA06FB06A8F68090BF0A22
:1037C0009090C00AA090C10AB090C20A80910801EE
:1037D000893509F073C08FEA93E00E94E40540E365
:1037E00064E0C5010E942B0640E364E0C4010E942E
:1037F0002B0686EC93E00E94E4058EEC93E00E9499
:10380000E40540E364E08091E3129091E4120E94A9
:103810002B0640E364E08091E1129091E2120E9455
:103820002B0685EE93E00E94E4058DEE93E00E9466
:10383000E40540E364E0C7010E942B0640E364E036
:10384000C6010E942B0684E094E00E94E4058CE00F
:1038500094E00E94E4058091BF0A9091C00AA09173
:10386000C10AB091C20A4091E1125091E2126091F6
:10387000E3127091E412841B950BA60BB70B40E387
:1038800064E0CD010E942B068091BF0A9091C00A8E
:10389000A091C10AB091C20A2091E1123091E212C6
:1038A000821B930B40E364E00E942B0683E294E0CA
:1038B0000E94E4058BE294E00E94E40567EFCE01EC
:1038C0004F96CEDD4091E1125091E2126091E312E9
:1038D0007091E4128091BF0A9091C00AA091C10A30
:1038E000B091C20A841B950BA60BB70B4597A10597
:1038F000B10580F380910801893521F484E394E0D7
:103900000E94E40567EFCE014F96AADD13C08DE358
:1039100094E00E94E40540E260E08EE090E00E94C6
:10392000F50582E694E002C086E894E00E94E40592
:103930001092FE01EB96ECE09FC51092E7121092F8
:10394000AD0283E08093AE028FEF8093FC12089566
:10395000EFEFF1E00EC0009751F04181DC013C91A6
:10396000431305C0428111963C914317B1F0E20F19
:10397000F11D2081211105C0892B41F0E0E0F0E02C
:103980000CC0B2E0ED3AFB0730F3F6CF32E0ED3A8F
:10399000F30719F010F0EDEAF2E0CF01089580EBA3
:1039A00092E0D6DF009799F02091AE02FC013081C1
:1039B000231768F4E20FF11D80818093B20289E73A
:1039C0008093B30281818093B40281E0089580E006
:1039D0000895EF92FF921F93CF93DF931F92CDB77D
:1039E000DEB7182F8091C50A86FF18C084E5998339
:1039F0000E94A105E12E9981F92E15E0F701819130
:103A00007F010E9465061150C9F78091C50A85FFA4
:103A100003C08AEF0E9465060E94F1050F90DF91B6
:103A2000CF911F91FF90EF90089586E30E948A0343
:103A30008091B202833511F48BE901C08BE40E94BE
:103A40001F0521E04CE065E080EB92E00E94170941
:103A50000E948E0380EB92E0BCCFE7DF8091B20240
:103A6000893631F081E08093AF0289E28093FC12C5
:103A7000089585E390E00E94D2068093E51286E3E4
:103A800090E00E94D2068093FB128FEF8093EB129E
:103A90008093ED128093EF128093F1128093F312D2
:103AA0008093F5128093F7128093F91246DF1092FB
:103AB000FF010895A7E0B0E0EFE5FDE1C4C46C01AB
:103AC0008C010F5F1F4F45E0BE016F5F7F4FC80144
:103AD0000E946906E981843008F0B8C0E130A9F499
:103AE000833061F46A8185E390E00E94CD066B81AA
:103AF00086E390E00E94CD06BCDF2EC18091E512E6
:103B00000E9465068091FB129CC0E23009F052C011
:103B1000813041F081E090E02A81213029F080E07D
:103B200090E002C081E090E0E82E8091FF018111D9
:103B300004C088EB94E00E94E4050FEF11E030C070
:103B400031E00F3F130719F080E20E94A105F80150
:103B500081810E946506F80182810E946506E1105C
:103B600005C0F8018081080F111D1AC08AE30E9468
:103B7000A10523E0F22E0FC0F3E0FF1528F4F0FEBC
:103B800003C08CE20E94A105F801EF0DF11DF39432
:103B900080810E946506F8018081F81668F3E1CF04
:103BA000F8018081882309F44EC0F2E00D3A1F0726
:103BB00038F249C0E33049F480E090E0C9DE8F5F1D
:103BC00091409EEA981B892F3CC0E03181F50BEEB5
:103BD00012E19CEEE92E92E1F92EC12CD12CF801D4
:103BE00080818F3FA1F0DD2019F080E20E94A105C5
:103BF0008C2D0E9465068AE30E94A105F801808150
:103C00000E946506F70180810E946506D3940E5FCD
:103C10001F4FC394F2E0EF0EF11C38E0C312DFCF68
:103C2000D11011C08EEA94E00E94E4050CC0E1318D
:103C300051F48091E9129091EA126DE770E0D3D3CC
:103C4000862F0E9465060E94F10586C08091E512CC
:103C5000E817C8F190E0F0E09C01295F3F4F2E1774
:103C60003F078CF13A812091FB1232132CC02C813A
:103C70002F3231F442E06CE0C6010E9487096CC02B
:103C80002C32B9F42D812093E81281E090E09093DA
:103C9000EA128093E9128091C30A9091C40AE4E089
:103CA0002E9F800D911D11249093C40A8093C30A06
:103CB00053C0E81BF90BEE0FF0E0E551FD4E2083F9
:103CC0008D81818349C080E090E042DE7C01F80173
:103CD00001900020E9F73197E01BF10BF695E7958D
:103CE000BE2EB394C7018B0D911D8F5F91408F3A0B
:103CF000910574F5F701B1928F0121E01AC041E0FE
:103D0000B801F601E80FF11DCF012F830E9469066B
:103D10002F81233058F020FD09C0D80111978C91D4
:103D2000843621F4F80180818093E6122F5F0F5FC3
:103D30001F4F822F880F81502B1508F3FDEAEF16D5
:103D4000F2E0FF0648F4F701E20FF11D108204C013
:103D500082EB94E00E94E4052796E9E090C3A6E098
:103D6000B0E0E4EBFEE172C38091FB128A831B8218
:103D70009091E812992341F0933019F487E791E08C
:103D80000CC08DE790E009C087702DE7829FC001CD
:103D90001124825B9F48959587959093EA128093B2
:103DA000E9120CEE12E1F12C3CE2E32EF80131971E
:103DB00090819F3FC1F08091E5128F0D89838091A2
:103DC000E812882311F0EC8203C09C83F801808103
:103DD0008D8321E04CE065E0CE0101960E94170939
:103DE000CE010196F6DDF3940E5F1F4FF8E0FF124F
:103DF000DDCF8091E812882341F0833019F41092CE
:103E0000E81203C082508093E8122696E6E03AC397
:103E10008091AF02882351F008DE89E28093FC1282
:103E20008091AF0281508093AF02089586CDFF92BA
:103E30000F931F93CF93DF93FC01F0800181C28128
:103E4000D38114818FE58093FC121092AF02809190
:103E5000E512811105C08091FB12882309F4ABC0E3
:103E60008091B0028F1104C08091B102801729F0B7
:103E700064DDF092B0020093B1028091E7128F3FAF
:103E800009F499C0C093B202D093B3021093B40264
:103E9000CC23F1F081111CC08091E512181761F05C
:103EA000143651F08C2F8355823010F0CD3739F411
:103EB0008FEF8093E7127FC0C43509F47CC08D2F4B
:103EC000807F803609F077C0D067D093B30267C097
:103ED00066DD811105C08091E712882309F46BC06B
:103EE0008091AD02811107C0E091E712F0E0E05649
:103EF000FB4FE49101C0E82FE33541F4C43531F4C0
:103F00009091E7129E5F9093E71204C0EC1711F0B6
:103F100014DD51C0882309F444C08091AE028E5F45
:103F20008093AE023CDD811106C08091E7128E5F66
:103F30008093E71236C08091B2028093AD0284363E
:103F400071F58091E6128093B40229C01093B202F9
:103F500097E79093B3029091E5129093B4028E5F2D
:103F60008093E7121092AD028E30B9F480EB92E0AC
:103F7000EFDCDC01009781F02C9130E08DEA92E0DB
:103F8000821B930B05C0ED01C20FD31F48814D93D7
:103F9000A817B907C0F31C92D0DC112361F05DDDD6
:103FA0000AC08091E712E82FF0E0EF55FB4F149123
:103FB0001F3F61F6C0CFCDB7DEB7E5E064C20F9317
:103FC0001F93CF93DF93EC01A82FBD2FFD0101902C
:103FD0000020E9F73197EA1BFB0B8981823751F406
:103FE00087E390E00E94B4030E948E0381E08093F7
:103FF000FD1226C0833711F50E2F2C988FE70E94F3
:10400000E402802F82500E94E402229612E004C053
:1040100089910E94E4021F5F1017D0F32C9A0E942E
:10402000A10304C084E690E00E941A058AE30E947E
:104030003B038F77B9F70E948E0302C01092FD12E6
:10404000DF91CF911F910F910895A0E0B8E0EAE2CF
:10405000F0E2FAC18091FD12882309F452C0813048
:1040600011F58091BF0A9091C00AA091C10AB09148
:10407000C20A2091B602281709F443C085E30E94C2
:104080003B03813129F48AE30E948A030E948E0354
:104090008091BF0A9091C00AA091C10AB091C20A52
:1040A0008093B6022EC08FE30E943B03D82E2C983B
:1040B0008FEF0E94E4028E010F5F1F4F7801C02E28
:1040C00006C080E00E94E402F70181937F018E2DFB
:1040D0008C198D15B0F32C9A81E08093450105C0B1
:1040E000F80181918F010E94A105802F8C198D15F7
:1040F000B8F30E94F1058FEF8093450181E0809332
:10410000FD12D85FE8E0BCC10F931F93CF93DF93FC
:10411000EC0110E0812F90E09C01220F331F280F4B
:10412000391FF901E457FF4F049123573F4FF9011D
:1041300025913491002399F0209739F480E20E9470
:10414000A105802F0E94A10508C08881801305C0A9
:10415000CE01F901099581E003C01F5FDBCF80E04C
:10416000DF91CF911F910F910895CF93C091450199
:104170008093450134C084E09BE10E9412088F3F88
:1041800071F19091B7028A3011F08D3001F59923C9
:1041900031F1E92FF0E0E854FD4F108288EB92E016
:1041A000B3DF811111C08CEB94E00E94E40588EB31
:1041B00092E00E94D90580EC94E00E94E40580E042
:1041C00090E0A2DF0E94F1051092B70208C0E92F2B
:1041D000F0E0E854FD4F80839F5F9093B702809199
:1041E000081B9091091B892B31F6C0934501CF9193
:1041F00008951F920F920FB60F9211240BB60F92D3
:104200002F933F934F935F936F937F938F939F93DE
:10421000AF93BF93EF93FF93809102139091031399
:10422000892B39F08EEF92E10E9412088093C6002C
:1042300005C08091C1008F7D8093C100FF91EF91F7
:10424000BF91AF919F918F917F916F915F914F91AE
:104250003F912F910F900BBE0F900FBE0F901F90AC
:1042600018951F920F920FB60F9211240BB60F9252
:104270002F933F934F935F936F937F938F939F936E
:10428000AF93BF93EF93FF9388B190E4892788B9E8
:104290006091C6008091C000887121F484E09BE1A8
:1042A0000E94F207FF91EF91BF91AF919F918F9183
:1042B0007F916F915F914F913F912F910F900BBE26
:1042C0000F900FBE0F901F90189597FF04C022E02B
:1042D0002093C0009F779093C5008093C40088E925
:1042E0008093C10086E08093C20008958091C10050
:1042F00085FD0BC08091021390910313892B29F047
:104300008091C10080628093C1000895E091BB0A52
:10431000F091BC0A81E00995E9CFE4E6F0E0808104
:104320008B7F80832F9A84B1806B84B9269880E537
:104330008CBD8DB581608DBD089520910A2330918B
:104340000B232115310521F42091290130912A01F7
:104350008091270190912801009741F48DB79EB775
:1043600040912B0150912C01841B950B2817390784
:1043700028F4AC01421B530B9A0102C020E030E04C
:10438000C901089582E40E94A10540E265E08091A0
:104390000A2390910B230E94F5050E94F10583E505
:1043A0000E94A10540E265E08091290190912A01D7
:1043B0000E94F5050E94F10585E40E94A10540E2F6
:1043C00065E080912701909128010E94F5050E94E7
:1043D000F10586E40E94A105B0DF40E265E00E949D
:1043E000F5050C94F105AA1BBB1B51E107C0AA1FE0
:1043F000BB1FA617B70710F0A61BB70B881F991F86
:104400005A95A9F780959095BC01CD01089597FB29
:10441000072E16F4009406D077FD08D0E4DF07FCE1
:1044200005D03EF4909581959F4F089570956195C4
:104430007F4F08952F923F924F925F926F927F929B
:104440008F929F92AF92BF92CF92DF92EF92FF92A4
:104450000F931F93CF93DF93CDB7DEB7CA1BDB0B50
:104460000FB6F894DEBF0FBECDBF09942A883988F5
:1044700048885F846E847D848C849B84AA84B984FC
:10448000C884DF80EE80FD800C811B81AA81B98108
:10449000CE0FD11D0FB6F894DEBF0FBECDBFED011C
:1044A00008954F925F926F927F928F929F92AF92F8
:1044B000BF92CF92DF92EF92FF920F931F93CF9311
:1044C000DF932B018A016115710519F0FB018083CF
:1044D00091830115110539F09801225031092332D9
:1044E000310508F0E3C07C01F701C1917F013F0174
:1044F0008C2F90E000D1892BB9F7CD3229F4F70148
:10450000C1913F01D1E006C0CB3219F4F701C1914E
:104510003F01D0E00115110509F4D6C000311105A5
:1045200081F4CEC0F3018081883719F0883509F015
:10453000C1C0F301C181F2E06F0E711CD26000E1D5
:1045400010E008301105D9F024F402301105F9F417
:1045500007C00A30110551F000311105C1F424C023
:10456000C12CD12CE12C30E4F32E23C00AE010E062
:104570002CECC22EDC2CEC2C2CE0F22E1AC008E025
:1045800010E0C12CD12CE12C90E1F92E12C0980141
:10459000442737FD4095542F60E070E080E090E8BC
:1045A000F0D069017A0105C0C12CD12CE12C88E042
:1045B000F82E40E060E070E0CB014801AA2497FCAF
:1045C000A094BA2CEC2FE053EA3060F02C2F215449
:1045D0002A3110F4E75006C02C2F21562A3120F53D
:1045E000EC2FE7552E2F30E020173107ECF447FD74
:1045F00017C0C616D706E806F90678F09B01AC018D
:10460000C501B401AFD06E0F711D811D911D6130C8
:104610007105810520E8920710F04FEF01C041E0DD
:10462000F301C1913F01CECF4114510491F04423D5
:1046300039F0F1E06F1A7108F2017182608209C0ED
:10464000D1FF1BC0F2E06F1A7108F2017182608223
:1046500014C047FF12C0D0FF05C060E070E080E0EA
:1046600090E804C06FEF7FEF8FEF9FE722E230E02A
:1046700030930F2320930E2316C0D0FF08C09095CF
:104680008095709561957F4F8F4F9F4F0CC097FF1E
:104690000AC082E290E090930F2380930E236FEF85
:1046A0007FEF8FEF9FE76B017C0112C0C12CD12CF3
:1046B00076010EC0C0E30115110509F460CF41CFAA
:1046C000C03309F03ECF2ECFC03309F04FCF2ACFF1
:1046D000B601C701DF91CF911F910F91FF90EF902D
:1046E000DF90CF90BF90AF909F908F907F906F9012
:1046F0005F904F900895911132C0803219F0895027
:104700008550D0F70895FB01DC0101900D92002047
:10471000E1F70895FB01DC014150504048F0019061
:104720000D920020C9F701C01D9241505040E0F7A2
:104730000895F999FECF92BD81BDF89A992780B569
:104740000895262FF999FECF1FBA92BD81BD20BDD5
:104750000FB6F894FA9AF99A0FBE01960895992720
:1047600088270895DB018F939F932DD0BF91AF9140
:10477000A29F800D911DA39F900DB29F900D1124BB
:104780000895A1E21A2EAA1BBB1BFD010DC0AA1F92
:10479000BB1FEE1FFF1FA217B307E407F50720F0AA
:1047A000A21BB30BE40BF50B661F771F881F991F25
:1047B0001A9469F760957095809590959B01AC016E
:1047C000BD01CF01089509D0A59F900DB49F900D14
:1047D000A49F800D911D11240895A29FB001B39F45
:1047E000C001A39F01D0B29F700D811D1124911DA6
:0647F0000895F894FFCFCC
:1047F6000210B0710600A4014E6F6B0000000000AD
:1048060000000000000000000000000000000000A2
:104816000000000000000000001023200007C8F977
:104826006E30CC0F01000000000000003231006F36
:024836006B0015
:00000001FF
