:1000000011C200002BC2000029C200000C948C1207
:1000100025C2000023C2000021C200001FC2000050
:100020001DC200001BC2000019C200000C94D62B98
:1000300015C2000013C2000011C200000C9425126A
:100040000DC200000BC2000009C200002EC5000056
:1000500005C2000003C2000001C20000FFC1000091
:10006000FDC10000FBC10000F9C10000F7C10000A4
:10007000F5C100000E294029242A4029242A882974
:10008000B029242ACC29F42942CF0843E00346E3CF
:100090000A695C1E4140185AB71A47E60A4D1E0B02
:1000A0004B8C0B55110C59732052400854A8235601
:1000B000390957800858880D65F9086672276DC19F
:1000C000284C3E066CBE0874B50575171578A70355
:1000D0007AA91D0000002A03430055004C0034009B
:1000E0003300330000002A03430055004C00380061
:1000F00036003800000016036200750073007700B8
:100100006100720065002E006400650000000403B9
:1001100009040902430002010080320904000001C1
:10012000020201000524000110052401030104243A
:1001300002060524060001070582030800FF0904E2
:100140000100020A00000007050402400000070544
:1001500083024000001201100102000008EB034B73
:1001600020000001020001202F2000203D20000778
:100170002E050DD391FF080500000C0021656A2DA6
:100180003B1322F862073F181D1CC700B0876BF8AD
:10019000B611EA2A001F41000D2E2D07D3913D0410
:1001A000320000060021656A55E43023B9000700DB
:1001B00018146C070090876BF85611E92A001F414C
:1001C0000000030F1E2627000000030F1E253638EF
:1001D0006700030F256740605000030F2751888395
:1001E0008100030F2750C8C3C20027000000000091
:1001F0000000670000000000000050000000000048
:1002000000008100000000000000C20000000000AB
:1002100000504C4C310D0A00504C4C300D0A005629
:1002200020312E36362043554C3836380056203192
:100230002E36362043554C3433330043554C5F56ED
:100240003400202F2000203D20004C4F56460D0A40
:1002500000424F56460D0A004552523A4343410D63
:100260000A000B08105B11F81547191D1A1C1BC753
:100270001C001DB221B623EA0007022E030D04E97B
:1002800005CA070C0B060D210E650F6A10C81193E5
:10029000120315341733181819161B43215625005D
:1002A000261129592C812D353EC34C454E455252BD
:1002B0000D0A004C4F56460D0A004C454E45525211
:1002C0000D0A000007024604C605260B0610C811D9
:1002D00093120313221534173F182819161B4321B4
:1002E00056250026110D210E650F6A070C160720F2
:1002F000F81E871F6B29592C812D353EC3FF000046
:1003000001022E030104AA050F06FF070008000BD7
:10031000060D210E740FAD104B11F8121613721545
:1003200041181819161B0323E9242A2500261F3E0D
:10033000500001022E030104AA050F06FF07000862
:10034000000B060D210E660F6610CA1193120613DC
:10035000521535181819161B0323E9242A250026DF
:100360001F3E500001022E0301045505F006FF0751
:100370000008000B060D210E660F9910591183120B
:100380001E13521535181819161B0323E9242A25A4
:1003900000261F3E500D2E2D07D3913D0432000044
:1003A000060010B07155E43023B900070018146C32
:1003B000070090876BF85611E92A001F41000D2EA7
:1003C0002D07D3913D04320000060010ABA5550A5D
:1003D0003023B900070018146C070090876BF8569B
:1003E00011E92A001F41004E2F4100454F420D0ADE
:1003F000004E2F41004E2F410000535300547D7D8D
:10040000FFFF4B4B7E7E0020697320756E6B6E6F15
:10041000776E2920557365206F6E65206F66003FEB
:100420002028000011241FBECFEFD4E0DEBFCDBFD7
:1004300011E0A0E0B1E0ECE8FCE502C005900D920F
:10044000A032B107D9F724E0A0E2B1E001C01D92CB
:10045000AB36B207E1F70CD00C94442ED1CDF89412
:1004600081E085BF82E085BFE0E0F8E3099508956B
:100470002FE088E190E00FB6F894A8958093600093
:100480000FBE2093600090E080E80FB6F894809350
:100490006100909361000FBE2E9A2D9A04B603FE60
:1004A0000AC083E390E0D3D5882329F060E083E39A
:1004B00090E0C8D5D4DF89EF87BD84E085BD82E0B8
:1004C00084BD80936E00109280008AE0809381004A
:1004D00084B7877F84BF3D9A0E948F28B7D60E9439
:1004E000BA2B0E9448230E94670D8EE498E29093F5
:1004F000E5028093E4020E943B1489E0809324018A
:1005000045980E946C2C14D20E948E0F44D30E94F6
:10051000B7270E94B9150E94B7160E943F1A0E9481
:10052000791CEFCF292F33272230310559F02330A2
:10053000310569F02130310539F582E190E025E59A
:1005400031E026C083E490E022E131E021C0992728
:100550008130910539F018F0029751F015C0EEE0A6
:10056000F1E002C0E6EFF0E0849190E09F0110C05E
:100570001E9903C026ED30E002C026EE30E0E6EE24
:10058000F0E0849190E004C080E090E020E030E072
:10059000FA013183208308958EBD0DB407FEFDCF8F
:1005A0008EB50895A1E0B0E0E8EDF2E00C94D12C16
:1005B000482F8A3008F048E0E42EF12C83E0EE0C5E
:1005C000FF1C8A95E1F7C7018F539E4F7C018BE298
:1005D00090E0F70164918C010F5F1F4F498332D582
:1005E000FFEFEF1AFF0A49810333110511F0C8012B
:1005F000F0CF4550453010F461E101C067E184E27D
:1006000090E020D52196E6E00C94ED2CCF93DF937B
:1006100082E090E0FC01EA56FE4F6491EC012196E5
:1006200011D5CB32D10511F0CE01F4CF87E390E0A4
:10063000FC01E85CFE4F6491EC01219603D5C036C5
:10064000D10511F0CE01F4CF1E9918C060E18FE002
:1006500090E0F8D460EB80E190E0F4D461E781E1D0
:1006600090E0F0D460E184E490E0ECD460EB85E4C9
:1006700090E0E8D461E786E490E0E4D488E092DF9B
:10068000DF91CF9108952898806C86DF80E084DF29
:10069000289A0895A1E0B0E0E0E5F3E00C94D52CB1
:1006A00028988064698378DF6981862F75DF289AAE
:1006B0002196E2E00C94F12C28986EDF289A089598
:1006C000EF92FF920F931F93CF93DF93EC01109261
:1006D000D001EA98209A289A8EE190E02ED32898AB
:1006E0008EE190E02AD3289A8DE290E026D380E331
:1006F000E3DF84E690E021D3289880E44DDF7E019B
:1007000089E2E80EF11C8E010F5F1F4FCE019FD4CE
:1007100043DF0E151F0511F0E801F5CF289A289840
:100720008EE73ADF8BE290E0EC01219690D434DF43
:10073000C333D10511F0CE01F7CF289A83E3BCDF94
:1007400081E000D3CDB7DEB7E6E00C94ED2CA1E05C
:10075000B0E0EDEAF3E00C94D52C22E0298341E0EF
:10076000BE016F5F7F4F019617D489811BDF82E046
:1007700090E0A6DF2196E2E00C94F12CCF93EA986A
:1007800086E39ADFCFEF85E397DFC1508077803231
:1007900029F08AE090E0D1D2C111F5CFCF91089530
:1007A000CF93CFEF84E388DFC1508077803129F089
:1007B0008AE090E0C2D2C111F5CFEA9ACF910895B4
:1007C000A2E0B0E0E6EEF3E00C94D32C8C01FC0147
:1007D00081818737E9F441E0BE016F5F7F4FC80137
:1007E0000296DAD3892BA1F041E0BE016E5F7F4F04
:1007F000C8010496D1D3892B59F06A8189814ADFD7
:1008000083E35ADFCDDF8981C3D38A81C1D32CC072
:1008100041E0BE016E5F7F4FC8010196BDD3892BB9
:1008200021F18A81893969F410E0812F2CDFB0D35E
:10083000812F8770873009F437D31F5F1033A9F7F2
:1008400014C021DF182F83E4E2D28A81A1D38BE682
:1008500091E01DD3812F9CD387E691E018D340E22D
:1008600062E0812F90E024D31FD32296E4E00C9421
:10087000EF2C86E321DF1092E6021092CE01109257
:10088000D001089582E090E01BDF81E08093E602D2
:100890001092CE011092D00108950F931F93CF9321
:1008A000DF93082F10E0C62FD0E085E3ECDE801741
:1008B00031F0CE0142D21150C1F781E001C080E099
:1008C000DF91CF911F910F91089585E2DCDE8F3388
:1008D00011F080E0089586E3EFDE80912001811120
:1008E00004C088E192E0D3D202C08DE3E5DE83E369
:1008F000E3DE64E081E0D1DF85E2C5DE8F3349F7D6
:1009000080912001811103C081E192E0C0D281E099
:10091000089585E3B8DE8D3051F485E2B4DE8F337F
:1009200031F4D3DF84E3C8DE80778031D9F70895CE
:1009300080915E04843009F061C08093E900809169
:100940002101811128C08091E80085FF24C0809199
:10095000F200882331F06091F10087E194E09ED4A9
:10096000F6CF8091E800982F9B7F9093E8008F77D7
:100970008093E80081E08093210188E994E09093DE
:10098000E3028093E202E091E402F091E50281E06B
:1009900009951092210183E08093E9008091D603AC
:1009A000882361F18091E80085FF28C0F894809148
:1009B000D603882351F08091F200803430F484ED26
:1009C00093E082D48093F100F2CF78949091F2007A
:1009D0008091E800282F2E7F2093E8008F77809366
:1009E000E800903459F40E947A2A8091E800982F08
:1009F0009E7F9093E8008F778093E800089542E00F
:100A000061EC82E00E942A2A42E361E883E00E94CE
:100A10002A2A42E360E884E00E942A2A1092000118
:100A20001092010110920201109203010895809129
:100A30005F0490916004913229F0923261F190321A
:100A400099F512C0813A81F58091E800877F809303
:100A5000E80067E070E080E091E00E94A32A8091C6
:100A6000E800982F9B7F11C08132F1F48091E8005B
:100A7000877F8093E80067E070E080E091E00E946B
:100A8000402B8091E800982F9E7F9093E8008F770D
:100A90008093E8000895813239F48091E800877FDF
:100AA0008093E8000C94542A08951F920F920FB679
:100AB0000F9211248F939F93AF93BF93EF93FF9364
:100AC0008091E8029091E902A091EA02B091EB02D4
:100AD0000196A11DB11D8093E8029093E902A093B5
:100AE000EA02B093EB028091E7028F5F8093E70206
:100AF000E5E9F3E080819181181619061CF401974D
:100B000091838083369683E0ED3AF80799F78091D8
:100B1000AF039091B003009729F001979093B00331
:100B20008093AF038091C2038F3F19F0815080936F
:100B3000C203FF91EF91BF91AF919F918F910F9061
:100B40000FBE0F901F9018952FB7F8944091E802B0
:100B50005091E9026091EA027091EB02FC0140833E
:100B60005183628373832FBF0895A4E0B0E0EBEB61
:100B7000F5E00C94D52CCE010196E6DF8C8108D2ED
:100B80008B8106D28A8104D2898102D28DD12496AA
:100B9000E2E00C94F12C1F93CF93DF938091E80255
:100BA0009091E902A091EA02B091EB022091230119
:100BB000281709F45FC08091E8029091E902A091A2
:100BC000EA02B091EB0280932301A895C5E9D3E036
:100BD00010E028813981232B19F4812F0E94E2250E
:100BE0001F5F26961430A9F78091AF039091B00350
:100BF000892B11F40E9444268091C203811102C006
:100C00000E949D2680913B03882339F08150809378
:100C10003B03811102C00E944E168091E7028D377E
:100C200048F11092E7028091070181FF04C088B16A
:100C300090E2892788B98091EC029091ED02843886
:100C400023E0920728F401969093ED028093EC0242
:100C5000809122018F5F809322018C3359F410928E
:100C60002201809194038F5F809394038C3310F062
:100C700010929403DF91CF911F910895A0E0B0E00E
:100C8000E4E4F6E00C94D02C8C016EE070E00E945D
:100C9000232E8D3009F04CC0459A8091D0018823D5
:100CA00041F01092D0018CE191E032D7DD24D39451
:100CB00001C0D12C8091E602811101C0E3DD5EDD2F
:100CC00084E0F82E5B9A88EE93E037D0C1E0D0E064
:100CD000EE24E394F801EC0FFD1F8081813309F0CD
:100CE000E12C5B98EE2019F088EE93E002C080EDD5
:100CF00097E023D05B9AEE2019F080ED97E002C0D8
:100D000088EE93E01AD02196CD30D10509F75B9893
:100D100083E218D0FA94B1F68091EF02882311F0A3
:100D20003FDD02C086E3C8DCD1100E945818459808
:100D3000CDB7DEB7E7E00C94EC2C880F991F019734
:100D4000F1F7089520ED37E0815020F0F901319757
:100D5000F1F7FACF0895CF93DF93DC0113968C91CE
:100D60001397843509F050C0CD010396CC91FD0155
:100D700070964DE04C1750F050E0D0E09E012F509F
:100D800031094217530709F03FC005C021912B33A9
:100D900099F34F5FEFCFFE013E97E80FF91F2081D7
:100DA000243591F514963C911497218132132CC06F
:100DB00015963C9115972281321326C016963C91C8
:100DC00016972381321320C017963C9117972481E0
:100DD00032131AC06197C80FD91F85818883868115
:100DE000898381858A8382858B8383858C838485AF
:100DF0008D8385858E838C918A508C9312968C91ED
:100E000012978A5012968C93DF91CF910895CF93C9
:100E1000C82F80915E04843081F48091240180FF8A
:100E20000CC08091D603803408F082DD6C2F84EDF5
:100E300093E034D2CA3009F47BDD809146038823E5
:100E4000C9F08091240183FF15C0CA3099F0CD30DC
:100E500011F46BE301C06C2F86EF92E01FD2CD300E
:100E600019F486EF92E077DF83E080933B0382E022
:100E700080934103CF910895CF93DF93EC01899143
:100E8000882311F0C4DFFBCFDF91CF910895CF937A
:100E9000DF93EC01FE018491882319F0B8DF2196DD
:100EA000F9CFDF91CF9108958DE0B1DF8AE0AFCF28
:100EB000A6E0B0E0EEE5F7E00C94D32C062F1E82FE
:100EC00015E02AE030E01150E1E0F0E0EC0FFD1F0A
:100ED000E10FF11DB9010E94982C805D8083CB0148
:100EE0000150009769F01111EECF0AC0112359F09B
:100EF0001150E1E0F0E0EC0FFD1FE10FF11D408328
:100F0000015007FFF3CF81E090E08C0F9D1F810F10
:100F1000911DB2DF2696E4E00C94EF2CA5E0B0E042
:100F2000E4E9F7E00C94D52C1D8224E0382F3F70C3
:100F30002150E22FF0E03A3010F4305D01C0395C0E
:100F4000A1E0B0E0AC0FBD1FEA0FFB1F308334E01F
:100F5000969587953A95E1F76150009739F761507A
:100F600067FD0BC0222349F02150E1E0F0E0EC0FD7
:100F7000FD1FE20FF11D4083F2CF81E090E08C0F66
:100F80009D1F820F911D78DF2596E2E00C94F12CD5
:100F900040E362E090E0C2CFDC01FB0130E090E092
:100FA0008D918823A9F0813608F0805220ED280F1A
:100FB0002A3030F02FEB280F263030F429EC280FA0
:100FC000292B332379F006C0803251F38A3341F361
:100FD000CF0105C0CF0101962083415041F4861B0B
:100FE000970B0895922F9295907F31E0D9CFFC0115
:100FF000D5CFDB01FC0180E090E02191222361F05C
:1010000030ED320F3A30C8F76AE070E00E94872C6A
:10101000C097820F911DF1CF8D939C930895982FC7
:1010200092959F709A3010F4905D01C0995CFB011D
:1010300090838F708A3010F4805D01C0895CFB0161
:10104000818308950E94362EF999FECF08950C945D
:101050002E2E08951F93CF93DF93162F11501F3F0D
:1010600059F0EC012196F3DF93DF112311F08AE3AD
:10107000CEDE1150CE01F3CFDF91CF911F910895B5
:10108000A2E0B0E0E6E4F8E00C94D22CFC0121816F
:101090002D3421F466E08AEF93E005C0203529F471
:1010A00060E18AED93E0D6DF26C01A82198242E021
:1010B000BE016F5F7F4F01966FDF098110E08230C4
:1010C00021F4102F00278A81082BC801C0DFF82ED9
:1010D00082E59DDE40E364E0C80120DF86E492E023
:1010E000D6DE8F2D55DF82E492E0D1DE40E262E071
:1010F0008F2D90E0DDDED8DE2296E5E00C94EE2C1C
:10110000A6E0B0E0E6E8F8E00C94CF2C6C0143E0F8
:10111000BE016F5F7F4F01963FDF823058F1E9805B
:10112000F12C823021F0FE2CEE242A81E22A8C015F
:101130001127FE01E00FF11F6081C70183DF000F5F
:10114000111F0F5F1F4F0C0D1D1DF801808188239B
:1011500089F041E0BE016F5F7F4FC8011DDF892B21
:1011600049F08FEFE81AF80A6981C7016BDF0E5F5B
:101170001F4FEBCF2696E8E00C94EB2C41E067E0A4
:1011800071E0019609DF8091070180FF02C0459A56
:1011900001C045986091070184E390E053CFA1E03E
:1011A000B0E0E5EDF8E00C94D52C1982009731F011
:1011B00041E0BE016F5F7F4F0196EEDE89818F3F78
:1011C00009F4FFCF882321F061E083E390E03ADF68
:1011D0000E94C02B10926E00F89428E088E190E005
:1011E0000FB6F894A895809360000FBE209360001E
:1011F000FFCFCF93DF93EC0161E080E090E022DF4E
:1012000062E481E090E01EDF01DA60E080E690E0D9
:1012100019DF60E081E690E015DF60E083E390E0B5
:1012200011DF62E084E390E00DDF60E080E690E0B3
:1012300009DF60E081E690E005DF8981883719F0F9
:1012400080E090E0ACDFDF91CF91089580E090E006
:10125000FEDE813029F481E090E0F9DE823419F07D
:1012600080E090E0C6DF84E390E0F1DE8093070148
:101270000895FC018181883419F48BE392E007C062
:101280001E9903C08DE292E002C08FE192E0FFDD83
:101290000BCEFC011282108211820895FC018FB7DF
:1012A000F8949281903470F49F5F9283208191E052
:1012B000920F9083DF01A20FB11D13966C939034AF
:1012C00009F410828FBF0895FC019FB7F8948281C2
:1012D000882371F081508283818121E0280F21834E
:1012E000DF01A80FB11D13968C91203409F41182EF
:1012F0009FBF0895FA013081882369F0E1E0F0E0B2
:10130000022E01C0EE0F0A94EAF7DB01A30FB11D14
:101310009C919E2B9C93222319F08FEF820F0BC080
:1013200081E0830F8C3010F4FA018083FB01E80F19
:10133000F11D108287E090E00895CF93C82F5B9A4B
:10134000882319F08091270102C08091290190E043
:1013500034E0880F991F3A95E1F7EFDC5B98CC23D6
:1013600019F08091260102C08091280190E024E0CC
:10137000880F991F2A95E1F7E0DCCF910895A1E04D
:10138000B0E0E5ECF9E00C94C52C6C01162F822E30
:101390003E2CE42EF12C4091EC025091ED02B7016D
:1013A0006E5F7F4F802F0E947E2C992787FD90953E
:1013B0004817590720F48AE492E069DD7AC0481B97
:1013C000590B5093ED024093EC02459A8091D00165
:1013D000882341F01092D0018CE191E099D322242E
:1013E000239401C0212C8091E602811101C04ADAC8
:1013F000C5D9A12EB12C912C712C872D992787FD51
:1014000090958A159B0524F480E097DF7394F5CFBF
:10141000112311F081E091DF20E0622E772467FC38
:1014200070946E147F042CF057E0552E6C0C7D1CCC
:101430001BC047E0442E512C6C0C7D1C81E090E0D9
:10144000042C01C0880F0A94EAF7F30190818923E4
:10145000298373DFF1E04F1A510829818FEF481675
:10146000580661F72F5FD9CF852D992787FD909575
:10147000881699066CF481E090E0052C01C0880F75
:101480000A94EAF7F3019081892357DF5A94ECCF4D
:10149000832D58DC015009F0AFCF8091EF028823F3
:1014A00011F07ED902C086E307D921100E94581896
:1014B00045982196E2E10C94E12CADE0B0E0E3E642
:1014C000FAE00C94C82C7C01162F842F022F6701A0
:1014D000C60ED11C462FB70130D3D6018C931F5FA7
:1014E0001D8619825E2C670127E066246394712CA7
:1014F0008C2D8519811788F577E0A72EB12C47012F
:10150000880E911CF3010A2C01C0EE0F0A94EAF731
:10151000D4018C91AE01435F5F4FBE016F5F7F4F7F
:101520008E23E8DE282FB1E0AB1AB10858F7D601B8
:101530008D916D01082E82958025082E86958695C1
:1015400080258F5F86958170AE01435F5F4FBE013E
:101550006F5F7F4FCFDE282FCBCF222311F021509A
:1015600004C08D858F5F8D8727E089E180932801F6
:101570008093290185E280932601809327016AE008
:10158000E62E4D856CE0CE010196F9DE2D96EFE05A
:101590000C94E42CADE0B0E0E0EDFAE00C94D42C37
:1015A000162F242F4BE0BE016F5F7F4F01962D87D2
:1015B000F3DC2D85412F682FCE0101967EDF2D961D
:1015C000E3E00C94F02C43E066E0E4CFEF920F935D
:1015D000CF93DF93CDB7DEB760970FB6F894DEBF39
:1015E0000FBECDBF40E1BE016F5F7F4F0196D4DCDF
:1015F00069814A810B818C81809329018D8180933F
:1016000028018E81809327018F8180932601E02E0F
:10161000E294FFE0EF220F70242F2F7042954F705D
:10162000CE010896ACDE60960FB6F894DEBF0FBE12
:10163000CDBFDF91CF910F91EF900895A9E1B0E078
:10164000E4E2FBE00C94CD2C4BE0BE016F5F7F4FDA
:101650000196A2DC182F893009F05AC099E19093C5
:101660002801909329019093270182E3809326011A
:1016700069E0CE0101966BD2E1E0F0E0EC0FFD1FD6
:10168000E10FF11D8083198E1D86CE0101967C012C
:101690006E019BE0C90ED11C27E0AA24A394B12CB3
:1016A000EC14FD0429F100E010E0F501002E01C06A
:1016B000EE0F0A94EAF7D7018C91AE01475E5F4FB7
:1016C000BE01635F7F4F8E2315DE282F0F5F1F4FF4
:1016D0000830110551F7AE01475E5F4FBE01635FF1
:1016E0007F4F81E007DE282FBFEFEB1AFB0AD8CF30
:1016F000222311F0215004C0898D8F5F898F27E04C
:10170000AAE0EA2E03E0498D6CE0CE010D9637DEAB
:101710006996EAE00C94E92CA9E1B0E0E2E9FBE08B
:101720000C94CC2C4BE09E012F5F3F4F7901B90107
:10173000019632DC182F85E38093290196E190937E
:1017400028019093270180932601612FC7010BD2B6
:10175000F701E10FF11D808399249394910E198E66
:101760001D86870127E0AA24A394B12C802F8E190F
:10177000891508F04AC0C12CD12CF5010C2C01C0F0
:10178000EE0F0A94EAF7D8018C91AE01475E5F4FE5
:10179000BE01635F7F4F8E23ADDD282FBFEFCB1AD5
:1017A000DB0A34E0C316D10441F7AE01475E5F4F58
:1017B000BE01635F7F4F81E09DDD282F84E0C82E4E
:1017C000D12CF5010C2C01C0EE0F0A94EAF7D801D8
:1017D0008C91AE01475E5F4FBE01635F7F4F8E23EA
:1017E00089DD282FBFEFCB1ADB0A38E0C316D104FE
:1017F00041F7AE01475E5F4FBE01635F7F4F81E0FF
:1018000079DD282F0F5F1F4FB1CF0AE0E02E03E0F4
:10181000498D6AE0CE010D96B2DD6996EBE00C943D
:10182000E82CEF920F93CF93DF9300D000D0CDB789
:10183000DEB743E0BE016F5F7F4F0196ADDB8AE606
:101840008093290194E29093280191E290932701DB
:101850008093260180E88C832FE0E22E03E026E0CF
:1018600043E060E0CE0101968ADD0F900F900F906B
:101870000F90DF91CF910F91EF9008958F929F92EB
:10188000AF92BF92DF92EF92FF920F931F93CF938D
:10189000DF931092450110925A01FC012181220F21
:1018A000220F220F3381231B57E0520F1092460163
:1018B00010E070E038E0D32ED20EFF24F39447E01E
:1018C00007E0E12CC7E0D0E0A1E0B0E0FD1409F4AE
:1018D0007FC0FC01EE0DF11D248130E0002E02C01E
:1018E000359527950A94E2F721703327E22F0023DC
:1018F00011F0015002C0E39407E06B3471F44330FF
:1019000009F04AC0111107C0E1115FC010924501F2
:1019100070935A0174C010E041C04F3F31F56634F6
:10192000A9F4E72FF0E0EA5BFE4FE0810E2EE2958E
:10193000E0250E2EE695E695E025EF5FE1FB882495
:1019400080F8912C8216930641F004C0653429F486
:10195000E11103C010934501DBCF7F5FE72FF0E07B
:10196000EA5BFE4F108247E031C0EE2361F166343E
:1019700071F4E72FF0E0EA5BFE4FA0809D01042E9A
:1019800001C0220F0A94EAF7A22AA0821CC0653483
:1019900039F06B34C1F404C04F3FD1F2EE2399F01B
:1019A000E72FF0E0EA5BFE4F9E01241B310947FD63
:1019B00033955D0102C0AA0CBB1C2A95E2F7950184
:1019C0003081322B3083415001C011E0F3947ECF3F
:1019D0001093450170935A015F1588F4653431F412
:1019E0004F3F21F47F5F70935A0104C080914501FD
:1019F0008111F8CF81E090915A01911101C080E0EE
:101A0000DF91CF911F910F91FF90EF90DF90BF90EA
:101A1000AF909F908F90089510926F0080915D011C
:101A200090E06CE170E00E94872C825A9E4FFC018E
:101A300010828091EE028D7F8093EE020895FC016A
:101A40002181243108F0E8CF3381662381F081E0E1
:101A500090E0032E01C0880F0A94EAF7DF01A20F7D
:101A6000B11D14969C911497982B14969C93332334
:101A700019F031503383089587E083832F5F2183EA
:101A8000E20FF11D14820895DC011196EC9111977B
:101A9000F0E050E02C91CF01841B950B0B964797FB
:101AA000A0F430E070E0C901861B970B0B964797B6
:101AB00060F42E0F3F1F640F751F261B370B255F29
:101AC0003F4F81E02731310508F080E00895539AB7
:101AD0005B985298E9E6F0E080818061808382EC37
:101AE00091E09093ED028093EC0210927A011092B3
:101AF00096011092B2011092E60208958091EF02D1
:101B0000882321F00E9442040C94D0030C943904E1
:101B1000FC01218121110BC08091EF0239DA40E2F2
:101B200065E08091EC029091ED02C2D9BDC941E01F
:101B30006FEE72E0019630DAE1CF442339F0415084
:101B4000FB01E40FF11D9081890FF7CF089520E08C
:101B5000662339F06150FC01E60FF11D3081232727
:101B6000F7CF822F0895A091450140E035E020E0B5
:101B7000662399F06150FC01E60FF11D5081752F2D
:101B800072957F702727370FAA2311F0442319F08D
:101B90005F702527350F4F5FEBCF822F830F829524
:101BA000807F822B0895FC0132812381A081B18145
:101BB000A30FB11D8C9190E0022E02C095958795E0
:101BC0000A94E2F7817099274FEF420F4383211166
:101BD00004C03F5F328327E023830895A2E0B0E092
:101BE000E4EFFDE00C94CD2C7C01A12CB12CD12C88
:101BF000CC24C394062F10E001501109A616F0F46E
:101C0000C7014A836983CFDF4A816981882391F0C4
:101C1000442349F098012A193B098C2D01C0880FF3
:101C20002A95EAF706C08C2D0A2C01C0880F0A9469
:101C3000EAF7D82A8FEFA81AB80AE0CF8D2D22969E
:101C4000EAE00C94E92CA4E0B0E0E9E2FEE00C94B8
:101C5000CC2C1B8227E02C839C012C5F3F4F3A83C6
:101C6000298310925A01FC01218130E043E0220FC8
:101C7000331F4A95E1F7438187E090E0841B910987
:101C8000280F391F253431050CF44EC0B12CA0901B
:101C90005A01F5E0FA1558F10A2D10E040E068E02D
:101CA000CE0101969BDF0A5B1E4FF8018083982EC0
:101CB000092C92949024092C969496949024CE0109
:101CC000019671DF939491FACC24C0F8D12C90E066
:101CD000C816D90649F5CE01019665DF811124C0E9
:101CE000F8018081B826A394A0925A01D0CF40E099
:101CF00068E0CE01019672DF082F182F012E129591
:101D00001025012E169516951025CE0101964BDF54
:101D10001F5F11FBEE24E0F8F12C282F30E0E216D3
:101D2000F30611F481E0B01280E02496EBE00C940D
:101D3000E82CA5E0B0E0EFE9FEE00C94D02CFC012B
:101D40001B8287E08C83CF0104969A8389838081EC
:101D5000853009F054C0218130E063E0220F331F49
:101D60006A95E1F7438187E090E0841B9109280F91
:101D7000391F2039310509F042C010925A010FE095
:101D800010EF29E880915A01E82EF12CDD24D3943C
:101D9000D80E41E068E08F3088F4CE0101962D83A3
:101DA0001DDF080F111DF701EA5BFE4F2D8128276B
:101DB000208324E2280FD0925A01E4CFCE0101966D
:101DC0000DDF080F111DD0925A01F701EA5BFE4F9B
:101DD0008095808341E068E0CE010196FFDE90E0CF
:101DE000982F8827081B190B41E068E0CE01019667
:101DF000F5DE282F30E081E00217130709F080E0BC
:101E00002596E7E00C94EC2CA4E0B0E0EAE0FFE0DB
:101E10000C94D22C1B8227E02C839C012C5F3F4F1B
:101E20003A832983FC0121812430A1F5838181300B
:101E300089F510925A0180915A01082F10E0FF2471
:101E4000F394F80E41E0843098F4811106C067E005
:101E5000CE010196C3DE806804C068E0CE01019621
:101E6000BDDEF801EA5BFE4F8083F0925A01E3CFBA
:101E700067E0CE010196B2DEF801EA5BFE4F880F03
:101E80008083F0925A019091460192959F7081E073
:101E90009A3009F080E02496E5E00C94EE2CCF9384
:101EA000DF93FC0181818330E9F483818730D1F4B1
:101EB00080818830B9F410925A0120E0822F90E09E
:101EC000DC01AA5BBE4FEF01C80FD91F8C818C9338
:101ED00081E0820F833010F4282FF0CF80935A01D5
:101EE00081E001C080E0DF91CF910895FC019081F5
:101EF0008091EE02993611F0933751F4982F937038
:101F0000913011F4826006C080FF07C08B7F03C050
:101F100080FD03C084608093EE020895A1E0B0E0EC
:101F2000E4E9FFE00C94D12C198280912A018823E6
:101F3000B9F18091EF0287FF17C084E30E94430349
:101F40008058803458F0803C58F490E080559109D6
:101F5000B3E095958795BA95E1F703C080E001C09D
:101F60008FE08F590E9407078091EF0283FF16C010
:101F700082E70E9407078091EF0284FF04C08091EE
:101F80002B010E94070786E60E9407078091EF0257
:101F900084FF04C080912A010E94070710922A0141
:101FA00080915B01882309F44CC2459A80915C01C1
:101FB00090E06CE170E00E94872C8C01025A1E4F69
:101FC0008981811106C0C8016ADF882311F083E787
:101FD00089838981811106C0C801ABDE882311F095
:101FE00083E589838981811139C066E4C80146DCB3
:101FF0008823A1F1F0905A01FA94F0925A014F2DE2
:1020000066E471E086E099DDEF2DF0E0EA5BFE4FDB
:10201000E0808E1105C093E09F1510F486E41BC08C
:10202000282F30E02F5F3F4F6E2D70E026173707C7
:1020300039F493E09F1520F496E4998380830EC0D1
:102040004F2D66E471E08CE078DD8E1106C0E3E090
:10205000EF1518F484E5898301C019828981811103
:1020600016C065E4C8010ADC882389F080915A0112
:10207000815080935A01893051F469E086E491E0FF
:1020800066DD90914F01891302C085E489838981BF
:10209000811106C0C801D7DD882311F088E4898347
:1020A0008981811106C0C801AFDE882311F084E761
:1020B00089838981811133C0F801438D60912B019F
:1020C000C8014A96E1DC682FC801B9DC6BE4C8019D
:1020D000D5DB8823B1F0F0905A01FA94F0925A01BE
:1020E0006F2D86E491E03FDDEF2DF0E0909145010A
:1020F000E91BF109EA5BFE4F9081891302C08BE472
:102100008983898181110BC0F801838191E0980F47
:102110009383873021F41382818181508183898167
:1021200081112DC0F8018181843049F5838184308B
:1021300031F54EE16CE3C8014896A6DC8823F9F03E
:102140004EE160912B01C8014A969EDC682FC801C0
:1021500076DC20E0822F90E0FC01EA5BFE4FD801A4
:10216000A80FB91F14968C91808381E0820F85306F
:1021700010F4282FEFCF80935A0182E589833981AB
:10218000332309F4CAC02091EF0220FFC6C080911A
:10219000EE028E7F8B7F8093EE0221FD64C0509112
:1021A0004401F0905A015F113DC040E04517C0F472
:1021B000842F90E061E0640FFC01E05DFE4FDC01E4
:1021C000AA5BBE4F70818C91781741F04093440117
:1021D0008091EE028D7F8093EE0204C0462FE6CF01
:1021E0004093440145131EC04091E8025091E9021A
:1021F0006091EA027091EB0280912C0190912D0187
:10220000A0912E01B0912F01481B590B6A0B7B0B3B
:10221000463251056105710528F48091EE02816016
:102220008093EE0240E04F1560F4842F90E0FC01B3
:10223000E05DFE4FDC01AA5BBE4F8C9180834F5F57
:10224000F2CF409344018091E8029091E902A0917D
:10225000EA02B091EB0280932C0190932D01A093A0
:102260002E01B0932F013435E9F426FD1BC0809177
:102270005A018530B8F0809148018B3471F089366D
:1022800061F09DEA980F923040F08D57823028F02F
:10229000809149018077803729F48091EE02816036
:1022A0008093EE02B801CE01019620DE8091EE020D
:1022B00082FF33C089810E940707809145018823EE
:1022C00029F080915A01815080935A01F12CE091BC
:1022D0005A01FE1648F4EF2DF0E0EA5BFE4F8081D4
:1022E0000E94C807F394F3CF80914501882351F0F1
:1022F000F0E0EA5BFE4F80818F7040E361E090E0A8
:102300000E948E078091EF0285FF05C084E30E9442
:1023100043030E94C8070E9454078091EF0282FF86
:1023200077C080E70E940707F801808140E262E001
:1023300090E00E945807F801808D90E040E265E04F
:1023400074E0880F991F7A95E1F70E945807F80109
:10235000818D90E040E265E0E4E0880F991FEA9506
:10236000E1F70E945807F801828D90E040E265E0B5
:10237000F4E0880F991FFA95E1F70E945807F801D9
:10238000838D90E040E265E0A4E0880F991FAA9554
:10239000E1F70E945807F801828140E263E090E093
:1023A0000E945807F801818140E263E090E00E94BA
:1023B0005807F801238140E262E087E090E0821B49
:1023C00091090E94580780E20E9407078091EF025E
:1023D00085FF08C084E30E9443030E94C80780E28F
:1023E0000E940707F8018381873019F081818F5F90
:1023F0008183F12CF8018181F81640F4F801EF0D8A
:10240000F11D84810E94C807F394F4CF0E94540701
:10241000F801108280915B01815080935B01809173
:102420005C018F5F843019F080935C0102C01092D0
:102430005C0145988981843521F486E491E00E940D
:10244000AC262196E6E00C94ED2C1F920F920FB66D
:102450000F9211242F933F934F935F936F937F932A
:102460008F939F93AF93BF93EF93FF9310926F005F
:102470008091EF0283FF03C08EE20E940707409124
:102480005D01242F30E0C9016CE170E00E94872CCF
:10249000825A9E4FFC018081833018F08181823006
:1024A00010F4BADA18C080915B01833049F480914E
:1024B000EF0282FFF6CF81E592E00E944707F1CF5D
:1024C0008F5F80935B014F5F443019F040935D0153
:1024D00002C010925D01FF91EF91BF91AF919F916A
:1024E0008F917F916F915F914F913F912F910F90BD
:1024F0000FBE0F901F9018959BED980F973150F4D9
:1025000096EF960F9D3130F491E0681708F090E057
:10251000892F089580E008951F920F920FB60F92B1
:102520001124FF920F931F932F933F934F935F9329
:102530006F937F938F939F93AF93BF93CF93DF93CB
:10254000EF93FF938091D303882321F082E080935F
:10255000D30365C180913C03823021F483E08093F2
:102560003C035DC10091840010918500B4E0169594
:102570000795BA95E1F780915D0190E06CE170E01C
:102580000E94872CEC01C25ADE4F8881843031F4DE
:102590000E3208F444C10F3448F0B6C0853031F42F
:1025A000073108F43CC1083208F0AEC04A990DC0AA
:1025B0008450823038F461E0CE0141DA1092850017
:1025C0001092840000932B012AC180912B01081BDB
:1025D00000932A011092850010928400988198300F
:1025E00071F42A8121110BC021E02A83888F8A8F00
:1025F000098F0B3B10F4000F01C006950B8F945010
:10260000923020F460E0CE011ADA09C182E086BB84
:10261000F880F11011C090912B01953608F0FFC0A1
:1026200080912A01853608F0FAC0988F898F81E061
:102630008A8382E08883F3C010912A0182E0F81235
:1026400073C000912B01412F602FCE0148961CDAF8
:102650006A818823F9F0488D50E09A01220F331FD8
:10266000240F351F200F311D35952795359527955A
:10267000288F298D30E0C901880F991F820F931F81
:10268000810F911D9595879595958795898F6F5F9A
:102690006A83C5C0643008F445C020EA3FE0309347
:1026A0008900209388008A818C3050F0888D298D94
:1026B00030E0280F311D2536310524F084E027C095
:1026C0008A3088F0888D298D30E0280F311D253221
:1026D00031054CF485E0888328EE33E0309389009F
:1026E0002093880015C08091F502882379F0612F2E
:1026F000802F02DF882351F0688D898DFDDE8823CD
:1027000029F081E080933C0387D989C083E08883E6
:102710000A8F1B8F198287E08B831C8282E0809353
:102720006F007DC0188277CF88E0F81225C081E95C
:10273000810F8D3178F460E0CE0181D9288D30E0B1
:10274000C901880F991F820F931F20912B01820FBF
:10275000911D4EC0173E08F462C061E0CE016FD9F2
:102760002A8D30E0C901880F991F820F931F209195
:102770002B01820F911D15C000912B01412F602F5D
:10278000CE014A9681D9882301F161E0CE0157D963
:102790002A8D30E0C901880F991F820F931F800F87
:1027A000911D95958795959587958A8F2B8D30E00E
:1027B000C901880F991F820F931F810F911D959555
:1027C0008795959587958B8F2AC0412F602FCE01D5
:1027D00048965AD9882301F160E0CE0130D9288D7E
:1027E00030E0C901880F991F820F931F800F911D40
:1027F0009595879595958795888F298D30E0C901A6
:10280000880F991F820F931F810F911D95958795B2
:1028100095958795898F03C087E0F81275CFFF9152
:10282000EF91DF91CF91BF91AF919F918F917F9168
:102830006F915F914F913F912F911F910F91FF9059
:102840000F900FBE0F901F90189580915D0190E042
:102850006CE170E00E94872C825A9E4FFC018081BF
:10286000811107C081E09091C2039F3F19F480E07D
:10287000089581E0089580E690E00E942708809303
:10288000F50281E690E00E942708809346038823A2
:1028900021F081E28093EF0231C908955B9A0C9494
:1028A0009D065B980C949D06A7E0B0E0EAE5F4E194
:1028B0000C94D02C9091FE02943559F420913F0352
:1028C000309140032F5F3F4F3093400320933F03ED
:1028D0003EC0963459F420913D0330913E032F5F62
:1028E0003F4F30933E0320933D0331C0953459F45C
:1028F0002091F2023091F3022F5F3F4F3093F302A9
:102900002093F20224C09B3459F420914203309169
:1029100043032F5F3F4F309343032093420317C07D
:10292000983459F420914403309145032F5F3F4F71
:1029300030934503209344030AC02091F002309164
:10294000F1022F5F3F4F3093F1022093F00295E7A1
:102950009983882399F0BE016E5F7F4F8091460373
:102960000E940F08BE016C5F7F4F8091F5020E94AC
:102970000F0885E58E8386E0D82E02C0DD24D3942F
:102980000E9442040E94BE0316E080E891E086DFC8
:1029900080E093E086DF1150C1F780E093E07EDFB6
:1029A00080E891E07EDF80E891E078DF5B9887E364
:1029B00090E00E94600383E00E94A20628988FE7BF
:1029C0000E94CC028091F8028D0D0E94CC02CE01B3
:1029D00001967C018C01F80181918F010E94CC024B
:1029E000802F8E198D15B8F38091F802882339F065
:1029F00086EF92E00E9464090E94CC02F5CF289AEB
:102A00000E94BE0386EF92E00E94490915E18AE325
:102A10000E9443038F7731F0115021F081E00E9432
:102A2000A206F5CF6BD82796E7E00C94EC2CCF9359
:102A3000DF93EC018981811107C08091F5020E942A
:102A4000C8078091460313C08436A1F48091E80240
:102A50009091E902A091EA02B091EB0240E364E0B8
:102A60000E948E078EE20E94070780913B030E941E
:102A7000C8074DC0833709F04DC040E361E0809145
:102A80003F03909140030E948E078EE20E94070749
:102A900040E361E080913D0390913E030E948E07E8
:102AA0008EE20E94070740E361E08091F20290917C
:102AB000F3020E948E078EE20E94070740E361E066
:102AC00080914203909143030E948E078EE20E9400
:102AD000070740E361E080914403909145030E9421
:102AE0008E078EE20E94070740E361E08091F002CA
:102AF0009091F1020E948E078EE20E94070740E348
:102B000061E08091390390913A030E948E070E9400
:102B100054072CC08936D9F441E065EF72E0CE014C
:102B200002960E94CC076091F50280E690E00E9438
:102B3000220841E066E473E0CE0104960E94CC07CF
:102B40006091460381E690E00E9422080FC086EF64
:102B500092E00E94490921966991662329F086EF47
:102B600092E00E944E09F8CF80E09EDEDF91CF9187
:102B70000895A1E0B0E0EFEBF5E10C94CF2C80914B
:102B80003C03882309F486C0C090E802D090E90293
:102B9000E090EA02F090EB02833009F061C08FE32D
:102BA0000E944303182F8630C8F087E194E00E940A
:102BB000490928988FEF0E94CC0280E00E94CC0245
:102BC000082F115049F080E00E94CC02682F87E165
:102BD00094E00E944E09F5CF289A01C000E00E94BF
:102BE0007E0D10923C03053709F054C041E0BE0150
:102BF0006F5F7F4F8AE194E00E94CC07019759F5FF
:102C000099818091F502981326C080911E04853524
:102C100071F480911904882339F087E194E00E94CF
:102C200064090E940707F5CF0E94540733C08091C2
:102C3000190484508093190484E0809318046AE096
:102C400087E194E00E944E09E091E402F091E502F0
:102C500088E009951FC087E194E00E9449091AC0E5
:102C6000823059F48091F4029C2D981B983090F09A
:102C70000E947E0D10923C030DC0813059F487E311
:102C800090E00E9460030E94D00382E080933C03A6
:102C9000C092F4022196E8E00C94EB2CD6DD882358
:102CA00061F083E0809341038091390390913A036E
:102CB000019690933A0380933903809141038150A8
:102CC00080934103882321F083E080933B030895A0
:102CD00081E0EACDCF93DF93EA98209A289A8EE19B
:102CE00090E00E949D0628988EE190E00E949D064B
:102CF000289A8DE290E00E949D0680E30E945C038A
:102D000084E690E00E949D06C8E7D2E0FE0131967D
:102D10006491FE0184910E944A032296F2E0CA3A2D
:102D2000DF07A1F78091CF01811107C083E30E94E3
:102D30005C0384E00E94A2060FC0C2E6D2E0FE015E
:102D400031966491FE0184910E944A032296F2E03A
:102D5000C837DF07A1F7EACF84E30E945C0385E36D
:102D60000E9443038D30C1F7DF91CF910895A2E314
:102D7000B0E0EDEBF6E10C94D32C8091CE018823EA
:102D800009F4A1C04A9B8AC08FE30E9443038F7756
:102D90008983823368F08AE30E945C0386E30E94A1
:102DA0005C038DE30E945C0384E30E945C038BC0A0
:102DB00028988FEF0E94CC0210E08981181760F4E8
:102DC00080E00E94CC02E2E0F0E0EC0FFD1FE10F9A
:102DD000F11D80831F5FF1CF80E00E94CC02082F9D
:102DE00080E00E94CC02289A84E30E945C0385E381
:102DF0000E9443038D30C1F72A8196E792279A8378
:102E000092E08981E92FF0E0981768F441E050E002
:102E10004C0F5D1FE40FF51F3081245223272083C0
:102E20009F5F232FEECF81E090E08C0F9D1FE80F76
:102E3000F91F90818B81982790838091EF0284FF06
:102E400012C081E60E94070710E08981811730F1E6
:102E5000E1E0F0E0EC0FFD1FE10FF11D80810E9429
:102E600007071F5FF2CF81E40E94070710E0898106
:102E7000811758F0E1E0F0E0EC0FFD1FE10FF11DCC
:102E800080810E94C8071F5FF2CF8091EF0285FF0B
:102E900003C0802F0E94C8070E94540785E30E9448
:102EA0004303813029F0813161F48AE30E945C039D
:102EB00086E30E945C038DE30E945C0384E30E942E
:102EC0005C030E948904E296E4E00C94EF2C8F925C
:102ED0009F92AF92BF92DF92EF92FF920F931F9358
:102EE000CF93DF93CDB7DEB7EA970FB6F894DEBF86
:102EF0000FBECDBF41E38E010F5F1F4FB80101969A
:102F00000E94CC077C0199270197298130E0821724
:102F1000930709F0A3C08091CE01811104C0DADECD
:102F200083E00E94A206DB808A8196E789278A8354
:102F300022E03981822F90E0F801E80FF91F231772
:102F400050F4DE01A80FB91F8C918452908189271B
:102F500080832F5FEECF80818D258083CE01C79641
:102F60000E94A40585E30E945C0385E30E9443035D
:102F7000833181F1CE01C3960E94A4054BA95CA9BF
:102F80006DA97EA98FA998ADA9ADBAAD8417950793
:102F9000A607B70760F44A015B01881A990AAA0AD2
:102FA000BB0A2DEB82169104A104B10470F44817FA
:102FB00059076A077B0770F484549F4FAF4FBF4F88
:102FC00084179507A607B70728F488E592E00E94C2
:102FD000470727C085E30E944303833119F6D4FED7
:102FE00008C088E70E94A20688E70E94A20688E738
:102FF00001C08AE00E94A20628988FE70E94CC02B6
:1030000058018A2D801B8E1530F4F50181915F01E6
:103010000E94CC02F6CF289A85E30E9443038331B5
:10302000D9F385E30E944303863149F48BE30E9480
:103030005C0386E30E945C038DE30E945C03809145
:10304000CE01882349F084E30E945C0385E30E945B
:1030500043038D30C1F702C00E947E0DEA960FB681
:10306000F894DEBF0FBECDBFDF91CF911F910F91BE
:10307000FF90EF90DF90BF90AF909F908F9008955A
:10308000FC012181223731F0223559F481E080930F
:10309000CF0102C01092CF011DDE81E08093CE01EE
:1030A0000895233711F4019612CF1092CE0108959E
:1030B000CF93DF93EA98209A289A8EE190E00E94BD
:1030C0009D0628988EE190E00E949D06289A8DE248
:1030D00090E00E949D0680E30E945C0384E690E0FD
:1030E0000E949D06C3ECD2E0FE018491813440F041
:1030F00083E30E945C0384E00E94A206CFEF0DC030
:10310000FE0131966491FE0184910E944A03229649
:10311000F2E0CF3FDF0741F7EBCF84E30E945C038F
:103120008AE090E00E949D06C150B9F781E080934B
:10313000D001DF91CF910895EF92FF920F931F93EB
:10314000CF93DF93EC018B01F880F3946115710547
:1031500019F0E4E6F0E002C0E0E0F0E08F2D90E04E
:1031600023E0880F991F2A95E1F76AE070E00E943A
:10317000AC2C9B012E0F3F1FC901AA2797FDA095DC
:10318000BA2FE091EC02F091ED02AF0160E070E047
:10319000481759076A077B0728F483EB92E00E94DF
:1031A0004707D9C0E21BF30BF093ED02E093EC026A
:1031B0008091D001811101C07BDF85E30E94430330
:1031C0008D3071F08AE50E94070785E40E940707A9
:1031D00082E50E94070782E50E94070781E34CC051
:1031E0008091D1019091D201A091D301B091D401ED
:1031F000892B8A2B8B2B51F50E94BE0385E30E94FD
:103200004303833109F443C08AE50E94070785E43C
:103210000E94070782E50E94070782E50E940707D0
:1032200082E32AC08091E8029091E902A091EA022B
:10323000B091EB024F5F5F4F6F4F7F4F8417950741
:10324000A607B707C9F681E00E94A2068091E802AE
:103250009091E902A091EA02B091EB024091D10174
:103260005091D2016091D3017091D40184179507D8
:10327000A607B707B9F6E7CF0E94070785E30E94C4
:1032800043030E94C8070E94540712DF64C0012B49
:1032900041F428988FE70E94CC02EC2E0C2F1D2FB2
:1032A0000BC00AE010E084E60E94A206015011095A
:1032B00001151105C1F7EDCF802F8E198F1530F450
:1032C000F80181918F010E94CC02F6CF289AC8ECB8
:1032D00085E30E9443038D30E9F485E30E944303B4
:1032E0008D3019F18AE50E94070785E40E940707DF
:1032F00082E50E94070782E50E94070783E30E9498
:10330000070785E30E9443030E94C8070E945407F1
:10331000CFDE0BC085E30E9443038331F1F681E0E9
:103320000E94A206C150A1F6D8CF8091D001811190
:1033300002C00E947E0D8091E8029091E902A09166
:10334000EA02B091EB028093D1019093D201A09355
:10335000D301B093D401CDB7DEB7E6E00C94ED2CE9
:10336000ACE0B0E0E6EBF9E10C94D42CFC018BE08E
:10337000898381818A831B8282E08C8387818D830C
:1033800080858E8381858F838481888785818987E5
:1033900086818A871B861C8684E10E94A20660E0E3
:1033A00070E0CE010196C8DE8AE50E94070710E0B2
:1033B000812F90E0298130E0281739075CF0E1E0A7
:1033C000F0E0EC0FFD1FE80FF91F80810E94C80795
:1033D0001F5FEECF8091EF0285FF03C080E00E9467
:1033E000C8070E9454072C96E3E00C94F02CCF936E
:1033F000DF93EC018091D801811108C09091D9012F
:10340000911104C09091DA019923A9F09B81903326
:1034100019F09F7E903479F49F8198130CC09885A1
:103420008091D901981307C099858091DA0198138A
:1034300002C0CE0195DF8091D501811108C0909125
:10344000D601911104C09091D7019923A9F09881D8
:103450009B3091F49B81903479F49F8198130CC038
:1034600098858091D601981307C099858091D701DE
:10347000981302C0CE0174DFDF91CF910895AEE1C1
:10348000B0E0E5E4FAE10C94D32C8091D0018823DC
:1034900009F469C04A9B59C08FE30E9443038F77A8
:1034A0008E3108F08DE1898328988FEF0E94CC023D
:1034B00010E08981181760F480E00E94CC02E2E0FD
:1034C000F0E0EC0FFD1FE10FF11D80831F5FF1CFD6
:1034D00080E00E94CC02082F80E00E94CC02289A53
:1034E000CE01019684DF8091EF0284FF12C08AE74B
:1034F0000E94070710E089818117A8F1E1E0F0E060
:10350000EC0FFD1FE10FF11D80810E9407071F5F77
:10351000F2CF8AE50E94070710E08981811758F0F1
:10352000E1E0F0E0EC0FFD1FE10FF11D80810E9452
:10353000C8071F5FF2CF8091EF0285FF03C0802F85
:103540000E94C8070E9454070EC085E30E944303EF
:10355000813149F48AE30E945C0386E30E945C03A4
:1035600084E30E945C036E96E4E00C94EF2CAEE1E1
:10357000B0E0EDEBFAE10C94D32C8C01FC018181DD
:10358000823711F495DD36C0833711F0863601F5A8
:103590004DE1BE016F5F7F4FC80102960E94CC07CC
:1035A00099270197298130E08217930729F08AEA49
:1035B00092E00E9447071EC061E070E0F80181813F
:1035C000833711F060E070E0CE010196B5DD12C0E6
:1035D000813621F443E068ED71E005C0873741F49E
:1035E00043E065ED71E0C80102960E94CC0702C07D
:1035F0001092D0016E96E4E00C94EF2C0E94D00360
:10360000EA980895CF93DF93209A289A8EE190E06C
:103610000E949D0628988EE190E00E949D06289ABF
:103620008DE290E00E949D0680E30E945C0384E6A8
:1036300090E00E949D06809188038933C1F4C3E61F
:10364000D3E0FE0131966491FE0184910E944A0309
:103650002296F3E0C539DF07A1F783E30E945C03FC
:1036600084E00E94A206CADFDF91CF9108958433DF
:1036700079F4C1E3D3E0FE0131966491FE018491B7
:103680000E944A032296F3E0C336DF07A1F7E5CF95
:10369000813319F7CFEFD2E0FE0131966491FE013C
:1036A00084910E944A032296F3E0C133DF07A1F719
:1036B000D4CFFC01908180918D03981318C0918123
:1036C00080918E03981313C0928180918F03981379
:1036D0000EC0938180919003981309C080859091CA
:1036E0009103891302C081E008958F3FE1F380E0E8
:1036F00008952FEF662339F06150FC01E60FF11DAC
:1037000030812327F7CF822F0895DC01FC018FE061
:103710009DE170E09F012A1B3B0B2617370704F53C
:103720002191492F552742279A01329522952F70D2
:1037300023273F70232724273527982F8827822780
:103740009327A901542F44275295507F842795270A
:1037500045E0220F331F4A95E1F782279327DACFFE
:103760000895A0E0B0E0E7EBFBE10C94D02CEC0175
:10377000E62E459A80918803893339F464E182E129
:103780000E944A036E2D660F6D5E86E00E944A031A
:103790000E94BE0328988FE70E94CC028091880384
:1037A000893321F0FC2E0C2F1D2F50C01FE086E620
:1037B0000E94CC021150D9F78AEA0E94CC0285E51A
:1037C0000E94CC02DC2E0C2F1D2F802F8D198E1500
:1037D000B0F5F801F1908F01F7FE02C080E801C05A
:1037E00080E4F6FE02C090E201C090E1980FF5FE81
:1037F00002C088E001C084E0890FF4FE02C092E0BC
:1038000001C091E0890F0E94CC02F3FE02C080E863
:1038100001C080E4F2FE02C090E201C090E1980F86
:10382000F1FE02C088E001C084E0890FF0FE02C012
:1038300092E001C091E0890F0E94CC02C6CF80E0E7
:103840000E94CC0280E00E94CC020BC0802F8F1916
:103850008E1538F4F80181918F0180950E94CC0279
:10386000F5CF289A85E30E9443038331D9F36FEFA4
:1038700086E00E944A0380918803893321F46EE137
:1038800082E10E944A03BADE45988D8186FF2CC0F2
:103890008091E8029091E902A091EA02B091EB02D6
:1038A0000696A11DB11D8093890390938A03A0936E
:1038B0008B03B0938C038091DB018F5F8093DB01DE
:1038C000823060F08AE70E94070782E70E940707BC
:1038D0008091DB010E94C8070E9454078091DB01A0
:1038E000833010F01092DB01CDB7DEB7E7E00C9427
:1038F000EC2CA1E4B0E0EFE7FCE10C94CB2C809140
:10390000DC01882309F420C18091DB018823D9F0F0
:103910004091E8025091E9026091EA027091EB0255
:103920008091890390918A03A0918B03B0918C03BD
:1039300084179507A607B70730F46091870387E4DB
:1039400093E00FDF01C14A9BFFC0459A28988FEF93
:103950000E94CC028E010F5F1F4F6E0189E0C80EDE
:10396000D11C780180E00E94CC02F7018083909105
:103970008803993311F080958083FFEFEF1AFF0AD7
:10398000EC14FD0479F7289AB88487EF8B0D8833FF
:1039900010F038DED9C06B2D86E00E944A0380917A
:1039A0008803813331F0843341F4ACEDEA2EF12CFD
:1039B00008C0FAE5EF2EF12C04C0E8E9EE2EE3E0B2
:1039C000FE2E68E3862E78E0A72ECB2CD12CC701E3
:1039D0000E949D068BE30E944303982E882331F1B9
:1039E000282F30E02A0D311DC216D30694F22898F4
:1039F0008FEF0E94CC029A0CA91471F080E00E9413
:103A0000CC0290918803993309F08095F801EA0D72
:103A1000F11D8083A394F0CF289A9B1440F08091ED
:103A20008803EB2CF12C8133E9F405C09A2C8A949D
:103A3000B1F3A92CCCCFFE013197EE0DFF1DC08054
:103A4000D12CDC2CCC24FE01EE0DFF1D8081C80E94
:103A5000D11C6EEF6B0DC80158DE21E08C159D0561
:103A600059F40BC06FEF6B0DC80143DEFE01EE0D84
:103A7000FF1D21E09081891320E08091DC018237D5
:103A800051F4C80122962FAF229713DE22962FAD54
:103A90002297882399F0222391F08AE70E94070752
:103AA0007801F70181917F010E94C8078E2D801B4C
:103AB0008B15B8F30E94540721E001C020E08091EB
:103AC000DC01823771F4222361F08E81982F93708C
:103AD000933029F49091DB0191111092DB0186FD66
:103AE00007C06FEF86E00E944A0388DD45982CC02E
:103AF0008AE00E94A2068D818987809191038D833F
:103B000083E08E8380918803813349F48BE088873A
:103B100069E0C801FADD9A878B876BE007C08AE00D
:103B2000888769E0C801E5DD8A876AE0C80119DE97
:103B30008AE70E94070781E60E94070789850E949D
:103B4000C8070E945407D2CFCF5BDF4FECE00C9444
:103B5000E72CFC012181223711F02D3651F4FC01B4
:103B60008281811101C084E3809388032093DC016A
:103B700049CD233771F41092DB0140E467E473E030
:103B800002960E94CC0780938703682F87E493E016
:103B9000E8CD293671F5FC012281222331F045E080
:103BA0006DE873E002960C94CC078091DC010E94D2
:103BB0000707809188030E94070780E20E94070799
:103BC00080918D030E94C80780918E030E94C807D0
:103BD00080918F030E94C807809190030E94C807BC
:103BE00080E20E940707809191030E94C8070C940D
:103BF00054071092DC010895CF93DF93EA98209A3E
:103C0000289A8EE190E00E949D0628988EE190E02F
:103C10000E949D06289A8DE290E00E949D0680E316
:103C20000E945C0384E690E00E949D06289880E450
:103C30000E94CC02C5E9D3E0FE0184910E94CC022F
:103C40002196F3E0C23ADF07B9F7809108010E949C
:103C5000CC02809109010E94CC0280910A010E944D
:103C6000CC02C0E0D0E0FE01EB55FC4F84910E94F5
:103C7000CC022196C931D105B1F7289A28988EE750
:103C80000E94CC028BE290E0EC0121960E94270872
:103C90000E94CC02C333D10511F0CE01F5CF289A92
:103CA00083E30E945C0381E00E94A20681E080938E
:103CB000E602DF91CF910895AF92BF92CF92EF923B
:103CC000FF920F931F93CF93DF93EC018981843789
:103CD00069F46FE071E0CE0102960E94F90740E2BC
:103CE00060E080910F019091100112C0833709F0BC
:103CF0007CC18A81823789F46BE071E0CE01039642
:103D00000E94F90740E260E080910B0190910C0164
:103D10000E9458070E945407DCC1459A8091DF0138
:103D2000811116C08091CE01882329F081E0809313
:103D3000DE011092CE018091D001882329F081E02C
:103D40008093DD011092D00157DF83E00E94A2062C
:103D500086E30E945C038AE30E945C038BE30E947B
:103D60005C030E94BE03FE0101900020E9F70E2FC4
:103D70000C1B0250C12C7E01E2E0EE0EF11C809182
:103D80000B0190910C012C2D332727FD309528171E
:103D9000390708F0ECC0013291F45B9A80910F0171
:103DA000909110010E949D065B9880910D01909169
:103DB0000E016AE070E00E94872C0E949D06570168
:103DC00011E010170CF0ACC0F50181915F015B9A16
:103DD000803309F040C00132E1F480910D019091EF
:103DE0000E010E949D065B9880910D0190910E013D
:103DF0000E949D065B9A80910D0190910E010E9498
:103E00009D065B9880910D0190910E0165E070E038
:103E10001FC080910F01909110010E949D065B9838
:103E200080910F019091100163E070E00E94872C57
:103E30000E949D065B9A80910F01909110010E9453
:103E40009D065B9880910F019091100163E070E0F6
:103E50000E94872C61C0813311F5013281F4809179
:103E60000D0190910E010E949D065B9880910D01BD
:103E700090910E0165E070E00E94872C1DC080913A
:103E80000F019091100163E070E00E94872C0E9466
:103E90009D065B9880910F01909110012BC001321B
:103EA000D1F480910D0190910E010E949D065B98C6
:103EB00080910D0190910E010E949D065B9A809168
:103EC0000D0190910E010E949D065B9880910D015D
:103ED00090910E0121C080910F01909110010E94DC
:103EE0009D065B9880910F019091100163E070E056
:103EF0000E94872C0E949D065B9A80910F019091F1
:103F0000100163E070E00E94872C0E949D065B9880
:103F100080910F01909110010E949D061F5F51CF6B
:103F20005B9A013291F480910D0190910E010E94F3
:103F30009D065B9880910D0190910E0168E270E002
:103F40000E94872C0E949D0610C080910F019091C5
:103F500010010E949D065B981FE180910F019091D6
:103F600010010E949D061150C1F7C39408CF8091A3
:103F7000DF01882341F08091EF0281110FC086E3B9
:103F80000E945C0318C08091DE01882351F01092DA
:103F9000DE010E946A1681E08093CE010E94D00368
:103FA0000AC08091DD01882321F01092DD0180D8C4
:103FB00002C00E947E0D459889E60E94070783E7AC
:103FC0000E94070711E010170CF0A4CEFE01E10FCC
:103FD000F11D17FDFA958181803319F0813309F0C5
:103FE00086E40E9407071F5FEECF8237B9F4809105
:103FF000CE01882329F081E08093DE011092CE016A
:104000008091D001882329F081E08093DD01109216
:10401000D001F2DD81E08093DF015BC0863651F58F
:104020008A81803351F480E18093080180EB809392
:10403000090181E780930A0107C043E068E071E06D
:10404000CE0102960E94CC0789E60E94070786E609
:104050000E9407078AE30E940707809108010E94D7
:10406000C807809109010E94C80780910A010E9437
:10407000C80750CE883729F58091DE01882341F0AA
:104080001092DE010E946A1681E08093CE0110C07A
:104090008091DD01882321F01092DD0109D80EC046
:1040A00082E090E00E9460038091EF02882319F083
:1040B0000E94D00303C086E30E945C031092DF01DC
:1040C00008C0833631F46FE071E0CE0101960E94A2
:1040D000F907DF91CF911F910F91FF90EF90CF9053
:1040E000BF90AF900895A2E0B0E0E9E7F0E20C9451
:1040F000C82C7C01FC018181833709F09DC11982A4
:1041000087E090E00E94FC2C8C0141E0BE016F5FD3
:104110007F4FC70102960E94CC078981F8018083F6
:1041200041E0BE016F5F7F4FC70104960E94CC073C
:104130002981207FF801218341E0BE016F5F7F4F1D
:10414000C70106962A830E94CC078981F8018283E1
:1041500041E0BE016F5F7F4FC70108960E94CC0708
:104160008981F801838341E0BE016F5F7F4FC70102
:104170000A960E94CC078981F801868341E0BE013E
:104180006F5F7F4FC7010C960E94CC078981F801B1
:10419000858341E0BE016F5F7F4FC7010E960E948D
:1041A000CC078981F801848380E090E02A814191E5
:1041B000342F32953F70342783279F5F9730B9F7AC
:1041C0008F70822BF801818387E090E00E94FC2CA5
:1041D0005C0187E0F801D50101900D928A95E1F725
:1041E000D8011196C8010696F8013D912191232727
:1041F0002083E817F907C9F7459A8091E2018111F8
:1042000060C08091CE01882329F081E08093E10194
:104210001092CE018091D001882329F081E0809313
:10422000E0011092D001EA98209A289A8EE190E05D
:104230000E949D0628988EE190E00E949D06289A93
:104240008DE290E00E949D0680E30E945C0384E67C
:1042500090E00E949D06289880E40E94CC026EEBBC
:10426000E62E63E0F62EF70184910E94CC02FFEF68
:10427000EF1AFF0A27EEE21623E0F206A1F7289ACA
:1042800028988EE70E94CC028BE290E07C01EFEF51
:10429000EE1AFE0A0E9427080E94CC02F3E3EF16F2
:1042A000F10411F0C701F2CF289A83E30E945C0366
:1042B00081E00E94A20681E08093E60283E00E94F2
:1042C000A20686E30E945C038AE30E945C038BE300
:1042D0000E945C030E94BE035B9A87EC94E20E94FA
:1042E0009D065B9889E50E94A20685E392E00E9404
:1042F0009D06712C8091150190E0272D332727FD15
:104300003095281739070CF057C0711002C022E011
:1043100001C027E0F12C5B9A86EF99E02A830E9486
:104320009D065B9886EF99E00E949D06F3942A8192
:10433000F2168CF35B9A8CEF92E10E949D065B98DB
:1043400080911101909112010E949D066801612CDB
:10435000F60181906F0148E0542E50E8E52EF12CD3
:10436000912CC70188219921892B49F45B9A80916E
:104370001101909112010E949D065B9808C05B9804
:1043800080911101909112010E949D065B9A80918B
:104390001101909112010E949D06F694E7945A949F
:1043A00001F76394F7E06F12D3CF5B9880E090E061
:1043B0000E949D0673949ECF8091E201882341F074
:1043C0008091EF0281110FC086E30E945C0319C047
:1043D0008091E101882351F01092E1010E946A1658
:1043E00081E08093CE010E94D0030BC08091E00158
:1043F000882329F01092E0010E94581802C00E9400
:104400007E0D459889E50E94070783E70E9407070C
:104410007501D12CF70181917F010E94C807D394C7
:10442000F7E0DF12F7CF0E945407C5010E94942DD8
:10443000C8010E94942D6FC08237A9F465E171E034
:10444000C70102960E94F90789E50E94070782E7E3
:104450000E9407078AE30E9407078091150140E246
:1044600060E090E02CC0843779F5F70182818033D9
:1044700039F488ED94E0909314018093130106C001
:1044800063E171E0C70102960E94F9078091130170
:104490009091140196958795909312018093110144
:1044A00089E50E94070784E70E9407078AE30E94C4
:1044B000070740E266E080911301909114010E9489
:1044C00058070E94540727C0883729F58091E101D9
:1044D000882341F01092E1010E946A1681E08093E6
:1044E000CE0111C08091E001882329F01092E001F3
:1044F0000E9458180EC082E090E00E9460038091F4
:10450000EF02882319F00E94D00303C086E30E94C3
:104510005C031092E2012296EFE00C94E42C1092DE
:10452000AD0310929E0283E08093E8018FEF8093A9
:10453000C2030895E9EEF1E02081211105C0892B25
:10454000B1F080E090E00895B2E0E739FB07B8F7FA
:10455000009751F04181DC013C91431305C0428139
:1045600011963C91431751F0E20FF11DE5CF32E077
:10457000E739F30719F010F0E7E9F2E0CF01089509
:10458000E82FF0E0EE0FFF1FEE0FFF1FED53FC4F83
:1045900080818F3F91F08093E30181818093E401DA
:1045A00082818093E50183818093E60121E04CE0E4
:1045B00064E083EE91E00C945D0A089588E992E04E
:1045C000B9DF009799F02091E801FC0130812317B1
:1045D00068F4E20FF11D808180939A0289E780934D
:1045E0009B02818180939C0281E0089580E0089580
:1045F000EF92FF921F93CF93DF931F92CDB7DEB759
:10460000182F8091EF0286FF18C084E599830E94DD
:104610000707E12E9981F92E15E0F70181917F01BD
:104620000E94C8071150C9F78091EF0285FF03C0AF
:104630008AEF0E94C8070E9454070F90DF91CF9124
:104640001F91FF90EF90089586E30E945C03809194
:104650009A02833511F48BE901C08BE40E94A20613
:1046600021E04CE065E088E992E00E945D0A0E944A
:10467000D00388E992E0BCCFE7DF80919A028936C7
:1046800031F081E08093970289E28093C20308951C
:10469000CF9385E390E00E9427088093930386E3FD
:1046A00090E00E9427088093C103CFEFC093B1032D
:1046B000C093B303C093B503C093B703C093B903CA
:1046C000C093BB03C093BD03C093BF0328DF109208
:1046D000E90181E080939203C093C3038FEF9FEFC2
:1046E00090939603809395031092980310929703EA
:1046F00010929A0310929903C093C70390939C035E
:1047000080939B0310929E0310929D031092A0032E
:1047100010929F03C093CB039093A2038093A103B5
:104720001092A4031092A3031092A6031092A50363
:10473000C093CF039093A8038093A7031092AA037A
:104740001092A9031092AC031092AB03CF9108957D
:10475000ACE0B0E0EEEAF3E20C94CE2C6C018C01FC
:104760000F5F1F4F45E0BE016F5F7F4FC8010E9482
:10477000CC07843008F0F3C099819130A9F48330DC
:1047800061F46A8185E390E00E9422086B8186E3F0
:1047900090E00E9422087CDF12C2809193030E9465
:1047A000C8078091C1039AC0923009F051C081308E
:1047B00039F081E09A81913009F080E0F82E02C052
:1047C000FF24F3948091E901811104C087EE93E006
:1047D0000E94470709EE11E0F8018081882309F45F
:1047E000BBC0F2E007391F0708F0B6C081E0093E00
:1047F000180719F080E20E940707F80181810E94E2
:10480000C807F80182810E94C807FF20E1F08AE30F
:104810000E94070793E0F80180819817A0F4943074
:1048200038F090FF05C08CE29C870E9407079C85AA
:10483000EE24E394E90EF801E90FF11D80810E9456
:10484000C8079E2DE8CFF8018081080F111DC4CF45
:10485000933049F480E090E06DDE895E91409EEAFD
:10486000981B892F3BC0903171F501EB13E0F2EBFF
:10487000EF2EF3E0FF2EC12CD12CF80180818F3F69
:10488000A1F0DD2019F080E20E9407078C2D0E9424
:10489000C8078AE30E940707F80180810E94C807C1
:1048A000F70180810E94C807D3940E5F1F4FC39405
:1048B000F2E0EF0EF11C88E0C812DFCFD1104CC03F
:1048C00085EF93E047C0913161F48091AF039091FF
:1048D000B0036DE770E00E94982C862F0E94C807F5
:1048E0003BC09231C9F5E3ECEE2EE3E0FE2E06EC80
:1048F00013E0C12CD12CF70180818F3FF1F0DD2036
:1049000019F080E20E9407078C2D0E94C8078AE3F5
:104910000E940707F70180810E94C807F8013297BB
:1049200080810E94C807F801319780810E94C807E2
:10493000F80180810E94C807D394F4E0EF0EF11CC7
:10494000C3940C5F1F4F84E0C812D5CFD11004C0B0
:1049500081EF93E00E9447070E94540730C144E072
:10496000BE01695F7F4FC8010E94CC074F81493665
:1049700008F481C07A8558856985E5ECF3E080E02C
:1049800090E07C3009F058C09C01220F331F220FA9
:10499000331FDF0112977C9174131EC01196AC91E6
:1049A000A5131AC0A081A61317C0F901ED53FC4F3F
:1049B0002CE0238363E070E0AAD7DC01AA0FBB1FC1
:1049C000AB56BC4F1D921C92FC01EE0FFF1FE95627
:1049D000FC4F11821082D5C07F3FE1F4F901ED5305
:1049E000FC4F4083518362832CE0238363E070E0BB
:1049F0008ED7DC01AA0FBB1FAB56BC4F1D921C9279
:104A0000FC01EE0FFF1FE956FC4F1182108210923D
:104A10009203B7C0019634968430910509F0B4CF63
:104A2000CEC0DF011197AC91A51789F0019634969D
:104A30008430910509F4C3C09C01220F331F220F5B
:104A4000331FDF011297AC91A413F0CFEACFA081FE
:104A5000A613ECCFF901ED53FC4F738363E070E0D4
:104A600056D7FC01EE0FFF1FE956FC4F81E090E0A6
:104A700091838083A4C0E98180919303E817D0F1EA
:104A800090E0F0E09C01295F3F4F2E173F0794F123
:104A90003A812091C10332132DC03C813F3231F461
:104AA00042E06CE0C6010E94CA0A89C02D813C32F6
:104AB000C1F42093AE0381E090E09093B003809323
:104AC000AF0330E0220F331F220F331F8091EC021F
:104AD0009091ED02820F931F9093ED028093EC0270
:104AE0006EC0E81BF90BEE0FF0E0EF54FC4F308383
:104AF000218365C080E090E01DDD7C01F80101901C
:104B00000020E9F73197E01BF10BF695E795BB2400
:104B1000B394BE0EC7018B0D911D895E91408F3AF3
:104B200091050CF048C0F701B1928F0121E0822F6E
:104B3000880F81502B15D8F441E0B801F601E80F39
:104B4000F11DCF012C870E94CC072C85233058F013
:104B500020FD09C0D80111978C91843621F4F80109
:104B60008081809394032F5F0F5F1F4FE0CFF7E9A1
:104B7000EF16F2E0FF0618F5F701E20FF11D1082C3
:104B80001EC022E04CE064E0CE0107960E945D0A60
:104B90008FE08A8722E04CE064E0CE0107960E9415
:104BA0005D0A82E08A8722E04CE064E0CE0107964D
:104BB0000E945D0A04C08BEE93E00E9447072C968A
:104BC000E9E008C7FF920F931F93CF93DF93F82E6E
:104BD00080919203811154C0AF2DB0E0CD0163E00C
:104BE00070E095D68C01FC01EE0FFF1FEB56FC4FD9
:104BF000AA0FBB1FAA0FBB1FAD53BC4F12968C91BF
:104C0000877020E830E0A901481B5109CA016AEF0A
:104C100070E07DD69595879595958795918380834E
:104C2000E801CC0FDD1FC756DC4F288139812F5F8B
:104C30003F4F39832883000F111F09561C4FF8017D
:104C4000408151814115510531F424303105C1F4C1
:104C50008F2D96DC13C04130510541F48F2D90DC2F
:104C600082E090E0F801918380830AC042305105D0
:104C700039F48F2D85DCF801118210821982188297
:104C8000CDB7DEB7E5E0AAC6A6E0B0E0E9E4F6E21B
:104C900088C68091C1038A831B829091AE039923B9
:104CA00041F0933019F487E791E00CC08DE790E074
:104CB00009C0877090E08A519F4F6DE770E027D65A
:104CC000959587959093B0038093AF0302EB13E023
:104CD000F12C5CE2E52EF801319790819F3FC1F005
:104CE000809193038F0D89838091AE03882311F007
:104CF000EC8203C09C83F80180818D8321E04CE02D
:104D000065E0CE0101960E945D0ACE01019670DC3D
:104D1000F3940E5F1F4FF8E0FF12DDCF8091AE03DA
:104D2000882341F0833019F41092AE0303C08250FF
:104D30008093AE032696E6E050C6809197028823C2
:104D400051F082DC89E28093C20380919702815006
:104D5000809397020895E3CBFF920F931F93CF9315
:104D6000DF93FC01F0800181C281D38114818FE542
:104D70008093C2031092970280919303811105C022
:104D80008091C103882309F4A9C0809198028F11F2
:104D900004C080919902801729F0C1DBF09298023B
:104DA000009399028091AD038F3F09F497C0C0939F
:104DB0009A02D0939B0210939C02CC23F1F08111B4
:104DC0001CC080919303181761F0143651F08DEADE
:104DD0008C0F823010F0CD3739F48FEF8093AD0314
:104DE0007DC0C43509F47AC08D2F807F803609F0EC
:104DF00075C0D067D0939B0257C0E0DB811105C01E
:104E00008091AD03882309F469C080919E028111CD
:104E100007C0E091AD03F0E0E750FC4FE49101C022
:104E2000E82FE33541F4C43531F49091AD039E5F32
:104E30009093AD0304C0EC1711F071DB4FC08823D1
:104E400069F08091E8018E5F8093E801B7DB811102
:104E50000EC08091AD038E5F8093AD038091AD0352
:104E6000E82FF0E0E650FC4F14911F3F59F4809179
:104E70009A0280939E028436B9F4809194038093C1
:104E80009C0212C010939A0297E790939B02909114
:104E9000930390939C028E5F8093AD0310929E02C9
:104EA0008E3021F01123D1F0E7DB18C088E992E0C1
:104EB00041DBDC01009781F02C9130E087E992E042
:104EC000821B930BA817B90730F4ED01C20FD31F53
:104ED00048814D93F7CF1C9222DBE4CFCDB7DEB7EC
:104EE000E5E07CC5FF920F931F93CF93DF938C0176
:104EF000EC0109900020E9F72197C81BD90BFC01B0
:104F00008181823751F487E390E00E9460030E9420
:104F1000D00381E08093D30326C0833711F5FC2EA4
:104F200028988FE70E94CC028C2F82500E94CC02DE
:104F3000E801229612E01F1528F489910E94CC0204
:104F40001F5FF9CF289A0E94BE038AE30E944303A1
:104F50008F7721F081E00E94A206F7CF0E94D00354
:104F600002C01092D303CDB7DEB7E5E037C5A0E4A9
:104F7000B0E0ECEBF7E213C58091D303882309F48A
:104F800055C0813011F58091E8029091E902A0911D
:104F9000EA02B091EB0220919F02281709F446C063
:104FA00085E30E944303813129F48AE30E945C0374
:104FB0000E94D0038091E8029091E902A091EA0258
:104FC000B091EB0280939F0231C08FE30E944303B4
:104FD000D82E8FE38D1538F128988FEF0E94CC02E0
:104FE0008E010F5F1F4F7801C02E8E2D801B8D15F7
:104FF00038F480E00E94CC02F70181937F01F5CF65
:10500000289A81E080932401802F8C198D1530F42B
:10501000F80181918F010E940707F6CF0E94540783
:105020008FEF8093240181E08093D303C05CDF4F36
:10503000E8E0D1C40F931F93CF93DF93EC0110E00E
:10504000212F30E0C90163E070E061D488579F4FA1
:10505000FC010491C90163E070E059D487579F4F68
:10506000FC0125913491002399F0209739F480E2D6
:105070000E940707802F0E94070708C088818013BD
:1050800005C0CE01F901099581E003C01F5FD8CFAB
:1050900080E0DF91CF911F910F910895CF93C09140
:1050A000240180932401809119048823A1F187E1D0
:1050B00094E00E946409E091A0028A3011F08D30E2
:1050C000F9F4EE2381F3F0E0EF55FD4F108281EA11
:1050D00092E0B0DF811111C08FE194E00E94470798
:1050E00081EA92E00E943C0787E094E00E94470733
:1050F00080E090E09FDF0E9454071092A002D3CF7F
:10510000E03488F691E09E0F9093A002F0E0EF5516
:10511000FD4F8083C8CFC0932401CF910895E4E66A
:10512000F0E080818B7F8083299A84B1876084B985
:10513000239880E58CBD8DB581608DBD089520914B
:105140006704309168042115310521F4209118017C
:10515000309119018091160190911701009741F447
:105160008DB79EB740911A0150911B01841B950B7E
:105170002817390718F4821B930B089580E090E0FC
:10518000089582E40E94070740E265E08091670489
:10519000909168040E9458070E94540783E50E947A
:1051A000070740E265E080911801909119010E9483
:1051B00058070E94540785E40E94070740E265E013
:1051C00080911601909117010E9458070E94540780
:1051D00086E40E940707B3DF40E265E00E945807BB
:1051E0000C945407A2E0B0E0E7EFF8E2DEC3EFE58D
:1051F000F4E08091F100819384E0E736F807C9F785
:1052000020915F0430916004832F90E08A309105F3
:1052100008F01AC1FC01E65CFF4FB1C3203879F0F9
:10522000223809F011C1809163048093E9008091D4
:10523000EB0085FB882780F91092E90006C0809179
:105240005A0490915B04911182609091E800977FDD
:105250009093E8008093F1001092F1008091E800B3
:10526000982F9E7F9093E8008F778093E80080913D
:10527000E80082FDAFC080915E048111F8CFD5C0F7
:10528000822F8D7F09F0E0C0222319F0223061F0D7
:1052900033C080916104813009F0C7C0333009F018
:1052A00080E080935B0428C080916104811124C058
:1052B00020916304277009F4B8C02093E90080911D
:1052C000EB0080FF19C08091EB00313091F48061D8
:1052D0008093EB0081E090E0022E01C0880F0A94D9
:1052E000EAF78093EA001092EA008091EB00886070
:1052F00001C080628093EB001092E9008091E80089
:10530000877F8093E8008091E800982F9E7F66C099
:1053100021119AC0209161048091E800877F8093D9
:10532000E8009091E800892F8E7F8093E8009F77B6
:105330009093E8008091E80080FD05C080915E04B4
:105340008111F8CF72C0822F8F77982F9068909339
:10535000E300882309F469C083E080935E0465C09C
:105360002058223008F070C0AE014F5F5F4F60914F
:10537000630480916104909162040E9492020097FC
:1053800009F453C02091E800277F2093E800BC0176
:1053900089819A8126D11EC0203809F055C080919C
:1053A000E800877F8093E80080915C048093F1009F
:1053B0008091E800982F9E7F9093E8008F778093EC
:1053C000E8008091E80082FD05C080915E048111B3
:1053D000F8CF2BC08091E800982F9B7F9093E80036
:1053E0008F778093E80021C021112EC09091610435
:1053F0009230D8F48091E800877F8093E800909302
:105400005C048091E800982F9E7F9093E8008F774E
:105410008093E80080915C04882311F084E001C04F
:1054200083E080935E040E94FF048091E80083FF84
:105430000EC08091EB0080628093EB008091E800C9
:10544000877F8093E80003C00E941705EECF229665
:10545000E2E0C7C28093E900EBEEF0E0808181607A
:105460008083EDEEF0E010826093EC004083809149
:10547000EE00881F8827881F08951092F40080E0AE
:105480008093E9001092F0001092E8009091ED00F6
:105490009D7F9093ED009091EB009E7F9093EB00A9
:1054A0008F5F853069F7089580915F0487FD05C09F
:1054B0008091E80080FF0FC013C08091E80082FD5A
:1054C00005C080915E048111F8CF08958091E800B5
:1054D000982F9B7F09C080915E048111E9CF0895C8
:1054E0008091E800982F9E7F9093E8008F778093BB
:1054F000E800089585E69091EC0090FF05C090913A
:10550000E80090FF05C019C09091E80092FD15C019
:1055100090915E04992399F09091EB0095FD11C054
:105520009091E10092FFE7CF9091E1009B7F9093F3
:10553000E100815001F783E0089580E0089582E062
:10554000089581E0089540916504509166049B019F
:105550004617570708F49A0140E021153105A9F1D3
:105560005091E80053FD39C05091E80052FF06C049
:105570008091E80082FF2CC080E0089550915E0485
:10558000552369F15091E80050FFE7CFFC01CF01AE
:105590002115310551F04091F200483030F48191ED
:1055A0008093F10021503109F2CF5091F20041E097
:1055B000583009F040E05091E800652F6E7F60930D
:1055C000E8005F775093E800C8CF4111C9CFD0CF32
:1055D00080915E048111CCCF02C081E0089582E009
:1055E000089540916504509166049B014617570742
:1055F00008F49A0140E021153105B1F15091E8001D
:1056000053FD3AC05091E80052FF06C08091E80077
:1056100082FF2DC080E0089550915E04552371F102
:105620005091E80050FFE7CFFC01CF012115310573
:1056300059F04091F200483038F484918093F100A1
:10564000215031093196F1CF5091F20041E05830AC
:1056500009F040E05091E800652F6E7F6093E8000C
:105660005F775093E800C7CF4111C8CFCFCF80916B
:105670005E048111CBCF02C081E0089582E00895DD
:105680006115710571F12091E80023FD2FC0209173
:105690005E04222379F12091E80022FFF4CFFC017F
:1056A0008091F200882371F09F012F5F3F4FC90165
:1056B0004091F1004083615071096115710519F045
:1056C000F901EECFCF012091E800322F3B7F3093DC
:1056D000E8002F772093E800D3CF80915E048823E1
:1056E00049F08091E80080FFF8CF02C081E0089582
:1056F00080E0089582E0089553D055D010925E0462
:1057000010925C0410925B0410925A0419BC89B583
:10571000826089BD09B400FEFDCF8091D800982F2A
:105720009F779093D80080688093D8008091630021
:105730008E7F809363008091D8008F7D8093D80006
:105740008091E0008E7F8093E0008091E1008E7F69
:105750008093E1008091E20081608093E20080917B
:10576000E100877F8093E1008091E2008860809370
:10577000E2000895C1DF81E080935D04789408958C
:10578000BBDFE0EEF0E0808181608083E8EDF0E057
:1057900080818F77808319BC10925D0408950895ED
:1057A0001092E20008951092E10008951F920F9266
:1057B0000FB60F9211242F933F934F935F936F93E4
:1057C0007F938F939F93AF93BF93EF93FF938091BA
:1057D000E10080FF1CC08091E20080FF18C0809132
:1057E000E1008E7F8093E1008091E2008E7F8093C4
:1057F000E2008091E20080618093E2008091D80015
:1058000080628093D80019BC10925E04C8DF80913A
:10581000E10084FF29C08091E20084FF25C019BC0B
:1058200089B5826089BD09B400FEFDCF8091D800A2
:105830008F7D8093D8008091E1008F7E8093E1007E
:105840008091E2008F7E8093E2008091E20081608F
:105850008093E20080915C04882311F084E001C011
:1058600081E080935E049BDF8091E10083FF23C091
:105870008091E20083FF1FC08091E100877F8093C9
:10588000E10082E080935E0410925C048091E1006C
:105890008E7F8093E1008091E2008E7F8093E20012
:1058A0008091E20080618093E200E7DD42E060E009
:1058B00080E0D0DD74DFFF91EF91BF91AF919F91B8
:1058C0008F917F916F915F914F913F912F910F90A9
:1058D0000FBE0F901F901895CF9380915E04882380
:1058E00059F0C091E900C7701092E9008091E8007A
:1058F00083FD78DCC093E900CF910895002480FDFA
:10590000060E660F11F08695D1F7802D08950024BC
:10591000552704C0080E591F880F991F009729F0BA
:1059200076956795B8F37105B9F7802D952F089591
:10593000AA1BBB1B51E107C0AA1FBB1FA617B707B5
:1059400010F0A61BB70B881F991F5A95A9F78095D1
:105950009095BC01CD01089597FB072E16F4009495
:1059600006D077FD08D0E4DF07FC05D03EF4909523
:1059700081959F4F0895709561957F4F0895EE0F23
:10598000FF1F0590F491E02D09942F923F924F92C2
:105990005F926F927F928F929F92AF92BF92CF92BF
:1059A000DF92EF92FF920F931F93CF93DF93CDB7C8
:1059B000DEB7CA1BDB0B0FB6F894DEBF0FBECDBF40
:1059C00009942A88398848885F846E847D848C8411
:1059D0009B84AA84B984C884DF80EE80FD800C811A
:1059E0001B81AA81B981CE0FD11D0FB6F894DEBFFD
:1059F0000FBECDBFED010895CF93DF9382309105A7
:105A000010F482E090E0E0916904F0916A0420E0F3
:105A100030E0A0E0B0E0309739F140815181481783
:105A20005907B8F04817590771F48281938110978C
:105A300029F013969C938E9312972CC090936A042E
:105A40008093690427C02115310531F042175307AF
:105A500018F0A901DB0101C0EF019A01BD01DF01CE
:105A60000280F381E02DD7CF21153105F9F0281BF5
:105A7000390B2430310580F48A819B8161157105D1
:105A800021F0FB019383828304C090936A04809386
:105A90006904FE01329644C0FE01E20FF31F8193B8
:105AA000919322503109398328833AC020916704A9
:105AB00030916804232B41F4209118013091190191
:105AC00030936804209367042091160130911701E8
:105AD0002115310541F42DB73EB740911A0150917F
