:10000000E6C3000000C40000FEC300000C943914D5
:10001000FAC30000F8C30000F6C30000F4C30000F8
:10002000F2C30000F0C300000C94042FECC30000E6
:10003000EAC30000E8C30000E6C30000E4C3000018
:10004000E2C300000C94D613DEC30000DCC3000042
:10005000DAC30000E5C60000D6C30000D4C3000028
:10006000D2C30000D0C30000CEC30000CCC3000048
:10007000CAC30000C8C30000C6C30000C4C3000058
:10008000C2C30000C0C30000BEC30000BCC3000068
:10009000BAC30000B8C30000B6C30000B4C3000078
:1000A000B2C30000B0C30000AEC30000122C442C49
:1000B000282D442C282D8C2CB42C282DD02CF82C19
:1000C000428E0A62063243200546A00C69DF1D41BC
:1000D000E9195A5D1C4E4A1D6BE52247A30C4DDB06
:1000E0000C4B490D55CE0D590F2052FF0954B32624
:1000F00056F80A573F0A58480F65B80A66722A6DC3
:10010000C32B4CF9076C7D0A74700775C01678B361
:10011000050000002A03430055004C003400330062
:10012000330000002A03430055004C00380036001D
:10013000380000001603620075007300770061004C
:10014000720065002E0064006500000004030904CD
:10015000090243000201008032090400000102028A
:1001600001000524000110052401030104240206F6
:100170000524060001070582030800FF09040100A9
:10018000020A000000070504024000000705830280
:100190004000001201100102000008EB034B200098
:1001A0000001020001202F2000203D2000072E0525
:1001B0000DD391FF080500000C0021656A2D3B134B
:1001C00022F862073F181D1CC700B0876BF8B611F4
:1001D000EA2A001F41000D2E2D07D3913D04320065
:1001E00000060021656A55E43023B90007001814A1
:1001F0006C070090876BF85611E92A001F41000038
:10020000030F1E2627000000030F1E253638670047
:10021000030F256740605000030F2751888381003A
:10022000030F2750C8C3C2002700000000000000D1
:100230006700000000000000500000000000000007
:100240008100000000000000C2000000000000501B
:100250004C4C310D0A00504C4C300D0A00562031E8
:100260002E36362043554C383638005620312E363F
:10027000362043554C3433330043554C5F563300DE
:10028000202F2000203D20004C4F56460D0A0042F2
:100290004F56460D0A004552523A4343410D0A005B
:1002A0000B08105B11F81547191D1A1C1BC71C0001
:1002B0001DB221B623EA0007022E030D04E905CA88
:1002C000070C0B060D210E650F6A10C8119312035F
:1002D00015341733181819161B43215625002611FB
:1002E00029592C812D353EC34C454E4552520D0A9D
:1002F000004C4F56460D0A004C454E4552520D0AD1
:10030000000007024604C605260B0610C81193120A
:100310000313221534173F182819161B432156259D
:100320000026110D210E650F6A070C160720F81E16
:10033000871F6B29592C812D353EC3FF00737065D3
:10034000636966792076616C6964206D6F646520ED
:100350006E756D6265720D0A000302FF00000000F9
:100360000000000000000000000000000003021078
:10037000881182FF00000000000000000000000063
:100380000003071088110B0D210E6B0FD01553FFC2
:1003900000000000000B060D210E650F6A17001803
:1003A0001819161B431C682500261100010246057A
:1003B000D4042D0302070008021089115C120615EF
:1003C00056FF000D2E2D07D3913D0432000006008C
:1003D00010B07155E43023B900070018146C070001
:1003E00090876BF85611E92A001F41000D2E2D074A
:1003F000D3913D04320000060010ABA5550A30230E
:10040000B900070018146C070090876BF85611E9C3
:100410002A001F41000D0A006B72002043686563CB
:100420006B73756D204572726F720D0A004B6F70A1
:100430007020436F6D6D616E6420556E6B6E6F77CB
:100440006E0D0A004B6F70702052656365697665AA
:1004500020537562436F6D6D616E6420556E6B6ED7
:100460006F776E0D0A0052585F494E49545F4552EE
:10047000525F4D41524353544154455F5258006BB3
:1004800072532D5265636569766553746172740D9C
:100490000A006B72452D52656365697665456E6429
:1004A0000D0A00204279746573206F72204B6579C4
:1004B000636F6465206973206E6F206865782076AD
:1004C000616C75650D0A004B6F7070205472616E1F
:1004D000736D69747420436F6D6D616E64206E6F0F
:1004E0007420657175616C20746F2000426C6F63BD
:1004F0006B330D0A00426C6F636B320D0A005B6850
:1005000065785D0D0A007469636B732D426C6F63CF
:100510006B537461727454696D653A20005B686551
:10052000785D0D0A004B65794F666654696D653AD2
:100530002020202020202020202020005B686578BB
:100540005D0D0A00426C6F636B20537461727420FE
:1005500054696D653A2020202020005B6865785D35
:100560000D0A005469636B2054696D65723A20204E
:10057000202020202020202020005B6865785D0D51
:100580000A004B65794F666654696D6520696E2077
:100590007469636B733A2020006D7365630D0A0004
:1005A0004B65794F666654696D653A20202020209E
:1005B000202020202020000D0A005469636B205465
:1005C000696D65723A2020202020202020202020E4
:1005D000000D0A000D0A416D6F756E74206F662064
:1005E000427974657320284865782920666F756E96
:1005F0006420696E7369646520636F6D6D616E64FC
:10060000206C696E6520706172616D657465723A07
:100610002020202020202020202020000D0A4E65B0
:100620007874204368617261637465722028696E12
:10063000742920616674657220706172616D6574E1
:100640006572202873686F756C64206265206C6920
:100650006E6520656E6420636861726163746572A3
:10066000293A20000D0A537472696E676C656E67D3
:1006700074683A202020202000636F6D6D616E64E5
:100680006C696E65706172616D657465723A2000A7
:100690005472616E736D6974740D0A0054585F4929
:1006A0004E49545F4552525F00012E4604AA540F32
:1006B000E0000000060021656A97831663B94707CA
:1006C0000C29366C074091876BF85611E92A001FF8
:1006D00041004E2F4100454F420D0A004E2F410070
:1006E0004E2F410000535300547D7DFFFF4B4B7E46
:1006F0007E0020697320756E6B6E6F776E292055B2
:100700007365206F6E65206F66003F2028004F469E
:1007100046004F464600544D4F444500534D4F440C
:1007200045006E6F7420636F6D70696C656420693D
:100730006E0D0A000454053D1700000602000B0868
:100740000C000D210E6B0FD0105C11041206132249
:1007500014F80A00154421B622101818192E1ABFD1
:100760001B431C091DB523EA242A2500261F2959ED
:100770002C812D352E0907040800090006FF3EC212
:10078000FF047605961700000602000B080C000D0A
:10079000210E650F6A106A114A1206132214F80A14
:1007A00000154721B622101818192E1A6D1B041CAB
:1007B000091DB223EA242A2500261F29592C812D40
:1007C000352E0907040800090006FF3EC2FF112468
:1007D0001FBECFEFDAE0DEBFCDBF11E0A0E0B1E099
:1007E000E0EDFEE602C005900D92A03CB107D9F7FE
:1007F00029E0A0ECB1E001C01D92A835B207E1F7F5
:100800000CD00C946637FCCBF89481E085BF82E075
:1008100085BFE0E0F8E3099508952FE088E190E0D6
:100820000FB6F894A895809360000FBE20936000E7
:1008300090E080E80FB6F894809361009093610097
:100840000FBE2E9A2D9A04B603FE0AC083E390E0F1
:10085000BDD5882329F060E083E390E0B2D5D4DFF2
:1008600089EF87BD84E085BD82E084BD80936E0002
:10087000109280008AE08093810084B7877F84BFD4
:100880006E9A0E94912BA1D60E94D92E0E945326C7
:100890000E94220F80E59BE29093D9038093D803B6
:1008A0000E94E41589E08093C40176980E94B42FD9
:1008B000F2D10E9449112AD30E94B82A0E946217DD
:1008C0000E9460180E94E51B0E940B1D0E942125BA
:1008D0000E94F030EBCF292F33272230310559F019
:1008E0002330310569F02130310539F582E190E09E
:1008F00023E931E026C083E490E020E531E021C027
:1009000099278130910539F018F0029751F015C000
:10091000ECE4F1E002C0E4E3F1E0849190E09F01B7
:1009200010C01E9903C024E131E002C024E231E08E
:10093000E4E2F1E0849190E004C080E090E020E007
:1009400030E0FA013183208308958EBD0DB407FE97
:10095000FDCF8EB50895A1E0B0E0E1EBF4E00C949A
:100960004A34482F8A3008F048E088E0489F7001F8
:100970001124F701E150FE4F7F018BE290E0F70177
:1009800064918C010F5F1F4F49831BD5FFEFEF1A56
:10099000FF0A49810333110511F0C801F0CF45501A
:1009A000453010F461E101C067E184E290E009D5CF
:1009B0002196E6E00C946634CF93DF9382E090E0DA
:1009C000FC01EC52FE4F6491EC012196FAD4CB323B
:1009D000D10511F0CE01F4CF87E390E0FC01EA5895
:1009E000FE4F6491EC012196ECD4C036D10511F094
:1009F000CE01F4CF1E9918C060E18FE090E0E1D401
:100A000060EB80E190E0DDD461E781E190E0D9D452
:100A100060E184E490E0D5D460EB85E490E0D1D44B
:100A200061E786E490E0CDD488E095DFDF91CF9157
:100A300008952898806C89DF80E087DF289A0895E0
:100A4000A1E0B0E0E6E2F5E00C944D3441E0BE01F7
:100A50006F5F7F4F01965AD4892B21F189818939A3
:100A600069F410E0812FE5DF4DD4812F8770873046
:100A700009F4D4D31F5F1033A9F714C0DADF182F9D
:100A800083E480D389813ED489EA91E0BAD3812F6F
:100A900039D485EA91E0B5D340E262E0812F90E05D
:100AA000C1D3BCD32196E3E00C946934A1E0B0E05B
:100AB000ECE5F5E00C944E3428988064698345DFBA
:100AC0006981862F42DF289A2196E2E00C946A34ED
:100AD00028983BDF289A0895EF92FF920F931F9377
:100AE000CF93DF93EC0110927002EA98209A289A33
:100AF0008EE190E0DDD228988EE190E0D9D2289A5C
:100B00008DE290E0D5D280E3E3DF84E690E0D0D2BE
:100B1000289880E41ADF7E0189E2E80EF11C8E013C
:100B20000F5F1F4FCE0152D410DF0E151F0511F0BD
:100B3000E801F5CF289A28988EE707DF8BE290E04E
:100B4000EC01219643D401DFC333D10511F0CE016E
:100B5000F7CF289A83E3BCDF81E0AFD2CDB7DEB711
:100B6000E6E00C946634A1E0B0E0E9EBF5E00C942B
:100B70004E3422E0298341E0BE016F5F7F4F019632
:100B8000C5D38981E8DE82E090E0A6DF2196E2E02D
:100B90000C946A34CF93EA9886E39ADFCFEF85E32B
:100BA00097DFC1508077803229F08AE090E080D2D0
:100BB000C111F5CFCF910895CF93CFEF84E388DFB4
:100BC000C1508077803129F08AE090E071D2C11164
:100BD000F5CFEA9ACF91089586E37ADF1092DA038F
:100BE00010926E0210927002089582E090E074DF1D
:100BF00081E08093DA0310926E02109270020895E1
:100C00000F931F93CF93DF93082F10E0C62FD0E0F0
:100C100085E30FDF801731F0CE014AD21150C1F7C2
:100C200081E001C080E0DF91CF911F910F91089585
:100C300085E2FFDE8F3311F080E0089586E348DF20
:100C40008091C001811104C086E592E0DAD202C031
:100C50008DE33EDF83E33CDF64E081E0D1DF85E2CA
:100C6000E8DE8F3349F78091C001811103C08FE422
:100C700092E0C7D281E0089585E3DBDE8D3051F448
:100C800085E2D7DE8F3331F4D3DF84E321DF807751
:100C90008031D9F708958091CC05843009F069C07E
:100CA0008093E9008091C10181112AC08091E80000
:100CB00085FF26C08091F2009091F300892B31F0DE
:100CC0006091F10085E495E0A8D4F4CF8091E8002C
:100CD000982F9B7F9093E8008F778093E80081E0C6
:100CE0008093C1018BE496E09093D7038093D60361
:100CF000E091D803F091D90381E009951092C101E8
:100D000083E08093E9008091C404882391F180916D
:100D1000E80085FF2EC0F8948091C404882369F010
:100D20008091F2009091F3008034910530F482ECD0
:100D300094E089D48093F100EFCF78948091F20011
:100D40009091F3002091E800322F3E7F3093E8002D
:100D50002F772093E8008034910559F40E947E2D6E
:100D60008091E800982F9E7F9093E8008F77809382
:100D7000E800089542E061EC82E00E942E2D42E3FB
:100D800061E883E00E942E2D42E360E884E00E9447
:100D90002E2D10920001109201011092020110926A
:100DA000030108958091CD059091CE05913229F0EF
:100DB000923261F1903299F512C0813A81F58091B9
:100DC000E800877F8093E80067E070E080E091E0D2
:100DD0000E94A72D8091E800982F9B7F11C081323F
:100DE000F1F48091E800877F8093E80067E070E08D
:100DF00080E091E00E94512E8091E800982F9E7F24
:100E00009093E8008F778093E8000895813239F459
:100E10008091E800877F8093E8000C94582D089516
:100E20001F920F920FB60F9211248F939F93AF933F
:100E3000BF93EF93FF938091DC039091DD03A0912A
:100E4000DE03B091DF030196A11DB11D8093DC0389
:100E50009093DD03A093DE03B093DF038091DB0367
:100E60008F5F8093DB03E3E8F4E0808191811816C3
:100E700019061CF4019791838083369684E0EB3940
:100E8000F80799F780919D0490919E04009729F0AE
:100E9000019790939E0480939D048091B0048F3FAE
:100EA00019F081508093B004FF91EF91BF91AF9101
:100EB0009F918F910F900FBE0F901F9018952FB795
:100EC000F8944091DC035091DD036091DE03709152
:100ED000DF03FC0140835183628373832FBF089536
:100EE000A4E0B0E0E6E7F7E00C944E34CE010196C2
:100EF000E6DF8C8107D28B8105D28A8103D289817A
:100F000001D28CD12496E2E00C946A341F93CF93E3
:100F1000DF938091DC039091DD03A091DE03B0911B
:100F2000DF032091C301281709F45FC08091DC031F
:100F30009091DD03A091DE03B091DF038093C301A4
:100F4000A895C3E8D4E010E028813981232B19F457
:100F5000812F0E94E2281F5F26961430A9F7809106
:100F60009D0490919E04892B11F40E943E2980914A
:100F7000B004811102C00E949C2980916F048823D3
:100F800039F0815080936F04811102C00E94F717DD
:100F90008091DB038D3748F11092DB0380910701CC
:100FA00081FF04C08EB190E489278EB98091E0035F
:100FB0009091E103843823E0920728F401969093FE
:100FC000E1038093E0038091C2018F5F8093C201AF
:100FD0008C3359F41092C201809182048F5F809308
:100FE00082048C3310F010928204DF91CF911F9114
:100FF0000895A0E0B0E0EFEFF7E00C9449348C01E5
:101000006EE070E00E94F8368D3009F04CC0769AA0
:1010100080917002882341F0109270028AEB91E077
:1010200037D7DD24D39401C0D12C8091DA0381110C
:1010300001C0DBDDAFDD84E0F82E5B9A88EE93E043
:1010400037D0C1E0D0E0EE24E394F801EC0FFD1FAF
:101050008081813309F0E12C5B98EE2019F088EE55
:1010600093E002C080ED97E023D05B9AEE2019F068
:1010700080ED97E002C088EE93E01AD02196CD3043
:10108000D10509F75B9883E218D0FA94B1F6809104
:10109000E303882311F090DD02C086E319DDD1104F
:1010A0000E94011A7698CDB7DEB7E7E00C9465345C
:1010B000880F991F0197F1F7089520ED37E08150CF
:1010C00020F0F9013197F1F7FACF0895CF93DF932C
:1010D000DC0113968C911397843509F050C0CD0133
:1010E0000396CC91FD0170964DE04C1750F050E006
:1010F000D0E09E012F5031094217530709F03FC03D
:1011000005C021912B3399F34F5FEFCFFE013E973E
:10111000E80FF91F2081243591F514963C9114971E
:10112000218132132CC015963C91159722813213E0
:1011300026C016963C9116972381321320C017962D
:101140003C911797248132131AC06197C80FD91F99
:10115000858188838681898381858A8382858B8343
:1011600083858C8384858D8385858E838C918A503D
:101170008C9312968C9112978A5012968C93DF91D1
:10118000CF910895CF93C82F8091CC05843079F406
:101190008091C40180FF0BC08091C40487FD7BDD7A
:1011A0006C2F82EC94E039D2CA3009F474DD80915E
:1011B0007A048823C9F08091C40183FF15C0CA3026
:1011C00099F0CD3011F46BE301C06C2F8AEE93E0FF
:1011D00024D2CD3019F48AEE93E078DF83E0809357
:1011E0006F0482E080937504CF910895CF93DF93CD
:1011F000EC018991882311F0C5DFFBCFDF91CF91FE
:101200000895CF93DF93EC01FE018491882319F0B8
:10121000B9DF2196F9CFDF91CF9108958DE0B2DF4C
:101220008AE0B0CFA6E0B0E0E8E1F9E00C944C34FD
:10123000062F1E8215E02AE030E01150E1E0F0E0D8
:10124000EC0FFD1FE10FF11DB9010E941134805D0B
:101250008083CB010150009769F01111EECF0AC0D5
:10126000112359F01150E1E0F0E0EC0FFD1FE10F08
:10127000F11D4083015007FFF3CF81E090E08C0F18
:101280009D1F810F911DB2DF2696E4E00C94683417
:10129000A5E0B0E0EEE4F9E00C944E341D8224E0C9
:1012A000382F3F702150E22FF0E03A3010F4305DDB
:1012B00001C0395CA1E0B0E0AC0FBD1FEA0FFB1F1D
:1012C000308334E0969587953A95E1F76150009721
:1012D00039F7615067FD0BC0222349F02150E1E04E
:1012E000F0E0EC0FFD1FE20FF11D4083F2CF81E033
:1012F00090E08C0F9D1F820F911D78DF2596E2E014
:101300000C946A3440E362E090E0C2CFDC01FB0160
:1013100030E090E08D918823A9F0813608F080526A
:1013200020ED280F2A3030F02FEB280F263030F434
:1013300029EC280F292B332379F006C0803251F392
:101340008A3341F3CF0105C0CF010196208341507C
:1013500041F4861B970B0895922F9295907F31E070
:10136000D9CFFC01D5CF20E030E05AE0FC0141911B
:10137000CF01442379F0E0EDE40FEA30B8F7F9014A
:101380005E9F90015F9F300D112420533109240F7F
:10139000311DECCFFB01318320830895982F929566
:1013A0009F709A3010F4905D01C0995CFB019083AE
:1013B0008F708A3010F4805D01C0895CFB018183ED
:1013C00008950E940B37F999FECF08950C940337C6
:1013D00008951F93CF93DF93162F11501F3F59F09D
:1013E000EC012196F3DF8EDF112311F08AE3CADED0
:1013F0001150CE01F3CFDF91CF911F910895A2E05C
:10140000B0E0E5E0FAE00C944B34FC0121812D348E
:1014100021F466E08AEF93E005C0203529F460E10D
:101420008AED93E0D6DF26C01A82198242E0BE011F
:101430006F5F7F4F01966ADF098110E0823021F4EF
:10144000102F00278A81082BC801C0DFF82E82E503
:1014500099DE40E364E0C8011BDF84E892E0D1DE5E
:101460008F2D50DF80E892E0CCDE40E262E08F2DED
:1014700090E0D8DED3DE2296E5E00C946734A6E057
:10148000B0E0E5E4FAE00C9448346C0143E0BE01BE
:101490006F5F7F4F01963ADF823058F1E980F12C7F
:1014A000823021F0FE2CEE242A81E22A8C011127C1
:1014B000FE01E00FF11F6081C70183DF000F111FE4
:1014C0000F5F1F4F0C0D1D1DF8018081882389F0CF
:1014D00041E0BE016F5F7F4FC80118DF892B49F0E3
:1014E0008FEFE81AF80A6981C7016BDF0E5F1F4FA3
:1014F000EBCF2696E8E00C94643441E067E071E0BD
:10150000019604DF8091070180FF02C0769A01C036
:1015100076986091070184E390E053CFA1E0B0E0BA
:10152000E4E9FAE00C944E341982009731F041E07E
:10153000BE016F5F7F4F0196E9DE89818F3F09F41D
:10154000FFCF882321F061E083E390E03ADF0E943F
:10155000E42E10926E00F89428E088E190E00FB637
:10156000F894A895809360000FBE20936000FFCF91
:10157000CF93DF93EC0161E080E090E022DF62E452
:1015800081E090E01EDF18DA60E080E690E019DF8D
:1015900060E081E690E015DF60E083E390E011DF3A
:1015A00062E084E390E00DDF60E080E690E009DF38
:1015B00060E081E690E005DF8981883719F080E0FE
:1015C00090E0ACDFDF91CF91089580E090E0FEDE07
:1015D000813029F481E090E0F9DE823419F080E076
:1015E00090E0C6DF84E390E0F1DE80930701089588
:1015F000FC018181883419F489E792E007C01E99C3
:1016000003C08BE692E002C08DE592E0FADD06CEE3
:10161000FC011282108211820895FC018FB7F894A8
:10162000928197FD0EC09F5F9283208191E0920F7F
:101630009083DF01A20FB11D13966C93903809F4CB
:1016400010828FBF0895FC019FB7F8948281882390
:1016500071F081508283818121E0280F2183DF0195
:10166000A80FB11D13968C91203809F411829FBFE9
:101670000895FA013081882369F0E1E0F0E0022E5C
:1016800001C0EE0F0A94EAF7DB01A30FB11D9C9194
:101690009E2B9C93222319F08FEF820F0BC081E0C9
:1016A000830F8C3010F4FA018083FB01E80FF11DE9
:1016B000108287E090E00895CF93C82F5B9A88232B
:1016C00019F08091C70102C08091C90120E1829F79
:1016D000C0011124EDDC5B98CC2319F08091C60188
:1016E00002C08091C80120E1829FC0011124E0DC8A
:1016F000CF910895A3E0B0E0E0E8FBE00C943E3425
:101700005C01162F622E842F90E09B838A832091A8
:10171000E0033091E1030296089F802D1124992760
:1017200087FD90952817390720F488E892E069DD55
:101730007DC0281B390B3093E1032093E003769A98
:1017400080917002882341F0109270028AEB91E040
:101750009FD3FF24F39401C0F12C8091DA0381110F
:1017600001C043DA17DA812E912CCC24C394D12CFA
:10177000712C512C852D992787FD909588159905F9
:1017800024F480E099DF5394F5CF112311F081E028
:1017900093DF20E0422E552447FC5094EA81FB81E0
:1017A0004E165F062CF097E0392E4A0C5B1C1AC0CF
:1017B00087E0282E312C4A0C5B1CC601022C01C08C
:1017C000880F0A94EAF7F20190818923298374DF54
:1017D000F1E02F1A310829818FEF2816380669F7B2
:1017E0002F5FD8CF832D992787FD909568167906AE
:1017F00064F4C601032C01C0880F0A94EAF7F201D1
:101800009081892359DF3A94EDCF8E2D56DC01501B
:1018100009F0AFCF8091E303882311F0CDD902C046
:1018200086E356D9F1100E94011A76982396E2E1D8
:101830000C945A34ADE0B0E0E0E2FCE00C944134AA
:101840007C01162F842F022F6701C60ED11C462F54
:10185000B70133D3D6018C931F5F1D8619825E2C8E
:10186000670127E066246394712C8C2D85198117FC
:1018700088F547E0A42EB12C4701880E911CF30196
:101880000A2C01C0EE0F0A94EAF7D4018C91AE0144
:10189000435F5F4FBE016F5F7F4F8E23EADE282FCD
:1018A000B1E0AB1AB10858F7D6018D916D01082E41
:1018B00082958025082E8695869580258F5F869552
:1018C0008170AE01435F5F4FBE016F5F7F4FD1DE1E
:1018D000282FCBCF222311F0215004C08D858F5F9C
:1018E0008D8727E089E18093C8018093C90185E253
:1018F0008093C6018093C7013AE0E32E4D856CE0EA
:10190000CE010196F7DE2D96EFE00C945D34ADE04C
:10191000B0E0EDE8FCE00C944D34162F242F4BE0A2
:10192000BE016F5F7F4F01962D87F0DC2D85412F23
:10193000682FCE0101967EDF2D96E3E00C9469348A
:1019400043E066E0E4CFEF920F93CF93DF93CDB700
:10195000DEB760970FB6F894DEBF0FBECDBF40E193
:10196000BE016F5F7F4F0196D1DC69814A810B8197
:101970008C818093C9018D818093C8018E81809371
:10198000C7018F818093C601E02EE2947FE0E722B9
:101990000F70242F2F7042954F70CE010896AADE4B
:1019A00060960FB6F894DEBF0FBECDBFDF91CF912A
:1019B0000F91EF900895A9E1B0E0E1EEFCE00C9406
:1019C00046344BE0BE016F5F7F4F01969FDC182FBE
:1019D000893009F05AC099E19093C8019093C901E8
:1019E0009093C70182E38093C60169E0CE0101961E
:1019F0006ED2E1E0F0E0EC0FFD1FE10FF11D8083FE
:101A0000198E1D86CE0101967C016E019BE0C90EE8
:101A1000D11C27E0AA24A394B12CEC14FD0429F1D5
:101A200000E010E0F501002E01C0EE0F0A94EAF785
:101A3000D7018C91AE01475E5F4FBE01635F7F4F60
:101A40008E2317DE282F0F5F1F4F0830110551F727
:101A5000AE01475E5F4FBE01635F7F4F81E009DEED
:101A6000282FBFEFEB1AFB0AD8CF222311F0215009
:101A700004C0898D8F5F898F27E0EAE0EE2E03E0B6
:101A8000498D6CE0CE010D9635DE6996EAE00C9446
:101A90006234A9E1B0E0EFE4FDE00C9445344BE0A2
:101AA0009E012F5F3F4F7901B90101962FDC182F5E
:101AB00085E38093C90196E19093C8019093C70193
:101AC0008093C601612FC7010ED2F701E10FF11D0E
:101AD000808399249394910E198E1D86870127E0A7
:101AE000AA24A394B12C802F8E19891508F04AC01E
:101AF000C12CD12CF5010C2C01C0EE0F0A94EAF791
:101B0000D8018C91AE01475E5F4FBE01635F7F4F8E
:101B10008E23AFDD282FBFEFCB1ADB0A34E0C316CC
:101B2000D10441F7AE01475E5F4FBE01635F7F4F57
:101B300081E09FDD282FB4E0CB2ED12CF5010C2CB9
:101B400001C0EE0F0A94EAF7D8018C91AE01475E0E
:101B50005F4FBE01635F7F4F8E238BDD282FBFEF6A
:101B6000CB1ADB0A38E0C316D10441F7AE01475E59
:101B70005F4FBE01635F7F4F81E07BDD282F0F5FEA
:101B80001F4FB1CFAAE0EA2E03E0498D6AE0CE01F3
:101B90000D96B0DD6996EBE00C946134EF920F93F3
:101BA000CF93DF9300D000D0CDB7DEB743E0BE01C6
:101BB0006F5F7F4F0196AADB8AE68093C90194E2AA
:101BC0009093C80191E29093C7018093C60180E889
:101BD0008C839FE0E92E03E026E043E060E0CE0145
:101BE000019688DD0F900F900F900F90DF91CF91AD
:101BF0000F91EF9008958F929F92AF92BF92DF92D4
:101C0000EF92FF920F931F93CF93DF931092E50112
:101C10001092FA01FC012181220F220F220F338141
:101C2000231B57E0520F1092E60110E070E038E0FD
:101C3000D32ED20EFF24F39447E007E0E12CC7E057
:101C4000D0E0A1E0B0E0FD1409F47FC0FC01EE0D8E
:101C5000F11D248130E0002E02C0359527950A94AD
:101C6000E2F721703327E22F002311F0015002C068
:101C7000E39407E06B3471F4433009F04AC011116A
:101C800007C0E1115FC01092E5017093FA0174C0C2
:101C900010E041C04F3F31F56634A9F4E72FF0E082
:101CA000EA51FE4FE0810E2EE295E0250E2EE695DC
:101CB000E695E025EF5FE1FB882480F8912C821601
:101CC000930641F004C0653429F4E11103C0109378
:101CD000E501DBCF7F5FE72FF0E0EA51FE4F108296
:101CE00047E031C0EE2361F1663471F4E72FF0E094
:101CF000EA51FE4FA0809D01042E01C0220F0A94DC
:101D0000EAF7A22AA0821CC0653439F06B34C1F412
:101D100004C04F3FD1F2EE2399F0E72FF0E0EA51F3
:101D2000FE4F9E01241B310947FD33955D0102C022
:101D3000AA0CBB1C2A95E2F795013081322B308327
:101D4000415001C011E0F3947ECF1093E5017093F0
:101D5000FA015F1588F4653431F44F3F21F47F5F59
:101D60007093FA0104C08091E5018111F8CF81E000
:101D70009091FA01911101C080E0DF91CF911F9104
:101D80000F91FF90EF90DF90BF90AF909F908F905A
:101D9000089510926F00E091FD018CE1E89FF00141
:101DA0001124E250FE4F10828091E2038D7F8093D8
:101DB000E2030895FC012181243108F0EACF338148
:101DC000662381F081E090E0032E01C0880F0A9421
:101DD000EAF7DF01A20FB11D14969C911497982B7E
:101DE00014969C93332319F031503383089587E080
:101DF00083832F5F2183E20FF11D14820895DC019C
:101E00001196EC911197F0E050E02C91CF01841BDA
:101E1000950B0B964797A0F430E070E0C901861B44
:101E2000970B0B96479760F42E0F3F1F640F751F9B
:101E3000261B370B255F3F4F81E02731310508F026
:101E400080E00895539A5B985298E9E6F0E080812B
:101E50008061808382EC91E09093E1038093E003C2
:101E600010921A0210923602109252021092DA0365
:101E700008958091D40381110AC08091E3038823DF
:101E800021F00E94F5050C94DC050C94EC050895F6
:101E9000FC01218121110BC08091E30333DA40E280
:101EA00065E08091E0039091E103BCD9B7C941E0BE
:101EB00063EE73E001962ADADCCF442339F0415017
:101EC000FB01E40FF11D9081890FF7CF089520E009
:101ED000662339F06150FC01E60FF11D30812327A4
:101EE000F7CF822F0895A091E50140E035E020E092
:101EF000662399F06150FC01E60FF11D5081752FAA
:101F000072957F702727370FAA2311F0442319F009
:101F10005F702527350F4F5FEBCF320F40E1349FC5
:101F2000C0011124822B0895FC0132812381A081FC
:101F3000B181A30FB11D8C9190E0022E02C0959546
:101F400087950A94E2F7817099274FEF420F4383F8
:101F5000211104C03F5F328327E023830895A2E06C
:101F6000B0E0E5EBFFE00C9446347C01A12CB12CF1
:101F7000D12CCC24C394062F10E001501109A616D1
:101F8000F0F4C7014A836983CFDF4A8169818823DE
:101F900091F0442349F098012A193B098C2D01C086
:101FA000880F2A95EAF706C08C2D0A2C01C0880FED
:101FB0000A94EAF7D82A8FEFA81AB80AE0CF8D2D35
:101FC0002296EAE00C946234A4E0B0E0EAEEFFE08E
:101FD0000C9445341B8227E02C839C012C5F3F4FDF
:101FE0003A8329831092FA01FC012181338187E031
:101FF00090E0831B9109F8E02F9F800D911D112423
:10200000853491050CF44EC0B12CA090FA01F5E096
:10201000FA1558F10A2D10E040E068E0CE01019673
:102020009EDF0A511E4FF8018083982E092C92944E
:102030009024092C969496949024CE01019674DFF6
:10204000939491FACC24C0F8D12C90E0C816D9060C
:1020500049F5CE01019668DF811124C0F801808125
:10206000B826A394A092FA01D0CF40E068E0CE0158
:10207000019675DF082F182F012E12951025012EBD
:10208000169516951025CE0101964EDF1F5F11FBA8
:10209000EE24E0F8F12C282F30E0E216F30611F4DC
:1020A00081E0B01280E02496EBE00C946134A5E06E
:1020B000B0E0EDE5F0E10C944934FC011B8287E0CF
:1020C0008C83CF0104969A8389838081853009F0BF
:1020D00051C02181338187E090E0831B910938E072
:1020E000239F800D911D11248039910509F042C074
:1020F0001092FA010FE010EF29E88091FA01E82E22
:10210000F12CDD24D394D80E41E068E08F3088F4C0
:10211000CE0101962D8323DF080F111DF701EA512F
:10212000FE4F2D812827208324E2280FD092FA0128
:10213000E4CFCE01019613DF080F111DD092FA01F2
:10214000F701EA51FE4F8095808341E068E0CE01BF
:10215000019605DF90E0982F8827081B190B41E0B6
:1021600068E0CE010196FBDE282F30E081E0021707
:10217000130709F080E02596E7E00C946534A4E0AD
:10218000B0E0E5ECF0E10C944B341B8227E02C83AB
:102190009C012C5F3F4F3A832983FC01218124302D
:1021A000A1F58381813089F51092FA018091FA01BD
:1021B000082F10E0FF24F394F80E41E0843098F4E7
:1021C000811106C067E0CE010196C9DE806804C0B7
:1021D00068E0CE010196C3DEF801EA51FE4F80832C
:1021E000F092FA01E3CF67E0CE010196B8DEF80184
:1021F000EA51FE4F880F8083F092FA019091E60138
:1022000092959F7081E09A3009F080E02496E5E095
:102210000C946734CF93DF93FC0181818330E9F420
:1022200083818730D1F480818830B9F41092FA012B
:1022300020E0822F90E0DC01AA51BE4FEF01C80FD1
:10224000D91F8C818C9381E0820F833010F4282F6A
:10225000F0CF8093FA0181E001C080E0DF91CF915F
:102260000895FC0190818091E203993611F0933733
:1022700051F4982F9370913011F4826006C080FF62
:1022800007C08B7F03C080FD03C084608093E2039E
:102290000895A1E0B0E0EFE4F1E10C944A34198232
:1022A0008091CA018823B9F18091E30387FF17C0A9
:1022B00084E30E9419058058803458F0803C58F41B
:1022C00090E08055910953E0959587955A95E1F7EF
:1022D00003C080E001C08FE08F590E94C208809146
:1022E000E30383FF16C082E70E94C2088091E303E4
:1022F00084FF04C08091CB010E94C20886E60E9440
:10230000C2088091E30384FF04C08091CA010E9447
:10231000C2081092CA018091FB01882309F442C2CD
:10232000769A0091FC012CE1029F80011124025059
:102330001E4F8981811106C0C8016CDF882311F00E
:1023400083E789838981811106C0C801B0DE8823B3
:1023500011F083E589838981811139C066E4C80160
:102360004ADC8823A1F1F090FA01FA94F092FA0184
:102370004F2D66EE71E086E0A0DDEF2DF0E0EA5132
:10238000FE4FE0808E1105C093E09F1510F486E4A7
:102390001BC0282F30E02F5F3F4F6E2D70E02617B7
:1023A000370739F423E02F1520F496E499838083CE
:1023B0000EC04F2D66EE71E08CE07FDD8E1106C001
:1023C00083E08F1518F484E5898301C0198289811F
:1023D000811116C065E4C8010EDC882389F0809164
:1023E000FA0181508093FA01893051F469E086EE58
:1023F00091E06DDD9091EF01891302C085E489833E
:102400008981811106C0C801DFDD882311F088E4CD
:1024100089838981811106C0C801B1DE882311F04A
:1024200084E789838981811133C0F801438D6091EC
:10243000CB01C8014A96E3DC682FC801BBDC6BE422
:10244000C801D9DB8823B1F0F090FA01FA94F09238
:10245000FA016F2D86EE91E046DDEF2DF0E09091D0
:10246000E501E91BF109EA51FE4F9081891302C091
:102470008BE48983898181110BC0F801838191E00C
:10248000980F9383873021F4138281818150818357
:10249000898181112DC0F8018181843049F58381C2
:1024A000843031F54EE16CE3C8014896A8DC8823FE
:1024B000F9F04EE16091CB01C8014A96A0DC682F8B
:1024C000C80178DC20E0822F90E0FC01EA51FE4F49
:1024D000D801A80FB91F14968C91808381E0820FD8
:1024E000853010F4282FEFCF8093FA0182E589839D
:1024F0003981332309F4CAC02091E30320FFC6C009
:102500008091E2038E7F8B7F8093E20321FD64C084
:102510005091E401F090FA015F113DC040E0451791
:10252000C0F4842F90E061E0640FFC01E053FE4FA3
:10253000DC01AA51BE4F70818C91781741F0409315
:10254000E4018091E2038D7F8093E20304C0462F73
:10255000E6CF4093E40145131EC04091DC03509147
:10256000DD036091DE037091DF038091CC019091D7
:10257000CD01A091CE01B091CF01481B590B6A0B40
:102580007B0B463251056105710528F48091E20309
:1025900081608093E20340E04F1560F4842F90E067
:1025A000FC01E053FE4FDC01AA51BE4F8C918083A9
:1025B0004F5FF2CF4093E4018091DC039091DD0303
:1025C000A091DE03B091DF038093CC019093CD0105
:1025D000A093CE01B093CF013435E9F426FD1BC0A2
:1025E0008091FA018530B8F08091E8018B3471F068
:1025F000893661F09DEA980F923040F08D57823015
:1026000028F08091E9018077803729F48091E203F6
:1026100081608093E203B801CE01019622DE8091B1
:10262000E20382FF33C089810E94C2088091E501E4
:10263000882329F08091FA0181508093FA01F12CCE
:10264000E091FA01FE1648F4EF2DF0E0EA51FE4F5A
:1026500080810E948209F394F3CF8091E501882361
:1026600051F0F0E0EA51FE4F80818F7040E361E06D
:1026700090E00E9448098091E30385FF05C084E350
:102680000E9419050E9482090E940E098091E303AD
:1026900082FF6FC080E70E94C208F801808140E29B
:1026A00062E090E00E941209F801808D40E265E04E
:1026B000F0E18F9FC00111240E941209F801818D61
:1026C00040E265E0F0E18F9FC00111240E941209F1
:1026D000F801828D40E265E0F0E18F9FC001112496
:1026E0000E941209F801838D40E265E0F0E18F9FBE
:1026F000C00111240E941209F801828140E263E0C6
:1027000090E00E941209F801818140E263E090E0CC
:102710000E941209F801238140E262E087E090E024
:10272000821B91090E94120980E20E94C2088091D6
:10273000E30385FF08C084E30E9419050E94820913
:1027400080E20E94C208F8018381873019F08181FC
:102750008F5F8183F12CF8018181F81640F4F80134
:10276000EF0DF11D84810E948209F394F4CF0E9441
:102770000E09F80110828091FB0181508093FB01CA
:102780008091FC018F5F843019F08093FC0102C0BE
:102790001092FC0176988981843521F486EE91E0CF
:1027A0000E94AB292196E6E00C9466341F920F92AA
:1027B0000FB60F9211242F933F934F935F936F9314
:1027C0007F938F939F93AF93BF93EF93FF93109259
:1027D0006F008091E30383FF03C08EE20E94C20872
:1027E0008091FD019CE1899FF0011124E250FE4F90
:1027F0009081933018F09181923010F4CADA18C0A9
:102800009091FB01933049F48091E30382FFF6CF6E
:102810008FE892E00E940109F1CF9F5F9093FB0146
:102820008F5F843019F08093FD0102C01092FD018A
:10283000FF91EF91BF91AF919F918F917F916F9198
:102840005F914F913F912F910F900FBE0F901F906E
:1028500018959BED980F973150F496EF960F9D3198
:1028600030F491E0681708F090E0892F089580E037
:1028700008951F920F920FB60F921124FF920F939B
:102880001F932F933F934F935F936F937F938F93F8
:102890009F93AF93BF93CF93DF93EF93FF93809179
:1028A000C104882321F082E08093C10463C1809138
:1028B0007004823021F483E0809370045BC1009146
:1028C00084001091850064E0169507956A95E1F7FC
:1028D000C091FD019CE1C99FE0011124C250DE4F6F
:1028E0009881943031F40E3208F444C10F3448F02A
:1028F000B6C0953031F4073108F43CC1083208F015
:10290000AEC04A990DC09450923038F461E0CE01C7
:1029100051DA10928500109284000093CB012AC1F5
:102920008091CB01081B0093CA0110928500109280
:1029300084009881983071F42A8121110BC021E024
:102940002A83888F8A8F098F0B3B10F4000F01C0F8
:1029500006950B8F9450923020F460E0CE012ADA75
:1029600009C182E086BBF880F11011C09091CB01C3
:10297000953608F0FFC08091CA01853608F0FAC08C
:10298000988F898F81E08A8382E08883F3C01091D9
:10299000CA0182E0F81273C00091CB01412F602F71
:1029A000CE0148962CDA6A818823F9F0488D50E0F0
:1029B0009A01220F331F240F351F200F311D35952B
:1029C000279535952795288F298D30E0C901880FE7
:1029D000991F820F931F810F911D9595879595954E
:1029E0008795898F6F5F6A83C5C0643008F445C0DE
:1029F00020EA3FE030938900209388008A818C3060
:102A000050F0888D298D30E0280F311D2536310595
:102A100024F084E027C08A3088F0888D298D30E04A
:102A2000280F311D253231054CF485E0888328EECE
:102A300033E0309389002093880015C08091E9032A
:102A4000882379F0612F802F04DF882351F0688D6F
:102A5000898DFFDE882329F081E08093700499D965
:102A600089C083E088830A8F1B8F198287E08B835C
:102A70001C8282E080936F007DC0188277CF98E03F
:102A8000F91225C081E9810F8D3178F460E0CE0123
:102A900091D9288D30E0C901880F991F820F931FAB
:102AA0002091CB01820F911D4EC0173E08F462C0E9
:102AB00061E0CE017FD92A8D30E0C901880F991FCE
:102AC000820F931F2091CB01820F911D15C00091A1
:102AD000CB01412F602FCE014A9691D9882301F175
:102AE00061E0CE0167D92A8D30E0C901880F991FB6
:102AF000820F931F800F911D9595879595958795CA
:102B00008A8F2B8D30E0C901880F991F820F931F88
:102B1000810F911D95958795959587958B8F2AC0E7
:102B2000412F602FCE0148966AD9882301F160E0D9
:102B3000CE0140D9288D30E0C901880F991F820F3E
:102B4000931F800F911D9595879595958795888FF3
:102B5000298D30E0C901880F991F820F931F810FC3
:102B6000911D9595879595958795898F03C087E0E9
:102B7000F81275CFFF91EF91DF91CF91BF91AF9197
:102B80009F918F917F916F915F914F913F912F9185
:102B90001F910F91FF900F900FBE0F901F901895EF
:102BA000E091FD018CE1E89FF0011124E250FE4F1D
:102BB0008081811107C081E09091B0049F3F19F49A
:102BC00080E0089581E0089580E690E00E94E609A3
:102BD0008093E90381E690E00E94E60980937A04FD
:102BE000882321F081E28093E30343C908955B9A2F
:102BF0000C9458085B980C945808A7E0B0E0E3E008
:102C0000F6E10C9449349091F203943559F42091F3
:102C10007304309174042F5F3F4F309374042093FA
:102C200073043EC0963459F42091710430917204BB
:102C30002F5F3F4F309372042093710431C095345D
:102C400059F42091E6033091E7032F5F3F4F309313
:102C5000E7032093E60324C09B3459F420917604C3
:102C6000309177042F5F3F4F3093770420937604A1
:102C700017C0983459F420917804309179042F5F6B
:102C80003F4F30937904209378040AC02091E403E5
:102C90003091E5032F5F3F4F3093E5032093E4032A
:102CA00095E79983882399F0BE016E5F7F4F8091ED
:102CB0007A040E94CE09BE016C5F7F4F8091E903C8
:102CC0000E94CE0985E58E8386E0D82E02C0DD24E1
:102CD000D3940E94F5050E94CA0516E080E891E0B1
:102CE00086DF80E093E086DF1150C1F780E093E05B
:102CF0007EDF80E891E07EDF80E891E078DF5B981E
:102D000087E390E00E946C0583E00E945D082898AC
:102D10008FE70E94A5048091EC038D0D0E94A5040D
:102D2000CE0101967C018C01F80181918F010E94F6
:102D3000A504802F8E198D15B8F38091EC0388239C
:102D400039F08AEE93E00E94230B0E94A504F5CF90
:102D5000289A0E94CA058AEE93E00E94080B15E1AA
:102D60008AE30E9419058F7731F0115021F081E03C
:102D70000E945D08F5CF7DD82796E7E00C94653476
:102D8000CF93DF93EC018981811107C08091E90322
:102D90000E94820980917A0413C08436A1F4809144
:102DA000DC039091DD03A091DE03B091DF0340E3EB
:102DB00064E00E9448098EE20E94C20880916F047C
:102DC0000E9482094DC0833709F04DC040E361E0A5
:102DD00080917304909174040E9448098EE20E94CD
:102DE000C20840E361E080917104909172040E94F6
:102DF00048098EE20E94C20840E361E08091E60348
:102E00009091E7030E9448098EE20E94C20840E3C5
:102E100061E080917604909177040E9448098EE2E7
:102E20000E94C20840E361E08091780490917904A7
:102E30000E9448098EE20E94C20840E361E080914E
:102E4000E4039091E5030E9448098EE20E94C208C3
:102E500040E361E080916D0490916E040E94480906
:102E60000E940E092CC08936D9F441E069EE73E066
:102E7000CE0102960E9486096091E90380E690E007
:102E80000E94E10941E06AE774E0CE0104960E94E5
:102E9000860960917A0481E690E00E94E1090FC002
:102EA0008AEE93E00E94080B21966991662329F02F
:102EB0008AEE93E00E940D0BF8CF80E09EDEDF915A
:102EC000CF910895A1E0B0E0E8E6F7E10C94483432
:102ED00080917004882309F486C0C090DC03D090F0
:102EE000DD03E090DE03F090DF03833009F061C082
:102EF0008FE30E941905182F8630C8F085E495E00D
:102F00000E94080B28988FEF0E94A50480E00E9481
:102F1000A504082F115049F080E00E94A504682FF5
:102F200085E495E00E940D0BF5CF289A01C000E0E2
:102F30000E94390F10927004053709F054C041E027
:102F4000BE016F5F7F4F88E495E00E94860901977C
:102F500059F599818091E903981326C080914C0519
:102F6000853571F480914705882339F085E495E033
:102F70000E94230B0E94C208F5CF0E940E0933C0A5
:102F80008091470584508093470584E080934605EF
:102F90006AE085E495E00E940D0BE091D803F09182
:102FA000D90388E009951FC085E495E00E94080BCD
:102FB0001AC0823059F48091E8039C2D981B9830F8
:102FC00090F00E94390F109270040DC0813059F4B6
:102FD00087E390E00E946C050E94DC0582E080930C
:102FE0007004C092E8032196E8E00C946434D8DDC4
:102FF000882361F083E08093750480916D04909143
:103000006E04019690936E0480936D048091750414
:10301000815080937504882321F083E080936F04AE
:10302000089581E0EACDCF93DF93EA98209A289A19
:103030008EE190E00E94580828988EE190E00E946E
:103040005808289A8DE290E00E94580880E30E9478
:10305000680584E690E00E945808C6EBD2E0FE01C5
:1030600031966491FE0184910E9456052296F2E009
:10307000C83EDF07A1F780916F02811107C083E38B
:103080000E94680584E00E945D080FC0C0EAD2E09B
:10309000FE0131966491FE0184910E9456052296AC
:1030A000F2E0C63BDF07A1F7EACF84E30E946805A0
:1030B00085E30E9419058D30C1F7DF91CF91089506
:1030C000A2E3B0E0E6E6F8E10C944C3480916E02A5
:1030D000882309F4A1C04A9B8AC08FE30E94190586
:1030E0008F778983823368F08AE30E94680586E3DC
:1030F0000E9468058DE30E94680584E30E946805CC
:103100008BC028988FEF0E94A50410E089811817C2
:1031100060F480E00E94A504E2E0F0E0EC0FFD1F07
:10312000E10FF11D80831F5FF1CF80E00E94A504B5
:10313000082F80E00E94A504289A84E30E94680575
:1031400085E30E9419058D30C1F72A8196E7922701
:103150009A8392E08981E92FF0E0981768F441E0C2
:1031600050E04C0F5D1FE40FF51F308124522327E0
:1031700020839F5F232FEECF81E090E08C0F9D1F77
:10318000E80FF91F90818B81982790838091E3034A
:1031900084FF12C081E60E94C20810E08981811775
:1031A00030F1E1E0F0E0EC0FFD1FE10FF11D808157
:1031B0000E94C2081F5FF2CF81E40E94C20810E0A3
:1031C0008981811758F0E1E0F0E0EC0FFD1FE10F7D
:1031D000F11D80810E9482091F5FF2CF8091E3037D
:1031E00085FF03C0802F0E9482090E940E0985E39B
:1031F0000E941905813029F0813161F48AE30E942F
:10320000680586E30E9468058DE30E94680584E3F3
:103210000E9468050E943C06E296E4E00C94683443
:103220008F929F92AF92BF92DF92EF92FF920F9395
:103230001F93CF93DF93CDB7DEB7EA970FB6F8941D
:10324000DEBF0FBECDBF41E38E010F5F1F4FB80140
:1032500001960E9486097C0199270197298130E017
:103260008217930709F0A3C080916E02811104C0F8
:10327000DADE83E00E945D08DB808A8196E7892799
:103280008A8322E03981822F90E0F801E80FF91F4C
:10329000231750F4DE01A80FB91F8C91845290813E
:1032A000892780832F5FEECF80818D258083CE019B
:1032B000C7960E945F0785E30E94680585E30E9428
:1032C0001905833181F1CE01C3960E945F074BA996
:1032D0005CA96DA97EA98FA998ADA9ADBAAD8417D7
:1032E0009507A607B70760F44A015B01881A990A97
:1032F000AA0ABB0A2DEB82169104A104B10470F452
:10330000481759076A077B0770F484549F4FAF4FE3
:10331000BF4F84179507A607B70728F486E992E000
:103320000E94010927C085E30E941905833119F61F
:10333000D4FE08C088E70E945D0888E70E945D0807
:1033400088E701C08AE00E945D0828988FE70E9404
:10335000A50458018A2D801B8E1530F4F50181914A
:103360005F010E94A504F6CF289A85E30E94190503
:103370008331D9F385E30E941905863149F48BE343
:103380000E94680586E30E9468058DE30E94680537
:1033900080916E02882349F084E30E94680585E3EA
:1033A0000E9419058D30C1F702C00E94390FEA96BC
:1033B0000FB6F894DEBF0FBECDBFDF91CF911F9146
:1033C0000F91FF90EF90DF90BF90AF909F908F9004
:1033D0000895FC012181223731F0223559F481E032
:1033E00080936F0202C010926F021DDE81E0809315
:1033F0006E020895233711F4019612CF10926E02D7
:103400000895CF93DF93EA98209A289A8EE190E06E
:103410000E94580828988EE190E00E945808289A47
:103420008DE290E00E94580880E30E94680584E6DF
:1034300090E00E945808C1E0D3E0FE0184918134FD
:1034400040F083E30E94680584E00E945D08CFEFAE
:103450000DC0FE0131966491FE0184910E945605D3
:103460002296F3E0CD33DF0741F7EBCF84E30E94F0
:1034700068058AE090E00E945808C150B9F781E0E1
:1034800080937002DF91CF910895EF92FF920F9396
:103490001F93CF93DF93EC018B01F880F3946115B8
:1034A000710519F0E4E6F0E002C0E0E0F0E028E0A9
:1034B000F29EC00111246AE070E00E9425349B0155
:1034C0002E0F3F1FC901AA2797FDA095BA2FE091A3
:1034D000E003F091E103AF0160E070E048175907A5
:1034E0006A077B0728F481EF92E00E940109D9C0A6
:1034F000E21BF30BF093E103E093E0038091700291
:10350000811101C07EDF85E30E9419058D3071F0C5
:103510008AE50E94C20885E40E94C20882E50E94F2
:10352000C20882E50E94C20881E34CC0809171020A
:1035300090917202A0917302B0917402892B8A2B30
:103540008B2B51F50E94CA0585E30E941905833132
:1035500009F443C08AE50E94C20885E40E94C208BB
:1035600082E50E94C20882E50E94C20882E32AC066
:103570008091DC039091DD03A091DE03B091DF0325
:103580004F5F5F4F6F4F7F4F84179507A607B707B1
:10359000C9F681E00E945D088091DC039091DD0313
:1035A000A091DE03B091DF0340917102509172024D
:1035B000609173027091740284179507A607B7078C
:1035C000B9F6E7CF0E94C20885E30E9419050E9460
:1035D00082090E940E0915DF64C0012B41F428986E
:1035E0008FE70E94A504EC2E0C2F1D2F0BC00AE0C4
:1035F00010E084E60E945D080150110901151105D3
:10360000C1F7EDCF802F8E198F1530F4F80181911D
:103610008F010E94A504F6CF289AC8EC85E30E948A
:1036200019058D30E9F485E30E9419058D3019F1F3
:103630008AE50E94C20885E40E94C20882E50E94D1
:10364000C20882E50E94C20883E30E94C20885E3A3
:103650000E9419050E9482090E940E09D2DE0BC049
:1036600085E30E9419058331F1F681E00E945D082F
:10367000C150A1F6D8CF80917002811102C00E9482
:10368000390F8091DC039091DD03A091DE03B091AE
:10369000DF038093710290937202A0937302B09340
:1036A0007402CDB7DEB7E6E00C946634ACE0B0E06F
:1036B000ECE5FBE10C944D34FC018BE089838181C6
:1036C0008A831B8282E08C8387818D8380858E83B1
:1036D00081858F83848188878581898786818A8790
:1036E0001B861C8684E10E945D0860E070E0CE01CC
:1036F0000196CBDE8AE50E94C20810E0812F90E09F
:10370000298130E0281739075CF0E1E0F0E0EC0FA8
:10371000FD1FE80FF91F80810E9482091F5FEECF15
:103720008091E30385FF03C080E00E9482090E942C
:103730000E092C96E3E00C946934CF93DF93EC01EF
:1037400080917802811108C090917902911104C092
:1037500090917A029923A9F09B81903319F09F7E72
:10376000903479F49F8198130CC0988580917902E8
:10377000981307C0998580917A02981302C0CE01F0
:1037800095DF80917502811108C0909176029111A8
:1037900004C0909177029923A9F098819B3091F40D
:1037A0009B81903479F49F8198130CC09885809107
:1037B0007602981307C0998580917702981302C00A
:1037C000CE0174DFDF91CF910895AEE1B0E0EBEE72
:1037D000FBE10C944C3480917002882309F469C099
:1037E0004A9B59C08FE30E9419058F778E3108F0EC
:1037F0008DE1898328988FEF0E94A50410E08981CC
:10380000181760F480E00E94A504E2E0F0E0EC0FFD
:10381000FD1FE10FF11D80831F5FF1CF80E00E944B
:10382000A504082F80E00E94A504289ACE010196E5
:1038300084DF8091E30384FF12C08AE70E94C208FC
:1038400010E089818117A8F1E1E0F0E0EC0FFD1FA5
:10385000E10FF11D80810E94C2081F5FF2CF8AE54F
:103860000E94C20810E08981811758F0E1E0F0E081
:10387000EC0FFD1FE10FF11D80810E9482091F5F87
:10388000F2CF8091E30385FF03C0802F0E9482095D
:103890000E940E090EC085E30E941905813149F48A
:1038A0008AE30E94680586E30E94680584E30E941B
:1038B00068056E96E4E00C946834AEE1B0E0E3E6AF
:1038C000FCE10C944C348C01FC018181823711F4B1
:1038D00098DD36C0833711F0863601F54DE1BE0123
:1038E0006F5F7F4FC80102960E9486099927019752
:1038F000298130E08217930729F088EE92E00E9438
:1039000001091EC061E070E0F8018181833711F088
:1039100060E070E0CE010196B8DD12C0813621F47E
:1039200043E068E772E005C0873741F443E065E7AC
:1039300072E0C80102960E94860902C010927002CD
:103940006E96E4E00C946834A0E0B0E0EAEAFCE1B2
:103950000C944934D82EEA98209A10927B02289A27
:103960008EE190E00E94580828988EE190E00E9435
:103970005808289A8DE290E00E94580880E30E943F
:10398000680584E690E00E9458088FEF8D0D833023
:1039900008F03CC0C5E9D3E0FE018491813470F0A9
:1039A000F4E1DF9E90011124C0E0D0E0C9018B5BFF
:1039B0009C4F7C0189010A5B1C4F19C0FE013196A6
:1039C0006491FE0184910E9456052296F3E0C13D68
:1039D000DF0711F7E5CFF801EC0FFD1F6491F90146
:1039E00084910E9456052296C431D10539F0970181
:1039F0002C0F3D1FF9018491813468F383E30E9409
:103A00006805D0927B0281E00E945D08CDB7DEB7E9
:103A1000E7E00C946534CF93DF9380917B02882399
:103A2000B1F14A9B21C086E30E9468058BE30E94A6
:103A30001905D82FDF7759F128988FEF0E94A50438
:103A40008EE40E94C20880917B020E948209C0E03D
:103A500080E00E94A5040E948209CF5FCD13F8CFB9
:103A6000289A0E940E0913C085E30E94190581302F
:103A700011F0813161F48AE30E94680586E30E94B7
:103A800068058DE30E94680584E30E946805DF9164
:103A9000CF910895A1E0B0E0E0E5FDE10C944E3453
:103AA0001982FC0121812237A9F42281222331F0DD
:103AB000BE016F5F7F4F02960E94B30989819FEF1D
:103AC000980F933028F08DE393E00E94010913C012
:103AD0003BDF0BC0283749F480917B02882319F023
:103AE00086E30E94680510927B0280917B020E940F
:103AF00082090E940E092196E2E00C946A34CF9369
:103B0000DF93EA98209A289A8EE190E00E94580864
:103B100028988EE190E00E945808289A8DE290E063
:103B20000E94580880E30E94680584E690E00E94A5
:103B30005808289880E40E94A504C3ECD3E0FE0155
:103B400084910E94A5042196F3E0C03DDF07B9F7F8
:103B5000809108010E94A504809109010E94A5049A
:103B600080910A010E94A504C0E0D0E0FE01ED5260
:103B7000FC4F84910E94A5042196C931D105B1F76B
:103B8000289A28988EE70E94A5048BE290E0EC0129
:103B900021960E94E6090E94A504C333D10511F0C5
:103BA000CE01F5CF289A83E30E94680581E00E9448
:103BB0005D0881E08093DA03DF91CF9108956F92E1
:103BC0007F928F929F92AF92CF92EF92FF920F933C
:103BD0001F93CF93DF93EC018981843769F46FE001
:103BE00071E0CE0102960E94B30940E260E080914C
:103BF0000F019091100112C0833709F090C18A81A2
:103C0000823789F46BE071E0CE0103960E94B3091C
:103C100040E260E080910B0190910C010E9412093A
:103C20000E940E09EFC1769A80917E02811116C022
:103C300080916E02882329F081E080937D021092AA
:103C40006E0280917002882329F081E080937C02CB
:103C50001092700254DF83E00E945D0886E30E94A8
:103C600068058AE30E9468058BE30E9468050E944C
:103C7000CA05FE0101900020E9F70E2F0C1B02502F
:103C8000C12CFAE09F2E7E0132E0E30EF11CA5E08C
:103C9000AA2EB8E28B2E80910B0190910C012C2D55
:103CA000332727FD30952817390708F0FBC001326C
:103CB000A1F45B9A80910F01909110010E94580825
:103CC0005B9880910D0190910E01FC019E9EC001B8
:103CD0009F9E900D11240E945808370111E0101783
:103CE0000CF0B7C0F30181913F015B9A803309F07A
:103CF00046C0013201F580910D0190910E010E94A4
:103D000058085B9880910D0190910E010E9458080F
:103D10005B9A80910D0190910E010E9458085B986A
:103D200080910D0190910E019C01A29EC001A39E65
:103D3000900D11248AC080910F01909110010E9472
:103D400058085B9880910F01909110019C01220FFF
:103D5000331F820F931F0E9458085B9A80910F01B6
:103D6000909110010E9458085B9880910F019091EA
:103D700010019C01220F331F820F931F66C08133F5
:103D800029F5013291F480910D0190910E010E946C
:103D900058085B9880910D0190910E01FC01AE9E38
:103DA000C001AF9E900D11241EC080910F01909113
:103DB00010019C01220F331F820F931F0E9458088D
:103DC0005B9880910F01909110012CC00132D1F4C9
:103DD00080910D0190910E010E9458085B9880918E
:103DE0000D0190910E010E9458085B9A80910D017F
:103DF00090910E010E9458085B9880910D0190915E
:103E00000E0123C080910F01909110010E9458086B
:103E10005B9880910F01909110019C01220F331F3C
:103E2000820F931F0E9458085B9A80910F01909116
:103E300010019C01220F331F820F931F0E9458080C
:103E40005B9880910F01909110010E9458081F5FAC
:103E500046CF5B9A0132A1F480910D0190910E0141
:103E60000E9458085B9880910D0190910E019C0171
:103E7000829EC001839E900D11240E94580810C09C
:103E800080910F01909110010E9458085B981FE1EA
:103E900080910F01909110010E9458081150C1F7B4
:103EA000C394F9CE80917E02882341F08091E30390
:103EB00081110EC086E30E94680517C080917D02C3
:103EC000882349F010927D02AED881E080936E0283
:103ED0000E94DC050AC080917C02882321F01092A8
:103EE0007C028FDA02C00E94390F769889E60E9420
:103EF000C20883E70E94C20811E010170CF090CEB0
:103F0000FE01E10FF11D17FDFA958181803319F053
:103F1000813309F086E40E94C2081F5FEECF82372A
:103F2000B9F480916E02882329F081E080937D02AC
:103F300010926E0280917002882329F081E08093B4
:103F40007C0210927002DBDD81E080937E025AC019
:103F5000863651F58A81803351F480E180930801DF
:103F600080EB8093090181E780930A0107C043E059
:103F700068E071E0CE0102960E94860989E60E94FF
:103F8000C20886E60E94C2088AE30E94C2088091A5
:103F900008010E948209809109010E948209809192
:103FA0000A010E9482093CCE883721F580917D026A
:103FB000882339F010927D0236D881E080936E021A
:103FC00010C080917C02882321F010927C0219DAC3
:103FD0000EC082E090E00E946C058091E30388238C
:103FE00019F00E94DC0503C086E30E946805109268
:103FF0007E0208C0833631F46FE071E0CE01019695
:104000000E94B309DF91CF911F910F91FF90EF9024
:10401000CF90AF909F908F907F906F900895A2E087
:10402000B0E0E5E1F0E20C9441347C01FC018181D7
:10403000833709F09CC1198287E090E00E947534B3
:104040008C0141E0BE016F5F7F4FC70102960E9465
:1040500086098981F801808341E0BE016F5F7F4F4F
:10406000C70104960E9486092981207FF8012183D7
:1040700041E0BE016F5F7F4FC70106962A830E9411
:1040800086098981F801828341E0BE016F5F7F4F1D
:10409000C70108960E9486098981F801838341E05F
:1040A000BE016F5F7F4FC7010A960E948609898112
:1040B000F801868341E0BE016F5F7F4FC7010C9618
:1040C0000E9486098981F801858341E0BE016F5F06
:1040D0007F4FC7010E960E9486098981F80184836B
:1040E00080E090E02A814191342F32953F7034274F
:1040F00083279F5F9730B9F78F70822BF8018183F8
:1041000087E090E00E9475345C0187E0F801D501FA
:1041100001900D928A95E1F7D8011196C801069693
:10412000F8013D91219123272083E817F907C9F76A
:10413000769A80918102811160C080916E028823FD
:1041400029F081E08093800210926E0280917002CB
:10415000882329F081E080937F0210927002EA9810
:10416000209A289A8EE190E00E94580828988EE1C3
:1041700090E00E945808289A8DE290E00E9458082A
:1041800080E30E94680584E690E00E945808289821
:1041900080E40E94A5046CEEE62E63E0F62EF701A3
:1041A00084910E94A504FFEFEF1AFF0A25E1E216B1
:1041B00024E0F206A1F7289A28988EE70E94A50429
:1041C0008BE290E07C01EFEFEE1AFE0A0E94E60916
:1041D0000E94A504F3E3EF16F10411F0C701F2CF3A
:1041E000289A83E30E94680581E00E945D0881E0CF
:1041F0008093DA0383E00E945D0886E30E946805ED
:104200008AE30E9468058BE30E9468050E94CA0544
:104210005B9A87EC94E20E9458085B9889E50E94BB
:104220005D0885E392E00E945808712C8091150189
:1042300090E0272D332727FD3095281739070CF0FC
:1042400057C0711002C022E001C027E0F12C5B9A38
:1042500086EF99E02A830E9458085B9886EF99E0E0
:104260000E945808F3942A81F2168CF35B9A8CEF23
:1042700092E10E9458085B9880911101909112017F
:104280000E9458086801612CF60181906F0148E096
:10429000542E50E8E52EF12C912CC701882199214C
:1042A000892B49F45B9A80911101909112010E942F
:1042B00058085B9808C05B98809111019091120199
:1042C0000E9458085B9A80911101909112010E94FE
:1042D0005808F694E7945A9401F76394F7E06F1244
:1042E000D3CF5B9880E090E00E94580873949ECFF3
:1042F00080918102882341F08091E30381110FC0F6
:1043000086E30E94680518C080918002882351F0DE
:10431000109280020E94131881E080936E020E9426
:10432000DC050AC080917F02882321F010927F0271
:1043300068D802C00E94390F769889E50E94C208A9
:1043400083E70E94C2087501D12CF70181917F019A
:104350000E948209D394F7E0DF12F7CF0E940E0982
:10436000C5010E940D35C8010E940D356FC082370E
:10437000A9F465E171E0C70102960E94B30989E5DD
:104380000E94C20882E70E94C2088AE30E94C20813
:104390008091150140E260E090E02CC0843779F50F
:1043A000F7018281803339F488ED94E09093140111
:1043B0008093130106C063E171E0C70102960E9479
:1043C000B30980911301909114019695879590936C
:1043D00012018093110189E50E94C20884E70E94BE
:1043E000C2088AE30E94C20840E266E0809113019D
:1043F000909114010E9412090E940E0927C088376B
:1044000029F580918002882341F0109280020E9459
:10441000131881E080936E0211C080917F0288237F
:1044200029F010927F020E94011A0EC082E090E0F3
:104430000E946C058091E303882319F00E94DC053B
:1044400003C086E30E946805109281022296EFE085
:104450000C945D34CF93DF93EA98209A289A8EE1EA
:1044600090E00E94580828988EE190E00E94580839
:10447000289A8DE290E00E94580880E30E94680527
:1044800084E690E00E945808289880E40E94A504E1
:10449000C9EAD6E0FE0184910E94A5042196F6E0C7
:1044A000C23DDF07B9F7289A28988EE70E94A50435
:1044B0008BE290E0EC0121960E94E6090E94A5049F
:1044C000C333D10511F0CE01F5CF289A83E30E94C2
:1044D000680581E00E945D0881E08093DA038093A3
:1044E0009402DF91CF910895A0E0B0E0EAE7F2E214
:1044F0000C9447348C0180917B04F801838364839E
:104500009DE0E92EF12C0E94CA0585E30E94190561
:10451000833169F08CE996E00E94010985E30E94ED
:1045200019050E9482090E940E0994DF49C040913A
:10453000DC035091DD036091DE037091DF03409353
:104540007C0450937D0460937E0470937F042898CC
:104550008FE70E94A5046801C0E0D0E08AEAB82E87
:10456000F60180810E94A504C930D10544F4F6010A
:104570008081B826C730D10511F4F801B0862196A4
:10458000FFEFCF1ADF0ACF30D10551F7289AC8ECD8
:1045900085E30E941905833169F081E0E81AF1088A
:1045A000E114F10409F0AFCF80917B048F5F809319
:1045B0007B0406C081E00E945D08C15049F7EDCF41
:1045C000CDB7DEB7E9E00C946334ABE3B0E0EBEEDB
:1045D000F2E20C9444347C01FC0101900020E9F7E4
:1045E000AF0141505109481B590B6C01F2E0CF0E4D
:1045F000D11CBE01625D7F4FC6010E948609082F53
:104600006DEB71E087E191E00E94E236F7011181E4
:104610008DE8810F823008F0D7C181E0809392024B
:1046200087858A3411F489E501C08EE480931601F0
:104630008090DC039090DD03A090DE03B090DF0358
:104640004091DC035091DD036091DE037091DF0344
:1046500040937C0450937D0460937E0470937F04A8
:1046600080911601893509F050C080E996E00E94DA
:10467000010989E796E00E940109C7010E94F60836
:1046800084E696E00E940109F70101900020E9F715
:10469000319740E260E0CF018E199F090E94120914
:1046A0008CE196E00E940109F70101900020E9F7F2
:1046B0003197808140E260E090E00E94120984ED31
:1046C00095E00E94010940E260E0802F90E00E94A6
:1046D000120981ED95E00E9401098AEB95E00E94A4
:1046E000010940E364E080917E0490917F040E9480
:1046F000480940E364E080917C0490917D040E942D
:10470000480987EB95E00E940109F701019000201C
:10471000E9F77197EE15FF0509F03DC142E0BE01D2
:10472000625D7F4FC6010E948609029709F033C17E
:1047300091DE0EA5B701665F7F4F45E050E0CE01E8
:1047400001960E94E9361E824AE050E060E070E087
:10475000CE0101960E949C356B017C0123E0F6940A
:10476000E794D794C7942A95D1F78091160189359B
:10477000F1F480EA95E00E940109CE0101960E94C1
:10478000F60889E995E00E94010982E895E00E9417
:10479000010940E364E0C7010E94480940E364E086
:1047A000C6010E9448098AE795E00E9401098FE04E
:1047B000EBE3F1E0DE015F9601900D928A95E1F75F
:1047C0008FA588A388A989A389A98EA3602FCE016C
:1047D0004F968ADE133709F4EEC007FFECC0409114
:1047E0007C0450917D0460917E0470917F048091DF
:1047F000DC039091DD03A091DE03B091DF03881903
:104800009909AA09BB098E379105A105B10548F49C
:104810008090DC039090DD03A090DE03B090DF0376
:10482000A8958091DC039091DD03A091DE03B09107
:10483000DF03841B950BA60BB70BC816D906EA0637
:10484000FB06A8F68090DC039090DD03A090DE03C9
:10485000B090DF0380911601893509F073C083E6BB
:1048600095E00E94010940E364E0C5010E94480907
:1048700040E364E0C4010E9448098BE595E00E9492
:10488000010984E495E00E94010940E364E080911D
:104890007E0490917F040E94480940E364E0809187
:1048A0007C0490917D040E9448098CE395E00E946D
:1048B000010985E295E00E94010940E364E0C70137
:1048C0000E94480940E364E0C6010E9448098DE166
:1048D00095E00E94010986E095E00E94010980911F
:1048E000DC039091DD03A091DE03B091DF034091E2
:1048F0007C0450917D0460917E0470917F04841B40
:10490000950BA60BB70B40E364E0CD010E9448096C
:104910008091DC039091DD03A091DE03B091DF0371
:1049200020917C0430917D04821B930B40E364E072
:104930000E9448098EEF94E00E94010985EF94E0FF
:104940000E94010967EFCE014F96CEDD40917C04B5
:1049500050917D0460917E0470917F048091DC030E
:104960009091DD03A091DE03B091DF03841B950BD2
:10497000A60BB70B4597A105B10580F380911601F1
:10498000893521F48CEE94E00E94010967EFCE0195
:104990004F96AADD10C087EC94E00E94010940E226
:1049A00060E08EE090E00E94120983EA94E00E94A9
:1049B00001091092940280919302813011F40E94B7
:1049C000DC051092920239C0123789F5F701828115
:1049D000853441F41092930286E30E94680582E9CF
:1049E00094E022C08335F1F481E08093930232DDBC
:1049F0008FE794E00E9401090E94DC0585E30E9494
:104A000019058D30D1F086E694E00E94010985E316
:104A10000E9419050E9482090E940E091BDD109256
:104A200093020BC084E494E00E94010906C08DE269
:104A300094E00E94010910929402EB96ECE00C9431
:104A40006034A0E1B0E0E7E2F5E20C9449348E0175
:104A50000F5F1F4F80E1F80111928A95E9F780916D
:104A60009302813009F064C080919202813009F490
:104A70005FC04A9B5DC08BE30E9419058F778F3022
:104A800008F08FE0898328988FEF0E94A504F12C0D
:104A9000D12C3AEAE32E8981F816F0F480E00E94E6
:104AA000A504E2E0F0E0EC0FFD1FEF0DF11D8083A7
:104AB000F7E0FF1510F0E8260DC098E0F9120AC0E3
:104AC000E81641F00E9482098BE194E00E940109FE
:104AD000DD24D394F394DFCF289A4AE050E062E8D3
:104AE00072E0C8010E94D536892B11F1E1E0DE1693
:104AF000F9F088E194E00E94010980E1F801A2E860
:104B0000B2E001900D928A95E1F78E010E5F1F4F82
:104B10007E01FBE0EF0EF11CF80181918F010E94F4
:104B200082090E151F05C1F785E194E00E94010975
:104B30006096E7E00C94653410929B041092500349
:104B400083E080939A028FEF8093B0040895EBE99D
:104B5000F2E02081211105C0892BB1F080E090E0C6
:104B60000895B3E0E934FB07B8F7009751F04181AD
:104B7000DC013C91431305C0428111963C914317DF
:104B800051F0E20FF11DE5CF33E0E934F30719F0FE
:104B900010F0E9E4F3E0CF01089594E0899FF0017B
:104BA0001124EF54FB4F80818F3F91F08093950249
:104BB0008181809396028281809397028381809382
:104BC000980221E04CE064E085E992E00C941A0C34
:104BD00008958AE493E0BBDF009799F020919A0250
:104BE000FC013081231768F4E20FF11D808180936E
:104BF0004C0389E780934D03818180934E0381E0CC
:104C0000089580E00895EF92FF921F93CF93DF9372
:104C10001F92CDB7DEB7182F8091E30386FF18C02F
:104C200084E599830E94C208E12E9981F92E15E04E
:104C3000F70181917F010E9482091150C9F780918B
:104C4000E30385FF03C08AEF0E9482090E940E09D8
:104C50000F90DF91CF911F91FF90EF90089586E321
:104C60000E94680580914C03833511F48BE901C0E3
:104C70008BE40E945D0821E04CE065E08AE493E06B
:104C80000E941A0C0E94DC058AE493E0BCCFE7DFA7
:104C900080914C03893631F081E08093490389E2A9
:104CA0008093B0040895CF9385E390E00E94E609D5
:104CB0008093810486E390E00E94E6098093AF042C
:104CC000CFEFC0939F04C093A104C093A304C093EB
:104CD000A504C093A704C093A904C093AB04C093D8
:104CE000AD042ADF10929B0281E080938004C09380
:104CF000B1048FEF9FEF909384048093830410920C
:104D00008604109285041092880410928704C09340
:104D1000B50490938A048093890410928C041092B5
:104D20008B0410928E0410928D04C093B90490935A
:104D3000900480938F041092920410929104109228
:104D4000940410929304C093BD04909396048093AE
:104D50009504109298041092970410929A0410925D
:104D60009904CF910895ACE0B0E0E9EBF6E20C9441
:104D700047346C018C010F5F1F4F45E0BE016F5F30
:104D80007F4FC8010E948609843008F0F3C09981E2
:104D90009130A9F4833061F46A8185E390E00E9448
:104DA000E1096B8186E390E00E94E1097CDF06C2A5
:104DB000809181040E9482098091AF049AC0923050
:104DC00009F051C0813039F081E09A81913009F0C9
:104DD00080E0F82E02C0FF24F39480919B028111A1
:104DE00004C082ED96E00E9401090BE912E0F8018F
:104DF0008081882309F4BBC0F3E009341F0708F061
:104E0000B6C032E00B39130719F080E20E94C208E5
:104E1000F80181810E948209F80182810E94820941
:104E2000FF20E1F08AE30E94C20893E0F80180814C
:104E30009817A0F4943038F090FF05C08CE29C875E
:104E40000E94C2089C85EE24E394E90EF801E90F64
:104E5000F11D80810E9482099E2DE8CFF80180819A
:104E6000080F111DC4CF933049F480E090E06FDE4D
:104E70008B5992409EEA981B892F3BC0903171F567
:104E80000FE914E080EAE82E84E0F82EC12CD12C42
:104E9000F80180818F3FA1F0DD2019F080E20E94AF
:104EA000C2088C2D0E9482098AE30E94C208F80180
:104EB00080810E948209F70180810E948209D39437
:104EC0000E5F1F4FC394F2E0EF0EF11C38E0C312E7
:104ED000DFCFD1104CC080EE96E047C0913161F435
:104EE00080919D0490919E046DE770E00E941134C2
:104EF000862F0E9482093BC09231C9F511EBE12E49
:104F000014E0F12E04EB14E0C12CD12CF7018081C8
:104F10008F3FF1F0DD2019F080E20E94C2088C2D55
:104F20000E9482098AE30E94C208F70180810E94E0
:104F30008209F801329780810E948209F801319735
:104F400080810E948209F80180810E948209D394A5
:104F5000F4E0EF0EF11CC3940C5F1F4F34E0C3125A
:104F6000D5CFD11004C08CED96E00E9401090E94BB
:104F70000E0924C144E0BE01695F7F4FC8010E9451
:104F800086094F81493608F477C07A855885698546
:104F90007C3009F04BC020E030E080E090E0F90187
:104FA000EF54FB4F708174131CC0A181A51319C06D
:104FB000A281A61316C02CE023839C01220F331F6D
:104FC000280F391FF901EE0FFF1FED57FB4F11821C
:104FD0001082F901EE0FFF1FEB57FB4F1182108279
:104FE000CFC07F3FD9F44083518362832CE0238379
:104FF0009C01220F331F280F391FF901EE0FFF1FED
:10500000ED57FB4F11821082F901EE0FFF1FEB5796
:10501000FB4F1182108210928004B2C001962C5F67
:105020003F4F2031310509F0BACFC8C080E090E091
:1050300020E030E0FC01EF54FB4FA081A41315C029
:10504000A181A51312C0A281A6130FC07383F90119
:10505000EE0FFF1FE20FF31FEE0FFF1FEB57FB4F8B
:1050600081E090E091838083A9C02F5F3F4F049639
:1050700080319105F9F6A2C0E98180918104E81799
:10508000C0F190E0F0E09C01295F3F4F2E173F07F1
:1050900084F13A812091AF0432132BC03C813F321E
:1050A00031F442E06CE0C6010E94870C87C02D817C
:1050B0003C32B1F420939C0481E090E090939E04F4
:1050C00080939D048091E0039091E103E4E02E9FA2
:1050D000800D911D11249093E1038093E0036EC035
:1050E000E81BF90BEE0FF0E0E156FB4F3083218314
:1050F00065C080E090E02BDD7C01F801019000208C
:10510000E9F73197E01BF10BF695E795BB24B394D3
:10511000BE0EC7018B0D911D8B5992408F3A9105A0
:105120000CF048C0F701B1928F0121E0822F880F67
:1051300081502B15D8F441E0B801F601E80FF11DBC
:10514000CF012C870E9486092C85233058F020FD42
:1051500009C0D80111978C91843621F4F80180811F
:10516000809382042F5F0F5F1F4FE0CFF9E4EF16AB
:10517000F3E0FF0618F5F701E20FF11D10821EC0E3
:1051800022E04CE064E0CE0107960E941A0C8FE00A
:105190008A8722E04CE064E0CE0107960E941A0C58
:1051A00082E08A8722E04CE064E0CE0107960E940C
:1051B0001A0C04C086ED96E00E9401092C96E9E0E5
:1051C0000C9463340F931F93CF93DF9390918004DB
:1051D00091114FC093E0899F80011124F801EE0FD7
:1051E000FF1FED57FB4F94E0899FD0011124AF546E
:1051F000BB4F12969C91977040E850E0491B5109B3
:105200009AEF949F9001959F300D11243595279525
:105210003595279531832083E801CC0FDD1FC957D1
:10522000DB4F288139812F5F3F4F39832883000F5F
:10523000111F0B571B4FF80140815181411551053A
:1052400029F424303105A9F4A8DC11C041305105FE
:1052500039F4A3DC82E090E0F8019183808309C0F7
:105260004230510531F499DCF80111821082198223
:105270001882DF91CF911F910F910895A6E0B0E0C1
:10528000E4E4F9E20C944A342091AF042A831B82AF
:1052900080919C04882341F0833019F487E791E0E2
:1052A0000FC08DE790E00CC0277030E02A513F4FCF
:1052B0004DE7429FC001439F900D1124959587951E
:1052C00090939E0480939D0400EA14E0F12C7CE20C
:1052D000E72EF801319790819F3FC1F080918104C2
:1052E0008F0D898380919C04882311F0EC8203C088
:1052F0009C83F80180818D8321E04CE065E0CE0144
:1053000001960E941A0CCE0101967DDCF3940E5F8B
:105310001F4FF8E0FF12DDCF80919C04882341F0FD
:10532000833019F410929C0403C0825080939C0433
:105330002696E6E00C94663480914903882351F068
:105340008EDC89E28093B004809149038150809380
:1053500049030895F1CBFF920F931F93CF93DF93EF
:10536000FC01F0800181C281D38114818FE580939B
:10537000B0041092490380918104811105C080918D
:10538000AF04882309F4A9C080914A038F1104C097
:1053900080914B03801729F0CFDBF0924A030093F2
:1053A0004B0380919B048F3F09F497C0C0934C033B
:1053B000D0934D0310934E03CC23F1F081111CC008
:1053C00080918104181761F0143651F08DEA8C0F2A
:1053D000823010F0CD3739F48FEF80939B047DC07D
:1053E000C43509F47AC08D2F807F803609F075C0EE
:1053F000D067D0934D0357C0ECDB811105C080917D
:105400009B04882309F469C080915003811107C06F
:10541000E0919B04F0E0EC51F94FE49101C0E82FDA
:10542000E33541F4C43531F490919B049E5F909331
:105430009B0404C0EC1711F07FDB4FC0882369F098
:1054400080919A028E5F80939A02C3DB81110EC015
:1054500080919B048E5F80939B0480919B04E82F36
:10546000F0E0EB51F94F14911F3F59F480914C0338
:10547000809350038436B9F48091820480934E0364
:1054800012C010934C0397E790934D0390918104C1
:1054900090934E038E5F80939B04109250038E3046
:1054A00021F01123D1F0F3DB18C08AE493E04FDB45
:1054B000DC01009781F02C9130E089E493E0821BBD
:1054C000930BA817B90730F4ED01C20FD31F488121
:1054D0004D93F7CF1C9230DBE4CFCDB7DEB7E5E0DC
:1054E0000C946734FF920F931F93CF93DF938C013B
:1054F000EC0109900020E9F72197C81BD90BFC01AA
:105500008181823751F487E390E00E946C050E940C
:10551000DC0581E08093C10426C0833711F5FC2EA1
:1055200028988FE70E94A5048C2F82500E94A50422
:10553000E801229612E01F1528F489910E94A50423
:105540001F5FF9CF289A0E94CA058AE30E941905B5
:105550008F7721F081E00E945D08F7CF0E94DC0583
:1055600002C01092C104CDB7DEB7E5E00C946734F9
:10557000A0E8B0E0EEEBFAE20C9448348091C1046C
:10558000882309F454C0813011F58091DC03909197
:10559000DD03A091DE03B091DF03209151032817B2
:1055A00009F445C085E30E941905813129F48AE395
:1055B0000E9468050E94DC058091DC039091DD0368
:1055C000A091DE03B091DF038093510330C08FE3DD
:1055D0000E941905D82E87FD27C028988FEF0E94BA
:1055E000A5048E010F5F1F4F7801C02E8E2D801BEA
:1055F0008D1538F480E00E94A504F70181937F01A6
:10560000F5CF289A81E08093C401802F8C198D15E5
:1056100030F4F80181918F010E94C208F6CF0E94F8
:105620000E098FEF8093C40181E08093C104C058BC
:10563000DF4FE8E00C9464340F931F93CF93DF9314
:10564000EC0110E0212F30E0F901EE0FFF1FE20F17
:10565000F31FE054FF4F0491F901EE0FFF1FE20F1B
:10566000F31FEF53FF4F25913491002399F02097BA
:1056700039F480E20E94C208802F0E94C20808C04C
:105680008881801305C0CE01F901099581E003C02E
:105690001F5FD8CF80E0DF91CF911F910F910895C8
:1056A000CF93C091C4018093C401809147058823A2
:1056B000A1F185E495E00E94230BE09152038A302A
:1056C00011F08D30F9F4EE2381F3F0E0ED5AFC4F48
:1056D000108283E593E0B0DF811111C08AE097E08A
:1056E0000E94010983E593E00E94F60882EF96E0AC
:1056F0000E94010980E090E09FDF0E940E09109255
:105700005203D3CFE7FDD1CF91E09E0F9093520388
:10571000F0E0ED5AFC4F8083C8CFC093C401CF9115
:105720000895E4E6F0E080818B7F8083299A84B13C
:10573000876084B9239880E58CBD8DB581608DBD6F
:10574000089520915209309153092115310521F412
:1057500020913701309138018091350190913601C7
:10576000009741F48DB79EB74091390150913A01AD
:10577000841B950B2817390718F4821B930B089587
:1057800080E090E0089582E40E94C20840E265E073
:1057900080915209909153090E9412090E940E09AA
:1057A00083E50E94C20840E265E080913701909154
:1057B00038010E9412090E940E0985E40E94C20865
:1057C00040E265E080913501909136010E94120916
:1057D0000E940E0986E40E94C208B3DF40E265E041
:1057E0000E9412090C940E09A2E0B0E0EAEFFBE27D
:1057F0000C944E34EDECF5E08091F100819385E05E
:10580000E53DF807C9F72091CD053091CE05832FEE
:1058100090E08A30910508F01BC1FC01EA5AFF4F65
:105820000C943834203879F0223809F011C1809175
:10583000D1058093E9008091EB0085FB882780F9F2
:105840001092E90006C08091C8059091C905911198
:1058500082609091E800977F9093E8008093F10038
:105860001092F1008091E800982F9E7F9093E800BD
:105870008F778093E8008091E80082FDAFC080912F
:10588000CC058111F8CFD5C0822F8D7F09F0E0C003
:10589000222319F0223061F033C08091CF0581308E
:1058A00009F0C7C0333009F080E08093C90528C0F3
:1058B0008091CF05811124C02091D105277009F472
:1058C000B8C02093E9008091EB0080FF19C080915F
:1058D000EB00313091F480618093EB0081E090E047
:1058E000022E01C0880F0A94EAF78093EA00109212
:1058F000EA008091EB00886001C080628093EB0039
:105900001092E9008091E800877F8093E800809101
:10591000E800982F9E7F66C021119AC02091CF0584
:105920008091E800877F8093E8009091E800892FBC
:105930008E7F8093E8009F779093E8008091E80045
:1059400080FD05C08091CC058111F8CF72C0822FF7
:105950008F77982F90689093E300882309F469C0AB
:1059600083E08093CC0565C02058223008F070C0D9
:10597000AE014F5F5F4F6091D1058091CF0590914F
:10598000D0050E946B04009709F453C02091E800F1
:10599000277F2093E800BC0189819A812CD11EC009
:1059A000203809F055C08091E800877F8093E80097
:1059B0008091CA058093F1008091E800982F9E7F26
:1059C0009093E8008F778093E8008091E80082FD53
:1059D00005C08091CC058111F8CF2BC08091E800E3
:1059E000982F9B7F9093E8008F778093E80021C0E9
:1059F00021112EC09091CF059230D8F48091E8000B
:105A0000877F8093E8009093CA058091E800982FE3
:105A10009E7F9093E8008F778093E8008091CA057D
:105A2000882311F084E001C083E08093CC050E94BC
:105A3000BA068091E80083FF0EC08091EB0080627F
:105A40008093EB008091E800877F8093E80003C09B
:105A50000E94D206EECF2296E2E03CC78093E90096
:105A6000EBEEF0E0808181608083EDEEF0E010826B
:105A70006093EC0040838091EE00881F8827881F88
:105A800008951092F40080E08093E9001092F000F5
:105A90001092E8009091ED009D7F9093ED00909121
:105AA000EB009E7F9093EB008F5F873069F708953E
:105AB0008091CD0587FD05C08091E80080FF0FC073
:105AC00013C08091E80082FD05C08091CC05811152
:105AD000F8CF08958091E800982F9B7F09C08091AE
