:100000001EC1000038C1000036C1000034C100002C
:1000100032C100000C94E20C2EC100002CC1000083
:100020002AC1000028C1000026C100000C94B115AF
:1000300022C1000020C100001EC100000C948B0CE6
:100040001AC1000018C1000016C10000DEC3000084
:1000500012C1000010C100000EC100000CC1000060
:100060000AC1000008C1000006C1000004C1000070
:1000700002C10000E9121B13FF131B13FF136313CC
:100080008B13FF13A713CF13423B064323024604EF
:1000900008692D1041BD0F52A905541C12569D062A
:1000A00057E9055845096565066C2A0674400478C9
:1000B000B4020000002A03430055004C0034003312
:1000C00000330000002A03430055004C005F004845
:1000D000004D000000160362007500730077006198
:1000E00000720065002E0064006500000004030932
:1000F00004090243000201008032090400000102E9
:10010000020100052400011005240103010424025A
:10011000060524060001070582030800FF09040103
:1001200000020A00000007050402400000070583E2
:10013000024000001201100102000008EB034B20F6
:10014000000001020001202F2000203D20000D2E84
:100150002D07D3913D04320000060021656A55E465
:100160003023B900070018146C070090876BF8560D
:1001700011E92A001F410027675081C2504C4C31C1
:100180000D0A00504C4C300D0A005620312E3635E9
:100190002043554C5F484D005620312E36352043C4
:1001A000554C34333300202F2000203D20004C4F8D
:1001B00056460D0A00424F56460D0A004552523A25
:1001C0004343410D0A000007022E030D04E905CA4E
:1001D000070C0B060D210E650F6A10C81193120350
:1001E00015341733181819161B43215625002611EC
:1001F00029592C812D353EC30D2E2D07D3913D0459
:10020000320000060010B07155E43023B900070039
:1002100018146C070090876BF85611E92A001F41EB
:100220000020697320756E6B6E6F776E2920557391
:1002300065206F6E65206F66003F20280000112446
:100240001FBECFEFD2E0DEBFCDBF11E0A0E0B1E036
:10025000E8EBFDE202C005900D92A831B107D9F795
:1002600022E0A8E1B1E001C01D92A335B207E1F799
:100270000CD00C94DA16C4CEF89481E085BF82E0ED
:1002800085BFE0E0F8E1099508952FE088E190E06E
:100290000FB6F894A895809360000FBE209360007D
:1002A00090E080E80FB6F89480936100909361002D
:1002B0000FBE2E9A2D9A04B603FE0AC083E390E087
:1002C0002FD4882329F060E083E390E024D4D4DFA6
:1002D00089EF87BD84E085BD82E084BD80936E0098
:1002E000109280008AE08093810084B7877F84BF6A
:1002F0003C9A0E94BD120ED50E9495150E940F12C5
:10030000AAD78CE792E19093B3018093B20181E088
:1003100080931C0144980E944716BAD10E945E0A3D
:10032000C5D20E94360EF7CF292F33272230310550
:1003300059F02330310569F02130310539F582E17A
:1003400090E024E331E026C083E490E021EF30E048
:1003500021C099278130910539F018F0029751F0AA
:1003600015C0EDEEF0E002C0E5EDF0E0849190E024
:100370009F0110C01E9903C025EB30E002C025ECA0
:1003800030E0E5ECF0E0849190E004C080E090E0A3
:1003900020E030E0FA013183208308958EBD0DB452
:1003A00007FEFDCF8EB508950F931F93CF93DF9374
:1003B000082F8A3018F4853018F001C008E0055085
:1003C0008BE290E060E010E009581E4FEC012196AE
:1003D000A2D3C333D10541F0CC3219F4F8016491B2
:1003E00001C060E0CE01F2CFDF91CF911F910F915C
:1003F0000895CF93DF9382E090E0FC01E45BFE4F31
:100400006491EC01219687D3CB32D10511F0CE0156
:10041000F4CF1E990CC060E18FE090E07CD360EBDC
:1004200080E190E078D361E781E190E074D388E0E7
:10043000BBDFDF91CF9108954598806CAFDF80E0FE
:10044000ADDF459A0895A1E0B0E0E9E2F2E00C9456
:100450009C1641E0BE016F5F7F4F019619D3892B37
:1004600021F18981893969F410E0812FE5DF0CD30E
:10047000812F8770873009F493D21F5F1033A9F75B
:1004800014C0DADF182F83E45BD28981FDD28AE4BD
:1004900091E079D2812FF8D286E491E074D240E2E3
:1004A00062E0812F90E080D27BD22196E3E00C9431
:1004B000B816A1E0B0E0EFE5F2E00C949D16459887
:1004C000806469836BDF6981862F68DF459A219696
:1004D000E2E00C94B916459861DF459A0895EF92D1
:1004E000FF920F931F93CF93DF93EC01EC983D9A0B
:1004F000459A8EE190E016D245988EE190E012D2B6
:10050000459A8DE290E00ED280E3E5DF84E690E04C
:1005100009D2459880E442DF7E0189E2E80EF11CB1
:100520008E010F5F1F4FCE01FBD238DF0E151F0566
:1005300011F0E801F5CF459A45988EE72FDF8BE261
:1005400090E0EC012196ECD229DFC333D10511F004
:10055000CE01F7CF459A83E3BEDF81E0E8D1CDB786
:10056000DEB7E6E00C94B516A1E0B0E0EAEBF2E00D
:100570000C949D1622E0298341E0BE016F5F7F4FFE
:10058000019686D2898110DF82E090E0A8DF219673
:10059000E2E00C94B916CF93EC9886E39CDFCFEFA2
:1005A00085E399DFC1508077803229F08AE090E0BE
:1005B000B9D1C111F5CFCF910895CF93CFEF84E397
:1005C0008ADFC1508077803129F08AE090E0AAD19B
:1005D000C111F5CFEC9ACF91089586E37CDF10929C
:1005E000B40110926A01089582E090E078DF81E022
:1005F0008093B40110926A0108950F931F93CF93D3
:10060000DF93082F10E0C62FD0E085E315DF8017B9
:1006100031F0CE0187D11150C1F781E001C080E0F7
:10062000DF91CF911F910F91089585E205DF8F3300
:1006300011F080E0089586E34EDF8091180181116A
:1006400004C083E891E09FD102C08DE344DF83E3DF
:1006500042DF64E081E0D1DF85E2EEDE8F3349F7EF
:1006600080911801811103C08CE791E08CD181E069
:10067000089585E3E1DE8D3051F485E2DDDE8F33D0
:1006800031F4D3DF84E327DF80778031D9F7089511
:1006900080914A02843009F061C08093E900809122
:1006A0001901811128C08091E80085FF24C0809144
:1006B000F200882331F06091F10083E092E046D3AC
:1006C000F6CF8091E800982F9B7F9093E8008F777A
:1006D0008093E80081E08093190188E493E090938F
:1006E000B1018093B001E091B201F091B30181E0DA
:1006F00009951092190183E08093E9008091C2016D
:10070000882361F18091E80085FF28C0F8948091EA
:10071000C201882351F08091F200803430F480ECE3
:1007200091E02AD38093F100F2CF78949091F20077
:100730008091E800282F2E7F2093E8008F77809308
:10074000E800903459F40E9455148091E800982FE5
:100750009E7F9093E8008F778093E800089542E0B1
:1007600061EC82E00E94051442E361E883E00E94AC
:10077000051442E360E884E00E9405141092000131
:1007800010920101109202011092030108958091CC
:100790004B0290914C02913229F0923261F19032E9
:1007A00099F512C0813A81F58091E800877F8093A6
:1007B000E80067E070E080E091E00E947E148091A4
:1007C000E800982F9B7F11C08132F1F48091E800FE
:1007D000877F8093E80067E070E080E091E00E940E
:1007E0001B158091E800982F9E7F9093E8008F77EB
:1007F0008093E8000895813239F48091E800877F82
:100800008093E8000C942F1408951F920F920FB656
:100810000F9211248F939F93AF93BF938091B60152
:100820009091B701A091B801B091B9010196A11DB5
:10083000B11D8093B6019093B701A093B801B09316
:10084000B9018091B5018F5F8093B501BF91AF91E0
:100850009F918F910F900FBE0F901F9018952FB7FB
:10086000F8944091B6015091B7016091B801709130
:10087000B901FC0140835183628373832FBF0895C4
:10088000A4E0B0E0E6E4F4E00C949D16CE010196FD
:10089000E6DF8C81F9D08B81F7D08A81F5D0898110
:1008A000F3D07ED02496E2E00C94B9168091B60184
:1008B0009091B701A091B801B091B90120911B01AD
:1008C000281779F18091B6019091B701A091B801F4
:1008D000B091B90180931B01A8958091B5018D3726
:1008E00000F11092B5018091070181FF04C088B129
:1008F00090E1892788B98091BA019091BB01843831
:1009000023E0920728F401969093BB018093BA01EB
:1009100080911A018F5F80931A018C3311F4109229
:100920001A010895880F991F0197F1F7089520ED96
:1009300037E0815020F0F9013197F1F7FACF0895AF
:10094000CF93C82F80914A02843081F480911C019A
:1009500080FF0CC08091C201803408F099DE6C2FBA
:1009600080EC91E0F3D1CA3009F492DECF91089582
:10097000CF93DF93EC018991882311F0E1DFFBCF66
:10098000DF91CF910895CF93DF93EC01FE01849125
:10099000882319F0D5DF2196F9CFDF91CF91089503
:1009A0008DE0CEDF8AE0CCCFA6E0B0E0EAEDF4E067
:1009B0000C949B16062F1E8215E02AE030E01150A1
:1009C000E1E0F0E0EC0FFD1FE10FF11DB9010E9425
:1009D0007316805D8083CB010150009769F011117F
:1009E000EECF0AC0112359F01150E1E0F0E0EC0F16
:1009F000FD1FE10FF11D4083015007FFF3CF81E0A0
:100A000090E08C0F9D1F810F911DB2DF2696E4E0D0
:100A10000C94B716A5E0B0E0E0E1F5E00C949D166B
:100A20001D8224E0382F3F702150E22FF0E03A3051
:100A300010F4305D01C0395CA1E0B0E0AC0FBD1F27
:100A4000EA0FFB1F308334E0969587953A95E1F7DE
:100A50006150009739F7615067FD0BC0222349F0C0
:100A60002150E1E0F0E0EC0FFD1FE20FF11D4083AB
:100A7000F2CF81E090E08C0F9D1F820F911D78DFF7
:100A80002596E2E00C94B91640E362E090E0C2CF14
:100A9000DC01FB0130E090E08D918823A9F08136E4
:100AA00008F0805220ED280F2A3030F02FEB280F6D
:100AB000263030F429EC280F292B332379F006C097
:100AC000803251F38A3341F3CF0105C0CF01019643
:100AD0002083415041F4861B970B0895922F9295E5
:100AE000907F31E0D9CFFC01D5CFDB01FC0180E064
:100AF00090E02191222361F030ED320F3A30C8F7B7
:100B00006AE070E00E946216C097820F911DF1CFDB
:100B10008D939C9308950E94CC16F999FECF089569
:100B20000C94C41608951F93CF93DF93162F115082
:100B30001F3F59F0EC012196F3DFA6DF112311F0DE
:100B40008AE3FEDE1150CE01F3CFDF91CF911F91EA
:100B50000895A2E0B0E0EFEAF5E00C949A16FC01EB
:100B600021812D3421F466E08AEF91E005C0203523
:100B700029F460E18AED91E0D6DF26C01A8219825D
:100B800042E0BE016F5F7F4F019682DF098110E076
:100B9000823021F4102F00278A81082BC801C0DF82
:100BA000F82E82E5CDDE40E364E0C80133DF8AEA57
:100BB00091E0E9DE8F2D68DF86EA91E0E4DE40E235
:100BC00062E08F2D90E0F0DEEBDE2296E5E00C9403
:100BD000B616A6E0B0E0EFEEF5E00C9497166C01C7
:100BE00043E0BE016F5F7F4F019652DF823070F1AC
:100BF000E980F12C823021F0FE2CEE242A81E22AB9
:100C00008C011127FE01E00FF11F6081C70183DF16
:100C1000000F111F0F5F1F4F0C0D1D1D8FEFE81AE6
:100C2000F80AF8018081882389F041E0BE016F5FF6
:100C30007F4FC8012DDF892B49F06981C7016BDF28
:100C40000E5F1F4FE2E0EE0EF11CEBCF2696E8E0C0
:100C50000C94B31641E067E071E0019619DF8091D2
:100C6000070180FF02C0449A01C0449860910701C7
:100C700084E390E050CFA1E0B0E0E1E4F6E00C9432
:100C80009D161982009731F041E0BE016F5F7F4FE2
:100C90000196FEDE89818F3F09F4FFCF882321F082
:100CA00061E083E390E037DF0E949B1510926E00B5
:100CB000F89428E088E190E00FB6F894A895809326
:100CC00060000FBE20936000FFCFCF93DF93EC0155
:100CD00061E080E090E01FDF61E481E090E01BDFF5
:100CE00088DB60E080E690E016DF60E081E690E07F
:100CF00012DF60E083E390E00EDF62E084E390E0E7
:100D00000ADF8981883719F080E090E0B4DFDF9155
:100D1000CF91089580E090E003DF813029F481E0F5
:100D200090E0FEDE813419F080E090E0CEDF84E3D5
:100D300090E0F6DE8093070108951E9903C088E9CC
:100D400091E002C08AE891E01EDE2ACEFC018FB756
:100D5000F8949281903470F49F5F9283208191E0A7
:100D6000920F9083DF01A20FB11D13966C93903404
:100D700009F410828FBF0895FC019FB7F894828117
:100D8000882371F081508283818121E0280F2183A3
:100D9000DF01A80FB11D13968C91203409F4118244
:100DA0009FBF0895CF93C82F469A882319F088E5EE
:100DB00092E002C080E991E0B5DD4698CC2319F0BD
:100DC00088E592E002C080E991E0ACDDCF91089522
:100DD000A7E0B0E0EEEEF6E00C9491168C01B62E92
:100DE000842FD22E7801E60EF11C462FB80162D274
:100DF000F701808361E06B0D1982402F4801A12C1F
:100E000057E001E010E0882D841B861708F060C0D1
:100E1000F401F1904F01A7E0B0E0C8010A2E01C033
:100E2000880F0A94EAF78F2181F081E090E08C0F1F
:100E30009D1F8A0D911DFC0170819801052E01C036
:100E4000220F0A94EAF7722B7083552319F02FEFC3
:100E5000250F0EC091E09A0D973008F4A92E21E0DD
:100E600030E02C0F3D1F290F311DF901108227E0C2
:100E7000522F119790F68F2D082E82958025082EDF
:100E80008695869580258F5F81FF0FC0A1E0B0E039
:100E9000AC0FBD1FAA0DB11D3C91C801022E01C0AF
:100EA000880F0A94EAF7382B3C93222319F05FEF5E
:100EB000520FA9CF81E08A0D873008F4A82EA1E057
:100EC000B0E0AC0FBD1FA80FB11D1C9257E09BCF27
:100ED000552319F01FEF150F02C0A39417E0B12C92
:100EE0002091BA013091BB01B5016E5F7F4F8D2D0E
:100EF0000E945916992787FD90952817390720F4E5
:100F00008EEA91E040DD63C0281B390B3093BB01B2
:100F10002093BA01449A8091B401811101C064DB2D
:100F20003ADBEE24E394F12C812E912C1CE080E03E
:100F300039DF1150E1F781E035DFC12C4C2D552709
:100F400047FD50954A155B054CF097E0792E01E07E
:100F500010E00C0F1D1F040F151F18C007E010E054
:100F600066246394712C6C0E7D1E640E751EC70181
:100F7000002E01C0880F0A94EAF7F30190818923BB
:100F800011DF0150110998F7C394D8CF872D992705
:100F900087FD90958816990664F4C701072C01C057
:100FA000880F0A94EAF7F80190818923FBDE7A948E
:100FB000EDCF8AE0BCDCDA9409F0B8CF8091BD01B6
:100FC000882311F0FADA02C086E385DA449827967E
:100FD000EEE00C94AD16A7E0B0E0E1EFF7E00C9482
:100FE0009C16162F242F45E0BE016F5F7F4F0196A0
:100FF0002F834EDD2F81412F682FCE010196E8DE31
:101000002796E3E00C94B81643E066E0E4CF8F92B5
:101010009F92AF92BF92DF92EF92FF920F931F9336
:10102000CF93DF931092310110923E01FC01218198
:10103000220F220F220F3381231B57E0520F1092F1
:10104000320110E070E038E0D32ED20EFF24F3948A
:1010500047E007E0E12CC7E0D0E0A1E0B0E0FD14FC
:1010600009F47FC0FC01EE0DF11D248130E0002E5B
:1010700002C0359527950A94E2F721703327E22FB5
:10108000002311F0015002C0E39407E06B3471F4C7
:10109000433009F04AC0111107C0E1115FC010923E
:1010A000310170933E0174C010E041C04F3F31F5F3
:1010B0006634A9F4E72FF0E0EE5CFE4FE0810E2EDF
:1010C000E295E0250E2EE695E695E025EF5FE1FB43
:1010D000882480F8912C8216930641F004C0653470
:1010E00029F4E11103C010933101DBCF7F5FE72FBB
:1010F000F0E0EE5CFE4F108247E031C0EE2361F17C
:10110000663471F4E72FF0E0EE5CFE4FA0809D01A5
:10111000042E01C0220F0A94EAF7A22AA0821CC062
:10112000653439F06B34C1F404C04F3FD1F2EE2383
:1011300099F0E72FF0E0EE5CFE4F9E01241B310991
:1011400047FD33955D0102C0AA0CBB1C2A95E2F74E
:1011500095013081322B3083415001C011E0F3946E
:101160007ECF1093310170933E015F1588F4653492
:1011700031F44F3F21F47F5F70933E0104C08091B2
:1011800031018111F8CF81E090913E01911101C0B0
:1011900080E0DF91CF911F910F91FF90EF90DF9052
:1011A000BF90AF909F908F90089510926F008091A4
:1011B000410190E064E170E00E9462168E5B9E4FF8
:1011C000FC0110820895FC0121812C3008F0EDCF44
:1011D0003381662381F081E090E0032E01C0880F07
:1011E0000A94EAF7DF01A20FB11D14969C9114979F
:1011F000982B14969C93332319F031503383089520
:1012000087E083832F5F2183E20FF11D148208950D
:10121000DC011196EC911197F0E050E02C91CF0198
:10122000841B950B0B964797A0F430E070E0C90142
:10123000861B970B0B96479760F42E0F3F1F640F8A
:10124000751F261B370B255F3F4F81E02731310586
:1012500008F080E008953E9A46983F98EAE6F0E06C
:1012600080818160808382EC91E09093BB018093C8
:10127000BA01109256011092B40108958091BD01F7
:10128000882311F0B1D999C9A8C9FC012181211184
:101290000BC08091BD01F8DB40E265E08091BA01AE
:1012A0009091BB0181DB7CCB41E06DEB71E001965D
:1012B000EFDBE4CF442339F04150FB01E40FF11D93
:1012C0009081890FF7CF089520E0662339F06150AF
:1012D000FC01E60FF11D30812327F7CF822F0895FF
:1012E000A091310140E035E020E0662399F06150A3
:1012F000FC01E60FF11D5081752F72957F70272735
:10130000370FAA2311F0442319F05F702527350FFA
:101310004F5FEBCF822F830F8295807F822B0895C2
:10132000FC0132812381A081B181A30FB11D8C9179
:1013300090E0022E02C0959587950A94E2F781709D
:1013400099274FEF420F4383211104C03F5F32833F
:1013500027E023830895A2E0B0E0E1EBF9E00C94EC
:1013600095167C01A12CB12CD12CCC24C394062F32
:1013700010E001501109A616F0F4C7014A836983F1
:10138000CFDF4A816981882391F0442349F0980195
:101390002A193B098C2D01C0880F2A95EAF706C04F
:1013A0008C2D0A2C01C0880F0A94EAF7D82A8FEFF7
:1013B000A81AB80AE0CF8D2D2296EAE00C94B11657
:1013C000A4E0B0E0E6EEF9E00C9494161B8227E06E
:1013D0002C839C012C5F3F4F3A83298310923E015E
:1013E000FC01218130E043E0220F331F4A95E1F7F1
:1013F000438187E090E0841B9109280F391F253431
:1014000031050CF44EC0B12CA0903E01F5E0FA1568
:1014100058F10A2D10E040E068E0CE0101969BDF14
:101420000E5C1E4FF8018083982E092C9294902414
:10143000092C969496949024CE01019671DF939492
:1014400091FACC24C0F8D12C90E0C816D90649F501
:10145000CE01019665DF811124C0F8018081B82694
:10146000A394A0923E01D0CF40E068E0CE01019667
:1014700072DF082F182F012E12951025012E1695B8
:1014800016951025CE0101964BDF1F5F11FBEE2450
:10149000E0F8F12C282F30E0E216F30611F481E099
:1014A000B01280E02496EBE00C94B0168091BC0161
:1014B00080FD03C084608093BC010895A1E0B0E08A
:1014C000E4E6FAE00C949916198280911E018823B3
:1014D00091F18091BD0187FF16C084E30E941C0238
:1014E0008058803458F0803C58F490E08055910941
:1014F000A3E095958795AA95E1F703C080E001C028
:101500008FE08F591DDA8091BD0183FF12C082E701
:1015100017DA8091BD0184FF03C080911F0110DAAA
:1015200086E60EDA8091BD0184FF03C080911E0122
:1015300007DA10921E0180913F01882309F4E7C168
:10154000449A8091400190E064E170E00E9462164C
:101550008C010E5B1E4F8981811139C066E4C80180
:1015600056DD8823A1F1F0903E01FA94F0923E01FD
:101570004F2D62E371E086E09DDEEF2DF0E0EE5C42
:10158000FE4FE0808E1105C093E09F1510F486E4B5
:101590001BC0282F30E02F5F3F4F6E2D70E02617C5
:1015A000370739F493E09F1520F496E499838083FC
:1015B0000EC04F2D62E371E08CE07CDE8E1106C020
:1015C000E3E0EF1518F484E5898301C0198289816D
:1015D000811116C065E4C8011ADD882389F0809165
:1015E0003E01815080933E01893051F469E082E3ED
:1015F00091E06ADE90913B01891302C085E4898302
:101600008981811106C0C801DBDE882311F088E4DE
:1016100089838981811133C0F801438960911F0159
:10162000C8014296F5DD682FC801CDDD6BE4C80125
:10163000EEDC8823B1F0F0903E01FA94F0923E0186
:101640006F2D82E391E04CDEEF2DF0E090913101BF
:10165000E91BF109EE5CFE4F9081891302C08BE417
:101660008983898181110BC0F801838191E0980FF2
:101670009383873021F41382818181508183398162
:10168000332309F4C5C02091BD0120FFC1C0809162
:10169000BC018E7F8B7F8093BC0121FD64C0509183
:1016A0003001F0903E015F113DC040E04517C0F4AD
:1016B000842F90E061E0640FFC01EC5DFE4FDC01E3
:1016C000AE5CBE4F70818C91781741F04093300131
:1016D0008091BC018D7F8093BC0104C0462FE6CF72
:1016E0004093300145131EC04091B6015091B7019F
:1016F0006091B8017091B901809120019091210110
:10170000A0912201B0912301481B590B6A0B7B0B5E
:10171000463251056105710528F48091BC01816054
:101720008093BC0140E04F1560F4842F90E0FC01F1
:10173000EC5DFE4FDC01AE5CBE4F8C9180834F5F51
:10174000F2CF409330018091B6019091B701A09102
:10175000B801B091B9018093200190932101A09329
:101760002201B09323013435E9F426FD1BC080919A
:101770003E018530B8F0809134018B3471F08936A8
:1017800061F09DEA980F923040F08D57823028F03A
:10179000809135018077803729F48091BC01816088
:1017A0008093BC01B801CE01019680DE8091BC011E
:1017B00082FF2EC08981C4D880913101882329F00D
:1017C00080913E01815080933E01F12CE0913E01D9
:1017D000FE1640F4EF2DF0E0EE5CFE4F808154D910
:1017E000F394F4CF80913101882349F0F0E0EE5C6E
:1017F000FE4F80818F7040E361E090E00BD98091D3
:10180000BD0185FF04C084E30E941C023DD9C8D8F5
:101810008091BD0182FF69C080E792D8F801808184
:1018200040E262E090E0C0D8F801808990E040E2B8
:1018300065E054E0880F991F5A95E1F7B5D8F80193
:10184000818990E040E265E074E0880F991F7A9505
:10185000E1F7AAD8F801828990E040E265E0E4E08F
:10186000880F991FEA95E1F79FD8F801838990E0E6
:1018700040E265E0F4E0880F991FFA95E1F794D80B
:10188000F801828140E263E090E08ED8F801818126
:1018900040E263E090E088D8F801238140E262E012
:1018A00087E090E0821B91097FD880E249D880913F
:1018B000BD0185FF06C084E30E941C02E5D880E2DA
:1018C0003FD8F8018381873019F081818F5F818350
:1018D000F12CF8018181F81638F4F801EF0DF11DB3
:1018E0008481D2D8F394F5CF5BD8F801108280912F
:1018F0003F01815080933F01809140018F5F823092
:1019000019F08093400102C0109240014498219642
:10191000E6E00C94B5161F920F920FB60F921124A9
:101920002F933F934F935F936F937F938F939F93E7
:10193000AF93BF93EF93FF9310926F008091BD011F
:1019400083FF03C08EE20E94A00440914101242F36
:1019500030E0C90164E170E00E9462168E5B9E4F28
:10196000FC018081833018F08181823010F41DDC0D
:1019700018C080913F01813049F48091BD0182FF00
:10198000F6CF85EB91E00E94C304F1CF8F5F809387
:101990003F014F5F423019F04093410102C0109265
:1019A0004101FF91EF91BF91AF919F918F917F91F5
:1019B0006F915F914F913F912F910F900FBE0F90BC
:1019C0001F9018951F920F920FB60F921124FF923D
:1019D0000F931F932F933F934F935F936F937F9337
:1019E0008F939F93AF93BF93CF93DF93EF93FF9327
:1019F0000091840010918500F4E016950795FA9502
:101A0000E1F78091410190E064E170E00E9462168C
:101A1000EC01CE5BDE4F8881843039F40E3208F45D
:101A2000D6C00F3410F0C1DBD2C037990CC084305F
:101A300039F461E0CE01C7DB10928500109284007A
:101A400000931F01C4C080911F01081B00931E0159
:101A500010928500109284008881843021F460E027
:101A6000CE01B1DBB4C082E086BBF88000911F01DB
:101A7000F1100FC0053608F0AAC080911E0185360E
:101A800008F0A5C0088B898B81E08A8382E0888377
:101A90009EC010911E0182E0412F602FF81248C0B5
:101AA000CE014096B5DB4A818823F9F0288930E0E1
:101AB000C901880F991F820F931F800F911D959563
:101AC000879595958795888B298930E0C901880F7E
:101AD000991F820F931F810F911D9595879595955D
:101AE0008795898B4F5F4A8372C04430F8F080EA53
:101AF0009FE090938900809388008A818C3050F019
:101B00002889898990E0820F911D8536910514F00E
:101B100084E001C083E088830A8B1B8B198287E0F5
:101B20008B831C8282E080936F0051C01882A2CF09
:101B3000CE0142966DDB882301F161E0CE0143DBEB
:101B40002A8930E0C901880F991F820F931F800FE7
:101B5000911D95958795959587958A8B2B8930E072
:101B6000C901880F991F820F931F810F911D9595B1
:101B70008795959587958B8B2AC0412F602FCE0135
:101B8000409646DB882301F160E0CE011CDB28890A
:101B900030E0C901880F991F820F931F800F911D9C
:101BA0009595879595958795888B298930E0C9010A
:101BB000880F991F820F931F810F911D959587950F
:101BC00095958795898B03C087E0F8122CCFFF91FC
:101BD000EF91DF91CF91BF91AF919F918F917F91C5
:101BE0006F915F914F913F912F911F910F91FF90B6
:101BF0000F900FBE0F901F901895CF93DF93EC9826
:101C00003D9A459A8EE190E00E94920445988EE1BB
:101C100090E00E949204459A8DE290E00E94920426
:101C200080E30E946B0284E690E00E949204C6EC7E
:101C3000D1E0FE0131966491FE0184910E94590227
:101C40002296F1E0C83FDF07A1F783E30E946B0211
:101C500084E00E94970484E30E946B0285E30E9463
:101C60001C028D30C1F7DF91CF910895AEE1B0E055
:101C7000ECE3FEE00C949B1680916A01882309F442
:101C8000A1C0379B8AC08FE30E941C028F77898393
:101C90008E3168F08AE30E946B0286E30E946B0239
:101CA0008DE30E946B0284E30E946B028BC0459817
:101CB0008FEF0E94CE0110E08981181760F480E058
:101CC0000E94CE01E2E0F0E0EC0FFD1FE10FF11DFC
:101CD00080831F5FF1CF80E00E94CE01082F80E05B
:101CE0000E94CE01459A84E30E946B0285E30E9424
:101CF0001C028D30C1F72A8196E792279A8392E0E1
:101D00008981E92FF0E0981768F441E050E04C0F2A
:101D10005D1FE40FF51F30812452232720839F5F2E
:101D2000232FEECF81E090E08C0F9D1FE80FF91F6D
:101D300090818B81982790838091BD0184FF12C090
:101D400081E60E94A00410E08981811730F1E1E072
:101D5000F0E0EC0FFD1FE10FF11D80810E94A00457
:101D60001F5FF2CF81E40E94A00410E089818117F7
:101D700058F0E1E0F0E0EC0FFD1FE10FF11D808174
:101D80000E9444051F5FF2CF8091BD0185FF03C013
:101D9000802F0E9444050E94D00485E30E941C020B
:101DA000813029F0813161F48AE30E946B0286E37D
:101DB0000E946B028DE30E946B0284E30E946B021F
:101DC0000E9439036E96E4E0D2C78F929F92AF9241
:101DD000BF92DF92EF92FF920F931F93CF93DF9307
:101DE000CDB7DEB7A6970FB6F894DEBF0FBECDBF56
:101DF0004DE18E010F5F1F4FB80101960E9448050B
:101E00007C0199270197298130E08217930709F017
:101E1000A2C080916A01811104C0EFDE83E00E94BC
:101E20009704DB808A8196E789278A8322E03981BB
:101E3000822F90E0F801E80FF91F231750F4DE011C
:101E4000A80FB91F8C9184529081892780832F5FBE
:101E5000EECF80818D258083CE0183960E942F0452
:101E600085E30E946B0285E30E941C02833181F1AD
:101E7000CE014F960E942F044F8D58A169A17AA1DF
:101E80008BA19CA1ADA1BEA184179507A607B7079A
:101E900060F44A015B01881A990AAA0ABB0A2DEB71
:101EA00082169104A104B10470F4481759076A0717
:101EB0007B0770F484549F4FAF4FBF4F8417950733
:101EC000A607B70728F48CEB91E00E94C30427C053
:101ED00085E30E941C02833119F6D4FE08C088E70E
:101EE0000E94970488E70E94970488E701C08AE06F
:101EF0000E94970445988FE70E94CE0158018A2DD1
:101F0000801B8E1530F4F50181915F010E94CE0196
:101F1000F6CF459A85E30E941C028331D9F385E30D
:101F20000E941C02863149F48BE30E946B0286E317
:101F30000E946B028DE30E946B0280916A018823EC
:101F400049F084E30E946B0285E30E941C028D30FD
:101F5000C1F701C093D9A6960FB6F894DEBF0FBEA5
:101F6000CDBFDF91CF911F910F91FF90EF90DF9048
:101F7000BF90AF909F908F900895FC0121812237F0
:101F800029F43BDE81E080936A010895233711F440
:101F900001961BCF10926A010895CF93DF93EC98BE
:101FA0003D9A459A8EE190E00E94920445988EE118
:101FB00090E00E949204459A8DE290E00E94920483
:101FC00080E30E946B0284E690E00E9492044598B0
:101FD00080E40E94CE01C8EFD1E0FE0184910E940E
:101FE000CE012196F2E0C530DF07B9F780910801F4
:101FF0000E94CE01809109010E94CE0180910A01C8
:102000000E94CE01C0E0D0E0FE01E85FFD4F849168
:102010000E94CE012196C931D105B1F7459A459864
:102020008EE70E94CE018BE290E0EC0121960E94A7
:1020300090050E94CE01C333D10511F0CE01F5CF3A
:10204000459A83E30E946B0281E00E94970481E03D
:102050008093B401DF91CF910895AF92BF92CF9258
:10206000EF92FF920F931F93CF93DF93EC0189813F
:10207000843769F46FE071E0CE0102960E94750525
:1020800040E260E080910F019091100112C083370F
:1020900009F062C18A81823789F46BE071E0CE0178
:1020A00003960E94750540E260E080910B019091DB
:1020B0000C010E94D4040E94D004A7C1449A8091CC
:1020C0006D0181110DC080916A01882329F081E0A2
:1020D00080936C0110926A0160DF83E00E94970494
:1020E00086E30E946B028AE30E946B028BE30E94EC
:1020F0006B020E94CB02FE0101900020E9F70E2F37
:102100000C1B0250C12C7E01E2E0EE0EF11C80910E
:102110000B0190910C012C2D332727FD30952817AA
:10212000390708F0E4C0013289F4469A80910F0122
:10213000909110010E949204469880910D01909117
:102140000E016AE070E0BED50E949204570111E0D2
:1021500010170CF0A6C0F50181915F01469A8033FB
:1021600009F03EC00132E1F480910D0190910E0121
:102170000E949204469880910D0190910E010E9458
:102180009204469A80910D0190910E010E94920452
:10219000469880910D0190910E0165E070E01EC09F
:1021A00080910F01909110010E94920446988091B5
:1021B0000F019091100163E070E084D50E949204B9
:1021C000469A80910F01909110010E9492044698C6
:1021D00080910F019091100163E070E073D55DC0B4
:1021E000813301F5013279F480910D0190910E0156
:1021F0000E949204469880910D0190910E0165E035
:1022000070E060D51CC080910F019091100163E0D7
:1022100070E058D50E949204469880910F019091E9
:1022200010012AC00132D1F480910D0190910E016C
:102230000E949204469880910D0190910E010E9497
:102240009204469A80910D0190910E010E94920491
:10225000469880910D0190910E011FC080910F0151
:10226000909110010E949204469880910F019091E4
:10227000100163E070E026D50E949204469A809196
:102280000F019091100163E070E01CD50E94920450
:10229000469880910F01909110010E9492041F5F57
:1022A00057CF469A013289F480910D0190910E0129
:1022B0000E949204469880910D0190910E0168E26F
:1022C00070E000D50E94920410C080910F0190919F
:1022D00010010E94920446981FE180910F01909195
:1022E00010010E9492041150C1F7C39410CF809145
:1022F0006D01882341F08091BD0181110EC086E3FC
:102300000E946B020FC080916C01882349F01092EB
:102310006C0173DC81E080936A010E94DD0202C0DF
:102320000E943E09449889E60E94A00483E70E9427
:10233000A00411E010170CF0BECEFE01E10FF11D5C
:1023400017FDFA958181803319F0813309F086E415
:102350000E94A0041F5FEECF823771F480916A0162
:10236000882329F081E080936C0110926A0115DEC8
:1023700081E080936D0149C0863651F58A818033B2
:1023800051F480E18093080180EB8093090181E79B
:1023900080930A0107C043E068E071E0CE01029635
:1023A0000E94480589E60E94A00486E60E94A004D7
:1023B0008AE30E94A004809108010E944405809154
:1023C00009010E94440580910A010E94440573CED0
:1023D0008837D9F480916C01882339F010926C0110
:1023E0000CDC81E080936A0108C082E090E00E94EA
:1023F0006F028091BD01882319F00E94DD0203C0A5
:1024000086E30E946B0210926D01DF91CF911F91C4
:102410000F91FF90EF90CF90BF90AF90089585E31C
:1024200090E00E9490058093BE0186E390E00E94B8
:1024300090058093BF010895A6E0B0E0E1E2F2E1EB
:102440007CC445E0BE016F5F7F4F01960E94480546
:102450008430D8F499819130B1F4833061F46A8189
:1024600085E390E00E948B056B8186E390E00E94FB
:102470008B05D5DF0AC08091BE010E944405809182
:10248000BF010E9444050E94D0042696E2E071C478
:102490000F931F93CF93DF93EC0110E0212F30E0D7
:1024A000C90163E070E00ED488579F4FFC0104918E
:1024B000C90163E070E006D487579F4FFC01259166
:1024C0003491002399F0209739F480E20E94A0040F
:1024D000802F0E94A00408C08881801305C0CE010F
:1024E000F901099581E003C01F5FD8CF80E0DF913B
:1024F000CF911F910F910895CF93C0911C018093AC
:102500001C01809105028823A1F183E092E00E94E2
:10251000BC06E0916E018A3011F08D30F9F4EE23A3
:1025200081F3F0E0E159FE4F10828FE691E0B0DFD9
:10253000811111C089E392E00E94C3048FE691E00B
:102540000E94B80481E292E00E94C30480E090E01F
:102550009FDF0E94D00410926E01D3CFE03488F642
:1025600091E09E0F90936E01F0E0E159FE4F808361
:10257000C8CFC0931C01CF910895E4E6F0E08081BC
:102580008B7F8083299A84B1876084B9239880E502
:102590008CBD8DB581608DBD0895A2E0B0E0E2ED07
:1025A000F2E1CBC3EBE4F2E08091F100819382E0B1
:1025B000E335F807C9F720914B0230914C02832F85
:1025C00090E08A30910508F01AC1FC01E65CFF4FEB
:1025D0009EC3203879F0223809F011C180914F0252
:1025E0008093E9008091EB0085FB882780F91092A9
:1025F000E90006C0809146029091470291118260E5
:102600009091E800977F9093E8008093F1001092FA
:10261000F1008091E800982F9E7F9093E8008F77DB
:102620008093E8008091E80082FDAFC080914A026B
:102630008111F8CFD5C0822F8D7F09F0E0C0222311
:1026400019F0223061F033C080914D02813009F0E1
:10265000C7C0333009F080E08093470228C08091E2
:102660004D02811124C020914F02277009F4B8C097
:102670002093E9008091EB0080FF19C08091EB006E
:10268000313091F480618093EB0081E090E0022E84
:1026900001C0880F0A94EAF78093EA001092EA00DA
:1026A0008091EB00886001C080628093EB00109203
:1026B000E9008091E800877F8093E8008091E8003E
:1026C000982F9E7F66C021119AC020914D02809163
:1026D000E800877F8093E8009091E800892F8E7F43
:1026E0008093E8009F779093E8008091E80080FD58
:1026F00005C080914A028111F8CF72C0822F8F7776
:10270000982F90689093E300882309F469C083E0D0
:1027100080934A0265C02058223008F070C0AE0194
:102720004F5F5F4F60914F0280914D0290914E023A
:102730000E949401009709F453C02091E800277F7C
:102740002093E800BC0189819A8126D11EC02038DF
:1027500009F055C08091E800877F8093E800809160
:1027600048028093F1008091E800982F9E7F90931B
:10277000E8008F778093E8008091E80082FD05C033
:1027800080914A028111F8CF2BC08091E800982FE8
:102790009B7F9093E8008F778093E80021C0211100
:1027A0002EC090914D029230D8F48091E800877F3E
:1027B0008093E800909348028091E800982F9E7FD4
:1027C0009093E8008F778093E800809148028823F7
:1027D00011F084E001C083E080934A020E94AF03BD
:1027E0008091E80083FF0EC08091EB0080628093AF
:1027F000EB008091E800877F8093E80003C00E948F
:10280000C703EECF2296E2E0B4C28093E900EBEE7C
:10281000F0E0808181608083EDEEF0E010826093D3
:10282000EC0040838091EE00881F8827881F089560
:102830001092F40080E08093E9001092F000109272
:10284000E8009091ED009D7F9093ED009091EB005A
:102850009E7F9093EB008F5F853069F7089580919C
:102860004B0287FD05C08091E80080FF0FC013C0B8
:102870008091E80082FD05C080914A028111F8CF65
:1028800008958091E800982F9B7F09C080914A02AB
:102890008111E9CF08958091E800982F9E7F909351
:1028A000E8008F778093E800089585E69091EC002A
:1028B00090FF05C09091E80090FF05C019C090916D
:1028C000E80092FD15C090914A02992399F09091E9
:1028D000EB0095FD11C09091E10092FFE7CF909140
:1028E000E1009B7F9093E100815001F783E0089520
:1028F00080E0089582E0089581E0089540915102BA
:10290000509152029B014617570708F49A0140E084
:1029100021153105A9F15091E80053FD39C05091BE
:10292000E80052FF06C08091E80082FF2CC080E0E2
:10293000089550914A02552369F15091E80050FFE3
:10294000E7CFFC01CF012115310551F04091F20094
:10295000483030F481918093F10021503109F2CF59
:102960005091F20041E0583009F040E05091E80009
:10297000652F6E7F6093E8005F775093E800C8CFC3
:102980004111C9CFD0CF80914A028111CCCF02C072
:1029900081E0089582E008954091510250915202E1
:1029A0009B014617570708F49A0140E021153105AD
:1029B000B1F15091E80053FD3AC05091E80052FF48
:1029C00006C08091E80082FF2DC080E008955091FC
:1029D0004A02552371F15091E80050FFE7CFFC0106
:1029E000CF012115310559F04091F200483038F4FB
:1029F00084918093F100215031093196F1CF5091AB
:102A0000F20041E0583009F040E05091E800652FB5
:102A10006E7F6093E8005F775093E800C7CF411165
:102A2000C8CFCFCF80914A028111CBCF02C081E0C5
:102A3000089582E008956115710571F12091E80013
:102A400023FD2FC020914A02222379F12091E80032
:102A500022FFF4CFFC018091F200882371F09F01E6
:102A60002F5F3F4FC9014091F100408361507109D0
:102A70006115710519F0F901EECFCF012091E80041
:102A8000322F3B7F3093E8002F772093E800D3CF9D
:102A900080914A02882349F08091E80080FFF8CFB6
:102AA00002C081E0089580E0089582E0089553D047
:102AB00055D010924A02109248021092470210928A
:102AC000460219BC89B5826089BD09B400FEFDCFFC
:102AD0008091D800982F9F779093D800806880933A
:102AE000D800809163008E7F809363008091D8002E
:102AF0008F7D8093D8008091E0008E7F8093E000EE
:102B00008091E1008E7F8093E1008091E2008160FE
:102B10008093E2008091E100877F8093E1008091C3
:102B2000E20088608093E2000895C1DF81E0809335
:102B3000490278940895BBDFE0EEF0E08081816087
:102B40008083E8EDF0E080818F77808319BC10925C
:102B50004902089508951092E20008951092E1004C
:102B600008951F920F920FB60F9211242F933F9347
:102B70004F935F936F937F938F939F93AF93BF9385
:102B8000EF93FF938091E10080FF1CC08091E200F1
:102B900080FF18C08091E1008E7F8093E1008091DA
:102BA000E2008E7F8093E2008091E200806180935A
:102BB000E2008091D80080628093D80019BC109206
:102BC0004A02C8DF8091E10084FF29C08091E200C1
:102BD00084FF25C019BC89B5826089BD09B400FE97
:102BE000FDCF8091D8008F7D8093D8008091E10047
:102BF0008F7E8093E1008091E2008F7E8093E200DF
:102C00008091E20081608093E200809148028823F5
:102C100011F084E001C081E080934A029BDF809143
:102C2000E10083FF23C08091E20083FF1FC08091F9
:102C3000E100877F8093E10082E080934A02109256
:102C400048028091E1008E7F8093E1008091E20054
:102C50008E7F8093E2008091E20080618093E200A9
:102C6000E7DD42E060E080E0D0DD74DFFF91EF91CE
:102C7000BF91AF919F918F917F916F915F914F9194
:102C80003F912F910F900FBE0F901F901895CF93EB
:102C900080914A02882359F0C091E900C7701092D0
:102CA000E9008091E80083FD78DCC093E900CF91D2
:102CB0000895002480FD060E660F11F08695D1F769
:102CC000802D08950024552704C0080E591F880F31
:102CD000991F009729F076956795B8F37105B9F7B4
:102CE000802D952F0895AA1BBB1B51E107C0AA1F79
:102CF000BB1FA617B70710F0A61BB70B881F991F9D
:102D00005A95A9F780959095BC01CD010895EE0FD5
:102D1000FF1F0590F491E02D09942F923F924F925E
:102D20005F926F927F928F929F92AF92BF92CF925B
:102D3000DF92EF92FF920F931F93CF93DF93CDB764
:102D4000DEB7CA1BDB0B0FB6F894DEBF0FBECDBFDC
:102D500009942A88398848885F846E847D848C84AD
:102D60009B84AA84B984C884DF80EE80FD800C81B6
:102D70001B81AA81B981CE0FD11D0FB6F894DEBF99
:102D80000FBECDBFED010895F999FECF92BD81BD73
:102D9000F89A992780B50895262FF999FECF1FBA82
:102DA00092BD81BD20BD0FB6F894FA9AF99A0FBE74
:082DB00001960895F894FFCF8D
:102DB800802500000000080210B07106000401A47C
:082DC80001000053022000008D
:00000001FF
