:1000000011C200002BC2000029C200000C94111381
:1000100025C2000023C2000021C200001FC2000050
:100020001DC200001BC2000019C200000C941C2B52
:1000300015C2000013C2000011C200000C94AA12E5
:100040000DC200000BC2000009C200002CC5000058
:1000500005C2000003C2000001C20000FFC1000091
:10006000FDC10000FBC10000F9C10000F7C10000A4
:10007000F5C10000542886286A2986286A29CE28D6
:10008000F6286A2912293A29412F1842CD0843DE61
:100090000365F708460E0B47110B68790C694B1E78
:1000A0004BBF0B4C3C066CBC084D4F0B6D072852E8
:1000B0003E0854972374B30555460C7560155637A2
:1000C00009577E0858FE0D78A5035962205AA61AD2
:1000D0007A981D0000002A03430055004C003400AC
:1000E0003300330000002A03430055004C00380061
:1000F00036003800000016036200750073007700B8
:100100006100720065002E006400650000000403B9
:1001100009040902430002010080320904000001C1
:10012000020201000524000110052401030104243A
:1001300002060524060001070582030800FF0904E2
:100140000100020A00000007050402400000070544
:1001500083024000001201100102000008EB034B73
:1001600020000001020001202F2000203D20000778
:100170002E050DD391FF080500000C0021656A2DA6
:100180003B1322F862073F181D1CC700B0876BF8AD
:10019000B611EA2A001F41000D2E2D07D3913D0410
:1001A000320000060021656A55E43023B9000700DB
:1001B00018146C070090876BF85611E92A001F414C
:1001C0000000030F1E2627000000030F1E253638EF
:1001D0006700030F256740605000030F2751888395
:1001E0008100030F2750C8C3C20027000000000091
:1001F0000000670000000000000050000000000048
:1002000000008100000000000000C20000000000AB
:1002100000504C4C310D0A00504C4C300D0A005629
:1002200020312E36372043554C3836380056203191
:100230002E36372043554C3433330043554C5F56EC
:100240003400202F2000203D20004C4F56460D0A40
:1002500000424F56460D0A004552523A4343410D63
:100260000A000B08105B11F81547191D1A1C1BC753
:100270001C001DB221B623EA0007022E030D04E97B
:1002800005CA070C0B060D210E650F6A10C81193E5
:10029000120315341733181819161B43215625005D
:1002A000261129592C812D353EC34C454E455252BD
:1002B0000D0A004C4F56460D0A004C454E45525211
:1002C0000D0A000007024604C605260B0610C811D9
:1002D00093120313221534173F182819161B4321B4
:1002E00056250026110D210E650F6A070C160720F2
:1002F000F81E871F6B29592C812D353EC3FF000046
:1003000001022E030104AA050F06FF070008000BD7
:10031000060D210E740FAD104B11F8121613721545
:1003200041181819161B0323E9242A2500261F3E0D
:10033000500001022E030104AA050F06FF07000862
:10034000000B060D210E660F6610CA1193120613DC
:10035000521535181819161B0323E9242A250026DF
:100360001F3E500001022E0301045505F006FF0751
:100370000008000B060D210E660F9910591183120B
:100380001E13521535181819161B0323E9242A25A4
:1003900000261F3E500D2E2D07D3913D0432000044
:1003A000060010B07155E43023B900070018146C32
:1003B000070090876BF85611E92A001F41000D2EA7
:1003C0002D07D3913D04320000060010ABA5550A5D
:1003D0003023B900070018146C070090876BF8569B
:1003E00011E92A001F41004E2F4100454F420D0ADE
:1003F000004E2F41004E2F410000535300547D7D8D
:10040000FFFF4B4B7E7E0020697320756E6B6E6F15
:10041000776E2920557365206F6E65206F66003FEB
:100420002028000011241FBECFEFD4E0DEBFCDBFD7
:1004300011E0A0E0B1E0E8E1FBE502C005900D921B
:10044000A032B107D9F724E0A0E2B1E001C01D92CB
:10045000A136B207E1F70CD00C948A2DD1CDF894D7
:1004600081E085BF82E085BFE0E0F8E3099508956B
:100470002FE088E190E00FB6F894A8958093600093
:100480000FBE2093600090E080E80FB6F894809350
:100490006100909361000FBE2E9A2D9A04B603FE60
:1004A0000AC083E390E0D1D5882329F060E083E39C
:1004B00090E0C6D5D4DF89EF87BD84E085BD82E0BA
:1004C00084BD80936E00109280008AE0809381004A
:1004D00084B7877F84BF3D9A0E94D527B5D60E94F6
:1004E000002B0E9437230E94DD0D84E997E2909350
:1004F000E4028093E3020E94B81489E0809324010F
:1005000045980E94B22B12D20E94041042D30E943E
:10051000B2150E94A6160E942E1A0E94681CF1CFE6
:10052000292F33272230310559F02330310569F066
:100530002130310539F582E190E025E531E026C032
:1005400083E490E022E131E021C0992781309105D8
:1005500039F018F0029751F015C0EEE0F1E002C05A
:10056000E6EFF0E0849190E09F0110C01E9903C077
:1005700026ED30E002C026EE30E0E6EEF0E08491B9
:1005800090E004C080E090E020E030E0FA013183A8
:10059000208308958EBD0DB407FEFDCF8EB508955E
:1005A000A1E0B0E0E6EDF2E00C94172C482F8A3081
:1005B00008F048E0E42EF12C83E0EE0CFF1C8A9555
:1005C000E1F7C7018F539E4F7C018BE290E0F7016A
:1005D00064918C010F5F1F4F498332D5FFEFEF1AF3
:1005E000FF0A49810333110511F0C801F0CF4550CE
:1005F000453010F461E101C067E184E290E020D56C
:100600002196E6E00C94332CCF93DF9382E090E0C8
:10061000FC01EA56FE4F6491EC01219611D5CB32D4
:10062000D10511F0CE01F4CF87E390E0FC01E85C46
:10063000FE4F6491EC01219603D5C036D10511F02F
:10064000CE01F4CF1E9918C060E18FE090E0F8D49D
:1006500060EB80E190E0F4D461E781E190E0F0D4D8
:1006600060E184E490E0ECD460EB85E490E0E8D4D1
:1006700061E786E490E0E4D488E092DFDF91CF91F7
:1006800008952898806C86DF80E084DF289A08959A
:10069000A1E0B0E0EEE4F3E00C941B2C2898806419
:1006A000698378DF6981862F75DF289A2196E2E0D9
:1006B0000C94372C28986EDF289A0895EF92FF92B9
:1006C0000F931F93CF93DF93EC011092D001EA9820
:1006D000209A289A8EE190E02ED328988EE190E01F
:1006E0002AD3289A8DE290E026D380E3E3DF84E6E4
:1006F00090E021D3289880E44DDF7E0189E2E80E66
:10070000F11C8E010F5F1F4FCE019FD443DF0E15EA
:100710001F0511F0E801F5CF289A28988EE73ADFF7
:100720008BE290E0EC01219690D434DFC333D10505
:1007300011F0CE01F7CF289A83E3BCDF81E000D32C
:10074000CDB7DEB7E6E00C94332CA1E0B0E0EBEAE5
:10075000F3E00C941B2C22E0298341E0BE016F5F83
:100760007F4F019617D489811BDF82E090E0A6DFDE
:100770002196E2E00C94372CCF93EA9886E39ADF37
:10078000CFEF85E397DFC1508077803229F08AE090
:1007900090E0D1D2C111F5CFCF910895CF93CFEF93
:1007A00084E388DFC1508077803129F08AE090E0CF
:1007B000C2D2C111F5CFEA9ACF910895A2E0B0E07C
:1007C000E4EEF3E00C94192C8C01FC018181873755
:1007D000E9F441E0BE016F5F7F4FC8010296DAD3B2
:1007E000892BA1F041E0BE016E5F7F4FC8010496E6
:1007F000D1D3892B59F06A8189814ADF83E35ADF9B
:10080000CDDF8981C3D38A81C1D32CC041E0BE0131
:100810006E5F7F4FC8010196BDD3892B21F18A817C
:10082000893969F410E0812F2CDFB0D3812F8770D4
:10083000873009F437D31F5F1033A9F714C021DFC5
:10084000182F83E4E2D28A81A1D38BE691E01DD3F5
:10085000812F9CD387E691E018D340E262E0812F9C
:1008600090E024D31FD32296E4E00C94352C86E349
:1008700021DF1092E5021092CE011092D00108956E
:1008800082E090E01BDF81E08093E5021092CE01D0
:100890001092D00108950F931F93CF93DF93082FE9
:1008A00010E0C62FD0E085E3ECDE801731F0CE01FA
:1008B00042D21150C1F781E001C080E0DF91CF91B9
:1008C0001F910F91089585E2DCDE8F3311F080E0F7
:1008D000089586E3EFDE80912001811104C088E154
:1008E00092E0D3D202C08DE3E5DE83E3E3DE64E091
:1008F00081E0D1DF85E2C5DE8F3349F780912001A9
:10090000811103C081E192E0C0D281E0089585E3C6
:10091000B8DE8D3051F485E2B4DE8F3331F4D3DFAD
:1009200084E3C8DE80778031D9F70895809154043C
:10093000843009F061C08093E90080912101811128
:1009400028C08091E80085FF24C08091F2008823B0
:1009500031F06091F1008DE094E09ED4F6CF80916B
:10096000E800982F9B7F9093E8008F778093E800B2
:1009700081E08093210186E994E09093E2028093E4
:10098000E102E091E302F091E40281E00995109226
:10099000210183E08093E9008091CC03882361F1F9
:1009A0008091E80085FF28C0F8948091CC038823CB
:1009B00051F08091F200803430F48AEC93E082D4DC
:1009C0008093F100F2CF78949091F2008091E8004A
:1009D000282F2E7F2093E8008F778093E8009034B3
:1009E00059F40E94C0298091E800982F9E7F90932F
:1009F000E8008F778093E800089542E061EC82E0A0
:100A00000E94702942E361E883E00E94702942E37A
:100A100060E884E00E9470291092000110920101A8
:100A20001092020110920301089580915504909153
:100A30005604913229F0923261F1903299F512C048
:100A4000813A81F58091E800877F8093E80067E034
:100A500070E080E091E00E94E9298091E800982F01
:100A60009B7F11C08132F1F48091E800877F8093F1
:100A7000E80067E070E080E091E00E94862A8091C3
:100A8000E800982F9E7F9093E8008F778093E8008E
:100A90000895813239F48091E800877F8093E800DF
:100AA0000C949A2908951F920F920FB60F92112459
:100AB0008F939F93AF93BF93EF93FF938091E70240
:100AC0009091E802A091E902B091EA020196A11D7D
:100AD000B11D8093E7029093E802A093E902B093DE
:100AE000EA028091E6028F5F8093E602ECE8F3E091
:100AF00080819181181619061CF4019791838083D7
:100B0000369683E0E43AF80799F78091A60390912E
:100B1000A703009729F001979093A7038093A6035A
:100B20008091B9038F3F19F081508093B903FF91F1
:100B3000EF91BF91AF919F918F910F900FBE0F904A
:100B40001F9018952FB7F8944091E7025091E80252
:100B50006091E9027091EA02FC0140835183628353
:100B600073832FBF0895A4E0B0E0E9EBF5E00C94A7
:100B70001B2CCE010196E6DF8C8108D28B8106D238
:100B80008A8104D2898102D28DD12496E2E00C942C
:100B9000372C1F93CF93DF938091E7029091E80267
:100BA000A091E902B091EA0220912301281709F4EB
:100BB0005FC08091E7029091E802A091E902B091B4
:100BC000EA0280932301A895CCE8D3E010E02881C5
:100BD0003981232B19F4812F0E94D0251F5F26967F
:100BE0001430A9F78091A6039091A703892B11F4E3
:100BF0000E9432268091B903811102C00E948B2687
:100C000080913403882339F081508093340381111B
:100C100002C00E9446168091E6028D3748F110927C
:100C2000E6028091070181FF04C088B190E2892724
:100C300088B98091EB029091EC02843823E092070E
:100C400028F401969093EC028093EB0280912201AC
:100C50008F5F809322018C3359F41092220180918E
:100C60008B038F5F80938B038C3310F010928B0378
:100C7000DF91CF911F910895A0E0B0E0E2E4F6E0AB
:100C80000C94162C8C016EE070E00E94692D8D3062
:100C900009F04CC0459A8091D001882341F0109210
:100CA000D0018CE191E0AAD7DD24D39401C0D12CEE
:100CB0008091E502811101C0E3DD5EDD84E0F82E64
:100CC0005B9A88EE93E037D0C1E0D0E0EE24E39465
:100CD000F801EC0FFD1F8081813309F0E12C5B9856
:100CE000EE2019F088EE93E002C080ED97E023D06B
:100CF0005B9AEE2019F080ED97E002C088EE93E059
:100D00001AD02196CD30D10509F75B9883E218D02F
:100D1000FA94B1F68091EE02882311F03FDD02C013
:100D200086E3C8DCD1100E9447184598CDB7DEB7DE
:100D3000E7E00C94322C880F991F0197F1F7089582
:100D400020ED37E0815020F0F9013197F1F7FACF2B
:100D50000895CF93DF93DC0113968C91139784351C
:100D600009F050C0CD010396CC91FD0170964DE085
:100D70004C1750F050E0D0E09E012F50310942173F
:100D8000530709F03FC005C021912B3399F34F5F02
:100D9000EFCFFE013E97E80FF91F2081243591F532
:100DA00014963C911497218132132CC015963C91D6
:100DB00015972281321326C016963C9116972381EF
:100DC000321320C017963C911797248132131AC012
:100DD0006197C80FD91F8581888386818983818522
:100DE0008A8382858B8383858C8384858D838585A7
:100DF0008E838C918A508C9312968C9112978A5084
:100E000012968C93DF91CF910895CF93C82F809144
:100E10005404843081F48091240180FF0CC08091BF
:100E2000CC03803408F082DD6C2F8AEC93E034D25E
:100E3000CA3009F47BDD80913D038823C9F080919D
:100E4000240183FF15C0CA3099F0CD3011F46BE353
:100E500001C06C2F81EF92E01FD2CD3019F481EFE9
:100E600092E077DF83E08093340382E080933C0359
:100E7000CF910895CF93DF93EC018991882311F0EE
:100E8000C4DFFBCFDF91CF910895CF93DF93EC01C7
:100E9000FE018491882319F0B8DF2196F9CFDF9104
:100EA000CF9108958DE0B1DF8AE0AFCFA6E0B0E04A
:100EB000ECE5F7E00C94192C062F1E8215E02AE0D1
:100EC00030E01150E1E0F0E0EC0FFD1FE10FF11D0B
:100ED000B9010E94DE2B805D8083CB010150009719
:100EE00069F01111EECF0AC0112359F01150E1E061
:100EF000F0E0EC0FFD1FE10FF11D4083015007FFF3
:100F0000F3CF81E090E08C0F9D1F810F911DB2DF28
:100F10002696E4E00C94352CA5E0B0E0E2E9F7E099
:100F20000C941B2C1D8224E0382F3F702150E22F9F
:100F3000F0E03A3010F4305D01C0395CA1E0B0E07F
:100F4000AC0FBD1FEA0FFB1F308334E096958795E9
:100F50003A95E1F76150009739F7615067FD0BC092
:100F6000222349F02150E1E0F0E0EC0FFD1FE20FF9
:100F7000F11D4083F2CF81E090E08C0F9D1F820F26
:100F8000911D78DF2596E2E00C94372C40E362E077
:100F900090E0C2CFDC01FB0130E090E08D9188232E
:100FA000A9F0813608F0805220ED280F2A3030F069
:100FB0002FEB280F263030F429EC280F292B332370
:100FC00079F006C0803251F38A3341F3CF0105C076
:100FD000CF0101962083415041F4861B970B089561
:100FE000922F9295907F31E0D9CFFC01D5CFDB01D4
:100FF000FC0180E090E02191222361F030ED320F7E
:101000003A30C8F76AE070E00E94CD2BC097820F9B
:10101000911DF1CF8D939C930895982F92959F7079
:101020009A3010F4905D01C0995CFB0190838F7041
:101030008A3010F4805D01C0895CFB0181830895D2
:101040000E947C2DF999FECF08950C94742D08957B
:101050001F93CF93DF93162F11501F3F59F0EC01D0
:101060002196F3DF93DF112311F08AE3CEDE1150D6
:10107000CE01F3CFDF91CF911F910895A2E0B0E0B0
:10108000E4E4F8E00C94182CFC0121812D3421F4C7
:1010900066E08AEF93E005C0203529F460E18AED2F
:1010A00093E0D6DF26C01A82198242E0BE016F5F4C
:1010B0007F4F01966FDF098110E0823021F4102FFD
:1010C00000278A81082BC801C0DFF82E82E59DDE4B
:1010D00040E364E0C80120DF86E492E0D6DE8F2D95
:1010E00055DF82E492E0D1DE40E262E08F2D90E0B5
:1010F000DDDED8DE2296E5E00C94342CA6E0B0E0EC
:10110000E4E8F8E00C94152C6C0143E0BE016F5F3D
:101110007F4F01963FDF823058F1E980F12C823019
:1011200021F0FE2CEE242A81E22A8C011127FE01F7
:10113000E00FF11F6081C70183DF000F111F0F5FF8
:101140001F4F0C0D1D1DF8018081882389F041E09F
:10115000BE016F5F7F4FC8011DDF892B49F08FEF04
:10116000E81AF80A6981C7016BDF0E5F1F4FEBCFEA
:101170002696E8E00C94312C41E067E071E001969E
:1011800009DF8091070180FF02C0459A01C04598A0
:101190006091070184E390E053CFA1E0B0E0E3ED7C
:1011A000F8E00C941B2C1982009731F041E0BE014D
:1011B0006F5F7F4F0196EEDE89818F3F09F4FFCF8D
:1011C000882321F061E083E390E03ADF0E94062B60
:1011D00010926E00F89428E088E190E00FB6F89441
:1011E000A895809360000FBE20936000FFCFCF933F
:1011F000DF93EC0161E080E090E022DF63E481E0D6
:1012000090E01EDF01DA60E080E690E019DF60E048
:1012100081E690E015DF60E083E390E011DF62E0BB
:1012200084E390E00DDF60E080E690E009DF60E0BD
:1012300081E690E005DF8981883719F080E090E051
:10124000ACDFDF91CF91089580E090E0FEDE813049
:1012500029F481E090E0F9DE833419F080E090E039
:10126000C6DF84E390E0F1DE809307010895FC017E
:101270008181883419F48BE392E007C01E9903C082
:101280008DE292E002C08FE192E0FFDD0BCEFC0127
:101290001282108211820895FC018FB7F894928116
:1012A000903470F49F5F9283208191E0920F90833D
:1012B000DF01A20FB11D13966C93903409F41082D4
:1012C0008FBF0895FC019FB7F8948281882371F045
:1012D00081508283818121E0280F2183DF01A80FC3
:1012E000B11D13968C91203409F411829FBF08958B
:1012F000FA013081882369F0E1E0F0E0022E01C0BC
:10130000EE0F0A94EAF7DB01A30FB11D9C919E2B0F
:101310009C93222319F08FEF820F0BC081E0830F83
:101320008C3010F4FA018083FB01E80FF11D10826C
:1013300087E090E00895CF93C82F5B9A882319F037
:101340008091270102C08091290190E034E0880F4C
:10135000991F3A95E1F7EFDC5B98CC2319F0809167
:10136000260102C08091280190E024E0880F991F97
:101370002A95E1F7E0DCCF910895A9E0B0E0E3EC35
:10138000F9E00C940B2C4C01162FD22EEA82BC2CC7
:10139000442E512C2091EB023091EC029C2D9A0DA1
:1013A000B2016E5F7F4F802F0E94C42B980F892F50
:1013B000992787FD90952817390720F48AE492E051
:1013C00064DDA0C0281B390B3093EC022093EB02A4
:1013D000459A8091D001882341F01092D0018CE190
:1013E00091E00CD421E0298301C019828091E502AB
:1013F000811101C045DAC0D92B2D30E064E0220F05
:10140000331F6A95E1F739872887EA2CF12C74E0BD
:10141000EE0CFF1C7A95E1F7212F30E03C832B8303
:1014200066246394712C2D2D30E03E832D83B11002
:1014300002C0AA2039F05B9A888599857CDC5B988C
:10144000C70179DCD12C8D2D992787FD90952B81B3
:101450003C818217930724F480E06DDFD394F3CFAF
:10146000112311F081E067DF90E0292E332427FC5F
:101470003094241435042CF057E0D52E280C391C58
:101480001AC047E0C42ED12C280C391C93010C2C17
:1014900001C0220F0A94EAF7F101808182239F8321
:1014A0004ADFF1E0CF1AD1089F812FEFC216D20692
:1014B00069F79F5FDACF8D2D992787FD90952D8154
:1014C0003E812817390764F4C3010D2C01C0880F31
:1014D0000A94EAF7F101908189232DDFDA94EBCFAA
:1014E0008A812EDC015009F0A2CF8091EE02882380
:1014F00011F054D902C086E3DDD8398131110E9440
:10150000471845982996E2E10C94272CADE0B0E00D
:10151000ECE8FAE00C940E2C7C01162F842F022F9D
:101520006701C60ED11C462FB7017DD3D6018C931F
:101530001F5F1D8619825E2C670127E06624639475
:10154000712C8C2D8519811788F5A7E0AA2EB12C56
:101550004701880E911CF3010A2C01C0EE0F0A947A
:10156000EAF7D4018C91AE01435F5F4FBE016F5F1C
:101570007F4F8E23BDDE282FB1E0AB1AB10858F79C
:10158000D6018D916D01082E82958025082E8695B5
:10159000869580258F5F86958170AE01435F5F4F92
:1015A000BE016F5F7F4FA4DE282FCBCF222311F027
:1015B000215004C08D858F5F8D8727E089E180935E
:1015C00028018093290185E28093260180932701D9
:1015D000A12CC12CFAE0EF2E4D856CE0CE010196D6
:1015E000CCDE2D96EFE00C942A2CADE0B0E0EBEFD2
:1015F000FAE00C941A2C162F242F4BE0BE016F5FDB
:101600007F4F01962D87C6DC2D85412F682FCE0197
:1016100001967CDF2D96E3E00C94362C43E066E0E7
:10162000E4CFAF92CF92EF920F93CF93DF93CDB7EA
:10163000DEB760970FB6F894DEBF0FBECDBF40E1B6
:10164000BE016F5F7F4F0196A5DC69814A810B81E6
:101650008C81809329018D81809328018E818093D4
:1016600027018F8180932601E02EE2948FE0E8220B
:101670000F70242F2F7042954F70A12CC12CCE01DA
:1016800008967BDE60960FB6F894DEBF0FBECDBF26
:10169000DF91CF910F91EF90CF90AF900895A9E196
:1016A000B0E0E5E5FBE00C94132C4BE0BE016F5F6E
:1016B0007F4F01966FDC182F893009F05CC099E1EB
:1016C00090932801909329019093270182E38093BE
:1016D000260169E0CE010196B0D2E1E0F0E0EC0F26
:1016E000FD1FE10FF11D8083198E1D86CE0101962D
:1016F0007C016E019BE0C90ED11C27E0AA24A394B3
:10170000B12CEC14FD0429F100E010E0F501002EED
:1017100001C0EE0F0A94EAF7D7018C91AE01475E43
:101720005F4FBE01635F7F4F8E23E2DD282F0F5F87
:101730001F4F0830110551F7AE01475E5F4FBE01E4
:10174000635F7F4F81E0D4DD282FBFEFEB1AFB0AE8
:10175000D8CF222311F0215004C0898D8F5F898F4B
:1017600027E0A12CC12C9AE0E92E03E0498D6CE022
:10177000CE010D9602DE6996EAE00C942F2CA9E1C9
:10178000B0E0E5ECFBE00C94122C4BE09E012F5FE7
:101790003F4F7901B9010196FDDB182F85E3809356
:1017A000290196E1909328019093270180932601C7
:1017B000612FC7014ED2F701E10FF11D80839924FB
:1017C0009394910E198E1D86870127E0AA24A39475
:1017D000B12C802F8E19891508F04AC0C12CD12C4C
:1017E000F5010C2C01C0EE0F0A94EAF7D8018C9198
:1017F000AE01475E5F4FBE01635F7F4F8E2378DD92
:10180000282FBFEFCB1ADB0A34E0C316D10441F70F
:10181000AE01475E5F4FBE01635F7F4F81E068DDD1
:10182000282F54E0C52ED12CF5010C2C01C0EE0F51
:101830000A94EAF7D8018C91AE01475E5F4FBE0172
:10184000635F7F4F8E2354DD282FBFEFCB1ADB0A57
:1018500038E0C316D10441F7AE01475E5F4FBE01C9
:10186000635F7F4F81E044DD282F0F5F1F4FB1CFB3
:10187000A12CC12C4AE0E42E03E0498D6AE0CE01A0
:101880000D967BDD6996EBE00C942E2CAF92CF92F7
:10189000EF920F93CF93DF9300D000D0CDB7DEB798
:1018A00043E0BE016F5F7F4F019674DB8AE6809351
:1018B000290194E29093280191E29093270180936B
:1018C000260180E88C83A12CC12C7FE0E72E03E069
:1018D00026E043E060E0CE0101964FDD0F900F90CF
:1018E0000F900F90DF91CF910F91EF90CF90AF902D
:1018F0000895AF92CF92EF920F93CF93DF93CDB72E
:10190000DEB72C970FB6F894DEBF0FBECDBF4BE00D
:10191000BE016F5F7F4F02963DDB8530C1F48EE3E1
:10192000809329018CE18093280181E28093270133
:101930008AE380932601E5E2AE2EFAEFCF2EE12C6A
:1019400005E024E044E068E0CE01019616DD2C9627
:101950000FB6F894DEBF0FBECDBFDF91CF910F91D0
:10196000EF90CF90AF9008958F929F92AF92BF92D9
:10197000DF92EF92FF920F931F93CF93DF9310921A
:10198000450110925A01FC012181220F220F220FE2
:101990003381231B57E0520F1092460110E070E094
:1019A00038E0D32ED20EFF24F39447E007E0E12C79
:1019B000C7E0D0E0A1E0B0E0FD1409F47FC0FC0175
:1019C000EE0DF11D248130E0002E02C035952795E3
:1019D0000A94E2F721703327E22F002311F001501F
:1019E00002C0E39407E06B3471F4433009F04AC05D
:1019F000111107C0E1115FC01092450170935A01A7
:101A000074C010E041C04F3F31F56634A9F4E72FB0
:101A1000F0E0EA5BFE4FE0810E2EE295E0250E2E0F
:101A2000E695E695E025EF5FE1FB882480F8912CB0
:101A30008216930641F004C0653429F4E11103C015
:101A400010934501DBCF7F5FE72FF0E0EA5BFE4FAD
:101A5000108247E031C0EE2361F1663471F4E72F64
:101A6000F0E0EA5BFE4FA0809D01042E01C0220F32
:101A70000A94EAF7A22AA0821CC0653439F06B34BC
:101A8000C1F404C04F3FD1F2EE2399F0E72FF0E00C
:101A9000EA5BFE4F9E01241B310947FD33955D0132
:101AA00002C0AA0CBB1C2A95E2F795013081322BAB
:101AB0003083415001C011E0F3947ECF1093450173
:101AC00070935A015F1588F4653431F44F3F21F467
:101AD0007F5F70935A0104C0809145018111F8CF56
:101AE00081E090915A01911101C080E0DF91CF9186
:101AF0001F910F91FF90EF90DF90BF90AF909F905C
:101B00008F90089510926F0080915D0190E06CE1DC
:101B100070E00E94CD2B825A9E4FFC011082809172
:101B2000ED028D7F8093ED020895FC012181243127
:101B300008F0E8CF3381662381F081E090E0032E46
:101B400001C0880F0A94EAF7DF01A20FB11D1496B5
:101B50009C911497982B14969C93332319F0315031
:101B60003383089587E083832F5F2183E20FF11D84
:101B700014820895DC011196EC911197F0E050E089
:101B80002C91CF01841B950B0B964797A0F430E066
:101B900070E0C901861B970B0B96479760F42E0FD8
:101BA0003F1F640F751F261B370B255F3F4F81E0DA
:101BB0002731310508F080E00895539A5B985298D8
:101BC000E9E6F0E080818061808382EC91E090938F
:101BD000EC028093EB0210927A011092960110921F
:101BE000B2011092E50208958091EE02882321F05F
:101BF0000E9440040C94CE030C943704FC01218114
:101C000021110BC08091EE02C1D940E265E08091C4
:101C1000EB029091EC024AD945C941E06EEE72E0C8
:101C20000196B8D9E1CF442339F04150FB01E40FCC
:101C3000F11D9081890FF7CF089520E0662339F0D8
:101C40006150FC01E60FF11D30812327F7CF822F71
:101C50000895A091450140E035E020E0662399F029
:101C60006150FC01E60FF11D5081752F72957F7058
:101C70002727370FAA2311F0442319F05F70252777
:101C8000350F4F5FEBCF822F830F8295807F822BA2
:101C90000895FC0132812381A081B181A30FB11D80
:101CA0008C9190E0022E02C0959587950A94E2F7F8
:101CB000817099274FEF420F4383211104C03F5F8A
:101CC000328327E023830895A2E0B0E0EAE6FEE055
:101CD0000C94132C7C01A12CB12CD12CCC24C394BA
:101CE000062F10E001501109A616F0F4C7014A832F
:101CF0006983CFDF4A816981882391F0442349F0C9
:101D000098012A193B098C2D01C0880F2A95EAF702
:101D100006C08C2D0A2C01C0880F0A94EAF7D82A35
:101D20008FEFA81AB80AE0CF8D2D2296EAE00C9426
:101D30002F2CA4E0B0E0EFE9FEE00C94122C1B8203
:101D400027E02C839C012C5F3F4F3A83298310921C
:101D50005A01FC01218130E043E0220F331F4A95F4
:101D6000E1F7438187E090E0841B9109280F391F38
:101D7000253431050CF44EC0B12CA0905A01F5E089
:101D8000FA1558F10A2D10E040E068E0CE01019606
:101D90009BDF0A5B1E4FF8018083982E092C9294DA
:101DA0009024092C969496949024CE01019671DF8C
:101DB000939491FACC24C0F8D12C90E0C816D9069F
:101DC00049F5CE01019665DF811124C0F8018081BB
:101DD000B826A394A0925A01D0CF40E068E0CE018B
:101DE000019672DF082F182F012E12951025012E53
:101DF000169516951025CE0101964BDF1F5F11FB3E
:101E0000EE24E0F8F12C282F30E0E216F30611F46E
:101E100081E0B01280E02496EBE00C942E2CA5E03B
:101E2000B0E0E5E1FFE00C94162CFC011B8287E09A
:101E30008C83CF0104969A8389838081853009F051
:101E400054C0218130E063E0220F331F6A95E1F72F
:101E5000438187E090E0841B9109280F391F2039C6
:101E6000310509F042C010925A010FE010EF29E845
:101E700080915A01E82EF12CDD24D394D80E41E054
:101E800068E08F3088F4CE0101962D831DDF080FA6
:101E9000111DF701EA5BFE4F2D812827208324E2E4
:101EA000280FD0925A01E4CFCE0101960DDF080F22
:101EB000111DD0925A01F701EA5BFE4F8095808395
:101EC00041E068E0CE010196FFDE90E0982F882780
:101ED000081B190B41E068E0CE010196F5DE282FC2
:101EE00030E081E00217130709F080E02596E7E073
:101EF0000C94322CA4E0B0E0E0E8FFE00C94182C45
:101F00001B8227E02C839C012C5F3F4F3A8329835F
:101F1000FC0121812430A1F58381813089F5109263
:101F20005A0180915A01082F10E0FF24F394F80E13
:101F300041E0843098F4811106C067E0CE0101963B
:101F4000C3DE806804C068E0CE010196BDDEF80102
:101F5000EA5BFE4F8083F0925A01E3CF67E0CE0147
:101F60000196B2DEF801EA5BFE4F880F8083F092A3
:101F70005A019091460192959F7081E09A3009F044
:101F800080E02496E5E00C94342CCF93DF93FC01A1
:101F900081818330E9F483818730D1F48081883076
:101FA000B9F410925A0120E0822F90E0DC01AA5B84
:101FB000BE4FEF01C80FD91F8C818C9381E0820F37
:101FC000833010F4282FF0CF80935A0181E001C0B4
:101FD00080E0DF91CF910895FC0190818091ED0226
:101FE000993611F0933751F4982F9370913011F482
:101FF000826006C080FF07C08B7F03C080FD03C0E6
:1020000084608093ED020895A1E0B0E0EAE0F0E1A1
:102010000C94172C198280912A018823B9F18091A0
:10202000EE0287FF17C084E30E944103805880348A
:1020300058F0803C58F490E080559109B3E09595B4
:102040008795BA95E1F703C080E001C08FE08F5912
:102050000E9405078091EE0283FF16C082E70E946E
:1020600005078091EE0284FF04C080912B010E943D
:10207000050786E60E9405078091EE0284FF04C0F2
:1020800080912A010E94050710922A0180915B012C
:10209000882309F45BC2459A80915C0190E06CE171
:1020A00070E00E94CD2B8C01025A1E4F8981811154
:1020B00006C0C8016ADF882311F083E7898389811C
:1020C000811106C0C801ABDE882311F083E5898346
:1020D0008981811139C066E4C80146DC8823A1F1F9
:1020E000F0905A01FA94F0925A014F2D66E471E093
:1020F00086E099DDEF2DF0E0EA5BFE4FE0808E1187
:1021000005C093E09F1510F486E41BC0282F30E033
:102110002F5F3F4F6E2D70E02617370739F493E09D
:102120009F1520F496E4998380830EC04F2D66E4BA
:1021300071E08CE078DD8E1106C0E3E0EF1518F455
:1021400084E5898301C019828981811116C065E403
:10215000C8010ADC882389F080915A01815080935C
:102160005A01893051F469E086E491E066DD90918E
:102170004F01891302C085E489838981811106C0DA
:10218000C801D7DD882311F088E489838981811112
:1021900006C0C801AFDE882311F084E789838981F6
:1021A000811133C0F801438D60912B01C8014A961B
:1021B000E1DC682FC801B9DC6BE4C801D5DB8823FA
:1021C000B1F0F0905A01FA94F0925A016F2D86E422
:1021D00091E03FDDEF2DF0E090914501E91BF10921
:1021E000EA5BFE4F9081891302C08BE48983898169
:1021F00081110BC0F801838191E0980F93838730A0
:1022000021F41382818181508183898181112DC0C4
:10221000F8018181843049F58381843031F54EE1C4
:102220006CE3C8014896A6DC8823F9F04EE1609182
:102230002B01C8014A969EDC682FC80176DC20E09D
:10224000822F90E0FC01EA5BFE4FD801A80FB91F76
:1022500014968C91808381E0820F853010F4282FB2
:10226000EFCF80935A0182E589833981332309F4C2
:10227000D9C02091EE0220FFD5C08091ED028E7F63
:102280008B7F8093ED0221FD64C050914401F0905A
:102290005A015F113DC040E04517C0F4842F90E023
:1022A00061E0640FFC01E05DFE4FDC01AA5BBE4F04
:1022B00070818C91781741F0409344018091ED0238
:1022C0008D7F8093ED0204C0462FE6CF40934401FA
:1022D00045131EC04091E7025091E8026091E90267
:1022E0007091EA0280912C0190912D01A0912E0114
:1022F000B0912F01481B590B6A0B7B0B46325105DD
:102300006105710528F48091ED0281608093ED02F2
:1023100040E04F1560F4842F90E0FC01E05DFE4F3B
:10232000DC01AA5BBE4F8C9180834F5FF2CF40935C
:1023300044018091E7029091E802A091E902B091F6
:10234000EA0280932C0190932D01A0932E01B0936B
:102350002F013435E9F426FD1BC080915A018530E8
:10236000B8F0809148018B3471F0893661F09DEAB4
:10237000980F923040F08D57823028F080914901BB
:102380008077803729F48091ED0281608093ED029F
:10239000B801CE01019620DE8981843569F49091DF
:1023A0003D03992349F090918A03911105C09091C2
:1023B000ED029B7F9093ED029091ED0292FF32C06F
:1023C0000E94050780914501882329F080915A01D8
:1023D000815080935A01F12CE0915A01FE1648F485
:1023E000EF2DF0E0EA5BFE4F80810E94C607F39478
:1023F000F3CF80914501882351F0F0E0EA5BFE4F76
:1024000080818F7040E361E090E00E948C078091B2
:10241000EE0285FF05C084E30E9441030E94C607C7
:102420000E9452078091EE0282FF77C080E70E94EF
:102430000507F801808140E262E090E00E945607C3
:10244000F801808D90E040E265E074E0880F991F0C
:102450007A95E1F70E945607F801818D90E040E2FD
:1024600065E0E4E0880F991FEA95E1F70E945607BE
:10247000F801828D90E040E265E0F4E0880F991F5A
:10248000FA95E1F70E945607F801838D90E040E24B
:1024900065E0A4E0880F991FAA95E1F70E9456070E
:1024A000F801828140E263E090E00E945607F80163
:1024B000818140E263E090E00E945607F8012381A9
:1024C00040E262E087E090E0821B91090E9456079B
:1024D00080E20E9405078091EE0285FF08C084E338
:1024E0000E9441030E94C60780E20E940507F8018E
:1024F0008381873019F081818F5F8183F12CF8010E
:102500008181F81640F4F801EF0DF11D84810E94DD
:10251000C607F394F4CF0E945207F801108280910D
:102520005B01815080935B0180915C018F5F8430FF
:1025300019F080935C0102C010925C01459889817A
:10254000843521F486E491E00E949A262196E6E003
:102550000C94332C1F920F920FB60F9211242F93CD
:102560003F934F935F936F937F938F939F93AF931B
:10257000BF93EF93FF9310926F008091EE0283FF61
:1025800003C08EE20E94050740915D01242F30E0D8
:10259000C9016CE170E00E94CD2B825A9E4FFC0174
:1025A0008081833018F08181823010F4ABDA18C05A
:1025B00080915B01833049F48091EE0282FFF6CF77
:1025C00081E592E00E944507F1CF8F5F80935B0128
:1025D0004F5F443019F040935D0102C010925D01DD
:1025E000FF91EF91BF91AF919F918F917F916F91EB
:1025F0005F914F913F912F910F900FBE0F901F90C1
:1026000018959BED980F973150F496EF960F9D31EA
:1026100030F491E0681708F090E0892F089580E089
:1026200008951F920F920FB60F921124FF920F93ED
:102630001F932F933F934F935F936F937F938F934A
:102640009F93AF93BF93CF93DF93EF93FF938091CB
:102650003503823021F483E0809335035DC100911E
:10266000840010918500B4E016950795BA95E1F7BE
:1026700080915D0190E06CE170E00E94CD2BEC0157
:10268000C25ADE4F8881843031F40E3208F444C1DE
:102690000F3448F0B6C0853031F4073108F43CC13E
:1026A000083208F0AEC04A990DC08450823038F428
:1026B00061E0CE013ADA1092850010928400009316
:1026C0002B012AC180912B01081B00932A01109233
:1026D0008500109284009881983071F42A8121112C
:1026E0000BC021E02A83888F8A8F098F0B3B10F45F
:1026F000000F01C006950B8F9450923020F460E0DB
:10270000CE0113DA09C182E086BBF880F11011C056
:1027100090912B01953608F0FFC080912A018536F3
:1027200008F0FAC0988F898F81E08A8382E08883DD
:10273000F3C010912A0182E0F81273C000912B01BE
:10274000412F602FCE01489615DA6A818823F9F06F
:10275000488D50E09A01220F331F240F351F200FA0
:10276000311D3595279535952795288F298D30E092
:10277000C901880F991F820F931F810F911D959595
:10278000879595958795898F6F5F6A83C5C06430FB
:1027900008F445C020EA3FE0309389002093880088
:1027A0008A818C3050F0888D298D30E0280F311DC2
:1027B0002536310524F084E027C08A3088F0888DE2
:1027C000298D30E0280F311D253231054CF485E08C
:1027D000888328EE33E0309389002093880015C069
:1027E0008091F002882379F0612F802F0ADF8823FF
:1027F00051F0688D898D05DF882329F081E0809371
:10280000350380D989C083E088830A8F1B8F1982A2
:1028100087E08B831C8282E080936F007DC01882EA
:1028200077CF88E0F81225C081E9810F8D3178F4E7
:1028300060E0CE017AD9288D30E0C901880F991F58
:10284000820F931F20912B01820F911D4EC0173EC6
:1028500008F462C061E0CE0168D92A8D30E0C90178
:10286000880F991F820F931F20912B01820F911DBA
:1028700015C000912B01412F602FCE014A967AD9C5
:10288000882301F161E0CE0150D92A8D30E0C901E1
:10289000880F991F820F931F800F911D9595879523
:1028A000959587958A8F2B8D30E0C901880F991FE8
:1028B000820F931F810F911D95958795959587950B
:1028C0008B8F2AC0412F602FCE01489653D9882381
:1028D00001F160E0CE0129D9288D30E0C901880FCF
:1028E000991F820F931F800F911D95958795959540
:1028F0008795888F298D30E0C901880F991F820F35
:10290000931F810F911D9595879595958795898F33
:1029100003C087E0F81275CFFF91EF91DF91CF915F
:10292000BF91AF919F918F917F916F915F914F91E7
:102930003F912F911F910F91FF900F900FBE0F901D
:102940001F90189580915D0190E06CE170E00E940D
:10295000CD2B825A9E4FFC018081811107C081E0FE
:102960009091B9039F3F19F480E0089581E00895A4
:1029700080E690E00E9425088093F00281E690E0D6
:102980000E94250880933D03882321F081E28093F3
:10299000EE022AD91092360308955B9A0C949B0696
:1029A0005B980C949B06A7E0B0E0E9EDF4E10C9491
:1029B000162C3091F40290E0E92FF0E0EA5CFC4F35
:1029C0002081222309F471C0321711F09F5FF4CFE8
:1029D00095E79983882399F0BE016E5F7F4F8091C0
:1029E0003D030E940D08BE016C5F7F4F8091F00295
:1029F0000E940D0885E58E8386E0D82E02C0DD2476
:102A0000D3940E9440040E94BC0316E080E891E049
:102A1000C4DF80E093E0C4DF1150C1F780E093E0B1
:102A2000BCDF80E891E0BCDF80E891E0B6DF5B9836
:102A300087E390E00E945E0383E00E94A00628984E
:102A40008FE70E94CA028091F3028D0D0E94CA0294
:102A5000CE0101967C018C01F80181918F010E94C9
:102A6000CA02802F8E198D15B8F38091F302882346
:102A700039F081EF92E00E9462090E94CA02F5CF0C
:102A8000289A0E94BC0381EF92E00E94470915E159
:102A90008AE30E9441038F7731F0115021F081E0E9
:102AA0000E94A006F5CFA0D807C0992309F490CFC3
:102AB00081EF92E00E9447092796E7E00C94322CC0
:102AC000CF93DF93EC01898181110BC08091F002DB
:102AD0000E94C60780913D030E94C6070E945207CC
:102AE0003EC0863681F42296A6E3B3E0E0E0899109
:102AF000882321F08D93EF5FE530C9F7F0E0EA5CC1
:102B0000FC4F10822CC08936D9F441E060EF72E0AE
:102B1000CE0102960E94CA076091F00280E690E022
:102B20000E94200841E06DE373E0CE0104960E940C
:102B3000CA0760913D0381E690E00E9420080FC023
:102B400081EF92E00E94470921966991662329F05E
:102B500081EF92E00E944C09F8CF80E024DFDF9102
:102B6000CF910895A1E0B0E0E8EBF5E10C94152CCD
:102B700080913503882309F485C0C090E702D09086
:102B8000E802E090E902F090EA02833009F060C0C8
:102B90008FE30E944103182F8630C8F08DE094E047
:102BA0000E94470928988FEF0E94CA0280E00E9485
:102BB000CA02082F115049F080E00E94CA02682F13
:102BC0008DE094E00E944C09F5CF289A01C000E006
:102BD0000BD810923503053709F054C041E0BE010F
:102BE0006F5F7F4F80E194E00E94CA07019759F51B
:102BF00099818091F002981326C080911404853544
:102C000071F480910F04882339F08DE094E00E94E4
:102C100062090E940507F5CF0E94520733C08091D8
:102C20000F04845080930F0484E080930E046AE0C4
:102C30008DE094E00E944C09E091E302F091E402FF
:102C400088E009951FC08DE094E00E9447091AC0F2
:102C5000823059F48091EF029C2D981B983090F0AF
:102C60000E94F40D109235030DC0813059F487E3B2
:102C700090E00E945E030E94CE0382E080933503C1
:102C8000C092EF022196E8E00C94312C5BDE8823A1
:102C900019F083E080933C0380913C038150809342
:102CA0003C03882321F083E080933403089581E07E
:102CB0007ACECF93DF93EA98209A289A8EE190E01B
:102CC0000E949B0628988EE190E00E949B06289A1D
:102CD0008DE290E00E949B0680E30E945A0384E606
:102CE00090E00E949B06C8E7D2E0FE013196649115
:102CF000FE0184910E9448032296F2E0CA3ADF075F
:102D0000A1F78091CF01811107C083E30E945A038C
:102D100084E00E94A0060FC0C2E6D2E0FE01319618
:102D20006491FE0184910E9448032296F2E0C83724
:102D3000DF07A1F7EACF84E30E945A0385E30E94EC
:102D400041038D30C1F7DF91CF910895A2E3B0E048
:102D5000ECEAF6E10C94192C8091CE01882309F459
:102D6000A1C04A9B8AC08FE30E9441038F77898369
:102D7000823368F08AE30E945A0386E30E945A0372
:102D80008DE30E945A0384E30E945A038BC0289863
:102D90008FEF0E94CA0210E08981181760F480E06A
:102DA0000E94CA02E2E0F0E0EC0FFD1FE10FF11D0E
:102DB00080831F5FF1CF80E00E94CA02082F80E06D
:102DC0000E94CA02289A84E30E945A0385E30E9463
:102DD00041038D30C1F72A8196E792279A8392E0CA
:102DE0008981E92FF0E0981768F441E050E04C0F3A
:102DF0005D1FE40FF51F30812452232720839F5F3E
:102E0000232FEECF81E090E08C0F9D1FE80FF91F7C
:102E100090818B81982790838091EE0284FF12C06D
:102E200081E60E94050710E08981811730F1E1E019
:102E3000F0E0EC0FFD1FE10FF11D80810E940507FE
:102E40001F5FF2CF81E40E94050710E0898181179E
:102E500058F0E1E0F0E0EC0FFD1FE10FF11D808183
:102E60000E94C6071F5FF2CF8091EE0285FF03C06C
:102E7000802F0E94C6070E94520785E30E944103EB
:102E8000813029F0813161F48AE30E945A0386E39C
:102E90000E945A038DE30E945A0384E30E945A035E
:102EA0000E948704E296E4E00C94352C8F929F9266
:102EB000AF92BF92DF92EF92FF920F931F93CF9347
:102EC000DF93CDB7DEB7EA970FB6F894DEBF0FBE3B
:102ED000CDBF41E38E010F5F1F4FB80101960E94E5
:102EE000CA077C0199270197298130E0821793074F
:102EF00009F0A3C08091CE01811104C0DADE83E025
:102F00000E94A006DB808A8196E789278A8322E0D7
:102F10003981822F90E0F801E80FF91F231750F450
:102F2000DE01A80FB91F8C9184529081892780837C
:102F30002F5FEECF80818D258083CE01C7960E94C2
:102F4000A20585E30E945A0385E30E944103833171
:102F500081F1CE01C3960E94A2054BA95CA96DA97F
:102F60007EA98FA998ADA9ADBAAD84179507A6071C
:102F7000B70760F44A015B01881A990AAA0ABB0ADA
:102F80002DEB82169104A104B10470F4481759077F
:102F90006A077B0770F484549F4FAF4FBF4F84176D
:102FA0009507A607B70728F488E592E00E94450731
:102FB00027C085E30E944103833119F6D4FE08C07F
:102FC00088E70E94A00688E70E94A00688E701C063
:102FD0008AE00E94A00628988FE70E94CA02580142
:102FE0008A2D801B8E1530F4F50181915F010E94BE
:102FF000CA02F6CF289A85E30E9441038331D9F3B0
:1030000085E30E944103863149F48BE30E945A0311
:1030100086E30E945A038DE30E945A038091CE01F9
:10302000882349F084E30E945A0385E30E94410308
:103030008D30C1F702C00E94F40DEA960FB6F894E5
:10304000DEBF0FBECDBFDF91CF911F910F91FF90DB
:10305000EF90DF90BF90AF909F908F900895FC010C
:103060002181223731F0223559F481E08093CF015C
:1030700002C01092CF011DDE81E08093CE01089541
:10308000233711F4019612CF1092CE010895CF93F9
:10309000DF93EA98209A289A8EE190E00E949B069E
:1030A00028988EE190E00E949B06289A8DE290E09D
:1030B0000E949B0680E30E945A0384E690E00E94EF
:1030C0009B06C3ECD2E0FE018491813440F083E39F
:1030D0000E945A0384E00E94A006CFEF0DC0FE01BB
:1030E00031966491FE0184910E9448032296F2E099
:1030F000CF3FDF0741F7EBCF84E30E945A038AE01A
:1031000090E00E949B06C150B9F781E08093D00106
:10311000DF91CF910895EF92FF920F931F93CF937A
:10312000DF93EC018B01F880F3946115710519F0C0
:10313000E4E6F0E002C0E0E0F0E08F2D90E023E074
:10314000880F991F2A95E1F76AE070E00E94F22B40
:103150009B012E0F3F1FC901AA2797FDA095BA2FEB
:10316000E091EB02F091EC02AF0160E070E04817F3
:1031700059076A077B0728F483EB92E00E94450712
:10318000D9C0E21BF30BF093EC02E093EB028091C9
:10319000D001811101C07BDF85E30E9441038D30A6
:1031A00071F08AE50E94050785E40E94050782E523
:1031B0000E94050782E50E94050781E34CC08091CB
:1031C000D1019091D201A091D301B091D401892B6A
:1031D0008A2B8B2B51F50E94BC0385E30E9441038F
:1031E000833109F443C08AE50E94050785E40E9403
:1031F000050782E50E94050782E50E94050782E334
:103200002AC08091E7029091E802A091E902B09172
:10321000EA024F5F5F4F6F4F7F4F84179507A607F6
:10322000B707C9F681E00E94A0068091E70290915D
:10323000E802A091E902B091EA024091D1015091D7
:10324000D2016091D3017091D40184179507A6072C
:10325000B707B9F6E7CF0E94050785E30E9441034F
:103260000E94C6070E94520712DF64C0012B41F47E
:1032700028988FE70E94CA02EC2E0C2F1D2F0BC03E
:103280000AE010E084E60E94A00601501109011531
:103290001105C1F7EDCF802F8E198F1530F4F8018D
:1032A00081918F010E94CA02F6CF289AC8EC85E36B
:1032B0000E9441038D30E9F485E30E9441038D3083
:1032C00019F18AE50E94050785E40E94050782E559
:1032D0000E94050782E50E94050783E30E94050717
:1032E00085E30E9441030E94C6070E945207CFDE79
:1032F0000BC085E30E9441038331F1F681E00E9417
:10330000A006C150A1F6D8CF8091D001811102C092
:103310000E94F40D8091E7029091E802A091E902E9
:10332000B091EA028093D1019093D201A093D3018E
:10333000B093D401CDB7DEB7E6E00C94332CACE00B
:10334000B0E0E5EAF9E10C941A2CFC018BE08983EA
:1033500081818A831B8282E08C8387818D83808533
:103360008E8381858F838481888785818987868103
:103370008A871B861C8684E10E94A00660E070E0BC
:10338000CE010196C8DE8AE50E94050710E0812F74
:1033900090E0298130E0281739075CF0E1E0F0E0A7
:1033A000EC0FFD1FE80FF91F80810E94C6071F5F09
:1033B000EECF8091EE0285FF03C080E00E94C60739
:1033C0000E9452072C96E3E00C94362CCF93DF93A7
:1033D000EC018091D801811108C09091D90191111F
:1033E00004C09091DA019923A9F09B81903319F0E0
:1033F0009F7E903479F49F8198130CC098858091BA
:10340000D901981307C099858091DA01981302C0F9
:10341000CE0195DF8091D501811108C09091D60130
:10342000911104C09091D7019923A9F098819B3004
:1034300091F49B81903479F49F8198130CC0988506
:103440008091D601981307C099858091D701981370
:1034500002C0CE0174DFDF91CF910895AEE1B0E0FC
:10346000E4E3FAE10C94192C8091D001882309F44B
:1034700069C04A9B59C08FE30E9441038F778E3108
:1034800008F08DE1898328988FEF0E94CA0210E02E
:103490008981181760F480E00E94CA02E2E0F0E03F
:1034A000EC0FFD1FE10FF11D80831F5FF1CF80E066
:1034B0000E94CA02082F80E00E94CA02289ACE0108
:1034C000019684DF8091EE0284FF12C08AE70E9499
:1034D000050710E089818117A8F1E1E0F0E0EC0F29
:1034E000FD1FE10FF11D80810E9405071F5FF2CFD4
:1034F0008AE50E94050710E08981811758F0E1E014
:10350000F0E0EC0FFD1FE10FF11D80810E94C60766
:103510001F5FF2CF8091EE0285FF03C0802F0E94D3
:10352000C6070E9452070EC085E30E944103813105
:1035300049F48AE30E945A0386E30E945A0384E313
:103540000E945A036E96E4E00C94352CAEE1B0E094
:10355000ECEAFAE10C94192C8C01FC018181823790
:1035600011F495DD36C0833711F0863601F54DE153
:10357000BE016F5F7F4FC80102960E94CA0799275C
:103580000197298130E08217930729F08AEA92E0B7
:103590000E9445071EC061E070E0F8018181833719
:1035A00011F060E070E0CE010196B5DD12C0813609
:1035B00021F443E068ED71E005C0873741F443E052
:1035C00065ED71E0C80102960E94CA0702C0109220
:1035D000D0016E96E4E00C94352C0E94CE03EA985C
:1035E0000895CF93DF93209A289A8EE190E00E946D
:1035F0009B0628988EE190E00E949B06289A8DE217
:1036000090E00E949B0680E30E945A0384E690E0CB
:103610000E949B0680917F038933C1F4C3E6D3E007
:10362000FE0131966491FE0184910E944803229626
:10363000F3E0C539DF07A1F783E30E945A0384E072
:103640000E94A006CADFDF91CF910895843379F4F8
:10365000C1E3D3E0FE0131966491FE0184910E94A2
:1036600048032296F3E0C336DF07A1F7E5CF8133A5
:1036700019F7CFEFD2E0FE0131966491FE018491FB
:103680000E9448032296F3E0C133DF07A1F7D4CFAD
:10369000FC01908180918403981318C091818091DE
:1036A0008503981313C092818091860398130EC0EE
:1036B000938180918703981309C080859091880336
:1036C000891302C081E008958F3FE1F380E00895FF
:1036D0002FEF662339F06150FC01E60FF11D3081B8
:1036E0002327F7CF822F0895DC01FC018FE09DE1B5
:1036F00070E09F012A1B3B0B2617370704F5219129
:10370000492F552742279A01329522952F7023275A
:103710003F70232724273527982F88278227932730
:10372000A901542F44275295507F8427952745E0BF
:10373000220F331F4A95E1F782279327DACF0895A6
:10374000A0E0B0E0E6EAFBE10C94162CEC01E62EDA
:10375000459A80917F03893339F464E182E10E94C4
:1037600048036E2D660F6D5E86E00E9448030E943E
:10377000BC0328988FE70E94CA0280917F03893397
:1037800021F0FC2E0C2F1D2F50C01FE086E60E945A
:10379000CA021150D9F78AEA0E94CA0285E50E943E
:1037A000CA02DC2E0C2F1D2F802F8D198E15B0F51F
:1037B000F801F1908F01F7FE02C080E801C080E4BB
:1037C000F6FE02C090E201C090E1980FF5FE02C043
:1037D00088E001C084E0890FF4FE02C092E001C0DD
:1037E00091E0890F0E94CA02F3FE02C080E801C086
:1037F00080E4F2FE02C090E201C090E1980FF1FE79
:1038000002C088E001C084E0890FF0FE02C092E0AF
:1038100001C091E0890F0E94CA02C6CF80E00E94D9
:10382000CA0280E00E94CA020BC0802F8F198E1539
:1038300038F4F80181918F0180950E94CA02F5CF7A
:10384000289A85E30E9441038331D9F36FEF86E024
:103850000E94480380917F03893321F46EE182E165
:103860000E944803BADE45988D8186FF2CC0809166
:10387000E7029091E802A091E902B091EA0206966F
:10388000A11DB11D8093800390938103A0938203B7
:10389000B09383038091DB018F5F8093DB018230E3
:1038A00060F08AE70E94050782E70E940507809181
:1038B000DB010E94C6070E9452078091DB01833022
:1038C00010F01092DB01CDB7DEB7E7E00C94322C9C
:1038D000A1E4B0E0EEE6FCE10C94112C8091DC0157
:1038E000882309F420C18091DB018823D9F040911D
:1038F000E7025091E8026091E9027091EA0280913A
:10390000800390918103A0918203B0918303841777
:103910009507A607B70730F460917E038EE393E026
:103920000FDF01C14A9BFFC0459A28988FEF0E9484
:10393000CA028E010F5F1F4F6E0189E0C80ED11CB5
:10394000780180E00E94CA02F701808390917F0392
:10395000993311F080958083FFEFEF1AFF0AEC1482
:10396000FD0479F7289AB88487EF8B0D883310F01F
:1039700038DED9C06B2D86E00E94480380917F031A
:10398000813331F0843341F4ACEDEA2EF12C08C0E0
:10399000FAE5EF2EF12C04C0E8E9EE2EE3E0FE2E6E
:1039A00068E3962E78E0A72ECB2CD12CC7010E947D
:1039B0009B068BE30E944103882E882331F1282F38
:1039C00030E02A0D311DC216D30694F228988FEFED
:1039D0000E94CA028A0CA81471F080E00E94CA02F8
:1039E00090917F03993309F08095F801EA0DF11D5C
:1039F0008083A394F0CF289AAB1438F080917F0392
:103A0000EB2CF12C8133D9F403C09A9479F6F6CFDC
:103A1000FE013197EE0DFF1DC080D12CDC2CCC2493
:103A2000FE01EE0DFF1D8081C80ED11C6EEF6B0DE7
:103A3000C8015ADE21E08C159D0559F40BC06FEFCB
:103A40006B0DC80145DEFE01EE0DFF1D21E09081EA
:103A5000891320E08091DC01823751F4C80122965D
:103A60002FAF229715DE22962FAD2297882399F04B
:103A7000222391F08AE70E9405077801F7018191DE
:103A80007F010E94C6078E2D801B8B15B8F30E9404
:103A9000520721E001C020E08091DC01823781F4EF
:103AA000222371F08E81982F9370933029F4909196
:103AB000DB0191111092DB0186FF02C087FF07C076
:103AC0006FEF86E00E94480388DD45982CC08AE0AD
:103AD0000E94A0068D818987809188038D8383E071
:103AE0008E8380917F03813349F48BE0888769E07E
:103AF000C801FADD9A878B876BE007C08AE0888768
:103B000069E0C801E5DD8A876AE0C80119DE8AE755
:103B10000E94050781E60E94050789850E94C60765
:103B20000E945207D2CFCF5BDF4FECE00C942D2CDC
:103B3000FC012181223711F02D3651F4FC018281E4
:103B4000811101C084E380937F032093DC0149CD80
:103B5000233771F41092DB0140E46EE373E00296C8
:103B60000E94CA0780937E03682F8EE393E0E8CD1E
:103B7000293671F5FC012281222331F045E064E809
:103B800073E002960C94CA078091DC010E9405073D
:103B900080917F030E94050780E20E9405078091C3
:103BA00084030E94C607809185030E94C607809106
:103BB00086030E94C607809187030E94C60780E2A1
:103BC0000E940507809188030E94C6070C94520743
:103BD0001092DC010895CF93DF93EA98209A289AF7
:103BE0008EE190E00E949B0628988EE190E00E9472
:103BF0009B06289A8DE290E00E949B0680E30E943B
:103C00005A0384E690E00E949B06289880E40E9474
:103C1000CA02C5E9D3E0FE0184910E94CA0221963E
:103C2000F3E0C23ADF07B9F7809108010E94CA02A7
:103C3000809109010E94CA0280910A010E94CA0271
:103C4000C0E0D0E0FE01EB55FC4F84910E94CA0217
:103C50002196C931D105B1F7289A28988EE70E949C
:103C6000CA028BE290E0EC0121960E9425080E9496
:103C7000CA02C333D10511F0CE01F5CF289A83E3F0
:103C80000E945A0381E00E94A00681E08093E50231
:103C9000DF91CF910895AF92BF92CF92EF92FF92B2
:103CA0000F931F93CF93DF93EC018981843769F4DD
:103CB0006FE071E0CE0102960E94F70740E260E0FB
:103CC00080910F019091100112C0833709F07CC1DF
:103CD0008A81823789F46BE071E0CE0103960E94FD
:103CE000F70740E260E080910B0190910C010E9487
:103CF00056070E945207DCC1459A8091DF0181116D
:103D000016C08091CE01882329F081E08093DE01E6
:103D10001092CE018091D001882329F081E0809318
:103D2000DD011092D00157DF83E00E94A00686E3F8
:103D30000E945A038AE30E945A038BE30E945A03AB
:103D40000E94BC03FE0101900020E9F70E2F0C1B1E
:103D50000250C12C7E01E2E0EE0EF11C80910B01BD
:103D600090910C012C2D332727FD3095281739070A
:103D700008F0ECC0013291F45B9A80910F019091B0
:103D800010010E949B065B9880910D0190910E019D
:103D90006AE070E00E94CD2B0E949B06570111E063
:103DA00010170CF0ACC0F50181915F015B9A803374
:103DB00009F040C00132E1F480910D0190910E01B3
:103DC0000E949B065B9880910D0190910E010E94CC
:103DD0009B065B9A80910D0190910E010E949B06BB
:103DE0005B9880910D0190910E0165E070E01FC01D
:103DF00080910F01909110010E949B065B98809129
:103E00000F019091100163E070E00E94CD2B0E94A1
:103E10009B065B9A80910F01909110010E949B0676
:103E20005B9880910F019091100163E070E00E9417
:103E3000CD2B61C0813311F5013281F480910D01E8
:103E400090910E010E949B065B9880910D019091CC
:103E50000E0165E070E00E94CD2B1DC080910F0126
:103E60009091100163E070E00E94CD2B0E949B06B0
:103E70005B9880910F01909110012BC00132D1F419
:103E800080910D0190910E010E949B065B9880919C
:103E90000D0190910E010E949B065B9A80910D018D
:103EA00090910E010E949B065B9880910D0190916C
:103EB0000E0121C080910F01909110010E949B067C
:103EC0005B9880910F019091100163E070E00E9477
:103ED000CD2B0E949B065B9A80910F01909110015F
:103EE00063E070E00E94CD2B0E949B065B9880915E
:103EF0000F01909110010E949B061F5F51CF5B9AAA
:103F0000013291F480910D0190910E010E949B0667
:103F10005B9880910D0190910E0168E270E00E9423
:103F2000CD2B0E949B0610C080910F019091100133
:103F30000E949B065B981FE180910F0190911001F8
:103F40000E949B061150C1F7C39408CF8091DF01F6
:103F5000882341F08091EE0281110FC086E30E9418
:103F60005A0318C08091DE01882351F01092DE01BF
:103F70000E94591681E08093CE010E94CE030AC0B0
:103F80008091DD01882321F01092DD0180D802C0EC
:103F90000E94F40D459889E60E94050783E70E9478
:103FA000050711E010170CF0A4CEFE01E10FF11D82
:103FB00017FDFA958181803319F0813309F086E489
:103FC0000E9405071F5FEECF8237B9F48091CE01C2
:103FD000882329F081E08093DE011092CE01809148
:103FE000D001882329F081E08093DD011092D00177
:103FF000F2DD81E08093DF015BC0863651F58A8176
:10400000803351F480E18093080180EB80930901B3
:1040100081E780930A0107C043E068E071E0CE01C8
:1040200002960E94CA0789E60E94050786E60E945A
:1040300005078AE30E940507809108010E94C607D0
:10404000809109010E94C60780910A010E94C6075B
:1040500050CE883729F58091DE01882341F01092F7
:10406000DE010E94591681E08093CE0110C080913C
:10407000DD01882321F01092DD0109D80EC082E015
:1040800090E00E945E038091EE02882319F00E9466
:10409000CE0303C086E30E945A031092DF0108C0DA
:1040A000833631F46FE071E0CE0101960E94F7078C
:1040B000DF91CF911F910F91FF90EF90CF90BF9024
:1040C000AF900895A2E0B0E0E8E6F0E20C940E2C88
:1040D0007C01FC018181833709F09DC1198287E051
:1040E00090E00E94422C8C0141E0BE016F5F7F4F47
:1040F000C70102960E94CA078981F801808341E0C6
:10410000BE016F5F7F4FC70104960E94CA072981D5
:10411000207FF801218341E0BE016F5F7F4FC7011F
:1041200006962A830E94CA078981F801828341E0AA
:10413000BE016F5F7F4FC70108960E94CA07898141
:10414000F801838341E0BE016F5F7F4FC7010A968C
:104150000E94CA078981F801868341E0BE016F5F32
:104160007F4FC7010C960E94CA078981F801858399
:1041700041E0BE016F5F7F4FC7010E960E94CA07E4
:104180008981F801848380E090E02A814191342F75
:1041900032953F70342783279F5F9730B9F78F7030
:1041A000822BF801818387E090E00E94422C5C0121
:1041B00087E0F801D50101900D928A95E1F7D801C9
:1041C0001196C8010696F8013D912191232720837D
:1041D000E817F907C9F7459A8091E201811160C09B
:1041E0008091CE01882329F081E08093E101109233
:1041F000CE018091D001882329F081E08093E001F5
:104200001092D001EA98209A289A8EE190E00E94BC
:104210009B0628988EE190E00E949B06289A8DE2EA
:1042200090E00E949B0680E30E945A0384E690E09F
:104230000E949B06289880E40E94CA026EEBE62E3C
:1042400063E0F62EF70184910E94CA02FFEFEF1A95
:10425000FF0A27EEE21623E0F206A1F7289A289833
:104260008EE70E94CA028BE290E07C01EFEFEE1A2B
:10427000FE0A0E9425080E94CA02F3E3EF16F10429
:1042800011F0C701F2CF289A83E30E945A0381E01C
:104290000E94A00681E08093E50283E00E94A006D0
:1042A00086E30E945A038AE30E945A038BE30E942A
:1042B0005A030E94BC035B9A87EC94E20E949B061F
:1042C0005B9889E50E94A00685E392E00E949B0628
:1042D000712C8091150190E0272D332727FD309513
:1042E000281739070CF057C0711002C022E001C036
:1042F00027E0F12C5B9A86EF99E02A830E949B06C7
:104300005B9886EF99E00E949B06F3942A81F2164F
:104310008CF35B9A8CEF92E10E949B065B988091F4
:104320001101909112010E949B066801612CF60117
:1043300081906F0148E0542E50E8E52EF12C912C2D
:10434000C70188219921892B49F45B9A8091110139
:10435000909112010E949B065B9808C05B98809127
:104360001101909112010E949B065B9A80911101AC
:10437000909112010E949B06F694E7945A9401F7DB
:104380006394F7E06F12D3CF5B9880E090E00E94D7
:104390009B0673949ECF8091E201882341F0809127
:1043A000EE0281110FC086E30E945A0319C080916A
:1043B000E101882351F01092E1010E94591681E039
:1043C0008093CE010E94CE030BC08091E001882330
:1043D00029F01092E0010E94471802C00E94F40DDB
:1043E000459889E50E94050783E70E940507750146
:1043F000D12CF70181917F010E94C607D394F7E089
:10440000DF12F7CF0E945207C5010E94DA2CC801C3
:104410000E94DA2C6FC08237A9F465E171E0C70110
:1044200002960E94F70789E50E94050782E70E942D
:1044300005078AE30E9405078091150140E260E0CC
:1044400090E02CC0843779F5F7018281803339F40C
:1044500088ED94E0909314018093130106C063E10A
:1044600071E0C70102960E94F707809113019091B5
:10447000140196958795909312018093110189E517
:104480000E94050784E70E9405078AE30E9405074A
:1044900040E266E080911301909114010E9456075A
:1044A0000E94520727C0883729F58091E1018823AF
:1044B00041F01092E1010E94591681E08093CE01F3
:1044C00011C08091E001882329F01092E0010E9440
:1044D00047180EC082E090E00E945E038091EE02D9
:1044E000882319F00E94CE0303C086E30E945A037A
:1044F0001092E2012296EFE00C942A2C1092A40371
:1045000010929E0283E08093E8018FEF8093B903BD
:104510000895E9EEF1E02081211105C0892BB1F069
:1045200080E090E00895B2E0E739FB07B8F7009724
:1045300051F04181DC013C91431305C04281119649
:104540003C91431751F0E20FF11DE5CF32E0E7391E
:10455000F30719F010F0E7E9F2E0CF010895E82F32
:10456000F0E0EE0FFF1FEE0FFF1FE654FC4F8081BF
:104570008F3F91F08093E30181818093E4018281F8
:104580008093E50183818093E60121E04CE064E0C3
:1045900083EE91E00C94860A089588E992E0B9DFF1
:1045A000009799F02091E801FC013081231768F40D
:1045B000E20FF11D808180939A0289E780939B022C
:1045C000818180939C0281E0089580E00895EF92BC
:1045D000FF921F93CF93DF931F92CDB7DEB7182FB3
:1045E0008091EE0286FF18C084E599830E9405073A
:1045F000E12E9981F92E15E0F70181917F010E944A
:10460000C6071150C9F78091EE0285FF03C08AEFFB
:104610000E94C6070E9452070F90DF91CF911F9111
:10462000FF90EF90089586E30E945A0380919A02CA
:10463000833511F48BE901C08BE40E94A00621E0D0
:104640004CE065E088E992E00E94860A0E94CE0371
:1046500088E992E0BCCFE7DF80919A02893631F099
:1046600081E08093970289E28093B9030895CF9304
:1046700085E390E00E94250880938A0386E390E01A
:104680000E9425088093B803CFEFC093A803C0937E
:10469000AA03C093AC03C093AE03C093B003C0930E
:1046A000B203C093B403C093B60328DF1092E901AC
:1046B00081E080938903C093BA038FEF9FEF9093BB
:1046C0008D0380938C0310928F0310928E031092AF
:1046D000910310929003C093BE0390939303809331
:1046E00092031092950310929403109297031092E4
:1046F0009603C093C20390939903809398031092FA
:104700009B0310929A0310929D0310929C03C093F6
:10471000C60390939F0380939E031092A10310926F
:10472000A0031092A3031092A203CF910895ACE0CE
:10473000B0E0EDE9F3E20C94142C6C018C010F5FF6
:104740001F4F45E0BE016F5F7F4FC8010E94CA073F
:10475000843008F0F2C099819130A9F4833061F47B
:104760006A8185E390E00E9420086B8186E390E0F7
:104770000E9420087CDF11C280918A030E94C60734
:104780008091B80399C0923009F051C0813039F05E
:1047900081E09A81913009F080E0F82E02C0FF2478
:1047A000F3948091E901811104C087EE93E00E94A7
:1047B000450709EE11E0F8018081882309F4BAC0A9
:1047C000F2E007391F0708F0B5C081E0093E18077D
:1047D00019F080E20E940507F80181810E94C60756
:1047E000F80182810E94C607FF20E1F08AE30E945F
:1047F000050793E0F80180819817A0F4943038F011
:1048000090FF05C08CE29C870E9405079C85EE24E2
:10481000E394E90EF801E90FF11D80810E94C607BB
:104820009E2DE8CFF8018081080F111DC4CF933071
:1048300049F480E090E06DDE895E91409EEA981B2D
:10484000892F3AC0903171F508EA13E0F9EAEF2EAA
:10485000F3E0FF2EC12CD12CF80180818F3FA1F015
:10486000DD2019F080E20E9405078C2D0E94C6070A
:104870008AE30E940507F80180810E94C607F701BC
:1048800080810E94C607D3940E5F1F4FC394F2E04D
:10489000EF0EF11C88E0C812DFCFD1104BC085EFBE
:1048A00093E046C0913159F48091A6039091A703FB
:1048B0006DE770E083D7862F0E94C6073BC0923118
:1048C000C9F5EAEBEE2EE3E0FE2E0DEB13E0C12C72
:1048D000D12CF70180818F3FF1F0DD2019F080E2CB
:1048E0000E9405078C2D0E94C6078AE30E940507D7
:1048F000F70180810E94C607F801329780810E94EB
:10490000C607F801319780810E94C607F8018081AF
:104910000E94C607D394F4E0EF0EF11CC3940C5F21
:104920001F4F84E0C812D5CFD11004C081EF93E0AF
:104930000E9445070E94520730C144E0BE01695FF2
:104940007F4FC8010E94CA074F81493608F481C0D1
:104950007A8558856985ECEBF3E080E090E07C3067
:1049600009F058C09C01220F331F220F331FDF01B3
:1049700012977C9174131EC01196AC91A5131AC0A6
:10498000A081A61317C0F901E654FC4F2CE0238345
:1049900063E070E002D7DC01AA0FBB1FA457BC4F35
:1049A0001D921C92FC01EE0FFF1FE257FC4F11827B
:1049B0001082D5C07F3FE1F4F901E654FC4F4083FB
:1049C000518362832CE0238363E070E0E6D6DC0150
:1049D000AA0FBB1FA457BC4F1D921C92FC01EE0FE7
:1049E000FF1FE257FC4F1182108210928903B7C05B
:1049F000019634968430910509F0B4CFCEC0DF0122
:104A00001197AC91A51789F00196349684309105E1
:104A100009F4C3C09C01220F331F220F331FDF0193
:104A20001297AC91A413F0CFEACFA081A613ECCFDC
:104A3000F901E654FC4F738363E070E0AED6FC01ED
:104A4000EE0FFF1FE257FC4F81E090E091838083DF
:104A5000A4C0E98180918A03E817D0F190E0F0E0EA
:104A60009C01295F3F4F2E173F0794F13A81209117
:104A7000B80332132DC03C813F3231F442E06CE088
:104A8000C6010E94F50A89C02D813C32C1F42093F1
:104A9000A50381E090E09093A7038093A60330E004
:104AA000220F331F220F331F8091EB029091EC02F3
:104AB000820F931F9093EC028093EB026EC0E81B71
:104AC000F90BEE0FF0E0E855FC4F3083218365C011
:104AD00080E090E01EDD7C01F80101900020E9F704
:104AE0003197E01BF10BF695E795BB24B394BE0E0E
:104AF000C7018B0D911D895E91408F3A91050CF095
:104B000048C0F701B1928F0121E0822F880F8150B8
:104B10002B15D8F441E0B801F601E80FF11DCF01E3
:104B20002C870E94CA072C85233058F020FD09C02D
:104B3000D80111978C91843621F4F80180818093FB
:104B40008B032F5F0F5F1F4FE0CFF7E9EF16F2E007
:104B5000FF0618F5F701E20FF11D10821EC022E0DA
:104B60004CE064E0CE0107960E94860A8FE08A87B7
:104B700022E04CE064E0CE0107960E94860A82E0C3
:104B80008A8722E04CE064E0CE0107960E94860A04
:104B900004C08BEE93E00E9445072C96E9E060C6C6
:104BA000FF920F931F93CF93DF93F82E8091890389
:104BB000811154C0AF2DB0E0CD0163E070E0EDD5C0
:104BC0008C01FC01EE0FFF1FE457FC4FAA0FBB1F27
:104BD000AA0FBB1FA654BC4F12968C91877020E879
:104BE00030E0A901481B5109CA016AEF70E0D5D530
:104BF000959587959595879591838083E801CC0F4E
:104C0000DD1FC057DC4F288139812F5F3F4F39832B
:104C10002883000F111F02571C4FF801408151815A
:104C20004115510531F424303105C1F48F2D97DC45
:104C300013C04130510541F48F2D91DC82E090E0AA
:104C4000F801918380830AC04230510539F48F2DD9
:104C500086DCF8011182108219821882CDB7DEB786
:104C6000E5E002C6A6E0B0E0E7E3F6E2E0C5809149
:104C7000B8038A831B829091A503992341F0933056
:104C800019F487E791E00CC08DE790E009C08770C8
:104C900090E08A519F4F6DE770E07FD5959587959D
:104CA0009093A7038093A60309EA13E0F12C5CE23A
:104CB000E52EF801319790819F3FC1F080918A03E2
:104CC0008F0D89838091A503882311F0EC8203C0A6
:104CD0009C83F80180818D8321E04CE065E0CE016A
:104CE00001960E94860ACE01019671DCF3940E5F54
:104CF0001F4FF8E0FF12DDCF8091A503882341F01C
:104D0000833019F41092A50303C082508093A50349
:104D10002696E6E0A8C580919702882351F083DCAF
:104D200089E28093B9038091970281508093970222
:104D30000895E4CBFF920F931F93CF93DF93FC0171
:104D4000F0800181C281D38114818FE58093B90302
:104D50001092970280918A03811105C08091B80357
:104D6000882309F4A9C0809198028F1104C0809112
:104D70009902801729F0C2DBF09298020093990201
:104D80008091A4038F3F09F497C0C0939A02D093F7
:104D90009B0210939C02CC23F1F081111CC08091E6
:104DA0008A03181761F0143651F08DEA8C0F8230A7
:104DB00010F0CD3739F48FEF8093A4037DC0C43554
:104DC00009F47AC08D2F807F803609F075C0D067D6
:104DD000D0939B0257C0E1DB811105C08091A403F1
:104DE000882309F469C080919E02811107C0E09177
:104DF000A403F0E0E750FC4FE49101C0E82FE33555
:104E000041F4C43531F49091A4039E5F9093A403C0
:104E100004C0EC1711F072DB4FC0882369F0809159
:104E2000E8018E5F8093E801B8DB81110EC08091AC
:104E3000A4038E5F8093A4038091A403E82FF0E085
:104E4000E650FC4F14911F3F59F480919A028093D1
:104E50009E028436B9F480918B0380939C0212C029
:104E600010939A0297E790939B0290918A039093F4
:104E70009C028E5F8093A40310929E028E3021F0DC
:104E80001123D1F0E8DB18C088E992E042DBDC01B5
:104E9000009781F02C9130E087E992E0821B930B20
:104EA000A817B90730F4ED01C20FD31F48814D9305
:104EB000F7CF1C9223DBE4CFCDB7DEB7E5E0D4C457
:104EC0000F931F93CF93DF93EC0110E0212F30E07D
:104ED000C90163E070E061D488579F4FFC010491E1
:104EE000C90163E070E059D487579F4FFC012591B9
:104EF0003491002399F0209739F480E20E9405074D
:104F0000802F0E94050708C08881801305C0CE014C
:104F1000F901099581E003C01F5FD8CF80E0DF91E0
:104F2000CF911F910F910895CF93C0912401809349
:104F3000240180910F048823A1F18DE094E00E9468
:104F40006209E0919F028A3011F08D30F9F4EE236E
:104F500081F3F0E0E056FD4F108280EA92E0B0DF8E
:104F6000811111C08FE194E00E94450780EA92E030
:104F70000E943A0787E094E00E94450780E090E0B5
:104F80009FDF0E94520710929F02D3CFE03488F631
:104F900091E09E0F90939F02F0E0E056FD4F8083DA
:104FA000C8CFC0932401CF910895E4E6F0E080815A
:104FB0008B7F8083299A84B1876084B9239880E5A8
:104FC0008CBD8DB581608DBD089520915D043091BB
:104FD0005E042115310521F4209118013091190149
:104FE0008091160190911701009741F48DB79EB7FB
:104FF00040911A0150911B01841B950B281739070A
:1050000018F4821B930B089580E090E0089582E4E9
:105010000E94050740E265E080915D0490915E0486
:105020000E9456070E94520783E50E94050740E24E
:1050300065E080911801909119010E9456070E9425
:10504000520785E40E94050740E265E08091160161
:10505000909117010E9456070E94520786E40E9411
:105060000507B3DF40E265E00E9456070C94520743
:10507000A2E0B0E0EDE3F8E2DEC3E5E5F4E0809124
:10508000F100819384E0ED35F807C9F720915504CC
:1050900030915604832F90E08A30910508F01AC1B0
:1050A000FC01E65CFF4FB1C3203879F0223809F0EB
:1050B00011C1809159048093E9008091EB0085FB38
:1050C000882780F91092E90006C0809150049091E1
:1050D0005104911182609091E800977F9093E800CD
:1050E0008093F1001092F1008091E800982F9E7F4C
:1050F0009093E8008F778093E8008091E80082FD2C
:10510000AFC0809154048111F8CFD5C0822F8D7F1C
:1051100009F0E0C0222319F0223061F033C0809101
:105120005704813009F0C7C0333009F080E0809324
:10513000510428C080915704811124C02091590442
:10514000277009F4B8C02093E9008091EB0080FF3C
:1051500019C08091EB00313091F480618093EB00B5
:1051600081E090E0022E01C0880F0A94EAF7809354
:10517000EA001092EA008091EB00886001C0806232
:105180008093EB001092E9008091E800877F809384
:10519000E8008091E800982F9E7F66C021119AC098
:1051A000209157048091E800877F8093E8009091D8
:1051B000E800892F8E7F8093E8009F779093E80026
:1051C0008091E80080FD05C0809154048111F8CFE2
:1051D00072C0822F8F77982F90689093E300882376
:1051E00009F469C083E08093540465C020582230DC
:1051F00008F070C0AE014F5F5F4F6091590480911D
:105200005704909158040E949002009709F453C0EB
:105210002091E800277F2093E800BC0189819A81D2
:1052200026D11EC0203809F055C08091E800877F44
:105230008093E800809152048093F1008091E8000F
:10524000982F9E7F9093E8008F778093E80080915D
:10525000E80082FD05C0809154048111F8CF2BC075
:105260008091E800982F9B7F9093E8008F77809340
:10527000E80021C021112EC0909157049230D8F43B
:105280008091E800877F8093E8009093520480919A
:10529000E800982F9E7F9093E8008F778093E80036
:1052A00080915204882311F084E001C083E0809350
:1052B00054040E94FD048091E80083FF0EC0809199
:1052C000EB0080628093EB008091E800877F809301
:1052D000E80003C00E941505EECF2296E2E0C7C2A7
:1052E0008093E900EBEEF0E0808181608083EDEE59
:1052F000F0E010826093EC0040838091EE00881F04
:105300008827881F08951092F40080E08093E900B8
:105310001092F0001092E8009091ED009D7F909324
:10532000ED009091EB009E7F9093EB008F5F8530B6
:1053300069F708958091550487FD05C08091E800C4
:1053400080FF0FC013C08091E80082FD05C08091EE
:1053500054048111F8CF08958091E800982F9B7F25
:1053600009C0809154048111E9CF08958091E8002B
:10537000982F9E7F9093E8008F778093E8000895A0
:1053800085E69091EC0090FF05C09091E80090FFB9
:1053900005C019C09091E80092FD15C09091540489
:1053A000992399F09091EB0095FD11C09091E10047
:1053B00092FFE7CF9091E1009B7F9093E1008150B5
:1053C00001F783E0089580E0089582E0089581E088
:1053D000089540915B0450915C049B014617570768
:1053E00008F49A0140E021153105A9F15091E80037
:1053F00053FD39C05091E80052FF06C08091E8008B
:1054000082FF2CC080E0089550915404552369F127
:105410005091E80050FFE7CFFC01CF012115310585
:1054200051F04091F200483030F481918093F100C6
:1054300021503109F2CF5091F20041E0583009F08B
:1054400040E05091E800652F6E7F6093E8005F7741
:105450005093E800C8CF4111C9CFD0CF80915404F8
:105460008111CCCF02C081E0089582E0089540917F
:105470005B0450915C049B014617570708F49A019E
:1054800040E021153105B1F15091E80053FD3AC0DB
:105490005091E80052FF06C08091E80082FF2DC0C5
:1054A00080E0089550915404552371F15091E80023
:1054B00050FFE7CFFC01CF012115310559F0409194
:1054C000F200483038F484918093F1002150310982
:1054D0003196F1CF5091F20041E0583009F040E0B0
:1054E0005091E800652F6E7F6093E8005F775093DE
:1054F000E800C7CF4111C8CFCFCF809154048111AC
:10550000CBCF02C081E0089582E008956115710556
:1055100071F12091E80023FD2FC020915404222333
:1055200079F12091E80022FFF4CFFC018091F20094
:10553000882371F09F012F5F3F4FC9014091F10017
:105540004083615071096115710519F0F901EECFC1
:10555000CF012091E800322F3B7F3093E8002F7776
:105560002093E800D3CF80915404882349F08091A0
:10557000E80080FFF8CF02C081E0089580E0089540
:1055800082E0089553D055D01092540410925204E2
:10559000109251041092500419BC89B5826089BDE3
:1055A00009B400FEFDCF8091D800982F9F7790938B
:1055B000D80080688093D800809163008E7F8093AC
:1055C00063008091D8008F7D8093D8008091E000A7
:1055D0008E7F8093E0008091E1008E7F8093E100D8
:1055E0008091E20081608093E2008091E100877FFA
:1055F0008093E1008091E20088608093E20008954A
:10560000C1DF81E08093530478940895BBDFE0EE1E
:10561000F0E0808181608083E8EDF0E080818F7729
:10562000808319BC10925304089508951092E200EB
:1056300008951092E10008951F920F920FB60F92F5
:1056400011242F933F934F935F936F937F938F9387
:105650009F93AF93BF93EF93FF938091E10080FFFF
:105660001CC08091E20080FF18C08091E1008E7F15
:105670008093E1008091E2008E7F8093E200809130
:10568000E20080618093E2008091D8008062809384
:10569000D80019BC10925404C8DF8091E10084FF47
:1056A00029C08091E20084FF25C019BC89B58260C1
:1056B00089BD09B400FEFDCF8091D8008F7D809315
:1056C000D8008091E1008F7E8093E1008091E2001C
:1056D0008F7E8093E2008091E20081608093E200FF
:1056E00080915204882311F084E001C081E080930E
:1056F00054049BDF8091E10083FF23C08091E2008E
:1057000083FF1FC08091E100877F8093E10082E0EA
:1057100080935404109252048091E1008E7F809314
:10572000E1008091E2008E7F8093E2008091E200B0
:1057300080618093E200E7DD42E060E080E0D0DD60
:1057400074DFFF91EF91BF91AF919F918F917F9106
:105750006F915F914F913F912F910F900FBE0F90DE
:105760001F901895CF9380915404882359F0C091CD
:10577000E900C7701092E9008091E80083FD78DCB1
:10578000C093E900CF910895002480FD060E660FB6
:1057900011F08695D1F7802D08950024552704C077
:1057A000080E591F880F991F009729F07695679565
:1057B000B8F37105B9F7802D952F0895AA1BBB1B6F
:1057C00051E107C0AA1FBB1FA617B70710F0A61B01
:1057D000B70B881F991F5A95A9F780959095BC0122
:1057E000CD01089597FB072E16F4009406D077FD9F
:1057F00008D0E4DF07FC05D03EF4909581959F4FDB
:105800000895709561957F4F0895EE0FFF1F0590E5
:10581000F491E02D09942F923F924F925F926F92F4
:105820007F928F929F92AF92BF92CF92DF92EF9230
:10583000FF920F931F93CF93DF93CDB7DEB7CA1BB1
:10584000DB0B0FB6F894DEBF0FBECDBF09942A88DC
:10585000398848885F846E847D848C849B84AA8484
:10586000B984C884DF80EE80FD800C811B81AA8111
:10587000B981CE0FD11D0FB6F894DEBF0FBECDBFDC
:10588000ED010895CF93DF938230910510F482E00B
:1058900090E0E0915F04F091600420E030E0A0E04F
:1058A000B0E0309739F14081518148175907B8F07D
:1058B0004817590771F482819381109729F0139644
:1058C0009C938E9312972CC09093600480935F04F6
:1058D00027C02115310531F04217530718F0A901EF
:1058E000DB0101C0EF019A01BD01DF010280F381FC
:1058F000E02DD7CF21153105F9F0281B390B2430C5
:10590000310580F48A819B816115710521F0FB01CD
:105910009383828304C09093600480935F04FE01AC
:10592000329644C0FE01E20FF31F819391932250FF
:105930003109398328833AC020915D0430915E0497
:10594000232B41F4209118013091190130935E040A
:1059500020935D0420911601309117012115310526
:1059600041F42DB73EB740911A0150911B01241B01
:10597000350BE0915D04F0915E04E217F307A0F4AB
:105980002E1B3F0B2817390778F0AC014E5F5F4F95
:105990002417350748F04E0F5F1F50935E04409365
:1059A0005D048193919302C0E0E0F0E0CF01DF91CC
:1059B000CF910895CF93DF93009709F487C0FC013E
:1059C000329713821282C0915F04D09160042097B5
:1059D00081F420813181280F391F80915D049091DD
:1059E0005E048217930779F5F0935E04E0935D04FB
:1059F0006DC0DE0120E030E0AE17BF0750F4129614
:105A00004D915C9113979D014115510509F1DA0102
:105A1000F3CFB383A28340815181840F951F8A17EE
:105A20009B0771F48D919C911197840F951F02969D
:105A30009183808312968D919C9113979383828397
:105A40002115310529F4F0936004E0935F043EC012
:105A5000D9011396FC93EE9312974D915D91A40F8B
:105A6000B51FEA17FB0779F480819181840F951F98
:105A70000296D90111969C938E93828193811396FD
:105A80009C938E931297E0E0F0E08A819B810097CF
:105A900019F0FE01EC01F9CFCE010296288139817F
:105AA000820F931F20915D0430915E0428173907FF
:105AB00069F4309729F41092600410925F0402C0D8
:105AC00013821282D0935E04C0935D04DF91CF9164
:105AD0000895FC016150704001900110D8F7809545
