:100000002DC2000047C2000045C200000C9414132A
:1000100041C200003FC200003DC200003BC20000E0
:1000200039C2000037C200000C945B2B33C20000C1
:1000300031C200002FC200002DC200002BC2000000
:1000400029C200000C94B11225C2000023C2000096
:1000500021C2000049C500001DC200001BC20000F3
:1000600019C2000017C2000015C2000013C2000030
:1000700011C200000FC200000DC200000BC2000040
:1000800009C2000007C2000005C2000003C2000050
:1000900001C20000FFC10000FDC10000FBC1000063
:1000A000F9C10000F7C10000F5C1000069289B28D4
:1000B0007F299B287F29E3280B297F2927294F297E
:1000C000412E1842F20843F703651C0946260B47E8
:1000D000290B68910C694B1E4BD70B4C5D066CE1EC
:1000E000084D670B6D1C2852630854B12374D40566
:1000F000555E0C755F15565C0957A30858140E78A9
:10010000BE03597E205AA21A7A981D0000002A03C5
:10011000430055004C0034003300330000002A0334
:10012000430055004C00380036003800000016032C
:1001300062007500730077006100720065002E0098
:100140006400650000000403090409024300020181
:1001500000803209040000010202010005240001B0
:1001600010052401030104240206052406000107EA
:100170000582030800FF09040100020A00000007CD
:100180000504024000000705830240000012011030
:100190000102000008EB034B2000000102000120D7
:1001A0002F2000203D2000072E050DD391FF0805CC
:1001B00000000C0021656A2D3B1322F862073F18EE
:1001C0001D1CC700B0876BF8B611EA2A001F41005A
:1001D0000D2E2D07D3913D04320000060021656AE3
:1001E00055E43023B900070018146C070090876BA2
:1001F000F85611E92A001F410000030F1E262700B0
:100200000000030F1E2536386700030F2567406086
:100210005000030F275188838100030F2750C8C364
:10022000C20027000000000000006700000000007E
:1002300000005000000000000000810000000000ED
:100240000000C2000000000000504C4C310D0A00BC
:10025000504C4C300D0A005620312E363720435575
:100260004C383638005620312E36372043554C3422
:1002700033330043554C5F563300202F2000203D80
:1002800020004C4F56460D0A00424F56460D0A00BC
:100290004552523A4343410D0A000B08105B11F8D6
:1002A0001547191D1A1C1BC71C001DB221B623EAD5
:1002B0000007022E030D04E905CA070C0B060D21E9
:1002C0000E650F6A10C811931203153417331818EE
:1002D00019161B4321562500261129592C812D352D
:1002E0003EC34C454E4552520D0A004C4F56460DEA
:1002F0000A004C454E4552520D0A000007024604C2
:10030000C605260B0610C8119312031322153417C5
:100310003F182819161B432156250026110D210EC2
:10032000650F6A070C160720F81E871F6B29592CCA
:10033000812D353EC3FF000001022E030104AA05F2
:100340000F06FF070008000B060D210E740FAD10FD
:100350004B11F8121613721541181819161B0323A6
:10036000E9242A2500261F3E500001022E03010425
:10037000AA050F06FF070008000B060D210E660FE9
:100380006610CA1193120613521535181819161B48
:100390000323E9242A2500261F3E500001022E03D4
:1003A00001045505F006FF070008000B060D210E9D
:1003B000660F9910591183121E135215351818190A
:1003C000161B0323E9242A2500261F3E500D2E2D3F
:1003D00007D3913D04320000060010B07155E4309F
:1003E00023B900070018146C070090876BF85611AA
:1003F000E92A001F41000D2E2D07D3913D04320044
:1004000000060010ABA5550A3023B90007001814E8
:100410006C070090876BF85611E92A001F41004EC7
:100420002F4100454F420D0A004E2F41004E2F41F3
:100430000000535300547D7DFFFF4B4B7E7E002018
:10044000697320756E6B6E6F776E2920557365200A
:100450006F6E65206F66003F2028000011241FBECC
:10046000CFEFDAE0DEBFCDBF11E0A0E0B1E0E6E91A
:10047000FBE502C005900D92A032B107D9F725E047
:10048000A0E2B1E001C01D92AA3CB207E1F70CD096
:100490000C94C92DB5CDF89481E085BF82E085BF6D
:1004A000E0E0F8E3099508952FE088E190E00FB6C9
:1004B000F894A895809360000FBE2093600090E0B0
:1004C00080E80FB6F89480936100909361000FBEAE
:1004D0002E9A2D9A04B603FE0AC083E390E0DAD583
:1004E000882329F060E083E390E0CFD5D4DF89EF63
:1004F00087BD84E085BD82E084BD80936E0010924C
:1005000080008AE08093810084B7877F84BF6E9AE1
:100510000E94EA27BED60E94302B0E9451230E94DF
:10052000F30D8FE997E290932503809324030E94B3
:10053000B71489E08093240176980E940B2C0FD287
:100540000E94151047D30E94B1150E94A5160E9463
:100550002A1A0E94641CF1CF292F3327223031053B
:1005600059F02330310569F02130310539F582E148
:1005700090E02DE831E026C083E490E02AE431E009
:1005800021C099278130910539F018F0029751F078
:1005900015C0E6E4F1E002C0EEE2F1E0849190E003
:1005A0009F0110C01E9903C02EE031E002C02EE171
:1005B00031E0EEE1F1E0849190E004C080E090E071
:1005C00020E030E0FA013183208308958EBD0DB420
:1005D00007FEFDCF8EB50895A1E0B0E0E2EFF2E0B6
:1005E0000C94562C482F8A3008F048E088E0489F49
:1005F00070011124F701E750FE4F7F018BE290E07C
:10060000F70164918C010F5F1F4F49833ED5FFEFC7
:10061000EF1AFF0A49810333110511F0C801F0CF29
:100620004550453010F461E101C067E184E290E09B
:100630002CD52196E6E00C94722CCF93DF9382E0C8
:1006400090E0FC01E253FE4F6491EC0121961DD530
:10065000CB32D10511F0CE01F4CF87E390E0FC015D
:10066000E059FE4F6491EC0121960FD5C036D105BB
:1006700011F0CE01F4CF1E9918C060E18FE090E038
:1006800004D560EB80E190E000D561E781E190E086
:10069000FCD460E184E490E0F8D460EB85E490E081
:1006A000F4D461E786E490E0F0D488E095DFDF9150
:1006B000CF9108952898806C89DF80E087DF289AA1
:1006C0000895A1E0B0E0E7E6F3E00C945A2C2898F6
:1006D000806469837BDF6981862F78DF289A219681
:1006E000E2E00C94762C289871DF289A0895EF9216
:1006F000FF920F931F93CF93DF93EC011092D001E1
:10070000EA98209A289A8EE190E036D328988EE1D4
:1007100090E032D3289A8DE290E02ED380E3E3DF9D
:1007200084E690E029D3289880E450DF7E0189E2B6
:10073000E80EF11C8E010F5F1F4FCE01ABD446DFD8
:100740000E151F0511F0E801F5CF289A28988EE7BD
:100750003DDF8BE290E0EC0121969CD437DFC33380
:10076000D10511F0CE01F7CF289A83E3BCDF81E0F9
:1007700008D3CDB7DEB7E6E00C94722CA1E0B0E070
:10078000E4ECF3E00C945A2C22E0298341E0BE0112
:100790006F5F7F4F01961ED489811EDF82E090E05B
:1007A000A6DF2196E2E00C94762CCF93EA9886E3BC
:1007B0009ADFCFEF85E397DFC1508077803229F051
:1007C0008AE090E0D9D2C111F5CFCF910895CF93AF
:1007D000CFEF84E388DFC1508077803129F08AE051
:1007E00090E0CAD2C111F5CFEA9ACF910895A2E064
:1007F000B0E0EDEFF3E00C94582C8C01FC0181810A
:100800008737E9F441E0BE016F5F7F4FC801029670
:10081000E1D3892BA1F041E0BE016E5F7F4FC8019B
:100820000496D8D3892B59F06A8189814ADF83E302
:100830005ADFCDDF8981CAD38A81C8D32CC041E079
:10084000BE016E5F7F4FC8010196C4D3892B21F191
:100850008A81893969F410E0812F2CDFB7D3812F89
:100860008770873009F43ED31F5F1033A9F714C097
:1008700021DF182F83E4EAD28A81A8D383EA91E0AA
:1008800024D3812FA3D38FE991E01FD340E262E00C
:10089000812F90E02BD326D32296E4E00C94742C85
:1008A00086E321DF109226031092CE011092D00130
:1008B000089582E090E01BDF81E080932603109290
:1008C000CE011092D00108950F931F93CF93DF9321
:1008D000082F10E0C62FD0E085E3ECDE801731F062
:1008E000CE014AD21150C1F781E001C080E0DF9112
:1008F000CF911F910F91089585E2DCDE8F3311F0C7
:1009000080E0089586E3EFDE80912001811104C02C
:1009100080E592E0DAD202C08DE3E5DE83E3E3DE38
:1009200064E081E0D1DF85E2C5DE8F3349F7809155
:100930002001811103C089E492E0C7D281E00895CB
:1009400085E3B8DE8D3051F485E2B4DE8F3331F4C7
:10095000D3DF84E3C8DE80778031D9F708958091B2
:10096000BD05843009F069C08093E90080912101C0
:1009700081112AC08091E80085FF26C08091F20095
:100980009091F300892B31F06091F10086E395E0BE
:10099000A8D4F4CF8091E800982F9B7F9093E80033
:1009A0008F778093E80081E0809321018FEA94E0C3
:1009B0009093230380932203E0912403F091250375
:1009C00081E009951092210183E08093E9008091F4
:1009D000B504882391F18091E80085FF2EC0F8943A
:1009E0008091B504882369F08091F2009091F30022
:1009F0008034910530F483EB94E089D48093F10046
:100A0000EFCF78948091F2009091F3002091E8006C
:100A1000322F3E7F3093E8002F772093E800803418
:100A2000910559F40E94D5298091E800982F9E7F66
:100A30009093E8008F778093E800089542E061EC9E
:100A400082E00E94852942E361E883E00E948529D3
:100A500042E360E884E00E94852910920001109230
:100A60000101109202011092030108958091BE05C8
:100A70009091BF05913229F0923261F1903299F54F
:100A800012C0813A81F58091E800877F8093E80069
:100A900067E070E080E091E00E94FE298091E8002C
:100AA000982F9B7F11C08132F1F48091E800877FFD
:100AB0008093E80067E070E080E091E00E94A82A5F
:100AC0008091E800982F9E7F9093E8008F77809325
:100AD000E8000895813239F48091E800877F80939F
:100AE000E8000C94AF2908951F920F920FB60F9251
:100AF00011248F939F93AF93BF93EF93FF938091B4
:100B0000280390912903A0912A03B0912B03019609
:100B1000A11DB11D8093280390932903A0932A035C
:100B2000B0932B03809127038F5F80932703E5E722
:100B3000F4E080819181181619061CF401979183C5
:100B40008083369684E0ED38F80799F780918F041A
:100B500090919004009729F00197909390048093CE
:100B60008F048091A2048F3F19F081508093A204DA
:100B7000FF91EF91BF91AF919F918F910F900FBE19
:100B80000F901F9018952FB7F8944091280350911B
:100B9000290360912A0370912B03FC014083518348
:100BA000628373832FBF0895A4E0B0E0EAEDF5E01F
:100BB0000C945A2CCE010196E6DF8C8107D28B81F2
:100BC00005D28A8103D2898101D28CD12496E2E0B8
:100BD0000C94762C1F93CF93DF93809128039091F0
:100BE0002903A0912A03B0912B03209123012817F8
:100BF00009F45FC08091280390912903A0912A03F2
:100C0000B0912B0380932301A895C5E7D4E010E0B1
:100C100028813981232B19F4812F0E94DE251F5F43
:100C200026961430A9F780918F0490919004892B17
:100C300011F40E943A268091A204811102C00E9400
:100C400096268091B503882339F081508093B503AF
:100C5000811102C00E944516809127038D3748F10B
:100C6000109227038091070181FF04C08EB190E4A8
:100C700089278EB980912C0390912D03843823E02D
:100C8000920728F4019690932D0380932C03809172
:100C900022018F5F809322018C3359F4109222013C
:100CA000809174048F5F809374048C3310F01092E1
:100CB0007404DF91CF911F910895A0E0B0E0E3E6C6
:100CC000F6E00C94552C8C016EE070E00E94A82D8B
:100CD0008D3009F04CC0769A8091D001882341F084
:100CE0001092D0018CE191E09FD7DD24D39401C014
:100CF000D12C80912603811101C0DBDD56DD84E01B
:100D0000F82E5B9A88EE93E037D0C1E0D0E0EE2475
:100D1000E394F801EC0FFD1F8081813309F0E12C91
:100D20005B98EE2019F088EE93E002C080ED97E02A
:100D300023D05B9AEE2019F080ED97E002C088EE98
:100D400093E01AD02196CD30D10509F75B9883E264
:100D500018D0FA94B1F680912F03882311F037DD73
:100D600002C086E3C0DCD1100E9446187698CDB749
:100D7000DEB7E7E00C94712C880F991F0197F1F70B
:100D8000089520ED37E0815020F0F9013197F1F717
:100D9000FACF0895CF93DF93DC0113968C911397CC
:100DA000843509F050C0CD010396CC91FD017096B9
:100DB0004DE04C1750F050E0D0E09E012F5031092B
:100DC0004217530709F03FC005C021912B3399F317
:100DD0004F5FEFCFFE013E97E80FF91F20812435CA
:100DE00091F514963C911497218132132CC01596DD
:100DF0003C9115972281321326C016963C91169786
:100E00002381321320C017963C9117972481321307
:100E10001AC06197C80FD91F85818883868189830D
:100E200081858A8382858B8383858C8384858D836A
:100E300085858E838C918A508C9312968C91129713
:100E40008A5012968C93DF91CF910895CF93C82F3B
:100E50008091BD05843079F48091240180FF0BC01E
:100E60008091B50487FD7BDD6C2F83EB94E039D254
:100E7000CA3009F474DD8091BE038823C9F08091E3
:100E8000240183FF15C0CA3099F0CD3011F46BE313
:100E900001C06C2F82E393E024D2CD3019F482E3B9
:100EA00093E078DF83E08093B50382E08093BD0315
:100EB000CF910895CF93DF93EC018991882311F0AE
:100EC000C5DFFBCFDF91CF910895CF93DF93EC0186
:100ED000FE018491882319F0B9DF2196F9CFDF91C3
:100EE000CF9108958DE0B2DF8AE0B0CFA6E0B0E008
:100EF000ECE7F7E00C94582C062F1E8215E02AE050
:100F000030E01150E1E0F0E0EC0FFD1FE10FF11DCA
:100F1000B9010E941D2C805D8083CB010150009798
:100F200069F01111EECF0AC0112359F01150E1E020
:100F3000F0E0EC0FFD1FE10FF11D4083015007FFB2
:100F4000F3CF81E090E08C0F9D1F810F911DB2DFE8
:100F50002696E4E00C94742CA5E0B0E0E2EBF7E018
:100F60000C945A2C1D8224E0382F3F702150E22F20
:100F7000F0E03A3010F4305D01C0395CA1E0B0E03F
:100F8000AC0FBD1FEA0FFB1F308334E096958795A9
:100F90003A95E1F76150009739F7615067FD0BC052
:100FA000222349F02150E1E0F0E0EC0FFD1FE20FB9
:100FB000F11D4083F2CF81E090E08C0F9D1F820FE6
:100FC000911D78DF2596E2E00C94762C40E362E0F8
:100FD00090E0C2CFDC01FB0130E090E08D918823EE
:100FE000A9F0813608F0805220ED280F2A3030F029
:100FF0002FEB280F263030F429EC280F292B332330
:1010000079F006C0803251F38A3341F3CF0105C035
:10101000CF0101962083415041F4861B970B089520
:10102000922F9295907F31E0D9CFFC01D5CF20E06F
:1010300030E05AE0FC014191CF01442379F0E0ED2A
:10104000E40FEA30B8F7F9015E9F90015F9F300D21
:10105000112420533109240F311DECCFFB013183C2
:1010600020830895982F92959F709A3010F4905D88
:1010700001C0995CFB0190838F708A3010F4805D11
:1010800001C0895CFB01818308950E94BB2DF99901
:10109000FECF08950C94B32D08951F93CF93DF9343
:1010A000162F11501F3F59F0EC012196F3DF8EDF10
:1010B000112311F08AE3CADE1150CE01F3CFDF9184
:1010C000CF911F910895A2E0B0E0E9E6F8E00C941A
:1010D000572CFC0121812D3421F466E08AEF93E046
:1010E00005C0203529F460E18AED93E0D6DF26C003
:1010F0001A82198242E0BE016F5F7F4F01966ADF5C
:10110000098110E0823021F4102F00278A81082BFA
:10111000C801C0DFF82E82E599DE40E364E0C80133
:101120001BDF8EE792E0D1DE8F2D50DF8AE792E061
:10113000CCDE40E262E08F2D90E0D8DED3DE229656
:10114000E5E00C94732CA6E0B0E0E9EAF8E00C943A
:10115000542C6C0143E0BE016F5F7F4F01963ADF74
:10116000823058F1E980F12C823021F0FE2CEE24FF
:101170002A81E22A8C011127FE01E00FF11F608114
:10118000C70183DF000F111F0F5F1F4F0C0D1D1DC7
:10119000F8018081882389F041E0BE016F5F7F4FB5
:1011A000C80118DF892B49F08FEFE81AF80A698126
:1011B000C7016BDF0E5F1F4FEBCF2696E8E00C9464
:1011C000702C41E067E071E0019604DF8091070137
:1011D00080FF02C0769A01C076986091070184E38F
:1011E00090E053CFA1E0B0E0E8EFF8E00C945A2C87
:1011F0001982009731F041E0BE016F5F7F4F019689
:10120000E9DE89818F3F09F4FFCF882321F061E077
:1012100083E390E03ADF0E943B2B10926E00F8943B
:1012200028E088E190E00FB6F894A89580936000DC
:101230000FBE20936000FFCFCF93DF93EC0161E0FE
:1012400080E090E022DF63E481E090E01EDFF5D9EA
:1012500060E080E690E019DF60E081E690E015DF75
:1012600060E083E390E011DF62E084E390E00DDF73
:1012700060E080E690E009DF60E081E690E005DF75
:101280008981883719F080E090E0ACDFDF91CF9161
:10129000089580E090E0FEDE813029F481E090E066
:1012A000F9DE833419F080E090E0C6DF84E390E05B
:1012B000F1DE809307010895FC018181883419F4DF
:1012C00083E792E007C01E9903C085E692E002C062
:1012D00087E592E0FADD06CEFC01128210821182CF
:1012E0000895FC018FB7F894928197FD0EC09F5F1F
:1012F0009283208191E0920F9083DF01A20FB11DB4
:1013000013966C93903809F410828FBF0895FC01F6
:101310009FB7F8948281882371F081508283818104
:1013200021E0280F2183DF01A80FB11D13968C91B6
:10133000203809F411829FBF0895FA013081882373
:1013400069F0E1E0F0E0022E01C0EE0F0A94EAF746
:10135000DB01A30FB11D9C919E2B9C93222319F0BE
:101360008FEF820F0BC081E0830F8C3010F4FA01F5
:101370008083FB01E80FF11D108287E090E0089563
:10138000CF93C82F5B9A882319F08091270102C060
:101390008091290120E1829FC0011124EDDC5B983E
:1013A000CC2319F08091260102C08091280120E110
:1013B000829FC0011124E0DCCF910895A9E0B0E044
:1013C000E4EEF9E00C944A2C4C01D62E422E1E2D50
:1013D000E42EF12C20912C0330912D038C2D8A0DBD
:1013E000A7014E5F5F4F049F800D1124992787FD51
:1013F00090952817390720F482E892E066DD9AC0BC
:10140000281B390B30932D0320932C03769A80915F
:10141000D001882341F01092D0018CE191E004D4F6
:10142000BB24B39401C0B12C80912603811101C06B
:1014300040DABBD980E1C89E900111243A83298308
:1014400080E1A89E900111243C832B832D2D30E058
:101450003E832D8366246394712C512CC11002C0ED
:10146000AA2041F05B9A89819A8186DC5B988B8106
:101470009C8182DC312C832D992787FD90952D81CD
:101480003E818217930724F480E07ADF3394F3CF10
:10149000DD2011F081E074DF90E0292E332427FC59
:1014A00030942E143F0424F097E0280C391C1CC003
:1014B00047E050E0280C391C9301042E01C0220F94
:1014C0000A94EAF7F101808182234F835887998734
:1014D00057DF4F8158854150510999854F3FFFEFA4
:1014E0005F0751F79F5FD9CF292F332727FD30950D
:1014F0004216530674F49301092E01C0220F0A9478
:10150000EAF7F1018081822399873ADF998591502A
:10151000EBCF812F36DC015009F0A0CF80912F0353
:10152000882311F054D902C086E3DDD8B1100E949F
:10153000461876982996E2E10C94662CADE0B0E06E
:10154000E4EAFAE00C944D2C7C01162F842F022F34
:101550006701C60ED11C462FB7017BD3D6018C93F1
:101560001F5F1D8619825E2C670127E06624639445
:10157000712C8C2D8519811788F537E0A32EB12C9D
:101580004701880E911CF3010A2C01C0EE0F0A944A
:10159000EAF7D4018C91AE01435F5F4FBE016F5FEC
:1015A0007F4F8E23CADE282FB1E0AB1AB10858F75F
:1015B000D6018D916D01082E82958025082E869585
:1015C000869580258F5F86958170AE01435F5F4F62
:1015D000BE016F5F7F4FB1DE282FCBCF222311F0EA
:1015E000215004C08D858F5F8D8727E089E180932E
:1015F00028018093290185E28093260180932701A9
:10160000A12CC12C9AE0E92E4D856CE0CE0101960B
:10161000D5DE2D96EFE00C94692CADE0B0E0E3E16F
:10162000FBE00C94592C162F242F4BE0BE016F5F6A
:101630007F4F01962D87CEDC2D85412F682FCE015F
:1016400001967CDF2D96E3E00C94752C43E066E078
:10165000E4CFAF92CF92EF920F93CF93DF93CDB7BA
:10166000DEB760970FB6F894DEBF0FBECDBF40E186
:10167000BE016F5F7F4F0196ADDC69814A810B81AE
:101680008C81809329018D81809328018E818093A4
:1016900027018F8180932601E02EE2945FE0E5220E
:1016A0000F70242F2F7042954F70A12CC12CCE01AA
:1016B000089684DE60960FB6F894DEBF0FBECDBFED
:1016C000DF91CF910F91EF90CF90AF900895A9E166
:1016D000B0E0EDE6FBE00C94522C4BE0BE016F5FF6
:1016E0007F4F019677DC182F893009F05CC099E1B3
:1016F00090932801909329019093270182E380938E
:10170000260169E0CE010196AED2E1E0F0E0EC0FF7
:10171000FD1FE10FF11D8083198E1D86CE010196FC
:101720007C016E019BE0C90ED11C27E0AA24A39482
:10173000B12CEC14FD0429F100E010E0F501002EBD
:1017400001C0EE0F0A94EAF7D7018C91AE01475E13
:101750005F4FBE01635F7F4F8E23EFDD282F0F5F4A
:101760001F4F0830110551F7AE01475E5F4FBE01B4
:10177000635F7F4F81E0E1DD282FBFEFEB1AFB0AAB
:10178000D8CF222311F0215004C0898D8F5F898F1B
:1017900027E0A12CC12C6AE0E62E03E0498D6CE025
:1017A000CE010D960BDE6996EAE00C946E2CA9E151
:1017B000B0E0EDEDFBE00C94512C4BE09E012F5F6F
:1017C0003F4F7901B901019605DC182F85E380931D
:1017D000290196E190932801909327018093260197
:1017E000612FC7014CD2F701E10FF11D80839924CD
:1017F0009394910E198E1D86870127E0AA24A39445
:10180000B12C802F8E19891508F04AC0C12CD12C1B
:10181000F5010C2C01C0EE0F0A94EAF7D8018C9167
:10182000AE01475E5F4FBE01635F7F4F8E2385DD54
:10183000282FBFEFCB1ADB0A34E0C316D10441F7DF
:10184000AE01475E5F4FBE01635F7F4F81E075DD94
:10185000282FF4E0CF2ED12CF5010C2C01C0EE0F77
:101860000A94EAF7D8018C91AE01475E5F4FBE0142
:10187000635F7F4F8E2361DD282FBFEFCB1ADB0A1A
:1018800038E0C316D10441F7AE01475E5F4FBE0199
:10189000635F7F4F81E051DD282F0F5F1F4FB1CF76
:1018A000A12CC12CEAE0EE2E03E0498D6AE0CE01C6
:1018B0000D9684DD6996EBE00C946D2CAF92CF927F
:1018C000EF920F93CF93DF9300D000D0CDB7DEB768
:1018D00043E0BE016F5F7F4F01967CDB8AE6809319
:1018E000290194E29093280191E29093270180933B
:1018F000260180E88C83A12CC12CBFE0EB2E03E0F5
:1019000026E043E060E0CE01019658DD0F900F9095
:101910000F900F90DF91CF910F91EF90CF90AF90FC
:101920000895AF92CF92EF920F93CF93DF93CDB7FD
:10193000DEB72C970FB6F894DEBF0FBECDBF4BE0DD
:10194000BE016F5F7F4F029645DB8530C1F48EE3A9
:10195000809329018CE18093280181E28093270103
:101960008AE38093260105E2A02E8AEFC82EE12C9F
:1019700005E024E044E068E0CE0101961FDD2C96EE
:101980000FB6F894DEBF0FBECDBFDF91CF910F91A0
:10199000EF90CF90AF9008958F929F92AF92BF92A9
:1019A000DF92EF92FF920F931F93CF93DF931092EA
:1019B000450110925A01FC012181220F220F220FB2
:1019C0003381231B57E0520F1092460110E070E064
:1019D00038E0D32ED20EFF24F39447E007E0E12C49
:1019E000C7E0D0E0A1E0B0E0FD1409F47FC0FC0145
:1019F000EE0DF11D248130E0002E02C035952795B3
:101A00000A94E2F721703327E22F002311F00150EE
:101A100002C0E39407E06B3471F4433009F04AC02C
:101A2000111107C0E1115FC01092450170935A0176
:101A300074C010E041C04F3F31F56634A9F4E72F80
:101A4000F0E0EA5BFE4FE0810E2EE295E0250E2EDF
:101A5000E695E695E025EF5FE1FB882480F8912C80
:101A60008216930641F004C0653429F4E11103C0E5
:101A700010934501DBCF7F5FE72FF0E0EA5BFE4F7D
:101A8000108247E031C0EE2361F1663471F4E72F34
:101A9000F0E0EA5BFE4FA0809D01042E01C0220F02
:101AA0000A94EAF7A22AA0821CC0653439F06B348C
:101AB000C1F404C04F3FD1F2EE2399F0E72FF0E0DC
:101AC000EA5BFE4F9E01241B310947FD33955D0102
:101AD00002C0AA0CBB1C2A95E2F795013081322B7B
:101AE0003083415001C011E0F3947ECF1093450143
:101AF00070935A015F1588F4653431F44F3F21F437
:101B00007F5F70935A0104C0809145018111F8CF25
:101B100081E090915A01911101C080E0DF91CF9155
:101B20001F910F91FF90EF90DF90BF90AF909F902B
:101B30008F90089510926F00E0915D018CE1E89F15
:101B4000F0011124E25AFE4F108280912E038D7F06
:101B500080932E030895FC012181243108F0EACFFF
:101B60003381662381F081E090E0032E01C0880F6D
:101B70000A94EAF7DF01A20FB11D14969C91149705
:101B8000982B14969C93332319F031503383089586
:101B900087E083832F5F2183E20FF11D1482089574
:101BA000DC011196EC911197F0E050E02C91CF01FF
:101BB000841B950B0B964797A0F430E070E0C901A9
:101BC000861B970B0B96479760F42E0F3F1F640FF1
:101BD000751F261B370B255F3F4F81E027313105ED
:101BE00008F080E00895539A5B985298E9E6F0E097
:101BF00080818061808382EC91E090932D038093BB
:101C00002C0310927A01109296011092B201109258
:101C10002603089580912F03882321F00E94590400
:101C20000C94E7030C945004FC01218121110BC09A
:101C300080912F03CBD940E265E080912C039091F5
:101C40002D0354D94FC941E06FE273E00196C2D928
:101C5000E1CF442339F04150FB01E40FF11D9081A5
:101C6000890FF7CF089520E0662339F06150FC0119
:101C7000E60FF11D30812327F7CF822F0895A09121
:101C8000450140E035E020E0662399F06150FC0119
:101C9000E60FF11D5081752F72957F702727370F42
:101CA000AA2311F0442319F05F702527350F4F5FE9
:101CB000EBCF320F40E1349FC0011124822B0895F5
:101CC000FC0132812381A081B181A30FB11D8C91D0
:101CD00090E0022E02C0959587950A94E2F78170F4
:101CE00099274FEF420F4383211104C03F5F328396
:101CF00027E023830895A2E0B0E0E1E8FEE00C9441
:101D0000522C7C01A12CB12CD12CCC24C394062FB5
:101D100010E001501109A616F0F4C7014A83698347
:101D2000CFDF4A816981882391F0442349F09801EB
:101D30002A193B098C2D01C0880F2A95EAF706C0A5
:101D40008C2D0A2C01C0880F0A94EAF7D82A8FEF4D
:101D5000A81AB80AE0CF8D2D2296EAE00C946E2CDA
:101D6000A4E0B0E0E6EBFEE00C94512C1B8227E0EF
:101D70002C839C012C5F3F4F3A83298310925A0198
:101D8000FC012181338187E090E0831B9109F8E019
:101D90002F9F800D911D1124853491050CF44EC0A8
:101DA000B12CA0905A01F5E0FA1558F10A2D10E077
:101DB00040E068E0CE0101969EDF0A5B1E4FF8010D
:101DC0008083982E092C92949024092C96949694B2
:101DD0009024CE01019674DF939491FACC24C0F83C
:101DE000D12C90E0C816D90649F5CE01019668DFDE
:101DF000811124C0F8018081B826A394A0925A01D1
:101E0000D0CF40E068E0CE01019675DF082F182F93
:101E1000012E12951025012E169516951025CE012E
:101E200001964EDF1F5F11FBEE24E0F8F12C282F06
:101E300030E0E216F30611F481E0B01280E024965F
:101E4000EBE00C946D2CA5E0B0E0E9E2FFE00C942F
:101E5000552CFC011B8287E08C83CF0104969A836A
:101E600089838081853009F051C02181338187E0E9
:101E700090E0831B910938E0239F800D911D112470
:101E80008039910509F042C010925A010FE010EF1D
:101E900029E880915A01E82EF12CDD24D394D80E44
:101EA00041E068E08F3088F4CE0101962D8323DF76
:101EB000080F111DF701EA5BFE4F2D8128272083B3
:101EC00024E2280FD0925A01E4CFCE01019613DF0D
:101ED000080F111DD0925A01F701EA5BFE4F809561
:101EE000808341E068E0CE01019605DF90E0982F05
:101EF0008827081B190B41E068E0CE010196FBDE44
:101F0000282F30E081E00217130709F080E02596C2
:101F1000E7E00C94712CA4E0B0E0E1E9FFE00C9460
:101F2000572C1B8227E02C839C012C5F3F4F3A8368
:101F30002983FC0121812430A1F58381813089F539
:101F400010925A0180915A01082F10E0FF24F39457
:101F5000F80E41E0843098F4811106C067E0CE01AC
:101F60000196C9DE806804C068E0CE010196C3DE38
:101F7000F801EA5BFE4F8083F0925A01E3CF67E0FD
:101F8000CE010196B8DEF801EA5BFE4F880F808330
:101F9000F0925A019091460192959F7081E09A309B
:101FA00009F080E02496E5E00C94732CCF93DF9346
:101FB000FC0181818330E9F483818730D1F4808111
:101FC0008830B9F410925A0120E0822F90E0DC01B1
:101FD000AA5BBE4FEF01C80FD91F8C818C9381E0A3
:101FE000820F833010F4282FF0CF80935A0181E0C4
:101FF00001C080E0DF91CF910895FC019081809134
:102000002E03993611F0933751F4982F9370913035
:1020100011F4826006C080FF07C08B7F03C080FD83
:1020200003C0846080932E030895A1E0B0E0EBE14B
:10203000F0E10C94562C198280912A018823B9F181
:1020400080912F0387FF17C084E30E945A038058B2
:10205000803458F0803C58F490E08055910953E06A
:10206000959587955A95E1F703C080E001C08FE010
:102070008F590E94260780912F0383FF16C082E7A5
:102080000E94260780912F0384FF04C080912B01BA
:102090000E94260786E60E94260780912F0384FF70
:1020A00004C080912A010E94260710922A01809183
:1020B0005B01882309F451C2769A00915C012CE1FE
:1020C000029F80011124025A1E4F8981811106C08E
:1020D000C8016CDF882311F083E78983898181112E
:1020E00006C0C801B0DE882311F083E589838981A9
:1020F000811139C066E4C8014FDC8823A1F1F0905A
:102100005A01FA94F0925A014F2D66E471E086E08C
:10211000A0DDEF2DF0E0EA5BFE4FE0808E1105C000
:1021200093E09F1510F486E41BC0282F30E02F5F4A
:102130003F4F6E2D70E02617370739F423E02F1537
:1021400020F496E4998380830EC04F2D66E471E0FD
:102150008CE07FDD8E1106C083E08F1518F484E5D6
:10216000898301C019828981811116C065E4C80183
:1021700013DC882389F080915A01815080935A01A1
:10218000893051F469E086E491E06DDD90914F0172
:10219000891302C085E489838981811106C0C80141
:1021A000DFDD882311F088E489838981811106C0ED
:1021B000C801B1DE882311F084E789838981811108
:1021C00033C0F801438D60912B01C8014A96E8DCC9
:1021D000682FC801C0DC6BE4C801DEDB8823B1F0E6
:1021E000F0905A01FA94F0925A016F2D86E491E032
:1021F00046DDEF2DF0E090914501E91BF109EA5B26
:10220000FE4F9081891302C08BE4898389818111FB
:102210000BC0F801838191E0980F9383873021F4FC
:102220001382818181508183898181112DC0F801C0
:102230008181843049F58381843031F54EE16CE34E
:10224000C8014896ADDC8823F9F04EE160912B017E
:10225000C8014A96A5DC682FC8017DDC20E0822FEA
:1022600090E0FC01EA5BFE4FD801A80FB91F14965D
:102270008C91808381E0820F853010F4282FEFCF7E
:1022800080935A0182E589833981332309F4D9C0C7
:1022900020912F0320FFD5C080912E038E7F8B7F4E
:1022A00080932E0321FD64C050914401F0905A01A7
:1022B0005F113DC040E04517C0F4842F90E061E01D
:1022C000640FFC01E05DFE4FDC01AA5BBE4F708134
:1022D0008C91781741F04093440180912E038D7FBB
:1022E00080932E0304C0462FE6CF4093440145134C
:1022F0001EC0409128035091290360912A037091D8
:102300002B0380912C0190912D01A0912E01B09171
:102310002F01481B590B6A0B7B0B46325105610597
:10232000710528F480912E03816080932E0340E094
:102330004F1560F4842F90E0FC01E05DFE4FDC015E
:10234000AA5BBE4F8C9180834F5FF2CF40934401D4
:102350008091280390912903A0912A03B0912B0327
:1023600080932C0190932D01A0932E01B0932F0107
:102370003435E9F426FD1BC080915A018530B8F050
:10238000809148018B3471F0893661F09DEA980F95
:10239000923040F08D57823028F08091490180774B
:1023A000803729F480912E03816080932E03B80139
:1023B000CE01019622DE8981843569F49091BE03B5
:1023C000992349F090917304911105C090912E03C7
:1023D0009B7F90932E0390912E0392FF32C00E9418
:1023E000260780914501882329F080915A01815068
:1023F00080935A01F12CE0915A01FE1648F4EF2D1A
:10240000F0E0EA5BFE4F80810E94E607F394F3CF91
:1024100080914501882351F0F0E0EA5BFE4F808116
:102420008F7040E361E090E00E94AC0780912F0341
:1024300085FF05C084E30E945A030E94E6070E94BC
:10244000720780912F0382FF6FC080E70E942607EA
:10245000F801808140E262E090E00E947607F80196
:10246000808D40E265E0F0E18F9FC00111240E9461
:102470007607F801818D40E265E0F0E18F9FC001B1
:1024800011240E947607F801828D40E265E0F0E1B8
:102490008F9FC00111240E947607F801838D40E2CE
:1024A00065E0F0E18F9FC00111240E947607F801DA
:1024B000828140E263E090E00E947607F80181812A
:1024C00040E263E090E00E947607F801238140E259
:1024D00062E087E090E0821B91090E94760780E22B
:1024E0000E94260780912F0385FF08C084E30E9485
:1024F0005A030E94E60780E20E942607F8018381C2
:10250000873019F081818F5F8183F12CF8018181FF
:10251000F81640F4F801EF0DF11D84810E94E607E2
:10252000F394F4CF0E947207F801108280915B014E
:10253000815080935B0180915C018F5F843019F042
:1025400080935C0102C010925C0176988981843589
:1025500021F486E491E00E94A5262196E6E00C9401
:10256000722C1F920F920FB60F9211242F933F934C
:102570004F935F936F937F938F939F93AF93BF938B
:10258000EF93FF9310926F0080912F0383FF03C09E
:102590008EE20E94260780915D019CE1899FF001F7
:1025A0001124E25AFE4F9081933018F091819230BD
:1025B00010F4C0DA18C090915B01933049F4809117
:1025C0002F0382FFF6CF89E892E00E946507F1CFE2
:1025D0009F5F90935B018F5F843019F080935D0162
:1025E00002C010925D01FF91EF91BF91AF919F9159
:1025F0008F917F916F915F914F913F912F910F90AC
:102600000FBE0F901F9018959BED980F973150F4C7
:1026100096EF960F9D3130F491E0681708F090E046
:10262000892F089580E008951F920F920FB60F92A0
:102630001124FF920F931F932F933F934F935F9318
:102640006F937F938F939F93AF93BF93CF93DF93BA
:10265000EF93FF938091B603823021F483E080935F
:10266000B6035BC1009184001091850064E016956B
:1026700007956A95E1F7C0915D019CE1C99FE00172
:102680001124C25ADE4F9881943031F40E3208F48E
:1026900044C10F3448F0B6C0953031F4073108F426
:1026A0003CC1083208F0AEC04A990DC09450923037
:1026B00038F461E0CE014FDA109285001092840068
:1026C00000932B012AC180912B01081B00932A0142
:1026D00010928500109284009881983071F42A81BC
:1026E00021110BC021E02A83888F8A8F098F0B3B31
:1026F00010F4000F01C006950B8F9450923020F417
:1027000060E0CE0128DA09C182E086BBF880F110D2
:1027100011C090912B01953608F0FFC080912A01DD
:10272000853608F0FAC0988F898F81E08A8382E02D
:102730008883F3C010912A0182E0F81273C00091DF
:102740002B01412F602FCE0148962ADA6A81882317
:10275000F9F0488D50E09A01220F331F240F351FE6
:10276000200F311D3595279535952795288F298D73
:1027700030E0C901880F991F820F931F810F911DAF
:102780009595879595958795898F6F5F6A83C5C065
:10279000643008F445C020EA3FE03093890020937C
:1027A00088008A818C3050F0888D298D30E0280F88
:1027B000311D2536310524F084E027C08A3088F0A9
:1027C000888D298D30E0280F311D253231054CF4DC
:1027D00085E0888328EE33E03093890020938800D9
:1027E00015C080913103882379F0612F802F0CDF91
:1027F000882351F0688D898D07DF882329F081E0D7
:102800008093B60397D989C083E088830A8F1B8F92
:10281000198287E08B831C8282E080936F007DC0E9
:10282000188277CF98E0F91225C081E9810F8D31A8
:1028300078F460E0CE018FD9288D30E0C901880F8F
:10284000991F820F931F20912B01820F911D4EC063
:10285000173E08F462C061E0CE017DD92A8D30E0D8
:10286000C901880F991F820F931F20912B01820F9E
:10287000911D15C000912B01412F602FCE014A966A
:102880008FD9882301F161E0CE0165D92A8D30E02E
:10289000C901880F991F820F931F800F911D959575
:1028A0008795959587958A8F2B8D30E0C901880F84
:1028B000991F820F931F810F911D9595879595956F
:1028C00087958B8F2AC0412F602FCE01489668D9FB
:1028D000882301F160E0CE013ED9288D30E0C901A6
:1028E000880F991F820F931F800F911D95958795D3
:1028F00095958795888F298D30E0C901880F991F9C
:10290000820F931F810F911D9595879595958795BA
:10291000898F03C087E0F81275CFFF91EF91DF91A7
:10292000CF91BF91AF919F918F917F916F915F9167
:102930004F913F912F911F910F91FF900F900FBEDC
:102940000F901F901895E0915D018CE1E89FF001D8
:102950001124E25AFE4F8081811107C081E09091DD
:10296000A2049F3F19F480E0089581E0089580E675
:1029700090E00E944A088093310381E690E00E9433
:102980004A088093BE03882321F081E280932F03BD
:1029900041D91092B70308955B9A0C94BC065B98DA
:1029A0000C94BC06A7E0B0E0E8EDF4E10C94552CE3
:1029B0003091350390E0E92FF0E0E954FC4F20819D
:1029C000222309F471C0321711F09F5FF4CF95E70D
:1029D0009983882399F0BE016E5F7F4F8091BE037B
:1029E0000E943208BE016C5F7F4F809131030E94CC
:1029F000320885E58E8386E0D82E02C0DD24D3948C
:102A00000E9459040E94D50316E080E891E0C4DFDB
:102A100080E093E0C4DF1150C1F780E093E0BCDFB9
:102A200080E891E0BCDF80E891E0B6DF5B9887E367
:102A300090E00E94770383E00E94C10628988FE708
:102A40000E94E602809134038D0D0E94E602CE01C1
:102A500001967C018C01F80181918F010E94E602B0
:102A6000802F8E198D15B8F380913403882339F0A7
:102A700082E393E00E9487090E94E602F5CF289A3C
:102A80000E94D50382E393E00E946C0915E18AE37A
:102A90000E945A038F7731F0115021F081E00E949B
:102AA000C106F5CFB7D807C0992309F490CF82E3C8
:102AB00093E00E946C092796E7E00C94712CCF9369
:102AC000DF93EC01898181110BC0809131030E9459
:102AD000E6078091BE030E94E6070E9472073EC08F
:102AE000863681F42296A7EBB3E0E0E08991882353
:102AF00021F08D93EF5FE530C9F7F0E0E954FC4F2A
:102B000010822CC08936D9F441E061E373E0CE0134
:102B100002960E94EA076091310380E690E00E94ED
:102B2000450841E06EEB73E0CE0104960E94EA078F
:102B30006091BE0381E690E00E9445080FC082E3E9
:102B400093E00E946C0921966991662329F082E343
:102B500093E00E947109F8CF80E024DFDF91CF91EC
:102B60000895A1E0B0E0E7EBF5E10C94542C8091DE
:102B7000B603882309F485C0C0902803D0902903A8
:102B8000E0902A03F0902B03833009F060C08FE3BC
:102B90000E945A03182F8630C8F086E395E00E9401
:102BA0006C0928988FEF0E94E60280E00E94E602FE
:102BB000082F115049F080E00E94E602682F86E35A
:102BC00095E00E947109F5CF289A01C000E022D853
:102BD0001092B603053709F054C041E0BE016F5FA3
:102BE0007F4F89E395E00E94EA07019759F59981A3
:102BF00080913103981326C080913D05853571F48D
:102C000080913805882339F086E395E00E94870992
:102C10000E942607F5CF0E94720733C080913805C5
:102C200084508093380584E0809337056AE086E31A
:102C300095E00E947109E0912403F091250388E05A
:102C400009951FC086E395E00E946C091AC0823086
:102C500059F4809130039C2D981B983090F00E947D
:102C60000A0E1092B6030DC0813059F487E390E04C
:102C70000E9477030E94E70382E08093B603C0922C
:102C800030032196E8E00C94702C5DDE882319F067
:102C900083E08093BD038091BD0381508093BD0389
:102CA000882321F083E08093B503089581E07ACEF4
:102CB000CF93DF93EA98209A289A8EE190E00E94C1
:102CC000BC0628988EE190E00E94BC06289A8DE20E
:102CD00090E00E94BC0680E30E94730384E690E0CB
:102CE0000E94BC06C0EBD2E0FE0131966491FE0169
:102CF00084910E9461032296F2E0C23EDF07A1F7B1
:102D00008091CF01811107C083E30E94730384E0A7
:102D10000E94C1060FC0CAE9D2E0FE01319664915B
:102D2000FE0184910E9461032296F2E0C03BDF071E
:102D3000A1F7EACF84E30E94730385E30E945A035C
:102D40008D30C1F7DF91CF910895A2E3B0E0EBEAB7
:102D5000F6E10C94582C8091CE01882309F4A1C08F
:102D60004A9B8AC08FE30E945A038F7789838233FC
:102D700068F08AE30E94730386E30E9473038DE385
:102D80000E94730384E30E9473038BC028988FEF23
:102D90000E94E60210E08981181760F480E00E942A
:102DA000E602E2E0F0E0EC0FFD1FE10FF11D808391
:102DB0001F5FF1CF80E00E94E602082F80E00E94B2
:102DC000E602289A84E30E94730385E30E945A0373
:102DD0008D30C1F72A8196E792279A8392E0898104
:102DE000E92FF0E0981768F441E050E04C0F5D1FC8
:102DF000E40FF51F30812452232720839F5F232F68
:102E0000EECF81E090E08C0F9D1FE80FF91F9081BD
:102E10008B819827908380912F0384FF12C081E6D5
:102E20000E94260710E08981811730F1E1E0F0E08F
:102E3000EC0FFD1FE10FF11D80810E9426071F5F2F
:102E4000F2CF81E40E94260710E08981811758F0B3
:102E5000E1E0F0E0EC0FFD1FE10FF11D80810E9429
:102E6000E6071F5FF2CF80912F0385FF03C0802FFD
:102E70000E94E6070E94720785E30E945A03813090
:102E800029F0813161F48AE30E94730386E30E9492
:102E900073038DE30E94730384E30E9473030E9413
:102EA000A004E296E4E00C94742C8F929F92AF926F
:102EB000BF92DF92EF92FF920F931F93CF93DF9316
:102EC000CDB7DEB7EA970FB6F894DEBF0FBECDBF21
:102ED00041E38E010F5F1F4FB80101960E94EA0780
:102EE0007C0199270197298130E08217930709F027
:102EF000A3C08091CE01811104C0DADE83E00E947C
:102F0000C106DB808A8196E789278A8322E039819E
:102F1000822F90E0F801E80FF91F231750F4DE012B
:102F2000A80FB91F8C9184529081892780832F5FCD
:102F3000EECF80818D258083CE01C7960E94C30588
:102F400085E30E94730385E30E945A03833181F174
:102F5000CE01C3960E94C3054BA95CA96DA97EA9A9
:102F60008FA998ADA9ADBAAD84179507A607B70785
:102F700060F44A015B01881A990AAA0ABB0A2DEB80
:102F800082169104A104B10470F4481759076A0726
:102F90007B0770F484549F4FAF4FBF4F8417950742
:102FA000A607B70728F480E992E00E94650727C0CA
:102FB00085E30E945A03833119F6D4FE08C088E7DE
:102FC0000E94C10688E70E94C10688E701C08AE026
:102FD0000E94C10628988FE70E94E60258018A2DB8
:102FE000801B8E1530F4F50181915F010E94E6028D
:102FF000F6CF289A85E30E945A038331D9F385E3FB
:103000000E945A03863149F48BE30E94730386E3DE
:103010000E9473038DE30E9473038091CE01882385
:1030200049F084E30E94730385E30E945A038D30C4
:10303000C1F702C00E940A0EEA960FB6F894DEBFEE
:103040000FBECDBFDF91CF911F910F91FF90EF90F9
:10305000DF90BF90AF909F908F900895FC012181E9
:10306000223731F0223559F481E08093CF0102C03C
:103070001092CF011DDE81E08093CE0108952337A9
:1030800011F4019612CF1092CE010895CF93DF93E1
:10309000EA98209A289A8EE190E00E94BC0628982F
:1030A0008EE190E00E94BC06289A8DE290E00E949A
:1030B000BC0680E30E94730384E690E00E94BC0695
:1030C000CBEFD2E0FE018491813440F083E30E9493
:1030D000730384E00E94C106CFEF0DC0FE0131965C
:1030E0006491FE0184910E9461032296F3E0C7334C
:1030F000DF0741F7EBCF84E30E9473038AE090E09F
:103100000E94BC06C150B9F781E08093D001DF91E5
:10311000CF910895EF92FF920F931F93CF93DF9378
:10312000EC018B01F880F3946115710519F0E4E668
:10313000F0E002C0E0E0F0E028E0F29EC0011124DF
:103140006AE070E00E94312C9B012E0F3F1FC901E5
:10315000AA2797FDA095BA2FE0912C03F0912D039B
:10316000AF0160E070E0481759076A077B0728F451
:103170008BEE92E00E946507D9C0E21BF30BF0933F
:103180002D03E0932C038091D001811101C07EDFDB
:1031900085E30E945A038D3071F08AE50E9426076C
:1031A00085E40E94260782E50E94260782E50E94A8
:1031B000260781E34CC08091D1019091D201A0916A
:1031C000D301B091D401892B8A2B8B2B51F50E940E
:1031D000D50385E30E945A03833109F443C08AE58D
:1031E0000E94260785E40E94260782E50E942607A2
:1031F00082E50E94260782E32AC0809128039091ED
:103200002903A0912A03B0912B034F5F5F4F6F4FAB
:103210007F4F84179507A607B707C9F681E00E947C
:10322000C1068091280390912903A0912A03B091AF
:103230002B034091D1015091D2016091D301709143
:10324000D40184179507A607B707B9F6E7CF0E9400
:10325000260785E30E945A030E94E6070E94720730
:1032600015DF64C0012B41F428988FE70E94E60225
:10327000EC2E0C2F1D2F0BC00AE010E084E60E94FC
:10328000C1060150110901151105C1F7EDCF802FBD
:103290008E198F1530F4F80181918F010E94E6029A
:1032A000F6CF289AC8EC85E30E945A038D30E9F4E2
:1032B00085E30E945A038D3019F18AE50E942607A2
:1032C00085E40E94260782E50E94260782E50E9487
:1032D000260783E30E94260785E30E945A030E9483
:1032E000E6070E947207D2DE0BC085E30E945A03F4
:1032F0008331F1F681E00E94C106C150A1F6D8CF1A
:103300008091D001811102C00E940A0E8091280391
:1033100090912903A0912A03B0912B038093D101AE
:103320009093D201A093D301B093D401CDB7DEB76F
:10333000E6E00C94722CACE0B0E0E1EAF9E10C9428
:10334000592CFC018BE0898381818A831B8282E076
:103350008C8387818D8380858E8381858F83848113
:1033600088878581898786818A871B861C8684E178
:103370000E94C10660E070E0CE010196CBDE8AE5D6
:103380000E94260710E0812F90E0298130E0281765
:1033900039075CF0E1E0F0E0EC0FFD1FE80FF91FEA
:1033A00080810E94E6071F5FEECF80912F0385FF8B
:1033B00003C080E00E94E6070E9472072C96E3E0BB
:1033C0000C94752CCF93DF93EC018091D80181117F
:1033D00008C09091D901911104C09091DA0199230C
:1033E000A9F09B81903319F09F7E903479F49F81EE
:1033F00098130CC098858091D901981307C09985BE
:103400008091DA01981302C0CE0195DF8091D50139
:10341000811108C09091D601911104C09091D701FB
:103420009923A9F098819B3091F49B81903479F491
:103430009F8198130CC098858091D601981307C07E
:1034400099858091D701981302C0CE0174DFDF9176
:10345000CF910895AEE1B0E0E0E3FAE10C94582C8E
:103460008091D001882309F469C04A9B59C08FE339
:103470000E945A038F778E3108F08DE18983289856
:103480008FEF0E94E60210E08981181760F480E057
:103490000E94E602E2E0F0E0EC0FFD1FE10FF11DFB
:1034A00080831F5FF1CF80E00E94E602082F80E05A
:1034B0000E94E602289ACE01019684DF80912F03B4
:1034C00084FF12C08AE70E94260710E089818117D5
:1034D000A8F1E1E0F0E0EC0FFD1FE10FF11D8081AC
:1034E0000E9426071F5FF2CF8AE50E94260710E0A0
:1034F0008981811758F0E1E0F0E0EC0FFD1FE10F4A
:10350000F11D80810E94E6071F5FF2CF80912F039B
:1035100085FF03C0802F0E94E6070E9472070EC03D
:1035200085E30E945A03813149F48AE30E947303C0
:1035300086E30E94730384E30E9473036E96E4E0C3
:103540000C94742CAEE1B0E0E8EAFAE10C94582C4B
:103550008C01FC018181823711F498DD36C08337FC
:1035600011F0863601F54DE1BE016F5F7F4FC80156
:1035700002960E94EA0799270197298130E0821775
:10358000930729F082EE92E00E9465071EC061E079
:1035900070E0F8018181833711F060E070E0CE01C6
:1035A0000196B8DD12C0813621F443E068ED71E088
:1035B00005C0873741F443E065ED71E0C80102962C
:1035C0000E94EA0702C01092D0016E96E4E00C94CB
:1035D000742C0E94E703EA980895CF93DF93209A12
:1035E000289A8EE190E00E94BC0628988EE190E037
:1035F0000E94BC06289A8DE290E00E94BC0680E3FF
:103600000E94730384E690E00E94BC0680916804E7
:103610008933C1F4CBE9D3E0FE0131966491FE0118
:1036200084910E9461032296F3E0CD3CDF07A1F76D
:1036300083E30E94730384E00E94C106CADFDF9126
:10364000CF910895843379F4C9E6D3E0FE01319631
:103650006491FE0184910E9461032296F3E0CB39CC
:10366000DF07A1F7E5CF813319F7C7E3D3E0FE0108
:1036700031966491FE0184910E9461032296F3E0E9
:10368000C936DF07A1F7D4CFFC01908180916D048A
:10369000981318C0918180916E04981313C0928181
:1036A00080916F0498130EC09381809170049813D9
:1036B00009C0808590917104891302C081E008954A
:1036C0008F3FE1F380E008952FEF662339F06150DA
:1036D000FC01E60FF11D30812327F7CF822F0895DB
:1036E000DC01FC018FE09DE170E09F012A1B3B0B98
:1036F0002617370704F52191492F552742279A01AC
:10370000329522952F7023273F70232724273527B2
:10371000982F882782279327A901542F4427529551
:10372000507F8427952745E0220F331F4A95E1F704
:1037300082279327DACF0895A0E0B0E0E2EAFBE128
:103740000C94552CEC01E62E769A8091680489330E
:1037500039F464E182E10E9461036E2D660F6D5EB3
:1037600086E00E9461030E94D50328988FE70E949B
:10377000E60280916804893321F0FC2E0C2F1D2F66
:1037800050C01FE086E60E94E6021150D9F78AEA8F
:103790000E94E60285E50E94E602DC2E0C2F1D2F1A
:1037A000802F8D198E15B0F5F801F1908F01F7FE7D
:1037B00002C080E801C080E4F6FE02C090E201C0D1
:1037C00090E1980FF5FE02C088E001C084E0890F07
:1037D000F4FE02C092E001C091E0890F0E94E6026F
:1037E000F3FE02C080E801C080E4F2FE02C090E275
:1037F00001C090E1980FF1FE02C088E001C084E0B2
:10380000890FF0FE02C092E001C091E0890F0E9492
:10381000E602C6CF80E00E94E60280E00E94E60257
:103820000BC0802F8F198E1538F4F80181918F010C
:1038300080950E94E602F5CF289A85E30E945A03FC
:103840008331D9F36FEF86E00E94610380916804B1
:10385000893321F46EE182E10E946103BADE769839
:103860008D8186FF2CC08091280390912903A0911F
:103870002A03B0912B030696A11DB11D8093690404
:1038800090936A04A0936B04B0936C048091DB0165
:103890008F5F8093DB01823060F08AE70E94260709
:1038A00082E70E9426078091DB010E94E6070E94C2
:1038B00072078091DB01833010F01092DB01CDB7ED
:1038C000DEB7E7E00C94712CA9EAB0E0EAE6FCE18F
:1038D0000C94502C8091DC01882309F424C1809140
:1038E000DB018823D9F0409128035091290360918E
:1038F0002A0370912B038091690490916A04A0912E
:103900006B04B0916C0484179507A607B70730F4D1
:10391000609167048FEB93E00FDF05C14A9B03C101
:10392000769A28988FEF0E94E6028E010F5F1F4F54
:103930006E0189E0C80ED11C780180E00E94E60289
:10394000F701808390916804993311F0809580830A
:10395000FFEFEF1AFF0AEC14FD0479F7289AB884F8
:1039600087EF8B0D803A10F038DEDDC06B2D86E0DE
:103970000E94610380916804813331F0843341F403
:10398000ACEDEA2EF12C08C0FAE5EF2EF12C04C0C4
:10399000E8E9EE2EE3E0FE2E60EA962E78E0A72E10
:1039A000CB2CD12CC7010E94BC068BE30E945A038A
:1039B000882E882331F1282F30E02A0D311DC216C0
:1039C000D30694F228988FEF0E94E6028A0CA8147E
:1039D00071F080E00E94E60290916804993309F04A
:1039E0008095F801EA0DF11D8083A394F0CF289A09
:1039F000AB1438F080916804EB2CF12C8133D9F4AE
:103A000003C09A9479F6F6CFFE013197EE0DFF1DB3
:103A1000C080D12CDC2CCC24FE01EE0DFF1D80815A
:103A2000C80ED11C6EEF6B0DC8015ADE21E08C155B
:103A30009D0559F40BC06FEF6B0DC80145DEFE010B
:103A4000EE0DFF1D21E09081891320E08091DC01C3
:103A5000823771F4C801C755DF4F2883C95AD04057
:103A600013DEC755DF4F2881C95AD040882399F00B
:103A7000222391F08AE70E9426077801F7018191BD
:103A80007F010E94E6078E2D801B8B15B8F30E94E4
:103A9000720721E001C020E08091DC01823781F4CF
:103AA000222371F08E81982F9370933029F4909196
:103AB000DB0191111092DB0186FF02C087FF07C076
:103AC0006FEF86E00E94610384DD76982CC08AE067
:103AD0000E94C1068D818987809171048D8383E066
:103AE0008E8380916804813349F48BE0888769E094
:103AF000C801F6DD9A878B876BE007C08AE088876C
:103B000069E0C801E1DD8A876AE0C80115DE8AE75D
:103B10000E94260781E60E94260789850E94E60703
:103B20000E947207D2CFC755DF4FECE00C946C2C8B
:103B3000FC012181223711F02D3651F4FC018281E4
:103B4000811101C084E3809368042093DC0145CD9A
:103B5000233771F41092DB0148EA6FEB73E00296B1
:103B60000E94EA0780936704682F8FEB93E0E4CD0F
:103B7000293671F5FC012281222331F045E06DE602
:103B800074E002960C94EA078091DC010E942607FB
:103B9000809168040E94260780E20E942607809197
:103BA0006D040E94E60780916E040E94E6078091F2
:103BB0006F040E94E607809170040E94E60780E28D
:103BC0000E942607809171040E94E6070C947207F8
:103BD0001092DC010895CF93DF93EA98209A289AF7
:103BE0008EE190E00E94BC0628988EE190E00E9451
:103BF000BC06289A8DE290E00E94BC0680E30E94F9
:103C0000730384E690E00E94BC06289880E40E943A
:103C1000E602CDECD3E0FE0184910E94E6022196FB
:103C2000F3E0CA3DDF07B9F7809108010E94E60280
:103C3000809109010E94E60280910A010E94E60239
:103C4000C0E0D0E0FE01E352FC4F84910E94E60206
:103C50002196C931D105B1F7289A28988EE70E949C
:103C6000E6028BE290E0EC0121960E944A080E9455
:103C7000E602C333D10511F0CE01F5CF289A83E3D4
:103C80000E94730381E00E94C10681E080932603B5
:103C9000DF91CF9108956F927F928F929F92AF9212
:103CA000CF92EF92FF920F931F93CF93DF93EC018C
:103CB0008981843769F46FE071E0CE0102960E9439
:103CC000170840E260E080910F019091100112C04E
:103CD000833709F091C18A81823789F46BE071E002
:103CE000CE0103960E94170840E260E080910B012C
:103CF00090910C010E9476070E947207F2C1769A99
:103D00008091DF01811116C08091CE01882329F0B6
:103D100081E08093DE011092CE018091D001882352
:103D200029F081E08093DD011092D00154DF83E01F
:103D30000E94C10686E30E9473038AE30E94730314
:103D40008BE30E9473030E94D503FE0101900020C3
:103D5000E9F70E2F0C1B0250C12CFAE09F2E7E01BA
:103D600032E0E30EF11CA5E0AA2EB8E28B2E809182
:103D70000B0190910C012C2D332727FD309528172E
:103D8000390708F0FBC00132A1F45B9A80910F0162
:103D9000909110010E94BC065B9880910D0190915A
:103DA0000E01FC019E9EC0019F9E900D11240E9459
:103DB000BC06370111E010170CF0B7C0F301819178
:103DC0003F015B9A803309F046C0013201F58091D2
:103DD0000D0190910E010E94BC065B9880910D012F
:103DE00090910E010E94BC065B9A80910D0190910A
:103DF0000E010E94BC065B9880910D0190910E010E
:103E00009C01A29EC001A39E900D11248AC08091A6
:103E10000F01909110010E94BC065B9880910F01E8
:103E2000909110019C01220F331F820F931F0E945B
:103E3000BC065B9A80910F01909110010E94BC0614
:103E40005B9880910F01909110019C01220F331F0C
:103E5000820F931F66C0813329F5013291F480915E
:103E60000D0190910E010E94BC065B9880910D019E
:103E700090910E01FC01AE9EC001AF9E900D1124E9
:103E80001EC080910F01909110019C01220F331FE1
:103E9000820F931F0E94BC065B9880910F01909146
:103EA00010012CC00132D1F480910D0190910E01CE
:103EB0000E94BC065B9880910D0190910E010E94BA
:103EC000BC065B9A80910D0190910E010E94BC0688
:103ED0005B9880910D0190910E0123C080910F019C
:103EE000909110010E94BC065B9880910F01909107
:103EF00010019C01220F331F820F931F0E94BC06EA
:103F00005B9A80910F01909110019C01220F331F49
:103F1000820F931F0E94BC065B9880910F019091C5
:103F200010010E94BC061F5F46CF5B9A0132A1F4CC
:103F300080910D0190910E010E94BC065B988091CA
:103F40000D0190910E019C01829EC001839E900DF7
:103F500011240E94BC0610C080910F0190911001A5
:103F60000E94BC065B981FE180910F0190911001A7
:103F70000E94BC061150C1F7C394F9CE8091DF01B5
:103F8000882341F080912F0381110FC086E30E94A6
:103F9000730318C08091DE01882351F01092DE0176
:103FA0000E94581681E08093CE010E94E7030AC068
:103FB0008091DD01882321F01092DD0167D802C0D5
:103FC0000E940A0E769889E60E94260783E70E94DF
:103FD000260711E010170CF08FCEFE01E10FF11D46
:103FE00017FDFA958181803319F0813309F086E459
:103FF0000E9426071F5FEECF8237B9F48091CE0171
:10400000882329F081E08093DE011092CE01809117
:10401000D001882329F081E08093DD011092D00146
:10402000DADD81E08093DF015CC0863651F58A815C
:10403000803351F480E18093080180EB8093090183
:1040400081E780930A0107C043E068E071E0CE0198
:1040500002960E94EA0789E60E94260786E60E94E9
:1040600026078AE30E942607809108010E94E6073E
:10407000809109010E94E60780910A010E94E607EB
:104080003BCE883731F58091DE01882341F01092D4
:10409000DE010E94581681E08093CE0111C080910C
:1040A000DD01882329F01092DD010E9446180EC020
:1040B00082E090E00E94770380912F03882319F01B
:1040C0000E94E70303C086E30E9473031092DF019E
:1040D00008C0833631F46FE071E0CE0101960E9492
:1040E0001708DF91CF911F910F91FF90EF90CF9024
:1040F000AF909F908F907F906F900895A2E0B0E076
:10410000E4E8F0E20C944D2C7C01FC0181818337C2
:1041100009F09DC1198287E090E00E94812C8C01FA
:1041200041E0BE016F5F7F4FC70102960E94EA0720
:104130008981F801808341E0BE016F5F7F4FC70135
:1041400004960E94EA072981207FF801218341E03B
:10415000BE016F5F7F4FC70106962A830E94EA0760
:104160008981F801828341E0BE016F5F7F4FC70103
:1041700008960E94EA078981F801838341E0BE0125
:104180006F5F7F4FC7010A960E94EA078981F80195
:10419000868341E0BE016F5F7F4FC7010C960E948E
:1041A000EA078981F801858341E0BE016F5F7F4F97
:1041B000C7010E960E94EA078981F801848380E096
:1041C00090E02A814191342F32953F703427832724
:1041D0009F5F9730B9F78F70822BF801818387E05A
:1041E00090E00E94812C5C0187E0F801D5010190EC
:1041F0000D928A95E1F7D8011196C8010696F8014B
:104200003D91219123272083E817F907C9F7769A72
:104210008091E201811160C08091CE01882329F054
:1042200081E08093E1011092CE018091D00188233A
:1042300029F081E08093E0011092D001EA98209A61
:10424000289A8EE190E00E94BC0628988EE190E0CA
:104250000E94BC06289A8DE290E00E94BC0680E392
:104260000E94730384E690E00E94BC06289880E4D4
:104270000E94E60266EFE62E63E0F62EF7018491D7
:104280000E94E602FFEFEF1AFF0A2FE1E21624E098
:10429000F206A1F7289A28988EE70E94E6028BE2A0
:1042A00090E07C01EFEFEE1AFE0A0E944A080E949D
:1042B000E602F3E3EF16F10411F0C701F2CF289AFA
:1042C00083E30E94730381E00E94C10681E0809332
:1042D000260383E00E94C10686E30E9473038AE3FB
:1042E0000E9473038BE30E9473030E94D5035B9AC1
:1042F00087EC94E20E94BC065B9889E50E94C106A7
:1043000085E392E00E94BC06712C8091150190E03B
:10431000272D332727FD3095281739070CF057C074
:10432000711002C022E001C027E0F12C5B9A86EFF9
:1043300099E02A830E94BC065B9886EF99E00E9470
:10434000BC06F3942A81F2168CF35B9A8CEF92E10F
:104350000E94BC065B9880911101909112010E940D
:10436000BC066801612CF60181906F0148E0542E73
:1043700050E8E52EF12C912CC70188219921892B39
:1043800049F45B9A80911101909112010E94BC0640
:104390005B9808C05B9880911101909112010E9476
:1043A000BC065B9A80911101909112010E94BC069B
:1043B000F694E7945A9401F76394F7E06F12D3CF21
:1043C0005B9880E090E00E94BC0673949ECF809141
:1043D000E201882341F080912F0381110FC086E311
:1043E0000E94730319C08091E101882351F010925B
:1043F000E1010E94581681E08093CE010E94E703FC
:104400000BC08091E001882329F01092E0010E9406
:10441000461802C00E940A0E769889E50E94260777
:1044200083E70E9426077501D12CF70181917F0156
:104430000E94E607D394F7E0DF12F7CF0E947207DD
:10444000C5010E94192DC8010E94192D6FC0823725
:10445000A9F465E171E0C70102960E94170889E599
:104460000E94260782E70E9426078AE30E94260709
:104470008091150140E260E090E02CC0843779F52E
:10448000F7018281803339F488ED94E09093140130
:104490008093130106C063E171E0C70102960E9498
:1044A0001708809113019091140196958795909328
:1044B00012018093110189E50E94260784E70E947A
:1044C00026078AE30E94260740E266E080911301F6
:1044D000909114010E9476070E94720727C08837C6
:1044E00029F58091E101882341F01092E1010E94B9
:1044F000581681E08093CE0111C08091E00188239D
:1045000029F01092E0010E9446180EC082E090E06F
:104510000E94770380912F03882319F00E94E703FC
:1045200003C086E30E9473031092E2012296EFE03B
:104530000C94692C10928D0410929E0283E080935B
:10454000E8018FEF8093A2040895E9EEF1E0208165
:10455000211105C0892BB1F080E090E00895B2E010
:10456000E739FB07B8F7009751F04181DC013C9136
:10457000431305C0428111963C91431751F0E20F5D
:10458000F11DE5CF32E0E739F30719F010F0E7E964
:10459000F2E0CF01089594E0899FF0011124ED55D8
:1045A000FB4F80818F3F91F08093E3018181809365
:1045B000E40182818093E50183818093E60121E01B
:1045C0004CE064E083EE91E00C949E0A089588E943
:1045D00092E0BBDF009799F02091E801FC01308167
:1045E000231768F4E20FF11D808180939A0289E716
:1045F00080939B02818180939C0281E0089580E0FA
:104600000895EF92FF921F93CF93DF931F92CDB740
:10461000DEB7182F80912F0386FF18C084E5998399
:104620000E942607E12E9981F92E15E0F70181916C
:104630007F010E94E6071150C9F780912F0385FF83
:1046400003C08AEF0E94E6070E9472070F90DF9175
:10465000CF911F91FF90EF90089586E30E9473031E
:1046600080919A02833511F48BE901C08BE40E949A
:10467000C10621E04CE065E088E992E00E949E0AD4
:104680000E94E70388E992E0BCCFE7DF80919A02BD
:10469000893631F081E08093970289E28093A20409
:1046A0000895CF9385E390E00E944A0880937304B5
:1046B00086E390E00E944A088093A104CFEFC09364
:1046C0009104C0939304C0939504C0939704C0933E
:1046D0009904C0939B04C0939D04C0939F042ADF58
:1046E0001092E90181E080937204C093A3048FEFDC
:1046F0009FEF909376048093750410927804109243
:10470000770410927A0410927904C093A7049093CE
:104710007C0480937B0410927E0410927D0410929E
:10472000800410927F04C093AB0490938204809322
:1047300081041092840410928304109286041092D3
:104740008504C093AF0490938804809387041092EB
:104750008A041092890410928C0410928B04CF91D9
:104760000895ACE0B0E0E7EBF3E20C94532C6C015D
:104770008C010F5F1F4F45E0BE016F5F7F4FC80187
:104780000E94EA07843008F0F2C099819130A9F4C0
:10479000833061F46A8185E390E00E9445086B8173
:1047A00086E390E00E9445087CDF05C28091730497
:1047B0000E94E6078091A10499C0923009F051C08F
:1047C000813039F081E09A81913009F080E0F82E53
:1047D00002C0FF24F3948091E901811104C08FE1AC
:1047E00094E00E94650709EE11E0F80180818823BA
:1047F00009F4BAC0F2E007391F0708F0B5C031E08C
:10480000093E130719F080E20E942607F801818112
:104810000E94E607F80182810E94E607FF20E1F08E
:104820008AE30E94260793E0F80180819817A0F49C
:10483000943038F090FF05C08CE29C870E942607D8
:104840009C85EE24E394E90EF801E90FF11D8081C7
:104850000E94E6079E2DE8CFF8018081080F111D08
:10486000C4CF933049F480E090E06FDE895E9140E0
:104870009EEA981B892F3AC0903171F501E914E046
:1048800082E9E82E84E0F82EC12CD12CF801808139
:104890008F3FA1F0DD2019F080E20E9426078C2DC9
:1048A0000E94E6078AE30E942607F80180810E94A1
:1048B000E607F70180810E94E607D3940E5F1F4F41
:1048C000C394F2E0EF0EF11C38E0C312DFCFD11039
:1048D0004BC08DE294E046C0913159F480918F0431
:1048E000909190046DE770E0A8D7862F0E94E607AC
:1048F0003BC09231C9F513EAE12E14E0F12E06EA2D
:1049000014E0C12CD12CF70180818F3FF1F0DD2024
:1049100019F080E20E9426078C2D0E94E6078AE3A8
:104920000E942607F70180810E94E607F80132976E
:1049300080810E94E607F801319780810E94E60796
:10494000F80180810E94E607D394F4E0EF0EF11C99
:10495000C3940C5F1F4F34E0C312D5CFD11004C0F5
:1049600089E294E00E9465070E94720724C144E036
:10497000BE01695F7F4FC8010E94EA074F81493637
:1049800008F477C07A85588569857C3009F04BC07A
:1049900020E030E080E090E0F901ED55FB4F7081C0
:1049A00074131CC0A181A51319C0A281A61316C03F
:1049B0002CE023839C01220F331F280F391FF9019C
:1049C000EE0FFF1FEB58FB4F11821082F901EE0F23
:1049D000FF1FE958FB4F11821082CFC07F3FD9F4EF
:1049E0004083518362832CE023839C01220F331F79
:1049F000280F391FF901EE0FFF1FEB58FB4F1182F3
:104A00001082F901EE0FFF1FE958FB4F118210824F
:104A100010927204B2C001962C5F3F4F20313105D5
:104A200009F0BACFC8C080E090E020E030E0FC019F
:104A3000ED55FB4FA081A41315C0A181A51312C091
:104A4000A281A6130FC07383F901EE0FFF1FE20FBF
:104A5000F31FEE0FFF1FE958FB4F81E090E09183B9
:104A60008083A9C02F5F3F4F049680319105F9F6EE
:104A7000A2C0E98180917304E817C0F190E0F0E0F2
:104A80009C01295F3F4F2E173F0784F13A81209107
:104A9000A10432132BC03C813F3231F442E06CE080
:104AA000C6010E940D0B87C02D813C32B1F42093CA
:104AB0008E0481E090E09093900480938F04809125
:104AC0002C0390912D03E4E02E9F800D911D112465
:104AD00090932D0380932C036EC0E81BF90BEE0F0F
:104AE000F0E0EF56FB4F3083218365C080E090E01B
:104AF0002CDD7C01F80101900020E9F73197E01BE3
:104B0000F10BF695E795BB24B394BE0EC7018B0D50
:104B1000911D895E91408F3A91050CF048C0F701D4
:104B2000B1928F0121E0822F880F81502B15D8F48C
:104B300041E0B801F601E80FF11DCF012C870E947A
:104B4000EA072C85233058F020FD09C0D8011197C1
:104B50008C91843621F4F8018081809374042F5F56
:104B60000F5F1F4FE0CFF7E9EF16F2E0FF0618F5F1
:104B7000F701E20FF11D10821EC022E04CE064E05C
:104B8000CE0107960E949E0A8FE08A8722E04CE0C1
:104B900064E0CE0107960E949E0A82E08A8722E0A6
:104BA0004CE064E0CE0107960E949E0A04C083E2B6
:104BB00094E00E9465072C96E9E091C60F931F933D
:104BC000CF93DF939091720491114FC093E0899F2E
:104BD00080011124F801EE0FFF1FEB58FB4F94E00A
:104BE000899FD0011124AD55BB4F12969C919770AF
:104BF00040E850E0491B51099AEF949F9001959F1E
:104C0000300D1124359527953595279531832083CF
:104C1000E801CC0FDD1FC758DB4F288139812F5F9A
:104C20003F4F39832883000F111F09581B4FF8018C
:104C3000408151814115510529F424303105A9F4F1
:104C4000AADC11C04130510539F4A5DC82E090E0C6
:104C5000F8019183808309C04230510531F49BDC17
:104C6000F8011182108219821882DF91CF911F9171
:104C70000F910895A6E0B0E0EFE3F6E217C62091A9
:104C8000A1042A831B8280918E04882341F0833003
:104C900019F487E791E00FC08DE790E00CC0277012
:104CA00030E02A513F4F4DE7429FC001439F900D96
:104CB0001124959587959093900480938F0402E931
:104CC00014E0F12C7CE2E72EF801319790819F3FB0
:104CD000C1F0809173048F0D898380918E048823A5
:104CE00011F0EC8203C09C83F80180818D8321E068
:104CF0004CE065E0CE0101960E949E0ACE0101962D
:104D000080DCF3940E5F1F4FF8E0FF12DDCF80913F
:104D10008E04882341F0833019F410928E0403C06E
:104D2000825080938E042696E6E0DCC5809197023F
:104D3000882351F092DC89E28093A204809197024B
:104D40008150809397020895F5CBFF920F931F93A4
:104D5000CF93DF93FC01F0800181C281D381148164
:104D60008FE58093A20410929702809173048111C1
:104D700005C08091A104882309F4A9C080919802FC
:104D80008F1104C080919902801729F0D3DBF09233
:104D900098020093990280918D048F3F09F497C087
:104DA000C0939A02D0939B0210939C02CC23F1F003
:104DB00081111CC080917304181761F0143651F0F2
:104DC0008DEA8C0F823010F0CD3739F48FEF80935D
:104DD0008D047DC0C43509F47AC08D2F807F803664
:104DE00009F075C0D067D0939B0257C0F0DB8111EA
:104DF00005C080918D04882309F469C080919E02CA
:104E0000811107C0E0918D04F0E0EF5CFB4FE4916D
:104E100001C0E82FE33541F4C43531F490918D049D
:104E20009E5F90938D0404C0EC1711F083DB4FC09C
:104E3000882369F08091E8018E5F8093E801C7DBE9
:104E400081110EC080918D048E5F80938D048091BE
:104E50008D04E82FF0E0EE5CFB4F14911F3F59F4F6
:104E600080919A0280939E028436B9F480917404F2
:104E700080939C0212C010939A0297E790939B0232
:104E80009091730490939C028E5F80938D04109296
:104E90009E028E3021F01123D1F0F7DB18C088E993
:104EA00092E053DBDC01009781F02C9130E087E940
:104EB00092E0821B930BA817B90730F4ED01C20FE3
:104EC000D31F48814D93F7CF1C9234DBE4CFCDB78D
:104ED000DEB7E5E008C50F931F93CF93DF93EC0196
:104EE00010E0212F30E0F901EE0FFF1FE20FF31F5A
:104EF000E054FF4F0491F901EE0FFF1FE20FF31F83
:104F0000EF53FF4F25913491002399F0209739F406
:104F100080E20E942607802F0E94260708C0888111
:104F2000801305C0CE01F901099581E003C01F5F20
:104F3000D8CF80E0DF91CF911F910F910895CF934B
:104F4000C09124018093240180913805882309F4BD
:104F50003DC086E395E00E94870920919F02309131
:104F6000A0028A3011F08D3011F52115310561F361
:104F7000F901EF55FD4F108281EA92E0ACDF81111B
:104F800011C087E594E00E94650781EA92E00E94E3
:104F90005A078FE394E00E94650780E090E09BDF72
:104FA0000E9472071092A00210929F02CDCF20386B
:104FB000310550F6A9014F5F5F4F5093A002409317
:104FC0009F02F901EF55FD4F8083BECFC0932401AE
:104FD000CF910895E4E6F0E080818B7F8083299A69
:104FE00084B1876084B9239880E58CBD8DB58160DC
:104FF0008DBD08952091C6053091C7052115310555
:1050000021F420911801309119018091160190919D
:105010001701009741F48DB79EB740911A01509146
:105020001B01841B950B2817390718F4821B930B5F
:10503000089580E090E0089582E40E94260740E20F
:1050400065E08091C6059091C7050E9476070E9491
:10505000720783E50E94260740E265E0809118010F
:10506000909119010E9476070E94720785E40E94C0
:10507000260740E265E080911601909117010E9499
:1050800076070E94720786E40E942607B3DF40E29B
:1050900065E00E9476070C947207A2E0B0E0E2E5BA
:1050A000F8E208C4EEEBF5E08091F100819385E031
:1050B000E63CF807C9F72091BE053091BF05832F64
:1050C00090E08A30910508F01AC1FC01EA5AFF4FBE
:1050D000DBC3203879F0223809F011C18091C20574
:1050E0008093E9008091EB0085FB882780F910927E
:1050F000E90006C08091B9059091BA0591118260CE
:105100009091E800977F9093E8008093F1001092CF
:10511000F1008091E800982F9E7F9093E8008F77B0
:105120008093E8008091E80082FDAFC08091BD05CA
:105130008111F8CFD5C0822F8D7F09F0E0C02223E6
:1051400019F0223061F033C08091C005813009F040
:10515000C7C0333009F080E08093BA0528C0809141
:10516000C005811124C02091C205277009F4B8C080
:105170002093E9008091EB0080FF19C08091EB0043
:10518000313091F480618093EB0081E090E0022E59
:1051900001C0880F0A94EAF78093EA001092EA00AF
:1051A0008091EB00886001C080628093EB001092D8
:1051B000E9008091E800877F8093E8008091E80013
:1051C000982F9E7F66C021119AC02091C0058091C2
:1051D000E800877F8093E8009091E800892F8E7F18
:1051E0008093E8009F779093E8008091E80080FD2D
:1051F00005C08091BD058111F8CF72C0822F8F77D5
:10520000982F90689093E300882309F469C083E0A5
:105210008093BD0565C02058223008F070C0AE01F3
:105220004F5F5F4F6091C2058091C0059091C105AD
:105230000E94AC02009709F453C02091E800277F38
:105240002093E800BC0189819A812CD11EC02038AE
:1052500009F055C08091E800877F8093E800809135
:10526000BB058093F1008091E800982F9E7F90937A
:10527000E8008F778093E8008091E80082FD05C008
:105280008091BD058111F8CF2BC08091E800982F47
:105290009B7F9093E8008F778093E80021C02111D5
:1052A0002EC09091C0059230D8F48091E800877F9D
:1052B0008093E8009093BB058091E800982F9E7F33
:1052C0009093E8008F778093E8008091BB05882356
:1052D00011F084E001C083E08093BD050E941E05AB
:1052E0008091E80083FF0EC08091EB008062809384
:1052F000EB008091E800877F8093E80003C00E9464
:105300003605EECF2296E2E0F1C28093E900EBEEA3
:10531000F0E0808181608083EDEEF0E010826093A8
:10532000EC0040838091EE00881F8827881F089535
:105330001092F40080E08093E9001092F000109247
:10534000E8009091ED009D7F9093ED009091EB002F
:105350009E7F9093EB008F5F873069F7089580916F
:10536000BE0587FD05C08091E80080FF0FC013C017
:105370008091E80082FD05C08091BD058111F8CFC4
:1053800008958091E800982F9B7F09C08091BD050A
:105390008111E9CF08958091E800982F9E7F909326
:1053A000E8008F778093E800089585E69091EC00FF
:1053B00090FF05C09091E80090FF05C019C0909142
:1053C000E80092FD15C09091BD05992399F0909148
:1053D000EB0095FD11C09091E10092FFE7CF909115
:1053E000E1009B7F9093E100815001F783E00895F5
:1053F00080E0089582E0089581E008954091C40519
:105400005091C5059B014617570708F49A0160E0C3
:1054100021153105D9F14091E80043FD3FC040918D
:10542000E80042FF06C08091E80082FF32C080E0C1
:1054300008954091BD05442399F14091E80040FF53
:10544000E7CFFC01CF012115310569F04091F20051
:105450005091F3004830510530F481918093F10070
:1054600021503109EFCF4091F2005091F30061E0FB
:105470004830510509F060E04091E800542F5E7F0C
:105480005093E8004F774093E800C2CF6111C3CF3B
:10549000CACF8091BD058111C6CF02C081E00895B9
:1054A00082E008954091C4055091C5059B014617BF
:1054B000570708F49A0160E02115310509F43CC052
:1054C0004091E80043FD40C04091E80042FF06C023
:1054D0008091E80082FF33C080E008954091BD05CF
:1054E0004423A1F14091E80040FFE6CFFC01CF0149
:1054F0002115310571F04091F2005091F3004830D0
:10550000510538F484918093F1002150310931968E
:10551000EECF4091F2005091F30061E04830510528
:1055200009F060E04091E800542F5E7F5093E8005E
:105530004F774093E800C0CF6111C2CFC9CF8091AF
:10554000BD058111C5CF02C081E0089582E00895B4
:105550006115710581F12091E80023FD31C0209192
:10556000BD05222389F12091E80022FFF4CFFC0140
:105570008091F2009091F300892B71F09F012F5FD1
:105580003F4FC9014091F10040836150710961159D
:10559000710519F0F901ECCFCF012091E800322F0D
:1055A0003B7F3093E8002F772093E800D1CF8091A4
:1055B000BD05882349F08091E80080FFF8CF02C044
:1055C00081E0089580E0089582E0089567D06ED06C
:1055D0001092BD051092BB051092BA051092B90544
:1055E0008AE482BF19BC89B5826089BD09B400FE16
:1055F000FDCF8091D800982F9F779093D800806836
:105600008093D8008091D70081608093D7008091EB
:10561000D8008F7D8093D8008091E0008B7F8093AD
:10562000E0008091E0008E7F8093E0008091E100B7
:105630008E7F8093E1008091E20081608093E200A0
:105640008091E100877F8093E1008091E200886093
:105650008093E2008091D80081608093D800089503
:10566000B5DFE8EDF0E080818061808381E08093A8
:10567000BC0578940895AADFE0EEF0E080818160B7
:105680008083E8EDF0E080818F77808319BC808192
:105690008F7E80831092BC0508950895E8EDF0E0B8
:1056A00080818E7F80831092E20008951092DA004C
:1056B0001092E10008951F920F920FB60F921124DD
:1056C0002F933F934F935F936F937F938F939F930A
:1056D000AF93BF93EF93FF938091DA0080FF15C0E3
:1056E0008091D80080FF11C08091DA008E7F809376
:1056F000DA008091D90080FF05C081E08093BD056C
:10570000CCDF03C01092BD05C8DF8091E10080FFAF
:105710001DC08091E20080FF19C08091E1008E7F62
:105720008093E1008091E2008E7F8093E20080917F
:10573000E20080618093E2008091D80080628093D3
:10574000D80019BC85E08093BD05A7DF8091E100FA
:1057500084FF29C08091E20084FF25C019BC89B56F
:10576000826089BD09B400FEFDCF8091D8008F7D95
:105770008093D8008091E1008F7E8093E10080913A
:10578000E2008F7E8093E2008091E200816080934E
:10579000E2008091BB05882311F084E001C083E022
:1057A0008093BD057ADF8091E10083FF23C0809163
:1057B000E20083FF1FC08091E100877F8093E100BA
:1057C00082E08093BD051092BB058091E1008E7F41
:1057D0008093E1008091E2008E7F8093E2008091CF
:1057E000E20080618093E200A3DD42E060E080E0BF
:1057F0008CDD53DFFF91EF91BF91AF919F918F911E
:105800007F916F915F914F913F912F910F900FBEBC
:105810000F901F901895CF938091BD05882359F064
:10582000C091E900C7701092E9008091E80083FD03
:1058300034DCC093E900CF910895AA1BBB1B51E152
:1058400007C0AA1FBB1FA617B70710F0A61BB70BF0
:10585000881F991F5A95A9F780959095BC01CD0195
:10586000089597FB072E16F4009406D077FD08D014
:10587000E4DF07FC05D03EF4909581959F4F089595
:10588000709561957F4F0895EE0FFF1F0590F4917D
:10589000E02D09942F923F924F925F926F927F92E8
:1058A0008F929F92AF92BF92CF92DF92EF92FF9230
:1058B0000F931F93CF93DF93CDB7DEB7CA1BDB0BDC
:1058C0000FB6F894DEBF0FBECDBF09942A88398881
:1058D00048885F846E847D848C849B84AA84B98488
:1058E000C884DF80EE80FD800C811B81AA81B98194
:1058F000CE0FD11D0FB6F894DEBF0FBECDBFED01A8
:105900000895CF93DF938230910510F482E090E008
:10591000E091C805F091C90520E030E0A0E0B0E0DA
:10592000309739F14081518148175907B8F048172D
:10593000590771F482819381109729F013969C93F3
:105940008E9312972CC09093C9058093C80527C0E9
:105950002115310531F04217530718F0A901DB0179
:1059600001C0EF019A01BD01DF010280F381E02D4A
:10597000D7CF21153105F9F0281B390B243031051B
:1059800080F48A819B816115710521F0FB0193836D
:10599000828304C09093C9058093C805FE013296A6
:1059A00044C0FE01E20FF31F81939193225031090D
:1059B000398328833AC02091C6053091C705232B2F
:1059C00041F420911801309119013093C7052093BB
:1059D000C60520911601309117012115310541F4BA
:1059E0002DB73EB740911A0150911B01241B350B76
:1059F000E091C605F091C705E217F307A0F42E1B4E
:105A00003F0B2817390778F0AC014E5F5F4F241722
:105A1000350748F04E0F5F1F5093C7054093C605EA
:105A20008193919302C0E0E0F0E0CF01DF91CF914C
:105A30000895CF93DF93009709F487C0FC01329754
:105A400013821282C091C805D091C905209781F4B4
:105A500020813181280F391F8091C6059091C7059B
:105A60008217930779F5F093C705E093C6056DC0DB
:105A7000DE0120E030E0AE17BF0750F412964D91E2
:105A80005C9113979D014115510509F1DA01F3CF9E
:105A9000B383A28340815181840F951F8A179B078E
:105AA00071F48D919C911197840F951F02969183AB
:105AB000808312968D919C911397938382832115F5
:105AC000310529F4F093C905E093C8053EC0D9011A
:105AD0001396FC93EE9312974D915D91A40FB51F11
