:1000000086C30000A0C300009EC300000C94E5134B
:100010009AC3000098C3000096C3000094C3000078
:1000200092C3000090C300008EC300000C940D30FA
:100030008AC3000088C3000086C300000C947E13AE
:1000400082C3000080C300007EC3000084C600009D
:100050007AC3000078C3000076C3000074C30000B8
:1000600072C3000070C300006EC300006CC30000C8
:100070006AC30000452D772D5B2E772D5B2EBF2D9B
:10008000E72D5B2E032E2B2E42280A43C304463C49
:100090000C692A1F4199195A101C4EFF1C6B0F2422
:1000A000473F0C4D770C4BE50C556A0D59382152E2
:1000B000960954DF2756920A57D60958E10E655221
:1000C0000A66A92B6DF82C4C94076C170A740B0761
:1000D0007570167856057A8C1E0000002A034300BE
:1000E00055004C0034003300330000002A03430065
:1000F00055004C003800360038000000160362003E
:100100007500730077006100720065002E006400C6
:100110006500000004030904090243000201008095
:10012000320904000001020201000524000110054B
:1001300024010301042402060524060001070582A8
:10014000030800FF09040100020A0000000705047B
:100150000240000007058302400000120110010266
:10016000000008EB034B20000001020001202F20BB
:1001700000203D2000072E050DD391FF080500004B
:100180000C0021656A2D3B1322F862073F181D1CE5
:10019000C700B0876BF8B611EA2A001F41000D2E88
:1001A0002D07D3913D04320000060021656A55E415
:1001B0003023B900070018146C070090876BF856BD
:1001C00011E92A001F410000030F1E26270000002E
:1001D000030F1E2536386700030F25674060500067
:1001E000030F275188838100030F2750C8C3C20023
:1001F0002700000000000000670000000000000071
:10020000500000000000000081000000000000001D
:10021000C2000000000000504C4C310D0A00504C50
:100220004C300D0A005620312E36362043554C38BE
:100230003638005620312E36362043554C34333371
:100240000043554C5F563400202F2000203D2000F5
:100250004C4F56460D0A00424F56460D0A00455275
:10026000523A4343410D0A000B08105B11F8154741
:10027000191D1A1C1BC71C001DB221B623EA00075A
:10028000022E030D04E905CA070C0B060D210E65AD
:100290000F6A10C811931203153417331818191662
:1002A0001B4321562500261129592C812D353EC38B
:1002B0004C454E4552520D0A004C4F56460D0A0011
:1002C0004C454E4552520D0A000007024604C60531
:1002D000260B0610C81193120313221534173F186A
:1002E0002819161B432156250026110D210E650FD6
:1002F0006A070C160720F81E871F6B29592C812DC1
:10030000353EC3FF00737065636966792076616C62
:100310006964206D6F6465206E756D6265720D0A8B
:10032000000302FF000000000000000000000000C9
:100330000000000000030210881182FF000000008E
:1003400000000000000000000003071088110B0DE2
:10035000210E6B0FD01553FF00000000000B060D9F
:10036000210E650F6A1700181819161B431C682503
:100370000026110001024605D4042D0302070008DF
:10038000021089115C12061556FF000001022E03AF
:100390000104AA050F06FF070008000B060D210E39
:1003A000660F6610CA1193120613721535181819C4
:1003B000161B0323E9242A2500261F2C812D352E08
:1003C000093E500D2E2D07D3913D0432000006004A
:1003D00010B07155E43023B900070018146C070001
:1003E00090876BF85611E92A001F41000D2E2D074A
:1003F000D3913D04320000060010ABA5550A30230E
:10040000B900070018146C070090876BF85611E9C3
:100410002A001F41000D0A006B72002043686563CB
:100420006B73756D204572726F720D0A004B6F70A1
:100430007020436F6D6D616E6420556E6B6E6F77CB
:100440006E0D0A004B6F70702052656365697665AA
:1004500020537562436F6D6D616E6420556E6B6ED7
:100460006F776E0D0A0052585F494E49545F4552EE
:10047000525F4D41524353544154455F5258006BB3
:1004800072532D5265636569766553746172740D9C
:100490000A006B72452D52656365697665456E6429
:1004A0000D0A00204279746573206F72204B6579C4
:1004B000636F6465206973206E6F206865782076AD
:1004C000616C75650D0A004B6F7070205472616E1F
:1004D000736D69747420436F6D6D616E64206E6F0F
:1004E0007420657175616C20746F2000426C6F63BD
:1004F0006B330D0A00426C6F636B320D0A005B6850
:1005000065785D0D0A007469636B732D426C6F63CF
:100510006B537461727454696D653A20005B686551
:10052000785D0D0A004B65794F666654696D653AD2
:100530002020202020202020202020005B686578BB
:100540005D0D0A00426C6F636B20537461727420FE
:1005500054696D653A2020202020005B6865785D35
:100560000D0A005469636B2054696D65723A20204E
:10057000202020202020202020005B6865785D0D51
:100580000A004B65794F666654696D6520696E2077
:100590007469636B733A2020006D7365630D0A0004
:1005A0004B65794F666654696D653A20202020209E
:1005B000202020202020000D0A005469636B205465
:1005C000696D65723A2020202020202020202020E4
:1005D000000D0A000D0A416D6F756E74206F662064
:1005E000427974657320284865782920666F756E96
:1005F0006420696E7369646520636F6D6D616E64FC
:10060000206C696E6520706172616D657465723A07
:100610002020202020202020202020000D0A4E65B0
:100620007874204368617261637465722028696E12
:10063000742920616674657220706172616D6574E1
:100640006572202873686F756C64206265206C6920
:100650006E6520656E6420636861726163746572A3
:10066000293A20000D0A537472696E676C656E67D3
:1006700074683A202020202000636F6D6D616E64E5
:100680006C696E65706172616D657465723A2000A7
:100690005472616E736D6974740D0A0054585F4929
:1006A0004E49545F4552525F00012E4604AA540F32
:1006B000E0000000060021656A97831663B94707CA
:1006C0000C29366C074091876BF85611E92A001FF8
:1006D00041004E2F4100454F420D0A004E2F410070
:1006E0004E2F410000535300547D7DFFFF4B4B7E46
:1006F0007E0020697320756E6B6E6F776E292055B2
:100700007365206F6E65206F66003F2028001124FE
:100710001FBECFEFD4E0DEBFCDBF11E0A0E0B1E05F
:10072000EEE9F8E602C005900D92A035B107D9F7C1
:1007300024E0A0E5B1E001C01D92AF36B207E1F7B9
:100740000CD00C944D345CCCF89481E085BF82E0F1
:1007500085BFE0E0F8E3099508952FE088E190E097
:100760000FB6F894A895809360000FBE20936000A8
:1007700090E080E80FB6F894809361009093610058
:100780000FBE2E9A2D9A04B603FE0AC083E390E0B2
:10079000B4D5882329F060E083E390E0A9D5D4DFC5
:1007A00089EF87BD84E085BD82E084BD80936E00C3
:1007B000109280008AE08093810084B7877F84BF95
:1007C0003D9A0E94C62C9BD60E94F12F0E947F2743
:1007D0000E94C00E85E89CE2909328038093270333
:1007E0000E94941589E08093540145980E94A3309B
:1007F000F5D10E94E71025D30E94EE2B0E9412171C
:100800000E9410180E94981B0E94C01C0E944B2638
:100810000E94CC1DEBCF292F33272230310559F010
:100820002330310569F02130310539F582E190E05E
:100830002BE531E026C083E490E028E131E021C0DF
:1008400099278130910539F018F0029751F015C0C1
:10085000E4E1F1E002C0ECEFF0E0849190E09F0170
:1008600010C01E9903C02CED30E002C02CEE30E029
:10087000ECEEF0E0849190E004C080E090E020E0B5
:1008800030E0FA013183208308958EBD0DB407FE58
:10089000FDCF8EB50895A1E0B0E0E1E5F4E00C9461
:1008A0000831482F8A3008F048E0E42EF12C83E02C
:1008B000EE0CFF1C8A95E1F7C70189539E4F7C011E
:1008C0008BE290E0F70164918C010F5F1F4F498329
:1008D0000FD5FFEFEF1AFF0A49810333110511F01D
:1008E000C801F0CF4550453010F461E101C067E127
:1008F00084E290E0FDD42196E6E00C942431CF937D
:10090000DF9382E090E0FC01E456FE4F6491EC013D
:100910002196EED4CB32D10511F0CE01F4CF87E38E
:1009200090E0FC01E25CFE4F6491EC012196E0D482
:10093000C036D10511F0CE01F4CF1E9918C060E188
:100940008FE090E0D5D460EB80E190E0D1D461E716
:1009500081E190E0CDD460E184E490E0C9D460EB23
:1009600085E490E0C5D461E786E490E0C1D488E0F6
:1009700092DFDF91CF9108952898806C86DF80E028
:1009800084DF289A0895A1E0B0E0E9ECF4E00C944B
:100990000B3141E0BE016F5F7F4F019653D4892B2D
:1009A00021F18981893969F410E0812FE5DF46D48E
:1009B000812F8770873009F4CDD31F5F1033A9F7DB
:1009C00014C0DADF182F83E478D3898137D481E724
:1009D00091E0B3D3812F32D48DE691E0AED340E2E3
:1009E00062E0812F90E0BAD3B5D32196E3E00C9476
:1009F0002731A1E0B0E0EFEFF4E00C940C3128983F
:100A00008064698342DF6981862F3FDF289A2196BF
:100A1000E2E00C942831289838DF289A0895EF9264
:100A2000FF920F931F93CF93DF93EC01109200027C
:100A3000EA98209A289A8EE190E0D5D228988EE103
:100A400090E0D1D2289A8DE290E0CDD280E3E3DF2E
:100A500084E690E0C8D2289880E417DF7E0189E21E
:100A6000E80EF11C8E010F5F1F4FCE0146D40DDF43
:100A70000E151F0511F0E801F5CF289A28988EE78A
:100A800004DF8BE290E0EC01219637D4FEDEC33325
:100A9000D10511F0CE01F7CF289A83E3BCDF81E0C6
:100AA000A7D2CDB7DEB7E6E00C942431A1E0B0E0E8
:100AB000ECE5F5E00C940C3122E0298341E0BE0125
:100AC0006F5F7F4F0196BED38981E5DE82E090E0C3
:100AD000A6DF2196E2E00C942831CF93EA9886E3D2
:100AE0009ADFCFEF85E397DFC1508077803229F01E
:100AF0008AE090E078D2C111F5CFCF910895CF93DD
:100B0000CFEF84E388DFC1508077803129F08AE01D
:100B100090E069D2C111F5CFEA9ACF91089586E3AA
:100B20007ADF109229031092FE01109200020895BC
:100B300082E090E074DF81E0809329031092FE014F
:100B40001092000208950F931F93CF93DF93082F05
:100B500010E0C62FD0E085E30FDF801731F0CE0123
:100B600042D21150C1F781E001C080E0DF91CF9106
:100B70001F910F91089585E2FFDE8F3311F080E021
:100B8000089586E348DF80915001811104C08EE111
:100B900092E0D3D202C08DE33EDF83E33CDF64E02A
:100BA00081E0D1DF85E2E8DE8F3349F780915001A3
:100BB000811103C087E192E0C0D281E0089585E30E
:100BC000DBDE8D3051F485E2D7DE8F3331F4D3DFB5
:100BD00084E321DF80778031D9F708958091600424
:100BE000843009F061C08093E90080915101811146
:100BF00028C08091E80085FF24C08091F2008823FE
:100C000031F06091F10089E194E0A1D4F6CF8091B8
:100C1000E800982F9B7F9093E8008F778093E800FF
:100C200081E0809351018EEE95E0909326038093AE
:100C30002503E0912703F091280381E009951092A4
:100C4000510183E08093E9008091D803882361F10A
:100C50008091E80085FF28C0F8948091D80388230C
:100C600051F08091F200803430F486ED93E085D429
:100C70008093F100F2CF78949091F2008091E80097
:100C8000282F2E7F2093E8008F778093E800903400
:100C900059F40E94B12E8091E800982F9E7F909386
:100CA000E8008F778093E800089542E061EC82E0ED
:100CB0000E94612E42E361E883E00E94612E42E3DC
:100CC00060E884E00E94612E109200011092010100
:100CD0001092020110920301089580916104909195
:100CE0006204913229F0923261F1903299F512C08A
:100CF000813A81F58091E800877F8093E80067E082
:100D000070E080E091E00E94DA2E8091E800982F58
:100D10009B7F11C08132F1F48091E800877F80933E
:100D2000E80067E070E080E091E00E94772F80911A
:100D3000E800982F9E7F9093E8008F778093E800DB
:100D40000895813239F48091E800877F8093E8002C
:100D50000C948B2E08951F920F920FB60F921124B0
:100D60008F939F93AF93BF93EF93FF9380912B0348
:100D700090912C03A0912D03B0912E030196A11DFB
:100D8000B11D80932B0390932C03A0932D03B0935C
:100D90002E0380912A038F5F80932A03E7E9F3E013
:100DA00080819181181619061CF401979183808324
:100DB000369683E0EF3AF80799F78091B103909166
:100DC000B203009729F001979093B2038093B10387
:100DD0008091C4038F3F19F081508093C403FF9129
:100DE000EF91BF91AF919F918F910F900FBE0F9098
:100DF0001F9018952FB7F89440912B0350912C0316
:100E000060912D0370912E03FC0140835183628316
:100E100073832FBF0895A4E0B0E0E1E1F7E00C9404
:100E20000C31CE010196E6DF8C8108D28B8106D28F
:100E30008A8104D2898102D28DD12496E2E00C9479
:100E400028311F93CF93DF9380912B0390912C0334
:100E5000A0912D03B0912E0320915301281709F47E
:100E60005FC080912B0390912C03A0912D03B09132
:100E70002E0380935301A895C7E9D3E010E02881A1
:100E80003981232B19F4812F0E94192A1F5F26967E
:100E90001430A9F78091B1039091B203892B11F41A
:100EA0000E947B2A8091C403811102C00E94D42A2F
:100EB00080917E03882339F0815080937E038111D5
:100EC00002C00E94A71780912A038D3748F1109223
:100ED0002A038091070181FF04C088B190E289272D
:100EE00088B980912F0390913003843823E09207D2
:100EF00028F401969093300380932F038091520140
:100F00008F5F809352018C3359F41092520180917B
:100F100096038F5F809396038C3310F010929603A4
:100F2000DF91CF911F910895A0E0B0E0EAE9F7E0EA
:100F30000C9407318C016EE070E00E94BC338D3060
:100F400009F04CC0459A80910002882341F010922C
:100F500000028AE491E035D7DD24D39401C0D12C7E
:100F600080912903811101C0E3DDB7DD84E0F82E13
:100F70005B9A88EE93E037D0C1E0D0E0EE24E394B2
:100F8000F801EC0FFD1F8081813309F0E12C5B98A3
:100F9000EE2019F088EE93E002C080ED97E023D0B8
:100FA0005B9AEE2019F080ED97E002C088EE93E0A6
:100FB0001AD02196CD30D10509F75B9883E218D07D
:100FC000FA94B1F680913203882311F098DD02C0C3
:100FD00086E321DDD1100E94B1194598CDB7DEB767
:100FE000E7E00C942331880F991F0197F1F70895DA
:100FF00020ED37E0815020F0F9013197F1F7FACF79
:101000000895CF93DF93DC0113968C911397843569
:1010100009F050C0CD010396CC91FD0170964DE0D2
:101020004C1750F050E0D0E09E012F50310942178C
:10103000530709F03FC005C021912B3399F34F5F4F
:10104000EFCFFE013E97E80FF91F2081243591F57F
:1010500014963C911497218132132CC015963C9123
:1010600015972281321326C016963C91169723813C
:10107000321320C017963C911797248132131AC05F
:101080006197C80FD91F858188838681898381856F
:101090008A8382858B8383858C8384858D838585F4
:1010A0008E838C918A508C9312968C9112978A50D1
:1010B00012968C93DF91CF910895CF93C82F809192
:1010C0006004843081F48091540180FF0CC08091D1
:1010D000D803803408F082DD6C2F86ED93E037D2A0
:1010E000CA3009F47BDD809189038823C9F080919F
:1010F000540183FF15C0CA3099F0CD3011F46BE371
:1011000001C06C2F89E393E022D2CD3019F489E33A
:1011100093E077DF83E080937E0382E08093840313
:10112000CF910895CF93DF93EC018991882311F03B
:10113000C4DFFBCFDF91CF910895CF93DF93EC0114
:10114000FE018491882319F0B8DF2196F9CFDF9151
:10115000CF9108958DE0B1DF8AE0AFCFA6E0B0E097
:10116000E4EBF8E00C940A31062F1E8215E02AE029
:1011700030E01150E1E0F0E0EC0FFD1FE10FF11D58
:10118000B9010E94CF30805D8083CB010150009770
:1011900069F01111EECF0AC0112359F01150E1E0AE
:1011A000F0E0EC0FFD1FE10FF11D4083015007FF40
:1011B000F3CF81E090E08C0F9D1F810F911DB2DF76
:1011C0002696E4E00C942631A5E0B0E0EAEEF8E0E3
:1011D0000C940C311D8224E0382F3F702150E22FF7
:1011E000F0E03A3010F4305D01C0395CA1E0B0E0CD
:1011F000AC0FBD1FEA0FFB1F308334E09695879537
:101200003A95E1F76150009739F7615067FD0BC0DF
:10121000222349F02150E1E0F0E0EC0FFD1FE20F46
:10122000F11D4083F2CF81E090E08C0F9D1F820F73
:10123000911D78DF2596E2E00C94283140E362E0CE
:1012400090E0C2CFDC01FB0130E090E08D9188237B
:10125000A9F0813608F0805220ED280F2A3030F0B6
:101260002FEB280F263030F429EC280F292B3323BD
:1012700079F006C0803251F38A3341F3CF0105C0C3
:10128000CF0101962083415041F4861B970B0895AE
:10129000922F9295907F31E0D9CFFC01D5CFDB0121
:1012A000FC0180E090E02191222361F030ED320FCB
:1012B0003A30C8F76AE070E00E94BE30C097820FF3
:1012C000911DF1CF8D939C930895982F92959F70C7
:1012D0009A3010F4905D01C0995CFB0190838F708F
:1012E0008A3010F4805D01C0895CFB018183089520
:1012F0000E94CF33F999FECF08950C94C733089517
:101300001F93CF93DF93162F11501F3F59F0EC011D
:101310002196F3DF93DF112311F08AE3CEDE115023
:10132000CE01F3CFDF91CF911F910895A2E0B0E0FD
:10133000ECE9F9E00C940931FC0121812D3421F410
:1013400066E08AEF93E005C0203529F460E18AED7C
:1013500093E0D6DF26C01A82198242E0BE016F5F99
:101360007F4F01966FDF098110E0823021F4102F4A
:1013700000278A81082BC801C0DFF82E82E59DDE98
:1013800040E364E0C80120DF8CE492E0D6DE8F2DDC
:1013900055DF88E492E0D1DE40E262E08F2D90E0FC
:1013A000DDDED8DE2296E5E00C942531A6E0B0E043
:1013B000ECEDF9E00C9406316C0143E0BE016F5F87
:1013C0007F4F01963FDF823070F1E980F12C82304F
:1013D00021F0FE2CEE242A81E22A8C011127FE0145
:1013E000E00FF11F6081C70183DF000F111F0F5F46
:1013F0001F4F0C0D1D1D8FEFE81AF80AF8018081B0
:10140000882389F041E0BE016F5F7F4FC8011ADF7A
:10141000892B49F06981C7016BDF0E5F1F4FE2E046
:10142000EE0EF11CEBCF2696E8E00C94223141E061
:1014300067E071E0019606DF8091070180FF02C03E
:10144000459A01C045986091070184E390E050CF30
:10145000A1E0B0E0EEE2FAE00C940C3119820097C2
:1014600031F041E0BE016F5F7F4F0196EBDE898175
:101470008F3F09F4FFCF882321F061E083E390E000
:1014800037DF0E94F72F10926E00F89428E088E171
:1014900090E00FB6F894A895809360000FBE20935B
:1014A0006000FFCFCF93DF93EC0161E080E090E03C
:1014B0001FDF62E481E090E01BDF21DA60E080E67C
:1014C00090E016DF60E081E690E012DF60E083E309
:1014D00090E00EDF62E084E390E00ADF60E080E607
:1014E00090E006DF60E081E690E002DF89818837E6
:1014F00019F080E090E0ACDFDF91CF91089580E0BB
:1015000090E0FBDE813029F481E090E0F6DE823469
:1015100019F080E090E0C6DF84E390E0EEDE809397
:1015200007010895FC018181883419F481E492E077
:1015300007C01E9903C083E392E002C085E292E0F7
:10154000FCDD08CEFC011282108211820895FC019C
:101550008FB7F8949281903470F49F5F92832081CA
:1015600091E0920F9083DF01A20FB11D13966C934F
:10157000903409F410828FBF0895FC019FB7F8944E
:101580008281882371F081508283818121E0280F3C
:101590002183DF01A80FB11D13968C91203409F42B
:1015A00011829FBF0895FA013081882369F0E1E03C
:1015B000F0E0022E01C0EE0F0A94EAF7DB01A30F60
:1015C000B11D9C919E2B9C93222319F08FEF820FCB
:1015D0000BC081E0830F8C3010F4FA018083FB0193
:1015E000E80FF11D108287E090E00895CF93C82F97
:1015F0005B9A882319F08091570102C080915901AC
:1016000090E034E0880F991F3A95E1F7ECDC5B98A5
:10161000CC2319F08091560102C08091580190E0CE
:1016200024E0880F991F2A95E1F7DDDCCF9108951A
:10163000A1E0B0E0EEE1FBE00C94FC306C01162F71
:10164000822E3E2CE42EF12C40912F03509130033A
:10165000B7016E5F7F4F802F0E94B530992787FDBD
:1016600090954817590720F480E592E066DD7AC02E
:10167000481B590B5093300340932F03459A809198
:101680000002882341F0109200028AE491E099D38D
:101690002224239401C0212C80912903811101C0AF
:1016A00047DA1BDAA12EB12C912C712C872D9927AA
:1016B00087FD90958A159B0524F480E097DF73944D
:1016C000F5CF112311F081E091DF20E0622E772425
:1016D00067FC70946E147F042CF057E0552E6C0C50
:1016E0007D1C1BC047E0442E512C6C0C7D1C81E0FE
:1016F00090E0042C01C0880F0A94EAF7F30190816E
:101700008923298373DFF1E04F1A510829818FEF74
:101710004816580661F72F5FD9CF852D992787FD89
:101720009095881699066CF481E090E0052C01C034
:10173000880F0A94EAF7F3019081892357DF5A94BE
:10174000ECCF832D55DC015009F0AFCF80913203EF
:10175000882311F0D4D902C086E35DD921100E94FC
:10176000B11945982196E2E10C941831ADE0B0E052
:10177000ECEBFBE00C94FF307C01162F842F022F42
:101780006701C60ED11C462FB70130D3D6018C930A
:101790001F5F1D8619825E2C670127E06624639413
:1017A000712C8C2D8519811788F577E0A72EB12C27
:1017B0004701880E911CF3010A2C01C0EE0F0A9418
:1017C000EAF7D4018C91AE01435F5F4FBE016F5FBA
:1017D0007F4F8E23E8DE282FB1E0AB1AB10858F70F
:1017E000D6018D916D01082E82958025082E869553
:1017F000869580258F5F86958170AE01435F5F4F30
:10180000BE016F5F7F4FCFDE282FCBCF222311F099
:10181000215004C08D858F5F8D8727E089E18093FB
:1018200058018093590185E28093560180935701B6
:101830006AE0E62E4D856CE0CE010196F9DE2D962C
:10184000EFE00C941B31ADE0B0E0E9E2FCE00C9479
:101850000B31162F242F4BE0BE016F5F7F4F019697
:101860002D87F0DC2D85412F682FCE0101967EDF7C
:101870002D96E3E00C94273143E066E0E4CFEF924D
:101880000F93CF93DF93CDB7DEB760970FB6F89481
:10189000DEBF0FBECDBF40E1BE016F5F7F4F01963F
:1018A000D1DC69814A810B818C81809359018D81C2
:1018B000809358018E81809357018F8180935601C8
:1018C000E02EE294FFE0EF220F70242F2F7042955C
:1018D0004F70CE010896ACDE60960FB6F894DEBF6E
:1018E0000FBECDBFDF91CF910F91EF900895A9E189
:1018F000B0E0EDE7FCE00C9404314BE0BE016F5F1B
:101900007F4F01969FDC182F893009F05AC099E16A
:1019100090935801909359019093570182E38093DB
:10192000560169E0CE0101966BD2E1E0F0E0EC0FE8
:10193000FD1FE10FF11D8083198E1D86CE010196DA
:101940007C016E019BE0C90ED11C27E0AA24A39460
:10195000B12CEC14FD0429F100E010E0F501002E9B
:1019600001C0EE0F0A94EAF7D7018C91AE01475EF1
:101970005F4FBE01635F7F4F8E2315DE282F0F5F01
:101980001F4F0830110551F7AE01475E5F4FBE0192
:10199000635F7F4F81E007DE282FBFEFEB1AFB0A62
:1019A000D8CF222311F0215004C0898D8F5F898FF9
:1019B00027E0AAE0EA2E03E0498D6CE0CE010D9607
:1019C00037DE6996EAE00C942031A9E1B0E0EBEE55
:1019D000FCE00C9403314BE09E012F5F3F4F7901F7
:1019E000B90101962FDC182F85E38093590196E108
:1019F000909358019093570180935601612FC7012E
:101A00000BD2F701E10FF11D808399249394910E7D
:101A1000198E1D86870127E0AA24A394B12C802F5C
:101A20008E19891508F04AC0C12CD12CF5010C2C57
:101A300001C0EE0F0A94EAF7D8018C91AE01475E1F
:101A40005F4FBE01635F7F4F8E23ADDD282FBFEF59
:101A5000CB1ADB0A34E0C316D10441F7AE01475E6E
:101A60005F4FBE01635F7F4F81E09DDD282F84E0E3
:101A7000C82ED12CF5010C2C01C0EE0F0A94EAF708
:101A8000D8018C91AE01475E5F4FBE01635F7F4F0F
:101A90008E2389DD282FBFEFCB1ADB0A38E0C3166F
:101AA000D10441F7AE01475E5F4FBE01635F7F4FD8
:101AB00081E079DD282F0F5F1F4FB1CF0AE0E02EC4
:101AC00003E0498D6AE0CE010D96B2DD6996EBE048
:101AD0000C941F31EF920F93CF93DF9300D000D07F
:101AE000CDB7DEB743E0BE016F5F7F4F0196AADB43
:101AF0008AE68093590194E29093580191E2909381
:101B000057018093560180E88C832FE0E22E03E09A
:101B100026E043E060E0CE0101968ADD0F900F9051
:101B20000F900F90DF91CF910F91EF9008958F92CA
:101B30009F92AF92BF92DF92EF92FF920F931F930B
:101B4000CF93DF931092750110928A01FC012181DD
:101B5000220F220F220F3381231B57E0520F1092C6
:101B6000760110E070E038E0D32ED20EFF24F3941B
:101B700047E007E0E12CC7E0D0E0A1E0B0E0FD14D1
:101B800009F47FC0FC01EE0DF11D248130E0002E30
:101B900002C0359527950A94E2F721703327E22F8A
:101BA000002311F0015002C0E39407E06B3471F49C
:101BB000433009F04AC0111107C0E1115FC0109213
:101BC000750170938A0174C010E041C04F3F31F538
:101BD0006634A9F4E72FF0E0EA58FE4FE0810E2EBC
:101BE000E295E0250E2EE695E695E025EF5FE1FB18
:101BF000882480F8912C8216930641F004C0653445
:101C000029F4E11103C010937501DBCF7F5FE72F4B
:101C1000F0E0EA58FE4F108247E031C0EE2361F158
:101C2000663471F4E72FF0E0EA58FE4FA0809D0182
:101C3000042E01C0220F0A94EAF7A22AA0821CC037
:101C4000653439F06B34C1F404C04F3FD1F2EE2358
:101C500099F0E72FF0E0EA58FE4F9E01241B31096E
:101C600047FD33955D0102C0AA0CBB1C2A95E2F723
:101C700095013081322B3083415001C011E0F39443
:101C80007ECF1093750170938A015F1588F46534D7
:101C900031F44F3F21F47F5F70938A0104C080913B
:101CA00075018111F8CF81E090918A01911101C0F5
:101CB00080E0DF91CF911F910F91FF90EF90DF9027
:101CC000BF90AF909F908F90089510926F00809179
:101CD0008D0190E06CE170E00E94BE3082579E4F13
:101CE000FC011082809131038D7F80933103089530
:101CF000FC012181243108F0E8CF3381662381F093
:101D000081E090E0032E01C0880F0A94EAF7DF011A
:101D1000A20FB11D14969C911497982B14969C9326
:101D2000332319F031503383089587E083832F5F85
:101D30002183E20FF11D14820895DC011196EC91CC
:101D40001197F0E050E02C91CF01841B950B0B967E
:101D50004797A0F430E070E0C901861B970B0B9603
:101D6000479760F42E0F3F1F640F751F261B370B1C
:101D7000255F3F4F81E02731310508F080E008956D
:101D8000539A5B985298E9E6F0E080818061808305
:101D900082EC91E09093300380932F031092AA017C
:101DA0001092C6011092E2011092290308958091C9
:101DB0003203882321F00E9498050C947F050C942F
:101DC0008F05FC01218121110BC08091320336DA8D
:101DD00040E265E080912F0390913003BFD9BAC9EA
:101DE00041E062E373E001962DDAE1CF442339F05C
:101DF0004150FB01E40FF11D9081890FF7CF089549
:101E000020E0662339F06150FC01E60FF11D3081BE
:101E10002327F7CF822F0895A091750140E035E088
:101E200020E0662399F06150FC01E60FF11D50811E
:101E3000752F72957F702727370FAA2311F044233F
:101E400019F05F702527350F4F5FEBCF822F830F7F
:101E50008295807F822B0895FC0132812381A081AD
:101E6000B181A30FB11D8C9190E0022E02C0959517
:101E700087950A94E2F7817099274FEF420F4383C9
:101E8000211104C03F5F328327E023830895A2E03D
:101E9000B0E0EDE4FFE00C9404317C01A12CB12C06
:101EA000D12CCC24C394062F10E001501109A616A2
:101EB000F0F4C7014A836983CFDF4A8169818823AF
:101EC00091F0442349F098012A193B098C2D01C057
:101ED000880F2A95EAF706C08C2D0A2C01C0880FBE
:101EE0000A94EAF7D82A8FEFA81AB80AE0CF8D2D06
:101EF0002296EAE00C942031A4E0B0E0E2E8FFE0B2
:101F00000C9403311B8227E02C839C012C5F3F4FF4
:101F10003A83298310928A01FC01218130E043E059
:101F2000220F331F4A95E1F7438187E090E0841B3D
:101F30009109280F391F253431050CF44EC0B12CFE
:101F4000A0908A01F5E0FA1558F10A2D10E040E062
:101F500068E0CE0101969BDF0A581E4FF80180838E
:101F6000982E092C92949024092C9694969490245F
:101F7000CE01019671DF939491FACC24C0F8D12C54
:101F800090E0C816D90649F5CE01019665DF8111AA
:101F900024C0F8018081B826A394A0928A01D0CFF2
:101FA00040E068E0CE01019672DF082F182F012E65
:101FB00012951025012E169516951025CE01019625
:101FC0004BDF1F5F11FBEE24E0F8F12C282F30E0EF
:101FD000E216F30611F481E0B01280E02496EBE003
:101FE0000C941F31A5E0B0E0E8EFFFE00C9407315E
:101FF000FC011B8287E08C83CF0104969A8389833E
:102000008081853009F054C0218130E063E0220FE7
:10201000331F6A95E1F7438187E090E0841B9109C3
:10202000280F391F2039310509F042C010928A016A
:102030000FE010EF29E880918A01E82EF12CDD24D1
:10204000D394D80E41E068E08F3088F4CE01019639
:102050002D831DDF080F111DF701EA58FE4F2D815A
:102060002827208324E2280FD0928A01E4CFCE01D2
:1020700001960DDF080F111DD0928A01F701EA5871
:10208000FE4F8095808341E068E0CE010196FFDE3F
:1020900090E0982F8827081B190B41E068E0CE01DB
:1020A0000196F5DE282F30E081E00217130709F0D2
:1020B00080E02596E7E00C942331A4E0B0E0E3E66D
:1020C000F0E10C9409311B8227E02C839C012C5FEA
:1020D0003F4F3A832983FC0121812430A1F583817C
:1020E000813089F510928A0180918A01082F10E0D1
:1020F000FF24F394F80E41E0843098F4811106C077
:1021000067E0CE010196C3DE806804C068E0CE01BE
:102110000196BDDEF801EA58FE4F8083F0928A01F5
:10212000E3CF67E0CE010196B2DEF801EA58FE4F38
:10213000880F8083F0928A019091760192959F702A
:1021400081E09A3009F080E02496E5E00C94253196
:10215000CF93DF93FC0181818330E9F48381873061
:10216000D1F480818830B9F410928A0120E0822F66
:1021700090E0DC01AA58BE4FEF01C80FD91F8C8137
:102180008C9381E0820F833010F4282FF0CF80935E
:102190008A0181E001C080E0DF91CF910895FC01C8
:1021A000908180913103993611F0933751F4982F33
:1021B0009370913011F4826006C080FF07C08B7F5E
:1021C00003C080FD03C08460809331030895A1E0C3
:1021D000B0E0EDEEF0E10C940831198280915A01E3
:1021E0008823B9F18091320387FF17C084E30E94EE
:1021F000BC048058803458F0803C58F490E08055FE
:102200009109B3E095958795BA95E1F703C080E011
:1022100001C08FE08F590E945D088091320383FFD7
:1022200016C082E70E945D088091320384FF04C0DB
:1022300080915B010E945D0886E60E945D088091A6
:10224000320384FF04C080915A010E945D081092FD
:102250005A0180918B01882309F44CC2459A8091E0
:102260008C0190E06CE170E00E94BE308C0102575E
:102270001E4F8981811106C0C8016ADF882311F0D1
:1022800083E789838981811106C0C801ABDE882379
:1022900011F083E589838981811139C066E4C80121
:1022A00046DC8823A1F1F0908A01FA94F0928A0129
:1022B0004F2D66E771E086E099DDEF2DF0E0EA58FA
:1022C000FE4FE0808E1105C093E09F1510F486E468
:1022D0001BC0282F30E02F5F3F4F6E2D70E0261778
:1022E000370739F493E09F1520F496E499838083AF
:1022F0000EC04F2D66E771E08CE078DD8E1106C0D0
:10230000E3E0EF1518F484E5898301C0198289811F
:10231000811116C065E4C8010ADC882389F0809128
:102320008A01815080938A01893051F469E086E7FF
:1023300091E066DD90917F01891302C085E4898375
:102340008981811106C0C801D7DD882311F088E496
:1023500089838981811106C0C801AFDE882311F00D
:1023600084E789838981811133C0F801438D6091AD
:102370005B01C8014A96E1DC682FC801B9DC6BE457
:10238000C801D5DB8823B1F0F0908A01FA94F0926D
:102390008A016F2D86E791E03FDDEF2DF0E090910F
:1023A0007501E91BF109EA58FE4F9081891302C0BB
:1023B0008BE48983898181110BC0F801838191E0CD
:1023C000980F9383873021F4138281818150818318
:1023D000898181112DC0F8018181843049F5838183
:1023E000843031F54EE16CE3C8014896A6DC8823C1
:1023F000F9F04EE160915B01C8014A969EDC682FBE
:10240000C80176DC20E0822F90E0FC01EA58FE4F04
:10241000D801A80FB91F14968C91808381E0820F98
:10242000853010F4282FEFCF80938A0182E58983CD
:102430003981332309F4CAC02091320320FFC6C07A
:10244000809131038E7F8B7F8093310321FD64C0A7
:1024500050917401F0908A015F113DC040E0451732
:10246000C0F4842F90E061E0640FFC01E05AFE4F5D
:10247000DC01AA58BE4F70818C91781741F04093CF
:102480007401809131038D7F8093310304C0462F06
:10249000E6CF4093740145131EC040912B03509129
:1024A0002C0360912D0370912E0380915C0190911B
:1024B0005D01A0915E01B0915F01481B590B6A0B51
:1024C0007B0B463251056105710528F4809131037B
:1024D00081608093310340E04F1560F4842F90E0D9
:1024E000FC01E05AFE4FDC01AA58BE4F8C9180835C
:1024F0004F5FF2CF4093740180912B0390912C0396
:10250000A0912D03B0912E0380935C0190935D0107
:10251000A0935E01B0935F013435E9F426FD1BC042
:1025200080918A018530B8F0809178018B3471F008
:10253000893661F09DEA980F923040F08D578230D5
:1025400028F0809179018077803729F480913103D8
:10255000816080933103B801CE01019620DE809125
:10256000310382FF33C089810E945D08809175012B
:10257000882329F080918A01815080938A01F12C6F
:10258000E0918A01FE1648F4EF2DF0E0EA58FE4F84
:1025900080810E941E09F394F3CF809175018823F6
:1025A00051F0F0E0EA58FE4F80818F7040E361E027
:1025B00090E00E94E4088091320385FF05C084E327
:1025C0000E94BC040E941E090E94AA088091320346
:1025D00082FF77C080E70E945D08F801808140E2B9
:1025E00062E090E00E94AE08F801808D90E040E249
:1025F00065E074E0880F991F7A95E1F70E94AE08B4
:10260000F801818D90E040E265E0E4E0880F991FD9
:10261000EA95E1F70E94AE08F801828D90E040E271
:1026200065E0F4E0880F991FFA95E1F70E94AE0883
:10263000F801838D90E040E265E0A4E0880F991FE7
:10264000AA95E1F70E94AE08F801828140E263E0BA
:1026500090E00E94AE08F801818140E263E090E0E2
:102660000E94AE08F801238140E262E087E090E03A
:10267000821B91090E94AE0880E20E945D08809151
:10268000320385FF08C084E30E94BC040E941E0937
:1026900080E20E945D08F8018381873019F0818112
:1026A0008F5F8183F12CF8018181F81640F4F801E5
:1026B000EF0DF11D84810E941E09F394F4CF0E9456
:1026C000AA08F801108280918B01815080938B01C0
:1026D00080918C018F5F843019F080938C0102C04F
:1026E00010928C0145988981843521F486E791E028
:1026F0000E94E32A2196E6E00C9424311F920F9267
:102700000FB60F9211242F933F934F935F936F93C4
:102710007F938F939F93AF93BF93EF93FF93109209
:102720006F008091320383FF03C08EE20E945D0838
:1027300040918D01242F30E0C9016CE170E00E94CE
:10274000BE3082579E4FFC018081833018F081811A
:10275000823010F4BADA18C080918B01833049F4CA
:102760008091320382FFF6CF87E592E00E949D08B8
:10277000F1CF8F5F80938B014F5F443019F040930E
:102780008D0102C010928D01FF91EF91BF91AF9129
:102790009F918F917F916F915F914F913F912F9179
:1027A0000F900FBE0F901F9018959BED980F9731CB
:1027B00050F496EF960F9D3130F491E0681708F0D1
:1027C00090E0892F089580E008951F920F920FB630
:1027D0000F921124FF920F931F932F933F934F93C8
:1027E0005F936F937F938F939F93AF93BF93CF9399
:1027F000DF93EF93FF938091D503882321F082E04C
:102800008093D50365C180917F03823021F483E0FA
:1028100080937F035DC10091840010918500B4E036
:1028200016950795BA95E1F780918D0190E06CE1DE
:1028300070E00E94BE30EC01C257DE4F88818430C8
:1028400031F40E3208F444C10F3448F0B6C085307C
:1028500031F4073108F43CC1083208F0AEC04A999F
:102860000DC08450823038F461E0CE0141DA10921C
:1028700085001092840000935B012AC180915B0166
:10288000081B00935A0110928500109284009881D1
:10289000983071F42A8121110BC021E02A83888F9E
:1028A0008A8F098F0B3B10F4000F01C006950B8F28
:1028B0009450923020F460E0CE011ADA09C182E02F
:1028C00086BBF880F11011C090915B01953608F03D
:1028D000FFC080915A01853608F0FAC0988F898F21
:1028E00081E08A8382E08883F3C010915A0182E0FC
:1028F000F81273C000915B01412F602FCE01489602
:102900001CDA6A818823F9F0488D50E09A01220F81
:10291000331F240F351F200F311D35952795359511
:102920002795288F298D30E0C901880F991F820FC4
:10293000931F810F911D9595879595958795898F03
:102940006F5F6A83C5C0643008F445C020EA3FE089
:1029500030938900209388008A818C3050F0888DD4
:10296000298D30E0280F311D2536310524F084E013
:1029700027C08A3088F0888D298D30E0280F311DDE
:10298000253231054CF485E0888328EE33E030931E
:1029900089002093880015C080913803882379F03E
:1029A000612F802F02DF882351F0688D898DFDDE35
:1029B000882329F081E080937F0387D989C083E051
:1029C00088830A8F1B8F198287E08B831C8282E0A9
:1029D00080936F007DC0188277CF88E0F81225C001
:1029E00081E9810F8D3178F460E0CE0181D9288DA5
:1029F00030E0C901880F991F820F931F20915B015E
:102A0000820F911D4EC0173E08F462C061E0CE01F6
:102A10006FD92A8D30E0C901880F991F820F931F4B
:102A200020915B01820F911D15C000915B01412F28
:102A3000602FCE014A9681D9882301F161E0CE0151
:102A400057D92A8D30E0C901880F991F820F931F33
:102A5000800F911D95958795959587958A8F2B8DDC
:102A600030E0C901880F991F820F931F810F911DBC
:102A700095958795959587958B8F2AC0412F602FC7
:102A8000CE0148965AD9882301F160E0CE0130D9B1
:102A9000288D30E0C901880F991F820F931F800F86
:102AA000911D9595879595958795888F298D30E00F
:102AB000C901880F991F820F931F810F911D959552
:102AC000879595958795898F03C087E0F81275CF14
:102AD000FF91EF91DF91CF91BF91AF919F918F9136
:102AE0007F916F915F914F913F912F911F910F9126
:102AF000FF900F900FBE0F901F90189580918D0141
:102B000090E06CE170E00E94BE3082579E4FFC0165
:102B10008081811107C081E09091C4039F3F19F427
:102B200080E0089581E0089580E690E00E947D09AC
:102B30008093380381E690E00E947D0980938903A9
:102B4000882321F081E28093320331C908955B9A92
:102B50000C94F3075B980C94F307A7E0B0E0E3EB69
:102B6000F5E10C94073190914103943559F420918B
:102B70008203309183032F5F3F4F30938303209371
:102B800082033EC0963459F4209180033091810332
:102B90002F5F3F4F309381032093800331C09534E2
:102BA00059F420913503309136032F5F3F4F309316
:102BB00036032093350324C09B3459F420918503B8
:102BC000309186032F5F3F4F309386032093850318
:102BD00017C0983459F420918703309188032F5FF0
:102BE0003F4F30938803209387030AC0209133031B
:102BF000309134032F5F3F4F3093340320933303DE
:102C000095E79983882399F0BE016E5F7F4F80918D
:102C100089030E946509BE016C5F7F4F8091380374
:102C20000E94650985E58E8386E0D82E02C0DD24EA
:102C3000D3940E9498050E946D0516E080E891E00B
:102C400086DF80E093E086DF1150C1F780E093E0FB
:102C50007EDF80E891E07EDF80E891E078DF5B98BE
:102C600087E390E00E940F0583E00E94F807289810
:102C70008FE70E94450480913B038D0D0E9445041F
:102C8000CE0101967C018C01F80181918F010E9497
:102C90004504802F8E198D15B8F380913B0388234E
:102CA00039F089E393E00E94BD0A0E944504F5CF04
:102CB000289A0E946D0589E393E00E94A20A15E11B
:102CC0008AE30E94BC048F7731F0115021F081E03B
:102CD0000E94F807F5CF6BD82796E7E00C942331D4
:102CE000CF93DF93EC018981811107C08091380374
:102CF0000E941E098091890313C08436A1F480913B
:102D00002B0390912C03A0912D03B0912E0340E34F
:102D100064E00E94E4088EE20E945D0880917E03D8
:102D20000E941E094DC0833709F04DC040E361E0A9
:102D300080918203909183030E94E4088EE20E94B6
:102D40005D0840E361E080918003909181030E94DF
:102D5000E4088EE20E945D0840E361E08091350363
:102D6000909136030E94E4088EE20E945D0840E3E1
:102D700061E080918503909186030E94E4088EE2D1
:102D80000E945D0840E361E0809187039091880391
:102D90000E94E4088EE20E945D0840E361E08091B9
:102DA0003303909134030E94E4088EE20E945D0890
:102DB00040E361E080917C0390917D030E94E408F0
:102DC0000E94AA082CC08936D9F441E068E373E078
:102DD000CE0102960E9422096091380380E690E0BD
:102DE0000E94780941E069E873E0CE0104960E94F0
:102DF00022096091890381E690E00E9478090FC062
:102E000089E393E00E94A20A21966991662329F042
:102E100089E393E00E94A70AF8CF80E09EDEDF916D
:102E2000CF910895A1E0B0E0E8E1F7E10C9406311C
:102E300080917F03882309F486C0C0902B03D09033
:102E40002C03E0902D03F0902E03833009F061C035
:102E50008FE30E94BC04182F8630C8F089E194E00B
:102E60000E94A20A28988FEF0E94450480E00E94E9
:102E70004504082F115049F080E00E944504682F56
:102E800089E194E00E94A70AF5CF289A01C000E0EA
:102E90000E94D70E10927F03053709F054C041E01D
:102EA000BE016F5F7F4F8CE194E00E942209019781
:102EB00059F5998180913803981326C08091200498
:102EC000853571F480911B04882339F089E194E001
:102ED0000E94BD0A0E945D08F5CF0E94AA0833C077
:102EE00080911B04845080931B0484E080931A0417
:102EF0006AE089E194E00E94A70AE0912703F0913B
:102F0000280388E009951FC089E194E00E94A20A85
:102F10001AC0823059F4809137039C2D981B983049
:102F200090F00E94D70E10927F030DC0813059F4AB
:102F300087E390E00E940F050E947F0582E0809366
:102F40007F03C09237032196E8E00C942231D6DD4E
:102F5000882361F083E08093840380917C039091C7
:102F60007D03019690937D0380937C03809184037D
:102F7000815080938403882321F083E080937E0333
:102F8000089581E0EACDCF93DF93EA98209A289ABA
:102F90008EE190E00E94F30728988EE190E00E9475
:102FA000F307289A8DE290E00E94F30780E30E94E5
:102FB0000B0584E690E00E94F307CEE7D2E0FE0125
:102FC00031966491FE0184910E94F9042296F2E008
:102FD000C03BDF07A1F78091FF01811107C083E3A8
:102FE0000E940B0584E00E94F8070FC0C8E6D2E0FB
:102FF000FE0131966491FE0184910E94F9042296AB
:10300000F2E0CE37DF07A1F7EACF84E30E940B0599
:1030100085E30E94BC048D30C1F7DF91CF91089504
:10302000A2E3B0E0E6E1F8E10C940A318091FE0100
:10303000882309F4A1C04A9B8AC08FE30E94BC0484
:103040008F778983823368F08AE30E940B0586E3D9
:103050000E940B058DE30E940B0584E30E940B0583
:103060008BC028988FEF0E94450410E089811817C3
:1030700060F480E00E944504E2E0F0E0EC0FFD1F08
:10308000E10FF11D80831F5FF1CF80E00E944504B6
:10309000082F80E00E944504289A84E30E940B05D3
:1030A00085E30E94BC048D30C1F72A8196E7922700
:1030B0009A8392E08981E92FF0E0981768F441E063
:1030C00050E04C0F5D1FE40FF51F30812452232781
:1030D00020839F5F232FEECF81E090E08C0F9D1F18
:1030E000E80FF91F90818B8198279083809132039C
:1030F00084FF12C081E60E945D0810E0898181177B
:1031000030F1E1E0F0E0EC0FFD1FE10FF11D8081F7
:103110000E945D081F5FF2CF81E40E945D0810E00D
:103120008981811758F0E1E0F0E0EC0FFD1FE10F1D
:10313000F11D80810E941E091F5FF2CF8091320332
:1031400085FF03C0802F0E941E090E94AA0885E304
:103150000E94BC04813029F0813161F48AE30E942D
:103160000B0586E30E940B058DE30E940B0584E3AB
:103170000E940B050E94DF05E296E4E00C942631E4
:103180008F929F92AF92BF92DF92EF92FF920F9336
:103190001F93CF93DF93CDB7DEB7EA970FB6F894BE
:1031A000DEBF0FBECDBF41E38E010F5F1F4FB801E1
:1031B00001960E9422097C0199270197298130E01C
:1031C0008217930709F0A3C08091FE01811104C00A
:1031D000DADE83E00E94F807DB808A8196E78927A0
:1031E0008A8322E03981822F90E0F801E80FF91FED
:1031F000231750F4DE01A80FB91F8C9184529081DF
:10320000892780832F5FEECF80818D258083CE013B
:10321000C7960E94FA0685E30E940B0585E30E948B
:10322000BC04833181F1CE01C3960E94FA064BA9FA
:103230005CA96DA97EA98FA998ADA9ADBAAD841777
:103240009507A607B70760F44A015B01881A990A37
:10325000AA0ABB0A2DEB82169104A104B10470F4F2
:10326000481759076A077B0770F484549F4FAF4F84
:10327000BF4F84179507A607B70728F48EE592E09D
:103280000E949D0827C085E30E94BC04833119F683
:10329000D4FE08C088E70E94F80788E70E94F80774
:1032A00088E701C08AE00E94F80728988FE70E940B
:1032B000450458018A2D801B8E1530F4F50181914B
:1032C0005F010E944504F6CF289A85E30E94BC0462
:1032D0008331D9F385E30E94BC04863149F48BE342
:1032E0000E940B0586E30E940B058DE30E940B05EF
:1032F0008091FE01882349F084E30E940B0585E359
:103300000E94BC048D30C1F702C00E94D70EEA961D
:103310000FB6F894DEBF0FBECDBFDF91CF911F91E6
:103320000F91FF90EF90DF90BF90AF909F908F90A4
:103330000895FC012181223731F0223559F481E0D2
:103340008093FF0102C01092FF011DDE81E0809397
:10335000FE010895233711F4019612CF1092FE0159
:103360000895CF93DF93EA98209A289A8EE190E00F
:103370000E94F30728988EE190E00E94F307289AB4
:103380008DE290E00E94F30780E30E940B0584E643
:1033900090E00E94F307C9ECD2E0FE0184918134F1
:1033A00040F083E30E940B0584E00E94F807CFEF12
:1033B0000DC0FE0131966491FE0184910E94F904D2
:1033C0002296F3E0C530DF0741F7EBCF84E30E949C
:1033D0000B058AE090E00E94F307C150B9F781E045
:1033E00080930002DF91CF910895EF92FF920F93A7
:1033F0001F93CF93DF93EC018B01F880F394611559
:10340000710519F0E4E6F0E002C0E0E0F0E08F2D95
:1034100090E023E0880F991F2A95E1F76AE070E0B9
:103420000E94E3309B012E0F3F1FC901AA2797FD81
:10343000A095BA2FE0912F03F0913003AF0160E027
:1034400070E0481759076A077B0728F489EB92E078
:103450000E949D08D9C0E21BF30BF0933003E09368
:103460002F0380910002811101C07BDF85E30E9460
:10347000BC048D3071F08AE50E945D0885E40E94ED
:103480005D0882E50E945D0882E50E945D0881E397
:103490004CC08091010290910202A0910302B09170
:1034A0000402892B8A2B8B2B51F50E946D0585E335
:1034B0000E94BC04833109F443C08AE50E945D0880
:1034C00085E40E945D0882E50E945D0882E50E9415
:1034D0005D0882E32AC080912B0390912C03A09178
:1034E0002D03B0912E034F5F5F4F6F4F7F4F8417B7
:1034F0009507A607B707C9F681E00E94F8078091F3
:103500002B0390912C03A0912D03B0912E03409199
:10351000010250910202609103027091040284172B
:103520009507A607B707B9F6E7CF0E945D0885E3C0
:103530000E94BC040E941E090E94AA0812DF64C0F7
:10354000012B41F428988FE70E944504EC2E0C2FA4
:103550001D2F0BC00AE010E084E60E94F80701501E
:10356000110901151105C1F7EDCF802F8E198F15A7
:1035700030F4F80181918F010E944504F6CF289A1A
:10358000C8EC85E30E94BC048D30E9F485E30E9419
:10359000BC048D3019F18AE50E945D0885E40E9423
:1035A0005D0882E50E945D0882E50E945D0883E374
:1035B0000E945D0885E30E94BC040E941E090E94CF
:1035C000AA08CFDE0BC085E30E94BC048331F1F66C
:1035D00081E00E94F807C150A1F6D8CF8091000287
:1035E000811102C00E94D70E80912B0390912C0371
:1035F000A0912D03B0912E038093010290930202BB
:10360000A0930302B0930402CDB7DEB7E6E00C94BA
:103610002431ACE0B0E0EFE0FBE10C940B31FC01B5
:103620008BE0898381818A831B8282E08C838781FE
:103630008D8380858E8381858F8384818887858132
:10364000898786818A871B861C8684E10E94F80709
:1036500060E070E0CE010196C8DE8AE50E945D0858
:1036600010E0812F90E0298130E0281739075CF0C5
:10367000E1E0F0E0EC0FFD1FE80FF91F80810E94F0
:103680001E091F5FEECF8091320385FF03C080E0EB
:103690000E941E090E94AA082C96E3E00C94273190
:1036A000CF93DF93EC0180910802811108C09091C3
:1036B0000902911104C090910A029923A9F09B81FB
:1036C000903319F09F7E903479F49F8198130CC049
:1036D000988580910902981307C0998580910A0204
:1036E000981302C0CE0195DF80910502811108C0B8
:1036F00090910602911104C0909107029923A9F0BC
:1037000098819B3091F49B81903479F49F81981338
:103710000CC0988580910602981307C09985809106
:103720000702981302C0CE0174DFDF91CF91089594
:10373000AEE1B0E0EEE9FBE10C940A3180910002C9
:10374000882309F469C04A9B59C08FE30E94BC04D6
:103750008F778E3108F08DE1898328988FEF0E9452
:10376000450410E08981181760F480E00E94450448
:10377000E2E0F0E0EC0FFD1FE10FF11D80831F5F21
:10378000F1CF80E00E944504082F80E00E944504AC
:10379000289ACE01019684DF8091320384FF12C003
:1037A0008AE70E945D0810E089818117A8F1E1E0B5
:1037B000F0E0EC0FFD1FE10FF11D80810E945D081C
:1037C0001F5FF2CF8AE50E945D0810E089818117B2
:1037D00058F0E1E0F0E0EC0FFD1FE10FF11D8081FA
:1037E0000E941E091F5FF2CF8091320385FF03C044
:1037F000802F0E941E090E94AA080EC085E30E9425
:10380000BC04813149F48AE30E940B0586E30E94DF
:103810000B0584E30E940B056E96E4E00C942631C0
:10382000AEE1B0E0E6E1FCE10C940A318C01FC0170
:103830008181823711F495DD36C0833711F08636E9
:1038400001F54DE1BE016F5F7F4FC80102960E94F6
:10385000220999270197298130E08217930729F0DF
:1038600080EB92E00E949D081EC061E070E0F801CC
:103870008181833711F060E070E0CE010196B5DD03
:1038800012C0813621F443E068E072E005C087375A
:1038900041F443E065E072E0C80102960E9422090B
:1038A00002C0109200026E96E4E00C942631A0E073
:1038B000B0E0EDE5FCE10C940731D82EEA98209AAF
:1038C00010920B02289A8EE190E00E94F30728984C
:1038D0008EE190E00E94F307289A8DE290E00E942A
:1038E000F30780E30E940B0584E690E00E94F30753
:1038F0008FEF8D0D833008F03EC0CDE5D3E0FE01A3
:103900008491813480F08D2D90E064E170E00E941C
:10391000BE30C0E0D0E09C01235F3C4F79018C01B8
:10392000025F1C4F19C0FE0131966491FE01849123
:103930000E94F9042296F3E0C939DF0701F7E3CFCB
:10394000F801EC0FFD1F6491F90184910E94F904C4
:103950002296C431D10539F097012C0F3D1FF90192
:103960008491813468F383E30E940B05D0920B02AB
:1039700081E00E94F807CDB7DEB7E7E00C94233171
:10398000CF93DF9380910B028823B1F14A9B21C032
:1039900086E30E940B058BE30E94BC04D82FDF77DF
:1039A00059F128988FEF0E9445048EE40E945D082B
:1039B00080910B020E941E09C0E080E00E94450435
:1039C0000E941E09CF5FCD13F8CF289A0E94AA0843
:1039D00013C085E30E94BC04813011F0813161F491
:1039E0008AE30E940B0586E30E940B058DE30E948B
:1039F0000B0584E30E940B05DF91CF910895A1E0B0
:103A0000B0E0E5E0FDE10C940C311982FC0121816C
:103A10002237A9F42281222331F0BE016F5F7F4F4C
:103A200002960E944F0989819FEF980F933028F0EA
:103A300085E093E00E949D0813C039DF0BC0283752
:103A400049F480910B02882319F086E30E940B054C
:103A500010920B0280910B020E941E090E94AA087C
:103A60002196E2E00C9428310E947F05EA9808959F
:103A7000CF93DF93209A289A8EE190E00E94F3077B
:103A800028988EE190E00E94F307289A8DE290E05A
:103A90000E94F30780E30E940B0584E690E00E94F9
:103AA000F307CBE8D3E0FE0131966491FE018491E7
:103AB0000E94F9042296F3E0C33CDF07A1F783E3F9
:103AC0000E940B0584E00E94F807CEDFDF91CF91C2
:103AD0000895FC01908180918A03981314C091810C
:103AE00080918B0398130FC0928180918C0398135F
:103AF0000AC0938180918D03981305C081E02085D1
:103B000090918E03291380E008952FEF662339F0FA
:103B10006150FC01E60FF11D30812327F7CF822F82
:103B20000895CF92DF92FF920F931F93CF93DF936D
:103B30001F92CDB7DEB7082F162F459A86E09983DE
:103B40000E94F9040E946D0528988FE70E944504A1
:103B5000F02EC02E9981D92E8C2D8F19811738F413
:103B6000F60181916F0180950E944504F5CF289A56
:103B700085E30E94BC048331D9F36FEF86E00E9495
:103B8000F90472DF45980F90DF91CF911F910F914B
:103B9000FF90DF90CF900895ACE3B0E0E2EDFDE15F
:103BA0000C94033180910C02882309F49CC04A9B39
:103BB0009AC0459A28988FEF0E9445048E010F5FA6
:103BC0001F4F6E0189E0C80ED11C780180E00E9471
:103BD00045048095F70181937F01EC15FD05B1F750
:103BE000289AD88487EF8D0D843310F041DF7BC095
:103BF0006D2D86E00E94F90484E3B82E98E0C92E6A
:103C0000ED2CF12C8CED90E00E94F3078BE30E94E9
:103C1000BC04A82E882319F128988FEF0E94450430
:103C20002A2D30E02C0D311DE216F306FCF2AC0C0F
:103C3000CA1469F0992493949C0C80E00E94450476
:103C4000F801EC0DF11D80958083C92CF1CF289AE5
:103C5000CD1428F080910C028D3621F413C0BA9453
:103C600089F6F8CFC80135DF811102C0C12C1BC015
:103C70006FEF6D0DC80149DFFE01ED0DF11D908163
:103C80008913F4CFCC24C3948AE70E945D0878019D
:103C9000F70181917F010E941E098E2D801B8D15D9
:103CA000B8F30E94AA0880910C028237B1F4CC20AC
:103CB000A1F08D81898780918E038D8383E08E832F
:103CC0008AE0888769E0C80120DF8A8781E00E9456
:103CD000F8076AE0C80125DF05C06FEF86E00E94A3
:103CE000F904C2DE4598EC96EBE00C941F31ACE38E
:103CF000B0E0EDE7FEE10C940C314CE3BE016F5FE8
:103D00007F4F02960E942209682FCE01019609DF9B
:103D1000EC96E2E00C942831CF93DF93EC0189819B
:103D2000823711F08D3629F4A3DE898180930C024D
:103D30002EC0833719F4CE01DADF29C0893629F580
:103D40008A81882341F045E06AE873E0CE0102965B
:103D50000E9422091CC080918A030E941E09809142
:103D60008B030E941E0980918C030E941E09809182
:103D70008D030E941E0980E20E945D0880918E03DF
:103D80000E941E090E94AA0802C010920C02DF9134
:103D9000CF910895CF93DF93EA98209A289A8EE1E5
:103DA00090E00E94F30728988EE190E00E94F307CC
:103DB000289A8DE290E00E94F30780E30E940B05B1
:103DC00084E690E00E94F307289880E40E9445046E
:103DD000C3ECD3E0FE0184910E9445042196F3E0F8
:103DE000C03DDF07B9F7809108010E94450480912A
:103DF00009010E94450480910A010E944504C0E027
:103E0000D0E0FE01ED52FC4F84910E9445042196C2
:103E1000C931D105B1F7289A28988EE70E94450448
:103E20008BE290E0EC0121960E947D090E944504FE
:103E3000C333D10511F0CE01F5CF289A83E30E9458
:103E40000B0581E00E94F80781E080932903DF9150
:103E5000CF910895AF92BF92CF92EF92FF920F93BE
:103E60001F93CF93DF93EC018981843769F46FE06E
:103E700071E0CE0102960E944F0940E260E080911D
:103E80000F019091100112C0833709F07CC18A8123
:103E9000823789F46BE071E0CE0103960E944F09EE
:103EA00040E260E080910B0190910C010E94AE080D
:103EB0000E94AA08D3C1459A80910F02811116C0B1
:103EC0008091FE01882329F081E080930E021092F8
:103ED000FE0180910002882329F081E080930D0289
:103EE0001092000257DF83E00E94F80786E30E94E9
:103EF0000B058AE30E940B058BE30E940B050E94D1
:103F00006D05FE0101900020E9F70E2F0C1B0250F9
:103F1000C12C7E01E2E0EE0EF11C80910B0190912C
:103F20000C012C2D332727FD30952817390708F071
:103F3000ECC0013291F45B9A80910F0190911001D5
:103F40000E94F3075B9880910D0190910E016AE049
:103F500070E00E94BE300E94F307570111E0101775
:103F60000CF0ACC0F50181915F015B9A803309F0E0
:103F700040C00132E1F480910D0190910E010E9448
:103F8000F3075B9880910D0190910E010E94F30759
:103F90005B9A80910D0190910E010E94F3075B984E
:103FA00080910D0190910E0165E070E01FC080913D
:103FB0000F01909110010E94F3075B9880910F010F
:103FC0009091100163E070E00E94BE300E94F30700
:103FD0005B9A80910F01909110010E94F3075B980A
:103FE00080910F019091100163E070E00E94BE305B
:103FF00061C0813311F5013281F480910D019091FE
:104000000E010E94F3075B9880910D0190910E01C3
:1040100065E070E00E94BE301DC080910F0190915C
:10402000100163E070E00E94BE300E94F3075B98CD
:1040300080910F01909110012BC00132D1F4809139
:104040000D0190910E010E94F3075B9880910D0184
:1040500090910E010E94F3075B9A80910D0190915F
:104060000E010E94F3075B9880910D0190910E0163
:1040700021C080910F01909110010E94F3075B987D
:1040800080910F019091100163E070E00E94BE30BA
:104090000E94F3075B9A80910F019091100163E0F9
:1040A00070E00E94BE300E94F3075B9880910F0180
:1040B000909110010E94F3071F5F51CF5B9A01326C
:1040C00091F480910D0190910E010E94F3075B988D
:1040D00080910D0190910E0168E270E00E94BE3067
:1040E0000E94F30710C080910F01909110010E946F
:1040F000F3075B981FE180910F01909110010E94DE
:10410000F3071150C1F7C39408CF80910F028823A1
:1041100041F08091320381110FC086E30E940B05AC
:1041200018C080910E02882351F010920E020E9456
:10413000C31781E08093FE010E947F050AC0809131
:104140000D02882321F010920D020BD902C00E94AB
:10415000D70E459889E60E945D0883E70E945D08B6
:1041600011E010170CF0A4CEFE01E10FF11D17FDB8
:10417000FA958181803319F0813309F086E40E9439
:104180005D081F5FEECF8237B9F48091FE0188236E
:1041900029F081E080930E021092FE0180910002CE
:1041A000882329F081E080930D0210920002F2DD55
:1041B00081E080930F0252C0863651F58A818033A8
:1041C00051F480E18093080180EB8093090181E73D
:1041D00080930A0107C043E068E071E0CE010296D7
:1041E0000E94220989E60E945D0886E60E945D0819
:1041F0008AE30E945D08809108010E941E09809157
:1042000009010E941E0980910A010E941E0950CED8
:10421000883721F580910E02882341F010920E021A
:104220000E94C31781E08093FE0110C080910D02AF
:10423000882321F010920D0294D80EC082E090E005
:104240000E940F0580913203882319F00E947F0598
:1042500003C086E30E940B0510920F02DF91CF91FD
:104260001F910F91FF90EF90CF90BF90AF90089566
:10427000A2E0B0E0EEE3F1E20C94FF307C01FC013F
:104280008181833709F09DC1198287E090E00E9407
:1042900033318C0141E0BE016F5F7F4FC701029651
:1042A0000E9422098981F801808341E0BE016F5F8D
:1042B0007F4FC70104960E9422092981207FF801BF
:1042C000218341E0BE016F5F7F4FC70106962A83BD
:1042D0000E9422098981F801828341E0BE016F5F5B
:1042E0007F4FC70108960E9422098981F8018383C4
:1042F00041E0BE016F5F7F4FC7010A960E9422090D
:104300008981F801868341E0BE016F5F7F4FC7015D
:104310000C960E9422098981F801858341E0BE0143
:104320006F5F7F4FC7010E960E9422098981F801B5
:10433000848380E090E02A814191342F32953F7050
:10434000342783279F5F9730B9F78F70822BF8014E
:10435000818387E090E00E9433315C0187E0F801BF
:10436000D50101900D928A95E1F7D8011196C80107
:104370000696F8013D91219123272083E817F9073C
:10438000C9F7459A80911202811160C08091FE01A7
:10439000882329F081E0809311021092FE01809120
:1043A0000002882329F081E080931002109200021D
:1043B000EA98209A289A8EE190E00E94F3072898C4
:1043C0008EE190E00E94F307289A8DE290E00E942F
:1043D000F30780E30E940B0584E690E00E94F30758
:1043E000289880E40E9445046CEEE62E63E0F62EE9
:1043F000F70184910E944504FFEFEF1AFF0A25E1BF
:10440000E21624E0F206A1F7289A28988EE70E9487
:1044100045048BE290E07C01EFEFEE1AFE0A0E9469
:104420007D090E944504F3E3EF16F10411F0C70182
:10443000F2CF289A83E30E940B0581E00E94F807DF
:1044400081E08093290383E00E94F80786E30E94BD
:104450000B058AE30E940B058BE30E940B050E946B
:104460006D055B9A87EC94E20E94F3075B9889E5FF
:104470000E94F80785E392E00E94F307712C809177
:10448000150190E0272D332727FD30952817390790
:104490000CF057C0711002C022E001C027E0F12CDF
:1044A0005B9A86EF99E02A830E94F3075B9886EF78
:1044B00099E00E94F307F3942A81F2168CF35B9A39
:1044C0008CEF92E10E94F3075B988091110190912B
:1044D00012010E94F3076801612CF60181906F01BF
:1044E00048E0542E50E8E52EF12C912CC70188218C
:1044F0009921892B49F45B9A8091110190911201C5
:104500000E94F3075B9808C05B988091110190911D
:1045100012010E94F3075B9A8091110190911201A0
:104520000E94F307F694E7945A9401F76394F7E036
:104530006F12D3CF5B9880E090E00E94F3077394F2
:104540009ECF80911202882341F080913203811125
:104550000FC086E30E940B0519C0809111028823C9
:1045600051F0109211020E94C31781E08093FE0166
:104570000E947F050BC080911002882329F01092C1
:1045800010020E94B11902C00E94D70E459889E519
:104590000E945D0883E70E945D087501D12CF70138
:1045A00081917F010E941E09D394F7E0DF12F7CFBB
:1045B0000E94AA08C5010E94CB31C8010E94CB31DC
:1045C0006FC08237A9F465E171E0C70102960E94CD
:1045D0004F0989E50E945D0882E70E945D088AE331
:1045E0000E945D088091150140E260E090E02CC0DF
:1045F000843779F5F7018281803339F488ED94E0CE
:10460000909314018093130106C063E171E0C70128
:1046100002960E944F098091130190911401969582
:104620008795909312018093110189E50E945D089E
:1046300084E70E945D088AE30E945D0840E266E02C
:1046400080911301909114010E94AE080E94AA0863
:1046500027C0883729F580911102882341F01092F4
:1046600011020E94C31781E08093FE0111C0809166
:104670001002882329F0109210020E94B1190EC076
:1046800082E090E00E940F0580913203882319F0A8
:104690000E947F0503C086E30E940B051092120260
:1046A0002296EFE00C941B31CF93DF93EA98209A87
:1046B000289A8EE190E00E94F30728988EE190E01E
:1046C0000E94F307289A8DE290E00E94F30780E3AE
:1046D0000E940B0584E690E00E94F307289880E48E
:1046E0000E944504C9EAD6E0FE0184910E94450477
:1046F0002196F6E0C23DDF07B9F7289A28988EE7A1
:104700000E9445048BE290E0EC0121960E947D0915
:104710000E944504C333D10511F0CE01F5CF289A8C
:1047200083E30E940B0581E00E94F80781E08093FB
:10473000290380932502DF91CF910895A0E0B0E096
:10474000E4EAF3E20C9405318C0180918F03F801C7
:10475000838364839DE0E92EF12C0E946D0585E33F
:104760000E94BC04833169F08CE996E00E949D08A8
:1047700085E30E94BC040E941E090E94AA0894DFDF
:1047800049C040912B0350912C0360912D037091EF
:104790002E03409390035093910360939203709380
:1047A000930328988FE70E9445046801C0E0D0E099
:1047B0008AEAB82EF60180810E944504C930D105ED
:1047C00044F4F6018081B826C730D10511F4F80110
:1047D000B0862196FFEFCF1ADF0ACF30D10551F70F
:1047E000289AC8EC85E30E94BC04833169F081E01B
:1047F000E81AF108E114F10409F0AFCF80918F03BA
:104800008F5F80938F0306C081E00E94F807C1503C
:1048100049F7EDCFCDB7DEB7E9E00C942131ABE33A
:10482000B0E0E5E1F4E20C9402317C01FC0101907E
:104830000020E9F7AF0141505109481B590B6C01A9
:10484000F2E0CF0ED11CBE01625D7F4FC6010E9417
:104850002209082F6DE471E087E191E00E94A63300
:10486000F70111818DE8810F823008F0D7C181E016
:104870008093230287858A3411F489E501C08EE490
:104880008093160180902B0390902C03A0902D0311
:10489000B0902E0340912B0350912C0360912D0377
:1048A00070912E0340939003509391036093920371
:1048B0007093930380911601893509F050C080E907
:1048C00096E00E949D0889E796E00E949D08C70136
:1048D0000E94920884E696E00E949D08F7010190EC
:1048E0000020E9F7319740E260E0CF018E199F097F
:1048F0000E94AE088CE196E00E949D08F7010190AD
:104900000020E9F73197808140E260E090E00E946A
:10491000AE0884ED95E00E949D0840E260E0802FA3
:1049200090E00E94AE0881ED95E00E949D088AEB20
:1049300095E00E949D0840E364E08091920390918D
:1049400093030E94E40840E364E080919003909117
:1049500091030E94E40887EB95E00E949D08F7010F
:1049600001900020E9F77197EE15FF0509F03DC1B0
:1049700042E0BE01625D7F4FC6010E94220902979C
:1049800009F033C191DE0EA5B701665F7F4F45E0A8
:1049900050E0CE0101960E94AD331E824AE050E005
:1049A00060E070E0CE0101960E945A326B017C01FA
:1049B00023E0F694E794D794C7942A95D1F7809191
:1049C00016018935F1F480EA95E00E949D08CE0138
:1049D00001960E94920889E995E00E949D0882E86C
:1049E00095E00E949D0840E364E0C7010E94E4084E
:1049F00040E364E0C6010E94E4088AE795E00E9473
:104A00009D088FE0EBE3F1E0DE015F9601900D92EF
:104A10008A95E1F78FA588A388A989A389A98EA380
:104A2000602FCE014F968ADE133709F4EEC007FFE0
:104A3000ECC040919003509191036091920370916A
:104A4000930380912B0390912C03A0912D03B0919F
:104A50002E0388199909AA09BB098E379105A1056A
:104A6000B10548F480902B0390902C03A0902D0367
:104A7000B0902E03A89580912B0390912C03A091C8
:104A80002D03B0912E03841B950BA60BB70BC816F4
:104A9000D906EA06FB06A8F680902B0390902C031B
:104AA000A0902D03B0902E0380911601893509F056
:104AB00073C083E695E00E949D0840E364E0C50171
:104AC0000E94E40840E364E0C4010E94E4088BE52E
:104AD00095E00E949D0884E495E00E949D0840E3D3
:104AE00064E080919203909193030E94E40840E374
:104AF00064E080919003909191030E94E4088CE31C
:104B000095E00E949D0885E295E00E949D0840E3A3
:104B100064E0C7010E94E40840E364E0C6010E942B
:104B2000E4088DE195E00E949D0886E095E00E94F2
:104B30009D0880912B0390912C03A0912D03B0919F
:104B40002E034091900350919103609192037091D4
:104B50009303841B950BA60BB70B40E364E0CD01D8
:104B60000E94E40880912B0390912C03A0912D03C7
:104B7000B0912E032091900330919103821B930BEF
:104B800040E364E00E94E4088EEF94E00E949D08F8
:104B900085EF94E00E949D0867EFCE014F96CEDD31
:104BA000409190035091910360919203709193030F
:104BB00080912B0390912C03A0912D03B0912E0393
:104BC000841B950BA60BB70B4597A105B10580F388
:104BD00080911601893521F48CEE94E00E949D08A5
:104BE00067EFCE014F96AADD10C087EC94E00E94DB
:104BF0009D0840E260E08EE090E00E94AE0883EA0B
:104C000094E00E949D081092250280912402813038
:104C100011F40E947F051092230239C0123789F5E2
:104C2000F7018281853441F41092240286E30E94C8
:104C30000B0582E994E022C08335F1F481E0809392
:104C4000240232DD8FE794E00E949D080E947F05D8
:104C500085E30E94BC048D30D1F086E694E00E948A
:104C60009D0885E30E94BC040E941E090E94AA08B8
:104C70001BDD109224020BC084E494E00E949D0886
:104C800006C08DE294E00E949D0810922502EB96EA
:104C9000ECE00C941E31A0E1B0E0E1E5F6E20C940A
:104CA00007318E010F5F1F4F80E1F80111928A9545
:104CB000E9F780912402813009F064C080912302D9
:104CC000813009F45FC04A9B5DC08BE30E94BC0445
:104CD0008F778F3008F08FE0898328988FEF0E94BC
:104CE0004504F12CD12C3AEAE32E8981F816F0F430
:104CF00080E00E944504E2E0F0E0EC0FFD1FEF0DC4
:104D0000F11D8083F7E0FF1510F0E8260DC098E054
:104D1000F9120AC0E81641F00E941E098BE194E0E6
:104D20000E949D08DD24D394F394DFCF289A4AE0B3
:104D300050E063E172E0C8010E949933892B11F1C0
:104D4000E1E0DE16F9F088E194E00E949D0880E140
:104D5000F801A3E1B2E001900D928A95E1F78E018E
:104D60000E5F1F4F7E01FBE0EF0EF11CF8018191F9
:104D70008F010E941E090E151F05C1F785E194E001
:104D80000E949D086096E7E00C9423311092AF03D7
:104D90001092E10283E080932B028FEF8093C40393
:104DA0000895ECE2F2E02081211105C0892BB1F0D9
:104DB00080E090E00895B2E0EA3DFB07B8F7009785
:104DC00051F04181DC013C91431305C042811196B1
:104DD0003C91431751F0E20FF11DE5CF32E0EA3D7F
:104DE000F30719F010F0EAEDF2E0CF010895E82F93
:104DF000F0E0EE0FFF1FEE0FFF1FEB53FC4F808123
:104E00008F3F91F0809326028181809327028281D7
:104E10008093280283818093290221E04CE064E0A2
:104E200086E292E00C94B60B08958BED92E0B9DF28
:104E3000009799F020912B02FC013081231768F430
:104E4000E20FF11D80818093DD0289E78093DE020D
:104E500081818093DF0281E0089580E00895EF92E0
:104E6000FF921F93CF93DF931F92CDB7DEB7182F1A
:104E70008091320386FF18C084E599830E945D0803
:104E8000E12E9981F92E15E0F70181917F010E94B1
:104E90001E091150C9F78091320385FF03C08AEFC4
:104EA0000E941E090E94AA080F90DF91CF911F91C6
:104EB000FF90EF90089586E30E940B058091DD023C
:104EC000833511F48BE901C08BE40E94F80721E0DF
:104ED0004CE065E08BED92E00E94B60B0E947F05EE
:104EE0008BED92E0BCCFE7DF8091DD02893631F0B7
:104EF00081E08093DA0289E28093C4030895CF931E
:104F000085E390E00E947D098093950386E390E01D
:104F10000E947D098093C303CFEFC093B303C09376
:104F2000B503C093B703C093B903C093BB03C09349
:104F3000BD03C093BF03C093C10328DF10922C02AE
:104F400081E080939403C093C5038FEF9FEF90930C
:104F500098038093970310929A03109299031092EA
:104F60009C0310929B03C093C90390939E0380936C
:104F70009D031092A00310929F031092A20310921F
:104F8000A103C093CD039093A4038093A303109235
:104F9000A6031092A5031092A8031092A703C09332
:104FA000D1039093AA038093A9031092AC031092AB
:104FB000AB031092AE031092AD03CF910895ACE015
:104FC000B0E0E5EEF7E20C9405316C018C010F5F67
:104FD0001F4F45E0BE016F5F7F4FC8010E9422094D
:104FE000843008F0F3C099819130A9F4833061F4E2
:104FF0006A8185E390E00E9478096B8186E390E006
:105000000E9478097CDF12C2809195030E941E09DC
:105010008091C3039AC0923009F051C0813039F0B9
:1050200081E09A81913009F080E0F82E02C0FF24DF
:10503000F39480912C02811104C082ED96E00E94CD
:105040009D080CE212E0F8018081882309F4BBC0BE
:10505000F2E00A3D1F0708F0B6C082E00C321807E4
:1050600019F080E20E945D08F80181810E941E090A
:10507000F80182810E941E09FF20E1F08AE30E946C
:105080005D0893E0F80180819817A0F4943038F01F
:1050900090FF05C08CE29C870E945D089C85EE24F1
:1050A000E394E90EF801E90FF11D80810E941E09C9
:1050B0009E2DE8CFF8018081080F111DC4CF9330D9
:1050C00049F480E090E06DDE8C5292409EEA981B9D
:1050D000892F3BC0903171F503EB13E0F4EBEF2E19
:1050E000F3E0FF2EC12CD12CF80180818F3FA1F07D
:1050F000DD2019F080E20E945D088C2D0E941E09BF
:105100008AE30E945D08F80180810E941E09F70170
:1051100080810E941E09D3940E5F1F4FC394F2E05A
:10512000EF0EF11C88E0C812DFCFD1104CC080EE2A
:1051300096E047C0913161F48091B1039091B20340
:105140006DE770E00E94CF30862F0E941E093BC0A1
:105150009231C9F5E5ECEE2EE3E0FE2E08EC13E00B
:10516000C12CD12CF70180818F3FF1F0DD2019F0A7
:1051700080E20E945D088C2D0E941E098AE30E9435
:105180005D08F70180810E941E09F8013297808135
:105190000E941E09F801319780810E941E09F801C2
:1051A00080810E941E09D394F4E0EF0EF11CC39499
:1051B0000C5F1F4F84E0C812D5CFD11004C08CED16
:1051C00096E00E949D080E94AA0830C144E0BE01FA
:1051D000695F7F4FC8010E9422094F81493608F458
:1051E00081C07A8558856985E7ECF3E080E090E03E
:1051F0007C3009F058C09C01220F331F220F331F4F
:10520000DF0112977C9174131EC01196AC91A51307
:105210001AC0A081A61317C0F901EB53FC4F2CE074
:10522000238363E070E0AAD7DC01AA0FBB1FA95655
:10523000BC4F1D921C92FC01EE0FFF1FE756FC4F66
:1052400011821082D5C07F3FE1F4F901EB53FC4F8E
:105250004083518362832CE0238363E070E08ED728
:10526000DC01AA0FBB1FA956BC4F1D921C92FC016A
:10527000EE0FFF1FE756FC4F11821082109294032D
:10528000B7C0019634968430910509F0B4CFCEC0F2
:10529000DF011197AC91A51789F0019634968430FF
:1052A000910509F4C3C09C01220F331F220F331F45
:1052B000DF011297AC91A413F0CFEACFA081A6131F
:1052C000ECCFF901EB53FC4F738363E070E056D7EA
:1052D000FC01EE0FFF1FE756FC4F81E090E0918349
:1052E0008083A4C0E98180919503E817D0F190E014
:1052F000F0E09C01295F3F4F2E173F0794F13A8160
:105300002091C30332132DC03C813F3231F442E07F
:105310006CE0C6010E94230C89C02D813C32C1F48F
:105320002093B00381E090E09093B2038093B103A7
:1053300030E0220F331F220F331F80912F039091F3
:105340003003820F931F9093300380932F036EC01E
:10535000E81BF90BEE0FF0E0ED54FC4F3083218396
:1053600065C080E090E01DDD7C01F8010190002027
:10537000E9F73197E01BF10BF695E795BB24B39461
:10538000BE0EC7018B0D911D8C5292408F3A910534
:105390000CF048C0F701B1928F0121E0822F880FF5
:1053A00081502B15D8F441E0B801F601E80FF11D4A
:1053B000CF012C870E9422092C85233058F020FD34
:1053C00009C0D80111978C91843621F4F8018081AD
:1053D000809396032F5F0F5F1F4FE0CFFAEDEF161C
:1053E000F2E0FF0618F5F701E20FF11D10821EC072
:1053F00022E04CE064E0CE0107960E94B60B8FE0FD
:105400008A8722E04CE064E0CE0107960E94B60B4A
:1054100082E08A8722E04CE064E0CE0107960E9499
:10542000B60B04C086ED96E00E949D082C96E9E03C
:1054300008C7FF920F931F93CF93DF93F82E8091AD
:105440009403811154C0AF2DB0E0CD0163E070E052
:1054500095D68C01FC01EE0FFF1FE956FC4FAA0FF9
:10546000BB1FAA0FBB1FAB53BC4F12968C9187700A
:1054700020E830E0A901481B5109CA016AEF70E039
:105480007DD6959587959595879591838083E8013D
:10549000CC0FDD1FC556DC4F288139812F5F3F4F70
:1054A00039832883000F111F07561C4FF8014081D4
:1054B00051814115510531F424303105C1F48F2D4E
:1054C00096DC13C04130510541F48F2D90DC82E011
:1054D00090E0F801918380830AC04230510539F48D
:1054E0008F2D85DCF8011182108219821882CDB7C8
:1054F000DEB7E5E0AAC6A6E0B0E0E0E8FAE288C6DA
:105500008091C3038A831B829091B003992341F059
:10551000933019F487E791E00CC08DE790E009C063
:10552000877090E08A519F4F6DE770E027D6959580
:1055300087959093B2038093B10304EB13E0F12CB1
:105540005CE2E52EF801319790819F3FC1F0809198
:1055500095038F0D89838091B003882311F0EC822D
:1055600003C09C83F80180818D8321E04CE065E0DD
:10557000CE0101960E94B60BCE01019670DCF39429
:105580000E5F1F4FF8E0FF12DDCF8091B00388233C
:1055900041F0833019F41092B00303C0825080931D
:1055A000B0032696E6E050C68091DA02882351F0D7
:1055B00082DC89E28093C4038091DA028150809377
:1055C000DA020895E3CBFF920F931F93CF93DF93FB
:1055D000FC01F0800181C281D38114818FE5809329
:1055E000C4031092DA0280919503811105C0809165
:1055F000C303882309F4A9C08091DB028F1104C082
:105600008091DC02801729F0C1DBF092DB0200936D
:10561000DC028091AF038F3F09F497C0C093DD0295
:10562000D093DE021093DF02CC23F1F081111CC075
:1056300080919503181761F0143651F08DEA8C0FA4
:10564000823010F0CD3739F48FEF8093AF037DC0F7
:10565000C43509F47AC08D2F807F803609F075C07B
:10566000D067D093DE0257C0E0DB811105C0809186
:10567000AF03882309F469C08091E102811107C05A
:10568000E091AF03F0E0EC51F94FE49101C0E82F55
:10569000E33541F4C43531F49091AF039E5F9093AC
:1056A000AF0304C0EC1711F071DB4FC0882369F021
:1056B00080912B028E5F80932B02B7DB81110EC08D
:1056C0008091AF038E5F8093AF038091AF03E82F8B
:1056D000F0E0EB51F94F14911F3F59F48091DD0236
:1056E0008093E1028436B9F4809196038093DF02BF
:1056F00012C01093DD0297E79093DE02909195031C
:105700009093DF028E5F8093AF031092E1028E30A0
:1057100021F01123D1F0E7DB18C08BED92E041DBE3
:10572000DC01009781F02C9130E08AED92E0821B41
:10573000930BA817B90730F4ED01C20FD31F4881AE
:105740004D93F7CF1C9222DBE4CFCDB7DEB7E5E077
:105750007CC5FF920F931F93CF93DF938C01EC01D5
:1057600009900020E9F72197C81BD90BFC01818122
:10577000823751F487E390E00E940F050E947F0575
:1057800081E08093D50326C0833711F5FC2E28983D
:105790008FE70E9445048C2F82500E944504E80147
:1057A000229612E01F1528F489910E9445041F5F7C
:1057B000F9CF289A0E946D058AE30E94BC048F7776
:1057C00021F081E00E94F807F7CF0E947F0502C018
:1057D0001092D503CDB7DEB7E5E037C5A0E4B0E061
:1057E000E3EFFBE213C58091D503882309F455C08C
:1057F000813011F580912B0390912C03A0912D0302
:10580000B0912E032091E202281709F446C085E3E7
:105810000E94BC04813129F48AE30E940B050E9496
:105820007F0580912B0390912C03A0912D03B091C3
:105830002E038093E20231C08FE30E94BC04D82E75
:105840008FE38D1538F128988FEF0E9445048E0163
:105850000F5F1F4F7801C02E8E2D801B8D1538F4E1
:1058600080E00E944504F70181937F01F5CF289ADB
:1058700081E080935401802F8C198D1530F4F8014C
:1058800081918F010E945D08F6CF0E94AA088FEFD8
:105890008093540181E08093D503C05CDF4FE8E042
:1058A000D1C40F931F93CF93DF93EC0110E0212F0E
:1058B00030E0C90163E070E061D488579F4FFC017C
:1058C0000491C90163E070E059D487579F4FFC01F0
:1058D00025913491002399F0209739F480E20E94B9
:1058E0005D08802F0E945D0808C08881801305C074
:1058F000CE01F901099581E003C01F5FD8CF80E098
:10590000DF91CF911F910F910895CF93C0915401D2
:105910008093540180911B048823A1F189E194E0D4
:105920000E94BD0AE091E3028A3011F08D30F9F453
:10593000EE2381F3F0E0EC51FD4F108284EE92E013
:10594000B0DF811111C08AE097E00E949D0884EECB
:1059500092E00E94920882EF96E00E949D0880E00B
:1059600090E09FDF0E94AA081092E302D3CFE034B8
:1059700088F691E09E0F9093E302F0E0EC51FD4F2A
:105980008083C8CFC0935401CF910895E4E6F0E03E
:1059900080818B7F8083299A84B1876084B9239822
:1059A00080E58CBD8DB581608DBD08952091690421
:1059B00030916A042115310521F42091370130918D
:1059C00038018091350190913601009741F48DB7EF
:1059D0009EB74091390150913A01841B950B2817CD
:1059E000390718F4821B930B089580E090E0089526
:1059F00082E40E945D0840E265E080916904909134
:105A00006A040E94AE080E94AA0883E50E945D080D
:105A100040E265E080913701909138010E94AE0824
:105A20000E94AA0885E40E945D0840E265E080913A
:105A30003501909136010E94AE080E94AA0886E4C2
:105A40000E945D08B3DF40E265E00E94AE080C945E
:105A5000AA08A2E0B0E0EEE2FDE2DEC3E1E6F4E097
:105A60008091F100819384E0E936F807C9F720912D
:105A7000610430916204832F90E08A30910508F030
:105A80001AC1FC01E65CFF4FB1C3203879F022381F
:105A900009F011C1809165048093E9008091EB00C9
:105AA00085FB882780F91092E90006C080915C048C
:105AB00090915D04911182609091E800977F90939E
:105AC000E8008093F1001092F1008091E800982F97
:105AD0009E7F9093E8008F778093E8008091E800A4
