:100000002DC2000047C2000045C200000C949A12A5
:1000100041C200003FC200003DC200003BC20000E0
:1000200039C2000037C200000C94B82B33C2000064
:1000300031C200002FC200002DC200002BC2000000
:1000400029C200000C94371225C2000023C2000010
:1000500021C200004BC500001DC200001BC20000F1
:1000600019C2000017C2000015C2000013C2000030
:1000700011C200000FC200000DC200000BC2000040
:1000800009C2000007C2000005C2000003C2000050
:1000900001C20000FFC10000FDC10000FBC1000063
:1000A000F9C10000F7C10000F5C10000C628F8281A
:1000B000DC29F828DC2940296829DC298429AC2995
:1000C00042F40843F90346060B690B1E414A185ACD
:1000D000BE1A47090B4D410B4BAF0B55340C593D24
:1000E00020526508547023565E0957A50858A90D7B
:1000F000651E09662B276D79284C5F066CE3087432
:10010000D60575211578C0037A5C1D0000002A030E
:10011000430055004C0034003300330000002A0334
:10012000430055004C00380036003800000016032C
:1001300062007500730077006100720065002E0098
:100140006400650000000403090409024300020181
:1001500000803209040000010202010005240001B0
:1001600010052401030104240206052406000107EA
:100170000582030800FF09040100020A00000007CD
:100180000504024000000705830240000012011030
:100190000102000008EB034B2000000102000120D7
:1001A0002F2000203D2000072E050DD391FF0805CC
:1001B00000000C0021656A2D3B1322F862073F18EE
:1001C0001D1CC700B0876BF8B611EA2A001F41005A
:1001D0000D2E2D07D3913D04320000060021656AE3
:1001E00055E43023B900070018146C070090876BA2
:1001F000F85611E92A001F410000030F1E262700B0
:100200000000030F1E2536386700030F2567406086
:100210005000030F275188838100030F2750C8C364
:10022000C20027000000000000006700000000007E
:1002300000005000000000000000810000000000ED
:100240000000C2000000000000504C4C310D0A00BC
:10025000504C4C300D0A005620312E363620435576
:100260004C383638005620312E36362043554C3423
:1002700033330043554C5F563300202F2000203D80
:1002800020004C4F56460D0A00424F56460D0A00BC
:100290004552523A4343410D0A000B08105B11F8D6
:1002A0001547191D1A1C1BC71C001DB221B623EAD5
:1002B0000007022E030D04E905CA070C0B060D21E9
:1002C0000E650F6A10C811931203153417331818EE
:1002D00019161B4321562500261129592C812D352D
:1002E0003EC34C454E4552520D0A004C4F56460DEA
:1002F0000A004C454E4552520D0A000007024604C2
:10030000C605260B0610C8119312031322153417C5
:100310003F182819161B432156250026110D210EC2
:10032000650F6A070C160720F81E871F6B29592CCA
:10033000812D353EC3FF000001022E030104AA05F2
:100340000F06FF070008000B060D210E740FAD10FD
:100350004B11F8121613721541181819161B0323A6
:10036000E9242A2500261F3E500001022E03010425
:10037000AA050F06FF070008000B060D210E660FE9
:100380006610CA1193120613521535181819161B48
:100390000323E9242A2500261F3E500001022E03D4
:1003A00001045505F006FF070008000B060D210E9D
:1003B000660F9910591183121E135215351818190A
:1003C000161B0323E9242A2500261F3E500D2E2D3F
:1003D00007D3913D04320000060010B07155E4309F
:1003E00023B900070018146C070090876BF85611AA
:1003F000E92A001F41000D2E2D07D3913D04320044
:1004000000060010ABA5550A3023B90007001814E8
:100410006C070090876BF85611E92A001F41004EC7
:100420002F4100454F420D0A004E2F41004E2F41F3
:100430000000535300547D7DFFFF4B4B7E7E002018
:10044000697320756E6B6E6F776E2920557365200A
:100450006F6E65206F66003F2028000011241FBECC
:10046000CFEFDAE0DEBFCDBF11E0A0E0B1E0E0E524
:10047000FCE502C005900D92A032B107D9F725E046
:10048000A0E2B1E001C01D92A936B207E1F70CD09D
:100490000C94262EB5CDF89481E085BF82E085BF0F
:1004A000E0E0F8E3099508952FE088E190E00FB6C9
:1004B000F894A895809360000FBE2093600090E0B0
:1004C00080E80FB6F89480936100909361000FBEAE
:1004D0002E9A2D9A04B603FE0AC083E390E0DCD581
:1004E000882329F060E083E390E0D1D5D4DF89EF61
:1004F00087BD84E085BD82E084BD80936E0010924C
:1005000080008AE08093810084B7877F84BF6E9AE1
:100510000E944728C0D60E948D2B0E9410230E9463
:10052000880D86E098E290932403809323030E9431
:10053000451489E08093240176980E94682C11D29A
:100540000E94AA0F49D30E9470270E94C3150E94DF
:10055000C1160E94461A0E944F1CEFCF292F332745
:100560002230310559F02330310569F02130310551
:1005700039F582E190E02DE831E026C083E490E097
:100580002AE431E021C099278130910539F018F033
:10059000029751F015C0E6E4F1E002C0EEE2F1E0AE
:1005A000849190E09F0110C01E9903C02EE031E0BD
:1005B00002C02EE131E0EEE1F1E0849190E004C070
:1005C00080E090E020E030E0FA013183208308955C
:1005D0008EBD0DB407FEFDCF8EB50895A1E0B0E04D
:1005E000E4EFF2E00C94B32C482F8A3008F048E096
:1005F00088E0489F70011124F701E750FE4F7F010A
:100600008BE290E0F70164918C010F5F1F4F4983EB
:100610003ED5FFEFEF1AFF0A49810333110511F0B0
:10062000C801F0CF4550453010F461E101C067E1E9
:1006300084E290E02CD52196E6E00C94CF2CCF9369
:10064000DF9382E090E0FC01E253FE4F6491EC0105
:1006500021961DD5CB32D10511F0CE01F4CF87E321
:1006600090E0FC01E059FE4F6491EC0121960FD51A
:10067000C036D10511F0CE01F4CF1E9918C060E14B
:100680008FE090E004D560EB80E190E000D561E779
:1006900081E190E0FCD460E184E490E0F8D460EB88
:1006A00085E490E0F4D461E786E490E0F0D488E05B
:1006B00095DFDF91CF9108952898806C89DF80E0E5
:1006C00087DF289A0895A1E0B0E0E9E6F3E00C9412
:1006D000B72C2898806469837BDF6981862F78DF57
:1006E000289A2196E2E00C94D32C289871DF289A5E
:1006F0000895EF92FF920F931F93CF93DF93EC0136
:100700001092D001EA98209A289A8EE190E036D390
:1007100028988EE190E032D3289A8DE290E02ED393
:1007200080E3E3DF84E690E029D3289880E450DF7B
:100730007E0189E2E80EF11C8E010F5F1F4FCE0192
:10074000ABD446DF0E151F0511F0E801F5CF289A4E
:1007500028988EE73DDF8BE290E0EC0121969CD457
:1007600037DFC333D10511F0CE01F7CF289A83E3E9
:10077000BCDF81E008D3CDB7DEB7E6E00C94CF2C28
:10078000A1E0B0E0E6ECF3E00C94B72C22E0298382
:1007900041E0BE016F5F7F4F01961ED489811EDF4D
:1007A00082E090E0A6DF2196E2E00C94D32CCF9378
:1007B000EA9886E39ADFCFEF85E397DFC150807731
:1007C000803229F08AE090E0D9D2C111F5CFCF91E3
:1007D0000895CF93CFEF84E388DFC15080778031D5
:1007E00029F08AE090E0CAD2C111F5CFEA9ACF9100
:1007F0000895A2E0B0E0EFEFF3E00C94B52C8C018B
:10080000FC0181818737E9F441E0BE016F5F7F4FD2
:10081000C8010296E1D3892BA1F041E0BE016E5FD1
:100820007F4FC8010496D8D3892B59F06A818981FA
:100830004ADF83E35ADFCDDF8981CAD38A81C8D3F7
:100840002CC041E0BE016E5F7F4FC8010196C4D34A
:10085000892B21F18A81893969F410E0812F2CDFFD
:10086000B7D3812F8770873009F43ED31F5F1033D1
:10087000A9F714C021DF182F83E4EAD28A81A8D314
:1008800083EA91E024D3812FA3D38FE991E01FD392
:1008900040E262E0812F90E02BD326D32296E4E061
:1008A0000C94D12C86E321DF109225031092CE0107
:1008B0001092D001089582E090E01BDF81E08093E8
:1008C00025031092CE011092D00108950F931F932B
:1008D000CF93DF93082F10E0C62FD0E085E3ECDE46
:1008E000801731F0CE014AD21150C1F781E001C02A
:1008F00080E0DF91CF911F910F91089585E2DCDEBA
:100900008F3311F080E0089586E3EFDE80912001BF
:10091000811104C080E592E0DAD202C08DE3E5DE09
:1009200083E3E3DE64E081E0D1DF85E2C5DE8F337F
:1009300049F780912001811103C089E492E0C7D278
:1009400081E0089585E3B8DE8D3051F485E2B4DEB0
:100950008F3331F4D3DF84E3C8DE80778031D9F779
:10096000089580915C05843009F069C08093E900A6
:100970008091210181112AC08091E80085FF26C065
:100980008091F2009091F300892B31F06091F10099
:1009900085ED94E0A8D4F4CF8091E800982F9B7F58
:1009A0009093E8008F778093E80081E080932101A5
:1009B00081EB94E09093220380932103E091230341
:1009C000F091240381E009951092210183E0809346
:1009D000E90080915404882391F18091E80085FF1B
:1009E0002EC0F89480915404882369F08091F2001D
:1009F0009091F3008034910530F482E594E089D43D
:100A00008093F100EFCF78948091F2009091F30001
:100A10002091E800322F3E7F3093E8002F7720931B
:100A2000E8008034910559F40E94322A8091E80050
:100A3000982F9E7F9093E8008F778093E800089529
:100A400042E061EC82E00E94E22942E361E883E057
:100A50000E94E22942E360E884E00E94E2291092C9
:100A600000011092010110920201109203010895F9
:100A700080915D0590915E05913229F0923261F18D
:100A8000903299F512C0813A81F58091E800877F14
:100A90008093E80067E070E080E091E00E945B2ACC
:100AA0008091E800982F9B7F11C08132F1F48091F2
:100AB000E800877F8093E80067E070E080E091E0E5
:100AC0000E94052B8091E800982F9E7F9093E8006C
:100AD0008F778093E8000895813239F48091E8009F
:100AE000877F8093E8000C940C2A08951F920F9240
:100AF0000FB60F9211248F939F93AF93BF93EF93F1
:100B0000FF938091270390912803A0912903B0912E
:100B10002A030196A11DB11D8093270390932803FA
:100B2000A0932903B0932A03809126038F5F8093BB
:100B30002603E3E1F4E080819181181619061CF484
:100B4000019791838083369684E0EB32F80799F71A
:100B500080912D0490912E04009729F00197909395
:100B60002E0480932D04809140048F3F19F0815012
:100B700080934004FF91EF91BF91AF919F918F912E
:100B80000F900FBE0F901F9018952FB7F8944091BB
:100B90002703509128036091290370912A03FC01D7
:100BA00040835183628373832FBF0895A4E0B0E034
:100BB000ECEDF5E00C94B72CCE010196E6DF8C81CC
:100BC00007D28B8105D28A8103D2898101D28CD14F
:100BD0002496E2E00C94D32C1F93CF93DF93809163
:100BE000270390912803A0912903B0912A03209113
:100BF0002301281709F45FC08091270390912803EF
:100C0000A0912903B0912A0380932301A895C3E101
:100C1000D4E010E028813981232B19F4812F0E9420
:100C20009E251F5F26961430A9F780912D04909180
:100C30002E04892B11F40E94FA2580914004811121
:100C400002C00E9456268091BA03882339F0815051
:100C50008093BA03811102C00E9458168091260326
:100C60008D3748F1109226038091070181FF04C05F
:100C70008EB190E489278EB980912B0390912C033B
:100C8000843823E0920728F4019690932C038093F4
:100C90002B03809122018F5F809322018C3359F4C2
:100CA00010922201809112048F5F809312048C3382
:100CB00010F010921204DF91CF911F910895A0E0DF
:100CC000B0E0E5E6F6E00C94B22C8C016EE070E04A
:100CD0000E94052E8D3009F04CC0769A8091D0018B
:100CE000882341F01092D0018CE191E032D7DD24CD
:100CF000D39401C0D12C80912503811101C0DBDD8B
:100D000056DD84E0F82E5B9A88EE93E037D0C1E0A0
:100D1000D0E0EE24E394F801EC0FFD1F80818133D5
:100D200009F0E12C5B98EE2019F088EE93E002C008
:100D300080ED97E023D05B9AEE2019F080ED97E0EC
:100D400002C088EE93E01AD02196CD30D10509F784
:100D50005B9883E218D0FA94B1F680912E03882331
:100D600011F037DD02C086E3C0DCD1100E946218AA
:100D70007698CDB7DEB7E7E00C94CE2C880F991F9C
:100D80000197F1F7089520ED37E0815020F0F90147
:100D90003197F1F7FACF0895CF93DF93DC011396E3
:100DA0008C911397843509F050C0CD010396CC91F6
:100DB000FD0170964DE04C1750F050E0D0E09E01E0
:100DC0002F5031094217530709F03FC005C0219148
:100DD0002B3399F34F5FEFCFFE013E97E80FF91FDA
:100DE0002081243591F514963C911497218132137A
:100DF0002CC015963C9115972281321326C0169669
:100E00003C9116972381321320C017963C91179777
:100E1000248132131AC06197C80FD91F8581888336
:100E20008681898381858A8382858B8383858C8370
:100E300084858D8385858E838C918A508C931296C0
:100E40008C9112978A5012968C93DF91CF910895CE
:100E5000CF93C82F80915C05843079F48091240170
:100E600080FF0BC08091540487FD7BDD6C2F82E5F1
:100E700094E039D2CA3009F474DD8091C503882327
:100E8000C9F08091240183FF15C0CA3099F0CD309C
:100E900011F46BE301C06C2F85E393E024D2CD30D5
:100EA00019F485E393E078DF83E08093BA0382E06E
:100EB0008093C003CF910895CF93DF93EC01899184
:100EC000882311F0C5DFFBCFDF91CF910895CF9339
:100ED000DF93EC01FE018491882319F0B9DF21969C
:100EE000F9CFDF91CF9108958DE0B2DF8AE0B0CFE6
:100EF000A6E0B0E0EEE7F7E00C94B52C062F1E82DA
:100F000015E02AE030E01150E1E0F0E0EC0FFD1FC9
:100F1000E10FF11DB9010E947A2C805D8083CB0125
:100F20000150009769F01111EECF0AC0112359F05A
:100F30001150E1E0F0E0EC0FFD1FE10FF11D4083E7
:100F4000015007FFF3CF81E090E08C0F9D1F810FD0
:100F5000911DB2DF2696E4E00C94D12CA5E0B0E020
:100F6000E4EBF7E00C94B72C1D8224E0382F3F709F
:100F70002150E22FF0E03A3010F4305D01C0395CCE
:100F8000A1E0B0E0AC0FBD1FEA0FFB1F308334E0DF
:100F9000969587953A95E1F76150009739F761503A
:100FA00067FD0BC0222349F02150E1E0F0E0EC0F97
:100FB000FD1FE20FF11D4083F2CF81E090E08C0F26
:100FC0009D1F820F911D78DF2596E2E00C94D32CB3
:100FD00040E362E090E0C2CFDC01FB0130E090E052
:100FE0008D918823A9F0813608F0805220ED280FDA
:100FF0002A3030F02FEB280F263030F429EC280F60
:10100000292B332379F006C0803251F38A3341F320
:10101000CF0105C0CF0101962083415041F4861BCA
:10102000970B0895922F9295907F31E0D9CFFC01D4
:10103000D5CF20E030E05AE0FC014191CF014423BC
:1010400079F0E0EDE40FEA30B8F7F9015E9F900126
:101050005F9F300D112420533109240F311DECCF37
:10106000FB01318320830895982F92959F709A30C9
:1010700010F4905D01C0995CFB0190838F708A3001
:1010800010F4805D01C0895CFB01818308950E949A
:10109000182EF999FECF08950C94102E08951F93E1
:1010A000CF93DF93162F11501F3F59F0EC0121967B
:1010B000F3DF8EDF112311F08AE3CADE1150CE0177
:1010C000F3CFDF91CF911F910895A2E0B0E0EBE65E
:1010D000F8E00C94B42CFC0121812D3421F466E05D
:1010E0008AEF93E005C0203529F460E18AED93E0B2
:1010F000D6DF26C01A82198242E0BE016F5F7F4FA1
:1011000001966ADF098110E0823021F4102F002758
:101110008A81082BC801C0DFF82E82E599DE40E302
:1011200064E0C8011BDF8EE792E0D1DE8F2D50DF37
:101130008AE792E0CCDE40E262E08F2D90E0D8DEDC
:10114000D3DE2296E5E00C94D02CA6E0B0E0EBEAEA
:10115000F8E00C94B12C6C0143E0BE016F5F7F4F4F
:1011600001963ADF823058F1E980F12C823021F08B
:10117000FE2CEE242A81E22A8C011127FE01E00FC9
:10118000F11F6081C70183DF000F111F0F5F1F4F29
:101190000C0D1D1DF8018081882389F041E0BE01FE
:1011A0006F5F7F4FC80118DF892B49F08FEFE81A76
:1011B000F80A6981C7016BDF0E5F1F4FEBCF2696E0
:1011C000E8E00C94CD2C41E067E071E0019604DF8B
:1011D0008091070180FF02C0769A01C076986091E5
:1011E000070184E390E053CFA1E0B0E0EAEFF8E03C
:1011F0000C94B72C1982009731F041E0BE016F5F6B
:101200007F4F0196E9DE89818F3F09F4FFCF882364
:1012100021F061E083E390E03ADF0E94982B109286
:101220006E00F89428E088E190E00FB6F894A89555
:10123000809360000FBE20936000FFCFCF93DF93B9
:10124000EC0161E080E090E022DF62E481E090E088
:101250001EDFF5D960E080E690E019DF60E081E60E
:1012600090E015DF60E083E390E011DF62E084E36B
:1012700090E00DDF60E080E690E009DF60E081E66D
:1012800090E005DF8981883719F080E090E0ACDFDD
:10129000DF91CF91089580E090E0FEDE813029F467
:1012A00081E090E0F9DE823419F080E090E0C6DF62
:1012B00084E390E0F1DE809307010895FC018181D1
:1012C000883419F483E792E007C01E9903C085E6CD
:1012D00092E002C087E592E0FADD06CEFC011282C0
:1012E000108211820895FC018FB7F894928197FDC6
:1012F0000EC09F5F9283208191E0920F9083DF0167
:10130000A20FB11D13966C93903809F410828FBF11
:101310000895FC019FB7F8948281882371F0815071
:101320008283818121E0280F2183DF01A80FB11D75
:1013300013968C91203809F411829FBF0895FA0109
:101340003081882369F0E1E0F0E0022E01C0EE0F69
:101350000A94EAF7DB01A30FB11D9C919E2B9C938D
:10136000222319F08FEF820F0BC081E0830F8C30A6
:1013700010F4FA018083FB01E80FF11D108287E071
:1013800090E00895CF93C82F5B9A882319F080913D
:10139000270102C08091290120E1829FC001112410
:1013A000EDDC5B98CC2319F08091260102C080917E
:1013B000280120E1829FC0011124E0DCCF91089533
:1013C000A3E0B0E0E6EEF9E00C94A72C5C01162F48
:1013D000622E842F90E09B838A8320912B0330918F
:1013E0002C030296089F802D1124992787FD909544
:1013F0002817390720F482E892E069DD7DC0281BB8
:10140000390B30932C0320932B03769A8091D001D3
:10141000882341F01092D0018CE191E09AD3FF240F
:10142000F39401C0F12C80912503811101C043DAAE
:10143000BED9812E912CCC24C394D12C712C512C4B
:10144000852D992787FD90958815990524F480E0CE
:1014500099DF5394F5CF112311F081E093DF20E061
:10146000422E552447FC5094EA81FB814E165F06BC
:101470002CF097E0392E4A0C5B1C1AC087E0282E0E
:10148000312C4A0C5B1CC601022C01C0880F0A9447
:10149000EAF7F20190818923298374DFF1E02F1AA2
:1014A000310829818FEF2816380669F72F5FD8CFCA
:1014B000832D992787FD90956816790664F4C601F7
:1014C000032C01C0880F0A94EAF7F2019081892366
:1014D00059DF3A94EDCF8E2D56DC015009F0AFCF95
:1014E00080912E03882311F074D902C086E3FDD8C1
:1014F000F1100E94621876982396E2E10C94C32CB6
:10150000ADE0B0E0E6E8FAE00C94AA2C7C01162FDE
:10151000842F022F6701C60ED11C462FB7012ED390
:10152000D6018C931F5F1D8619825E2C670127E010
:1015300066246394712C8C2D8519811788F547E0FA
:10154000A42EB12C4701880E911CF3010A2C01C076
:10155000EE0F0A94EAF7D4018C91AE01435F5F4F1E
:10156000BE016F5F7F4F8E23EADE282FB1E0AB1AFA
:10157000B10858F7D6018D916D01082E829580250E
:10158000082E8695869580258F5F86958170AE01A1
:10159000435F5F4FBE016F5F7F4FD1DE282FCBCF00
:1015A000222311F0215004C08D858F5F8D8727E0A5
:1015B00089E1809328018093290185E280932601A7
:1015C000809327013AE0E32E4D856CE0CE01019631
:1015D000F7DE2D96EFE00C94C62CADE0B0E0E3EF23
:1015E000FAE00C94B62C162F242F4BE0BE016F5F4F
:1015F0007F4F01962D87F0DC2D85412F682FCE017E
:1016000001967EDF2D96E3E00C94D22C43E066E059
:10161000E4CFEF920F93CF93DF93CDB7DEB7609710
:101620000FB6F894DEBF0FBECDBF40E1BE016F5FC5
:101630007F4F0196D1DC69814A810B818C81809337
:1016400029018D81809328018E81809327018F81CC
:1016500080932601E02EE2947FE0E7220F70242F92
:101660002F7042954F70CE010896AADE60960FB695
:10167000F894DEBF0FBECDBFDF91CF910F91EF90F9
:101680000895A9E1B0E0E7E4FBE00C94AF2C4BE057
:10169000BE016F5F7F4F01969FDC182F893009F0E4
:1016A0005AC099E1909328019093290190932701C2
:1016B00082E38093260169E0CE01019669D2E1E0E0
:1016C000F0E0EC0FFD1FE10FF11D8083198E1D86E8
:1016D000CE0101967C016E019BE0C90ED11C27E072
:1016E000AA24A394B12CEC14FD0429F100E010E02D
:1016F000F501002E01C0EE0F0A94EAF7D7018C9194
:10170000AE01475E5F4FBE01635F7F4F8E2317DEE2
:10171000282F0F5F1F4F0830110551F7AE01475EAC
:101720005F4FBE01635F7F4F81E009DE282FBFEF6F
:10173000EB1AFB0AD8CF222311F0215004C0898D67
:101740008F5F898F27E0EAE0EE2E03E0498D6CE0A1
:10175000CE010D9635DE6996EAE00C94CB2CA9E11A
:10176000B0E0E5EBFBE00C94AE2C4BE09E012F5F6C
:101770003F4F7901B90101962FDC182F85E3809343
:10178000290196E1909328019093270180932601E7
:10179000612FC70109D2F701E10FF11D8083992460
:1017A0009394910E198E1D86870127E0AA24A39495
:1017B000B12C802F8E19891508F04AC0C12CD12C6C
:1017C000F5010C2C01C0EE0F0A94EAF7D8018C91B8
:1017D000AE01475E5F4FBE01635F7F4F8E23AFDD7B
:1017E000282FBFEFCB1ADB0A34E0C316D10441F730
:1017F000AE01475E5F4FBE01635F7F4F81E09FDDBB
:10180000282FB4E0CB2ED12CF5010C2C01C0EE0F0B
:101810000A94EAF7D8018C91AE01475E5F4FBE0192
:10182000635F7F4F8E238BDD282FBFEFCB1ADB0A40
:1018300038E0C316D10441F7AE01475E5F4FBE01E9
:10184000635F7F4F81E07BDD282F0F5F1F4FB1CF9C
:10185000AAE0EA2E03E0498D6AE0CE010D96B0DDE4
:101860006996EBE00C94CA2CEF920F93CF93DF9321
:1018700000D000D0CDB7DEB743E0BE016F5F7F4F31
:101880000196AADB8AE68093290194E290932801CD
:1018900091E2909327018093260180E88C839FE05A
:1018A000E92E03E026E043E060E0CE01019688DD0A
:1018B0000F900F900F900F90DF91CF910F91EF90BD
:1018C00008958F929F92AF92BF92DF92EF92FF9214
:1018D0000F931F93CF93DF931092450110925A01FB
:1018E000FC012181220F220F220F3381231B57E09D
:1018F000520F1092460110E070E038E0D32ED20E65
:10190000FF24F39447E007E0E12CC7E0D0E0A1E03A
:10191000B0E0FD1409F47FC0FC01EE0DF11D24813F
:1019200030E0002E02C0359527950A94E2F7217029
:101930003327E22F002311F0015002C0E39407E0A7
:101940006B3471F4433009F04AC0111107C0E11142
:101950005FC01092450170935A0174C010E041C0FD
:101960004F3F31F56634A9F4E72FF0E0EA5BFE4F14
:10197000E0810E2EE295E0250E2EE695E695E02517
:10198000EF5FE1FB882480F8912C8216930641F0EA
:1019900004C0653429F4E11103C010934501DBCF85
:1019A0007F5FE72FF0E0EA5BFE4F108247E031C037
:1019B000EE2361F1663471F4E72FF0E0EA5BFE4F4D
:1019C000A0809D01042E01C0220F0A94EAF7A22AEA
:1019D000A0821CC0653439F06B34C1F404C04F3FA1
:1019E000D1F2EE2399F0E72FF0E0EA5BFE4F9E0183
:1019F000241B310947FD33955D0102C0AA0CBB1CB5
:101A00002A95E2F795013081322B3083415001C095
:101A100011E0F3947ECF1093450170935A015F1546
:101A200088F4653431F44F3F21F47F5F70935A019D
:101A300004C0809145018111F8CF81E090915A0155
:101A4000911101C080E0DF91CF911F910F91FF9024
:101A5000EF90DF90BF90AF909F908F90089510927D
:101A60006F00E0915D018CE1E89FF0011124E25AE2
:101A7000FE4F108280912D038D7F80932D0308955A
:101A8000FC012181243108F0EACF3381662381F003
:101A900081E090E0032E01C0880F0A94EAF7DF018D
:101AA000A20FB11D14969C911497982B14969C9399
:101AB000332319F031503383089587E083832F5FF8
:101AC0002183E20FF11D14820895DC011196EC913F
:101AD0001197F0E050E02C91CF01841B950B0B96F1
:101AE0004797A0F430E070E0C901861B970B0B9676
:101AF000479760F42E0F3F1F640F751F261B370B8F
:101B0000255F3F4F81E02731310508F080E00895DF
:101B1000539A5B985298E9E6F0E080818061808377
:101B200082EC91E090932C0380932B0310927A0126
:101B3000109296011092B20110922503089580919F
:101B40002E03882321F00E945B040C94E9030C947B
:101B50005204FC01218121110BC080912E0338DA3F
:101B600040E265E080912B0390912C03C1D9BCC960
:101B700041E06EE273E001962FDAE1CF442339F0C1
:101B80004150FB01E40FF11D9081890FF7CF0895BB
:101B900020E0662339F06150FC01E60FF11D308131
:101BA0002327F7CF822F0895A091450140E035E02B
:101BB00020E0662399F06150FC01E60FF11D508191
:101BC000752F72957F702727370FAA2311F04423B2
:101BD00019F05F702527350F4F5FEBCF320F40E1D3
:101BE000349FC0011124822B0895FC01328123818E
:101BF000A081B181A30FB11D8C9190E0022E02C093
:101C0000959587950A94E2F7817099274FEF420FD7
:101C10004383211104C03F5F328327E0238308956B
:101C2000A2E0B0E0E6E1FEE00C94AF2C7C01A12C38
:101C3000B12CD12CCC24C394062F10E001501109F3
:101C4000A616F0F4C7014A836983CFDF4A81698110
:101C5000882391F0442349F098012A193B098C2DDF
:101C600001C0880F2A95EAF706C08C2D0A2C01C006
:101C7000880F0A94EAF7D82A8FEFA81AB80AE0CF9B
:101C80008D2D2296EAE00C94CB2CA4E0B0E0EBE49E
:101C9000FEE00C94AE2C1B8227E02C839C012C5F71
:101CA0003F4F3A83298310925A01FC0121813381ED
:101CB00087E090E0831B9109F8E02F9F800D911D34
:101CC0001124853491050CF44EC0B12CA0905A011A
:101CD000F5E0FA1558F10A2D10E040E068E0CE0179
:101CE00001969EDF0A5B1E4FF8018083982E092C17
:101CF00092949024092C969496949024CE01019667
:101D000074DF939491FACC24C0F8D12C90E0C816DB
:101D1000D90649F5CE01019668DF811124C0F8018A
:101D20008081B826A394A0925A01D0CF40E068E009
:101D3000CE01019675DF082F182F012E1295102560
:101D4000012E169516951025CE0101964EDF1F5FC8
:101D500011FBEE24E0F8F12C282F30E0E216F30618
:101D600011F481E0B01280E02496EBE00C94CA2CD0
:101D7000A5E0B0E0EEEBFEE00C94B22CFC011B827F
:101D800087E08C83CF0104969A8389838081853094
:101D900009F051C02181338187E090E0831B9109D4
:101DA00038E0239F800D911D11248039910509F0A1
:101DB00042C010925A010FE010EF29E880915A01B9
:101DC000E82EF12CDD24D394D80E41E068E08F306A
:101DD00088F4CE0101962D8323DF080F111DF70132
:101DE000EA5BFE4F2D812827208324E2280FD09222
:101DF0005A01E4CFCE01019613DF080F111DD092D6
:101E00005A01F701EA5BFE4F8095808341E068E06C
:101E1000CE01019605DF90E0982F8827081B190B4B
:101E200041E068E0CE010196FBDE282F30E081E042
:101E30000217130709F080E02596E7E00C94CE2CFA
:101E4000A4E0B0E0E6E2FFE00C94B42C1B8227E0B3
:101E50002C839C012C5F3F4F3A832983FC01218115
:101E60002430A1F58381813089F510925A01809147
:101E70005A01082F10E0FF24F394F80E41E084305B
:101E800098F4811106C067E0CE010196C9DE806832
:101E900004C068E0CE010196C3DEF801EA5BFE4FA4
:101EA0008083F0925A01E3CF67E0CE010196B8DE5D
:101EB000F801EA5BFE4F880F8083F0925A019091FF
:101EC000460192959F7081E09A3009F080E0249657
:101ED000E5E00C94D02CCF93DF93FC01818183301B
:101EE000E9F483818730D1F480818830B9F410928D
:101EF0005A0120E0822F90E0DC01AA5BBE4FEF0187
:101F0000C80FD91F8C818C9381E0820F833010F42D
:101F1000282FF0CF80935A0181E001C080E0DF914B
:101F2000CF910895FC01908180912D03993611F095
:101F3000933751F4982F9370913011F4826006C05A
:101F400080FF07C08B7F03C080FD03C08460809347
:101F50002D030895A1E0B0E0E0EBFFE00C94B32C7A
:101F6000198280912A018823B9F180912E0387FF7D
:101F700017C084E30E945C038058803458F0803C92
:101F800058F490E08055910953E0959587955A95BE
:101F9000E1F703C080E001C08FE08F590E9428075D
:101FA00080912E0383FF16C082E70E94280780914C
:101FB0002E0384FF04C080912B010E94280786E62F
:101FC0000E94280780912E0384FF04C080912A017B
:101FD0000E94280710922A0180915B01882309F44E
:101FE00042C2769A00915C012CE1029F800111248B
:101FF000025A1E4F8981811106C0C8016CDF8823F7
:1020000011F083E789838981811106C0C801B0DEA0
:10201000882311F083E589838981811139C066E4C1
:10202000C8014FDC8823A1F1F0905A01FA94F09294
:102030005A014F2D66E471E086E0A0DDEF2DF0E05F
:10204000EA5BFE4FE0808E1105C093E09F1510F40F
:1020500086E41BC0282F30E02F5F3F4F6E2D70E0CD
:102060002617370739F423E02F1520F496E49983D7
:1020700080830EC04F2D66E471E08CE07FDD8E1111
:1020800006C083E08F1518F484E5898301C01982A6
:102090008981811116C065E4C80113DC882389F0A9
:1020A00080915A01815080935A01893051F469E03E
:1020B00086E491E06DDD90914F01891302C085E4C3
:1020C00089838981811106C0C801DFDD882311F071
:1020D00088E489838981811106C0C801B1DE882323
:1020E00011F084E789838981811133C0F801438D20
:1020F00060912B01C8014A96E8DC682FC801C0DC5A
:102100006BE4C801DEDB8823B1F0F0905A01FA9449
:10211000F0925A016F2D86E491E046DDEF2DF0E05C
:1021200090914501E91BF109EA5BFE4F908189130B
:1021300002C08BE48983898181110BC0F8018381FE
:1021400091E0980F9383873021F41382818181502D
:102150008183898181112DC0F8018181843049F505
:102160008381843031F54EE16CE3C8014896ADDCE3
:102170008823F9F04EE160912B01C8014A96A5DC55
:10218000682FC8017DDC20E0822F90E0FC01EA5B33
:10219000FE4FD801A80FB91F14968C91808381E05F
:1021A000820F853010F4282FEFCF80935A0182E5FB
:1021B00089833981332309F4CAC020912E0320FF7B
:1021C000C6C080912D038E7F8B7F80932D0321FDD0
:1021D00064C050914401F0905A015F113DC040E04D
:1021E0004517C0F4842F90E061E0640FFC01E05DCE
:1021F000FE4FDC01AA5BBE4F70818C91781741F0D5
:102200004093440180912D038D7F80932D0304C062
:10221000462FE6CF4093440145131EC0409127034B
:10222000509128036091290370912A0380912C0119
:1022300090912D01A0912E01B0912F01481B590BB7
:102240006A0B7B0B463251056105710528F48091BC
:102250002D03816080932D0340E04F1560F4842F9F
:1022600090E0FC01E05DFE4FDC01AA5BBE4F8C916B
:1022700080834F5FF2CF4093440180912703909178
:102280002803A0912903B0912A0380932C019093F5
:102290002D01A0932E01B0932F013435E9F426FDD2
:1022A0001BC080915A018530B8F0809148018B3471
:1022B00071F0893661F09DEA980F923040F08D57A9
:1022C000823028F0809149018077803729F480910D
:1022D0002D03816080932D03B801CE01019622DE8B
:1022E00080912D0382FF33C089810E94280780914D
:1022F0004501882329F080915A01815080935A0129
:10230000F12CE0915A01FE1648F4EF2DF0E0EA5B63
:10231000FE4F80810E94E807F394F3CF809145013E
:10232000882351F0F0E0EA5BFE4F80818F7040E33C
:1023300061E090E00E94AE0780912E0385FF05C00A
:1023400084E30E945C030E94E8070E947407809166
:102350002E0382FF6FC080E70E942807F80180816A
:1023600040E262E090E00E947807F801808D40E250
:1023700065E0F0E18F9FC00111240E947807F80109
:10238000818D40E265E0F0E18F9FC00111240E9441
:102390007807F801828D40E265E0F0E18F9FC0018F
:1023A00011240E947807F801838D40E265E0F0E196
:1023B0008F9FC00111240E947807F801828140E2BA
:1023C00063E090E00E947807F801818140E263E0D9
:1023D00090E00E947807F801238140E262E087E004
:1023E00090E0821B91090E94780780E20E942807F2
:1023F00080912E0385FF08C084E30E945C030E9445
:10240000E80780E20E942807F8018381873019F0ED
:1024100081818F5F8183F12CF8018181F81640F46E
:10242000F801EF0DF11D84810E94E807F394F4CFC9
:102430000E947407F801108280915B0181508093A3
:102440005B0180915C018F5F843019F080935C01A7
:1024500002C010925C0176988981843521F486E46B
:1024600091E00E9465262196E6E00C94CF2C1F9205
:102470000F920FB60F9211242F933F934F935F93B8
:102480006F937F938F939F93AF93BF93EF93FF933C
:1024900010926F0080912E0383FF03C08EE20E9492
:1024A000280780915D019CE1899FF0011124E25A87
:1024B000FE4F9081933018F09181923010F4CFDA72
:1024C00018C090915B01933049F480912E0382FFF4
:1024D000F6CF89E892E00E946707F1CF9F5F909363
:1024E0005B018F5F843019F080935D0102C0109210
:1024F0005D01FF91EF91BF91AF919F918F917F917E
:102500006F915F914F913F912F910F900FBE0F9060
:102510001F9018959BED980F973150F496EF960FFA
:102520009D3130F491E0681708F090E0892F08950C
:1025300080E008951F920F920FB60F921124FF9220
:102540000F931F932F933F934F935F936F937F93BB
:102550008F939F93AF93BF93CF93DF93EF93FF93AB
:1025600080915104882321F082E08093510463C15B
:102570008091BB03823021F483E08093BB035BC175
:10258000009184001091850064E0169507956A9586
:10259000E1F7C0915D019CE1C99FE0011124C25A9D
:1025A000DE4F9881943031F40E3208F444C10F3478
:1025B00048F0B6C0953031F4073108F43CC1083218
:1025C00008F0AEC04A990DC09450923038F461E0E2
:1025D000CE0156DA109285001092840000932B01F0
:1025E0002AC180912B01081B00932A0110928500BB
:1025F000109284009881983071F42A8121110BC0C7
:1026000021E02A83888F8A8F098F0B3B10F4000FFB
:1026100001C006950B8F9450923020F460E0CE01FB
:102620002FDA09C182E086BBF880F11011C09091C9
:102630002B01953608F0FFC080912A01853608F0FD
:10264000FAC0988F898F81E08A8382E08883F3C003
:1026500010912A0182E0F81273C000912B01412FE2
:10266000602FCE01489631DA6A818823F9F0488DCF
:1026700050E09A01220F331F240F351F200F311D08
:102680003595279535952795288F298D30E0C901F7
:10269000880F991F820F931F810F911D9595879524
:1026A00095958795898F6F5F6A83C5C0643008F4FC
:1026B00045C020EA3FE030938900209388008A815A
:1026C0008C3050F0888D298D30E0280F311D253653
:1026D000310524F084E027C08A3088F0888D298D68
:1026E00030E0280F311D253231054CF485E0888318
:1026F00028EE33E0309389002093880015C0809144
:102700003403882379F0612F802F04DF882351F070
:10271000688D898DFFDE882329F081E08093BB03DB
:102720009ED989C083E088830A8F1B8F198287E036
:102730008B831C8282E080936F007DC0188277CFEC
:1027400098E0F91225C081E9810F8D3178F460E0BD
:10275000CE0196D9288D30E0C901880F991F820FCC
:10276000931F20912B01820F911D4EC0173E08F43C
:1027700062C061E0CE0184D92A8D30E0C901880FA2
:10278000991F820F931F20912B01820F911D15C05D
:1027900000912B01412F602FCE014A9696D98823B4
:1027A00001F161E0CE016CD92A8D30E0C901880FBA
:1027B000991F820F931F800F911D95958795959571
:1027C00087958A8F2B8D30E0C901880F991F820F62
:1027D000931F810F911D95958795959587958B8F63
:1027E0002AC0412F602FCE0148966FD9882301F16E
:1027F00060E0CE0145D9288D30E0C901880F991FCE
:10280000820F931F800F911D9595879595958795BC
:10281000888F298D30E0C901880F991F820F931F7F
:10282000810F911D9595879595958795898F03C003
:1028300087E0F81275CFFF91EF91DF91CF91BF91B3
:10284000AF919F918F917F916F915F914F913F9148
:102850002F911F910F91FF900F900FBE0F901F901F
:102860001895E0915D018CE1E89FF0011124E25A96
:10287000FE4F8081811107C081E0909140049F3F0D
:1028800019F480E0089581E0089580E690E00E94C8
:102890004C088093340381E690E00E944C088093BA
:1028A000C503882321F081E280932E0348C908954F
:1028B0005B9A0C94BE065B980C94BE06A7E0B0E051
:1028C000E4E6F4E10C94B22C90913D03943559F474
:1028D0002091BE033091BF032F5F3F4F3093BF0362
:1028E0002093BE033EC0963459F42091BC0330912E
:1028F000BD032F5F3F4F3093BD032093BC0331C016
:10290000953459F420913103309132032F5F3F4FBA
:10291000309332032093310324C09B3459F4209127
:10292000C1033091C2032F5F3F4F3093C203209306
:10293000C10317C0983459F42091C3033091C403E4
:102940002F5F3F4F3093C4032093C3030AC02091ED
:102950002F03309130032F5F3F4F3093300320938C
:102960002F0395E79983882399F0BE016E5F7F4F0F
:102970008091C5030E943408BE016C5F7F4F809137
:1029800034030E94340885E58E8386E0D82E02C089
:10299000DD24D3940E945B040E94D70316E080E8F4
:1029A00091E086DF80E093E086DF1150C1F780E0A0
:1029B00093E07EDF80E891E07EDF80E891E078DFE1
:1029C0005B9887E390E00E94790383E00E94C3064E
:1029D00028988FE70E94E802809137038D0D0E94AE
:1029E000E802CE0101967C018C01F80181918F01F2
:1029F0000E94E802802F8E198D15B8F3809137035D
:102A0000882339F085E393E00E9489090E94E80257
:102A1000F5CF289A0E94D70385E393E00E946E09C0
:102A200015E18AE30E945C038F7731F0115021F0A9
:102A300081E00E94C306F5CF82D82796E7E00C9488
:102A4000CE2CCF93DF93EC018981811107C0809157
:102A500034030E94E8078091C50313C08436A1F4B3
:102A60008091270390912803A0912903B0912A0314
:102A700040E364E00E94AE078EE20E942807809146
:102A8000BA030E94E8074DC0833709F04DC040E308
:102A900061E08091BE039091BF030E94AE078EE279
:102AA0000E94280740E361E08091BC039091BD0340
:102AB0000E94AE078EE20E94280740E361E0809109
:102AC0003103909132030E94AE078EE20E942807E4
:102AD00040E361E08091C1039091C2030E94AE0780
:102AE0008EE20E94280740E361E08091C303909149
:102AF000C4030E94AE078EE20E94280740E361E013
:102B000080912F03909130030E94AE078EE20E94C5
:102B1000280740E361E08091B8039091B9030E94D7
:102B2000AE070E9474072CC08936D9F441E064E3F3
:102B300073E0CE0102960E94EC076091340380E6B8
:102B400090E00E94470841E065EC73E0CE010496F6
:102B50000E94EC076091C50381E690E00E9447085F
:102B60000FC085E393E00E946E0921966991662368
:102B700029F085E393E00E947309F8CF80E09EDEA0
:102B8000DF91CF910895A1E0B0E0E9ECF5E10C947C
:102B9000B12C8091BB03882309F486C0C090270321
:102BA000D0902803E0902903F0902A03833009F0A5
:102BB00061C08FE30E945C03182F8630C8F085ED5A
:102BC00094E00E946E0928988FEF0E94E80280E04E
:102BD0000E94E802082F115049F080E00E94E802AC
:102BE000682F85ED94E00E947309F5CF289A01C003
:102BF00000E00E949F0D1092BB03053709F054C0FE
:102C000041E0BE016F5F7F4F88ED94E00E94EC07CA
:102C1000019759F5998180913403981326C08091CA
:102C2000DC04853571F48091D704882339F085ED73
:102C300094E00E9489090E942807F5CF0E9474073A
:102C400033C08091D70484508093D70484E080936C
:102C5000D6046AE085ED94E00E947309E0912303B5
:102C6000F091240388E009951FC085ED94E00E944F
:102C70006E091AC0823059F4809133039C2D981B41
:102C8000983090F00E949F0D1092BB030DC08130D0
:102C900059F487E390E00E9479030E94E90382E0FF
:102CA0008093BB03C09233032196E8E00C94CD2CB3
:102CB000D8DD882361F083E08093C0038091B8035E
:102CC0009091B90301969093B9038093B8038091D2
:102CD000C00381508093C003882321F083E0809358
:102CE000BA03089581E0EACDCF93DF93EA98209A62
:102CF000289A8EE190E00E94BE0628988EE190E02E
:102D00000E94BE06289A8DE290E00E94BE0680E3F3
:102D10000E94750384E690E00E94BE06C0EBD2E0FC
:102D2000FE0131966491FE0184910E946303229614
:102D3000F2E0C23EDF07A1F78091CF01811107C009
:102D400083E30E94750384E00E94C3060FC0CAE9B2
:102D5000D2E0FE0131966491FE0184910E946303EA
:102D60002296F2E0C03BDF07A1F7EACF84E30E949E
:102D7000750385E30E945C038D30C1F7DF91CF912D
:102D80000895A2E3B0E0E7ECF6E10C94B52C809155
:102D9000CE01882309F4A1C04A9B8AC08FE30E9418
:102DA0005C038F778983823368F08AE30E9475031E
:102DB00086E30E9475038DE30E94750384E30E94FD
:102DC00075038BC028988FEF0E94E80210E089817C
:102DD000181760F480E00E94E802E2E0F0E0EC0FF7
:102DE000FD1FE10FF11D80831F5FF1CF80E00E9486
:102DF000E802082F80E00E94E802289A84E30E94FB
:102E0000750385E30E945C038D30C1F72A8196E744
:102E100092279A8392E08981E92FF0E0981768F46D
:102E200041E050E04C0F5D1FE40FF51F308124524C
:102E3000232720839F5F232FEECF81E090E08C0F2C
:102E40009D1FE80FF91F90818B81982790838091B7
:102E50002E0384FF12C081E60E94280710E08981BA
:102E6000811730F1E1E0F0E0EC0FFD1FE10FF11D03
:102E700080810E9428071F5FF2CF81E40E9428070B
:102E800010E08981811758F0E1E0F0E0EC0FFD1FC0
:102E9000E10FF11D80810E94E8071F5FF2CF809152
:102EA0002E0385FF03C0802F0E94E8070E9474074D
:102EB00085E30E945C03813029F0813161F48AE36B
:102EC0000E94750386E30E9475038DE30E947503DB
:102ED00084E30E9475030E94A204E296E4E00C944D
:102EE000D12C8F929F92AF92BF92DF92EF92FF927E
:102EF0000F931F93CF93DF93CDB7DEB7EA970FB64B
:102F0000F894DEBF0FBECDBF41E38E010F5F1F4FB0
:102F1000B80101960E94EC077C019927019729814D
:102F200030E08217930709F0A3C08091CE01811190
:102F300004C0DADE83E00E94C306DB808A8196E764
:102F400089278A8322E03981822F90E0F801E80FF7
:102F5000F91F231750F4DE01A80FB91F8C9184527A
:102F60009081892780832F5FEECF80818D2580839C
:102F7000CE01C7960E94C50585E30E94750385E3CF
:102F80000E945C03833181F1CE01C3960E94C50586
:102F90004BA95CA96DA97EA98FA998ADA9ADBAADC1
:102FA00084179507A607B70760F44A015B01881AE2
:102FB000990AAA0ABB0A2DEB82169104A104B10456
:102FC00070F4481759076A077B0770F484549F4FC1
:102FD000AF4FBF4F84179507A607B70728F480E9BE
:102FE00092E00E94670727C085E30E945C0383315B
:102FF00019F6D4FE08C088E70E94C30688E70E943D
:10300000C30688E701C08AE00E94C30628988FE7BC
:103010000E94E80258018A2D801B8E1530F4F501BC
:1030200081915F010E94E802F6CF289A85E30E9411
:103030005C038331D9F385E30E945C03863149F454
:103040008BE30E94750386E30E9475038DE30E9463
:1030500075038091CE01882349F084E30E947503B3
:1030600085E30E945C038D30C1F702C00E949F0D72
:10307000EA960FB6F894DEBF0FBECDBFDF91CF91B9
:103080001F910F91FF90EF90DF90BF90AF909F90B6
:103090008F900895FC012181223731F0223559F4B7
:1030A00081E08093CF0102C01092CF011DDE81E04C
:1030B0008093CE010895233711F4019612CF109218
:1030C000CE010895CF93DF93EA98209A289A8EE153
:1030D00090E00E94BE0628988EE190E00E94BE0615
:1030E000289A8DE290E00E94BE0680E30E9475035C
:1030F00084E690E00E94BE06CBEFD2E0FE01849110
:10310000813440F083E30E94750384E00E94C3068B
:10311000CFEF0DC0FE0131966491FE0184910E94B3
:1031200063032296F3E0C733DF0741F7EBCF84E375
:103130000E9475038AE090E00E94BE06C150B9F774
:1031400081E08093D001DF91CF910895EF92FF92BB
:103150000F931F93CF93DF93EC018B01F880F394CF
:103160006115710519F0E4E6F0E002C0E0E0F0E07E
:1031700028E0F29EC00111246AE070E00E948E2CCB
:103180009B012E0F3F1FC901AA2797FDA095BA2FBB
:10319000E0912B03F0912C03AF0160E070E0481741
:1031A00059076A077B0728F48BEE92E00E946707B5
:1031B000D9C0E21BF30BF0932C03E0932B03809117
:1031C000D001811101C07EDF85E30E945C038D3058
:1031D00071F08AE50E94280785E40E94280782E5AD
:1031E0000E94280782E50E94280781E34CC0809155
:1031F000D1019091D201A091D301B091D401892B3A
:103200008A2B8B2B51F50E94D70385E30E945C0328
:10321000833109F443C08AE50E94280785E40E94AF
:10322000280782E50E94280782E50E94280782E39A
:103230002AC08091270390912803A0912903B0917F
:103240002A034F5F5F4F6F4F7F4F84179507A60785
:10325000B707C9F681E00E94C306809127039091C9
:103260002803A0912903B0912A034091D1015091E4
:10327000D2016091D3017091D40184179507A607FC
:10328000B707B9F6E7CF0E94280785E30E945C03E1
:103290000E94E8070E94740715DF64C0012B41F407
:1032A00028988FE70E94E802EC2E0C2F1D2F0BC0F0
:1032B0000AE010E084E60E94C306015011090115DE
:1032C0001105C1F7EDCF802F8E198F1530F4F8015D
:1032D00081918F010E94E802F6CF289AC8EC85E31D
:1032E0000E945C038D30E9F485E30E945C038D301D
:1032F00019F18AE50E94280785E40E94280782E5E3
:103300000E94280782E50E94280783E30E9428077D
:1033100085E30E945C030E94E8070E947407D2DEE6
:103320000BC085E30E945C038331F1F681E00E94CB
:10333000C306C150A1F6D8CF8091D001811102C03F
:103340000E949F0D8091270390912803A09129034B
:10335000B0912A038093D1019093D201A093D3011D
:10336000B093D401CDB7DEB7E6E00C94CF2CACE03F
:10337000B0E0EDEBF9E10C94B62CFC018BE0898315
:1033800081818A831B8282E08C8387818D83808503
:103390008E8381858F8384818887858189878681D3
:1033A0008A871B861C8684E10E94C30660E070E069
:1033B000CE010196CBDE8AE50E94280710E0812F1E
:1033C00090E0298130E0281739075CF0E1E0F0E077
:1033D000EC0FFD1FE80FF91F80810E94E8071F5FB7
:1033E000EECF80912E0385FF03C080E00E94E807A6
:1033F0000E9474072C96E3E00C94D22CCF93DF93B9
:10340000EC018091D801811108C09091D9019111EE
:1034100004C09091DA019923A9F09B81903319F0AF
:103420009F7E903479F49F8198130CC09885809189
:10343000D901981307C099858091DA01981302C0C9
:10344000CE0195DF8091D501811108C09091D60100
:10345000911104C09091D7019923A9F098819B30D4
:1034600091F49B81903479F49F8198130CC09885D6
:103470008091D601981307C099858091D701981340
:1034800002C0CE0174DFDF91CF910895AEE1B0E0CC
:10349000ECE4FAE10C94B52C8091D001882309F476
:1034A00069C04A9B59C08FE30E945C038F778E31BD
:1034B00008F08DE1898328988FEF0E94E80210E0E0
:1034C0008981181760F480E00E94E802E2E0F0E0F1
:1034D000EC0FFD1FE10FF11D80831F5FF1CF80E036
:1034E0000E94E802082F80E00E94E802289ACE019C
:1034F000019684DF80912E0384FF12C08AE70E9428
:10350000280710E089818117A8F1E1E0F0E0EC0FD5
:10351000FD1FE10FF11D80810E9428071F5FF2CF80
:103520008AE50E94280710E08981811758F0E1E0C0
:10353000F0E0EC0FFD1FE10FF11D80810E94E80714
:103540001F5FF2CF80912E0385FF03C0802F0E9462
:10355000E8070E9474070EC085E30E945C03813176
:1035600049F48AE30E94750386E30E94750384E3AD
:103570000E9475036E96E4E00C94D12CAEE1B0E0AD
:10358000E4ECFAE10C94B52C8C01FC0181818237CA
:1035900011F498DD36C0833711F0863601F54DE120
:1035A000BE016F5F7F4FC80102960E94EC0799270A
:1035B0000197298130E08217930729F082EE92E08B
:1035C0000E9467071EC061E070E0F80181818337C7
:1035D00011F060E070E0CE010196B8DD12C08136D6
:1035E00021F443E068ED71E005C0873741F443E022
:1035F00065ED71E0C80102960E94EC0702C01092CE
:10360000D0016E96E4E00C94D12C0E94E903EA9874
:103610000895CF93DF93209A289A8EE190E00E943C
:10362000BE0628988EE190E00E94BE06289A8DE2A0
:1036300090E00E94BE0680E30E94750384E690E05D
:103640000E94BE068091CA038933C1F4CBE9D3E05E
:10365000FE0131966491FE0184910E9463032296DB
:10366000F3E0CD3CDF07A1F783E30E94750384E01C
:103670000E94C306CADFDF91CF910895843379F4A5
:10368000C9E6D3E0FE0131966491FE0184910E9467
:1036900063032296F3E0CB39DF07A1F7E5CF81334F
:1036A00019F7C7E3D3E0FE0131966491FE018491DE
:1036B0000E9463032296F3E0C936DF07A1F7D4CF57
:1036C000FC01908180910B04981318C09181809126
:1036D0000C04981313C0928180910D0498130EC0AE
:1036E000938180910E04981309C0808590910F04F6
:1036F000891302C081E008958F3FE1F380E00895CF
:103700002FEF662339F06150FC01E60FF11D308187
:103710002327F7CF822F0895DC01FC018FE09DE184
:1037200070E09F012A1B3B0B2617370704F52191F8
:10373000492F552742279A01329522952F7023272A
:103740003F70232724273527982F88278227932700
:10375000A901542F44275295507F8427952745E08F
:10376000220F331F4A95E1F782279327DACF089576
:10377000EF92FF920F931F93CF93DF93182FF92EA1
:10378000062F769A8091CA03893339F464E182E185
:103790000E946303602F660F6D5E86E00E946303E4
:1037A0000E94D70328988FE70E94E8028091CA03FD
:1037B000893321F0E12EC12FDF2D4EC0CFE086E608
:1037C0000E94E802C150D9F78AEA0E94E80285E522
:1037D0000E94E802E12EC12FDF2D8C2F8E19801759
:1037E000A0F5199117FF02C080E801C080E416FF20
:1037F00002C090E201C090E1980F15FF02C088E07E
:1038000001C084E0890F14FF02C092E001C091E082
:10381000890F0E94E80213FF02C080E801C080E423
:1038200012FF02C090E201C090E1980F11FF02C0A8
:1038300088E001C084E0890F10FF02C092E001C05F
:1038400091E0890F0E94E802C8CF80E00E94E80260
:1038500080E00E94E8020AC08C2F8E19801730F495
:103860008881809589930E94E802F6CF289A85E3A3
:103870000E945C038331D9F36FEF86E00E946303FB
:103880008091CA03893321F46EE182E10E946303CF
:10389000BCDE7698CDB7DEB7E6E00C94CF2CA1E481
:1038A000B0E0E5E5FCE10C94AD2C8091DB018823D0
:1038B00009F4FDC04A9BFBC0769A28988FEF0E94BE
:1038C000E8028E010F5F1F4F6E0189E0C80ED11C08
:1038D000780180E00E94E802F70180839091CA039A
:1038E000993311F080958083FFEFEF1AFF0AEC14F3
:1038F000FD0479F7289AB88487EF8B0D883310F090
:1039000088DED5C06B2D86E00E9463038091CA03D8
:10391000813331F0843341F4ACEDEA2EF12C08C050
:10392000FAE5EF2EF12C04C0E8E9EE2EE3E0FE2EDE
:1039300068E3962E78E0A72ECB2CD12CC7010E94ED
:10394000BE068BE30E945C03882E882331F1282F6A
:1039500030E02A0D311DC216D30694F228988FEF5D
:103960000E94E8028A0CA81471F080E00E94E8022C
:103970009091CA03993309F08095F801EA0DF11D81
:103980008083A394F0CF289AAB1438F08091CA03B7
:10399000EB2CF12C8133D9F403C09A9479F6F6CF4D
:1039A000FE013197EE0DFF1DC080D12CDC2CCC2404
:1039B000FE01EE0DFF1D8081C80ED11C6EEF6B0D58
:1039C000C801AADE21E08C159D0559F40BC06FEFEC
:1039D0006B0DC80195DEFE01EE0DFF1D21E090810B
:1039E000891320E08091DB01823751F4C8012296CF
:1039F0002FAF229765DE22962FAD2297882399F06C
:103A0000222391F08AE70E9428077801F70181912B
:103A10007F010E94E8078E2D801B8B15B8F30E9452
:103A2000740721E001C020E08091DB018237C9F5F5
:103A30002223B9F18091CA03813321F4FBE0FB1505
:103A400020F02FC08AE08B1560F58AE00E94C30643
:103A50008D81898780910F048D8383E08E8380918F
:103A6000CA03813349F48BE0888769E0C80154DEDA
:103A70009A878B876BE007C08AE0888769E0C80176
:103A80003FDE8A876AE0C80173DE8AE70E94280762
:103A900081E60E94280789850E94E8070E94740732
:103AA00005C06FEF86E00E946303AFDD7698CF5BC1
:103AB000DF4FECE00C94C92CFC012181223711F07E
:103AC0002D3651F4FC018281811101C084E3809381
:103AD000CA032093DB019DCD233751F440E46BEC06
:103AE00073E002960E94EC07682F8BEC93E040CEC7
:103AF000293671F5FC012281222331F045E06BE08B
:103B000074E002960C94EC078091DB010E94280778
:103B10008091CA030E94280780E20E9428078091B2
:103B20000B040E94E80780910C040E94E807809132
:103B30000D040E94E80780910E040E94E80780E2CD
:103B40000E94280780910F040E94E8070C947407D4
:103B50001092DB010895CF93DF93EA98209A289A78
:103B60008EE190E00E94BE0628988EE190E00E94CF
:103B7000BE06289A8DE290E00E94BE0680E30E9475
:103B8000750384E690E00E94BE06289880E40E94B7
:103B9000E802CDECD3E0FE0184910E94E802219678
:103BA000F3E0CA3DDF07B9F7809108010E94E802FF
:103BB000809109010E94E80280910A010E94E802B6
:103BC000C0E0D0E0FE01E352FC4F84910E94E80285
:103BD0002196C931D105B1F7289A28988EE70E941D
:103BE000E8028BE290E0EC0121960E944C080E94D2
:103BF000E802C333D10511F0CE01F5CF289A83E353
:103C00000E94750381E00E94C30681E08093250332
:103C1000DF91CF9108956F927F928F929F92AF9292
:103C2000CF92EF92FF920F931F93CF93DF93EC010C
:103C30008981843769F46FE071E0CE0102960E94B9
:103C4000190840E260E080910F019091100112C0CC
:103C5000833709F091C18A81823789F46BE071E082
:103C6000CE0103960E94190840E260E080910B01AA
:103C700090910C010E9478070E947407F1C1769A16
:103C80008091DE01811116C08091CE01882329F038
:103C900081E08093DD011092CE018091D0018823D4
:103CA00029F081E08093DC011092D00154DF83E0A1
:103CB0000E94C30686E30E9475038AE30E9475038F
:103CC0008BE30E9475030E94D703FE010190002040
:103CD000E9F70E2F0C1B0250C12CFAE09F2E7E013B
:103CE00032E0E30EF11CA5E0AA2EB8E28B2E809103
:103CF0000B0190910C012C2D332727FD30952817AF
:103D0000390708F0FBC00132A1F45B9A80910F01E2
:103D1000909110010E94BE065B9880910D019091D8
:103D20000E01FC019E9EC0019F9E900D11240E94D9
:103D3000BE06370111E010170CF0B7C0F3018191F6
:103D40003F015B9A803309F046C0013201F5809152
:103D50000D0190910E010E94BE065B9880910D01AD
:103D600090910E010E94BE065B9A80910D01909188
:103D70000E010E94BE065B9880910D0190910E018C
:103D80009C01A29EC001A39E900D11248AC0809127
:103D90000F01909110010E94BE065B9880910F0167
:103DA000909110019C01220F331F820F931F0E94DC
:103DB000BE065B9A80910F01909110010E94BE0691
:103DC0005B9880910F01909110019C01220F331F8D
:103DD000820F931F66C0813329F5013291F48091DF
:103DE0000D0190910E010E94BE065B9880910D011D
:103DF00090910E01FC01AE9EC001AF9E900D11246A
:103E00001EC080910F01909110019C01220F331F61
:103E1000820F931F0E94BE065B9880910F019091C4
:103E200010012CC00132D1F480910D0190910E014E
:103E30000E94BE065B9880910D0190910E010E9438
:103E4000BE065B9A80910D0190910E010E94BE0604
:103E50005B9880910D0190910E0123C080910F011C
:103E6000909110010E94BE065B9880910F01909185
:103E700010019C01220F331F820F931F0E94BE0668
:103E80005B9A80910F01909110019C01220F331FCA
:103E9000820F931F0E94BE065B9880910F01909144
:103EA00010010E94BE061F5F46CF5B9A0132A1F44B
:103EB00080910D0190910E010E94BE065B98809149
:103EC0000D0190910E019C01829EC001839E900D78
:103ED00011240E94BE0610C080910F019091100124
:103EE0000E94BE065B981FE180910F019091100126
:103EF0000E94BE061150C1F7C394F9CE8091DE0135
:103F0000882341F080912E0381110FC086E30E9427
:103F1000750318C08091DD01882351F01092DD01F6
:103F20000E94741681E08093CE010E94E9030AC0CA
:103F30008091DC01882321F01092DC01C3D802C0FB
:103F40000E949F0D769889E60E94280783E70E94C9
:103F5000280711E010170CF08FCEFE01E10FF11DC4
:103F600017FDFA958181803319F0813309F086E4D9
:103F70000E9428071F5FEECF8237B9F48091CE01EF
:103F8000882329F081E08093DD011092CE01809199
:103F9000D001882329F081E08093DC011092D001C8
:103FA000DADD81E08093DE015BC0863651F58A81DF
:103FB000803351F480E18093080180EB8093090104
:103FC00081E780930A0107C043E068E071E0CE0119
:103FD00002960E94EC0789E60E94280786E60E9466
:103FE00028078AE30E942807809108010E94E807B9
:103FF000809109010E94E80780910A010E94E80768
:104000003BCE883729F58091DD01882341F010925D
:10401000DD010E94741681E08093CE0110C0809172
:10402000DC01882321F01092DC014CD80EC082E024
:1040300090E00E94790380912E03882319F00E945A
:10404000E90303C086E30E9475031092DE0108C0F5
:10405000833631F46FE071E0CE0101960E941908B9
:10406000DF91CF911F910F91FF90EF90CF90AF9084
:104070009F908F907F906F900895A2E0B0E0E3E46E
:10408000F0E20C94AA2C7C01FC018181833709F0B9
:104090009DC1198287E090E00E94DE2C8C0141E0F6
:1040A000BE016F5F7F4FC70102960E94EC078981B6
:1040B000F801808341E0BE016F5F7F4FC701049626
:1040C0000E94EC072981207FF801218341E0BE0195
:1040D0006F5F7F4FC70106962A830E94EC07898194
:1040E000F801828341E0BE016F5F7F4FC7010896F0
:1040F0000E94EC078981F801838341E0BE016F5F74
:104100007F4FC7010A960E94EC078981F8018683D8
:1041100041E0BE016F5F7F4FC7010C960E94EC0724
:104120008981F801858341E0BE016F5F7F4FC70140
:104130000E960E94EC078981F801848380E090E06C
:104140002A814191342F32953F70342783279F5F16
:104150009730B9F78F70822BF801818387E090E068
:104160000E94DE2C5C0187E0F801D50101900D92E0
:104170008A95E1F7D8011196C8010696F8013D919C
:10418000219123272083E817F907C9F7769A8091B0
:10419000E101811160C08091CE01882329F081E086
:1041A0008093E0011092CE018091D001882329F004
:1041B00081E08093DF011092D001EA98209A289A3A
:1041C0008EE190E00E94BE0628988EE190E00E9469
:1041D000BE06289A8DE290E00E94BE0680E30E940F
:1041E000750384E690E00E94BE06289880E40E9451
:1041F000E80266EFE62E63E0F62EF70184910E9456
:10420000E802FFEFEF1AFF0A2FE1E21624E0F206C0
:10421000A1F7289A28988EE70E94E8028BE290E0A6
:104220007C01EFEFEE1AFE0A0E944C080E94E802A1
:10423000F3E3EF16F10411F0C701F2CF289A83E3FC
:104240000E94750381E00E94C30681E080932503EC
:1042500083E00E94C30686E30E9475038AE30E94FE
:1042600075038BE30E9475030E94D7035B9A87EC6A
:1042700094E20E94BE065B9889E50E94C30685E32E
:1042800092E00E94BE06712C8091150190E0272DCE
:10429000332727FD3095281739070CF057C07110C8
:1042A00002C022E001C027E0F12C5B9A86EF99E082
:1042B0002A830E94BE065B9886EF99E00E94BE06A4
:1042C000F3942A81F2168CF35B9A8CEF92E10E94B0
:1042D000BE065B9880911101909112010E94BE066A
:1042E0006801612CF60181906F0148E0542E50E87E
:1042F000E52EF12C912CC70188219921892B49F4B5
:104300005B9A80911101909112010E94BE065B9808
:1043100008C05B9880911101909112010E94BE0625
:104320005B9A80911101909112010E94BE06F69451
:10433000E7945A9401F76394F7E06F12D3CF5B9838
:1043400080E090E00E94BE0673949ECF8091E101D0
:10435000882341F080912E0381110FC086E30E94D3
:10436000750319C08091E001882351F01092E0019B
:104370000E94741681E08093CE010E94E9030BC075
:104380008091DF01882329F01092DF010E946218DA
:1043900002C00E949F0D769889E50E94280783E756
:1043A0000E9428077501D12CF70181917F010E949D
:1043B000E807D394F7E0DF12F7CF0E947407C50136
:1043C0000E94762DC8010E94762D6FC08237A9F415
:1043D00065E171E0C70102960E94190889E50E9413
:1043E000280782E70E9428078AE30E942807809115
:1043F000150140E260E090E02CC0843779F5F701C8
:104400008281803339F488ED94E090931401809395
:10441000130106C063E171E0C70102960E9419080A
:1044200080911301909114019695879590931201B4
:104430008093110189E50E94280784E70E942807DC
:104440008AE30E94280740E266E080911301909180
:1044500014010E9478070E94740727C0883729F545
:104460008091E001882341F01092E0010E947416CF
:1044700081E08093CE0111C08091DF01882329F073
:104480001092DF010E9462180EC082E090E00E944C
:10449000790380912E03882319F00E94E90303C059
:1044A00086E30E9475031092E1012296EFE00C94DE
:1044B000C62C10922B0410929D0283E08093E7019A
:1044C0008FEF809340040895E8EEF1E02081211100
:1044D00005C0892BB1F080E090E00895B2E0E639A4
:1044E000FB07B8F7009751F04181DC013C91431381
:1044F00005C0428111963C91431751F0E20FF11D26
:10450000E5CF32E0E639F30719F010F0E6E9F2E022
:10451000CF01089594E0899FF0011124EF5BFB4FD8
:1045200080818F3F91F08093E20181818093E3014C
:1045300082818093E40183818093E50121E04CE056
:1045400064E082EE91E00C94800A089587E992E09D
:10455000BBDF009799F02091E701FC013081231720
:1045600068F4E20FF11D80818093990289E78093BE
:104570009A02818180939B0281E0089580E00895F2
:10458000EF92FF921F93CF93DF931F92CDB7DEB7C9
:10459000182F80912E0386FF18C084E599830E940E
:1045A0002807E12E9981F92E15E0F70181917F010D
:1045B0000E94E8071150C9F780912E0385FF03C0C0
:1045C0008AEF0E94E8070E9474070F90DF91CF9155
:1045D0001F91FF90EF90089586E30E9475038091EC
:1045E0009902833511F48BE901C08BE40E94C30664
:1045F00021E04CE065E087E992E00E94800A0E9499
:10460000E90387E992E0BCCFE7DF80919902893620
:1046100031F081E08093960289E28093400408950E
:10462000CF9385E390E00E944C088093110486E3C9
:1046300090E00E944C0880933F04CFEFC0932F047A
:10464000C0933104C0933304C0933504C09337043E
:10465000C0933904C0933B04C0933D042ADF1092F9
:10466000E80181E080931004C09341048FEF9FEF35
:10467000909314048093130410921604109215045E
:104680001092180410921704C093450490931A04D2
:104690008093190410921C0410921B0410921E04A3
:1046A00010921D04C09349049093200480931F042A
:1046B00010922204109221041092240410922304D8
:1046C000C0934D04909326048093250410922804EF
:1046D0001092270410922A0410922904CF91089571
:1046E000ACE0B0E0E6E7F3E20C94B02C6C018C0196
:1046F0000F5F1F4F45E0BE016F5F7F4FC8010E94F3
:10470000EC07843008F0F3C099819130A9F483302C
:1047100061F46A8185E390E00E9447086B8186E33B
:1047200090E00E9447087CDF06C2809111040E943D
:10473000E80780913F049AC0923009F051C081305F
:1047400039F081E09A81913009F080E0F82E02C0C2
:10475000FF24F3948091E801811104C08FE194E07B
:104760000E94670708EE11E0F8018081882309F4B0
:10477000BBC0F2E006391F0708F0B6C031E0083EC2
:10478000130719F080E20E942807F80181810E9436
:10479000E807F80182810E94E807FF20E1F08AE340
:1047A0000E94280793E0F80180819817A0F49430C4
:1047B00038F090FF05C08CE29C870E9428079C85FA
:1047C000EE24E394E90EF801E90FF11D80810E94C7
:1047D000E8079E2DE8CFF8018081080F111DC4CF96
:1047E000933049F480E090E06FDE885E91409EEA6D
:1047F000981B892F3BC0903171F50FE214E080E3E4
:10480000E82E84E0F82EC12CD12CF80180818F3F56
:10481000A1F0DD2019F080E20E9428078C2D0E9473
:10482000E8078AE30E942807F80180810E94E807D0
:10483000F70180810E94E807D3940E5F1F4FC39455
:10484000F2E0EF0EF11C38E0C312DFCFD1104CC004
:104850008DE294E047C0913161F480912D049091F4
:104860002E046DE770E00E947A2C862F0E94E807E4
:104870003BC09231C9F511E4E12E14E0F12E04E4BD
:1048800014E0C12CD12CF70180818F3FF1F0DD20A5
:1048900019F080E20E9428078C2D0E94E8078AE325
:1048A0000E942807F70180810E94E807F8013297EB
:1048B00080810E94E807F801319780810E94E80713
:1048C000F80180810E94E807D394F4E0EF0EF11C18
:1048D000C3940C5F1F4F34E0C312D5CFD11004C076
:1048E00089E294E00E9467070E94740724C144E0B3
:1048F000BE01695F7F4FC8010E94EC074F814936B6
:1049000008F477C07A85588569857C3009F04BC0FA
:1049100020E030E080E090E0F901EF5BFB4F708138
:1049200074131CC0A181A51319C0A281A61316C0BF
:104930002CE023839C01220F331F280F391FF9011C
:10494000EE0FFF1FED5EFB4F11821082F901EE0F9B
:10495000FF1FEB5EFB4F11821082CFC07F3FD9F467
:104960004083518362832CE023839C01220F331FF9
:10497000280F391FF901EE0FFF1FED5EFB4F11826B
:104980001082F901EE0FFF1FEB5EFB4F11821082C8
:1049900010921004B2C001962C5F3F4F20313105B8
:1049A00009F0BACFC8C080E090E020E030E0FC0120
:1049B000EF5BFB4FA081A41315C0A181A51312C00A
:1049C000A281A6130FC07383F901EE0FFF1FE20F40
:1049D000F31FEE0FFF1FEB5EFB4F81E090E0918332
:1049E0008083A9C02F5F3F4F049680319105F9F66F
:1049F000A2C0E98180911104E817C0F190E0F0E0D5
:104A00009C01295F3F4F2E173F0784F13A81209187
:104A10003F0432132BC03C813F3231F442E06CE062
:104A2000C6010E94ED0A87C02D813C32B1F420936B
:104A30002C0481E090E090932E0480932D048091CB
:104A40002B0390912C03E4E02E9F800D911D1124E7
:104A500090932C0380932B036EC0E81BF90BEE0F91
:104A6000F0E0E15DFB4F3083218365C080E090E0A2
:104A70002BDD7C01F80101900020E9F73197E01B64
:104A8000F10BF695E795BB24B394BE0EC7018B0DD1
:104A9000911D885E91408F3A91050CF048C0F70156
:104AA000B1928F0121E0822F880F81502B15D8F40D
:104AB00041E0B801F601E80FF11DCF012C870E94FB
:104AC000EC072C85233058F020FD09C0D801119740
:104AD0008C91843621F4F8018081809312042F5F39
:104AE0000F5F1F4FE0CFF6E9EF16F2E0FF0618F573
:104AF000F701E20FF11D10821EC022E04CE064E0DD
:104B0000CE0107960E94800A8FE08A8722E04CE05F
:104B100064E0CE0107960E94800A82E08A8722E044
:104B20004CE064E0CE0107960E94800A04C083E254
:104B300094E00E9467072C96E9E02EC70F931F931D
:104B4000CF93DF939091100491114FC093E0899F10
:104B500080011124F801EE0FFF1FED5EFB4F94E082
:104B6000899FD0011124AF5BBB4F12969C91977027
:104B700040E850E0491B51099AEF949F9001959F9E
:104B8000300D112435952795359527953183208350
:104B9000E801CC0FDD1FC95EDB4F288139812F5F13
:104BA0003F4F39832883000F111F0B5E1B4FF80105
:104BB000408151814115510529F424303105A9F472
:104BC000A9DC11C04130510539F4A4DC82E090E049
:104BD000F8019183808309C04230510531F49ADC99
:104BE000F8011182108219821882DF91CF911F91F2
:104BF0000F910895A6E0B0E0EFEFF5E2B4C6209182
:104C00003F042A831B8280912C04882341F0833047
:104C100019F487E791E00FC08DE790E00CC0277092
:104C200030E02A513F4F4DE7429FC001439F900D16
:104C300011249595879590932E0480932D0400E37D
:104C400014E0F12C7CE2E72EF801319790819F3F30
:104C5000C1F0809111048F0D898380912C048823E9
:104C600011F0EC8203C09C83F80180818D8321E0E8
:104C70004CE065E0CE0101960E94800ACE010196CB
:104C80007FDCF3940E5F1F4FF8E0FF12DDCF8091C1
:104C90002C04882341F0833019F410922C0403C0B3
:104CA000825080932C042696E6E079C68091960285
:104CB000882351F091DC89E2809340048091960230
:104CC0008150809396020895F4CBFF920F931F9327
:104CD000CF93DF93FC01F0800181C281D3811481E5
:104CE0008FE5809340041092960280911104811107
:104CF00005C080913F04882309F4A9C080919702E0
:104D00008F1104C080919802801729F0D2DBF092B5
:104D100097020093980280912B048F3F09F497C06B
:104D2000C0939902D0939A0210939B02CC23F1F086
:104D300081111CC080911104181761F0143651F0D4
:104D40008DEA8C0F823010F0CD3739F48FEF8093DD
:104D50002B047DC0C43509F47AC08D2F807F803646
:104D600009F075C0D067D0939A0257C0EFDB81116C
:104D700005C080912B04882309F469C080919D02AD
:104D8000811107C0E0912B04F0E0EF5CFB4FE49150
:104D900001C0E82FE33541F4C43531F490912B0480
:104DA0009E5F90932B0404C0EC1711F082DB4FC080
:104DB000882369F08091E7018E5F8093E701C6DB6D
:104DC00081110EC080912B048E5F80932B04809103
:104DD0002B04E82FF0E0EE5CFB4F14911F3F59F4D9
:104DE0008091990280939D028436B9F480911204D7
:104DF00080939B0212C01093990297E790939A02B6
:104E00009091110490939B028E5F80932B041092DB
:104E10009D028E3021F01123D1F0F6DB18C087E916
:104E200092E052DBDC01009781F02C9130E086E9C2
:104E300092E0821B930BA817B90730F4ED01C20F63
:104E4000D31F48814D93F7CF1C9233DBE4CFCDB70E
:104E5000DEB7E5E0A5C5FF920F931F93CF93DF93D5
:104E60008C01EC0109900020E9F72197C81BD90BB0
:104E7000FC018181823751F487E390E00E9479033D
:104E80000E94E90381E08093510426C0833711F525
:104E9000FC2E28988FE70E94E8028C2F82500E94F7
:104EA000E802E801229612E01F1528F489910E9479
:104EB000E8021F5FF9CF289A0E94D7038AE30E9475
:104EC0005C038F7721F081E00E94C306F7CF0E9438
:104ED000E90302C010925104CDB7DEB7E5E060C52A
:104EE000A0E8B0E0E5E7F7E23CC5809151048823F3
:104EF00009F454C0813011F5809127039091280363
:104F0000A0912903B0912A0320919E02281709F449
:104F100045C085E30E945C03813129F48AE30E9445
:104F200075030E94E9038091270390912803A091C3
:104F30002903B0912A0380939E0230C08FE30E9420
:104F40005C03D82E87FD27C028988FEF0E94E802C7
:104F50008E010F5F1F4F7801C02E8E2D801B8D1587
:104F600038F480E00E94E802F70181937F01F5CFD9
:104F7000289A81E080932401802F8C198D1530F4BC
:104F8000F80181918F010E942807F6CF0E947407D3
:104F90008FEF8093240181E080935104C058DF4F4C
:104FA000E8E0FBC40F931F93CF93DF93EC0110E075
:104FB000212F30E0F901EE0FFF1FE20FF31FE05445
:104FC000FF4F0491F901EE0FFF1FE20FF31FEF53A4
:104FD000FF4F25913491002399F0209739F480E216
:104FE0000E942807802F0E94280708C0888180130C
:104FF00005C0CE01F901099581E003C01F5FD8CF3C
:1050000080E0DF91CF911F910F910895CF93C091D0
:105010002401809324018091D7048823A1F185ED98
:1050200094E00E948909E0919F028A3011F08D304E
:10503000F9F4EE2381F3F0E0E056FD4F108280EAB0
:1050400092E0B0DF811111C087E594E00E9467070C
:1050500080EA92E00E945C078FE394E00E94670779
:1050600080E090E09FDF0E94740710929F02D3CFF0
:10507000E7FDD1CF91E09E0F90939F02F0E0E056C4
:10508000FD4F8083C8CFC0932401CF910895E4E6FB
:10509000F0E080818B7F8083299A84B1876084B916
:1050A000239880E58CBD8DB581608DBD08952091DC
:1050B0006505309166052115310521F4209118010F
:1050C000309119018091160190911701009741F4D8
:1050D0008DB79EB740911A0150911B01841B950B0F
:1050E0002817390718F4821B930B089580E090E08D
:1050F000089582E40E94280740E265E080916505FA
:10510000909166050E9478070E94740783E50E94CB
:10511000280740E265E080911801909119010E94F2
:1051200078070E94740785E40E94280740E265E042
:1051300080911601909117010E9478070E947407D0
:1051400086E40E942807B3DF40E265E00E9478070A
:105150000C947407A2E0B0E0EFEAF8E208C4EDE5D1
:10516000F5E08091F100819385E0E536F807C9F715
:1051700020915D0530915E05832F90E08A30910586
:1051800008F01AC1FC01EA5AFF4FDBC3203879F05E
:10519000223809F011C1809161058093E900809166
:1051A000EB0085FB882780F91092E90006C080910A
:1051B000580590915905911182609091E800977F70
:1051C0009093E8008093F1001092F1008091E80044
:1051D000982F9E7F9093E8008F778093E8008091CE
:1051E000E80082FDAFC080915C058111F8CFD5C089
:1051F000822F8D7F09F0E0C0222319F0223061F068
:1052000033C080915F05813009F0C7C0333009F0A9
:1052100080E08093590528C080915F05811124C0EA
:1052200020916105277009F4B8C02093E9008091AE
:10523000EB0080FF19C08091EB00313091F4806168
:105240008093EB0081E090E0022E01C0880F0A9469
:10525000EAF78093EA001092EA008091EB00886000
:1052600001C080628093EB001092E9008091E80019
:10527000877F8093E8008091E800982F9E7F66C02A
:1052800021119AC020915F058091E800877F80936B
:10529000E8009091E800892F8E7F8093E8009F7747
:1052A0009093E8008091E80080FD05C080915C0546
:1052B0008111F8CF72C0822F8F77982F90689093CA
:1052C000E300882309F469C083E080935C0565C02E
:1052D0002058223008F070C0AE014F5F5F4F6091E0
:1052E000610580915F05909160050E94AE02009774
:1052F00009F453C02091E800277F2093E800BC0107
:1053000089819A812CD11EC0203809F055C0809126
:10531000E800877F8093E80080915A058093F10030
:105320008091E800982F9E7F9093E8008F7780937C
:10533000E8008091E80082FD05C080915C05811144
:10534000F8CF2BC08091E800982F9B7F9093E800C6
:105350008F778093E80021C021112EC090915F05C6
:105360009230D8F48091E800877F8093E800909392
:105370005A058091E800982F9E7F9093E8008F77E0
:105380008093E80080915A05882311F084E001C0E1
:1053900083E080935C050E9420058091E80083FFF4
:1053A0000EC08091EB0080628093EB008091E8005A
:1053B000877F8093E80003C00E943805EECF2296D5
:1053C000E2E0F1C28093E900EBEEF0E080818160E1
:1053D0008083EDEEF0E010826093EC0040838091DA
:1053E000EE00881F8827881F08951092F40080E03F
:1053F0008093E9001092F0001092E8009091ED0087
:105400009D7F9093ED009091EB009E7F9093EB0039
:105410008F5F873069F7089580915D0587FD05C02E
:105420008091E80080FF0FC013C08091E80082FDEA
:1054300005C080915C058111F8CF08958091E80046
:10544000982F9B7F09C080915C058111E9CF089559
:105450008091E800982F9E7F9093E8008F7780934B
:10546000E800089585E69091EC0090FF05C09091CA
:10547000E80090FF05C019C09091E80092FD15C0AA
:1054800090915C05992399F09091EB0095FD11C0E6
:105490009091E10092FFE7CF9091E1009B7F909384
:1054A000E100815001F783E0089580E0089582E0F3
:1054B000089581E0089540916305509164059B0132
:1054C0004617570708F49A0160E021153105D9F114
:1054D0004091E80043FD3FC04091E80042FF06C014
:1054E0008091E80082FF32C080E0089540915C0521
:1054F000442399F14091E80040FFE7CFFC01CF0140
:105500002115310569F04091F2005091F3004830C7
:10551000510530F481918093F10021503109EFCF92
:105520004091F2005091F30061E04830510509F0DC
:1055300060E04091E800542F5E7F5093E8004F7781
:105540004093E800C2CF6111C3CFCACF80915C0500
:105550008111C6CF02C081E0089582E00895409194
:105560006305509164059B014617570708F49A019B
:1055700060E02115310509F43CC04091E80043FD8D
:1055800040C04091E80042FF06C08091E80082FFE1
:1055900033C080E0089540915C054423A1F140911F
:1055A000E80040FFE6CFFC01CF012115310571F085
:1055B0004091F2005091F3004830510538F4849145
:1055C0008093F100215031093196EECF4091F200E5
:1055D0005091F30061E04830510509F060E04091DE
:1055E000E800542F5E7F5093E8004F774093E80027
:1055F000C0CF6111C2CFC9CF80915C058111C5CFE9
:1056000002C081E0089582E008956115710581F17D
:105610002091E80023FD31C020915C05222389F10F
:105620002091E80022FFF4CFFC018091F2009091DC
:10563000F300892B71F09F012F5F3F4FC90140910B
:10564000F1004083615071096115710519F0F9018C
:10565000ECCFCF012091E800322F3B7F3093E80060
:105660002F772093E800D1CF80915C05882349F003
:105670008091E80080FFF8CF02C081E0089580E0CB
:10568000089582E0089567D06ED010925C05109264
:105690005A0510925905109258058AE482BF19BC28
:1056A00089B5826089BD09B400FEFDCF8091D80024
:1056B000982F9F779093D80080688093D80080912E
:1056C000D70081608093D7008091D8008F7D809330
:1056D000D8008091E0008B7F8093E0008091E00013
:1056E0008E7F8093E0008091E1008E7F8093E100C7
:1056F0008091E20081608093E2008091E100877FE9
:105700008093E1008091E20088608093E2008091C4
:10571000D80081608093D8000895B5DFE8EDF0E00F
:1057200080818061808381E080935B057894089517
:10573000AADFE0EEF0E0808181608083E8EDF0E0B8
:1057400080818F77808319BC80818F7E80831092C7
:105750005B0508950895E8EDF0E080818E7F8083F9
:105760001092E20008951092DA001092E10008957C
:105770001F920F920FB60F9211242F933F934F93C6
:105780005F936F937F938F939F93AF93BF93EF93A9
:10579000FF938091DA0080FF15C08091D80080FFD0
:1057A00011C08091DA008E7F8093DA008091D90059
:1057B00080FF05C081E080935C05CCDF03C01092C0
:1057C0005C05C8DF8091E10080FF1DC08091E20090
:1057D00080FF19C08091E1008E7F8093E10080916D
:1057E000E2008E7F8093E2008091E20080618093EE
:1057F000E2008091D80080628093D80019BC85E0D7
:1058000080935C05A7DF8091E10084FF29C080912F
:10581000E20084FF25C019BC89B5826089BD09B446
:1058200000FEFDCF8091D8008F7D8093D8008091BD
:10583000E1008F7E8093E1008091E2008F7E809373
:10584000E2008091E20081608093E20080915A053D
:10585000882311F084E001C083E080935C057ADF47
:105860008091E10083FF23C08091E20083FF1FC08D
:105870008091E100877F8093E10082E080935C0566
:1058800010925A058091E1008E7F8093E100809113
:10589000E2008E7F8093E2008091E200806180933D
:1058A000E200A3DD42E060E080E08CDD53DFFF91A9
:1058B000EF91BF91AF919F918F917F916F915F9188
:1058C0004F913F912F910F900FBE0F901F90189501
:1058D000CF9380915C05882359F0C091E900C7708F
:1058E0001092E9008091E80083FD34DCC093E90068
:1058F000CF910895AA1BBB1B51E107C0AA1FBB1F74
:10590000A617B70710F0A61BB70B881F991F5A954B
:10591000A9F780959095BC01CD01089597FB072EBE
:1059200016F4009406D077FD08D0E4DF07FC05D01C
:105930003EF4909581959F4F0895709561957F4FA6
:105940000895EE0FFF1F0590F491E02D09942F921A
:105950003F924F925F926F927F928F929F92AF92FF
:10596000BF92CF92DF92EF92FF920F931F93CF934C
:10597000DF93CDB7DEB7CA1BDB0B0FB6F894DEBFE3
:105980000FBECDBF09942A88398848885F846E8409
:105990007D848C849B84AA84B984C884DF80EE8053
:1059A000FD800C811B81AA81B981CE0FD11D0FB65C
:1059B000F894DEBF0FBECDBFED010895CF93DF9306
:1059C0008230910510F482E090E0E0916705F0915B
:1059D000680520E030E0A0E0B0E0309739F1408188
:1059E000518148175907B8F04817590771F4828157
:1059F0009381109729F013969C938E9312972CC045
:105A0000909368058093670527C02115310531F013
:105A10004217530718F0A901DB0101C0EF019A01F9
:105A2000BD01DF010280F381E02DD7CF21153105C3
:105A3000F9F0281B390B2430310580F48A819B81D1
:105A40006115710521F0FB019383828304C090935B
:105A5000680580936705FE01329644C0FE01E20F9F
:105A6000F31F8193919322503109398328833AC0DF
:105A70002091650530916605232B41F42091180192
:105A80003091190130936605209365052091160128
:105A9000309117012115310541F42DB73EB74091E2
:105AA0001A0150911B01241B350BE0916505F09103
:105AB0006605E217F307A0F42E1B3F0B28173907E2
:105AC00078F0AC014E5F5F4F2417350748F04E0F5A
:105AD0005F1F50936605409365058193919302C0C3
