:1000000023C100003DC100003BC1000039C1000018
:1000100037C100000C94AA0C33C1000031C10000AC
:100020002FC100002DC100002BC100000C944E1602
:1000300027C1000025C1000023C100000C94530C0F
:100040001FC100001DC100001BC100009AC30000B9
:1000500017C1000015C1000013C1000011C100004C
:100060000FC100000DC100000BC1000009C100005C
:1000700007C100008613B8139C14B8139C14001415
:1000800028149C1444146C1442F40543280246CCF2
:100090000769C6105A211052650554B91256560602
:1000A00057A505580D09651E066CE30574FC037819
:1000B000BB020000002A03430055004C003400330B
:1000C00000330000002A03430055004C005F004D40
:1000D000005800000016036200750073007700618D
:1000E00000720065002E0064006500000004030932
:1000F00004090243000201008032090400000102E9
:10010000020100052400011005240103010424025A
:10011000060524060001070582030800FF09040103
:1001200000020A00000007050402400000070583E2
:10013000024000001201100102000008EB034B20F6
:10014000000001020001202F2000203D20000D2E84
:100150002D07D3913D04320000060021656A55E465
:100160003023B900070018146C070090876BF8560D
:1001700011E92A001F410027675081C25620312E05
:1001800036362043554C5F4D58005620312E3636BA
:100190002043554C34333300202F2000203D2000D5
:1001A0004C4F56460D0A00424F56460D0A004C452C
:1001B0004E4552520D0A004C4F56460D0A004C4512
:1001C0004E4552520D0A000007024604C605260B92
:1001D0000610C81193120313221534173F1828195B
:1001E000161B432156250026110D210E650F6A07A7
:1001F0000C160720F81E871F6B29592C812D353EC0
:10020000C3FF000D2E2D07D3913D043200000600E0
:1002100010B07155E43023B900070018146C0700C2
:1002200090876BF85611E92A001F4100206973205E
:10023000756E6B6E6F776E2920557365206F6E65D6
:10024000206F66003F20280011241FBECFEFD2E0B0
:10025000DEBFCDBF11E0A0E0B1E0E8E1FFE202C007
:1002600005900D92AA31B107D9F722E0AAE1B1E0D9
:1002700001C01D92AE35B207E1F70CD00C948A177D
:10028000BFCEF89481E085BF82E085BFE0E0F8E171
:10029000099508952FE088E190E00FB6F894A895AD
:1002A000809360000FBE2093600090E080E80FB65E
:1002B000F89480936100909361000FBE2E9A2D9A5E
:1002C00004B603FE0AC083E390E0E6D3882329F056
:1002D00060E083E390E0DBD3D4DF89EF87BD84E087
:1002E00085BD82E084BD80936E00109280008AE01C
:1002F0008093810084B7877F84BF3C9A0E945A1301
:10030000C2D40E9432160E94AC126DD789E193E1EB
:100310009093BE018093BD0181E080931D014498BC
:100320000E94E41671D10E94260A7CD20E94AB0F73
:10033000F7CF292F33272230310559F023303105EB
:1003400069F02130310539F582E190E024E331E0B4
:1003500026C083E490E021EF30E021C0992781306E
:10036000910539F018F0029751F015C0EDEEF0E06C
:1003700002C0E5EDF0E0849190E09F0110C01E996D
:1003800003C025EB30E002C025EC30E0E5ECF0E006
:10039000849190E004C080E090E020E030E0FA0139
:1003A0003183208308958EBD0DB407FEFDCF8EB539
:1003B00008950F931F93CF93DF93082F8A3018F47B
:1003C000853018F001C008E005508BE290E060E055
:1003D00010E009581E4FEC01219659D3C333D105C3
:1003E00041F0CC3219F4F801649101C060E0CE0113
:1003F000F2CFDF91CF911F910F910895CF93DF93AB
:1004000082E090E0FC01E45BFE4F6491EC012196F8
:100410003ED3CB32D10511F0CE01F4CF1E990CC0E2
:1004200060E18FE090E033D360EB80E190E02FD388
:1004300061E781E190E02BD388E0BBDFDF91CF91D2
:1004400008954598806CAFDF80E0ADDF459A089550
:10045000A1E0B0E0EEE2F2E00C944C1741E0BE0106
:100460006F5F7F4F0196D0D2892B21F18981893925
:1004700069F410E0812FE5DFC3D2812F87708730C8
:1004800009F44AD21F5F1033A9F714C0DADF182F1E
:1004900083E412D28981B4D28AE491E030D2812FF0
:1004A000AFD286E491E02BD240E262E0812F90E06F
:1004B00037D232D22196E3E00C946817A1E0B0E085
:1004C000E4E6F2E00C944D174598806469836BDF95
:1004D0006981862F68DF459A2196E2E00C946917BE
:1004E000459861DF459A0895EF92FF920F931F930D
:1004F000CF93DF93EC0110926B01EC983D9A459AF3
:100500008EE190E0CBD145988EE190E0C7D1459A3D
:100510008DE290E0C3D180E3E3DF84E690E0BED1DA
:10052000459880E440DF7E0189E2E80EF11C8E01EF
:100530000F5F1F4FCE01B0D236DF0E151F0511F031
:10054000E801F5CF459A45988EE72DDF8BE290E0E4
:10055000EC012196A1D227DFC333D10511F0CE01E2
:10056000F7CF459A83E3BCDF81E09DD1CDB7DEB7FD
:10057000E6E00C946517A1E0B0E0E1ECF2E00C9449
:100580004D1722E0298341E0BE016F5F7F4F019646
:100590003BD289810EDF82E090E0A6DF2196E2E087
:1005A0000C946917CF93EC9886E39ADFCFEF85E33D
:1005B00097DFC1508077803229F08AE090E06ED1D9
:1005C000C111F5CFCF910895CF93CFEF84E388DFAA
:1005D000C1508077803129F08AE090E05FD1C1116D
:1005E000F5CFEC9ACF91089586E37ADF1092BF01A0
:1005F00010926B01089582E090E076DF81E08093B5
:10060000BF0110926B01089580915502843009F06A
:1006100061C08093E90080911A01811128C0809106
:10062000E80085FF24C08091F200882331F06091BA
:10063000F1008EE092E043D3F6CF8091E800982F4E
:100640009B7F9093E8008F778093E80081E0809310
:100650001A0184E093E09093BC018093BB01E09188
:10066000BD01F091BE0181E0099510921A0183E06D
:100670008093E9008091CD01882361F18091E800A9
:1006800085FF28C0F8948091CD01882351F0809196
:10069000F200803430F48BEC91E027D38093F100AA
:1006A000F2CF78949091F2008091E800282F2E7F6D
:1006B0002093E8008F778093E800903459F40E94EB
:1006C000F2148091E800982F9E7F9093E8008F7736
:1006D0008093E800089542E061EC82E00E94A21459
:1006E00042E361E883E00E94A21442E360E884E010
:1006F0000E94A214109200011092010110920201B6
:100700001092030108958091560290915702913200
:1007100029F0923261F1903299F512C0813A81F557
:100720008091E800877F8093E80067E070E080E0D8
:1007300091E00E941B158091E800982F9B7F11C0CB
:100740008132F1F48091E800877F8093E80067E0D0
:1007500070E080E091E00E94B8158091E800982F49
:100760009E7F9093E8008F778093E8000895813210
:1007700039F48091E800877F8093E8000C94CC14D2
:1007800008951F920F920FB60F9211248F939F938B
:10079000AF93BF938091C1019091C201A091C30119
:1007A000B091C4010196A11DB11D8093C101909328
:1007B000C201A093C301B093C4018091C0018F5FB7
:1007C0008093C001BF91AF919F918F910F900FBE09
:1007D0000F901F9018952FB7F8944091C101509138
:1007E000C2016091C3017091C401FC014083518337
:1007F000628373832FBF0895A4E0B0E0E2E0F4E0E9
:100800000C944D17CE010196E6DF8C81F9D08B81D7
:10081000F7D08A81F5D08981F3D07ED02496E2E0AA
:100820000C9469178091C1019091C201A091C301FC
:10083000B091C40120911C01281779F18091C10168
:100840009091C201A091C301B091C40180931C0199
:10085000A8958091C0018D3700F11092C001809160
:10086000070181FF04C088B190E1892788B9809190
:10087000C5019091C601843823E0920728F40196BF
:100880009093C6018093C50180911B018F5F809377
:100890001B018C3311F410921B010895880F991FCE
:1008A0000197F1F7089520ED37E0815020F0F9012C
:1008B0003197F1F7FACF0895CF93C82F8091550261
:1008C000843081F480911D0180FF0CC08091CD01A6
:1008D000803408F099DE6C2F8BEC91E0F0D1CA30B7
:1008E00009F492DECF910895CF93DF93EC018991C3
:1008F000882311F0E1DFFBCFDF91CF910895CF93F3
:10090000DF93EC01FE018491882319F0D5DF219655
:10091000F9CFDF91CF9108958DE0CEDF8AE0CCCF83
:10092000A6E0B0E0E6E9F4E00C944B17062F1E8237
:1009300015E02AE030E01150E1E0F0E0EC0FFD1F9F
:10094000E10FF11DB9010E941017805D8083CB017A
:100950000150009769F01111EECF0AC0112359F030
:100960001150E1E0F0E0EC0FFD1FE10FF11D4083BD
:10097000015007FFF3CF81E090E08C0F9D1F810FA6
:10098000911DB2DF2696E4E00C946717A5E0B0E075
:10099000ECECF4E00C944D171D8224E0382F3F70EE
:1009A0002150E22FF0E03A3010F4305D01C0395CA4
:1009B000A1E0B0E0AC0FBD1FEA0FFB1F308334E0B5
:1009C000969587953A95E1F76150009739F7615010
:1009D00067FD0BC0222349F02150E1E0F0E0EC0F6D
:1009E000FD1FE20FF11D4083F2CF81E090E08C0FFC
:1009F0009D1F820F911D78DF2596E2E00C94691708
:100A000040E362E090E0C2CFDC01FB0130E090E027
:100A10008D918823A9F0813608F0805220ED280FAF
:100A20002A3030F02FEB280F263030F429EC280F35
:100A3000292B332379F006C0803251F38A3341F3F6
:100A4000CF0105C0CF0101962083415041F4861BA0
:100A5000970B0895922F9295907F31E0D9CFFC01AA
:100A6000D5CFDB01FC0180E090E02191222361F0F1
:100A700030ED320F3A30C8F76AE070E00E94FF169E
:100A8000C097820F911DF1CF8D939C9308950E9482
:100A90007C17F999FECF08950C94741708951F934D
:100AA000CF93DF93162F11501F3F59F0EC01219681
:100AB000F3DFA6DF112311F08AE3FEDE1150CE0131
:100AC000F3CFDF91CF911F910895A2E0B0E0EBE664
:100AD000F5E00C944A17FC0121812D3421F466E0E5
:100AE0008AEF91E005C0203529F460E18AED91E0BC
:100AF000D6DF26C01A82198242E0BE016F5F7F4FA7
:100B0000019682DF098110E0823021F4102F002746
:100B10008A81082BC801C0DFF82E82E5CDDE40E3D4
:100B200064E0C80133DF8CE991E0E9DE8F2D68DFF6
:100B300088E991E0E4DE40E262E08F2D90E0F0DEB3
:100B4000EBDE2296E5E00C946617A6E0B0E0EBEA57
:100B5000F5E00C9447176C0143E0BE016F5F7F4FD7
:100B6000019652DF823058F1E980F12C823021F079
:100B7000FE2CEE242A81E22A8C011127FE01E00FCF
:100B8000F11F6081C70183DF000F111F0F5F1F4F2F
:100B90000C0D1D1DF8018081882389F041E0BE0104
:100BA0006F5F7F4FC80130DF892B49F08FEFE81A64
:100BB000F80A6981C7016BDF0E5F1F4FEBCF2696E6
:100BC000E8E00C94631741E067E071E001961CDFF8
:100BD0008091070180FF02C0449A01C0449860914F
:100BE000070184E390E053CFA1E0B0E0EAEFF5E045
:100BF0000C944D171982009731F041E0BE016F5FF0
:100C00007F4F019601DF89818F3F09F4FFCF882351
:100C100021F061E083E390E03ADF0E943816109201
:100C20006E00F89428E088E190E00FB6F894A8955B
:100C3000809360000FBE20936000FFCFCF93DF93BF
:100C4000EC0161E080E090E022DF62E481E090E08E
:100C50001EDFD4DB60E080E690E019DF60E081E633
:100C600090E015DF60E083E390E011DF62E084E371
:100C700090E00DDF8981883719F080E090E0B4DFE3
:100C8000DF91CF91089580E090E006DF813029F474
:100C900081E090E001DF823419F080E090E0CEDF67
:100CA00084E390E0F9DE8093070108951E9903C064
:100CB0008AE891E002C08CE791E021DE2DCEFC01B4
:100CC0008FB7F8949281903470F49F5F9283208163
:100CD00091E0920F9083DF01A20FB11D13966C93E8
:100CE000903409F410828FBF0895FC019FB7F894E7
:100CF0008281882371F081508283818121E0280FD5
:100D00002183DF01A80FB11D13968C91203409F4C3
:100D100011829FBF0895CF93C82F469A882319F058
:100D200088E592E002C080E991E0B8DD4698CC23E6
:100D300019F088E592E002C080E991E0AFDDCF9143
:100D40000895A7E0B0E0E7EAF6E00C9440178C01C4
:100D5000C62E842FD22E7801E60EF11C462FB80144
:100D600071D2F701808361E06C0D1982402F480138
:100D7000A12C57E001E010E0882D841B861708F0B5
:100D800060C0F401F1904F01A7E0B0E0C8010A2E65
:100D900001C0880F0A94EAF78F2181F081E090E08A
:100DA0008C0F9D1F8A0D911DFC0170819801052EED
:100DB00001C0220F0A94EAF7722B7083552319F0B1
:100DC0002FEF250F0EC091E09A0D973008F4A92E51
:100DD00021E030E02C0F3D1F290F311DF901108259
:100DE00027E0522F119790F68F2D082E829580259F
:100DF000082E8695869580258F5F81FF0FC0A1E024
:100E0000B0E0AC0FBD1FAA0DB11D3C91C801022E70
:100E100001C0880F0A94EAF7382B3C93222319F07B
:100E20005FEF520FA9CF81E08A0D873008F4A82E1A
:100E3000A1E0B0E0AC0FBD1FA80FB11D1C9257E0A0
:100E40009BCF552319F01FEF150F02C0A39417E095
:100E5000B12C2091C5013091C601B5016E5F7F4F65
:100E60008D2D0E94F616992787FD90952817390732
:100E700020F480EA91E043DD72C0281B390B3093E7
:100E8000C6012093C501449A80916B01882341F0EB
:100E900010926B0187E191E0C0D1CC24C39401C0D2
:100EA000C12C8091BF01811101C0A5DB7BDBEE2449
:100EB000E394F12C812E912C1CE080E02CDF11506A
:100EC000E1F781E028DF512C452D552747FD50954E
:100ED0004A155B054CF097E0792E01E010E00C0F0D
:100EE0001D1F040F151F18C007E010E0662463944F
:100EF000712C6C0E7D1E640E751EC701002E01C084
:100F0000880F0A94EAF7F3019081892304DF0150E6
:100F1000110998F75394D8CF872D992787FD90957D
:100F20008816990664F4C701072C01C0880F0A943B
:100F3000EAF7F80190818923EEDE7A94EDCF8AE01A
:100F4000B2DCDA9409F0B8CF8091C801882311F09F
:100F50003BDB02C086E3C4DAC11017D6449827965B
:100F6000EFE00C945C17A7E0B0E0E9EBF7E00C943D
:100F70004C17162F242F45E0BE016F5F7F4F01965F
:100F80002F8342DD2F81412F682FCE010196D9DEBC
:100F90002796E3E00C94681743E066E0E4CF8F9275
:100FA0009F92AF92BF92DF92EF92FF920F931F93A7
:100FB000CF93DF931092320110923F01FC01218107
:100FC000220F220F220F3381231B57E0520F109262
:100FD000330110E070E038E0D32ED20EFF24F394FA
:100FE00047E007E0E12CC7E0D0E0A1E0B0E0FD146D
:100FF00009F47FC0FC01EE0DF11D248130E0002ECC
:1010000002C0359527950A94E2F721703327E22F25
:10101000002311F0015002C0E39407E06B3471F437
:10102000433009F04AC0111107C0E1115FC01092AE
:10103000320170933F0174C010E041C04F3F31F561
:101040006634A9F4E72FF0E0ED5CFE4FE0810E2E50
:10105000E295E0250E2EE695E695E025EF5FE1FBB3
:10106000882480F8912C8216930641F004C06534E0
:1010700029F4E11103C010933201DBCF7F5FE72F2A
:10108000F0E0ED5CFE4F108247E031C0EE2361F1ED
:10109000663471F4E72FF0E0ED5CFE4FA0809D0117
:1010A000042E01C0220F0A94EAF7A22AA0821CC0D3
:1010B000653439F06B34C1F404C04F3FD1F2EE23F4
:1010C00099F0E72FF0E0ED5CFE4F9E01241B310903
:1010D00047FD33955D0102C0AA0CBB1C2A95E2F7BF
:1010E00095013081322B3083415001C011E0F394DF
:1010F0007ECF1093320170933F015F1588F4653401
:1011000031F44F3F21F47F5F70933F0104C0809121
:1011100032018111F8CF81E090913F01911101C01E
:1011200080E0DF91CF911F910F91FF90EF90DF90C2
:10113000BF90AF909F908F90089510926F00809114
:10114000420190E064E170E00E94FF168D5B9E4FCB
:10115000FC0110820895FC0121812C3008F0EDCFB4
:101160003381662381F081E090E0032E01C0880F77
:101170000A94EAF7DF01A20FB11D14969C9114970F
:10118000982B14969C93332319F031503383089590
:1011900087E083832F5F2183E20FF11D148208957E
:1011A000DC011196EC911197F0E050E02C91CF0109
:1011B000841B950B0B964797A0F430E070E0C901B3
:1011C000861B970B0B96479760F42E0F3F1F640FFB
:1011D000751F261B370B255F3F4F81E027313105F7
:1011E00008F080E008953E9A46983F98EAE6F0E0DD
:1011F00080818160808382EC91E09093C60180932E
:10120000C501109257011092BF0108958091C80145
:10121000882311F0F0D9D8C9E7C9FC012181211137
:101220000BC08091C801ECDB40E265E08091C50114
:101230009091C60175DB70CB41E068EC71E00196DE
:10124000E3DBE4CF442339F04150FB01E40FF11D0F
:101250009081890FF7CF089520E0662339F061501F
:10126000FC01E60FF11D30812327F7CF822F08956F
:10127000A091320140E035E020E0662399F0615012
:10128000FC01E60FF11D5081752F72957F702727A5
:10129000370FAA2311F0442319F05F702527350F6B
:1012A0004F5FEBCF822F830F8295807F822B089533
:1012B000FC0132812381A081B181A30FB11D8C91EA
:1012C00090E0022E02C0959587950A94E2F781700E
:1012D00099274FEF420F4383211104C03F5F3283B0
:1012E00027E023830895A2E0B0E0E9E7F9E00C9459
:1012F00045177C01A12CB12CD12CCC24C394062FF2
:1013000010E001501109A616F0F4C7014A83698361
:10131000CFDF4A816981882391F0442349F0980105
:101320002A193B098C2D01C0880F2A95EAF706C0BF
:101330008C2D0A2C01C0880F0A94EAF7D82A8FEF67
:10134000A81AB80AE0CF8D2D2296EAE00C94611716
:10135000A4E0B0E0EEEAF9E00C9444171B8227E029
:101360002C839C012C5F3F4F3A83298310923F01CD
:10137000FC01218130E043E0220F331F4A95E1F761
:10138000438187E090E0841B9109280F391F2534A1
:1013900031050CF44EC0B12CA0903F01F5E0FA15D8
:1013A00058F10A2D10E040E068E0CE0101969BDF85
:1013B0000D5C1E4FF8018083982E092C9294902486
:1013C000092C969496949024CE01019671DF939403
:1013D00091FACC24C0F8D12C90E0C816D90649F572
:1013E000CE01019665DF811124C0F8018081B82605
:1013F000A394A0923F01D0CF40E068E0CE010196D7
:1014000072DF082F182F012E12951025012E169528
:1014100016951025CE0101964BDF1F5F11FBEE24C0
:10142000E0F8F12C282F30E0E216F30611F481E009
:10143000B01280E02496EBE00C9460178091C70115
:1014400080FD03C084608093C7010895A1E0B0E0EF
:10145000ECE2FAE00C944917198280911F0188236D
:1014600091F18091C80187FF16C084E30E94210298
:101470008058803458F0803C58F490E080559109B1
:10148000A3E095958795AA95E1F703C080E001C098
:101490008FE08F5911DA8091C80183FF12C082E773
:1014A0000BDA8091C80184FF03C08091200104DA27
:1014B00086E602DA8091C80184FF03C080911F0193
:1014C000FBD910921F0180914001882309F4E7C1E4
:1014D000449A8091410190E064E170E00E94FF161F
:1014E0008C010D5B1E4F8981811139C066E4C801F2
:1014F00056DD8823A1F1F0903F01FA94F0923F016C
:101500004F2D63E371E086E09DDEEF2DF0E0ED5CB2
:10151000FE4FE0808E1105C093E09F1510F486E425
:101520001BC0282F30E02F5F3F4F6E2D70E0261735
:10153000370739F493E09F1520F496E4998380836C
:101540000EC04F2D63E371E08CE07CDE8E1106C08F
:10155000E3E0EF1518F484E5898301C019828981DD
:10156000811116C065E4C8011ADD882389F08091D5
:101570003F01815080933F01893051F469E083E35A
:1015800091E06ADE90913C01891302C085E4898371
:101590008981811106C0C801DBDE882311F088E44F
:1015A00089838981811133C0F801438960912001C9
:1015B000C8014296F5DD682FC801CDDD6BE4C80196
:1015C000EEDC8823B1F0F0903F01FA94F0923F01F5
:1015D0006F2D83E391E04CDEEF2DF0E0909132012E
:1015E000E91BF109ED5CFE4F9081891302C08BE489
:1015F0008983898181110BC0F801838191E0980F63
:101600009383873021F413828181815081833981D2
:10161000332309F4C5C02091C80120FFC1C08091C7
:10162000C7018E7F8B7F8093C70121FD64C05091DD
:101630003101F0903F015F113DC040E04517C0F41B
:10164000842F90E061E0640FFC01EB5DFE4FDC0154
:10165000AD5CBE4F70818C91781741F040933101A1
:101660008091C7018D7F8093C70104C0462FE6CFCC
:101670004093310145131EC04091C1015091C201F8
:101680006091C3017091C401809121019091220168
:10169000A0912301B0912401481B590B6A0B7B0BCD
:1016A000463251056105710528F48091C7018160BA
:1016B0008093C70140E04F1560F4842F90E0FC0157
:1016C000EB5DFE4FDC01AD5CBE4F8C9180834F5FC4
:1016D000F2CF409331018091C1019091C201A0915C
:1016E000C301B091C4018093210190932201A09382
:1016F0002301B09324013435E9F426FD1BC0809109
:101700003F018530B8F0809135018B3471F0893616
:1017100061F09DEA980F923040F08D57823028F0AA
:10172000809136018077803729F48091C7018160EC
:101730008093C701B801CE01019680DE8091C70178
:1017400082FF2EC08981B8D880913201882329F088
:1017500080913F01815080933F01F12CE0913F0146
:10176000FE1640F4EF2DF0E0ED5CFE4F808148D98D
:10177000F394F4CF80913201882349F0F0E0ED5CDE
:10178000FE4F80818F7040E361E090E0FFD8809150
:10179000C80185FF04C084E30E94210231D9BCD86E
:1017A0008091C80182FF69C080E786D8F8018081F6
:1017B00040E262E090E0B4D8F801808990E040E235
:1017C00065E054E0880F991F5A95E1F7A9D8F80110
:1017D000818990E040E265E074E0880F991F7A9576
:1017E000E1F79ED8F801828990E040E265E0E4E00C
:1017F000880F991FEA95E1F793D8F801838990E063
:1018000040E265E0F4E0880F991FFA95E1F788D887
:10181000F801828140E263E090E082D8F8018181A2
:1018200040E263E090E07CD8F801238140E262E08E
:1018300087E090E0821B910973D880E23DD88091C7
:10184000C80185FF06C084E30E942102D9D880E246
:1018500033D8F8018381873019F081818F5F8183CC
:10186000F12CF8018181F81638F4F801EF0DF11D23
:101870008481C6D8F394F5CF4FD8F80110828091B7
:101880004001815080934001809141018F5F8230FF
:1018900019F08093410102C01092410144982196B1
:1018A000E6E00C9465171F920F920FB60F92112469
:1018B0002F933F934F935F936F937F938F939F9358
:1018C000AF93BF93EF93FF9310926F008091C80185
:1018D00083FF03C08EE20E945C0440914201242FEA
:1018E00030E0C90164E170E00E94FF168D5B9E4FFD
:1018F000FC018081833018F08181823010F41DDC7E
:1019000018C080914001813049F48091C80182FF64
:10191000F6CF87EA91E00E947F04F1CF8F5F80933A
:1019200040014F5F423019F04093420102C01092D3
:101930004201FF91EF91BF91AF919F918F917F9164
:101940006F915F914F913F912F910F900FBE0F902C
:101950001F9018951F920F920FB60F921124FF92AD
:101960000F931F932F933F934F935F936F937F93A7
:101970008F939F93AF93BF93CF93DF93EF93FF9397
:101980000091840010918500F4E016950795FA9572
:10199000E1F78091420190E064E170E00E94FF165F
:1019A000EC01CD5BDE4F8881843039F40E3208F4CF
:1019B000D6C00F3410F0C1DBD2C037990CC08430D0
:1019C00039F461E0CE01C7DB1092850010928400EB
:1019D00000932001C4C080912001081B00931F01C7
:1019E00010928500109284008881843021F460E098
:1019F000CE01B1DBB4C082E086BBF880009120014B
:101A0000F1100FC0053608F0AAC080911F0185367D
:101A100008F0A5C0088B898B81E08A8382E08883E7
:101A20009EC010911F0182E0412F602FF81248C024
:101A3000CE014096B5DB4A818823F9F0288930E051
:101A4000C901880F991F820F931F800F911D9595D3
:101A5000879595958795888B298930E0C901880FEE
:101A6000991F820F931F810F911D959587959595CD
:101A70008795898B4F5F4A8372C04430F8F080EAC3
:101A80009FE090938900809388008A818C3050F089
:101A90002889898990E0820F911D8536910514F07F
:101AA00084E001C083E088830A8B1B8B198287E066
:101AB0008B831C8282E080936F0051C01882A2CF7A
:101AC000CE0142966DDB882301F161E0CE0143DB5C
:101AD0002A8930E0C901880F991F820F931F800F58
:101AE000911D95958795959587958A8B2B8930E0E3
:101AF000C901880F991F820F931F810F911D959522
:101B00008795959587958B8B2AC0412F602FCE01A5
:101B1000409646DB882301F160E0CE011CDB28897A
:101B200030E0C901880F991F820F931F800F911D0C
:101B30009595879595958795888B298930E0C9017A
:101B4000880F991F820F931F810F911D959587957F
:101B500095958795898B03C087E0F8122CCFFF916C
:101B6000EF91DF91CF91BF91AF919F918F917F9135
:101B70006F915F914F913F912F911F910F91FF9026
:101B80000F900FBE0F901F901895CF93DF93EC9896
:101B90003D9A459A8EE190E00E944E0445988EE170
:101BA00090E00E944E04459A8DE290E00E944E041F
:101BB00080E30E94700284E690E00E944E04C7EC2D
:101BC000D1E0FE018491813440F083E30E947002F1
:101BD00084E00E945304CFEF0DC0FE013196649162
:101BE000FE0184910E945E022296F2E0C330DF077C
:101BF00041F7EBCF84E30E9470028AE090E00E94FC
:101C00004E04C150B9F781E080936B01DF91CF9111
:101C10000895EF92FF920F931F93CF93DF93EC0100
:101C20008B01F880F3946115710519F0E4E6F0E09A
:101C300002C0E0E0F0E08F2D90E023E0880F991FD4
:101C40002A95E1F76AE070E00E9424179B012E0FAD
:101C50003F1FC901AA2797FDA095BA2FE091C501A2
:101C6000F091C601AF0160E070E0481759076A07BC
:101C70007B0728F487EB91E00E947F04D8C0E21B29
:101C8000F30BF093C601E093C50180916B018111C4
:101C900001C07BDF85E30E9421028D3071F08AE56F
:101CA0000E945C0485E40E945C0482E50E945C045E
:101CB00082E50E945C0481E34CC080916C019091AC
:101CC0006D01A0916E01B0916F01892B8A2B8B2B36
:101CD00051F50E94D20285E30E942102833109F46A
:101CE00043C08AE50E945C0485E40E945C0482E5AE
:101CF0000E945C0482E50E945C0482E32AC0809119
:101D0000C1019091C201A091C301B091C4014F5F84
:101D10005F4F6F4F7F4F84179507A607B707C9F628
:101D200081E00E9453048091C1019091C201A09171
:101D3000C301B091C40140916C0150916D0160915B
:101D40006E0170916F0184179507A607B707B9F662
:101D5000E7CF0E945C0485E30E9421020E940005F7
:101D60000E948C0412DF63C0012B41F445988FE779
:101D70000E94D301EC2E0C2F1D2F0BC00AE010E0A7
:101D800084E60E9453040150110901151105C1F7A1
:101D9000EDCF802F8E198F1530F4F80181918F01CE
:101DA0000E94D301F6CF459AC8EC85E30E94210238
:101DB0008D30E9F485E30E9421028D3019F18AE526
:101DC0000E945C0485E40E945C0482E50E945C043D
:101DD00082E50E945C0483E30E945C0485E30E9428
:101DE00021020E9400050E948C04CFDE0BC085E317
:101DF0000E9421028331F1F681E00E945304C15018
:101E0000A1F6D8CF80916B01811101C0FFD98091DB
:101E1000C1019091C201A091C301B091C40180930E
:101E20006C0190936D01A0936E01B0936F01CDB7DB
:101E3000DEB7E6E00C946517ACE0B0E0E2E2FFE06C
:101E40000C944C17FC018BE0898381818A831B826F
:101E500082E08C8387818D8380858E8381858F83CB
:101E6000848188878581898786818A871B861C86ED
:101E700084E10E94530460E070E0CE010196C9DE67
:101E80008AE50E945C0410E0812F90E0298130E017
:101E9000281739075CF0E1E0F0E0EC0FFD1FE80FD8
:101EA000F91F80810E9400051F5FEECF8091C8015D
:101EB00085FF03C080E00E9400050E948C042C96E0
:101EC000E3E00C946817CF93DF93EC0180917301EA
:101ED000811108C090917401911104C09091750115
:101EE0009923A9F09B81903319F09F7E903479F467
:101EF0009F8198130CC0988580917401981307C036
:101F0000998580917501981302C0CE0195DF80916B
:101F10007001811108C090917101911104C09091DC
:101F200072019923A9F098819B3091F49B819034A0
:101F300079F49F8198130CC0988580917101981352
:101F400007C0998580917201981302C0CE0174DF99
:101F5000DF91CF910895AEE1B0E0E0EBFFE09BC7E9
:101F600080916B01882309F469C0379B59C08FE3C6
:101F70000E9421028F778E3108F08DE18983459888
:101F80008FEF0E94D30110E08981181760F480E080
:101F90000E94D301E2E0F0E0EC0FFD1FE10FF11D24
:101FA00080831F5FF1CF80E00E94D301082F80E083
:101FB0000E94D301459ACE01019685DF8091C80128
:101FC00084FF12C08AE70E945C0410E089818117B7
:101FD000A8F1E1E0F0E0EC0FFD1FE10FF11D8081C1
:101FE0000E945C041F5FF2CF8AE50E945C0410E04F
:101FF0008981811758F0E1E0F0E0EC0FFD1FE10F5F
:10200000F11D80810E9400051F5FF2CF8091C80101
:1020100085FF03C0802F0E9400050E948C040EC023
:1020200085E30E942102813149F48AE30E94700213
:1020300086E30E94700284E30E9470026E96E4E0E0
:1020400046C7AEE1B0E0E6E2F0E125C78C01FC0155
:102050008181823711F499DD36C0833711F08636DD
:1020600001F54DE1BE016F5F7F4FC80102960E94EE
:10207000040599270197298130E08217930729F0F9
:102080008EEA91E00E947F041EC061E070E0F801DA
:102090008181833711F060E070E0CE010196B9DDF7
:1020A00012C0813621F443E063E771E005C0873751
:1020B00041F443E060E771E0C80102960E94040524
:1020C00002C010926B016E96E4E001C7CF93DF93DC
:1020D000EC983D9A459A8EE190E00E944E04459816
:1020E0008EE190E00E944E04459A8DE290E00E94BD
:1020F0004E0480E30E94700284E690E00E944E0449
:10210000459880E40E94D301C3E0D2E0FE018491AF
:102110000E94D3012196F2E0C031DF07B9F7809128
:1021200008010E94D301809109010E94D30180918E
:102130000A010E94D301C0E0D0E0FE01ED5EFD4F38
:1021400084910E94D3012196C931D105B1F7459AF6
:1021500045988EE70E94D3018BE290E0EC01219636
:102160000E944C050E94D301C333D10511F0CE016A
:10217000F5CF459A83E30E94700281E00E945304E8
:1021800081E08093BF01DF91CF910895AF92BF921C
:10219000CF92EF92FF920F931F93CF93DF93EC01B7
:1021A0008981843769F46FE071E0CE0102960E9464
:1021B000310540E260E080910F019091100112C062
:1021C000833709F060C18A81823789F46BE071E05E
:1021D000CE0103960E94310540E260E080910B0140
:1021E00090910C010E9490040E948C04ABC1449A0F
:1021F0008091780181110DC080916B01882329F0B5
:1022000081E08093760110926B0160DF83E00E9491
:10221000530486E30E9470028AE30E9470028BE3FB
:102220000E9470020E94D202FE0101900020E9F794
:102230000E2F0C1B0250C12C7E01E2E0EE0EF11CB1
:1022400080910B0190910C012C2D332727FD3095A7
:102250002817390708F0E4C0013289F4469A8091C2
:102260000F01909110010E944E04469880910D013B
:1022700090910E016AE070E0C2D50E944E045701B1
:1022800011E010170CF0A6C0F50181915F01469A8C
:10229000803309F03EC00132E1F480910D0190914C
:1022A0000E010E944E04469880910D0190910E01FE
:1022B0000E944E04469A80910D0190910E010E9459
:1022C0004E04469880910D0190910E0165E070E0FA
:1022D0001EC080910F01909110010E944E044698FB
:1022E00080910F019091100163E070E088D50E9409
:1022F0004E04469A80910F01909110010E944E0465
:10230000469880910F019091100163E070E077D5BD
:102310005DC0813301F5013279F480910D01909116
:102320000E010E944E04469880910D0190910E017D
:1023300065E070E064D51CC080910F0190911001A0
:1023400063E070E05CD50E944E04469880910F01D6
:10235000909110012AC00132D1F480910D01909129
:102360000E010E944E04469880910D0190910E013D
:102370000E944E04469A80910D0190910E010E9498
:102380004E04469880910D0190910E011FC08091DE
:102390000F01909110010E944E04469880910F0108
:1023A0009091100163E070E02AD50E944E04469A95
:1023B00080910F019091100163E070E020D50E94A0
:1023C0004E04469880910F01909110010E944E0496
:1023D0001F5F57CF469A013289F480910D01909189
:1023E0000E010E944E04469880910D0190910E01BD
:1023F00068E270E004D50E944E0410C080910F0185
:10240000909110010E944E0446981FE180910F01A7
:10241000909110010E944E041150C1F7C39410CF47
:1024200080917801882359F08091C801882319F0A0
:102430000E94E4020EC086E30E9470020AC08091EE
:102440007601882321F0109276019FDB02C00E9462
:102450000609449889E60E945C0483E70E945C04B4
:1024600011E010170CF0C0CEFE01E10FF11D17FDB9
:10247000FA958181803319F0813309F086E40E9456
:102480005C041F5FEECF823771F480916B0188236B
:1024900029F081E08093760110926B0117DE81E0D4
:1024A000809378014FC0863651F58A81803351F48C
:1024B00080E18093080180EB8093090181E780939C
:1024C0000A0107C043E068E071E0CE0102960E9475
:1024D000040589E60E945C0486E60E945C048AE3A7
:1024E0000E945C04809108010E940005809109010E
:1024F0000E94000580910A010E94000575CE883770
:10250000C9F480917601882321F0109276013DDB99
:102510000EC082E090E00E9474028091C80188237E
:1025200019F00E94E40203C086E30E947002109238
:10253000780108C0833631F46FE071E0CE01019676
:102540000E943105DF91CF911F910F91FF90EF9085
:10255000CF90BF90AF90089585E390E00E944C0526
:102560008093C90186E390E00E944C058093CA01E4
:102570000895A6E0B0E0EEEBF2E18FC445E0BE01C5
:102580006F5F7F4F01960E9404058430D8F49981D3
:102590009130B1F4833061F46A8185E390E00E9468
:1025A00047056B8186E390E00E944705D5DF0AC0AE
:1025B0008091C9010E9400058091CA010E94000516
:1025C0000E948C042696E2E084C40F931F93CF935D
:1025D000DF93EC0110E0212F30E0C90163E070E0EF
:1025E0000ED488579F4FFC010491C90163E070E04D
:1025F00006D487579F4FFC0125913491002399F011
:10260000209739F480E20E945C04802F0E945C04D1
:1026100008C08881801305C0CE01F901099581E0C9
:1026200003C01F5FD8CF80E0DF91CF911F910F9142
:102630000895CF93C0911D0180931D0180911002D8
:102640008823A1F18EE092E00E947506E091790165
:102650008A3011F08D30F9F4EE2381F3F0E0E65882
:10266000FE4F10828AE791E0B0DF811111C084E44F
:1026700092E00E947F048AE791E00E9474048CE259
:1026800092E00E947F0480E090E09FDF0E948C0433
:1026900010927901D3CFE03488F691E09E0F9093A9
:1026A0007901F0E0E658FE4F8083C8CFC0931D014A
:1026B000CF910895E4E6F0E080818B7F8083299AB2
:1026C00084B1876084B9239880E58CBD8DB5816025
:1026D0008DBD0895A2E0B0E0EFE6F3E1DEC3E6E5EC
:1026E000F2E08091F100819382E0EE35F807C9F7BE
:1026F0002091560230915702832F90E08A30910545
:1027000008F01AC1FC01E65CFF4FB1C3203879F034
:10271000223809F011C180915A028093E90080911A
:10272000EB0085FB882780F91092E90006C08091B4
:10273000510290915202911182609091E800977F2E
:102740009093E8008093F1001092F1008091E800EE
:10275000982F9E7F9093E8008F778093E800809178
:10276000E80082FDAFC0809155028111F8CFD5C03D
:10277000822F8D7F09F0E0C0222319F0223061F012
:1027800033C080915802813009F0C7C0333009F05E
:1027900080E08093520228C080915802811124C0A9
:1027A00020915A02277009F4B8C02093E900809163
:1027B000EB0080FF19C08091EB00313091F4806113
:1027C0008093EB0081E090E0022E01C0880F0A9414
:1027D000EAF78093EA001092EA008091EB008860AB
:1027E00001C080628093EB001092E9008091E800C4
:1027F000877F8093E8008091E800982F9E7F66C0D5
:1028000021119AC0209158028091E800877F80931F
:10281000E8009091E800892F8E7F8093E8009F77F1
:102820009093E8008091E80080FD05C080915502FA
:102830008111F8CF72C0822F8F77982F9068909374
:10284000E300882309F469C083E08093550265C0E2
:102850002058223008F070C0AE014F5F5F4F60918A
:102860005A0280915802909159020E949901009752
:1028700009F453C02091E800277F2093E800BC01B1
:1028800089819A8126D11EC0203809F055C08091D7
:10289000E800877F8093E800809153028093F100E5
:1028A0008091E800982F9E7F9093E8008F77809327
:1028B000E8008091E80082FD05C0809155028111F9
:1028C000F8CF2BC08091E800982F9B7F9093E80071
:1028D0008F778093E80021C021112EC0909158027B
:1028E0009230D8F48091E800877F8093E80090933D
:1028F00053028091E800982F9E7F9093E8008F7795
:102900008093E80080915302882311F084E001C095
:1029100083E0809355020E946B038091E80083FF5F
:102920000EC08091EB0080628093EB008091E80004
:10293000877F8093E80003C00E948303EECF229636
:10294000E2E0C7C28093E900EBEEF0E080818160B5
:102950008083EDEEF0E010826093EC004083809184
:10296000EE00881F8827881F08951092F40080E0E9
:102970008093E9001092F0001092E8009091ED0031
:102980009D7F9093ED009091EB009E7F9093EB00E4
:102990008F5F853069F708958091560287FD05C0E5
:1029A0008091E80080FF0FC013C08091E80082FD95
:1029B00005C0809155028111F8CF08958091E800FB
:1029C000982F9B7F09C0809155028111E9CF08950E
:1029D0008091E800982F9E7F9093E8008F778093F6
:1029E000E800089585E69091EC0090FF05C0909175
:1029F000E80090FF05C019C09091E80092FD15C055
:102A000090915502992399F09091EB0095FD11C09A
:102A10009091E10092FFE7CF9091E1009B7F90932E
:102A2000E100815001F783E0089580E0089582E09D
:102A3000089581E0089540915C0250915D029B01F0
:102A40004617570708F49A0140E021153105A9F10E
:102A50005091E80053FD39C05091E80052FF06C084
:102A60008091E80082FF2CC080E0089550915502CB
:102A7000552369F15091E80050FFE7CFFC01CF01E9
:102A80002115310551F04091F200483030F4819128
:102A90008093F10021503109F2CF5091F20041E0D2
:102AA000583009F040E05091E800652F6E7F609348
:102AB000E8005F775093E800C8CF4111C9CFD0CF6D
:102AC000809155028111CCCF02C081E0089582E04F
:102AD000089540915C0250915D029B014617570793
:102AE00008F49A0140E021153105B1F15091E80058
:102AF00053FD3AC05091E80052FF06C08091E800B3
:102B000082FF2DC080E0089550915502552371F148
:102B10005091E80050FFE7CFFC01CF0121153105AE
:102B200059F04091F200483038F484918093F100DC
:102B3000215031093196F1CF5091F20041E05830E7
:102B400009F040E05091E800652F6E7F6093E80047
:102B50005F775093E800C7CF4111C8CFCFCF8091A6
:102B600055028111CBCF02C081E0089582E0089523
:102B70006115710571F12091E80023FD2FC02091AE
:102B80005502222379F12091E80022FFF4CFFC01C5
:102B90008091F200882371F09F012F5F3F4FC901A0
:102BA0004091F1004083615071096115710519F080
:102BB000F901EECFCF012091E800322F3B7F309317
:102BC000E8002F772093E800D3CF80915502882327
:102BD00049F08091E80080FFF8CF02C081E00895BD
:102BE00080E0089582E0089553D055D010925502A8
:102BF00010925302109252021092510219BC89B5E0
:102C0000826089BD09B400FEFDCF8091D800982F65
:102C10009F779093D80080688093D800809163005C
:102C20008E7F809363008091D8008F7D8093D80041
:102C30008091E0008E7F8093E0008091E1008E7FA4
:102C40008093E1008091E20081608093E2008091B6
:102C5000E100877F8093E1008091E20088608093AB
:102C6000E2000895C1DF81E08093540278940895D2
:102C7000BBDFE0EEF0E0808181608083E8EDF0E092
:102C800080818F77808319BC109254020895089533
:102C90001092E20008951092E10008951F920F92A1
:102CA0000FB60F9211242F933F934F935F936F931F
:102CB0007F938F939F93AF93BF93EF93FF938091F5
:102CC000E10080FF1CC08091E20080FF18C080916D
:102CD000E1008E7F8093E1008091E2008E7F8093FF
:102CE000E2008091E20080618093E2008091D80050
:102CF00080628093D80019BC10925502C8DF809181
:102D0000E10084FF29C08091E20084FF25C019BC46
:102D100089B5826089BD09B400FEFDCF8091D800DD
:102D20008F7D8093D8008091E1008F7E8093E100B9
:102D30008091E2008F7E8093E2008091E2008160CA
:102D40008093E20080915302882311F084E001C057
:102D500081E0809355029BDF8091E10083FF23C0D7
:102D60008091E20083FF1FC08091E100877F809304
:102D7000E10082E080935502109253028091E100BD
:102D80008E7F8093E1008091E2008E7F8093E2004D
:102D90008091E20080618093E200E7DD42E060E044
:102DA00080E0D0DD74DFFF91EF91BF91AF919F91F3
:102DB0008F917F916F915F914F913F912F910F90E4
:102DC0000FBE0F901F901895CF93809155028823C6
:102DD00059F0C091E900C7701092E9008091E800B5
:102DE00083FD78DCC093E900CF910895002480FD35
:102DF000060E660F11F08695D1F7802D08950024F8
:102E0000552704C0080E591F880F991F009729F0F5
:102E100076956795B8F37105B9F7802D952F0895CC
:102E2000AA1BBB1B51E107C0AA1FBB1FA617B707F0
:102E300010F0A61BB70B881F991F5A95A9F780950C
:102E40009095BC01CD01089597FB072E16F40094D0
:102E500006D077FD08D0E4DF07FC05D03EF490955E
:102E600081959F4F0895709561957F4F0895EE0F5E
:102E7000FF1F0590F491E02D09942F923F924F92FD
:102E80005F926F927F928F929F92AF92BF92CF92FA
:102E9000DF92EF92FF920F931F93CF93DF93CDB703
:102EA000DEB7CA1BDB0B0FB6F894DEBF0FBECDBF7B
:102EB00009942A88398848885F846E847D848C844C
:102EC0009B84AA84B984C884DF80EE80FD800C8155
:102ED0001B81AA81B981CE0FD11D0FB6F894DEBF38
:102EE0000FBECDBFED010895F999FECF92BD81BD12
:102EF000F89A992780B50895262FF999FECF1FBA21
:102F000092BD81BD20BD0FB6F894FA9AF99A0FBE12
:082F100001960895F894FFCF2B
:102F1800802500000000080210B07106000401A41A
:0A2F28000100005E022000323100BB
:00000001FF
