:1000000011C200002BC2000029C200000C9469122A
:1000100025C2000023C2000021C200001FC2000050
:100020001DC200001BC2000019C200000C94E22A8D
:1000300015C2000013C2000011C200000C9402128D
:100040000DC200000BC2000009C200000BC5000079
:1000500005C2000003C2000001C20000FFC1000091
:10006000FDC10000FBC10000F9C10000F7C10000A4
:10007000F5C100001A284C2830294C283029942832
:10008000BC283029D828002942AC08434A0346C07E
:100090000A69681D411D185A941A47C30A4DFB0A84
:1000A0004B690B55EE0B597F1F521D0854B4225655
:1000B0001609575D0858650D65D608667E266DCD14
:1000C000274C1B066C9B0874920575F41478DD03AD
:1000D0007AB91C0000002A03430055004C0034008C
:1000E0003300330000002A03430055004C00380061
:1000F00036003800000016036200750073007700B8
:100100006100720065002E006400650000000403B9
:1001100009040902430002010080320904000001C1
:10012000020201000524000110052401030104243A
:1001300002060524060001070582030800FF0904E2
:100140000100020A00000007050402400000070544
:1001500083024000001201100102000008EB034B73
:1001600020000001020001202F2000203D20000778
:100170002E050DD391FF080500000C0021656A2DA6
:100180003B1322F862073F181D1CC700B0876BF8AD
:10019000B611EA2A001F41000D2E2D07D3913D0410
:1001A000320000060021656A55E43023B9000700DB
:1001B00018146C070090876BF85611E92A001F414C
:1001C0000000030F1E2627000000030F1E253638EF
:1001D0006700030F256740605000030F2751888395
:1001E0008100030F2750C8C3C20027000000000091
:1001F0000000670000000000000050000000000048
:1002000000008100000000000000C20000000000AB
:1002100000504C4C310D0A00504C4C300D0A005629
:1002200020312E36362043554C3836380056203192
:100230002E36362043554C3433330043554C5F56ED
:100240003400202F2000203D20004C4F56460D0A40
:1002500000424F56460D0A004552523A4343410D63
:100260000A000B08105B11F81547191D1A1C1BC753
:100270001C001DB221B623EA0007022E030D04E97B
:1002800005CA070C0B060D210E650F6A10C81193E5
:10029000120315341733181819161B43215625005D
:1002A000261129592C812D353EC34C454E455252BD
:1002B0000D0A004C4F56460D0A004C454E45525211
:1002C0000D0A000007024604C605260B0610C811D9
:1002D00093120313221534173F182819161B4321B4
:1002E00056250026110D210E650F6A070C160720F2
:1002F000F81E871F6B29592C812D353EC3FF000046
:1003000001022E030104AA050F06FF070008000BD7
:10031000060D210E740FAD104B11F8121613721545
:1003200041181819161B0323E9242A2500261F3E0D
:10033000500001022E030104AA050F06FF07000862
:10034000000B060D210E660F66105A11931206134C
:10035000521535181819161B0323E9242A250026DF
:100360001F3E500001022E030104AA050F06FF07DD
:100370000008000B060D210E660F66105711831240
:100380000E13521535181819161B0323E9242A25B4
:1003900000261F3E500D2E2D07D3913D0432000044
:1003A000060010B07155E43023B900070018146C32
:1003B000070090876BF85611E92A001F41000D2EA7
:1003C0002D07D3913D04320000060010ABA5550A5D
:1003D0003023B900070018146C070090876BF8569B
:1003E00011E92A001F41004E2F4100454F420D0ADE
:1003F000004E2F41004E2F410000535300547D7D8D
:10040000FFFF4B4B7E7E0020697320756E6B6E6F15
:10041000776E2920557365206F6E65206F66003FEB
:100420002028000011241FBECFEFD4E0DEBFCDBFD7
:1004300011E0A0E0B1E0E4EAFAE502C005900D9217
:10044000A032B107D9F724E0A0E2B1E001C01D92CB
:10045000A836B207E1F70CD00C94502DD1CDF8940A
:1004600081E085BF82E085BFE0E0F8E3099508956B
:100470002FE088E190E00FB6F894A8958093600093
:100480000FBE2093600090E080E80FB6F894809350
:100490006100909361000FBE2E9A2D9A04B603FE60
:1004A0000AC083E390E0B0D5882329F060E083E3BD
:1004B00090E0A5D5D4DF89EF87BD84E085BD82E0DB
:1004C00084BD80936E00109280008AE0809381004A
:1004D00084B7877F84BF3D9A0E949B2794D60E9451
:1004E000C62A0E9454220E94440D8AE597E2909306
:1004F000E4028093E3020E94181489E080932401AF
:1005000045980E94782BF1D10E946B0F21D30E9455
:10051000C3260E9496150E9494160E941C1A0E94DF
:10052000C51BEFCF292F33272230310559F0233057
:10053000310569F02130310539F582E190E025E59A
:1005400031E026C083E490E022E131E021C0992728
:100550008130910539F018F0029751F015C0EEE0A6
:10056000F1E002C0E6EFF0E0849190E09F0110C05E
:100570001E9903C026ED30E002C026EE30E0E6EE24
:10058000F0E0849190E004C080E090E020E030E072
:10059000FA013183208308958EBD0DB407FEFDCF8F
:1005A0008EB50895A1E0B0E0E8EDF2E00C94DD2B0B
:1005B000482F8A3008F048E0E42EF12C83E0EE0C5E
:1005C000FF1C8A95E1F7C7018F539E4F7C018BE298
:1005D00090E0F70164918C010F5F1F4F49830FD5A5
:1005E000FFEFEF1AFF0A49810333110511F0C8012B
:1005F000F0CF4550453010F461E101C067E184E27D
:1006000090E0FDD42196E6E00C94F92BCF93DF9394
:1006100082E090E0FC01EA56FE4F6491EC012196E5
:10062000EED4CB32D10511F0CE01F4CF87E390E0C8
:10063000FC01E85CFE4F6491EC012196E0D4C036E9
:10064000D10511F0CE01F4CF1E9918C060E18FE002
:1006500090E0D5D460EB80E190E0D1D461E781E116
:1006600090E0CDD460E184E490E0C9D460EB85E40F
:1006700090E0C5D461E786E490E0C1D488E092DFE1
:10068000DF91CF9108952898806C86DF80E084DF29
:10069000289A0895A1E0B0E0E0E5F3E00C94E02BA7
:1006A00041E0BE016F5F7F4F019653D4892B21F14A
:1006B0008981893969F410E0812FE5DF46D4812FE3
:1006C0008770873009F4CDD31F5F1033A9F714C0AA
:1006D000DADF182F83E478D3898137D48BE691E071
:1006E000B3D3812F32D487E691E0AED340E262E00B
:1006F000812F90E0BAD3B5D32196E3E00C94FC2B84
:10070000A1E0B0E0E6E8F3E00C94E12B28988064E7
:10071000698342DF6981862F3FDF289A2196E2E0D4
:100720000C94FD2B289838DF289A0895EF92FF92B9
:100730000F931F93CF93DF93EC011092D001EA98AF
:10074000209A289A8EE190E0D5D228988EE190E008
:10075000D1D2289A8DE290E0CDD280E3E3DF84E627
:1007600090E0C8D2289880E417DF7E0189E2E80E85
:10077000F11C8E010F5F1F4FCE0146D40DDF0E1509
:100780001F0511F0E801F5CF289A28988EE704DFBD
:100790008BE290E0EC01219637D4FEDEC333D10525
:1007A00011F0CE01F7CF289A83E3BCDF81E0A7D216
:1007B000CDB7DEB7E6E00C94F92BA1E0B0E0E3EEB4
:1007C000F3E00C94E12B22E0298341E0BE016F5F4E
:1007D0007F4F0196BED38981E5DE82E090E0A6DFFF
:1007E0002196E2E00C94FD2BCF93EA9886E39ADF02
:1007F000CFEF85E397DFC1508077803229F08AE020
:1008000090E078D2C111F5CFCF910895CF93CFEF7B
:1008100084E388DFC1508077803129F08AE090E05E
:1008200069D2C111F5CFEA9ACF91089586E37ADFB4
:100830001092E5021092CE011092D001089582E04C
:1008400090E074DF81E08093E5021092CE01109277
:10085000D00108950F931F93CF93DF93082F10E0DB
:10086000C62FD0E085E30FDF801731F0CE0142D2F2
:100870001150C1F781E001C080E0DF91CF911F915D
:100880000F91089585E2FFDE8F3311F080E0089527
:1008900086E348DF80912001811104C088E192E065
:1008A000D3D202C08DE33EDF83E33CDF64E081E02E
:1008B000D1DF85E2E8DE8F3349F780912001811195
:1008C00003C081E192E0C0D281E0089585E3DBDEE0
:1008D0008D3051F485E2D7DE8F3331F4D3DF84E3FA
:1008E00021DF80778031D9F7089580915B048430CF
:1008F00009F061C08093E90080912101811128C035
:100900008091E80085FF24C08091F200882331F0B7
:100910006091F10084E194E09ED4F6CF8091E800EC
:10092000982F9B7F9093E8008F778093E80081E079
:100930008093210185E794E09093E2028093E102A5
:10094000E091E302F091E40281E009951092210127
:1009500083E08093E9008091D303882361F1809143
:10096000E80085FF28C0F8948091D303882351F0D4
:100970008091F200803430F481ED93E082D4809352
:10098000F100F2CF78949091F2008091E800282F46
:100990002E7F2093E8008F778093E800903459F4FD
:1009A0000E9486298091E800982F9E7F9093E8000E
:1009B0008F778093E800089542E061EC82E00E9426
:1009C000362942E361E883E00E94362942E360E889
:1009D00084E00E94362910920001109201011092C9
:1009E000020110920301089580915C0490915D04CE
:1009F000913229F0923261F1903299F512C0813A28
:100A000081F58091E800877F8093E80067E070E0DF
:100A100080E091E00E94AF298091E800982F9B7FB1
:100A200011C08132F1F48091E800877F8093E80063
:100A300067E070E080E091E00E944C2A8091E8003D
:100A4000982F9E7F9093E8008F778093E800089519
:100A5000813239F48091E800877F8093E8000C941C
:100A6000602908951F920F920FB60F9211248F9351
:100A70009F93AF93BF93EF93FF938091E702909181
:100A8000E802A091E902B091EA020196A11DB11D10
:100A90008093E7029093E802A093E902B093EA0200
:100AA0008091E6028F5F8093E602E2E9F3E08081C5
:100AB0009181181619061CF401979183808336964C
:100AC00083E0EA3AF80799F78091AC039091AD037F
:100AD000009729F001979093AD038093AC03809128
:100AE000BF038F3F19F081508093BF03FF91EF91B7
:100AF000BF91AF919F918F910F900FBE0F901F905C
:100B000018952FB7F8944091E7025091E802609150
:100B1000E9027091EA02FC0140835183628373838E
:100B20002FBF0895A4E0B0E0E8E9F5E00C94E12BD4
:100B3000CE010196E6DF8C8108D28B8106D28A81B4
:100B400004D2898102D28DD12496E2E00C94FD2B4F
:100B50001F93CF93DF938091E7029091E802A091D9
:100B6000E902B091EA0220912301281709F45FC03D
:100B70008091E7029091E802A091E902B091EA0227
:100B800080932301A895C2E9D3E010E02881398140
:100B9000232B19F4812F0E94EE241F5F2696143018
:100BA000A9F78091AC039091AD03892B11F40E94B9
:100BB00050258091BF03811102C00E94A925809118
:100BC0003A03882339F0815080933A03811102C09F
:100BD0000E942B168091E6028D3748F11092E602B2
:100BE0008091070181FF04C088B190E2892788B90C
:100BF0008091EB029091EC02843823E0920728F474
:100C000001969093EC028093EB02809122018F5F1A
:100C1000809322018C3359F4109222018091910328
:100C20008F5F809391038C3310F010929103DF91CA
:100C3000CF911F910895A0E0B0E0E1E2F6E00C94BE
:100C4000DC2B8C016EE070E00E942F2D8D3009F0BE
:100C50004CC0459A8091D001882341F01092D00178
:100C60008DE191E032D7DD24D39401C0D12C809165
:100C7000E502811101C0E3DDB7DD84E0F82E5B9A67
:100C800088EE93E037D0C1E0D0E0EE24E394F801A1
:100C9000EC0FFD1F8081813309F0E12C5B98EE2081
:100CA00019F088EE93E002C080ED97E023D05B9AC4
:100CB000EE2019F080ED97E002C088EE93E01AD0A4
:100CC0002196CD30D10509F75B9883E218D0FA94CC
:100CD000B1F68091EE02882311F098DD02C086E320
:100CE00021DDD1100E9435184598CDB7DEB7E7E079
:100CF0000C94F82B880F991F0197F1F7089520EDB8
:100D000037E0815020F0F9013197F1F7FACF0895DB
:100D1000CF93DF93DC0113968C911397843509F000
:100D200050C0CD010396CC91FD0170964DE04C175B
:100D300050F050E0D0E09E012F5031094217530788
:100D400009F03FC005C021912B3399F34F5FEFCFDE
:100D5000FE013E97E80FF91F2081243591F5149686
:100D60003C911497218132132CC015963C91159714
:100D70002281321326C016963C9116972381321396
:100D800020C017963C911797248132131AC061979F
:100D9000C80FD91F858188838681898381858A834D
:100DA00082858B8383858C8384858D8385858E83E3
:100DB0008C918A508C9312968C9112978A5012962D
:100DC0008C93DF91CF910895CF93C82F80915B04CE
:100DD000843081F48091240180FF0CC08091D30382
:100DE000803408F082DD6C2F81ED93E034D2CA307C
:100DF00009F47BDD809145038823C9F080912401AB
:100E000083FF15C0CA3099F0CD3011F46BE301C0F7
:100E10006C2F85EF92E01FD2CD3019F485EF92E070
:100E200077DF83E080933A0382E080934003CF91A1
:100E30000895CF93DF93EC018991882311F0C4DFEB
:100E4000FBCFDF91CF910895CF93DF93EC01FE01AB
:100E50008491882319F0B8DF2196F9CFDF91CF91E3
:100E600008958DE0B1DF8AE0AFCFA6E0B0E0EBE31C
:100E7000F7E00C94DF2B062F1E8215E02AE030E00D
:100E80001150E1E0F0E0EC0FFD1FE10FF11DB901A1
:100E90000E94A42B805D8083CB010150009769F0F4
:100EA0001111EECF0AC0112359F01150E1E0F0E02A
:100EB000EC0FFD1FE10FF11D4083015007FFF3CF41
:100EC00081E090E08C0F9D1F810F911DB2DF26966F
:100ED000E4E00C94FB2BA5E0B0E0E1E7F7E00C9434
:100EE000E12B1D8224E0382F3F702150E22FF0E0EB
:100EF0003A3010F4305D01C0395CA1E0B0E0AC0FD5
:100F0000BD1FEA0FFB1F308334E0969587953A9515
:100F1000E1F76150009739F7615067FD0BC022235C
:100F200049F02150E1E0F0E0EC0FFD1FE20FF11D70
:100F30004083F2CF81E090E08C0F9D1F820F911DC6
:100F400078DF2596E2E00C94FD2B40E362E090E030
:100F5000C2CFDC01FB0130E090E08D918823A9F045
:100F6000813608F0805220ED280F2A3030F02FEB28
:100F7000280F263030F429EC280F292B332379F061
:100F800006C0803251F38A3341F3CF0105C0CF014F
:100F900001962083415041F4861B970B0895922FB0
:100FA0009295907F31E0D9CFFC01D5CFDB01FC01D8
:100FB00080E090E02191222361F030ED320F3A3051
:100FC000C8F76AE070E00E94932BC097820F911DD2
:100FD000F1CF8D939C930895982F92959F709A309E
:100FE00010F4905D01C0995CFB0190838F708A3092
:100FF00010F4805D01C0895CFB01818308950E942B
:10100000422DF999FECF08950C943A2D08951F931F
:10101000CF93DF93162F11501F3F59F0EC0121960B
:10102000F3DF93DF112311F08AE3CEDE1150CE01FE
:10103000F3CFDF91CF911F910895A2E0B0E0E3E2FA
:10104000F8E00C94DE2BFC0121812D3421F466E0C4
:101050008AEF93E005C0203529F460E18AED93E042
:10106000D6DF26C01A82198242E0BE016F5F7F4F31
:1010700001966FDF098110E0823021F4102F0027E4
:101080008A81082BC801C0DFF82E82E59DDE40E38F
:1010900064E0C80120DF86E492E0D6DE8F2D55DFC4
:1010A00082E492E0D1DE40E262E08F2D90E0DDDE6E
:1010B000D8DE2296E5E00C94FA2BA6E0B0E0E3E659
:1010C000F8E00C94DB2B6C0143E0BE016F5F7F4FB7
:1010D00001963FDF823058F1E980F12C823021F017
:1010E000FE2CEE242A81E22A8C011127FE01E00F5A
:1010F000F11F6081C70183DF000F111F0F5F1F4FBA
:101100000C0D1D1DF8018081882389F041E0BE018E
:101110006F5F7F4FC8011DDF892B49F08FEFE81A01
:10112000F80A6981C7016BDF0E5F1F4FEBCF269670
:10113000E8E00C94F72B41E067E071E0019609DFED
:101140008091070180FF02C0459A01C045986091D7
:10115000070184E390E053CFA1E0B0E0E2EBF8E0D8
:101160000C94E12B1982009731F041E0BE016F5FD2
:101170007F4F0196EEDE89818F3F09F4FFCF8823F0
:1011800021F061E083E390E03ADF0E94CC2A1092E4
:101190006E00F89428E088E190E00FB6F894A895E6
:1011A000809360000FBE20936000FFCFCF93DF934A
:1011B000EC0161E080E090E022DF62E481E090E019
:1011C0001EDF24DA60E080E690E019DF60E081E66F
:1011D00090E015DF60E083E390E011DF62E084E3FC
:1011E00090E00DDF60E080E690E009DF60E081E6FE
:1011F00090E005DF8981883719F080E090E0ACDF6E
:10120000DF91CF91089580E090E0FEDE813029F4F7
:1012100081E090E0F9DE823419F080E090E0C6DFF2
:1012200084E390E0F1DE809307010895FC01818161
:10123000883419F48BE392E007C01E9903C08DE255
:1012400092E002C08FE192E0FFDD0BCEFC01128242
:10125000108211820895FC018FB7F8949281903426
:1012600070F49F5F9283208191E0920F9083DF0161
:10127000A20FB11D13966C93903409F410828FBFA6
:101280000895FC019FB7F8948281882371F0815002
:101290008283818121E0280F2183DF01A80FB11D06
:1012A00013968C91203409F411829FBF0895FA019E
:1012B0003081882369F0E1E0F0E0022E01C0EE0FFA
:1012C0000A94EAF7DB01A30FB11D9C919E2B9C931E
:1012D000222319F08FEF820F0BC081E0830F8C3037
:1012E00010F4FA018083FB01E80FF11D108287E002
:1012F00090E00895CF93C82F5B9A882319F08091CE
:10130000270102C08091290190E034E0880F991FE5
:101310003A95E1F7EFDC5B98CC2319F08091260138
:1013200002C08091280190E024E0880F991F2A953F
:10133000E1F7E0DCCF910895A1E0B0E0E2EAF9E066
:101340000C94D12B6C01162F822E3E2CE42EF12C06
:101350004091EB025091EC02B7016E5F7F4F802FFE
:101360000E948A2B992787FD90954817590720F4EA
:101370008AE492E069DD7AC0481B590B5093EC0275
:101380004093EB02459A8091D001882341F010925E
:10139000D0018DE191E099D32224239401C0212C26
:1013A0008091E502811101C04ADA1EDAA12EB12C2A
:1013B000912C712C872D992787FD90958A159B0577
:1013C00024F480E097DF7394F5CF112311F081E0CE
:1013D00091DF20E0622E772467FC70946E147F0406
:1013E0002CF057E0552E6C0C7D1C1BC047E0442EA2
:1013F000512C6C0C7D1C81E090E0042C01C0880F06
:101400000A94EAF7F30190818923298373DFF1E0DD
:101410004F1A510829818FEF4816580661F72F5F40
:10142000D9CF852D992787FD9095881699066CF45C
:1014300081E090E0052C01C0880F0A94EAF7F301DF
:101440009081892357DF5A94ECCF832D58DC0150CB
:1014500009F0AFCF8091EE02882311F0D7D902C0F6
:1014600086E360D921100E94351845982196E2E163
:101470000C94ED2BADE0B0E0E0E4FAE00C94D42B5A
:101480007C01162F842F022F6701C60ED11C462F18
:10149000B70130D3D6018C931F5F1D8619825E2C55
:1014A000670127E066246394712C8C2D85198117C0
:1014B00088F577E0A72EB12C4701880E911CF30127
:1014C0000A2C01C0EE0F0A94EAF7D4018C91AE0108
:1014D000435F5F4FBE016F5F7F4F8E23E8DE282F93
:1014E000B1E0AB1AB10858F7D6018D916D01082E05
:1014F00082958025082E8695869580258F5F869516
:101500008170AE01435F5F4FBE016F5F7F4FCFDEE3
:10151000282FCBCF222311F0215004C08D858F5F5F
:101520008D8727E089E1809328018093290185E256
:1015300080932601809327016AE0E62E4D856CE0BA
:10154000CE010196F9DE2D96EFE00C94F02BADE084
:10155000B0E0EDEAFAE00C94E02B162F242F4BE0DC
:10156000BE016F5F7F4F01962D87F3DC2D85412FE4
:10157000682FCE0101967EDF2D96E3E00C94FC2BC4
:1015800043E066E0E4CFEF920F93CF93DF93CDB7C4
:10159000DEB760970FB6F894DEBF0FBECDBF40E157
:1015A000BE016F5F7F4F0196D4DC69814A810B8158
:1015B0008C81809329018D81809328018E81809375
:1015C00027018F8180932601E02EE294FFE0EF2235
:1015D0000F70242F2F7042954F70CE010896ACDE0D
:1015E00060960FB6F894DEBF0FBECDBFDF91CF91EE
:1015F0000F91EF900895A9E1B0E0E1E0FBE00C94D9
:10160000D92B4BE0BE016F5F7F4F0196A2DC182FF4
:10161000893009F05AC099E19093280190932901EB
:101620009093270182E38093260169E0CE01019621
:101630006BD2E1E0F0E0EC0FFD1FE10FF11D8083C4
:10164000198E1D86CE0101967C016E019BE0C90EAC
:10165000D11C27E0AA24A394B12CEC14FD0429F199
:1016600000E010E0F501002E01C0EE0F0A94EAF749
:10167000D7018C91AE01475E5F4FBE01635F7F4F24
:101680008E2315DE282F0F5F1F4F0830110551F7ED
:10169000AE01475E5F4FBE01635F7F4F81E007DEB3
:1016A000282FBFEFEB1AFB0AD8CF222311F02150CD
:1016B00004C0898D8F5F898F27E0AAE0EA2E03E0BE
:1016C000498D6CE0CE010D9637DE6996EAE00C9408
:1016D000F52BA9E1B0E0EFE6FBE00C94D82B4BE052
:1016E0009E012F5F3F4F7901B901019632DC182F1F
:1016F00085E38093290196E1909328019093270137
:1017000080932601612FC7010BD2F701E10FF11D74
:10171000808399249394910E198E1D86870127E06A
:10172000AA24A394B12C802F8E19891508F04AC0E1
:10173000C12CD12CF5010C2C01C0EE0F0A94EAF754
:10174000D8018C91AE01475E5F4FBE01635F7F4F52
:101750008E23ADDD282FBFEFCB1ADB0A34E0C31692
:10176000D10441F7AE01475E5F4FBE01635F7F4F1B
:1017700081E09DDD282F84E0C82ED12CF5010C2CB2
:1017800001C0EE0F0A94EAF7D8018C91AE01475ED2
:101790005F4FBE01635F7F4F8E2389DD282FBFEF30
:1017A000CB1ADB0A38E0C316D10441F7AE01475E1D
:1017B0005F4FBE01635F7F4F81E079DD282F0F5FB0
:1017C0001F4FB1CF0AE0E02E03E0498D6AE0CE0161
:1017D0000D96B2DD6996EBE00C94F42BEF920F932B
:1017E000CF93DF9300D000D0CDB7DEB743E0BE018A
:1017F0006F5F7F4F0196ADDB8AE68093290194E20B
:101800009093280191E2909327018093260180E82C
:101810008C832FE0E22E03E026E043E060E0CE017F
:1018200001968ADD0F900F900F900F90DF91CF916E
:101830000F91EF9008958F929F92AF92BF92DF9297
:10184000EF92FF920F931F93CF93DF931092450176
:1018500010925A01FC012181220F220F220F3381A5
:10186000231B57E0520F1092460110E070E038E061
:10187000D32ED20EFF24F39447E007E0E12CC7E01B
:10188000D0E0A1E0B0E0FD1409F47FC0FC01EE0D52
:10189000F11D248130E0002E02C0359527950A9471
:1018A000E2F721703327E22F002311F0015002C02C
:1018B000E39407E06B3471F4433009F04AC011112E
:1018C00007C0E1115FC01092450170935A0174C0C6
:1018D00010E041C04F3F31F56634A9F4E72FF0E046
:1018E000EA5BFE4FE0810E2EE295E0250E2EE69596
:1018F000E695E025EF5FE1FB882480F8912C8216C5
:10190000930641F004C0653429F4E11103C010933B
:101910004501DBCF7F5FE72FF0E0EA5BFE4F1082EF
:1019200047E031C0EE2361F1663471F4E72FF0E057
:10193000EA5BFE4FA0809D01042E01C0220F0A9495
:10194000EAF7A22AA0821CC0653439F06B34C1F4D6
:1019500004C04F3FD1F2EE2399F0E72FF0E0EA5BAD
:10196000FE4F9E01241B310947FD33955D0102C0E6
:10197000AA0CBB1C2A95E2F795013081322B3083EB
:10198000415001C011E0F3947ECF10934501709354
:101990005A015F1588F4653431F44F3F21F47F5FBD
:1019A00070935A0104C0809145018111F8CF81E004
:1019B00090915A01911101C080E0DF91CF911F9168
:1019C0000F91FF90EF90DF90BF90AF909F908F901E
:1019D000089510926F0080915D0190E06CE170E0DD
:1019E0000E94932B825A9E4FFC0110828091ED023F
:1019F0008D7F8093ED020895FC012181243108F050
:101A0000E8CF3381662381F081E090E0032E01C0AE
:101A1000880F0A94EAF7DF01A20FB11D14969C917A
:101A20001497982B14969C93332319F031503383D9
:101A3000089587E083832F5F2183E20FF11D1482D5
:101A40000895DC011196EC911197F0E050E02C9193
:101A5000CF01841B950B0B964797A0F430E070E004
:101A6000C901861B970B0B96479760F42E0F3F1FFB
:101A7000640F751F261B370B255F3F4F81E0273111
:101A8000310508F080E00895539A5B985298E9E692
:101A9000F0E080818061808382EC91E09093EC02A1
:101AA0008093EB0210927A01109296011092B2018B
:101AB0001092E50208958091EE02882321F00E94A1
:101AC0001F040C9406040C941604FC0121812111BE
:101AD0000BC08091EE0239DA40E265E08091EB02C2
:101AE0009091EC02C2D9BDC941E06EEE72E0019660
:101AF00030DAE1CF442339F04150FB01E40FF11D0E
:101B00009081890FF7CF089520E0662339F0615066
:101B1000FC01E60FF11D30812327F7CF822F0895B6
:101B2000A091450140E035E020E0662399F0615046
:101B3000FC01E60FF11D5081752F72957F702727EC
:101B4000370FAA2311F0442319F05F702527350FB2
:101B50004F5FEBCF822F830F8295807F822B08957A
:101B6000FC0132812381A081B181A30FB11D8C9131
:101B700090E0022E02C0959587950A94E2F7817055
:101B800099274FEF420F4383211104C03F5F3283F7
:101B900027E023830895A2E0B0E0E1EDFDE00C949E
:101BA000D92B7C01A12CB12CD12CCC24C394062F91
:101BB00010E001501109A616F0F4C7014A836983A9
:101BC000CFDF4A816981882391F0442349F098014D
:101BD0002A193B098C2D01C0880F2A95EAF706C007
:101BE0008C2D0A2C01C0880F0A94EAF7D82A8FEFAF
:101BF000A81AB80AE0CF8D2D2296EAE00C94F52BB6
:101C0000A4E0B0E0E6E0FEE00C94D82B1B8227E0D5
:101C10002C839C012C5F3F4F3A83298310925A01F9
:101C2000FC01218130E043E0220F331F4A95E1F7A8
:101C3000438187E090E0841B9109280F391F2534E8
:101C400031050CF44EC0B12CA0905A01F5E0FA1504
:101C500058F10A2D10E040E068E0CE0101969BDFCC
:101C60000A5B1E4FF8018083982E092C92949024D1
:101C7000092C969496949024CE01019671DF93944A
:101C800091FACC24C0F8D12C90E0C816D90649F5B9
:101C9000CE01019665DF811124C0F8018081B8264C
:101CA000A394A0925A01D0CF40E068E0CE01019603
:101CB00072DF082F182F012E12951025012E169570
:101CC00016951025CE0101964BDF1F5F11FBEE2408
:101CD000E0F8F12C282F30E0E216F30611F481E051
:101CE000B01280E02496EBE00C94F42BA5E0B0E079
:101CF000ECE7FEE00C94DC2BFC011B8287E08C837C
:101D0000CF0104969A8389838081853009F054C07D
:101D1000218130E063E0220F331F6A95E1F74381B0
:101D200087E090E0841B9109280F391F2039310585
:101D300009F042C010925A010FE010EF29E880919B
:101D40005A01E82EF12CDD24D394D80E41E068E04E
:101D50008F3088F4CE0101962D831DDF080F111DF1
:101D6000F701EA5BFE4F2D812827208324E2280F0C
:101D7000D0925A01E4CFCE0101960DDF080F111D5C
:101D8000D0925A01F701EA5BFE4F8095808341E0D3
:101D900068E0CE010196FFDE90E0982F8827081BAF
:101DA000190B41E068E0CE010196F5DE282F30E006
:101DB00081E00217130709F080E02596E7E00C9414
:101DC000F82BA4E0B0E0E7EEFEE00C94DE2B1B82E3
:101DD00027E02C839C012C5F3F4F3A832983FC0131
:101DE00021812430A1F58381813089F510925A0137
:101DF00080915A01082F10E0FF24F394F80E41E07F
:101E0000843098F4811106C067E0CE010196C3DEEC
:101E1000806804C068E0CE010196BDDEF801EA5B8F
:101E2000FE4F8083F0925A01E3CF67E0CE01019626
:101E3000B2DEF801EA5BFE4F880F8083F0925A0110
:101E40009091460192959F7081E09A3009F080E070
:101E50002496E5E00C94FA2BCF93DF93FC0181816B
:101E60008330E9F483818730D1F480818830B9F4FC
:101E700010925A0120E0822F90E0DC01AA5BBE4F55
:101E8000EF01C80FD91F8C818C9381E0820F8330C2
:101E900010F4282FF0CF80935A0181E001C080E038
:101EA000DF91CF910895FC0190818091ED029936E8
:101EB00011F0933751F4982F9370913011F48260A0
:101EC00006C080FF07C08B7F03C080FD03C0846015
:101ED0008093ED020895A1E0B0E0E1E7FFE00C940B
:101EE000DD2B198280912A018823B9F18091EE02BD
:101EF00087FF17C084E30E9443038058803458F062
:101F0000803C58F490E080559109B3E09595879511
:101F1000BA95E1F703C080E001C08FE08F590E94BD
:101F2000E4068091EE0283FF16C082E70E94E40679
:101F30008091EE0284FF04C080912B010E94E40690
:101F400086E60E94E4068091EE0284FF04C0809140
:101F50002A010E94E40610922A0180915B018823E5
:101F600009F44CC2459A80915C0190E06CE170E00C
:101F70000E94932B8C01025A1E4F8981811106C049
:101F8000C8016ADF882311F083E789838981811181
:101F900006C0C801ABDE882311F083E589838981FF
:101FA000811139C066E4C80146DC8823A1F1F090B4
:101FB0005A01FA94F0925A014F2D66E471E086E0DE
:101FC00099DDEF2DF0E0EA5BFE4FE0808E1105C059
:101FD00093E09F1510F486E41BC0282F30E02F5F9C
:101FE0003F4F6E2D70E02617370739F493E09F15A9
:101FF00020F496E4998380830EC04F2D66E471E04F
:102000008CE078DD8E1106C0E3E0EF1518F484E56E
:10201000898301C019828981811116C065E4C801D4
:102020000ADC882389F080915A01815080935A01FB
:10203000893051F469E086E491E066DD90914F01CA
:10204000891302C085E489838981811106C0C80192
:10205000D7DD882311F088E489838981811106C046
:10206000C801AFDE882311F084E78983898181115B
:1020700033C0F801438D60912B01C8014A96E1DC21
:10208000682FC801B9DC6BE4C801D5DB8823B1F047
:10209000F0905A01FA94F0925A016F2D86E491E083
:1020A0003FDDEF2DF0E090914501E91BF109EA5B7E
:1020B000FE4F9081891302C08BE48983898181114D
:1020C0000BC0F801838191E0980F9383873021F44E
:1020D0001382818181508183898181112DC0F80112
:1020E0008181843049F58381843031F54EE16CE3A0
:1020F000C8014896A6DC8823F9F04EE160912B01D7
:10210000C8014A969EDC682FC80176DC20E0822F49
:1021100090E0FC01EA5BFE4FD801A80FB91F1496AE
:102120008C91808381E0820F853010F4282FEFCFCF
:1021300080935A0182E589833981332309F4CAC027
:102140002091EE0220FFC6C08091ED028E7F8B7F32
:102150008093ED0221FD64C050914401F0905A013A
:102160005F113DC040E04517C0F4842F90E061E06E
:10217000640FFC01E05DFE4FDC01AA5BBE4F708185
:102180008C91781741F0409344018091ED028D7F4E
:102190008093ED0204C0462FE6CF409344014513DF
:1021A0001EC04091E7025091E8026091E9027091EF
:1021B000EA0280912C0190912D01A0912E01B09105
:1021C0002F01481B590B6A0B7B0B463251056105E9
:1021D000710528F48091ED0281608093ED0240E06A
:1021E0004F1560F4842F90E0FC01E05DFE4FDC01B0
:1021F000AA5BBE4F8C9180834F5FF2CF4093440126
:102200008091E7029091E802A091E902B091EA0280
:1022100080932C0190932D01A0932E01B0932F0158
:102220003435E9F426FD1BC080915A018530B8F0A1
:10223000809148018B3471F0893661F09DEA980FE6
:10224000923040F08D57823028F08091490180779C
:10225000803729F48091ED0281608093ED02B8010E
:10226000CE01019620DE8091ED0282FF33C089818C
:102270000E94E40680914501882329F080915A014B
:10228000815080935A01F12CE0915A01FE1648F4D6
:10229000EF2DF0E0EA5BFE4F80810E94A507F394EA
:1022A000F3CF80914501882351F0F0E0EA5BFE4FC7
:1022B00080818F7040E361E090E00E946B07809125
:1022C000EE0285FF05C084E30E9443030E94A50738
:1022D0000E9431078091EE0282FF77C080E70E9462
:1022E000E406F801808140E262E090E00E94350758
:1022F000F801808D90E040E265E074E0880F991F5E
:102300007A95E1F70E943507F801818D90E040E26F
:1023100065E0E4E0880F991FEA95E1F70E94350730
:10232000F801828D90E040E265E0F4E0880F991FAB
:10233000FA95E1F70E943507F801838D90E040E2BD
:1023400065E0A4E0880F991FAA95E1F70E94350780
:10235000F801828140E263E090E00E943507F801D5
:10236000818140E263E090E00E943507F80123811B
:1023700040E262E087E090E0821B91090E9435070D
:1023800080E20E94E4068091EE0285FF08C084E3AB
:102390000E9443030E94A50780E20E94E406F80120
:1023A0008381873019F081818F5F8183F12CF8015F
:1023B0008181F81640F4F801EF0DF11D84810E942F
:1023C000A507F394F4CF0E943107F80110828091A1
:1023D0005B01815080935B0180915C018F5F843051
:1023E00019F080935C0102C010925C0145988981CC
:1023F000843521F486E491E00E94B8252196E6E038
:102400000C94F92B1F920F920FB60F9211242F9359
:102410003F934F935F936F937F938F939F93AF936C
:10242000BF93EF93FF9310926F008091EE0283FFB2
:1024300003C08EE20E94E40640915D01242F30E04B
:10244000C9016CE170E00E94932B825A9E4FFC01FF
:102450008081833018F08181823010F4BADA18C09C
:1024600080915B01833049F48091EE0282FFF6CFC8
:1024700081E592E00E942407F1CF8F5F80935B019A
:102480004F5F443019F040935D0102C010925D012E
:10249000FF91EF91BF91AF919F918F917F916F913C
:1024A0005F914F913F912F910F900FBE0F901F9012
:1024B00018959BED980F973150F496EF960F9D313C
:1024C00030F491E0681708F090E0892F089580E0DB
:1024D00008951F920F920FB60F921124FF920F933F
:1024E0001F932F933F934F935F936F937F938F939C
:1024F0009F93AF93BF93CF93DF93EF93FF9380911D
:10250000D003882321F082E08093D00365C18091BD
:102510003B03823021F483E080933B035DC1009153
:10252000840010918500B4E016950795BA95E1F7FF
:1025300080915D0190E06CE170E00E94932BEC01D2
:10254000C25ADE4F8881843031F40E3208F444C11F
:102550000F3448F0B6C0853031F4073108F43CC17F
:10256000083208F0AEC04A990DC08450823038F469
:1025700061E0CE0141DA1092850010928400009350
:102580002B012AC180912B01081B00932A01109274
:102590008500109284009881983071F42A8121116D
:1025A0000BC021E02A83888F8A8F098F0B3B10F4A0
:1025B000000F01C006950B8F9450923020F460E01C
:1025C000CE011ADA09C182E086BBF880F11011C091
:1025D00090912B01953608F0FFC080912A01853635
:1025E00008F0FAC0988F898F81E08A8382E088831F
:1025F000F3C010912A0182E0F81273C000912B0100
:10260000412F602FCE0148961CDA6A818823F9F0A9
:10261000488D50E09A01220F331F240F351F200FE1
:10262000311D3595279535952795288F298D30E0D3
:10263000C901880F991F820F931F810F911D9595D6
:10264000879595958795898F6F5F6A83C5C064303C
:1026500008F445C020EA3FE03093890020938800C9
:102660008A818C3050F0888D298D30E0280F311D03
:102670002536310524F084E027C08A3088F0888D23
:10268000298D30E0280F311D253231054CF485E0CD
:10269000888328EE33E0309389002093880015C0AA
:1026A0008091F402882379F0612F802F02DF882344
:1026B00051F0688D898DFDDE882329F081E08093BB
:1026C0003B0387D989C083E088830A8F1B8F1982D7
:1026D00087E08B831C8282E080936F007DC018822C
:1026E00077CF88E0F81225C081E9810F8D3178F429
:1026F00060E0CE0181D9288D30E0C901880F991F93
:10270000820F931F20912B01820F911D4EC0173E07
:1027100008F462C061E0CE016FD92A8D30E0C901B2
:10272000880F991F820F931F20912B01820F911DFB
:1027300015C000912B01412F602FCE014A9681D9FF
:10274000882301F161E0CE0157D92A8D30E0C9011B
:10275000880F991F820F931F800F911D9595879564
:10276000959587958A8F2B8D30E0C901880F991F29
:10277000820F931F810F911D95958795959587954C
:102780008B8F2AC0412F602FCE0148965AD98823BB
:1027900001F160E0CE0130D9288D30E0C901880F09
:1027A000991F820F931F800F911D95958795959581
:1027B0008795888F298D30E0C901880F991F820F76
:1027C000931F810F911D9595879595958795898F75
:1027D00003C087E0F81275CFFF91EF91DF91CF91A1
:1027E000BF91AF919F918F917F916F915F914F9129
:1027F0003F912F911F910F91FF900F900FBE0F905F
:102800001F90189580915D0190E06CE170E00E944E
:10281000932B825A9E4FFC018081811107C081E079
:102820009091BF039F3F19F480E0089581E00895DF
:1028300080E690E00E9404088093F40281E690E034
:102840000E94040880934503882321F081E280934D
:10285000EE0231C908955B9A0C947A065B980C9449
:102860007A06A7E0B0E0E7E3F4E10C94DC2B90916A
:10287000FD02943559F420913E0330913F032F5FC0
:102880003F4F30933F0320933E033EC0963459F4AC
:1028900020913C0330913D032F5F3F4F30933D0328
:1028A00020933C0331C0953459F42091F1023091CA
:1028B000F2022F5F3F4F3093F2022093F10224C0C7
:1028C0009B3459F420914103309142032F5F3F4FD5
:1028D000309342032093410317C0983459F4209158
:1028E0004303309144032F5F3F4F309344032093C1
:1028F00043030AC02091EF023091F0022F5F3F4F57
:102900003093F0022093EF0295E79983882399F0A2
:10291000BE016E5F7F4F809145030E94EC07BE01B0
:102920006C5F7F4F8091F4020E94EC0785E58E83F7
:1029300086E0D82E02C0DD24D3940E941F040E949A
:10294000F40316E080E891E086DF80E093E086DF24
:102950001150C1F780E093E07EDF80E891E07EDFF8
:1029600080E891E078DF5B9887E390E00E9496032F
:1029700083E00E947F0628988FE70E94CC02809116
:10298000F7028D0D0E94CC02CE0101967C018C01D4
:10299000F80181918F010E94CC02802F8E198D1534
:1029A000B8F38091F702882339F085EF92E00E9416
:1029B00041090E94CC02F5CF289A0E94F40385EFCA
:1029C00092E00E94260915E18AE30E9443038F7773
:1029D00031F0115021F081E00E947F06F5CF6BD8D5
:1029E0002796E7E00C94F82BCF93DF93EC018981D5
:1029F000811107C08091F4020E94A50780914503D0
:102A000013C08436A1F48091E7029091E802A0916E
:102A1000E902B091EA0240E364E00E946B078EE2B3
:102A20000E94E40680913A030E94A5074DC08337B7
:102A300009F04DC040E361E080913E0390913F0377
:102A40000E946B078EE20E94E40640E361E0809101
:102A50003C0390913D030E946B078EE20E94E406C6
:102A600040E361E08091F1029091F2020E946B07D5
:102A70008EE20E94E40640E361E080914103909180
:102A800042030E946B078EE20E94E40640E361E08D
:102A900080914303909144030E946B078EE20E9451
:102AA000E40640E361E08091EF029091F0020E9421
:102AB0006B078EE20E94E40640E361E080913803F8
:102AC000909139030E946B070E9431072CC0893610
:102AD000D9F441E064EF72E0CE0102960E94A907AA
:102AE0006091F40280E690E00E94FF0741E065E417
:102AF00073E0CE0104960E94A9076091450381E628
:102B000090E00E94FF070FC085EF92E00E94260927
:102B100021966991662329F085EF92E00E942B09A6
:102B2000F8CF80E09EDEDF91CF910895A1E0B0E084
:102B3000ECE9F5E10C94DB2B80913B03882309F44D
:102B400086C0C090E702D090E802E090E902F090E1
:102B5000EA02833009F061C08FE30E944303182F1B
:102B60008630C8F084E194E00E94260928988FEF0F
:102B70000E94CC0280E00E94CC02082F115049F044
:102B800080E00E94CC02682F84E194E00E942B092F
:102B9000F5CF289A01C000E00E945B0D10923B0324
:102BA000053709F054C041E0BE016F5F7F4F87E1F8
:102BB00094E00E94A907019759F599818091F40248
:102BC000981326C080911B04853571F480911604FA
:102BD000882339F084E194E00E9441090E94E406D0
:102BE000F5CF0E94310733C0809116048450809342
:102BF000160484E0809315046AE084E194E00E9466
:102C00002B09E091E302F091E40288E009951FC0EE
:102C100084E194E00E9426091AC0823059F4809120
:102C2000F3029C2D981B983090F00E945B0D10923F
:102C30003B030DC0813059F487E390E00E94960376
:102C40000E94060482E080933B03C092F302219627
:102C5000E8E00C94F72BD6DD882361F083E08093C5
:102C60004003809138039091390301969093390382
:102C700080933803809140038150809340038823E0
:102C800021F083E080933A03089581E0EACDCF9369
:102C9000DF93EA98209A289A8EE190E00E947A06C3
:102CA00028988EE190E00E947A06289A8DE290E0C2
:102CB0000E947A0680E30E94920384E690E00E94DC
:102CC0007A06C8E7D2E0FE0131966491FE01849154
:102CD0000E9480032296F2E0CA3ADF07A1F78091B2
:102CE000CF01811107C083E30E94920384E00E9418
:102CF0007F060FC0C2E6D2E0FE0131966491FE016C
:102D000084910E9480032296F2E0C837DF07A1F782
:102D1000EACF84E30E94920385E30E9443038D304F
:102D2000C1F7DF91CF910895A2E3B0E0EAE9F6E1BF
:102D30000C94DF2B8091CE01882309F4A1C04A9B1B
:102D40008AC08FE30E9443038F778983823368F0C0
:102D50008AE30E94920386E30E9492038DE30E941D
:102D6000920384E30E9492038BC028988FEF0E9405
:102D7000CC0210E08981181760F480E00E94CC0238
:102D8000E2E0F0E0EC0FFD1FE10FF11D80831F5F1B
:102D9000F1CF80E00E94CC02082F80E00E94CC029C
:102DA000289A84E30E94920385E30E9443038D30B6
:102DB000C1F72A8196E792279A8392E08981E92FC9
:102DC000F0E0981768F441E050E04C0F5D1FE40F0D
:102DD000F51F30812452232720839F5F232FEECFBE
:102DE00081E090E08C0F9D1FE80FF91F90818B818F
:102DF000982790838091EE0284FF12C081E60E94A2
:102E0000E40610E08981811730F1E1E0F0E0EC0F99
:102E1000FD1FE10FF11D80810E94E4061F5FF2CFCC
:102E200081E40E94E40610E08981811758F0E1E016
:102E3000F0E0EC0FFD1FE10FF11D80810E94A5075E
:102E40001F5FF2CF8091EE0285FF03C0802F0E94AA
:102E5000A5070E94310785E30E944303813029F0D2
:102E6000813161F48AE30E94920386E30E94920317
:102E70008DE30E94920384E30E9492030E94660401
:102E8000E296E4E00C94FB2B8F929F92AF92BF925C
:102E9000DF92EF92FF920F931F93CF93DF93CDB703
:102EA000DEB7EA970FB6F894DEBF0FBECDBF41E3A1
:102EB0008E010F5F1F4FB80101960E94A9077C0188
:102EC00099270197298130E08217930709F0A3C061
:102ED0008091CE01811104C0DADE83E00E947F067A
:102EE000DB808A8196E789278A8322E03981822FD5
:102EF00090E0F801E80FF91F231750F4DE01A80F46
:102F0000B91F8C9184529081892780832F5FEECFE7
:102F100080818D258083CE01C7960E94810585E33F
:102F20000E94920385E30E944303833181F1CE0125
:102F3000C3960E9481054BA95CA96DA97EA98FA9A2
:102F400098ADA9ADBAAD84179507A607B70760F489
:102F50004A015B01881A990AAA0ABB0A2DEB82165C
:102F60009104A104B10470F4481759076A077B075C
:102F700070F484549F4FAF4FBF4F84179507A60737
:102F8000B70728F488E592E00E94240727C085E36C
:102F90000E944303833119F6D4FE08C088E70E94DB
:102FA0007F0688E70E947F0688E701C08AE00E94CA
:102FB0007F0628988FE70E94CC0258018A2D801B3B
:102FC0008E1530F4F50181915F010E94CC02F6CF9D
:102FD000289A85E30E9443038331D9F385E30E9455
:102FE0004303863149F48BE30E94920386E30E94F7
:102FF00092038DE30E9492038091CE01882349F0D1
:1030000084E30E94920385E30E9443038D30C1F75D
:1030100002C00E945B0DEA960FB6F894DEBF0FBEA9
:10302000CDBFDF91CF911F910F91FF90EF90DF9077
:10303000BF90AF909F908F900895FC01218122371F
:1030400031F0223559F481E08093CF0102C0109213
:10305000CF011DDE81E08093CE010895233711F466
:10306000019612CF1092CE010895CF93DF93EA9884
:10307000209A289A8EE190E00E947A0628988EE1A4
:1030800090E00E947A06289A8DE290E00E947A06EB
:1030900080E30E94920384E690E00E947A06C3ECEB
:1030A000D2E0FE018491813440F083E30E949203D8
:1030B00084E00E947F06CFEF0DC0FE01319664913F
:1030C000FE0184910E9480032296F2E0CF3FDF0749
:1030D00041F7EBCF84E30E9492038AE090E00E94E4
:1030E0007A06C150B9F781E08093D001DF91CF918A
:1030F0000895EF92FF920F931F93CF93DF93EC010C
:103100008B01F880F3946115710519F0E4E6F0E0A5
:1031100002C0E0E0F0E08F2D90E023E0880F991FDF
:103120002A95E1F76AE070E00E94B82B9B012E0F10
:103130003F1FC901AA2797FDA095BA2FE091EB0286
:10314000F091EC02AF0160E070E0481759076A07A0
:103150007B0728F483EB92E00E942407D9C0E21B8E
:10316000F30BF093EC02E093EB028091D00181111C
:1031700001C07BDF85E30E9443038D3071F08AE557
:103180000E94E40685E40E94E40682E50E94E406CB
:1031900082E50E94E40681E34CC08091D1019091C8
:1031A000D201A091D301B091D401892B8A2B8B2B12
:1031B00051F50E94F40385E30E944303833109F42F
:1031C00043C08AE50E94E40685E40E94E40682E5A5
:1031D0000E94E40682E50E94E40682E32AC0809110
:1031E000E7029091E802A091E902B091EA024F5FF4
:1031F0005F4F6F4F7F4F84179507A607B707C9F634
:1032000081E00E947F068091E7029091E802A09100
:10321000E902B091EA024091D1015091D20160914E
:10322000D3017091D40184179507A607B707B9F6A3
:10323000E7CF0E94E40685E30E9443030E94A507AE
:103240000E94310712DF64C0012B41F428988FE7F8
:103250000E94CC02EC2E0C2F1D2F0BC00AE010E0B8
:1032600084E60E947F060150110901151105C1F77E
:10327000EDCF802F8E198F1530F4F80181918F01D9
:103280000E94CC02F6CF289AC8EC85E30E94430343
:103290008D30E9F485E30E9443038D3019F18AE50E
:1032A0000E94E40685E40E94E40682E50E94E406AA
:1032B00082E50E94E40683E30E94E40685E30E941F
:1032C00043030E94A5070E943107CFDE0BC085E3B0
:1032D0000E9443038331F1F681E00E947F06C150D2
:1032E000A1F6D8CF8091D001811102C00E945B0D60
:1032F0008091E7029091E802A091E902B091EA0280
:103300008093D1019093D201A093D301B093D401C3
:10331000CDB7DEB7E6E00C94F92BACE0B0E0E3E922
:10332000F9E10C94E02BFC018BE0898381818A8395
:103330001B8282E08C8387818D8380858E8381854B
:103340008F83848188878581898786818A871B8688
:103350001C8684E10E947F0660E070E0CE01019649
:10336000C8DE8AE50E94E40610E0812F90E0298102
:1033700030E0281739075CF0E1E0F0E0EC0FFD1FCA
:10338000E80FF91F80810E94A5071F5FEECF809193
:10339000EE0285FF03C080E00E94A5070E9431076E
:1033A0002C96E3E00C94FC2BCF93DF93EC018091FF
:1033B000D801811108C09091D901911104C0909158
:1033C000DA019923A9F09B81903319F09F7E903404
:1033D00079F49F8198130CC098858091D901981336
:1033E00007C099858091DA01981302C0CE0195DF5C
:1033F0008091D501811108C09091D601911104C02E
:103400009091D7019923A9F098819B3091F49B81E9
:10341000903479F49F8198130CC098858091D601DF
:10342000981307C099858091D701981302C0CE01E7
:1034300074DFDF91CF910895AEE1B0E0E2E2FAE10E
:103440000C94DF2B8091D001882309F469C04A9B3A
:1034500059C08FE30E9443038F778E3108F08DE1CE
:10346000898328988FEF0E94CC0210E08981181779
:1034700060F480E00E94CC02E2E0F0E0EC0FFD1F7F
:10348000E10FF11D80831F5FF1CF80E00E94CC022D
:10349000082F80E00E94CC02289ACE01019684DF9A
:1034A0008091EE0284FF12C08AE70E94E40610E0D9
:1034B00089818117A8F1E1E0F0E0EC0FFD1FE10F39
:1034C000F11D80810E94E4061F5FF2CF8AE50E9411
:1034D000E40610E08981811758F0E1E0F0E0EC0F9C
:1034E000FD1FE10FF11D80810E94A5071F5FF2CF34
:1034F0008091EE0285FF03C0802F0E94A5070E94E5
:1035000031070EC085E30E944303813149F48AE309
:103510000E94920386E30E94920384E30E94920336
:103520006E96E4E00C94FB2BAEE1B0E0EAE9FAE140
:103530000C94DF2B8C01FC018181823711F495DD25
:1035400036C0833711F0863601F54DE1BE016F5F5D
:103550007F4FC80102960E94A907992701972981E8
:1035600030E08217930729F08AEA92E00E9424074C
:103570001EC061E070E0F8018181833711F060E0E6
:1035800070E0CE010196B5DD12C0813621F443E032
:1035900068ED71E005C0873741F443E065ED71E007
:1035A000C80102960E94A90702C01092D0016E962F
:1035B000E4E00C94FB2B0E940604EA980895CF9354
:1035C000DF93209A289A8EE190E00E947A0628984C
:1035D0008EE190E00E947A06289A8DE290E00E94A7
:1035E0007A0680E30E94920384E690E00E947A06C5
:1035F000809108018933C1F4C3E6D3E0FE0131961E
:103600006491FE0184910E9480032296F3E0C53903
:10361000DF07A1F783E30E94920384E00E947F0604
:10362000CADFDF91CF910895843379F4C1E3D3E009
:10363000FE0131966491FE0184910E9480032296DE
:10364000F3E0C336DF07A1F7E5CF813319F7CFEFFA
:10365000D2E0FE0131966491FE0184910E948003C4
:103660002296F3E0C133DF07A1F7D4CFFC019081AC
:1036700080918A03981314C0918180918B039813D1
:103680000FC0928180918C0398130AC0938180911E
:103690008D03981305C081E0208590918E03291336
:1036A00080E008952FEF662339F06150FC01E60FAA
:1036B000F11D30812327F7CF822F0895DC01FC0113
:1036C0008FE09DE170E09F012A1B3B0B2617370717
:1036D00004F52191492F552742279A0132952295C9
:1036E0002F7023273F70232724273527982F8827DB
:1036F00082279327A901542F44275295507F84276E
:10370000952745E0220F331F4A95E1F7822793273B
:10371000DACF0895CF92DF92FF920F931F93CF934A
:10372000DF931F92CDB7DEB7082F162F459A86E09C
:1037300099830E9480030E94F40328988FE70E94D7
:10374000CC02F02EC02E9981D92E8C2D8F19811785
:1037500038F4F60181916F0180950E94CC02F5CF7B
:10376000289A85E30E9443038331D9F36FEF86E003
:103770000E94800320DF45980F90DF91CF911F9129
:103780000F91FF90DF90CF900895A1E4B0E0EBECB3
:10379000FBE10C94D82B8091DB01882309F4E4C071
:1037A0004A9BE2C0459A28988FEF0E94CC028E0176
:1037B0000F5F1F4F6E0189E0C80ED11C780180E0B9
:1037C0000E94CC028095F70181937F01EC15FD05E5
:1037D000B1F7289AB88487EF8B0D883310F0EFDEAD
:1037E000C3C06B2D86E00E94800368E3C62E78E09C
:1037F000D72EEB2CF12C8CED90E00E947A068BE317
:103800000E944303A82E882329F1282F30E02D0D94
:10381000311DE216F3061CF328988FEF0E94CC02AC
:10382000AD0CDA1469F0992493949D0C80E00E9409
:10383000CC02F801ED0DF11D80958083D92CF1CFDC
:10384000289ADB1438F080910801EB2CF12C81339D
:10385000D9F403C0CA9479F6F6CFFE013197EE0D84
:10386000FF1DC080D12CDC2CCC24FE01EE0DFF1DF1
:103870008081C80ED11C6EEF6B0DC8011FDF21E0E7
:103880008C159D0559F40BC06FEF6B0DC8010ADF55
:10389000FE01EE0DFF1D21E09081891320E0809153
:1038A000DB01823751F4C80122962FAF2297DEDE6A
:1038B00022962FAD2297882399F0222391F08AE750
:1038C0000E94E4067801F70181917F010E94A5071B
:1038D0008E2D801B8B15B8F30E94310721E001C0AB
:1038E00020E08091DB018237C9F52223B9F1809174
:1038F0000801813321F4FBE0FB1520F02FC08AE0A2
:103900008B1560F58AE00E947F068D818987809102
:103910008E038D8383E08E8380910801813349F487
:103920008BE0888769E0C801C9DE9A878B876BE0E6
:1039300007C08AE0888769E0C801B4DE8A876AE048
:10394000C801E8DE8AE70E94E40681E60E94E406F8
:1039500089850E94A5070E94310705C06FEF86E0A8
:103960000E94800328DE4598CF5BDF4FEBE00C948C
:10397000F42BFC012181223711F02D3651F4FC018A
:103980008281811101C084E3809308012093DB01CF
:1039900016CE233751F440E46AE473E002960E94A5
:1039A000A907682F8AE493E0B5CE293671F5FC01AA
:1039B0002281222331F045E06AE873E002960C94FC
:1039C000A9078091DB010E94E406809108010E9412
:1039D000E40680E20E94E40680918A030E94A50723
:1039E00080918B030E94A50780918C030E94A507FC
:1039F00080918D030E94A50780E20E94E4068091D9
:103A00008E030E94A5070C9431071092DB010895E4
:103A1000CF93DF93EA98209A289A8EE190E00E9453
:103A20007A0628988EE190E00E947A06289A8DE224
:103A300090E00E947A0680E30E94920384E690E080
:103A40000E947A06289880E40E94CC02C5E9D3E05F
:103A5000FE0184910E94CC022196F3E0C23ADF0776
:103A6000B9F7809109010E94CC0280910A010E945D
:103A7000CC0280910B010E94CC02C0E0D0E0FE019C
:103A8000EB55FC4F84910E94CC022196C931D1059F
:103A9000B1F7289A28988EE70E94CC028BE290E03A
:103AA000EC0121960E9404080E94CC02C333D10588
:103AB00011F0CE01F5CF289A83E30E94920381E0B2
:103AC0000E947F0681E08093E502DF91CF91089507
:103AD000AF92BF92CF92EF92FF920F931F93CF932B
:103AE000DF93EC018981843769F460E171E0CE01F4
:103AF00002960E94D60740E260E08091100190910A
:103B0000110112C0833709F07CC18A81823789F4A0
:103B10006CE071E0CE0103960E94D60740E260E0BF
:103B200080910C0190910D010E9435070E94310790
:103B3000DCC1459A8091DE01811116C08091CE01D1
:103B4000882329F081E08093DD011092CE018091DD
:103B5000D001882329F081E08093DC011092D0010C
:103B600057DF83E00E947F0686E30E9492038AE388
:103B70000E9492038BE30E9492030E94F403FE01D1
:103B800001900020E9F70E2F0C1B0250C12C7E0182
:103B9000E2E0EE0EF11C80910C0190910D012C2DB4
:103BA000332727FD30952817390708F0ECC001327C
:103BB00091F45B9A80911001909111010E947A0614
:103BC0005B9880910E0190910F016AE070E00E9475
:103BD000932B0E947A06570111E010170CF0ACC02D
:103BE000F50181915F015B9A803309F040C0013299
:103BF000E1F480910E0190910F010E947A065B988A
:103C000080910E0190910F010E947A065B9A80913B
:103C10000E0190910F010E947A065B9880910E012F
:103C200090910F0165E070E01FC0809110019091AC
:103C300011010E947A065B98809110019091110108
:103C400063E070E00E94932B0E947A065B9A809159
:103C50001001909111010E947A065B9880911001E9
:103C60009091110163E070E00E94932B61C0813359
:103C700011F5013281F480910E0190910F010E94A3
:103C80007A065B9880910E0190910F0165E070E0DB
:103C90000E94932B1DC0809110019091110163E04F
:103CA00070E00E94932B0E947A065B98809110012D
:103CB000909111012BC00132D1F480910E019091AD
:103CC0000F010E947A065B9880910E0190910F017E
:103CD0000E947A065B9A80910E0190910F010E94DA
:103CE0007A065B9880910E0190910F0121C080911E
:103CF0001001909111010E947A065B988091100149
:103D00009091110163E070E00E94932B0E947A066B
:103D10005B9A809110019091110163E070E00E9424
:103D2000932B0E947A065B9880911001909111016B
:103D30000E947A061F5F51CF5B9A013291F4809105
:103D40000E0190910F010E947A065B9880910E01FE
:103D500090910F0168E270E00E94932B0E947A0616
:103D600010C080911001909111010E947A065B9819
:103D70001FE180911001909111010E947A0611506B
:103D8000C1F7C39408CF8091DE01882341F0809170
:103D9000EE0281110FC086E30E94920318C0809149
:103DA000DD01882351F01092DD010E94471681E069
:103DB0008093CE010E9406040AC08091DC01882312
:103DC00021F01092DC0151D902C00E945B0D459890
:103DD00089E60E94E40683E70E94E40611E01017DA
:103DE0000CF0A4CEFE01E10FF11D17FDFA958181C3
:103DF000803319F0813309F086E40E94E4061F5FE6
:103E0000EECF8237B9F48091CE01882329F081E08A
:103E10008093DD011092CE018091D001882329F09A
:103E200081E08093DC011092D001F2DD81E080938B
:103E3000DE015BC0863651F58A81803351F480E122
:103E40008093090180EB80930A0181E780930B0145
:103E500007C043E069E071E0CE0102960E94A90725
:103E600089E60E94E40686E60E94E4068AE30E9450
:103E7000E406809109010E94A50780910A010E9431
:103E8000A50780910B010E94A50750CE883729F520
:103E90008091DD01882341F01092DD010E944716D8
:103EA00081E08093CE0110C08091DC01882321F055
:103EB0001092DC01DAD80EC082E090E00E949603F6
:103EC0008091EE02882319F00E94060403C086E365
:103ED0000E9492031092DE0108C0833631F460E143
:103EE00071E0CE0101960E94D607DF91CF911F911C
:103EF0000F91FF90EF90CF90BF90AF900895A2E008
:103F0000B0E0E5E8FFE10C94D42B7C01FC01818159
:103F1000833709F09DC1198287E090E00E94082C48
:103F20008C0141E0BE016F5F7F4FC70102960E9486
:103F3000A9078981F801808341E0BE016F5F7F4F4F
:103F4000C70104960E94A9072981207FF8012183D7
:103F500041E0BE016F5F7F4FC70106962A830E9432
:103F6000A9078981F801828341E0BE016F5F7F4F1D
:103F7000C70108960E94A9078981F801838341E05F
:103F8000BE016F5F7F4FC7010A960E94A907898112
:103F9000F801868341E0BE016F5F7F4FC7010C9639
:103FA0000E94A9078981F801858341E0BE016F5F06
:103FB0007F4FC7010E960E94A9078981F80184836B
:103FC00080E090E02A814191342F32953F70342770
:103FD00083279F5F9730B9F78F70822BF801818319
:103FE00087E090E00E94082C5C0187E0F801D50191
:103FF00001900D928A95E1F7D8011196C8010696B5
:10400000F8013D91219123272083E817F907C9F78B
:10401000459A8091E101811160C08091CE01882391
:1040200029F081E08093E0011092CE018091D001CF
:10403000882329F081E08093DF011092D001EA9873
:10404000209A289A8EE190E00E947A0628988EE1C4
:1040500090E00E947A06289A8DE290E00E947A060B
:1040600080E30E94920384E690E00E947A062898FA
:1040700080E40E94CC026EEBE62E63E0F62EF701A0
:1040800084910E94CC02FFEFEF1AFF0A27EEE2169E
:1040900023E0F206A1F7289A28988EE70E94CC0226
:1040A0008BE290E07C01EFEFEE1AFE0A0E9404081A
:1040B0000E94CC02F3E3EF16F10411F0C701F2CF36
:1040C000289A83E30E94920381E00E947F0681E0A8
:1040D0008093E50283E00E947F0686E30E949203BC
:1040E0008AE30E9492038BE30E9492030E94F403EE
:1040F0005B9A87EC94E20E947A065B9889E50E94BD
:104100007F0685E392E00E947A06712C8091160169
:1041100090E0272D332727FD3095281739070CF01D
:1041200057C0711002C022E001C027E0F12C5B9A59
:1041300086EF99E02A830E947A065B9886EF99E0E1
:104140000E947A06F3942A81F2168CF35B9A8CEF24
:1041500092E10E947A065B9880911201909113017E
:104160000E947A066801612CF60181906F0148E097
:10417000542E50E8E52EF12C912CC701882199216D
:10418000892B49F45B9A80911201909113010E944E
:104190007A065B9808C05B98809112019091130198
:1041A0000E947A065B9A80911201909113010E94FD
:1041B0007A06F694E7945A9401F76394F7E06F1245
:1041C000D3CF5B9880E090E00E947A0673949ECFF4
:1041D0008091E101882341F08091EE0281110FC0AE
:1041E00086E30E94920319C08091E001882351F078
:1041F0001092E0010E94471681E08093CE010E9458
:1042000006040BC08091DF01882329F01092DF01A2
:104210000E94351802C00E945B0D459889E50E94F6
:10422000E40683E70E94E4067501D12CF701819131
:104230007F010E94A507D394F7E0DF12F7CF0E9419
:104240003107C5010E94A02CC8010E94A02C6FC09C
:104250008237A9F466E171E0C70102960E94D60791
:1042600089E50E94E40682E70E94E4068AE30E9450
:10427000E4068091160140E260E090E02CC08437B3
:1042800079F5F7018281803339F488ED94E09093D9
:1042900015018093140106C064E171E0C701029624
:1042A0000E94D607809114019091150196958795EB
:1042B000909313018093120189E50E94E40684E73C
:1042C0000E94E4068AE30E94E40640E266E08091F0
:1042D0001401909115010E9435070E94310727C0F3
:1042E000883729F58091E001882341F01092E001A0
:1042F0000E94471681E08093CE0111C08091DF01BA
:10430000882329F01092DF010E9435180EC082E048
:1043100090E00E9496038091EE02882319F00E949B
:10432000060403C086E30E9492031092E1012296E4
:10433000EFE00C94F02B1092AA0310929D0283E000
:104340008093E7018FEF8093BF030895E8EEF1E0DB
:104350002081211105C0892BB1F080E090E0089503
:10436000B2E0E639FB07B8F7009751F04181DC0174
:104370003C91431305C0428111963C91431751F083
:10438000E20FF11DE5CF32E0E639F30719F010F046
:10439000E6E9F2E0CF010895E82FF0E0EE0FFF1F0D
:1043A000EE0FFF1FE054FC4F80818F3F91F0809310
:1043B000E20181818093E30182818093E401838122
:1043C0008093E50121E04CE064E082EE91E00C9402
:1043D0003A0A089587E992E0B9DF009799F02091B1
:1043E000E701FC013081231768F4E20FF11D8081A1
:1043F0008093990289E780939A02818180939B023E
:1044000081E0089580E00895EF92FF921F93CF938B
:10441000DF931F92CDB7DEB7182F8091EE0286FF93
:1044200018C084E599830E94E406E12E9981F92E53
:1044300015E0F70181917F010E94A5071150C9F78E
:104440008091EE0285FF03C08AEF0E94A5070E94BB
:1044500031070F90DF91CF911F91FF90EF9008955A
:1044600086E30E94920380919902833511F48BE9CF
:1044700001C08BE40E947F0621E04CE065E087E903
:1044800092E00E943A0A0E94060487E992E0BCCFBB
:10449000E7DF80919902893631F081E080939602BE
:1044A00089E28093BF030895CF9385E390E00E9453
:1044B00004088093900386E390E00E9404088093B0
:1044C000BE03CFEFC093AE03C093B003C093B2035B
:1044D000C093B403C093B603C093B803C093BA03A8
:1044E000C093BC0328DF1092E80181E080938F0322
:1044F000C093C0038FEF9FEF909393038093920339
:1045000010929503109294031092970310929603C1
:10451000C093C403909399038093980310929B03D4
:1045200010929A0310929D0310929C03C093C803AB
:1045300090939F0380939E031092A1031092A00377
:104540001092A3031092A203C093CC039093A503EF
:104550008093A4031092A7031092A6031092A903BC
:104560001092A803CF910895ACE0B0E0EAEBF2E23C
:104570000C94DA2B6C018C010F5F1F4F45E0BE01DC
:104580006F5F7F4FC8010E94A907843008F0F3C015
:1045900099819130A9F4833061F46A8185E390E0D8
:1045A0000E94FF076B8186E390E00E94FF077CDF9B
:1045B00012C2809190030E94A5078091BE039AC009
:1045C000923009F051C0813039F081E09A81913008
:1045D00009F080E0F82E02C0FF24F3948091E801F6
:1045E000811104C087EE93E00E94240708EE11E0D9
:1045F000F8018081882309F4BBC0F2E006391F0767
:1046000008F0B6C081E0083E180719F080E20E9469
:10461000E406F80181810E94A507F80182810E94C9
:10462000A507FF20E1F08AE30E94E40693E0F80189
:1046300080819817A0F4943038F090FF05C08CE288
:104640009C870E94E4069C85EE24E394E90EF80121
:10465000E90FF11D80810E94A5079E2DE8CFF8018A
:104660008081080F111DC4CF933049F480E090E0A1
:104670006DDE885E91409EEA981B892F3BC0903189
:1046800071F50EEA13E0FFEAEF2EF3E0FF2EC12CE6
:10469000D12CF80180818F3FA1F0DD2019F080E25C
:1046A0000E94E4068C2D0E94A5078AE30E94E4067E
:1046B000F80180810E94A507F70180810E94A5076B
:1046C000D3940E5F1F4FC394F2E0EF0EF11C88E00D
:1046D000C812DFCFD1104CC085EF93E047C09131B5
:1046E00061F48091AC039091AD036DE770E00E949E
:1046F000A42B862F0E94A5073BC09231C9F5E0ECA0
:10470000EE2EE3E0FE2E03EC13E0C12CD12CF701DA
:1047100080818F3FF1F0DD2019F080E20E94E406F5
:104720008C2D0E94A5078AE30E94E406F701808190
:104730000E94A507F801329780810E94A507F80121
:10474000319780810E94A507F80180810E94A5070A
:10475000D394F4E0EF0EF11CC3940C5F1F4F84E080
:10476000C812D5CFD11004C081EF93E00E94240776
:104770000E94310730C144E0BE01695F7F4FC8012C
:104780000E94A9074F81493608F481C07A8558856F
:104790006985E2ECF3E080E090E07C3009F058C0FD
:1047A0009C01220F331F220F331FDF0112977C91D0
:1047B00074131EC01196AC91A5131AC0A081A61344
:1047C00017C0F901E054FC4F2CE0238363E070E054
:1047D000AAD7DC01AA0FBB1FAE56BC4F1D921C927C
:1047E000FC01EE0FFF1FEC56FC4F11821082D5C06A
:1047F0007F3FE1F4F901E054FC4F40835183628331
:104800002CE0238363E070E08ED7DC01AA0FBB1F8E
:10481000AE56BC4F1D921C92FC01EE0FFF1FEC56D2
:10482000FC4F1182108210928F03B7C0019634960C
:104830008430910509F0B4CFCEC0DF011197AC915F
:10484000A51789F0019634968430910509F4C3C008
:104850009C01220F331F220F331FDF011297AC91EF
:10486000A413F0CFEACFA081A613ECCFF901E05456
:10487000FC4F738363E070E056D7FC01EE0FFF1F1F
:10488000EC56FC4F81E090E091838083A4C0E981E5
:1048900080919003E817D0F190E0F0E09C01295F4F
:1048A0003F4F2E173F0794F13A812091BE033213F8
:1048B0002DC03C813F3231F442E06CE0C6010E94E1
:1048C000A70A89C02D813C32C1F42093AB0381E05B
:1048D00090E09093AD038093AC0330E0220F331F40
:1048E000220F331F8091EB029091EC02820F931FF5
:1048F0009093EC028093EB026EC0E81BF90BEE0F75
:10490000F0E0E255FC4F3083218365C080E090E009
:104910001DDD7C01F80101900020E9F73197E01BD3
:10492000F10BF695E795BB24B394BE0EC7018B0D32
:10493000911D885E91408F3A91050CF048C0F701B7
:10494000B1928F0121E0822F880F81502B15D8F46E
:1049500041E0B801F601E80FF11DCF012C870E945C
:10496000A9072C85233058F020FD09C0D8011197E4
:104970008C91843621F4F8018081809391032F5F1C
:104980000F5F1F4FE0CFF6E9EF16F2E0FF0618F5D4
:10499000F701E20FF11D10821EC022E04CE064E03E
:1049A000CE0107960E943A0A8FE08A8722E04CE007
:1049B00064E0CE0107960E943A0A82E08A8722E0EC
:1049C0004CE064E0CE0107960E943A0A04C08BEEE8
:1049D00093E00E9424072C96E9E008C7FF920F930A
:1049E0001F93CF93DF93F82E80918F03811154C0D2
:1049F000AF2DB0E0CD0163E070E095D68C01FC01F5
:104A0000EE0FFF1FEE56FC4FAA0FBB1FAA0FBB1FD6
:104A1000A054BC4F12968C91877020E830E0A90119
:104A2000481B5109CA016AEF70E07DD695958795BC
:104A30009595879591838083E801CC0FDD1FCA5639
:104A4000DC4F288139812F5F3F4F39832883000F46
:104A5000111F0C561C4FF801408151814115510521
:104A600031F424303105C1F48F2D96DC13C0413070
:104A7000510541F48F2D90DC82E090E0F8019183A4
:104A800080830AC04230510539F48F2D85DCF8014E
:104A90001182108219821882CDB7DEB7E5E0AAC66E
:104AA000A6E0B0E0E5E5F5E288C68091BE038A8322
:104AB0001B829091AB03992341F0933019F487E75F
:104AC00091E00CC08DE790E009C0877090E08A51BA
:104AD0009F4F6DE770E027D6959587959093AD032E
:104AE0008093AC030FEA13E0F12C5CE2E52EF801B1
:104AF000319790819F3FC1F0809190038F0D898302
:104B00008091AB03882311F0EC8203C09C83F801F1
:104B100080818D8321E04CE065E0CE0101960E940A
:104B20003A0ACE01019670DCF3940E5F1F4FF8E055
:104B3000FF12DDCF8091AB03882341F0833019F45D
:104B40001092AB0303C082508093AB032696E6E03D
:104B500050C680919602882351F082DC89E28093CE
:104B6000BF03809196028150809396020895E3CB13
:104B7000FF920F931F93CF93DF93FC01F08001818D
:104B8000C281D38114818FE58093BF031092960276
:104B900080919003811105C08091BE03882309F4A0
:104BA000A9C0809197028F1104C08091980280174C
:104BB00029F0C1DBF0929702009398028091AA033A
:104BC0008F3F09F497C0C0939902D0939A02109333
:104BD0009B02CC23F1F081111CC080919003181727
:104BE00061F0143651F08DEA8C0F823010F0CD3721
:104BF00039F48FEF8093AA037DC0C43509F47AC0DD
:104C00008D2F807F803609F075C0D067D0939A02CF
:104C100057C0E0DB811105C08091AA03882309F405
:104C200069C080919D02811107C0E091AA03F0E064
:104C3000E750FC4FE49101C0E82FE33541F4C4355F
:104C400031F49091AA039E5F9093AA0304C0EC17DD
:104C500011F071DB4FC0882369F08091E7018E5F0E
:104C60008093E701B7DB81110EC08091AA038E5FAC
:104C70008093AA038091AA03E82FF0E0E650FC4F4E
:104C800014911F3F59F48091990280939D028436BC
:104C9000B9F48091910380939B0212C01093990202
:104CA00097E790939A029091900390939B028E5F66
:104CB0008093AA0310929D028E3021F01123D1F02F
:104CC000E7DB18C087E992E041DBDC01009781F067
:104CD0002C9130E086E992E0821B930BA817B9076C
:104CE00030F4ED01C20FD31F48814D93F7CF1C92D2
:104CF00022DBE4CFCDB7DEB7E5E07CC5FF920F93B2
:104D00001F93CF93DF938C01EC0109900020E9F70A
:104D10002197C81BD90BFC018181823751F487E3AD
:104D200090E00E9496030E94060481E08093D003E5
:104D300026C0833711F5FC2E28988FE70E94CC02FD
:104D40008C2F82500E94CC02E801229612E01F159F
:104D500028F489910E94CC021F5FF9CF289A0E9403
:104D6000F4038AE30E9443038F7721F081E00E94DD
:104D70007F06F7CF0E94060402C01092D003CDB781
:104D8000DEB7E5E037C5A0E4B0E0E8ECF6E213C535
:104D90008091D003882309F455C0813011F58091AA
:104DA000E7029091E802A091E902B091EA02209115
:104DB0009E02281709F446C085E30E94430381310F
:104DC00029F48AE30E9492030E9406048091E7027C
:104DD0009091E802A091E902B091EA0280939E02CC
:104DE00031C08FE30E944303D82E8FE38D1538F135
:104DF00028988FEF0E94CC028E010F5F1F4F780121
:104E0000C02E8E2D801B8D1538F480E00E94CC02C0
:104E1000F70181937F01F5CF289A81E080932401E7
:104E2000802F8C198D1530F4F80181918F010E942B
:104E3000E406F6CF0E9431078FEF8093240181E0D2
:104E40008093D003C05CDF4FE8E0D1C40F931F9381
:104E5000CF93DF93EC0110E0212F30E0C90163E034
:104E600070E061D488579F4FFC010491C90163E051
:104E700070E059D487579F4FFC012591349100234E
:104E800099F0209739F480E20E94E406802F0E9476
:104E9000E40608C08881801305C0CE01F901099598
:104EA00081E003C01F5FD8CF80E0DF91CF911F91D9
:104EB0000F910895CF93C091240180932401809194
:104EC00016048823A1F184E194E00E944109E09155
:104ED0009F028A3011F08D30F9F4EE2381F3F0E077
:104EE000E056FD4F108280EA92E0B0DF811111C0E0
:104EF0008FE194E00E94240780EA92E00E94190763
:104F000087E094E00E94240780E090E09FDF0E9409
:104F1000310710929F02D3CFE03488F691E09E0FC4
:104F200090939F02F0E0E056FD4F8083C8CFC0937E
:104F30002401CF910895E4E6F0E080818B7F8083A7
:104F4000299A84B1876084B9239880E58CBD8DB59A
:104F500081608DBD08952091640430916504211510
:104F6000310521F42091190130911A018091170126
:104F700090911801009741F48DB79EB740911B01A5
:104F800050911C01841B950B2817390718F4821BBC
:104F9000930B089580E090E0089582E40E94E40677
:104FA00040E265E080916404909165040E943507B9
:104FB0000E94310783E50E94E40640E265E08091AB
:104FC000190190911A010E9435070E94310785E46A
:104FD0000E94E40640E265E080911701909118017B
:104FE0000E9435070E94310786E40E94E406B3DF81
:104FF00040E265E00E9435070C943107A2E0B0E082
:10500000E3E0F8E2DEC3ECE5F4E08091F1008193A7
:1050100084E0E436F807C9F720915C0430915D0420
:10502000832F90E08A30910508F01AC1FC01E65CFC
:10503000FF4FB1C3203879F0223809F011C18091B7
:1050400060048093E9008091EB0085FB882780F95C
:105050001092E90006C08091570490915804911174
:1050600082609091E800977F9093E8008093F10030
:105070001092F1008091E800982F9E7F9093E800B5
:105080008F778093E8008091E80082FDAFC0809127
:105090005B048111F8CFD5C0822F8D7F09F0E0C06D
:1050A000222319F0223061F033C080915E048130F8
:1050B00009F0C7C0333009F080E08093580428C05D
:1050C00080915E04811124C020916004277009F44E
:1050D000B8C02093E9008091EB0080FF19C0809157
:1050E000EB00313091F480618093EB0081E090E03F
:1050F000022E01C0880F0A94EAF78093EA0010920A
:10510000EA008091EB00886001C080628093EB0030
:105110001092E9008091E800877F8093E8008091F9
:10512000E800982F9E7F66C021119AC020915E04EE
:105130008091E800877F8093E8009091E800892FB4
:105140008E7F8093E8009F779093E8008091E8003D
:1051500080FD05C080915B048111F8CF72C0822F61
:105160008F77982F90689093E300882309F469C0A3
:1051700083E080935B0465C02058223008F070C043
:10518000AE014F5F5F4F6091600480915E0490912B
:105190005F040E949202009709F453C02091E80036
:1051A000277F2093E800BC0189819A8126D11EC007
:1051B000203809F055C08091E800877F8093E8008F
:1051C000809159048093F1008091E800982F9E7F90
:1051D0009093E8008F778093E8008091E80082FD4B
:1051E00005C080915B048111F8CF2BC08091E8004D
:1051F000982F9B7F9093E8008F778093E80021C0E1
:1052000021112EC090915E049230D8F48091E80074
:10521000877F8093E800909359048091E800982F4D
:105220009E7F9093E8008F778093E80080915904E7
:10523000882311F084E001C083E080935B040E9426
:10524000DC048091E80083FF0EC08091EB00806257
:105250008093EB008091E800877F8093E80003C093
:105260000E94F404EECF2296E2E0C7C28093E900E8
:10527000EBEEF0E0808181608083EDEEF0E0108263
:105280006093EC0040838091EE00881F8827881F80
:1052900008951092F40080E08093E9001092F000ED
:1052A0001092E8009091ED009D7F9093ED00909119
:1052B000EB009E7F9093EB008F5F853069F7089538
:1052C00080915C0487FD05C08091E80080FF0FC0DD
:1052D00013C08091E80082FD05C080915B048111BC
:1052E000F8CF08958091E800982F9B7F09C08091A6
:1052F0005B048111E9CF08958091E800982F9E7F8B
:105300009093E8008F778093E800089585E6909168
:10531000EC0090FF05C09091E80090FF05C019C017
:105320009091E80092FD15C090915B04992399F04B
:105330009091EB0095FD11C09091E10092FFE7CFB5
:105340009091E1009B7F9093E100815001F783E011
:10535000089580E0089582E0089581E008954091E5
:105360006204509163049B014617570708F49A01A1
:1053700040E021153105A9F15091E80053FD39C0F5
:105380005091E80052FF06C08091E80082FF2CC0D7
:1053900080E0089550915B04552369F15091E80035
:1053A00050FFE7CFFC01CF012115310551F04091AD
:1053B000F200483030F481918093F100215031099E
:1053C000F2CF5091F20041E0583009F040E05091A6
:1053D000E800652F6E7F6093E8005F775093E800E8
:1053E000C8CF4111C9CFD0CF80915B048111CCCF00
:1053F00002C081E0089582E00895409162045091D6
:1054000063049B014617570708F49A0140E02115F1
:105410003105B1F15091E80053FD3AC05091E800D8
:1054200052FF06C08091E80082FF2DC080E0089501
:1054300050915B04552371F15091E80050FFE7CF84
:10544000FC01CF012115310559F04091F20048309F
:1054500038F484918093F100215031093196F1CFD5
:105460005091F20041E0583009F040E05091E800DE
:10547000652F6E7F6093E8005F775093E800C7CF99
:105480004111C8CFCFCF80915B048111CBCF02C037
:1054900081E0089582E008956115710571F1209110
:1054A000E80023FD2FC020915B04222379F1209195
:1054B000E80022FFF4CFFC018091F200882371F014
:1054C0009F012F5F3F4FC9014091F1004083615020
:1054D00071096115710519F0F901EECFCF01209125
:1054E000E800322F3B7F3093E8002F772093E800CD
:1054F000D3CF80915B04882349F08091E80080FF3E
:10550000F8CF02C081E0089580E0089582E0089518
:1055100053D055D010925B04109259041092580445
:105520001092570419BC89B5826089BD09B400FE88
:10553000FDCF8091D800982F9F779093D8008068F6
:105540008093D800809163008E7F80936300809168
:10555000D8008F7D8093D8008091E0008E7F80936B
:10556000E0008091E1008E7F8093E1008091E20075
:1055700081608093E2008091E100877F8093E10069
:105580008091E20088608093E2000895C1DF81E0AD
:1055900080935A0478940895BBDFE0EEF0E08081B8
:1055A00081608083E8EDF0E080818F77808319BC93
:1055B00010925A04089508951092E20008951092EE
:1055C000E10008951F920F920FB60F9211242F93AE
:1055D0003F934F935F936F937F938F939F93AF937B
:1055E000BF93EF93FF938091E10080FF1CC08091F7
:1055F000E20080FF18C08091E1008E7F8093E1007F
:105600008091E2008E7F8093E2008091E2008061D1
:105610008093E2008091D80080628093D80019BC0A
:1056200010925B04C8DF8091E10084FF29C0809163
:10563000E20084FF25C019BC89B5826089BD09B428
:1056400000FEFDCF8091D8008F7D8093D80080919F
:10565000E1008F7E8093E1008091E2008F7E809355
:10566000E2008091E20081608093E2008091590421
:10567000882311F084E001C081E080935B049BDF0C
:105680008091E10083FF23C08091E20083FF1FC06F
:105690008091E100877F8093E10082E080935B044A
:1056A000109259048091E1008E7F8093E1008091F7
:1056B000E2008E7F8093E2008091E200806180931F
:1056C000E200E7DD42E060E080E0D0DD74DFFF91E2
:1056D000EF91BF91AF919F918F917F916F915F916A
:1056E0004F913F912F910F900FBE0F901F901895E3
:1056F000CF9380915B04882359F0C091E900C77073
:105700001092E9008091E80083FD78DCC093E90005
:10571000CF910895002480FD060E660F11F0869546
:10572000D1F7802D08950024552704C0080E591F75
:10573000880F991F009729F076956795B8F3710542
:10574000B9F7802D952F0895AA1BBB1B51E107C007
:10575000AA1FBB1FA617B70710F0A61BB70B881F01
:10576000991F5A95A9F780959095BC01CD01089590
:1057700097FB072E16F4009406D077FD08D0E4DFDF
:1057800007FC05D03EF4909581959F4F0895709544
:1057900061957F4F0895EE0FFF1F0590F491E02D66
:1057A00009942F923F924F925F926F927F928F92C5
:1057B0009F92AF92BF92CF92DF92EF92FF920F93A0
:1057C0001F93CF93DF93CDB7DEB7CA1BDB0B0FB6AA
:1057D000F894DEBF0FBECDBF09942A883988488867
:1057E0005F846E847D848C849B84AA84B984C884FD
:1057F000DF80EE80FD800C811B81AA81B981CE0FF4
:10580000D11D0FB6F894DEBF0FBECDBFED010895D8
:10581000CF93DF938230910510F482E090E0E09125
:105820006604F091670420E030E0A0E0B0E030973B
:1058300039F14081518148175907B8F04817590785
:1058400071F482819381109729F013969C938E9323
:1058500012972CC0909367048093660427C021158B
:10586000310531F04217530718F0A901DB0101C0DF
:10587000EF019A01BD01DF010280F381E02DD7CF56
:1058800021153105F9F0281B390B2430310580F43E
:105890008A819B816115710521F0FB0193838283CD
:1058A00004C09093670480936604FE01329644C05E
:1058B000FE01E20FF31F8193919322503109398346
:1058C00028833AC02091640430916504232B41F46D
:1058D0002091190130911A013093650420936404DA
:1058E00020911701309118012115310541F42DB790
:1058F0003EB740911B0150911C01241B350BE091D8
:105900006404F0916504E217F307A0F42E1B3F0B2B
:105910002817390778F0AC014E5F5F4F2417350721
:1059200048F04E0F5F1F50936504409364048193C9
:10593000919302C0E0E0F0E0CF01DF91CF910895B4
:10594000CF93DF93009709F487C0FC01329713824D
:105950001282C0916604D0916704209781F420815F
:105960003181280F391F809164049091650482175A
:10597000930779F5F0936504E09364046DC0DE014C
:1059800020E030E0AE17BF0750F412964D915C91C5
:1059900013979D014115510509F1DA01F3CFB38346
:1059A000A28340815181840F951F8A179B0771F450
:1059B0008D919C911197840F951F029691838083FE
:1059C00012968D919C9113979383828321153105B3
:1059D00029F4F0936704E09366043EC0D90113965E
:1059E000FC93EE9312974D915D91A40FB51FEA17AA
:1059F000FB0779F480819181840F951F0296D9016C
:105A000011969C938E938281938113969C938E938F
:105A10001297E0E0F0E08A819B81009719F0FE0187
:105A2000EC01F9CFCE01029628813981820F931FB4
:105A300020916404309165042817390769F4309780
:105A400029F4109267041092660402C01382128235
:105A5000D0936504C0936404DF91CF910895FC0155
:105A60006150704001900110D8F7809590958E0F8D
:105A70009F1F0895F999FECF92BD81BDF89A99278D
:105A800080B50895262FF999FECF1FBA92BD81BD2A
:105A900020BD0FB6F894FA9AF99A0FBE01960895B0
:045AA000F894FFCFA8
:105AA40080250000000008023410B07106000401D3
:105AB400A4016C02D80406000068042000323100FE
:00000001FF
