:100000006CC100000C948E1284C1000082C10000FB
:1000100080C100007EC100007CC100007AC10000E8
:1000200078C1000076C1000074C1000072C10000F8
:1000300070C100000C942B126CC100006AC100005A
:100040004DC3000066C1000064C1000062C1000031
:100050000C94771C0C94431C5CC100005AC1000036
:1000600058C1000056C1000054C1000052C1000038
:1000700050C100004EC100004CC1000044294E2B6D
:100080005E295E2A852AA52AAF2A522A6D121C42B1
:10009000CD0743490246D10969DD3A413B0C47D4BB
:1000A000094D0C0A59E43C528D06548A17563708FC
:1000B000570107589B0D4F633965F50766491B6C5F
:1000C000BC0774EA0375171578DA02456D1F716273
:1000D00020000000202F2000203D2000072E050DCD
:1000E000D391FF080500000C0021656A2D3B132207
:1000F000F862073F181D1CC700B0876BF8B611EAFD
:100100002A001F41000D2E2D07D3913D043200001F
:10011000060021656A55E43023B900070018146C05
:10012000070090876BF85611E92A001F4100000371
:100130000F1E2627000000030F1E25363867000318
:100140000F256740605000030F275188838100030B
:100150000F2750C8C3C2002700000000000000673E
:1001600000000000000000500000000000000081BE
:1001700000000000000000C2000000000000504C21
:100180004C310D0A00504C4C300D0A005620312ED7
:1001900036352043554E4F38363800202F2000206A
:1001A0003D20004C4F56460D0A004552523A4343FB
:1001B000410D0A000B08105B11F81547191D1A1C98
:1001C0001BC71C001DB221B623EA0007022E030D37
:1001D00004E905CA070C0B060D210E650F6A10C84D
:1001E0001193120315341733181819161B4321568F
:1001F0002500261129592C812D353EC3424F5646E4
:100200000D0A004E2F4100454F420D0A004E2F416E
:10021000004E2F410000535300547D7DFFFF4B4B98
:100220007E7E0020697320756E6B6E6F776E29205D
:10023000557365206F6E65206F66003F2028004172
:100240003435303535004134353035350030300007
:10025000302E302E302E30003233323300313932EE
:100260002E3136382E302E31003235352E3235359E
:100270002E3235352E30003139322E3136382E308F
:100280002E3234340031000D2E2D07D3913D04322F
:100290000000060010B07155E43023B900070018C3
:1002A000146C070090876BF85611E92A001F410073
:1002B0000D2E2D07D3913D04320000060010ABA592
:1002C000550A3023B900070018146C070090876B9B
:1002D000F85611E92A001F41000011241FBECFEF7C
:1002E000D0E1DEBFCDBF12E0A0E0B1E0ECE0F7E886
:1002F00002C005900D92AE33B107D9F721E1AEE30C
:10030000B2E001C01D92AF30B207E1F703D00C9408
:10031000844376CE88E10FB6F89480936000109203
:1003200060000FBE549A5C9A209A289A0E94A232CA
:100330008BD60E94B8320E94E4360E943C3689EF88
:1003400087BD84E085BD82E084BD80936E001092FD
:1003500080008AE08093810090E080E80FB6F894F6
:1003600080936100909361000FBE84B7877F84BF44
:100370002FE088E190E00FB6F894A8958093600094
:100380000FBE2093600089E190E80E94A71C0E94A4
:100390002A170E947A0D83E09DE19093580680937E
:1003A00057060E94391489E0809341020E94FF1E83
:1003B000289878940E94C81C0E949E0F30D20E94F8
:1003C0008F1B0E94B9150E94C10A0E94431EF2CFE2
:1003D0008EBD0DB407FEFDCF8EB50895A1E0B0E04F
:1003E000E4EFF1E00C94DC41482F8A3008F048E05B
:1003F00088E0489F70011124F701E25DFE4F7F0104
:100400008BE290E0F70164918C010F5F1F4F4983ED
:100410004FD4FFEFEF1AFF0A49810333110511F0A2
:10042000C801F0CF4550453010F461E101C067E1EB
:1004300084E290E03DD42196E6E00C94F841CF931D
:10044000DF9382E090E0FC01ED5FFE4F6491EC01F0
:1004500021962ED4CB32D10511F0CE01F4CF87E313
:1004600090E0FC01EB55FF4F6491EC01219620D404
:10047000C036D10511F0CE01F4CF88E0AFDFDF91B7
:10048000CF9108952C98806CA3DF80E0A1DF2C9A97
:100490000895A1E0B0E0EFE4F2E00C94DF4141E028
:1004A000BE016F5F7F4F01967BD3892B21F189813C
:1004B000893969F410E0812FE5DF6ED3812F8770D1
:1004C000873009F4F5D21F5F1033A9F714C0DADFC3
:1004D000182F83E496D289815FD388ED90E0DBD238
:1004E000812F5AD384ED90E0D6D240E262E0812F92
:1004F00090E0E2D2DDD22196E3E00C94FB41A1E052
:10050000B0E0E5E8F2E00C94E0412C988064698367
:100510005FDF6981862F5CDF2C9A2196E2E00C94E4
:10052000FC412C9855DF2C9A0895EF92FF920F937F
:100530001F93CF93DF93EC01E898249A2C9A8EE1D5
:1005400090E0EAD12C988EE190E0E6D12C9A8DE2F1
:1005500090E0E2D180E3E5DF84E690E0DDD12C9805
:1005600080E436DF7E0189E2E80EF11C8E010F5F28
:100570001F4FCE01A2D32CDF0E151F0511F0E8018D
:10058000F5CF2C9A2C988EE723DF8BE290E0EC01DC
:10059000219693D31DDFC333D10511F0CE01F7CFE0
:1005A0002C9A83E3BEDF81E0BCD1CDB7DEB7E6E0B5
:1005B0000C94F841A1E0B0E0E0EEF2E00C94E041F0
:1005C00022E0298341E0BE016F5F7F4F0196E8D2B0
:1005D000898104DF82E090E0A8DF2196E2E00C94BC
:1005E000FC41CF93E89886E39CDFCFEF85E399DF6A
:1005F000C1508077803229F08AE090E08DD1C1111E
:10060000F5CFCF910895CF93CFEF84E38ADFC15028
:100610008077803129F08AE090E07ED1C111F5CF5A
:10062000E89ACF91089586E37CDF109259061092E4
:100630004702089582E090E078DF81E080935906D8
:100640001092470208950F931F93CF93DF93082FC3
:1006500010E0C62FD0E085E315DF801731F0CE0122
:100660005BD11150C1F781E001C080E0DF91CF91F3
:100670001F910F91089585E205DF8F3311F080E01F
:10068000089586E34EDF80913E02811104C085E823
:1006900091E001D202C08DE344DF83E342DF64E0F6
:1006A00081E0D1DF85E2EEDE8F3349F780913E02B3
:1006B000811103C08EE791E0EED181E0089585E3DA
:1006C000E1DE8D3051F485E2DDDE8F3331F4D3DFAE
:1006D00084E327DF80778031D9F708951F920F9246
:1006E0000FB60F9211248F939F93AF93BF93EF9305
:1006F000FF9380915B0690915C06A0915D06B0919E
:100700005E060196A11DB11D80935B0690935C0669
:10071000A0935D06B0935E0680915A068F5F80932A
:100720005A0680919E108F5F80939E108D37A8F09F
:1007300080910D0190910E01A0910F01B0911001D7
:100740000196A11DB11D80930D0190930E01A09300
:100750000F01B093100110929E10E0E8F8E0808144
:100760009181181619061CF401979183808336969F
:1007700088E0E839F80799F780919A0890919B08EA
:10078000009729F0019790939B0880939A08809195
:10079000AD088F3F19F081508093AD08FF91EF9124
:1007A000BF91AF919F918F910F900FBE0F901F90AF
:1007B00018952FB7F89440915B0650915C066091B4
:1007C0005D0670915E06FC014083518362837383F2
:1007D0002FBF0895A4E0B0E0E0EFF3E00C94E04117
:1007E000CE010196E6DF8C81D7D18B81D5D18A816C
:1007F000D3D18981D1D15CD12496E2E00C94FC4123
:10080000A4E0B0E0E6E0F4E00C94E041CE01019613
:10081000D0DF89819A812496E2E00C94FC411F93F9
:10082000CF93DF9380915B0690915C06A0915D066B
:10083000B0915E0620914002281709F469C08091AA
:100840005B0690915C06A0915D06B0915E06809378
:100850004002A895C0E8D8E010E028813981232B18
:1008600019F4812F0E94B9191F5F26961430A9F739
:1008700080919A0890919B08892B11F40E94151A77
:100880008091AD08811102C00E94731A8091710895
:10089000882339F0815080937108811102C00E9431
:1008A00057160E942E3780915A068D3788F1109284
:1008B0005A068091000181FF04C085B191E089272B
:1008C00085B980915F0690916006843823E0920795
:1008D00028F401969093600680935F060E9443334C
:1008E00080910D01811102C00E94473280913F0228
:1008F0008F5F80933F028C3359F410923F028091B6
:100900007F088F5F80937F088C3310F010927F08F0
:10091000DF91CF911F910895880F991F0197F1F7EB
:10092000089520ED37E0815020F0F9013197F1F77B
:10093000FACF0895CF93DF93DC0116968C9116972A
:10094000843509F05BC0CD010696CD91DC911197FD
:100950004DE0242F30E02C173D0740F0AE014F5002
:1009600051092417350709F049C008C0FC01E20FFE
:10097000F31F50815B3391F34F5FEBCFFE013E9746
:10098000E80FF91F20812435C9F517963C91179778
:100990002181321333C018963C911897228132136B
:1009A0002DC019963C9119972381321327C01A96AE
:1009B0003C911A972481321321C06197C80FD91F27
:1009C000858188838681898381858A8382858B83DB
:1009D00083858C8384858D8385858E838D919C9181
:1009E00011970A9711969C938E9314968D919C91D2
:1009F00015970A9715969C938E931497DF91CF9134
:100A00000895CF93C82F8091410282FF03C08C2F9D
:100A10000E9455208091410280FF13C02091C3089D
:100A20003091C4082E3F81E0380738F0211532405C
:100A300040F4CD3011F0CA3021F46C2F8FEB98E0E8
:100A400022D380917C088823C9F08091410283FFE2
:100A500015C0CA3099F0CD3011F46BE301C06C2F92
:100A600089E696E010D3CD3019F489E696E062DF8E
:100A700083E08093710882E080937708CF91089596
:100A8000CF93DF93EC018991882311F0BADFFBCF7C
:100A9000DF91CF910895CF93DF93EC01FE01849114
:100AA000882319F0AEDF2196F9CFDF91CF91089519
:100AB0008DE0A7DF8AE0A5CFA6E0B0E0E2E6F5E0B2
:100AC0000C94DE41062F1E8215E02AE030E0115022
:100AD000E1E0F0E0EC0FFD1FE10FF11DB9010E9414
:100AE0006841805D8083CB010150009769F011114E
:100AF000EECF0AC0112359F01150E1E0F0E0EC0F05
:100B0000FD1FE10FF11D4083015007FFF3CF81E08E
:100B100090E08C0F9D1F810F911DB2DF2696E4E0BF
:100B20000C94FA41A5E0B0E0E8E9F5E00C94E0416E
:100B30001D8224E0382F3F702150E22FF0E03A3040
:100B400010F4305D01C0395CA1E0B0E0AC0FBD1F16
:100B5000EA0FFB1F308334E0969587953A95E1F7CD
:100B60006150009739F7615067FD0BC0222349F0AF
:100B70002150E1E0F0E0EC0FFD1FE20FF11D40839A
:100B8000F2CF81E090E08C0F9D1F820F911D78DFE6
:100B90002596E2E00C94FC4140E362E090E0C2CF95
:100BA000DC01FB0130E090E08D918823A9F08136D3
:100BB00008F0805220ED280F2A3030F02FEB280F5C
:100BC000263030F429EC280F292B332379F006C086
:100BD000803251F38A3341F3CF0105C0CF01019632
:100BE0002083415041F4861B970B0895922F9295D4
:100BF000907F31E0D9CFFC01D5CFFB0150E020E060
:100C0000DC013D91CD013323D1F050ED530F5A302B
:100C100050F4522F550F252F220F220F250F20534E
:100C2000230F51E0EDCF303211F03E3279F44423FE
:100C300021F0208341503196E1CF50E0E1CFDF0138
:100C4000552321F0442311F031962C93CF01861BBC
:100C5000970B089520E030E05AE0FC014191CF016C
:100C6000442379F0E0EDE40FEA30B8F7F9015E9F34
:100C700090015F9F300D112420533109240F311D45
:100C8000ECCFFB01318320830895982F92959F70BC
:100C90009A3010F4905D01C0995CFB0190838F70D5
:100CA0008A3010F4805D01C0895CFB018183089566
:100CB0000E946643F999FECF08950C945943089514
:100CC0001F93CF93DF9314E0115068F0EC0121964D
:100CD000F4DF40E261E090E0EFDE112311F08EE2FC
:100CE00090DECE01F1CFDF91CF911F9108951F9338
:100CF000CF93DF93162F11501F3F59F0EC0121962F
:100D0000DCDF4ADF112311F08AE37BDE1150CE01D4
:100D1000F3CFDF91CF911F910895A2E0B0E0E3E916
:100D2000F6E00C94DD41FC012181293691F58281A8
:100D30008D3621F466E082E690E030C0843619F406
:100D400088E690E019C0813619F489E690E00EC07B
:100D50008E3619F48DE690E009C0873619F481E7E4
:100D600090E004C08E3421F485E790E0A9DF44C010
:100D70008F3629F48BE790E0A0DF0EDF3DC080378F
:100D800009F03AC089E790E00E94614340E260E0E8
:100D900032C02D3429F466E08AEF97E0A8DF2CC03A
:100DA000203521F460E18AED97E0F8CF1A821982AC
:100DB00042E0BE016F5F7F4F0196F2DE098110E0D5
:100DC000823021F4102F00278A81082BC80175DF9B
:100DD000F82E82E516DE40E364E0C801A3DE8FE969
:100DE00091E059DE8F2DD8DE8BE991E054DE40E2B0
:100DF00062E08F2D90E060DE5BDE2296E5E00C94F1
:100E0000F941A8E0B0E0E7E0F7E00C94DA419C019A
:100E1000FC0181818E010F5F1F4F893609F06BC085
:100E200082818D3649F446E0B801C9010396B8DEE7
:100E300082E690E026E04DC0843639F4B801C9015D
:100E4000039608DF88E690E03FC0813641F444E035
:100E5000B801C9010396D1DE89E690E027C08E363D
:100E600041F444E0B801C9010396C7DE8DE690E085
:100E70001DC0873641F444E0B801C9010396BDDEC8
:100E800081E790E013C0803741F4B801C9010396AF
:100E9000E1DE89E790E022E01CC08E3449F444E0B2
:100EA000B801C9010396A9DE85E790E024E011C0EE
:100EB0008F3661F441E0B801C901039671DE898182
:100EC00080939F108BE790E021E003C080E090E0EA
:100ED00020E078013E2D301B321708F049C0F701A1
:100EE00061917F016C01FFEFCF1ADF0A2887E0DEF6
:100EF000C6012885EFCF43E0B801C90101962887D4
:100F00003F834EDE28853F81823090F1C980D12C0D
:100F1000823021F0DC2CCC244A81C42A7C01FF24BD
:100F2000FE01EE0DFF1D6081C60128873F83C0DEF4
:100F3000EE0CFF1C8FEFE81AF80A28853F81E20EBD
:100F4000F31EEFEFCE1ADE0AF7018081882381F0CD
:100F500041E0B801C70124DE892B51F06981C60147
:100F6000A7DEF2E0EF0EF11C32E0C30ED11CECCF95
:100F70002896E8E00C94F64141E060E071E00196CB
:100F80000FDE8091000180FF02C0289A01C02898DE
:100F90006091000184E390E08BCEA1E0B0E0E3ED4E
:100FA000F7E00C94E0411982009731F041E0BE0176
:100FB0006F5F7F4F0196F4DD89818F3F09F4FFCF8A
:100FC000882321F061E083E390E072DE10926E00EE
:100FD000F89428E088E190E00FB6F894A895809303
:100FE00060000FBE20936000FFCFCF93DF93EC0132
:100FF00061E080E090E05CDE61E481E090E058DE5A
:101000001EDA60E080E690E053DE60E081E690E08A
:101010004FDE60E083E390E04BDE62E084E390E04B
:1010200047DE0E94821D60E080E690E041DE60E0E5
:1010300081E690E03DDE8981883719F080E090E01C
:10104000ACDFDF91CF91089580E090E036DE813013
:1010500029F481E090E031DE813419F080E090E005
:10106000C4DF84E390E029DE8093000108958CE8DA
:1010700091E011DD1DCDFC011582148211821082D8
:10108000138212820895FC014FB7F89484819581F0
:10109000811522E0920798F401969583848320813C
:1010A0003181C901019691838083DF01A20FB31FB3
:1010B00016966C938115924011F4118210824FBFE5
:1010C0000895FC014FB7F89484819581009719F435
:1010D0004FBF80E008950197958384838281938137
:1010E0009C012F5F3F4F33832283DF01A80FB91F7D
:1010F00016968C912115324011F4138212824FBF43
:101100000895FA013081882369F0E1E0F0E0022ED1
:1011100001C0EE0F0A94EAF7DB01A30FB11D9C9109
:101120009E2B9C93222319F08FEF820F0BC081E03E
:10113000830F8C3010F4FA018083FB01E80FF11D5E
:10114000108287E090E00895CF93C82F299A8823D2
:1011500019F08091440202C08091460220E1829FF2
:10116000C0011124D9DB2998CC2319F080914302C6
:1011700002C08091450220E1829FC0011124CCDB96
:10118000CF910895A0E0B0E0E8ECF8E00C94D041F5
:101190005C01162F622EC42FD0E040915F06509163
:1011A0006006CE010296089F802D1124992787FDA5
:1011B00090954817590720F483EA91E06CDC66C0EB
:1011C000481B590B5093600640935F06289A809104
:1011D0005906811101C02EDA04DA812E912CCC241B
:1011E000C394D12C712CF12C8F2D992787FD9095CC
:1011F0008815990524F480E0A7DFF394F5CF112337
:1012000011F081E0A1DFF12C4F2C552447FC5094C4
:101210004C165D062CF097E0392E4A0C5B1C15C06D
:1012200087E0282E312C4A0C5B1CC601022C01C021
:10123000880F0A94EAF7F2019081892385DFF1E0B3
:101240002F1A310890F7F394DFCF832D992787FD6C
:1012500090956816790664F4C601032C01C0880FC6
:101260000A94EAF7F201908189236EDF3A94EDCF78
:101270008E2D57DB015009F0B6CF8091620688238E
:1012800011F0C1D902C086E34CD92898CDB7DEB79A
:10129000E2E10C94EC41ADE0B0E0E1E5F9E00C9462
:1012A000D3417C01162F842F022F6701C60ED11C5B
:1012B000462FB70157D4D6018C931F5F1D86198224
:1012C0005E2C670127E066246394712C8C2D8519B0
:1012D000811788F547E0A42EB12C4701880E911C98
:1012E000F3010A2C01C0EE0F0A94EAF7D4018C91A5
:1012F000AE01435F5F4FBE016F5F7F4F8E2301DF03
:10130000282FB1E0AB1AB10858F7D6018D916D01C5
:10131000082E82958025082E8695869580258F5FDC
:1013200086958170AE01435F5F4FBE016F5F7F4F57
:10133000E8DE282FCBCF222311F0215004C08D8569
:101340008F5F8D8727E089E1809345028093460275
:1013500085E280934302809344023AE0E32E4D8578
:101360006CE0CE0101960EDF2D96EFE00C94EF417C
:10137000ADE0B0E0EEEBF9E00C94DF41162F242F46
:101380004BE0BE016F5F7F4F01962D8709DC2D85F5
:10139000412F682FCE0101967EDF2D96E3E00C945D
:1013A000FB4143E066E0E4CFEF920F93CF93DF93EE
:1013B000CDB7DEB760970FB6F894DEBF0FBECDBFD6
:1013C00040E1BE016F5F7F4F0196EADB69814A8190
:1013D0000B818C81809346028D81809345028E81A2
:1013E000809344028F8180934302E02EE2947FE059
:1013F000E7220F70242F2F7042954F70CE01089670
:10140000C1DE60960FB6F894DEBF0FBECDBFDF9190
:10141000CF910F91EF900895A9E1B0E0E2E1FAE0F9
:101420000C94D8414BE0BE016F5F7F4F0196B8DB53
:10143000182F893009F05AC099E190934502909392
:1014400046029093440282E38093430269E0CE0116
:10145000019692D3E1E0F0E0EC0FFD1FE10FF11DEA
:101460008083198E1D86CE0101967C016E019BE062
:10147000C90ED11C27E0AA24A394B12CEC14FD04BE
:1014800029F100E010E0F501002E01C0EE0F0A94F2
:10149000EAF7D7018C91AE01475E5F4FBE01635FF3
:1014A0007F4F8E232EDE282F0F5F1F4F0830110530
:1014B00051F7AE01475E5F4FBE01635F7F4F81E032
:1014C00020DE282FBFEFEB1AFB0AD8CF222311F022
:1014D000215004C0898D8F5F898F27E0EAE0EE2ECE
:1014E00003E0498D6CE0CE010D964CDE6996EAE092
:1014F0000C94F441CF93DF93E898249A2C9A8EE1D0
:1015000090E00ADA2C988EE190E006DA2C9A8DE2CF
:1015100090E002DA80E305D884E690E0FDD9CAECD9
:10152000D1E0FE0131966491FE0184910E947F0218
:101530002296F1E0CC3FDF07A1F7809148028111AC
:1015400006C083E30E94910284E0EBD90FC0C4EB94
:10155000D1E0FE0131966491FE0184910E947F02E8
:101560002296F1E0CA3CDF07A1F7EBCF84E30E94AB
:10157000910285E30E9442028D30C1F7DF91CF9145
:101580000895A2E3B0E0E7ECFAE00C94DE4180912C
:101590004702882309F49BC04A9B84C08FE30E94C2
:1015A00042028F778983823368F08AE30E94910236
:1015B00086E30E9491028DE30E94910284E30E94DF
:1015C000910285C02C988FEF0E94E80110E089817C
:1015D000181760F480E00E94E801E2E0F0E0EC0F10
:1015E000FD1FE10FF11D80831F5FF1CF80E00E949E
:1015F000E801082F80E00E94E8012C9A84E30E9411
:10160000910285E30E9442028D30C1F72A8196E75C
:1016100092279A8392E08981E92FF0E0981768F485
:1016200041E050E04C0F5D1FE40FF51F3081245264
:10163000232720839F5F232FEECF81E090E08C0F44
:101640009D1FE80FF91F90818B81982790838091CF
:10165000620684FF10C081E6D4D910E08981811729
:1016600008F1E1E0F0E0EC0FFD1FE10FF11D8081DA
:10167000C8D91F5FF3CF81E4C4D910E089818117F5
:1016800050F0E1E0F0E0EC0FFD1FE10FF11D808173
:1016900083DA1F5FF3CF8091620685FF02C0802F3F
:1016A0007BDA06DA85E30E944202813029F081313B
:1016B00061F48AE30E94910286E30E9491028DE325
:1016C0000E94910284E30E9491020E945F03E296CD
:1016D000E4E00C94FA418F929F92AF92BF92DF9216
:1016E000EF92FF920F931F93CF93DF93CDB7DEB7A7
:1016F000EA970FB6F894DEBF0FBECDBF41E38E016F
:101700000F5F1F4FB80101964BDA7C0199270197B3
:10171000298130E08217930709F09BC0809147022E
:10172000811103C0E7DE83E0FCD8DB808A8196E785
:1017300089278A8322E03981822F90E0F801E80F1F
:10174000F91F231750F4DE01A80FB91F8C918452A2
:101750009081892780832F5FEECF80818D258083C4
:10176000CE01C79626D885E30E94910285E30E94A8
:101770004202833171F1CE01C3961BD84BA95CA9FB
:101780006DA97EA98FA998ADA9ADBAAD84179507AB
:10179000A607B70760F44A015B01881A990AAA0AEA
:1017A000BB0A2DEB82169104A104B10470F4481712
:1017B00059076A077B0768F484549F4FAF4FBF4FA8
:1017C00084179507A607B70720F48AEA91E063D942
:1017D00024C085E30E944202833129F6D4FE06C06C
:1017E00088E79FD888E79DD888E701C08AE099D824
:1017F0002C988FE70E94E80158018A2D801B8E15D6
:1018000030F4F50181915F010E94E801F6CF2C9A36
:1018100085E30E9442028331D9F385E30E944202AC
:10182000863149F48BE30E94910286E30E94910283
:101830008DE30E94910280914702882349F084E35E
:101840000E94910285E30E9442028D30C1F701C0DF
:1018500068D1EA960FB6F894DEBF0FBECDBFDF9118
:10186000CF911F910F91FF90EF90DF90BF90AF90BD
:101870009F908F900895FC012181223731F022350D
:1018800059F481E08093480202C01092480232DE8F
:1018900081E0809347020895233711F401961BCF0E
:1018A0001092470208958F929F92AF92BF92DF925B
:1018B000EF92FF920F931F93CF93DF9310926402E6
:1018C00010927902FC012181220F220F220F338115
:1018D000231B57E0520F1092650210E070E038E0D1
:1018E000D32ED20EFF24F39447E007E0E12CC7E0AB
:1018F000D0E0A1E0B0E0FD1409F47FC0FC01EE0DE2
:10190000F11D248130E0002E02C0359527950A9400
:10191000E2F721703327E22F002311F0015002C0BB
:10192000E39407E06B3471F4433009F04AC01111BD
:1019300007C0E1115FC0109264027093790274C015
:1019400010E041C04F3F31F56634A9F4E72FF0E0D5
:10195000EB59FD4FE0810E2EE295E0250E2EE69527
:10196000E695E025EF5FE1FB882480F8912C821654
:10197000930641F004C0653429F4E11103C01093CB
:101980006402DBCF7F5FE72FF0E0EB59FD4F108261
:1019900047E031C0EE2361F1663471F4E72FF0E0E7
:1019A000EB59FD4FA0809D01042E01C0220F0A9427
:1019B000EAF7A22AA0821CC0653439F06B34C1F466
:1019C00004C04F3FD1F2EE2399F0E72FF0E0EB593E
:1019D000FD4F9E01241B310947FD33955D0102C077
:1019E000AA0CBB1C2A95E2F795013081322B30837B
:1019F000415001C011E0F3947ECF109364027093C4
:101A000079025F1588F4653431F44F3F21F47F5F2C
:101A10007093790204C0809164028111F8CF81E053
:101A200090917902911101C080E0DF91CF911F91D7
:101A30000F91FF90EF90DF90BF90AF909F908F90AD
:101A4000089510926F00E0917C028CE1E89FF00114
:101A50001124E358FD4F1082809161068D7F8093A1
:101A600061060895FC012181243108F0EACF338119
:101A7000662381F081E090E0032E01C0880F0A9474
:101A8000EAF7DF01A20FB11D14969C911497982BD1
:101A900014969C93332319F031503383089587E0D3
:101AA00083832F5F2183E20FF11D14820895DC01EF
:101AB0001196EC911197F0E050E02C91CF01841B2E
:101AC000950B0B964797A0F430E070E0C901861B98
:101AD000970B0B96479760F42E0F3F1F640F751FEF
:101AE000261B370B255F3F4F81E02731310508F07A
:101AF00080E00895219A29985298E9E6F0E08081E3
:101B00008160808382EC91E09093600680935F0611
:101B1000109299021092B5021092D10210925906B9
:101B2000089580916206882321F00E941A030C9484
:101B300003030C941303FC01218121110DC080913A
:101B400062062AD840E265E080915F0690916006C7
:101B50000E945C050C94580541E062E676E001962F
:101B60001FD8DFCF442339F04150FB01E40FF11DB2
:101B70009081890FF7CF089520E0662339F06150F6
:101B8000FC01E60FF11D30812327F7CF822F089546
:101B9000A091640240E035E020E0662399F06150B6
:101BA000FC01E60FF11D5081752F72957F7027277C
:101BB000370FAA2311F0442319F05F702527350F42
:101BC0004F5FEBCF320F40E1349FC0011124822BD5
:101BD0000895FC0132812381A081B181A30FB11D41
:101BE0008C9190E0022E02C0959587950A94E2F7B9
:101BF000817099274FEF420F4383211104C03F5F4B
:101C0000328327E023830895A2E0B0E0EAE0FEE01B
:101C10000C94D8417C01A12CB12CD12CCC24C394A0
:101C2000062F10E001501109A616F0F4C7014A83EF
:101C30006983CFDF4A816981882391F0442349F089
:101C400098012A193B098C2D01C0880F2A95EAF7C3
:101C500006C08C2D0A2C01C0880F0A94EAF7D82AF6
:101C60008FEFA81AB80AE0CF8D2D2296EAE00C94E7
:101C7000F441A4E0B0E0EFE3FEE00C94D7411B8216
:101C800027E02C839C012C5F3F4F3A8329831092DD
:101C90007902FC012181338187E090E0831B910967
:101CA000F8E02F9F800D911D1124853491050CF4CF
:101CB0004EC0B12CA0907902F5E0FA1558F10A2D2A
:101CC00010E040E068E0CE0101969EDF0B591D4F09
:101CD000F8018083982E092C92949024092C9694D4
:101CE00096949024CE01019674DF939491FACC24BB
:101CF000C0F8D12C90E0C816D90649F5CE0101965E
:101D000068DF811124C0F8018081B826A394A092D5
:101D10007902D0CF40E068E0CE01019675DF082F50
:101D2000182F012E12951025012E169516951025A7
:101D3000CE0101964EDF1F5F11FBEE24E0F8F12C7F
:101D4000282F30E0E216F30611F481E0B01280E0B3
:101D50002496EBE00C94F341A5E0B0E0E2EBFEE06A
:101D60000C94DB41FC011B8287E08C83CF0104963D
:101D70009A8389838081853009F051C02181338124
:101D800087E090E0831B910938E0239F800D911D2F
:101D900011248039910509F042C0109279020FE0B8
:101DA00010EF29E880917902E82EF12CDD24D394FC
:101DB000D80E41E068E08F3088F4CE0101962D8383
:101DC00023DF080F111DF701EB59FD4F2D81282747
:101DD000208324E2280FD0927902E4CFCE0101962D
:101DE00013DF080F111DD0927902F701EB59FD4F57
:101DF0008095808341E068E0CE01019605DF90E0A8
:101E0000982F8827081B190B41E068E0CE01019646
:101E1000FBDE282F30E081E00217130709F080E095
:101E20002596E7E00C94F741A4E0B0E0EAE1FFE09A
:101E30000C94DD411B8227E02C839C012C5F3F4FDB
:101E40003A832983FC0121812430A1F583818130EB
:101E500089F51092790280917902082F10E0FF2411
:101E6000F394F80E41E0843098F4811106C067E0E5
:101E7000CE010196C9DE806804C068E0CE010196FB
:101E8000C3DEF801EB59FD4F8083F0927902E3CF76
:101E900067E0CE010196B8DEF801EB59FD4F880FDF
:101EA0008083F09279029091650292959F7081E013
:101EB0009A3009F080E02496E5E00C94F941CF9344
:101EC000DF93FC0181818330E9F483818730D1F491
:101ED00080818830B9F41092790220E0822F90E05E
:101EE000DC01AB59BD4FEF01C80FD91F8C818C931A
:101EF00081E0820F833010F4282FF0CF8093790295
:101F000081E001C080E0DF91CF910895FC019081D4
:101F100080916106993611F0933751F4982F9370A0
:101F2000913011F4826006C080FF07C08B7F03C030
:101F300080FD03C08460809361060895A1E0B0E055
:101F4000E4EAFFE00C94DC41198280914902882385
:101F5000B9F18091620687FF17C084E30E944202B4
:101F60008058803458F0803C58F490E080559109B6
:101F700053E0959587955A95E1F703C080E001C03D
:101F80008FE08F590E9401058091620683FF16C081
:101F900082E70E9401058091620684FF04C080915F
:101FA0004A020E94010586E60E94010580916206B0
:101FB00084FF04C0809149020E94010510924902E9
:101FC00080917A02882309F442C2289A00917B0208
:101FD0002CE1029F8001112403581D4F898181113A
:101FE00006C0C8016CDF882311F083E789838981EB
:101FF000811106C0C801B0DE882311F083E5898312
:102000008981811139C066E4C8014DDC8823A1F1C2
:10201000F0907902FA94F09279024F2D65E672E021
:1020200086E0A0DDEF2DF0E0EB59FD4FE0808E1152
:1020300005C093E09F1510F486E41BC0282F30E004
:102040002F5F3F4F6E2D70E02617370739F423E0DE
:102050002F1520F496E4998380830EC04F2D65E6FA
:1020600072E08CE07FDD8E1106C083E08F1518F4DE
:1020700084E5898301C019828981811116C065E4D4
:10208000C80111DC882389F0809179028150809306
:102090007902893051F469E085E692E06DDD909136
:1020A0006E02891302C085E489838981811106C08B
:1020B000C801DFDD882311F088E4898389818111DB
:1020C00006C0C801B1DE882311F084E789838981C5
:1020D000811133C0F801438D60914A02C8014A96CC
:1020E000E6DC682FC801BEDC6BE4C801DCDB8823BA
:1020F000B1F0F0907902FA94F09279026F2D85E6B2
:1021000092E046DDEF2DF0E090916402E91BF109C9
:10211000EB59FD4F9081891302C08BE4898389813B
:1021200081110BC0F801838191E0980F9383873070
:1021300021F41382818181508183898181112DC095
:10214000F8018181843049F58381843031F54EE195
:102150006CE3C8014896ABDC8823F9F04EE160914E
:102160004A02C8014A96A3DC682FC8017BDC20E044
:10217000822F90E0FC01EB59FD4FD801A80FB91F49
:1021800014968C91808381E0820F853010F4282F83
:10219000EFCF8093790282E589833981332309F473
:1021A000CAC02091620620FFC6C0809161068E7F62
:1021B0008B7F8093610621FD64C050916302F09093
:1021C00079025F113DC040E04517C0F4842F90E0D4
:1021D00061E0640FFC01E15BFD4FDC01AB59BD4FD9
:1021E00070818C91781741F0409363028091610671
:1021F0008D7F8093610604C0462FE6CF4093630233
:1022000045131EC040915B0650915C0660915D06CF
:1022100070915E0680914B0290914C02A0914D020C
:10222000B0914E02481B590B6A0B7B0B463251058D
:102230006105710528F480916106816080936106D3
:1022400040E04F1560F4842F90E0FC01E15BFD4F0E
:10225000DC01AB59BD4F8C9180834F5FF2CF40932F
:10226000630280915B0690915C06A0915D06B0913F
:102270005E0680934B0290934C02A0934D02B09364
:102280004E023435E9F426FD1BC080917902853079
:10229000B8F0809167028B3471F0893661F09DEA65
:1022A000980F923040F08D57823028F0809168026C
:1022B0008077803729F48091610681608093610680
:1022C000B801CE01019622DE8091610682FF33C003
:1022D00089810E94010580916402882329F0809100
:1022E0007902815080937902F12CE0917902FE16F7
:1022F00048F4EF2DF0E0EB59FD4F80810E94CC05B2
:10230000F394F3CF80916402882351F0F0E0EB590D
:10231000FD4F80818F7040E361E090E00E94920564
:102320008091620685FF05C084E30E9442020E94FC
:10233000CC050E9458058091620682FF6FC080E73D
:102340000E940105F801808140E262E090E00E9475
:102350005C05F801808D40E265E0F0E18F9FC001EF
:1023600011240E945C05F801818D40E265E0F0E1F6
:102370008F9FC00111240E945C05F801828D40E20C
:1023800065E0F0E18F9FC00111240E945C05F80117
:10239000838D40E265E0F0E18F9FC00111240E942F
:1023A0005C05F801828140E263E090E00E945C05F8
:1023B000F801818140E263E090E00E945C05F80151
:1023C000238140E262E087E090E0821B91090E9455
:1023D0005C0580E20E9401058091620685FF08C0CD
:1023E00084E30E9442020E94CC0580E20E94010523
:1023F000F8018381873019F081818F5F8183F12C0F
:10240000F8018181F81640F4F801EF0DF11D848187
:102410000E94CC05F394F4CF0E945805F801108275
:1024200080917A02815080937A0280917B028F5F43
:10243000843019F080937B0202C010927B022898AE
:102440008981843521F485E692E00E94821A2196E2
:10245000E6E00C94F8411F920F920FB60F921124F0
:102460002F933F934F935F936F937F938F939F939C
:10247000AF93BF93EF93FF9310926F00809162062A
:1024800083FF03C08EE20E94010580917C029CE1E3
:10249000899FF0011124E358FD4F9081933018F08B
:1024A0009181923010F4CDDA18C090917A02933075
:1024B00049F48091620682FFF6CF8CEF91E00E9492
:1024C0004B05F1CF9F5F90937A028F5F843019F0B4
:1024D00080937C0202C010927C02FF91EF91BF9129
:1024E000AF919F918F917F916F915F914F913F91AC
:1024F0002F910F900FBE0F901F9018959BED980F86
:10250000973150F496EF960F9D3130F491E06817B3
:1025100008F090E0892F089580E008951F920F92AF
:102520000FB60F921124FF920F931F932F933F9397
:102530004F935F936F937F938F939F93AF93BF93CB
:10254000CF93DF93EF93FF938091BE08882321F010
:1025500082E08093BE0863C180917208823021F4CA
:1025600083E0809372085BC1009184001091850024
:1025700064E0169507956A95E1F7C0917C029CE1AD
:10258000C99FE0011124C358DD4F9881943031F484
:102590000E3208F444C10F3448F0B6C0953031F41F
:1025A000073108F43CC1083208F0AEC04A990DC0AA
:1025B0009450923038F461E0CE0154DA10928500E4
:1025C0001092840000934A022AC180914A02081B9B
:1025D00000934902109285001092840098819830EF
:1025E00071F42A8121110BC021E02A83888F8A8F00
:1025F000098F0B3B10F4000F01C006950B8F945010
:10260000923020F460E0CE012DDA09C182E086BB71
:10261000F880F11011C090914A02953608F0FFC081
:1026200080914902853608F0FAC0988F898F81E041
:102630008A8382E08883F3C01091490282E0F81215
:1026400073C000914A02412F602FCE0148962FDAC5
:102650006A818823F9F0488D50E09A01220F331FD8
:10266000240F351F200F311D35952795359527955A
:10267000288F298D30E0C901880F991F820F931F81
:10268000810F911D9595879595958795898F6F5F9A
:102690006A83C5C0643008F445C020EA3FE0309347
:1026A0008900209388008A818C3050F0888D298D94
:1026B00030E0280F311D2536310524F084E027C095
:1026C0008A3088F0888D298D30E0280F311D253221
:1026D00031054CF485E0888328EE33E0309389009F
:1026E0002093880015C080916806882379F0612FB7
:1026F000802F04DF882351F0688D898DFFDE8823C9
:1027000029F081E0809372089CD989C083E0888396
:102710000A8F1B8F198287E08B831C8282E0809353
:102720006F007DC0188277CF98E0F91225C081E94B
:10273000810F8D3178F460E0CE0194D9288D30E09E
:10274000C901880F991F820F931F20914A02820F9F
:10275000911D4EC0173E08F462C061E0CE0182D9DF
:102760002A8D30E0C901880F991F820F931F209195
:102770004A02820F911D15C000914A02412F602F1D
:10278000CE014A9694D9882301F161E0CE016AD93D
:102790002A8D30E0C901880F991F820F931F800F87
:1027A000911D95958795959587958A8F2B8D30E00E
:1027B000C901880F991F820F931F810F911D959555
:1027C0008795959587958B8F2AC0412F602FCE01D5
:1027D00048966DD9882301F160E0CE0143D9288D58
:1027E00030E0C901880F991F820F931F800F911D40
:1027F0009595879595958795888F298D30E0C901A6
:10280000880F991F820F931F810F911D95958795B2
:1028100095958795898F03C087E0F81275CFFF9152
:10282000EF91DF91CF91BF91AF919F918F917F9168
:102830006F915F914F913F912F911F910F91FF9059
:102840000F900FBE0F901F901895E0917C028CE1C5
:10285000E89FF0011124E358FD4F8081811107C0EA
:1028600081E09091AD089F3F19F480E0089581E0E8
:10287000089580E690E00E945D068093680681E6F8
:1028800090E00E945D0680937C08882321F081E21D
:102890008093620646C90895299A0C948C0429985D
:1028A0000C948C04A7E0B0E0E8E5F4E10C94DB4183
:1028B00090917406943559F42091750830917608FA
:1028C0002F5F3F4F30937608209375083EC09634B3
:1028D00059F420917308309174082F5F3F4F309363
:1028E00074082093730831C0953459F4209165061B
:1028F000309166062F5F3F4F309366062093650642
:1029000024C09B3459F420917808309179082F5FC6
:102910003F4F309379082093780817C0983459F4C2
:1029200020917A0830917B082F5F3F4F30937B08CE
:1029300020937A080AC020916306309164062F5FC5
:102940003F4F309364062093630695E7998388236D
:1029500099F0BE016E5F7F4F80917C080E94450612
:10296000BE016C5F7F4F809168060E94450685E539
:102970008E8386E0D82E02C0DD24D3940E941A03F1
:102980000E94F10216E080E891E086DF80E093E0AB
:1029900086DF1150C1F780E093E07EDF80E891E0B0
:1029A0007EDF80E891E078DF299887E390E00E945D
:1029B000950283E00E9491042C988FE70E94E80121
:1029C00080916D068D0D0E94E801CE0101967C017B
:1029D0008C01F80181918F010E94E801802F8E19EE
:1029E0008D15B8F380916D0690916E06892B39F0A4
:1029F00089E696E00E9461080E94E801F3CF2C9AD4
:102A00000E94F10289E696E00E943B0815E18AE304
:102A10000E9442028F7731F0115021F081E00E9434
:102A20009104F5CF7ED82796E7E00C94F741CF9339
:102A3000DF93EC018981811107C0809168060E94B3
:102A4000CC0580917C0813C08436A1F480915B068C
:102A500090915C06A0915D06B0915E0640E364E053
:102A60000E9492058EE20E940105809171080E94E9
:102A7000CC054DC0833709F04DC040E361E0809143
:102A80007508909176080E9492058EE20E940105D9
:102A900040E361E080917308909174080E94920570
:102AA0008EE20E94010540E361E08091650690910D
:102AB00066060E9492058EE20E94010540E361E0F5
:102AC00080917808909179080E9492058EE20E9488
:102AD000010540E361E080917A0890917B080E94B3
:102AE00092058EE20E94010540E361E08091630659
:102AF000909164060E9492058EE20E94010540E3D7
:102B000061E080916F08909170080E9492050E9488
:102B100058052CC08936D9F441E068E676E0CE014C
:102B200002960E94D0056091680680E690E00E94BF
:102B3000580641E06CE778E0CE0104960E94D0058B
:102B400060917C0881E690E00E9458060FC089E6FB
:102B500096E00E943B0821966991662329F089E658
:102B600096E00E944308F8CF80E09CDEDF91CF9191
:102B70000895A1E0B0E0EFEBF5E10C94DA4180912B
:102B80007208882309F48FC0C0905B06D0905C0661
:102B9000E0905D06F0905E06833009F06AC08FE336
:102BA0000E944202182F8630C8F085EC9AE00E94FD
:102BB0003B082C988FEF0E94E80180E00E94E8011A
:102BC000082F115049F080E00E94E801682F85EC41
:102BD0009AE00E944308F5CF2C9A01C000E00E94C1
:102BE000910D10927208053709F05DC041E0BE01F9
:102BF0006F5F7F4F8BEC9AE00E94D0050197A1F5A3
:102C000099818091680698132FC08091CF0A8535ED
:102C100081F48091C90A9091CA0A892B39F085EC18
:102C20009AE00E9461080E940105F3CF0E945805B6
:102C30003AC08091C90A9091CA0A04979093CA0A2F
:102C40008093C90A84E090E09093C80A8093C70AF1
:102C50006AE085EC9AE00E944308E0915706F09103
:102C6000580688E009951FC085EC9AE00E943B0851
:102C70001AC0823059F4809167069C2D981B9830B9
:102C800090F00E94910D109272080DC0813059F49D
:102C900087E390E00E9495020E94030382E0809304
:102CA0007208C09267062196E8E00C94F641CDDDEB
:102CB000882361F083E08093770880916F0890917A
:102CC000700801969093700880936F088091770840
:102CD000815080937708882321F083E080937108E6
:102CE000089581E0DFCD109298081092A80383E048
:102CF0008093F2028FEF8093AD080895E3EFF2E046
:102D00002081211105C0892BB1F080E090E0089569
:102D1000B3E0E13AFB07B8F7009751F04181DC01DD
:102D20003C91431305C0428111963C91431751F0E9
:102D3000E20FF11DE5CF33E0E13AF30719F010F0AF
:102D4000E1EAF3E0CF01089594E0899FF0011124B6
:102D5000E255F74F80818F3F91F08093ED028181A2
:102D60008093EE0282818093EF0283818093F00250
:102D700021E04CE064E08DEE92E00C944B09089564
:102D800082EA93E0BBDF009799F02091F202FC0108
:102D90003081231768F4E20FF11D80818093A40332
:102DA00089E78093A50381818093A60381E008953C
:102DB00080E00895EF92FF921F93CF93DF931F92CD
:102DC000CDB7DEB7182F8091620686FF18C084E564
:102DD00099830E940105E12E9981F92E15E0F701F2
:102DE00081917F010E94CC051150C9F78091620644
:102DF00085FF03C08AEF0E94CC050E9458050F9002
:102E0000DF91CF911F91FF90EF90089586E30E948C
:102E100091028091A403833511F48BE901C08BE406
:102E20000E94910421E04CE065E082EA93E00E9478
:102E30004B090E94030382EA93E0BCCFE7DF809155
:102E4000A403893631F081E08093A10389E2809365
:102E5000AD080895CF9385E390E00E945D068093CE
:102E60007E0886E390E00E945D068093AC08CFEF79
:102E7000C0939C08C0939E08C093A008C093A2086A
:102E8000C093A408C093A608C093A808C093AA083A
:102E90002ADF1092F30281E080937D08C093AE0890
:102EA0008FEF9FEF909381088093800810928308A2
:102EB000109282081092850810928408C093B2087C
:102EC000909387088093860810928908109288084A
:102ED00010928B0810928A08C093B60890938D08C0
:102EE00080938C0810928F0810928E08109291088F
:102EF00010929008C093BA08909393088093920818
:102F000010929508109294081092970810929608C3
:102F1000CF910895ACE0B0E0E0E9F7E10C94D9413D
:102F20006C018C010F5F1F4F45E0BE016F5F7F4F4B
:102F3000C8010E94D005843008F0F3C09981913017
:102F4000A9F4833061F46A8185E390E00E94580619
:102F50006B8186E390E00E9458067CDF06C2809178
:102F60007E080E94CC058091AC089AC0923009F08E
:102F700051C0813039F081E09A81913009F080E0D0
:102F8000F82E02C0FF24F3948091F302811104C053
:102F900083E092E00E944B0503EF12E0F80180818C
:102FA000882309F4BBC0F3E0013A1F0708F0B6C05C
:102FB00032E0033F130719F080E20E940105F80197
:102FC00081810E94CC05F80182810E94CC05FF20FE
:102FD000E1F08AE30E94010593E0F80180819817EF
:102FE000A0F4943038F090FF05C08CE29C870E94DA
:102FF00001059C85EE24E394E90EF801E90FF11D2B
:1030000080810E94CC059E2DE8CFF8018081080FB9
:10301000111DC4CF933049F480E090E06FDE835FF0
:1030200092409EEA981B892F3BC0903171F50CE9C4
:1030300018E08DE9E82E88E0F82EC12CD12CF8019B
:1030400080818F3FA1F0DD2019F080E20E94010510
:103050008C2D0E94CC058AE30E940105F801808135
:103060000E94CC05F70180810E94CC05D3940E5FAD
:103070001F4FC394F2E0EF0EF11C38E0C312DFCF14
:10308000D1104CC081E192E047C0913161F4809150
:103090009A0890919B086DE770E00E946841862F26
:1030A0000E94CC053BC09231C9F51EEAE12E18E022
:1030B000F12E01EB18E0C12CD12CF70180818F3F5C
:1030C000F1F0DD2019F080E20E9401058C2D0E94B4
:1030D000CC058AE30E940105F70180810E94CC059E
:1030E000F801329780810E94CC05F80131978081E8
:1030F0000E94CC05F80180810E94CC05D394F4E0B5
:10310000EF0EF11CC3940C5F1F4F34E0C312D5CFF8
:10311000D11004C08DE092E00E944B050E9458053A
:1031200024C144E0BE01695F7F4FC8010E94D00501
:103130004F81493608F477C07A85588569857C3097
:1031400009F04BC020E030E080E090E0F901E2556A
:10315000F74F708174131CC0A181A51319C0A281FF
:10316000A61316C02CE023839C01220F331F280FC7
:10317000391FF901EE0FFF1FE058F74F118210823F
:10318000F901EE0FFF1FEE57F74F11821082CFC0EB
:103190007F3FD9F44083518362832CE023839C01D9
:1031A000220F331F280F391FF901EE0FFF1FE058C0
:1031B000F74F11821082F901EE0FFF1FEE57F74F04
:1031C0001182108210927D08B2C001962C5F3F4F91
:1031D0002031310509F0BACFC8C080E090E020E08E
:1031E00030E0FC01E255F74FA081A41315C0A18186
:1031F000A51312C0A281A6130FC07383F901EE0FAD
:10320000FF1FE20FF31FEE0FFF1FEE57F74F81E096
:1032100090E091838083A9C02F5F3F4F0496803157
:103220009105F9F6A2C0E98180917E08E817C0F106
:1032300090E0F0E09C01295F3F4F2E173F0784F19B
:103240003A812091AC0832132BC03C813F3231F4DB
:1032500042E06CE0C6010E94B80987C02D813C3273
:10326000B1F42093990881E090E090939B088093BB
:103270009A0880915F0690916006E4E02E9F800D91
:10328000911D11249093600680935F066EC0E81B29
:10329000F90BEE0FF0E0E456F74F3083218365C061
:1032A00080E090E02BDD7C01F80101900020E9F73F
:1032B0003197E01BF10BF695E795BB24B394BE0E56
:1032C000C7018B0D911D835F92408F3A91050CF0E1
:1032D00048C0F701B1928F0121E0822F880F815001
:1032E0002B15D8F441E0B801F601E80FF11DCF012C
:1032F0002C870E94D0052C85233058F020FD09C072
:10330000D80111978C91843621F4F8018081809343
:103310007F082F5F0F5F1F4FE0CFF1EAEF16F3E05A
:10332000FF0618F5F701E20FF11D10821EC022E022
:103330004CE064E0CE0107960E944B098FE08A873B
:1033400022E04CE064E0CE0107960E944B0982E047
:103350008A8722E04CE064E0CE0107960E944B0988
:1033600004C087E092E00E944B052C96E9E00C94A3
:10337000F5410F931F93CF93DF9390917D089111A7
:103380004FC093E0899F80011124F801EE0FFF1FC9
:10339000E058F74F94E0899FD0011124A255B74F10
:1033A00012969C91977040E850E0491B51099AEFA2
:1033B000949F9001959F300D112435952795359553
:1033C000279531832083E801CC0FDD1FCC57D74FE1
:1033D000288139812F5F3F4F39832883000F111FC8
:1033E0000E57174FF801408151814115510529F4BD
:1033F00024303105A9F4A8DC11C04130510539F45D
:10340000A3DC82E090E0F8019183808309C0423020
:10341000510531F499DCF801118210821982188269
:10342000DF91CF911F910F910895A6E0B0E0EBE1FD
:10343000FAE10C94DC412091AC082A831B82809134
:103440009908882341F0833019F487E791E00FC091
:103450008DE790E00CC0277030E02A513F4F4DE7D8
:10346000429FC001439F900D11249595879590939D
:103470009B0880939A080DE918E0F12C7CE2E72E76
:10348000F801319790819F3FC1F080917E088F0DA8
:10349000898380919908882311F0EC8203C09C8372
:1034A000F80180818D8321E04CE065E0CE0101963A
:1034B0000E944B09CE0101967DDCF3940E5F1F4FF5
:1034C000F8E0FF12DDCF80919908882341F0833026
:1034D00019F41092990803C0825080939908269697
:1034E000E6E00C94F8418091A103882351F08EDC32
:1034F00089E28093AD088091A10381508093A1035C
:103500000895F1CBFF920F931F93CF93DF93FC01AC
:10351000F0800181C281D38114818FE58093AD0851
:103520001092A10380917E08811105C08091AC08A2
:10353000882309F4A9C08091A2038F1104C080914F
:10354000A303801729F0CFDBF092A2030093A3031B
:10355000809198088F3F09F497C0C093A403D0933B
:10356000A5031093A603CC23F1F081111CC0809118
:103570007E08181761F0143651F08DEA8C0F8230F6
:1035800010F0CD3739F48FEF809398087DC0C435A3
:1035900009F47AC08D2F807F803609F075C0D0671E
:1035A000D093A50357C0ECDB811105C0809198082A
:1035B000882309F469C08091A803811107C0E091B4
:1035C0009808F0E0EB5EFD4FE49101C0E82FE33591
:1035D00041F4C43531F4909198089E5F9093980817
:1035E00004C0EC1711F07FDB4FC0882369F0809195
:1035F000F2028E5F8093F202C3DB81110EC08091D4
:1036000098088E5F8093980880919808E82FF0E0E2
:10361000EA5EFD4F14911F3F59F48091A4038093FB
:10362000A8038436B9F480917F088093A60312C062
:103630001093A40397E79093A50390917E0890932D
:10364000A6038E5F809398081092A8038E3021F015
:103650001123D1F0F3DB18C082EA93E04FDBDC01E9
:10366000009781F02C9130E081EA93E0821B930B6C
:10367000A817B90730F4ED01C20FD31F48814D934D
:10368000F7CF1C9230DBE4CFCDB7DEB7E5E00C948A
:10369000F941FF920F931F93CF93DF938C01EC01BD
:1036A00009900020E9F72197C81BD90BFC01818103
:1036B000823751F487E390E00E9495020E94030351
:1036C00081E08093BE0826C0833711F5FC2E2C982C
:1036D0008FE70E94E8018C2F82500E94E801E801E8
:1036E000229612E01F1528F489910E94E8011F5FBD
:1036F000F9CF2C9A0E94F1028AE30E9442028F774E
:1037000021F081E00E949104F7CF0E94030302C0E0
:103710001092BE08CDB7DEB7E5E00C94F941A0E009
:10372000B2E0E5E9FBE10C94DA418091BE08882320
:1037300009F452C0813011F580915B0690915C06CE
:10374000A0915D06B0915E062091A903281709F4A7
:1037500043C085E30E944202813129F48AE30E943A
:1037600091020E94030380915B0690915C06A091F8
:103770005D06B0915E068093A9032EC08FE30E9480
:103780004202D82E2C988FEF0E94E8018E010F5F25
:103790001F4F7801C02E8E2D801B8D1538F480E0D0
:1037A0000E94E801F70181937F01F5CF2C9A81E017
:1037B00080934102802F8C198D1530F4F80181918E
:1037C0008F010E940105F6CF0E9458058FEF80936C
:1037D000410281E08093BE08DE5FE8E00C94F64190
:1037E00020910B1130910C112115310521F42091FC
:1037F00021013091220180911F01909120010097B9
:1038000041F48DB79EB74091230150912401841B50
:10381000950B2817390718F4821B930B089580E045
:1038200090E0089582E40E94010540E265E0809105
:103830000B1190910C110E945C050E94580583E5C4
:103840000E94010540E265E08091210190912201F2
:103850000E945C050E94580585E40E94010540E233
:1038600065E080911F01909120010E945C050E94FB
:10387000580586E40E940105B3DF40E265E00E943E
:103880005C050C9458051F920F920FB60F921124ED
:103890002F933F934F935F936F937F938F939F9358
:1038A000AF93BF93EF93FF938091C3089091C408A7
:1038B000892B39F08FEB98E00E9461088093C60055
:1038C00005C08091C1008F7D8093C100FF91EF9171
:1038D000BF91AF919F918F917F916F915F914F9128
:1038E0003F912F910F900FBE0F901F9018951F9230
:1038F0000F920FB60F9211242F933F934F935F9324
:103900006F937F938F939F93AF93BF93EF93FF93A7
:1039100085B191E0892785B96091C6008091C0008A
:10392000887121F485EC9AE00E944308FF91EF91A1
:10393000BF91AF919F918F917F916F915F914F91C7
:103940003F912F910F900FBE0F901F90189597FFEA
:1039500004C022E02093C0009F779093C50080931D
:10396000C40088E98093C10086E08093C200089576
:103970008091C10085FD0BC08091C3089091C4085F
:10398000892B29F08091C10080628093C100089545
:10399000E0915706F091580681E00995E9CF0F9321
:1039A0001F93CF93DF93EC0110E0212F30E0F9015A
:1039B000EE0FFF1FE20FF31FE457FF4F0491F901D1
:1039C000EE0FFF1FE20FF31FE357FF4F25913491D6
:1039D000002399F0209739F480E20E940105802F9E
:1039E0000E94010508C08881801305C0CE01F9013D
:1039F000099581E003C01F5FD8CF80E0DF91CF91B0
:103A00001F910F910895CF93C0914102809341027D
:103A10008091C90A9091CA0A892B91F185EC9AE0AC
:103A20000E946108E091AA038A3011F08D30F9F408
:103A3000EE2371F3F0E0E555FC4F10828BEA93E042
:103A4000AEDF811111C08BE392E00E944B058BEA3F
:103A500093E00E94400583E292E00E944B0580E0E3
:103A600090E09DDF0E9458051092AA03D1CF91E00B
:103A70009E0F9093AA03F0E0E555FC4F8083C8CFDA
:103A8000C0934102CF9108951F93CF93DF93EC0130
:103A900016E0115048F089910E94CC051123C9F31A
:103AA0008AE30E940105F5CFDF91CF911F91089520
:103AB000EF92FF920F931F93CF93DF93EB01FC01E3
:103AC000E080F180FE24EF24FE2402811381102780
:103AD000012710276F2DCE010E9458066E2DCE01B2
:103AE00001960E945806612FCE0102960E94580648
:103AF000602FCE0103960E945806CDB7DEB7E6E0F0
:103B00000C94F841A5E1B0E0E8E8FDE10C94DE4159
:103B100089E68A8384E68B8365E872E0CE010496A9
:103B20000E942E43CE0101960E94010781E68B83FD
:103B300067E772E0CE0104960E942E43CE01019603
:103B40000E9401078EE68B8369E672E0CE0104963F
:103B50000E942E43CE0101960E94010787E68B83C7
:103B60006DE572E0CE0104960E942E43CE010196CF
:103B70000E94010780E78B8368E572E0CE0104961E
:103B80000E942E43CE0101960E9401078EE48B8392
:103B900060E572E0CE0104960E942E43CE010196AC
:103BA0000E9401078FE68B836DE472E0CE010496DC
:103BB0000E942E43CE0101960E9401078AEF97E0F2
:103BC0000E945D06843A71F58BEF97E00E945D06D6
:103BD000803541F58CEF97E00E945D06853511F543
:103BE0008DE68B8366E472E0CE0104960E942E433C
:103BF0008DEF97E00E945D06BE01665F7F4F0E94D9
:103C000045068EEF97E00E945D06BE01645F7F4F20
:103C10000E9445068FEF97E00E945D06BE01625F3D
:103C20007F4F26C08DE68B836FE372E0CE01049652
:103C30000E942E43E0E0F0E000E010E081E280939B
:103C400057009491090F111D3196E032F105B9F733
:103C5000BE01665F7F4F80E00E944506BE01645F43
:103C60007F4F812F0E944506BE01625F7F4F802FEC
:103C70000E944506188ACE0101960E9401076596AA
:103C8000E4E00C94FA419CD58FEC9CE00E94E72D77
:103C9000892B39F18FEC9CE00E94D32D88EE9CE0BB
:103CA0009093E70C8093E60C82E0CED68091D90CFD
:103CB0009091DA0C892B19F00E94CC2CAFD48FE6AE
:103CC00090E19093E30C8093E20C85E0BDD6809167
:103CD000D90C9091DA0C892B19F00E94CC2C9ED42F
:103CE00098D58BEC9CE00E94E72D892B31F08BEC72
:103CF0009CE00E94D32D0C94022C0895A0E0B0E02B
:103D0000E4E8FEE10C94DA418C01EB01CB010E9466
:103D10005D067E018FEFE81AF80AC7010E945D0672
:103D2000D82ECE010E945D06C82EC7010E945D06F6
:103D30002C2D30E03D29F801318320837E01F2E013
:103D4000EF0EF11CC7010E945D062396CE010E9472
:103D50005D06D82EC7010E945D06F82ECE010E9496
:103D60005D062F2D30E03D29F80133832283CDB746
:103D7000DEB7E8E00C94F641A4E0B0E0E2ECFEE14E
:103D80000C94E04169E670E0CE010196B7DF8981CD
:103D90009A8190930A0F8093090F8B819C81909355
:103DA0000C0F80930B0F61E770E0CE010196A6DF48
:103DB00089819A819093020F8093010F8B819C815E
:103DC0009093040F8093030F6DE670E0CE0101968F
:103DD00095DF89819A819093060F8093050F8B81DF
:103DE0009C819093080F8093070F86E794E013D48B
:103DF00046D10E9466302496E2E00C94FC41549A2D
:103E00005C9888EC0E9491045C9A88EC0E94910472
:103E1000E8D382E690E00E945D068093AE0583E6DB
:103E200090E00E945D068093AF0584E690E00E94DA
:103E30005D068093B00585E690E00E945D06809364
:103E4000B10586E690E00E945D068093B20587E6A4
:103E500090E00E945D068093B3058EEA95E0C3D39F
:103E60008091AE058093B5058091AF058093B6052E
:103E70008091B0058093B7058091B1058093B80516
:103E80008091B2058093B9058091B3058093BA05FE
:103E900073D510924E0610924D066FE170E08FECD4
:103EA0009CE00E94C72D62EE74E08BEC9CE00E94C7
:103EB000C72D88E690E00E945D06882351F086EACF
:103EC00094E0A9D38EEA95E00E9432301092AD05BD
:103ED000089582E08093AD054FCF1F93CF93DF937A
:103EE000FC018181893611F48ADF2BC08336C1F44D
:103EF000C9E0DFE014E0115060F0899140E261E038
:103F000090E00E945C051123B1F38EE20E9401054E
:103F1000F2CF80E20E94010585EB95E0B5DD0AC095
:103F2000843659F48091AC058F5F83708093AC0523
:103F30000E94CC050E94580504C08E3611F40E94E0
:103F40004732DF91CF911F910895CF93DF93EC011A
:103F5000009711F411DF3CC069E670E04696A8DDD9
:103F60008E899F8990930A0F8093090F888D998D70
:103F700090930C0F80930B0F61E770E0CE01829657
:103F800097DD8AA19BA19093020F8093010F8CA1D2
:103F90009DA19093040F8093030F6DE670E0CE0116
:103FA0004A9686DD8A8D9B8D9093060F8093050F30
:103FB0008C8D9D8D9093080F8093070FEB81FC8172
:103FC0001582148286E794E026D359D00E94663089
:103FD000DF91CF910895E091E60CF091E70C2481F8
:103FE00035818091D30C9091D40C2817390709F4AE
:103FF00070C008958091AD05823029F00E94022F93
:104000008093AD050895E091E20CF091E30C3097B8
:1040100059F08091E10C81FF07C084819581811561
:104020009B4711F40C94773208951F93CF93DF933D
:10403000C091E60CD091E70C8091C3089091C40820
:10404000892BC9F089A18A3F49F482E0FDD40E94FE
:10405000CC2CE4D282E00E94910415DE19A181E00B
:10406000810F89A38FEB98E00E946108FE01E10FA8
:10407000F11D82A3E1CFDF91CF911F91089589E7D0
:1040800090E00E946143292F30E040E050E0582F3B
:10409000C901842B952B9093D40C8093D30CC3D45B
:1040A0001092D60C1092D50C0895E091090DEA3FBC
:1040B00040F491E09E0F9093090DF0E0EC5FF24F19
:1040C00086830895E091E60CF091E70C82E0848FFE
:1040D0000895EF92FF920F931F93CF93DF93009178
:1040E000E60C1091E70C8091E10C86FF1CC0F801F2
:1040F00011A281E0848F8091D50C9091D60C9C0107
:104100002F5F3F4F3093D60C2093D50C892B29F489
:104110008091410284608093410266EA7EE0C8019A
:104120004D960E94C72DF801848D8230B9F481E04C
:10413000848F80E18093E10C8091D50C9091D60C16
:1041400001979093D60C8093D50C892B09F0C0C0B1
:10415000809141028B7F80934102BAC08091E10C33
:10416000982F907311F487FF0AC0E091E60CF0914C
:10417000E70C11A2DF01A45EBE4F1C92148E81FFDA
:1041800031C0E090D90CF090DA0CE114F10451F157
:104190003091E40C2091E50C85E190E29093560675
:1041A00080935506C32FD22F699185EC9AE00E9427
:1041B00043088091C90A9091CA0A8115924031F44E
:1041C000E0915706F091580684E0099521E0E21A43
:1041D000F108E114F10441F7E0915706F091580617
:1041E00084E009958091E10C982F947082FD06C0BF
:1041F000282F237019F4887409F451C0C091E60C7B
:10420000D091E70C992311F17E0184EEE81A8EEF2C
:10421000F80AF7014081442309F441C050E0BE018F
:10422000635E7E4F8091E40C9091E50C0E944243C6
:10423000F701608170E08091E40C9091E50C0E94A0
:104240005D2BCE014D960E94DD2D29C049A144234E
:1042500031F17E01F2E2EF0EF11C50E0B7018091E6
:10426000E40C9091E50C0E94424369A170E08091BA
:10427000E40C9091E50C0E945D2BCE014D960E94BE
:10428000DD2D49A150E0B701CE01835E9E4F0E9413
:104290004243FE01E45EFE4F89A1808319A2F8012A
:1042A000848D8130A9F4035E1F4FC8010E94E72D61
:1042B000892B71F0C8010E94D32DC091410284E086
:1042C0008093410283E392E00E943708C093410249
:1042D000CDB7DEB7E6E00C94F84114988AE30E946B
:1042E000B23280E00E94B232149A0895CF93C82F60
:1042F00014988AE70E94B2328C2F0E94B232149A2C
:10430000CF910895CF93C82F40EA63E08FE1A1D009
:104310006C2F637040E88FE19CD0C093B405CF91BF
:104320000895CF93DF93C82FD82FDF712D2F30E062
:104330002B31310584F4282F2076822F90E025E060
:10434000959587952A95E1F74091B40550E084173B
:10435000950709F0D7DF14988D2F0E94B23280E0C4
:104360000E94B232C7FF03C080E00E94B232149AAA
:10437000DF91CF91089514988FEF0E94B2328DE1B2
:10438000D0DF80FFFCCF149A0895CF93DF93D62F10
:10439000C82FCF714C2F50E04B31510584F4282F9A
:1043A0002076822F90E035E0959587953A95E1F754
:1043B0004091B40550E08417950709F0A3DF1498E5
:1043C0008C2F80640E94B2328D2F0E94B232149AD8
:1043D000DF91CF910895A1E0B0E0E1EFF1E20C941C
:1043E000E041682F80E09983D0DF9981692F81E0D7
:1043F000CCDF2196E2E00C94FC41A1E0B0E0E3E0E8
:10440000F2E20C94E041682F82E09983BEDF99814B
:10441000692F83E0BADF2196E2E00C94FC41A1E031
:10442000B0E0E5E1F2E20C94DF41162F682F84ED55
:104430007983ABDF612F86EDA8DF7981672F87ED68
:10444000A4DF8AEE6EDF80FDFCCF2196E3E00C94C2
:10445000FB41A1E0B0E0EFE2F2E20C94DE41062F76
:10446000182F1F71E12FF0E07B9794F4282F20760E
:10447000822F90E055E0959587955A95E1F7E09168
:10448000B405F0E08E179F0719F049833BDF49819F
:104490001498812F842B0E94B232802F0E94B23256
:1044A000149A2196E4E00C94FA41CF93682F84ED9E
:1044B0006CDF40E861E082EDCCDF8AEE32DF80FD28
:1044C000FCCF40EA61E082EDC4DF88ED2ADFC82F2F
:1044D00089ED27DF2C2F30E0A901582BCA01CF919D
:1044E00008950C9A149A47DF60E088E04EDF60E0A0
:1044F00089E04BDF6FEF8AE048DF6FE08BE045DF5C
:1045000060E084E042DF60E185E03FDF60E08CE076
:104510003CDF60E08DE039DF60E08EE036DF60E0B8
:104520008FE033DF1092D80C1092D70C40EA60E88D
:1045300081EC8FDF40E86DE080EC8BDF40E862E3E8
:1045400082EC87DF60E070E080E069DF80E0ADDF73
:1045500090FF06C040E861E082EC7BDF62E105C0CD
:1045600040EA61E082EC75DF65E184EC0EDF62E138
:1045700086EC0BDF6CE087EC08DF60EE8AEC05DF91
:1045800065E08BEC02DF6091B50584EEFEDE6091A4
:10459000B60585EEFADE6091B70582EEF6DE609133
:1045A000B80583EEF2DE6091B90580EEEEDE609133
:1045B000BA0581EEEADE63E888E3E7DE62E17CE0EB
:1045C00084E12DDF6BED8BE1E0DE62E170E082E102
:1045D00026DF40E864E08FE13CDF40E860E88EE100
:1045E00038CF7FCF0895CF93DF93EC01688184EEBD
:1045F000CCDE698185EEC9DE6A8182EEC6DE6B8122
:1046000083EEC3DE6C8180EEC0DE6D8181EEBDDEA7
:10461000DF91CF910895BC0184E101CFCF93DF9367
:10462000C4E68FE17EDE83FF03C0C150D0F702C035
:10463000CC2391F160E084E0A8DE60E185E0A5DEB6
:104640006091D90C86E0A1DE8091D90C9091DA0CB2
:10465000905F692F87E099DE80E090E1CEDE80E018
:1046600045DECDE0DFE08091D90C9091DA0C9E011F
:104670002D503F402817390718F4899137DEF3CFC2
:1046800040E860E88FE1E5DE40EA60E88FE1E1DEE6
:1046900040E868E08FE1DDDEDF91CF910895A4E08E
:1046A000B0E0E5E5F3E20C94DC4189E33ADE8823EF
:1046B00009F480C08091D70C9091D80C8CDE0DDE6F
:1046C000182F0BDE212F30E0382B3093D80C20939D
:1046D000D70C8E010F5F1F4F7E0125E0E20EF11C0B
:1046E000FCDDF80181938F01EE15FF05C9F7898183
:1046F0009A818C01045011091A83098342978135EC
:10470000914028F48DE0E82E8FE0F82E02C0E9DE1B
:1047100051C0C7018D509F408017910728F4DDDDFF
:10472000F70181937F01F5CF1093DA0C0093D90C38
:104730008091190F90911A0F982789279827811532
:10474000F8E09F0761F086309840A1F40E942C2C7D
:104750008091D90C9091DA0C892B61F00AC081E02C
:1047600073D18091D90C9091DA0C892B19F00E94A9
:10477000CC2C54DF6091D70C7091D80CCB010197F1
:104780008115904128F06FEF8CE0FFDD6FE009C0EC
:1047900061508CE0FADD8091D70C9091D80C019794
:1047A000692F8DE0F2DD40E860E48EE152DE81E0C9
:1047B00090E002C080E090E02496E6E00C94F8419E
:1047C000CF9389E3AEDD882311F18CE1AADDC82FF8
:1047D00040EA60E88BE13DDEC3FF08C040EA68E0E4
:1047E0008CE137DE40EA6AE08DE133DE58DFC0FF5E
:1047F00004C040EA61E08CE12CDEC1FF04C040EA65
:1048000062E08CE126DE40E860E88BE122DECF91B9
:10481000089582EC86DD8273823309F062CE80ECEB
:1048200080DD8D30D9F70895FB0141505109460FC5
:10483000571FE417F50778F4208130E0322F222744
:104840006181260F311D820F931F8217930708F491
:1048500001963296EECFE417F50751F4208130E04F
:10486000322F2227820F931F8217930708F4019695
:104870000895FC015381560F5093E00C872F992720
:104880004281480F4093DF0CA181A093DE0CE081B0
:10489000E093DD0C242F30E02817390748F481E03D
:1048A0008A0F8093DE0C811103C0EF5FE093DD0C73
:1048B000852F90E077278617970788F44F5F4093FE
:1048C000DF0C41110CC08091DE0C8F5F8093DE0CF9
:1048D000811105C08091DD0C8F5F8093DD0C089500
:1048E0002091E60C3091E70CBC01C9010896C1DFAC
:1048F000E091E60CF091E70C8091DD0C80878091CF
:10490000DE0C81878091DF0C82878091E00C8387A9
:10491000089544E150E06BE17FE080E090E084DFC7
:10492000009721F098278927982708958FEF9FEF08
:104930000895CF93DF93C0911D0FD0E0DC2FCC27DB
:1049400080911E0FC80FD11D48E050E067E27FE064
:10495000CE010E9769DFAE01445151096FE27FE04D
:1049600063DF009721F098278927982702C08FEFEF
:104970009FEFDF91CF9108951092000F1092FF0EDC
:104980001092010D81E08093BE0510927410109278
:1049900073100895E0917310F09174102091BF0589
:1049A0003091C0052F5F3F4F21154DE7340710F0C0
:1049B00020E030E1522F432FE417F50799F33093AD
:1049C000C0052093BF05EF2B41F51092BE05509313
:1049D0007410409373107093761060937510009765
:1049E00049F410926F101092701010927110109282
:1049F00072100DC0FC012081318130937010209322
:104A00006F1082819381909372108093711080E473
:104A1000809377108FE690E1089581E08093BE0542
:104A200080E090E008952091FF0E3091000F232B3D
:104A300039F41092BE059093000F8093FF0E0895F5
:104A400081E08093BE0508950F931F93CF93DF936A
:104A5000C091E60CD091E70C843009F49CC123E4AA
:104A60003FE03093E50C2093E40C3093DC0C209372
:104A7000DB0C833059F4898D8F70833009F00EC6BA
:104A800088899989892B09F009C677C0823009F095
:104A900079C08091C4058F5F8093C405811113C0D4
:104AA0008091C3058F5F8093C30581110CC08091F5
:104AB000C2058F5F8093C205811105C08091C10539
:104AC0008F5F8093C1051092DA0C1092D90C10926E
:104AD0006E1010926D10298D822F8D7F853041F4DC
:104AE0008A8D8F5F8A8F883709F0D8C5198ED6C511
:104AF000222309F4D3C588899989892BD1F18A8D1C
:104B00009FEF980F9A8F8111C9C58B8D883031F036
:104B10009FEF920F923040F4853031F4198E80E887
:104B20008093E10C58DA63C4853038F493E0082EA2
:104B300001C0990F0A94EAF701C090E39A8F8F5F42
:104B40008B8F822F8F70843009F4E9C358F4813041
:104B500009F4D9C2833009F0A1C584E08093E10C47
:104B60003ADA79C4863009F4DAC3883009F096C598
:104B7000D6C32F70233009F091C588E08093E10CF3
:104B80002ADA2CC4853019F5E091E20CF091E30C9F
:104B900084819581892B09F481C51092E70C1092CC
:104BA000E60C87E39FE09093E50C8093E40C9093F0
:104BB000DC0C8093DB0C10926E1010926D10109232
:104BC000DA0C1092D90C88E08093E10CE3C080915C
:104BD0001B0F853409F062C5C0911D0FD0E0DC2F9A
:104BE000CC2780911E0FC80FD11D8091D90C9091B8
:104BF000DA0C8C179D0708F451C5D093DA0CC093DA
:104C0000D90C8091210F8F7309F048C58091220F34
:104C1000811144C50091090F10910A0F011511056A
:104C200031F480910B0F90910C0F892BA1F08091A2
:104C30002B0F90912C0F8017910709F02FC5209111
:104C40002D0F30912E0F80910B0F90910C0F281784
:104C5000390709F023C55DDE019609F01FC5809173
:104C6000240F863009F4EEC08131B1F1813009F0B2
:104C700015C580912F0F883009F010C510922F0FA5
:104C80008091310F9091320F873FCFEF9C0710F04A
:104C9000099601C008969093320F8093310F80914E
:104CA000270F9091280F90932C0F80932B0F8091BA
:104CB000290F90912A0F90932E0F80932D0F109310
:104CC000280F0093270F80910B0F90910C0F90935A
:104CD0002A0F8093290FE6C46C97D093DA0CC09307
:104CE000D90C2091310F3091320F40912F0F5091FC
:104CF000300F6091270F7091280FA091290FB0916C
:104D00002A0FEFE6F0E180E1EE39F80708F0C2C4BF
:104D100084819581009719F12817390701F586815B
:104D20009781009719F048175907C9F4808191813C
:104D3000009729F4C281D381CD2B49F412C08F3F53
:104D40001FEF910721F4C281D381219651F068179A
:104D5000790729F482819381A817B90711F0BF96CA
:104D6000D2CFF093E30CE093E20C1092E70C109298
:104D7000E60C82E08093E10C87E39FE09093E50CE2
:104D80008093E40C9093DC0C8093DB0C10926E10FB
:104D900010926D102FD980916D1090916E10009728
:104DA00009F47CC49C01245E3F4F3093DA0C2093BD
:104DB000D90C30931D0F20931E0FE091E20CF0915F
:104DC000E30C20852093230F21E12093240F0896E4
:104DD0009827892798279093340F8093330F109248
:104DE000360F1092350F848195819093300F809308
:104DF0002F0F868197819093320F8093310F80918E
:104E0000090F90910A0F9093280F8093270F80919C
:104E10000B0F90910C0F90932A0F8093290F808194
:104E2000918190932C0F80932B0F8281938190938B
:104E30002E0F80932D0F83E49FE09093E50C8093D9
:104E4000E40C06C476DD019609F028C45091010DEA
:104E500040913C0F552369F12091310F3091320F71
:104E60008091EC0C9091ED0C2817390711F52091E9
:104E70002F0F3091300F8091EE0C9091EF0C28178E
:104E80003907B9F42091270F3091280F8091E80C51
:104E90009091E90C2817390761F42091290F30917E
:104EA0002A0F8091EA0C9091EB0C2817390709F42E
:104EB00041C1842F8F73823019F042FDEFC317C0B8
:104EC0008091310F9091320F9093BC058093BB0578
:104ED0002091FF0E3091000F8217930709F0E9C36C
:104EE000511176C01092BE05C8EEDCE07BC084E1B3
:104EF00080933C0F88E290E09093DA0C8093D90C79
:104F000080E580933B0F8091360F90913A0F9093FC
:104F1000360F3091350F9091390F9093350F3093B4
:104F2000390F2091340F9091380F9093340F2093C4
:104F3000380F9091330F9093BE054091370F4093F7
:104F4000330F9093370F8F5F80933A0F81110FC00B
:104F500081E0830F8093390F811109C081E0820FB6
:104F60008093380F811103C09F5F9093370F80911A
:104F70002F0F9091300F9093BC058093BB0520912B
:104F8000310F3091320F3093300F20932F0F9093C9
:104F9000320F8093310F8091270F9091280F9093BB
:104FA0002C0F80932B0F8091290F90912A0F9093B3
:104FB0002E0F80932D0F1093280F0093270F8091B1
:104FC0000B0F90910C0F90932A0F8093290F26C3FB
:104FD000573019F4C8EEDCE002C0C0E0D0E021E0B8
:104FE0002093BE05209709F459C3D093E70CC093D2
:104FF000E60C23E02A8F288F1E8A24E02F8B1B8E3D
:105000009D838C8380912F0F9091300F9F838E838F
:105010008091270F9091280F998388838091290F81
:1050200090912A0F9B838A8381E0898F8091C105AB
:105030008C878091C2058D878091C3058E87809172
:10504000C4058F8781E090E0998B888B8091360F23
:105050008B878091350F8A878091340F8987809163
:10506000330F888781E090E03BDC80913B0F282F55
:10507000207F30E0213531050CF445C082958F70DA
:1050800090E00597880F991F880F991F3091BD05F3
:1050900020E0E22FF0E0E817F9078CF5E35FF04F2E
:1050A00036A9311105C02093BE051092BD052BC055
:1050B000313011F42F5FEDCF3230E1F447A94430A5
:1050C000C9F42093BE053093BD0580AD90E0982FC4
:1050D000882721AD822B9093BC058093BB05893234
:1050E00011E0910710F088E291E09B8B8A8B9D8BF9
:1050F0008C8B09C047A9442311F0240FCACF2093F9
:10510000BE053093BD0582E180933C0F82E0809321
:10511000430F84E08093440F81E08093450F88E241
:105120008093460F8CE290E09093DA0C8093D90C38
:1051300080E621C288EE9CE09093E70C8093E60C19
:105140001092E10C42FF04C01092010D80E2B1C147
:1051500080913B0F82958F70880F880F8093BE05DA
:10516000C81BD1096497D093DA0CC093D90C5F7037
:10517000523021F4842F8F738231E9F0CD2B19F452
:10518000842F8370C1F09091330F8091F00C9813AD
:10519000E6C19091340F8091F10C9813E0C1909189
:1051A000350F8091F20C9813DAC19091360F8091EF
:1051B000F30C9813D4C144FF58C06091F80C70915F
:1051C000F90C6115710509F450C084EF9CE051DBC6
:1051D0003091370F8091DD0C381347C02091380F84
:1051E0008091DE0C281341C09091390F8091DF0C23
:1051F00098133BC080913A0F4091E00C841335C066
:105200003093F40C2093F50C9093F60C8093F70CEC
:105210008091030D81111EC09091FE0C8091000DB4
:105220002091020D821B292F269526952695821BFB
:10523000980F9093FE0C2091FF0C322F36953695E7
:10524000831B820F8093FF0C969596959695980FE9
:105250009093000D81E08093E10C8091000D80938C
:10526000020D1092F90C1092F80C4091010D842F50
:105270008F7090E0FC013197E830F10508F00EC224
:10528000E25CFF4F0C94B1418091E10C80FF06C2BB
:1052900083E08093010D80E48093E10C1092F90C7F
:1052A0001092F80C8091D90C9091DA0C009709F4C7
:1052B0008DC022E42093E10C13DB88C080913C0F69
:1052C00080FF31C044FD2FC08091F80C9091F90C03
:1052D000892B09F0E3C18091D90C9091DA0C0196E9
:1052E000FFDA2091E10C822F80618093E10C8091A4
:1052F000D90C9091DA0C892B19F022612093E10CE2
:105300000E94EB1F81E090E09093F90C8093F80CE1
:1053100088E08093010D1092030DC8EEDCE081E17E
:1053200080933C0F21C185FF1CC08091410F90E00C
:10533000982F88272091420F822B2091E40C3091E6
:10534000E50C280F391F3093E50C2093E40C2091D5
:10535000D90C3091DA0C281B390B3093DA0C2093DE
:10536000D90C8091D90C9091DA0C009741F044FD52
:1053700006C02091E10C22602093E10CB1DA80910B
:105380003D0F90E0982F882720913E0F820F911DAE
:105390009093BC058093BB052091FC0C3091FD0CD3
:1053A0002817390710F0892B21F43093BC0520937E
:1053B000BB058091BB059091BC059093FB0C80933D
:1053C000FA0C8091E10C837009F468C110926E10A0
:1053D00010926D100E94EB1FC8EEDCE08091E10C92
:1053E00085FF07C010926E1010926D10198E84E127
:1053F00097CF84FF0CC010926E1010926D1081E058
:1054000090E0998B888B84E0898F1B8E88CF2091C8
:105410006D1030916E1021153105E1F080FF02C052
:10542000198A188A88899989009781F48A899B89C1
:105430008217930720F490936E1080936D108091E3
:105440006D1090916E10998B888B04C090936E10A4
:1054500080936D101B8E8091DB0C9091DC0C9093EF
:10546000E50C8093E40C80916D1090916E10892B67
:1054700059F088899989009739F088969093DA0CC9
:105480008093D90C88E10BC08091E10C81FF06C1AB
:1054900088E290E09093DA0C8093D90C80E18093BD
:1054A0003C0F68C08091E10C80FFF8C01092010DA4
:1054B00080E18093E10C0E94EB1FF0C08091D90C39
:1054C0009091DA0C009709F00BDA90913C0F8091E3
:1054D000E10C90FF10C080FF0AC087E08093010DAF
:1054E0001092020D1092F90C1092F80C1EC086E07A
:1054F0008093010D1AC080FF21C085E08093010DCB
:105500001092F90C1092F80CC9C08091D90C9091AE
:10551000DA0C009709F0E4D980913C0F80FF0EC0AF
:1055200087E08093010D1092020D81E090E0D8D9C0
:1055300080E18093E10C0E94EB1F11C08091D90C97
:105540009091DA0C892B59F4A9C08091E10C80FF6D
:10555000A5C087E08093010D1092020D9FC080E1ED
:1055600080933C0FC8EEDCE088E290E09093DA0C88
:105570008093D90C80E580933B0F88858093370F0B
:1055800089858093380F8A858093390F8B85809326
:105590003A0F8C858093330F8D858093340F8E85E1
:1055A0008093350F8F858093360F86E08093240F8C
:1055B0008C819D819093300F80932F0F8E819F81DE
:1055C0009093320F8093310F8091090F90910A0FC1
:1055D0009093280F8093270F80910B0F90910C0FC1
:1055E00090932A0F8093290F8881998190932C0F93
:1055F00080932B0F8A819B8190932E0F80932D0F88
:10560000898D84FF05C010923E0F10923D0F06C099
:1056100081E080933D0F88E280933E0F80E4809389
:10562000230F8091D90C9091DA0C90931D0F8093E9
:105630001E0F1092420F1092410F1092400F1092C5
:105640003F0F77D9809590959093400F80933F0FAF
:1056500085E480931B0F10921C0F1092220F109262
:10566000210F8091C5059091C60501969093C605BE
:105670008093C50590931F0F8093200F1092260FE3
:105680001092250F46D9809590959093260F809380
:10569000250F08C0F093E30CE093E20C1092DA0CB3
:1056A0001092D90C1092E10CDF91CF911F910F91C4
:1056B000089581E08093BE0500CC9C01AB011616D5
:1056C000170674F470936E1060936D108091DB0C6C
:1056D0009091DC0C2817390719F0B9010C9442435A
:1056E0000895CF93DF931092CA054091290F5091EE
:1056F0002A0F60912B0F70912C0FE0E0C0E0D0E0FA
:10570000FBE0E830F0F4FE9FE0011124C153DA4FD2
:10571000288139812115310591F08A819B8100977B
:1057200071F04217530759F46817790741F4E09371
:10573000CA05DE01149686E0E3E2FFE059C0EF5FA0
:10574000E0CF1092CA0520E03BE0283090F4329F71
:10575000E0011124C153DA4F88819981892B39F4F2
:105760008A819B81892B19F42093CA052FC02F5F52
:10577000ECCF2093CA05283049F5A091C8058A2F9F
:1057800090E070E0C0E060E0BBE0683098F4B69F65
:10579000F0011124E153FA4FE285AC014E1B51098F
:1057A000272F30E0241735071CF4C62F7A2F7E1BD5
:1057B0006F5FEBCF7093C705C093C905C093CA054F
:1057C0008BE0C89FE0011124C153DA4F8091290F6B
:1057D00090912A0FA0912B0FB0912C0FFE01819375
:1057E0009193A193B1939F0186E0E3E2FFE0D90199
:1057F00001900D928A95E1F78091C8058A87DF9123
:10580000CF9108952091C8052F5F2093C80510926D
:10581000CA057BE030E06091CA056830E0F4769F0D
:10582000F0011124E153FA4F82819381408151812B
:10583000842B952B892B59F08285A901481B51098E
:105840004837510524F010821182128213826F5F53
:105850006093CA05E0CF08958091D90C9091DA0C3D
:105860001092DA0C1092D90C8A9708F4089580915E
:10587000210F9091220F811521E0920729F08115C7
:10588000924009F471C008952091330F3091340F84
:105890008091090F90910A0F2817390709F07BC0F2
:1058A0002091350F3091360F80910B0F90910C0F96
:1058B0002817390709F06FC014DF80E092E0909359
:1058C000220F8093210F86E0E3E2FFE0ADE2BFE02C
:1058D00001900D928A95E1F786E0E5EBF5E0A3E211
:1058E000BFE001900D928A95E1F786E0E5EBF5E0E7
:1058F000A3E1BFE001900D928A95E1F786E0EDE229
:10590000FFE0ADE0BFE001900D928A95E1F7809154
:10591000290F90912A0F9093340F8093330F809129
:105920002B0F90912C0F9093360F8093350F809111
:10593000090F90910A0F90932A0F8093290F80915D
:105940000B0F90910C0F90932C0F80932B0F88E0EE
:1059500096E090931A0F8093190F8AE290E090934B
:10596000DA0C8093D90C08952091330F3091340FC5
:105970008091090F90910A0F2817390761F420913F
:10598000350F3091360F80910B0F90910C0F281727
:10599000390709F4A6CE089520912B0F30912C0FD2
:1059A0002F3F4FEF340751F480912D0F90912E0F20
:1059B000019621F486E0E5E2F1E0CAC08091090F8A
:1059C00090910A0F822793274091050F5091060F5F
:1059D00084239523892B91F440912D0F50912E0F04
:1059E00080910B0F90910C0F842795276091070FE2
:1059F0007091080F86239723892B89F08091010FDE
:105A00009091020F9093CC058093CB058091030F6A
:105A10009091040F9093CE058093CD0508C03093EC
:105A2000CC052093CB055093CE054093CD05109225
:105A3000CA058091CB059091CC052091CD05309180
:105A4000CE0560E0E0E0F0E07BE0683090F4769F27
:105A5000F0011124E153FA4F4081518184179507D9
:105A600031F4428153812417350709F46DC06F5F0B
:105A7000ECCF6093CA05683009F068C046E050E09A
:105A80006FEF70E08DE09FE00E944B4326E0EDE277
:105A9000FFE0DF01422F1D924A95E9F7E5EBF5E0C3
:105AA000A3E1BFE0822F01900D928A95E1F7E5EB2B
:105AB000F5E0A3E2BFE0822F01900D928A95E1F715
:105AC0008091CB059091CC059093340F8093330F48
:105AD0008091CD059091CE059093360F8093350F30
