:10000000F2C100000EC200000CC200000C94781473
:1000100008C2000006C2000004C2000002C20000C4
:1000200000C20000FEC10000FCC10000FAC10000D7
:10003000F8C100000C941114F4C10000F2C10000DA
:10004000FFC30000EEC10000ECC10000EAC10000E7
:100050000C94B2240C947C24E4C10000E2C10000A2
:10006000E0C10000DEC10000DCC10000DAC1000018
:100070000C949A25D6C10000D4C10000D2C1000062
:10008000D0C10000CEC10000CCC100006D4B2442A5
:10009000420762642943F502464A0969591A419D9B
:1000A0000B5AED0D474D094D8509598D1C52B3066C
:1000B00054C01F56AA0757F306587F0F656A076694
:1000C0007F232AE4256C310774840475031778882C
:1000D000037AAD19000000202F2000203D200007EA
:1000E0002E050DD391FF080500000C0021656A2D37
:1000F0003B1322F862073F181D1CC700B0876BF83E
:10010000B611EA2A001F41000D2E2D07D3913D04A0
:10011000320000060021656A55E43023B90007006B
:1001200018146C070090876BF85611E92A001F41DC
:100130000000030F1E2627000000030F1E2536387F
:100140006700030F256740605000030F2751888325
:100150008100030F2750C8C3C20027000000000021
:1001600000006700000000000000500000000000D8
:1001700000008100000000000000C200000000003C
:1001800000504C4C310D0A00504C4C300D0A0056BA
:1001900020312E36362043534D3836380056203124
:1001A0002E36362043534D34333300202F20002089
:1001B0003D20004C4F56460D0A004552523A4343EB
:1001C000410D0A000B08105B11F81547191D1A1C88
:1001D0001BC71C001DB221B623EA0007022E030D27
:1001E00004E905CA070C0B060D210E650F6A10C83D
:1001F0001193120315341733181819161B4321567F
:100200002500261129592C812D353EC34C454E45DC
:1002100052520D0A004C4F56460D0A004C454E45B1
:1002200052520D0A000007024604C605260B0610AE
:10023000C81193120313221534173F182819161BDF
:10024000432156250026110D210E650F6A070C1655
:100250000720F81E871F6B29592C812D353EC3FFBF
:1002600000424F56460D0A000001022E030104AA67
:10027000050F06FF070008000B060D210E660F662E
:1002800010CA1193120613721535181819161B038C
:1002900023E9242A2500261F3E500D210E740FADA0
:1002A000104B11F81206137215410D2E2D07D39124
:1002B0003D04320000060010B07155E43023B9004F
:1002C000070018146C070090876BF85611E92A0094
:1002D0001F41000D2E2D07D3913D04320000060072
:1002E00010ABA5550A3023B900070018146C07009D
:1002F00090876BF85611E92A001F41004E2F4100EC
:10030000454F420D0A004E2F41004E2F4100005331
:100310005300547D7DFFFF4B4B7E7E002069732090
:10032000756E6B6E6F776E2920557365206F6E65E5
:10033000206F66003F2028004F4646004F4646008B
:10034000544D4F444500534D4F4445000454053D22
:100350001700000602000B080C000D210E6B0FD0D9
:10036000105C11041206132214F80A00154421B679
:1003700022101818192E1ABF1B431C091DB523EA99
:10038000242A2500261F29592C812D352E090704E2
:100390000800090006FF3EC2FF047605961700001C
:1003A0000602000B080C000D210E650F6A106A1181
:1003B0004A1206132214F80A00154721B622101813
:1003C00018192E1A6D1B041C091DB223EA242A25B4
:1003D00000261F29592C812D352E090704080009F4
:1003E0000006FF3EC2FF11241FBECFEFD0E4DEBFE8
:1003F000CDBF11E0A0E0B1E0E6ECFBE500E00BBF13
:1004000002C007900D92A838B107D9F72AE0A8E8F2
:10041000B1E001C01D92A434B207E1F703D00C94FF
:10042000E12DEECD88E10FB6F89480936000109234
:1004300060000FBE3E9A469A179A169A0E940226AC
:1004400076D589EF87BD84E085BD82E084BD809349
:100450006E00109280008AE08093810090E080E836
:100460000FB6F89480936100909361000FBE84B73B
:10047000877F84BF2FE088E190E00FB6F894A895BD
:10048000809360000FBE2093600089E190E80E9495
:10049000E6240E94832587B18C7F87B988B18C7F41
:1004A00088B90E94601F0E94590F80E495E29093E2
:1004B000900480938F0481E080938B010E94271623
:1004C00080918B01886080938B01469878940E947C
:1004D00005250E9484112ED20E94C5230E94A517D3
:1004E000C4D70E94770D0E94D0250E9469270E94E0
:1004F000F718EDCF8EBD0DB407FEFDCF8EB5089574
:10050000A1E0B0E0E6E8F2E00C94792C482F8A30C4
:1005100008F048E088E0489F70011124F701EF5C83
:10052000FE4F7F018BE290E0F70164918C010F5F39
:100530001F4F4983FAD3FFEFEF1AFF0A49810333B4
:10054000110511F0C801F0CF4550453010F461E1BC
:1005500001C067E184E290E0E8D32196E6E00C94E4
:10056000952CCF93DF9382E090E0FC01EA5FFE4F91
:100570006491EC012196D9D3CB32D10511F0CE0193
:10058000F4CF87E390E0FC01E855FF4F6491EC0164
:100590002196CBD3C036D10511F0CE01F4CF079907
:1005A00018C060E18FE090E0C0D360EB80E190E0A4
:1005B000BCD361E781E190E0B8D360E184E490E0EE
:1005C000B4D360EB85E490E0B0D361E786E490E0DB
:1005D000ACD388E095DFDF91CF9108952C98806CA3
:1005E00089DF80E087DF2C9A0895A1E0B0E0EBEF8F
:1005F000F2E00C947C2C41E0BE016F5F7F4F0196CE
:1006000039D3892B21F18981893969F410E0812F4F
:10061000E5DF2CD3812F8770873009F4B3D21F5FB9
:100620001033A9F714C0DADF182F83E460D2898170
:100630001DD38BED90E099D2812F18D387ED90E0F8
:1006400094D240E262E0812F90E0A0D29BD221962A
:10065000E3E00C94982CA1E0B0E0E1E3F3E00C942B
:100660007D2C2C988064698345DF6981862F42DF69
:100670002C9A2196E2E00C94992C2C983BDF2C9A32
:100680000895EF92FF920F931F93CF93DF93EC01A6
:1006900010929301EA98249A2C9A8EE190E0BDD1B1
:1006A0002C988EE190E0B9D12C9A8DE290E0B5D1F2
:1006B00080E3E3DF84E690E0B0D12C9880E41ADF99
:1006C0007E0189E2E80EF11C8E010F5F1F4FCE0103
:1006D00031D310DF0E151F0511F0E801F5CF2C9A6C
:1006E0002C988EE707DF8BE290E0EC01219622D375
:1006F00001DFC333D10511F0CE01F7CF2C9A83E38C
:10070000BCDF81E08FD1CDB7DEB7E6E00C94952C4D
:10071000A1E0B0E0EEE8F3E00C947D2C22E0298328
:1007200041E0BE016F5F7F4F0196A4D28981E8DE70
:1007300082E090E0A6DF2196E2E00C94992CCF9322
:10074000EA9886E39ADFCFEF85E397DFC1508077A1
:10075000803229F08AE090E060D1C111F5CFCF91CD
:100760000895CF93CFEF84E388DFC1508077803145
:1007700029F08AE090E051D1C111F5CFEA9ACF91EA
:10078000089586E37ADF10929104109291011092FD
:100790009301089582E090E074DF81E080939104FA
:1007A000109291011092930108950F931F93CF938C
:1007B000DF93082F10E0C62FD0E085E30FDF80170E
:1007C00031F0CE012AD11150C1F781E001C080E0A3
:1007D000DF91CF911F910F91089585E2FFDE8F3356
:1007E00011F080E0089586E348DF8091880181114F
:1007F00004C088E891E0B9D102C08DE33EDF83E315
:100800003CDF64E081E0D1DF85E2E8DE8F3349F749
:1008100080918801811103C081E891E0A6D181E037
:10082000089585E3DBDE8D3051F485E2D7DE8F332A
:1008300031F4D3DF84E321DF80778031D9F7089565
:100840001F920F920FB60F9211240BB60F928F9337
:100850009F93AF93BF93EF93FF93809193049091F5
:100860009404A0919504B09196040196A11DB11D28
:100870008093930490939404A0939504B09396046A
:10088000809192048F5F80939204EEE7F5E080817F
:100890009181181619061CF401979183808336966E
:1008A00085E0E639F80799F78091980590919905C8
:1008B000009729F00197909399058093980580916E
:1008C000AB058F3F19F081508093AB05FF91EF91FD
:1008D000BF91AF919F918F910F900BBE0F900FBE64
:1008E0000F901F9018952FB7F89440919304509152
:1008F00094046091950470919604FC0140835183A7
:10090000628373832FBF0895A4E0B0E0EAE8F4E0C7
:100910000C947D2CCE010196E6DF8C81A7D18B81D2
:10092000A5D18A81A3D18981A1D12CD12496E2E0DD
:100930000C94992C1F93CF93DF9380919304909103
:100940009404A0919504B091960420918A012817EF
:1009500009F45FC08091930490919404A091950450
:10096000B091960480938A01A895CEE7D5E010E077
:1009700028813981232B19F4812F0E94EF211F5FD9
:1009800026961430A9F78091980590919905892BA6
:1009900011F40E944B228091AB05811102C00E948C
:1009A000A92280912605882339F08150809326055D
:1009B000811102C00E943A18809192048D3748F14B
:1009C000109292048091000181FF04C088B190E4EC
:1009D000892788B98091970490919804843823E0FE
:1009E000920728F40196909398048093970480913D
:1009F00089018F5F809389018C3359F410928901AA
:100A000080917D058F5F80937D058C3310F010926F
:100A10007D05DF91CF911F910895880F991F019750
:100A2000F1F7089520ED37E0815020F0F90131977A
:100A3000F1F7FACF0895CF93DF93DC0113968C91F1
:100A40001397843509F050C0CD010396CC91FD0178
:100A500070964DE04C1750F050E0D0E09E012F50C2
:100A600031094217530709F03FC005C021912B33CC
:100A700099F34F5FEFCFFE013E97E80FF91F2081FA
:100A8000243591F514963C911497218132132CC092
:100A900015963C9115972281321326C016963C91EB
:100AA00016972381321320C017963C911797248103
:100AB00032131AC06197C80FD91F85818883868138
:100AC000898381858A8382858B8383858C838485D2
:100AD0008D8385858E838C918A508C9312968C9110
:100AE00012978A5012968C93DF91CF910895CF93ED
:100AF000C82F80918B0180FF0EC08091BF058E377B
:100B000030F087FD08C0CD3011F0CA3021F46C2FD1
:100B10008DEB95E02DD2809131058823C9F080912D
:100B20008B0183FF15C0CA3099F0CD3011F46BE30F
:100B300001C06C2F81EA94E01BD2CD3019F481EA18
:100B400094E079DF83E08093260582E080932C0592
:100B5000CF910895CF93DF93EC018991882311F011
:100B6000C6DFFBCFDF91CF910895CF93DF93EC01E8
:100B7000FE018491882319F0BADF2196F9CFDF9125
:100B8000CF9108958DE0B3DF8AE0B1CFA6E0B0E069
:100B9000ECECF5E00C947B2C062F1E8215E02AE08D
:100BA00030E01150E1E0F0E0EC0FFD1FE10FF11D2E
:100BB000B9010E94462C805D8083CB0101500097D3
:100BC00069F01111EECF0AC0112359F01150E1E084
:100BD000F0E0EC0FFD1FE10FF11D4083015007FF16
:100BE000F3CF81E090E08C0F9D1F810F911DB2DF4C
:100BF0002696E4E00C94972CA5E0B0E0E2E0F6E065
:100C00000C947D2C1D8224E0382F3F702150E22F60
:100C1000F0E03A3010F4305D01C0395CA1E0B0E0A2
:100C2000AC0FBD1FEA0FFB1F308334E0969587950C
:100C30003A95E1F76150009739F7615067FD0BC0B5
:100C4000222349F02150E1E0F0E0EC0FFD1FE20F1C
:100C5000F11D4083F2CF81E090E08C0F9D1F820F49
:100C6000911D78DF2596E2E00C94992C40E362E038
:100C700090E0C2CFDC01FB0130E090E08D91882351
:100C8000A9F0813608F0805220ED280F2A3030F08C
:100C90002FEB280F263030F429EC280F292B332393
:100CA00079F006C0803251F38A3341F3CF0105C099
:100CB000CF0101962083415041F4861B970B089584
:100CC000922F9295907F31E0D9CFFC01D5CF20E0D3
:100CD00030E05AE0FC014191CF01442379F0E0ED8E
:100CE000E40FEA30B8F7F9015E9F90015F9F300D85
:100CF000112420533109240F311DECCFFB01318326
:100D000020830895982F92959F709A3010F4905DEB
:100D100001C0995CFB0190838F708A3010F4805D74
:100D200001C0895CFB01818308950E94D32DF9994C
:100D3000FECF08950C94CB2D08951F93CF93DF938E
:100D4000162F11501F3F59F0EC012196F3DF8EDF73
:100D5000112311F08AE3CBDE1150CE01F3CFDF91E6
:100D6000CF911F910895A2E0B0E0E9EBF6E00C947A
:100D70007A2CFC0121812D3421F466E08AEF9FE07A
:100D800005C0203529F460E18AED9FE0D6DF26C05A
:100D90001A82198242E0BE016F5F7F4F01966ADFBF
:100DA000098110E0823021F4102F00278A81082B5E
:100DB000C801C0DFF82E82E59ADE40E364E0C80196
:100DC0001BDF8FEA91E0D1DE8F2D50DF8BEA91E0BF
:100DD000CCDE40E262E08F2D90E0D8DED3DE2296BA
:100DE000E5E00C94962CA6E0B0E0E9EFF6E00C9478
:100DF000772C6C0143E0BE016F5F7F4F01963ADFB5
:100E0000823058F1E980F12C823021F0FE2CEE2462
:100E10002A81E22A8C011127FE01E00FF11F608177
:100E2000C70183DF000F111F0F5F1F4F0C0D1D1D2A
:100E3000F8018081882389F041E0BE016F5F7F4F18
:100E4000C80118DF892B49F08FEFE81AF80A698189
:100E5000C7016BDF0E5F1F4FEBCF2696E8E00C94C7
:100E6000932C41E060E071E0019604DF8091000185
:100E700080FF02C0469A01C046986091000184E359
:100E800090E053CFA1E0B0E0E8E4F7E00C947D2CD3
:100E90001982009731F041E0BE016F5F7F4F0196EC
:100EA000E9DE89818F3F09F4FFCF882321F061E0DB
:100EB00083E390E03ADF10926E00F89428E088E136
:100EC00090E00FB6F894A895809360000FBE209331
:100ED0006000FFCFCF93DF93EC0161E080E090E012
:100EE00024DF62E481E090E020DF3BDB60E080E62D
:100EF00090E01BDF60E081E690E017DF60E083E3D5
:100F000090E013DF62E084E390E00FDF60E080E6D2
:100F100090E00BDF60E081E690E007DF89818837B1
:100F200019F080E090E0AEDFDF91CF91089580E08E
:100F300090E000DF813029F481E090E0FBDE823434
:100F400019F080E090E0C6DF84E390E0F3DE809368
:100F500000010895079903C08DE991E002C08FE870
:100F600091E003DE0FCEFC011282108211820895FF
:100F7000FC018FB7F894928197FD0EC09F5F92831A
:100F8000208191E0920F9083DF01A20FB11D139693
:100F90006C93903809F410828FBF0895FC019FB7BD
:100FA000F8948281882371F081508283818121E0CD
:100FB000280F2183DF01A80FB11D13968C912038D3
:100FC00009F411829FBF0895FA013081882369F0E6
:100FD000E1E0F0E0022E01C0EE0F0A94EAF7DB0137
:100FE000A30FB11D9C919E2B9C93222319F08FEF90
:100FF000820F0BC081E0830F8C3010F4FA018083E4
:10100000FB01E80FF11D108287E090E00895CF9377
:10101000C82F299A882319F080918E0102C08091EF
:10102000900120E1829FC0011124F7DC2998CC2394
:1010300019F080918D0102C080918F0120E1829F83
:10104000C0011124EADCCF910895A3E0B0E0EBE207
:10105000F8E00C946D2C5C01162F622E842F90E02A
:101060009B838A8320919704309198040296089F6D
:10107000802D1124992787FD90952817390720F492
:1010800083EB91E072DD7CC0281B390B3093980410
:1010900020939704469A80919301882341F01092FF
:1010A000930185E891E02BD7FF24F39401C0F12C44
:1010B00080919104811101C06DDB41DB812E912C67
:1010C000CC24C394D12C712C512C852D992787FDCC
:1010D00090958815990524F480E099DF5394F5CF15
:1010E000112311F081E093DF20E0422E552447FCCC
:1010F0005094EA81FB814E165F062CF097E0392E62
:101100004A0C5B1C1AC087E0282E312C4A0C5B1C51
:10111000C601022C01C0880F0A94EAF7F2019081FF
:101120008923298374DFF1E02F1A310829818FEF99
:101130002816380669F72F5FD8CF832D992787FDAA
:1011400090956816790664F4C601032C01C0880FD7
:101150000A94EAF7F2019081892359DF3A94EDCF9E
:101160008E2D60DC015009F0AFCF80919A04882366
:1011700011F0F7DA02C086E380DAF110F6D2469871
:101180002396E2E10C94892CADE0B0E0EAECF8E0C3
:101190000C94702C7C01162F842F022F6701C60E31
:1011A000D11C462FB701C4D6D6018C931F5F1D8674
:1011B00019825E2C670127E066246394712C8C2DC4
:1011C0008519811788F547E0A42EB12C4701880EB8
:1011D000911CF3010A2C01C0EE0F0A94EAF7D40126
:1011E0008C91AE01435F5F4FBE016F5F7F4F8E23D7
:1011F000EBDE282FB1E0AB1AB10858F7D6018D917C
:101200006D01082E82958025082E8695869580256D
:101210008F5F86958170AE01435F5F4FBE016F5F48
:101220007F4FD2DE282FCBCF222311F0215004C0D4
:101230008D858F5F8D8727E089E180938F01809373
:10124000900185E280938D0180938E013AE0E32E38
:101250004D856CE0CE010196F8DE2D96EFE00C9402
:101260008C2CADE0B0E0E7E3F9E00C947C2C162F79
:10127000242F4BE0BE016F5F7F4F01962D87FADC74
:101280002D85412F682FCE0101967EDF2D96E3E05C
:101290000C94982C43E066E0E4CFEF920F93CF9349
:1012A000DF93CDB7DEB760970FB6F894DEBF0FBE01
:1012B000CDBF40E1BE016F5F7F4F0196DBDC6981EE
:1012C0004A810B818C81809390018D8180938F0165
:1012D0008E8180938E018F8180938D01E02EE29428
:1012E0007FE0E7220F70242F2F7042954F70CE01C0
:1012F0000896ABDE60960FB6F894DEBF0FBECDBF8A
:10130000DF91CF910F91EF900895A9E1B0E0EBE864
:10131000F9E00C94752C4BE0BE016F5F7F4F019696
:10132000A9DC182F893009F05AC099E190938F01F8
:101330009093900190938E0182E380938D0169E0F8
:10134000CE010196FFD5E1E0F0E0EC0FFD1FE10FCB
:10135000F11D8083198E1D86CE0101967C016E01E0
:101360009BE0C90ED11C27E0AA24A394B12CEC1455
:10137000FD0429F100E010E0F501002E01C0EE0FA0
:101380000A94EAF7D7018C91AE01475E5F4FBE0128
:10139000635F7F4F8E2318DE282F0F5F1F4F0830AB
:1013A000110551F7AE01475E5F4FBE01635F7F4F8E
:1013B00081E00ADE282FBFEFEB1AFB0AD8CF2223E9
:1013C00011F0215004C0898D8F5F898F27E0EAE0FA
:1013D000EE2E03E0498D6CE0CE010D9636DE699667
:1013E000EAE00C94912CCF93DF93EA98249A2C9AFC
:1013F0008EE190E012DB2C988EE190E00EDB2C9ACF
:101400008DE290E00ADB80E338D984E690E005DBEA
:10141000CAEDD1E0FE0131966491FE0184911BD9A1
:101420002296F2E0CC30DF07A9F78091920181117A
:1014300005C083E322D984E0F5DA0EC0C4ECD1E024
:10144000FE0131966491FE01849105D92296F1E066
:10145000CA3DDF07A9F7EDCF84E30FD985E3BED8F6
:101460008D30D1F7DF91CF910895A2E3B0E0EBE3A7
:10147000FAE00C947B2C80919101882309F48AC0B6
:101480001A9B79C08FE3AAD88F778983823348F07B
:101490008AE3F3D886E3F1D88DE3EFD884E3EDD87F
:1014A00079C02C988FEF26D810E08981181758F44E
:1014B00080E020D8E2E0F0E0EC0FFD1FE10FF11D2D
:1014C00080831F5FF2CF80E015D8082F80E012D80C
:1014D0002C9A84E3D2D885E381D88D30D1F72A8144
:1014E00096E792279A8392E08981E92FF0E0981796
:1014F00068F441E050E04C0F5D1FE40FF51F3081B0
:101500002452232720839F5F232FEECF81E090E09A
:101510008C0F9D1FE80FF91F90818B819827908376
:1015200080919A0484FF10C081E6E1DA10E089819D
:10153000811708F1E1E0F0E0EC0FFD1FE10FF11D74
:101540008081D5DA1F5FF3CF81E4D1DA10E08981A1
:10155000811750F0E1E0F0E0EC0FFD1FE10FF11D0D
:10156000808184DB1F5FF3CF80919A0485FF02C0E6
:10157000802F7CDB07DB85E331D8813021F081319E
:1015800041F48AE37AD886E378D88DE376D884E389
:1015900074D847D9E296E4E00C94972C8F929F92EE
:1015A000AF92BF92DF92EF92FF920F931F93CF9370
:1015B000DF93CDB7DEB7EA970FB6F894DEBF0FBE64
:1015C000CDBF41E38E010F5F1F4FB801019652DB83
:1015D0007C0199270197298130E08217930709F050
:1015E0009AC080919101811103C0FDDE83E01ADA77
:1015F000DB808A8196E789278A8322E03981822FDE
:1016000090E0F801E80FF91F231750F4DE01A80F4E
:10161000B91F8C9184529081892780832F5FEECFF0
:1016200080818D258083CE01C7965DD985E325D83D
:1016300085E30E94EE02833171F1CE01C39653D946
:101640004BA95CA96DA97EA98FA998ADA9ADBAAD2A
:1016500084179507A607B70760F44A015B01881A4B
:10166000990AAA0ABB0A2DEB82169104A104B104BF
:1016700070F4481759076A077B0768F484549F4F32
:10168000AF4FBF4F84179507A607B70720F48AEB23
:1016900091E06BDA24C085E30E94EE02833131F6DB
:1016A000D4FE06C088E7BED988E7BCD988E701C068
:1016B0008AE0B8D92C988FE70E947A0258018A2DC7
:1016C000801B8E1530F4F50181915F010E947A0232
:1016D000F6CF2C9A85E30E94EE028331D9F385E39D
:1016E0000E94EE02863149F48BE30E943D0386E3BB
:1016F0000E943D038DE30E943D0380919101882368
:1017000049F084E30E943D0385E30E94EE028D30A0
:10171000C1F701C0E5D3EA960FB6F894DEBF0FBE5D
:10172000CDBFDF91CF911F910F91FF90EF90DF9090
:10173000BF90AF909F908F900895FC012181223738
:1017400031F0223559F481E08093920102C0109269
:10175000920149DE81E0809391010895233711F4CD
:1017600001961CCF109291010895CF93DF93EA98D0
:10177000249A2C9A8EE190E050D92C988EE190E03A
:101780004CD92C9A8DE290E048D980E30E943D0329
:1017900084E690E042D9C5E2D2E0FE018491813432
:1017A00038F083E30E943D0384E03CD9CFEF0DC0C5
:1017B000FE0131966491FE0184910E942B032296D2
:1017C000F2E0C136DF0749F7ECCF84E30E943D0326
:1017D0008AE090E022D9C150C1F781E08093930163
:1017E000DF91CF910895EF92FF920F931F93CF93C4
:1017F000DF93EC018B01F880F3946115710519F00A
:10180000E4E6F0E002C0E0E0F0E028E0F29EC00193
:1018100011246AE070E00E945A2C9B012E0F3F1F9A
:10182000C901AA2797FDA095BA2FE0919704F091DE
:101830009804AF0160E070E0481759076A077B071A
:1018400020F485E192E091D9C3C0E21BF30BF09341
:101850009804E093970480919301811101C085DF82
:1018600085E30E94EE028D3051F08AE540D985E48F
:101870003ED982E53CD982E53AD981E347C08091DF
:10188000940190919501A0919601B0919701892BB7
:101890008A2B8B2B29F50E949F0385E30E94EE0281
:1018A000833109F43BC08AE522D985E420D982E559
:1018B0001ED982E51CD982E329C0809193049091BE
:1018C0009404A0919504B09196044F5F5F4F6F4FC1
:1018D0007F4F84179507A607B707E9F681E0A2D8DE
:1018E0008091930490919404A0919504B0919604F2
:1018F00040919401509195016091960170919701EA
:1019000084179507A607B707C1F6E8CFF0D885E397
:101910000E94EE02ABD936D928DF5AC0012B41F420
:101920002C988FE70E947A02EC2E0C2F1D2F0AC0F4
:101930000AE010E084E676D801501109011511057E
:10194000C9F7EECF802F8E198F1530F4F8018191F1
:101950008F010E947A02F6CF2C9AC8EC85E30E9490
:10196000EE028D30B1F485E30E94EE028D30D9F0A5
:101970008AE5BDD885E4BBD882E5B9D882E5B7D879
:1019800083E3B5D885E30E94EE0270D9FBD8EDDE83
:101990000AC085E30E94EE02833129F781E042D834
:1019A000C150E1F6E0CF80919301811101C098D23E
:1019B0008091930490919404A0919504B091960421
:1019C0008093940190939501A0939601B093970111
:1019D000CDB7DEB7E6E00C94952CACE0B0E0E3EFD9
:1019E000FCE00C947C2CFC018BE0898381818A8350
:1019F0001B8282E08C8387818D8380858E838185A5
:101A00008F83848188878581898786818A871B86E1
:101A10001C8684E107D860E070E0CE010196E3DE29
:101A20008AE565D810E0812F90E0298130E0281701
:101A3000390754F0E1E0F0E0EC0FFD1FE80FF91F6B
:101A4000808114D91F5FEFCF80919A0485FF02C077
:101A500080E00CD997D82C96E3E00C94982CCF9387
:101A6000DF93EC0180919B01811108C090919C0152
:101A7000911104C090919D019923A9F09B8190330D
:101A800019F09F7E903479F49F8198130CC098854B
:101A900080919C01981307C0998580919D019813AE
:101AA00002C0CE019ADF80919801811108C0909107
:101AB0009901911104C090919A019923A9F09881FC
:101AC0009B3091F49B81903479F49F8198130CC0E2
:101AD000988580919901981307C0998580919A0102
:101AE000981302C0CE0179DFDF91CF910895AEE166
:101AF000B0E0EDE7FDE00C947B2C8091930188230E
:101B000009F467C01A9B57C08FE30E94EE028F77DB
:101B10008E3108F08DE189832C988FEF0E947A0234
:101B200010E08981181760F480E00E947A02E2E0F8
:101B3000F0E0EC0FFD1FE10FF11D80831F5FF1CF7F
:101B400080E00E947A02082F80E00E947A022C9A9C
:101B5000CE01019684DF80919A0484FF12C08AE747
:101B60000E94770510E08981811798F1E1E0F0E0AB
:101B7000EC0FFD1FE10FF11D80810E9477051F5FB3
:101B8000F2CF8AE50E94770510E08981811750F035
:101B9000E1E0F0E0EC0FFD1FE10FF11D808166D860
:101BA0001F5FF3CF80919A0485FF02C0802F5ED81B
:101BB0000E94C2050EC085E30E94EE02813149F405
:101BC0008AE30E943D0386E30E943D0384E30E9472
:101BD0003D036E96E4E00C94972CAEE1B0E0E3EFA9
:101BE000FDE00C947B2C8C01FC018181823711F487
:101BF000BCDD34C0833711F08636F9F44DE1BE0107
:101C00006F5F7F4FC801029635D8992701972981C8
:101C100030E08217930729F08CE092E00E94B5052E
:101C20001DC061E070E0F8018181833711F060E050
:101C300070E0CE010196D7DD11C0813621F443E07A
:101C40006BE971E005C0873739F443E068E971E07A
:101C5000C80102960FD802C0109293016E96E4E07C
:101C60000C94972C8F929F92AF92BF92DF92EF923B
:101C7000FF920F931F93CF93DF931092B9011092AD
:101C8000CE01FC012181220F220F220F3381231B61
:101C900057E0520F1092BA0110E070E038E0D32EF6
:101CA000D20EFF24F39447E007E0E12CC7E0D0E038
:101CB000A1E0B0E0FD1409F47FC0FC01EE0DF11DC0
:101CC000248130E0002E02C0359527950A94E2F772
:101CD00021703327E22F002311F0015002C0E3945A
:101CE00007E06B3471F4433009F04AC0111107C0AA
:101CF000E1115FC01092B9017093CE0174C010E081
:101D000041C04F3F31F56634A9F4E72FF0E0E654C7
:101D1000FE4FE0810E2EE295E0250E2EE695E6952B
:101D2000E025EF5FE1FB882480F8912C8216930672
:101D300041F004C0653429F4E11103C01093B901E6
:101D4000DBCF7F5FE72FF0E0E654FE4F108247E0E5
:101D500031C0EE2361F1663471F4E72FF0E0E65410
:101D6000FE4FA0809D01042E01C0220F0A94EAF7C5
:101D7000A22AA0821CC0653439F06B34C1F404C0BF
:101D80004F3FD1F2EE2399F0E72FF0E0E654FE4FFB
:101D90009E01241B310947FD33955D0102C0AA0C49
:101DA000BB1C2A95E2F795013081322B30834150DC
:101DB00001C011E0F3947ECF1093B9017093CE016E
:101DC0005F1588F4653431F44F3F21F47F5F7093E1
:101DD000CE0104C08091B9018111F8CF81E09091CA
:101DE000CE01911101C080E0DF91CF911F910F9141
:101DF000FF90EF90DF90BF90AF909F908F900895ED
:101E000010926F00E091D1018CE1E89FF001112464
:101E1000EE52FE4F1082809199048D7F8093990439
:101E20000895FC012181243108F0EACF3381662333
:101E300081F081E090E0032E01C0880F0A94EAF758
:101E4000DF01A20FB11D14969C911497982B149644
:101E50009C93332319F031503383089587E08383B3
:101E60002F5F2183E20FF11D14820895DC0111968A
:101E7000EC911197F0E050E02C91CF01841B950B71
:101E80000B964797A0F430E070E0C901861B970BD2
:101E90000B96479760F42E0F3F1F640F751F261B8C
:101EA000370B255F3F4F81E02731310508F080E097
:101EB0000895219A29982298E9E6F0E080818061CE
:101EC000808382EC91E09093980480939704109221
:101ED000EE0110920A0210922602109291040895C7
:101EE00080918B0481110AC080919A04882321F08B
:101EF0000E94CA030C94B1030C94C1030895FC0121
:101F0000218121110EC080919A040E94360640E280
:101F100065E080919704909198040E94C6050C9406
:101F2000C20541E06AE974E001960E943A06D8CF02
:101F3000442339F04150FB01E40FF11D9081890FDA
:101F4000F7CF089520E0662339F06150FC01E60FD9
:101F5000F11D30812327F7CF822F0895A091B90179
:101F600040E035E020E0662399F06150FC01E60F87
:101F7000F11D5081752F72957F702727370FAA2387
:101F800011F0442319F05F702527350F4F5FEBCF19
:101F9000320F40E1349FC0011124822B0895FC01CF
:101FA00032812381A081B181A30FB11D8C9190E07A
:101FB000022E02C0959587950A94E2F781709927C1
:101FC0004FEF420F4383211104C03F5F328327E06C
:101FD00023830895A2E0B0E0E0EFFFE00C94752CBD
:101FE0007C01A12CB12CD12CCC24C394062F10E061
:101FF00001501109A616F0F4C7014A836983CFDFA7
:102000004A816981882391F0442349F098012A1973
:102010003B098C2D01C0880F2A95EAF706C08C2D4C
:102020000A2C01C0880F0A94EAF7D82A8FEFA81A61
:10203000B80AE0CF8D2D2296EAE00C94912CA4E012
:10204000B0E0E5E2F0E10C94742C1B8227E02C83D5
:102050009C012C5F3F4F3A8329831092CE01FC01F3
:102060002181338187E090E0831B9109F8E02F9F65
:10207000800D911D1124853491050CF44EC0B12CB6
:10208000A090CE01F5E0FA1558F10A2D10E040E0DD
:1020900068E0CE0101969EDF06541E4FF801808352
:1020A000982E092C92949024092C9694969490241E
:1020B000CE01019674DF939491FACC24C0F8D12C10
:1020C00090E0C816D90649F5CE01019668DF811166
:1020D00024C0F8018081B826A394A092CE01D0CF6D
:1020E00040E068E0CE01019675DF082F182F012E21
:1020F00012951025012E169516951025CE010196E4
:102100004EDF1F5F11FBEE24E0F8F12C282F30E0AA
:10211000E216F30611F481E0B01280E02496EBE0C1
:102120000C94902CA5E0B0E0E8E9F0E10C94782C58
:10213000FC011B8287E08C83CF0104969A838983FC
:102140008081853009F051C02181338187E090E0A2
:10215000831B910938E0239F800D911D1124803944
:10216000910509F042C01092CE010FE010EF29E86E
:102170008091CE01E82EF12CDD24D394D80E41E0DD
:1021800068E08F3088F4CE0101962D8323DF080F9D
:10219000111DF701E654FE4F2D812827208324E2EC
:1021A000280FD092CE01E4CFCE01019613DF080FA5
:1021B000111DD092CE01F701E654FE4F8095808329
:1021C00041E068E0CE01019605DF90E0982F882776
:1021D000081B190B41E068E0CE010196FBDE282FB9
:1021E00030E081E00217130709F080E02596E7E070
:1021F0000C94942CA4E0B0E0E0E0F1E10C947A2C93
:102200001B8227E02C839C012C5F3F4F3A8329835C
:10221000FC0121812430A1F58381813089F5109260
:10222000CE018091CE01082F10E0FF24F394F80E28
:1022300041E0843098F4811106C067E0CE01019638
:10224000C9DE806804C068E0CE010196C3DEF801F3
:10225000E654FE4F8083F092CE01E3CF67E0CE01DB
:102260000196B8DEF801E654FE4F880F8083F092A5
:10227000CE019091BA0192959F7081E09A3009F059
:1022800080E02496E5E00C94962CCF93DF93FC013C
:1022900081818330E9F483818730D1F48081883073
:1022A000B9F41092CE0120E0822F90E0DC01A65418
:1022B000BE4FEF01C80FD91F8C818C9381E0820F34
:1022C000833010F4282FF0CF8093CE0181E001C03D
:1022D00080E0DF91CF910895FC0190818091990475
:1022E000993611F0933751F4982F9370913011F47F
:1022F000826006C080FF07C08B7F03C080FD03C0E3
:102300008460809399040895A1E0B0E0EAE8F1E1E7
:102310000C94792C198280919E018823B9F18091C7
:102320009A0487FF17C084E30E94EE02805880342D
:1023300058F0803C58F490E08055910953E0959511
:1023400087955A95E1F703C080E001C08FE08F596F
:102350000E94770580919A0483FF16C082E70E944D
:10236000770580919A0484FF04C080919F010E94A8
:10237000770586E60E94770580919A0484FF04C061
:1023800080919E010E94770510929E018091CF015D
:10239000882309F442C2469A0091D0012CE1029FA1
:1023A000800111240E521E4F8981811106C0C8017F
:1023B0006CDF882311F083E789838981811106C04E
:1023C000C801B0DE882311F083E5898389818111FA
:1023D00039C066E4C80146DC8823A1F1F090CE0143
:1023E000FA94F092CE014F2D6AEB71E086E0A0DD09
:1023F000EF2DF0E0E654FE4FE0808E1105C093E033
:102400009F1510F486E41BC0282F30E02F5F3F4F4C
:102410006E2D70E02617370739F423E02F1520F4CE
:1024200096E4998380830EC04F2D6AEB71E08CE0B7
:102430007FDD8E1106C083E08F1518F484E5898353
:1024400001C019828981811116C065E4C8010ADCC6
:10245000882389F08091CE0181508093CE0189300C
:1024600051F469E08AEB91E06DDD9091C30189132D
:1024700002C085E489838981811106C0C801DFDD3E
:10248000882311F088E489838981811106C0C801FD
:10249000B1DE882311F084E789838981811133C0FB
:1024A000F801438D60919F01C8014A96DFDC682FD7
:1024B000C801B7DC6BE4C801D5DB8823B1F0F0902C
:1024C000CE01FA94F092CE016F2D8AEB91E046DDB9
:1024D000EF2DF0E09091B901E91BF109E654FE4FB0
:1024E0009081891302C08BE48983898181110BC09B
:1024F000F801838191E0980F9383873021F4138250
:10250000818181508183898181112DC0F801818170
:10251000843049F58381843031F54EE16CE3C801A4
:102520004896A4DC8823F9F04EE160919F01C80130
:102530004A969CDC682FC80174DC20E0822F90E072
:10254000FC01E654FE4FD801A80FB91F14968C91D8
:10255000808381E0820F853010F4282FEFCF8093A5
:10256000CE0182E589833981332309F4CAC02091E1
:102570009A0420FFC6C0809199048E7F8B7F809340
:10258000990421FD64C05091B801F090CE015F1113
:102590003DC040E04517C0F4842F90E061E0640F37
:1025A000FC01EC55FE4FDC01A654BE4F70818C91AE
:1025B000781741F04093B801809199048D7F809302
:1025C000990404C0462FE6CF4093B80145131EC0BE
:1025D00040919304509194046091950470919604F5
:1025E0008091A0019091A101A091A201B091A301BD
:1025F000481B590B6A0B7B0B46325105610571056F
:1026000028F48091990481608093990440E04F15EB
:1026100060F4842F90E0FC01EC55FE4FDC01A654E1
:10262000BE4F8C9180834F5FF2CF4093B801809171
:10263000930490919404A0919504B0919604809392
:10264000A0019093A101A093A201B093A3013435FE
:10265000E9F426FD1BC08091CE018530B8F0809151
:10266000BC018B3471F0893661F09DEA980F92308D
:1026700040F08D57823028F08091BD0180778037FF
:1026800029F480919904816080939904B801CE0166
:10269000019622DE8091990482FF33C089810E94D5
:1026A00077058091B901882329F08091CE0181506E
:1026B0008093CE01F12CE091CE01FE1648F4EF2D6F
:1026C000F0E0E654FE4F80810E943606F394F3CF8B
:1026D0008091B901882351F0F0E0E654FE4F8081EB
:1026E0008F7040E361E090E00E94FC0580919A04C5
:1026F00085FF05C084E30E94EE020E9436060E9418
:10270000C20580919A0482FF6FC080E70E9477051E
:10271000F801808140E262E090E00E94C605F80185
:10272000808D40E265E0F0E18F9FC00111240E949E
:10273000C605F801818D40E265E0F0E18F9FC001A0
:1027400011240E94C605F801828D40E265E0F0E1A7
:102750008F9FC00111240E94C605F801838D40E2BD
:1027600065E0F0E18F9FC00111240E94C605F801C9
:10277000828140E263E090E00E94C605F801818119
:1027800040E263E090E00E94C605F801238140E248
:1027900062E087E090E0821B91090E94C60580E21A
:1027A0000E94770580919A0485FF08C084E30E9407
:1027B000EE020E94360680E20E947705F8018381CE
:1027C000873019F081818F5F8183F12CF80181813D
:1027D000F81640F4F801EF0DF11D84810E943606D1
:1027E000F394F4CF0E94C205F80110828091CF01CA
:1027F00081508093CF018091D0018F5F843019F098
:102800008093D00102C01092D0014698898184350E
:1028100021F48AEB91E00E94B8222196E6E00C9424
:10282000952C1F920F920FB60F9211240BB60F9298
:102830002F933F934F935F936F937F938F939F93C8
:10284000AF93BF93EF93FF9310926F0080919A0420
:1028500083FF03C08EE20E9477058091D1019CE145
:10286000899FF0011124EE52FE4F9081933018F0B1
:102870009181923010F4C4DA18C09091CF01933056
:1028800049F480919A0482FFF6CF81E692E00E949B
:10289000B505F1CF9F5F9093CF018F5F843019F022
:1028A0008093D10102C01092D101FF91EF91BF91AD
:1028B000AF919F918F917F916F915F914F913F91D8
:1028C0002F910F900BBE0F900FBE0F901F90189579
:1028D0009BED980F973150F496EF960F9D3130F4A1
:1028E00091E0681708F090E0892F089580E008953E
:1028F0001F920F920FB60F9211240BB60F92FF92F8
:102900000F931F932F933F934F935F936F937F93F7
:102910008F939F93AF93BF93CF93DF93EF93FF93E7
:102920008091BC05882321F082E08093BC0563C1BF
:1029300080912705823021F483E0809327055BC1D5
:10294000009184001091850064E0169507956A95C2
:10295000E1F7C091D1019CE1C99FE0011124CE5261
:10296000DE4F9881943031F40E3208F444C10F34B4
:1029700048F0B6C0953031F4073108F43CC1083254
:1029800008F0AEC01A990DC09450923038F461E04E
:10299000CE0147DA109285001092840000939F01C7
:1029A0002AC180919F01081B00939E01109285000F
:1029B000109284009881983071F42A8121110BC003
:1029C00021E02A83888F8A8F098F0B3B10F4000F38
:1029D00001C006950B8F9450923020F460E0CE0138
:1029E00020DA09C182E086BBF880F11011C0909115
:1029F0009F01953608F0FFC080919E01853608F052
:102A0000FAC0988F898F81E08A8382E08883F3C03F
:102A100010919E0182E0F81273C000919F01412F36
:102A2000602FCE01489622DA6A818823F9F0488D1A
:102A300050E09A01220F331F240F351F200F311D44
:102A40003595279535952795288F298D30E0C90133
:102A5000880F991F820F931F810F911D9595879560
:102A600095958795898F6F5F6A83C5C0643008F438
:102A700045C020EA3FE030938900209388008A8196
:102A80008C3050F0888D298D30E0280F311D25368F
:102A9000310524F084E027C08A3088F0888D298DA4
:102AA00030E0280F311D253231054CF485E0888354
:102AB00028EE33E0309389002093880015C0809180
:102AC000A004882379F0612F802F02DF882351F042
:102AD000688D898DFDDE882329F081E080932705AC
:102AE0008FD989C083E088830A8F1B8F198287E082
:102AF0008B831C8282E080936F007DC0188277CF29
:102B000098E0F91225C081E9810F8D3178F460E0F9
:102B1000CE0187D9288D30E0C901880F991F820F17
:102B2000931F20919F01820F911D4EC0173E08F404
:102B300062C061E0CE0175D92A8D30E0C901880FED
:102B4000991F820F931F20919F01820F911D15C025
:102B500000919F01412F602FCE014A9687D988238B
:102B600001F161E0CE015DD92A8D30E0C901880F05
:102B7000991F820F931F800F911D959587959595AD
:102B800087958A8F2B8D30E0C901880F991F820F9E
:102B9000931F810F911D95958795959587958B8F9F
:102BA0002AC0412F602FCE01489660D9882301F1B9
:102BB00060E0CE0136D9288D30E0C901880F991F19
:102BC000820F931F800F911D9595879595958795F9
:102BD000888F298D30E0C901880F991F820F931FBC
:102BE000810F911D9595879595958795898F03C040
:102BF00087E0F81275CFFF91EF91DF91CF91BF91F0
:102C0000AF919F918F917F916F915F914F913F9184
:102C10002F911F910F91FF900F900BBE0F900FBE41
:102C20000F901F901895E091D1018CE1E89FF00181
:102C30001124EE52FE4F8081811107C081E09091F6
:102C4000AB059F3F19F480E0089581E0089580E688
:102C500090E00E949A068093A00481E690E00E9492
:102C60009A0680933105882321F081E280939A04AB
:102C700037C90895299A0C940D0529980C940D05CF
:102C8000A7E0B0E0E6E4F6E10C94782C9091A9047A
:102C9000943559F420912A0530912B052F5F3F4F31
:102CA00030932B0520932A053EC0963459F4209189
:102CB0002805309129052F5F3F4F30932905209338
:102CC000280531C0953459F420919D0430919E041B
:102CD0002F5F3F4F30939E0420939D0424C09B346C
:102CE00059F420912D0530912E052F5F3F4F3093E1
:102CF0002E0520932D0517C0983459F420912F05E7
:102D0000309130052F5F3F4F3093300520932F05D2
:102D10000AC020919B0430919C042F5F3F4F309359
:102D20009C0420939B0495E79983882399F0BE0126
:102D30006E5F7F4F809131050E948206BE016C5FFD
:102D40007F4F8091A0040E94820685E58E8386E0F5
:102D5000D82E02C0DD24D3940E94CA030E949F0390
:102D600016E080E891E086DF80E093E086DF115096
:102D7000C1F780E093E07EDF80E891E07EDF80E8CD
:102D800091E078DF299887E390E00E94410383E097
:102D90000E9412052C988FE70E947A028091A3046A
:102DA0008D0D0E947A02CE0101967C018C01F80102
:102DB00081918F010E947A02802F8E198D15B8F3B0
:102DC0008091A304882339F081EA94E00E94CE0721
:102DD0000E947A02F5CF2C9A0E949F0381EA94E028
:102DE0000E94B30715E18AE30E94EE028F7731F06B
:102DF000115021F081E00E941205F5CF71D827967D
:102E0000E7E00C94942CCF93DF93EC01898181113E
:102E100007C08091A0040E9436068091310513C03E
:102E20008436A1F48091930490919404A091950428
:102E3000B091960440E364E00E94FC058EE20E949B
:102E40007705809126050E9436064DC0833709F02C
:102E50004DC040E361E080912A0590912B050E94CE
:102E6000FC058EE20E94770540E361E08091280531
:102E7000909129050E94FC058EE20E94770540E3AF
:102E800061E080919D0490919E040E94FC058EE279
:102E90000E94770540E361E080912D0590912E0519
:102EA0000E94FC058EE20E94770540E361E080917C
:102EB0002F05909130050E94FC058EE20E94770557
:102EC00040E361E080919B0490919C040E94FC058A
:102ED0008EE20E94770540E361E0809124059091A5
:102EE00025050E94FC050E94C2052CC08936D9F434
:102EF00041E060EA74E0CE0102960E943A066091D9
:102F0000A00480E690E00E94950641E061E375E050
:102F1000CE0104960E943A066091310581E690E068
:102F20000E9495060FC081EA94E00E94B3072196A3
:102F30006991662329F081EA94E00E94B807F8CFEE
:102F400080E09EDEDF91CF910895A1E0B0E0EBEA52
:102F5000F7E10C94772C80912705882309F486C02B
:102F6000C0909304D0909404E0909504F09096045F
:102F7000833009F061C08FE30E94EE02182F863083
:102F8000C8F080E496E00E94B3072C988FEF0E946F
:102F90007A0280E00E947A02082F115049F080E006
:102FA0000E947A02682F80E496E00E94B807F5CF6D
:102FB0002C9A01C000E00E94700F1092270505377F
:102FC00009F054C041E0BE016F5F7F4F83E496E09B
:102FD0000E943A06019759F599818091A0049813AF
:102FE00026C080914706853571F48091420688237A
:102FF00039F080E496E00E94CE070E947705F5CF75
:103000000E94C20533C080914206845080934206DC
:1030100084E0809341066AE080E496E00E94B8076D
:10302000E0918F04F091900488E009951FC080E43E
:1030300096E00E94B3071AC0823059F480919F0431
:103040009C2D981B983090F00E94700F10922705CD
:103050000DC0813059F487E390E00E9441030E9443
:10306000B10382E080932705C0929F042196E8E097
:103070000C94932CD8DD882361F083E080932C0599
:1030800080912405909125050196909325058093C4
:10309000240580912C05815080932C05882321F0F4
:1030A00083E080932605089581E0EACD0E94B10374
:1030B000EA980895CF93DF93249A2C9A8EE190E0BA
:1030C0000E940D052C988EE190E00E940D052C9A2F
:1030D0008DE290E00E940D0580E30E943D0384E6AE
:1030E00090E00E940D0580914202882311F0D2E405
:1030F00001C0D2E3C0E08C2F90E0FC01E759FD4F06
:103100006491FC01E859FD4F84910E942B03CE5F2E
:10311000CD1788F383E30E943D0384E00E941205EB
:10312000C5DFDF91CF910895FC01908180917605F4
:10313000981314C091818091770598130FC09281E4
:103140008091780598130AC093818091790598132E
:1031500005C081E0208590917A05291380E00895CB
:103160002FEF662339F06150FC01E60FF11D30812D
:103170002327F7CF822F0895CF92DF92FF920F93EC
:103180001F93CF93DF931F92CDB7DEB7082F162F73
:10319000469A86E099830E942B030E949F032C98F5
:1031A0008FE70E947A02F02EC02E9981D92E8C2DA5
:1031B0008F19811738F4F60181916F0180950E9473
:1031C0007A02F5CF2C9A85E30E94EE028331D9F37F
:1031D0006FEF86E00E942B0369DF46980F90DF9126
:1031E000CF911F910F91FF90DF90CF900895A0E4B1
:1031F000B0E0EDEFF8E10C94742C80914302882349
:1032000009F49CC01A9B9AC0469A2C988FEF0E9492
:103210007A028E010F5F1F4F6E0189E0C80ED11C2C
:10322000780180E00E947A028095F70181937F0106
:10323000EC15FD05B1F72C9AD88487EF8D0D8833F6
:1032400010F038DF7BC06D2D86E00E942B0388E3F1
:10325000B82E98E0C92EED2CF12C8CED90E00E9458
:103260000D058BE30E94EE02A82E882319F1282F6A
:1032700030E02C0D311DE216F3061CF32C988FEF75
:103280000E947A02AC0CCA1469F0992493949C0CA5
:1032900080E00E947A02F801EC0DF11D8095808398
:1032A000C92CF1CF2C9ACD1428F0809143028D3691
:1032B00021F413C0BA9489F6F8CFC80135DF811123
:1032C00002C0C12C1BC06FEF6D0DC80149DFFE01AC
:1032D000ED0DF11D90818913F4CFCC24C3948AE7BE
:1032E0000E9477057801F70181917F010E943606DF
:1032F0008E2D801B8D15B8F30E94C205809143026C
:103300008237B1F4CC20A1F08D81898780917A0534
:103310008D8383E08E838AE0888769E0C80120DF9F
:103320008A8781E00E9412056AE0C80125DF05C096
:103330006FEF86E00E942B03B9DE4698C05CDF4F3A
:10334000EBE00C94902C40E466E375E002960E945A
:103350003A06682F86E395E00FCFFC0121812237E2
:1033600011F02D3659F431E0FC018281813309F0EE
:1033700030E030934202209343029CCE233709F47D
:10338000E2CF293699F5FC012281222331F045E074
:1033900066E775E002960C943A06809143020E941B
:1033A000770580914202882311F081E301C084E314
:1033B0000E94770580E20E947705809176050E9441
:1033C0003606809177050E943606809178050E9426
:1033D0003606809179050E94360680E20E947705C4
:1033E00080917A050E9436060C94C2051092430221
:1033F0000895CF93DF93EA98249A2C9A8EE190E077
:103400000E940D052C988EE190E00E940D052C9AEB
:103410008DE290E00E940D0580E30E943D0384E66A
:1034200090E00E940D052C9880E40E947A02CAEA7E
:10343000D2E0FE0184910E947A022196F2E0C73B1D
:10344000DF07B9F7809101010E947A0280910201A1
:103450000E947A02809103010E947A02C0E0D0E0CB
:10346000FE01E654FD4F84910E947A022196C931F3
:10347000D105B1F72C9A2C988EE70E947A028BE244
:1034800090E0EC0121960E949A060E947A02C333D2
:10349000D10511F0CE01F5CF2C9A83E30E943D03B4
:1034A00081E00E94120581E080939104DF91CF9129
:1034B00008956F927F928F929F92AF92CF92EF92E8
:1034C000FF920F931F93CF93DF93EC018981843791
:1034D00069F468E071E0CE0102960E94670640E25E
:1034E00060E0809108019091090112C0833709F0D2
:1034F00092C18A81823789F464E071E0CE0103963B
:103500000E94670640E260E080910401909105010D
:103510000E94C6050E94C205F3C1469A80914602E8
:10352000811116C080919101882329F081E0809358
:1035300045021092910180919301882329F081E046
:10354000809344021092930154DF83E00E9412059D
:1035500086E30E943D038AE30E943D038BE30E94C1
:103560003D030E949F03FE0101900020E9F70E2F0A
:103570000C1B0250C12CFAE09F2E7E0132E0E30EBC
:10358000F11CA5E0AA2EB8E28B2E80910401909147
:1035900005012C2D332727FD30952817390708F012
:1035A000FBC00132A1F4299A809108019091090190
:1035B0000E940D0529988091060190910701FC0158
:1035C0009E9EC0019F9E900D11240E940D05370103
:1035D00011E010170CF0B7C0F30181913F01299A57
:1035E000803309F046C0013201F5809106019091C7
:1035F00007010E940D05299880910601909107010D
:103600000E940D05299A80910601909107010E9460
:103610000D05299880910601909107019C01A29EB9
:10362000C001A39E900D11248AC080910801909141
:1036300009010E940D0529988091080190910901C6
:103640009C01220F331F820F931F0E940D05299AA0
:1036500080910801909109010E940D05299880919F
:103660000801909109019C01220F331F820F931FC3
:1036700066C0813329F5013291F480910601909161
:1036800007010E940D05299880910601909107017C
:10369000FC01AE9EC001AF9E900D11241EC0809112
:1036A0000801909109019C01220F331F820F931F83
:1036B0000E940D05299880910801909109012CC064
:1036C0000132D1F480910601909107010E940D050D
:1036D000299880910601909107010E940D05299A71
:1036E00080910601909107010E940D052998809113
:1036F00006019091070123C0809108019091090172
:103700000E940D05299880910801909109019C0162
:10371000220F331F820F931F0E940D05299A80915B
:103720000801909109019C01220F331F820F931F02
:103730000E940D05299880910801909109010E942D
:103740000D051F5F46CF299A0132A1F48091060131
:10375000909107010E940D05299880910601909192
:1037600007019C01829EC001839E900D11240E943E
:103770000D0510C080910801909109010E940D056E
:1037800029981FE180910801909109010E940D057F
:103790001150C1F7C394F9CE80914602882341F0BD
:1037A00080919A0481110FC086E30E943D0319C0E5
:1037B00080914502882351F0109245020E94F3093E
:1037C00081E0809391010E94B1030BC0809144027B
:1037D000882329F0109244020E94B50B02C00E9477
:1037E000700F469889E60E94770583E70E94770567
:1037F00011E010170CF08ECEFE01E10FF11D17FD48
:10380000FA958181803319F0813309F086E40E94B2
:1038100077051F5FEECF8237B9F48091910188233D
:1038200029F081E0809345021092910180919301EB
:10383000882329F081E08093440210929301D9DD1E
:1038400081E0809346025CC0863651F58A818033E0
:1038500051F480E18093010180EB8093020181E7C4
:103860008093030107C043E061E071E0CE0102965E
:103870000E943A0689E60E94770586E60E9477054F
:103880008AE30E947705809101010E9436068091AB
:1038900002010E943606809103010E9436063ACE4C
:1038A000883731F580914502882341F01092450216
:1038B0000E94F30981E08093910111C0809144023C
:1038C000882329F0109244020E94B50B0EC082E0BA
:1038D00090E00E94410380919A04882319F00E948D
:1038E000B10303C086E30E943D031092460208C064
:1038F000833631F468E071E0CE0101960E946706DC
:10390000DF91CF911F910F91FF90EF90CF90AF90EB
:103910009F908F907F906F900895A2E0B0E0E3E9D0
:10392000FCE10C94702C7C01FC018181833709F04F
:103930009DC1198287E090E00E94A42C8C0141E097
:10394000BE016F5F7F4FC70102960E943A068981D0
:10395000F801808341E0BE016F5F7F4FC70104968D
:103960000E943A062981207FF801218341E0BE01AF
:103970006F5F7F4FC70106962A830E943A068981AE
:10398000F801828341E0BE016F5F7F4FC701089657
:103990000E943A068981F801838341E0BE016F5F8E
:1039A0007F4FC7010A960E943A068981F8018683F3
:1039B00041E0BE016F5F7F4FC7010C960E943A063F
:1039C0008981F801858341E0BE016F5F7F4FC701A8
:1039D0000E960E943A068981F801848380E090E087
:1039E0002A814191342F32953F70342783279F5F7E
:1039F0009730B9F78F70822BF801818387E090E0D0
:103A00000E94A42C5C0187E0F801D50101900D9281
:103A10008A95E1F7D8011196C8010696F8013D9103
:103A2000219123272083E817F907C9F7469A809147
:103A30004902811160C080919101882329F081E0C1
:103A4000809348021092910180919301882329F07C
:103A500081E08093470210929301EA98249A2C9A6D
:103A60008EE190E00E940D052C988EE190E00E947E
:103A70000D052C9A8DE290E00E940D0580E30E94D6
:103A80003D0384E690E00E940D052C9880E40E949E
:103A90007A0263EDE62E62E0F62EF70184910E9431
:103AA0007A02FFEFEF1AFF0A2CEFE21622E0F2068D
:103AB000A1F72C9A2C988EE70E947A028BE290E074
:103AC0007C01EFEFEE1AFE0A0E949A060E947A022B
:103AD000F3E3EF16F10411F0C701F2CF2C9A83E360
:103AE0000E943D0381E00E94120581E080939104D1
:103AF00083E00E94120586E30E943D038AE30E9450
:103B00003D038BE30E943D030E949F03299A87ECAB
:103B100094E20E940D05299889E50E94120585E32B
:103B200092E00E940D05712C80910E0190E0272DEE
:103B3000332727FD3095281739070CF057C071102F
:103B400002C022E001C027E0F12C299A86EF99E01B
:103B50002A830E940D05299886EF99E00E940D05A1
:103B6000F3942A81F2168CF3299A8CEF92E10E9449
:103B70000D05299880910A0190910B010E940D0575
:103B80006801612CF60181906F0148E0542E50E8E5
:103B9000E52EF12C912CC70188219921892B49F41C
:103BA000299A80910A0190910B010E940D05299894
:103BB00008C0299880910A0190910B010E940D057F
:103BC000299A80910A0190910B010E940D05F694AB
:103BD000E7945A9401F76394F7E06F12D3CF2998D2
:103BE00080E090E00E940D0573949ECF8091490281
:103BF000882341F080919A0481110FC086E30E94CE
:103C00003D0319C080914802882351F01092480268
:103C10000E94F30981E0809391010E94B1030BC0DF
:103C200080914702882329F0109247020E94B50B29
:103C300002C00E94700F469889E50E94770583E7CD
:103C40000E9477057501D12CF70181917F010E94B7
:103C50003606D394F7E0DF12F7CF0E94C205C50104
:103C60000E943C2DC8010E943C2D6FC08237A9F4F0
:103C70006EE071E0C70102960E94670689E50E9426
:103C8000770582E70E9477058AE30E947705809195
:103C90000E0140E260E090E02CC0843779F5F70136
:103CA0008281803339F488ED94E090930D01809304
:103CB0000C0106C06CE071E0C70102960E94670625
:103CC00080910C0190910D019695879590930B0131
:103CD00080930A0189E50E94770584E70E947705B1
:103CE0008AE30E94770540E266E080910C019091A2
:103CF0000D010E94C6050E94C20527C0883729F51C
:103D000080914802882341F0109248020E94F309F2
:103D100081E08093910111C080914702882329F0AE
:103D2000109247020E94B50B0EC082E090E00E9404
:103D3000410380919A04882319F00E94B10303C0C3
:103D400086E30E943D03109249022296EFE00C9414
:103D50008C2C109296051092050383E080934F02FD
:103D60008FEF8093AB050895E0E5F2E0208121110B
:103D700005C0892BB1F080E090E00895B2E0EE3FFD
:103D8000FB07B8F7009751F04181DC013C914313E8
:103D900005C0428111963C91431751F0E20FF11D8D
:103DA000E5CF32E0EE3FF30719F010F0EEEFF2E06E
:103DB000CF01089594E0899FF0011124E455FA4F52
:103DC00080818F3F91F080934A02818180934B02E2
:103DD000828180934C02838180934D0221E04CE0EC
:103DE00064E08AE492E00C94C40808958FEF92E0B6
:103DF000BBDF009799F020914F02FC01308123171F
:103E000068F4E20FF11D80818093010389E78093BC
:103E1000020381818093030381E0089580E0089587
:103E2000EF92FF921F93CF93DF931F92CDB7DEB730
:103E3000182F80919A0486FF18C084E599830E9408
:103E40007705E12E9981F92E15E0F70181917F0127
:103E50000E9436061150C9F780919A0485FF03C06D
:103E60008AEF0E9436060E94C2050F90DF91CF9123
:103E70001F91FF90EF90089586E30E943D0380918B
:103E80000103833511F48BE901C08BE40E94120514
:103E900021E04CE065E08FEF92E00E94C4080E94B0
:103EA000B1038FEF92E0BCCFE7DF80910103893649
:103EB00031F081E08093FE0289E28093AB050895A2
:103EC000CF9385E390E00E949A0680937C0586E379
:103ED00090E00E949A068093AA05CFEFC0939A05BE
:103EE000C0939C05C0939E05C093A005C093A205F6
:103EF000C093A405C093A605C093A8052ADF10921D
:103F0000500281E080937B05C093AC058FEF9FEF5B
:103F100090937F0580937E05109281051092800515
:103F20001092830510928205C093B0059093850589
:103F3000809384051092870510928605109289055A
:103F400010928805C093B40590938B0580938A05E1
:103F500010928D0510928C0510928F0510928E058F
:103F6000C093B805909391058093900510929305A6
:103F7000109292051092950510929405CF91089594
:103F8000ACE0B0E0E6ECFFE10C94762C6C018C0127
:103F90000F5F1F4F45E0BE016F5F7F4FC8010E945A
:103FA0003A06843008F0F3C099819130A9F4833047
:103FB00061F46A8185E390E00E9495066B8186E357
:103FC00090E00E9495067CDF06C280917C050E94ED
:103FD00036068091AA059AC0923009F051C081300E
:103FE00039F081E09A81913009F080E0F82E02C02A
:103FF000FF24F39480915002811104C08CEF92E071
:104000000E94B50500E512E0F8018081882309F4DB
:10401000BBC0F2E00E3F1F0708F0B6C032E000352B
:10402000130719F080E20E947705F80181810E9450
:104030003606F80182810E943606FF20E1F08AE30D
:104040000E94770593E0F80180819817A0F49430DE
:1040500038F090FF05C08CE29C870E9477059C8514
:10406000EE24E394E90EF801E90FF11D80810E942E
:1040700036069E2DE8CFF8018081080F111DC4CFB0
:10408000933049F480E090E06FDE805592409EEAE4
:10409000981B892F3BC0903171F50AE915E08BE937
:1040A000E82E85E0F82EC12CD12CF80180818F3FBD
:1040B000A1F0DD2019F080E20E9477058C2D0E948E
:1040C00036068AE30E947705F80180810E94360651
:1040D000F70180810E943606D3940E5F1F4FC39470
:1040E000F2E0EF0EF11C38E0C312DFCFD1104CC06C
:1040F0008AE093E047C0913161F4809198059091F6
:1041000099056DE770E00E94462C862F0E943606C6
:104110003BC09231C9F51CEAE12E15E0F12E0FEA01
:1041200015E0C12CD12CF70180818F3FF1F0DD200B
:1041300019F080E20E9477058C2D0E9436068AE3F2
:104140000E947705F70180810E943606F8013297B8
:1041500080810E943606F801319780810E943606E0
:10416000F80180810E943606D394F4E0EF0EF11C32
:10417000C3940C5F1F4F34E0C312D5CFD11004C0DD
:1041800086E093E00E94B5050E94C20524C144E088
:10419000BE01695F7F4FC8010E943A064F814936D0
:1041A00008F477C07A85588569857C3009F04BC062
:1041B00020E030E080E090E0F901E455FA4F7081B2
:1041C00074131CC0A181A51319C0A281A61316C027
:1041D0002CE023839C01220F331F280F391FF90184
:1041E000EE0FFF1FE258FA4F11821082F901EE0F15
:1041F000FF1FE058FA4F11821082CFC07F3FD9F4E1
:104200004083518362832CE023839C01220F331F60
:10421000280F391FF901EE0FFF1FE258FA4F1182E4
:104220001082F901EE0FFF1FE058FA4F1182108241
:1042300010927B05B2C001962C5F3F4F20313105B3
:1042400009F0BACFC8C080E090E020E030E0FC0187
:10425000E455FA4FA081A41315C0A181A51312C083
:10426000A281A6130FC07383F901EE0FFF1FE20FA7
:10427000F31FEE0FFF1FE058FA4F81E090E09183AB
:104280008083A9C02F5F3F4F049680319105F9F6D6
:10429000A2C0E98180917C05E817C0F190E0F0E0D0
:1042A0009C01295F3F4F2E173F0784F13A812091EF
:1042B000AA0532132BC03C813F3231F442E06CE05E
:1042C000C6010E94310987C02D813C32B1F4209390
:1042D000970581E090E090939905809398058091EF
:1042E000970490919804E4E02E9F800D911D112475
:1042F00090939804809397046EC0E81BF90BEE0F1F
:10430000F0E0E656FA4F3083218365C080E090E00C
:104310002BDD7C01F80101900020E9F73197E01BCB
:10432000F10BF695E795BB24B394BE0EC7018B0D38
:10433000911D805592408F3A91050CF048C0F701CD
:10434000B1928F0121E0822F880F81502B15D8F474
:1043500041E0B801F601E80FF11DCF012C870E9462
:104360003A062C85233058F020FD09C0D80111975A
:104370008C91843621F4F801808180937D052F5F34
:104380000F5F1F4FE0CFFEEFEF16F2E0FF0618F5CC
:10439000F701E20FF11D10821EC022E04CE064E044
:1043A000CE0107960E94C4088FE08A8722E04CE085
:1043B00064E0CE0107960E94C40882E08A8722E06A
:1043C0004CE064E0CE0107960E94C40804C080E07F
:1043D00093E00E94B5052C96E9E00C94922C0F9383
:1043E0001F93CF93DF9390917B0591114FC093E082
:1043F000899F80011124F801EE0FFF1FE258FA4F48
:1044000094E0899FD0011124A455BA4F12969C9133
:10441000977040E850E0491B51099AEF949F900132
:10442000959F300D11243595279535952795318326
:104430002083E801CC0FDD1FCE57DA4F2881398168
:104440002F5F3F4F39832883000F111F00581A4FE9
:10445000F801408151814115510529F4243031057D
:10446000A9F4A8DC11C04130510539F4A3DC82E085
:1044700090E0F8019183808309C04230510531F406
:1044800099DCF8011182108219821882DF91CF9194
:104490001F910F910895A6E0B0E0E1E5F2E20C94DF
:1044A000792C2091AA052A831B8280919705882365
:1044B00041F0833019F487E791E00FC08DE790E079
:1044C0000CC0277030E02A513F4F4DE7429FC0019A
:1044D000439F900D1124959587959093990580930E
:1044E00098050BE915E0F12C7CE2E72EF8013197F5
:1044F00090819F3FC1F080917C058F0D89838091D1
:104500009705882311F0EC8203C09C83F801808119
:104510008D8321E04CE065E0CE0101960E94C40845
:10452000CE0101967DDCF3940E5F1F4FF8E0FF1281
:10453000DDCF80919705882341F0833019F41092E4
:10454000970503C08250809397052696E6E00C9469
:10455000952C8091FE02882351F08EDC89E28093B5
:10456000AB058091FE0281508093FE020895F1CB4D
:10457000FF920F931F93CF93DF93FC01F080018193
:10458000C281D38114818FE58093AB051092FE0226
:1045900080917C05811105C08091AA05882309F4CA
:1045A000A9C08091FF028F1104C080910003801781
:1045B00029F0CFDBF092FF02009300038091960573
:1045C0008F3F09F497C0C0930103D0930203109367
:1045D0000303CC23F1F081111CC080917C051817D6
:1045E00061F0143651F08DEA8C0F823010F0CD3727
:1045F00039F48FEF809396057DC0C43509F47AC0F5
:104600008D2F807F803609F075C0D067D09302036C
:1046100057C0ECDB811105C080919605882309F411
:1046200069C080910503811107C0E0919605F0E013
:10463000E25FFC4FE49101C0E82FE33541F4C4355B
:1046400031F4909196059E5F9093960504C0EC1707
:1046500011F07FDB4FC0882369F080914F028E5F9D
:1046600080934F02C3DB81110EC0809196058E5F4F
:104670008093960580919605E82FF0E0E15FFC4F6E
:1046800014911F3F59F480910103809305038436F0
:10469000B9F480917D058093030312C01093010348
:1046A00097E79093020390917C05909303038E5FAC
:1046B00080939605109205038E3021F01123D1F0DE
:1046C000F3DB18C08FEF92E04FDBDC01009781F045
:1046D0002C9130E08EEF92E0821B930BA817B90764
:1046E00030F4ED01C20FD31F48814D93F7CF1C92D8
:1046F00030DBE4CFCDB7DEB7E5E00C94962CFF922B
:104700000F931F93CF93DF938C01EC01099000204E
:10471000E9F72197C81BD90BFC018181823751F43D
:1047200087E390E00E9441030E94B10381E08093FF
:10473000BC0526C0833711F5FC2E2C988FE70E940C
:104740007A028C2F82500E947A02E801229612E0AF
:104750001F1528F489910E947A021F5FF9CF2C9AC5
:104760000E949F038AE30E94EE028F7721F081E08E
:104770000E941205F7CF0E94B10302C01092BC053F
:10478000CDB7DEB7E5E00C94962CA0E8B0E0EBECFA
:10479000F3E20C94772C8091BC05882309F454C073
:1047A000813011F58091930490919404A091950427
:1047B000B091960420910603281709F445C085E3BB
:1047C0000E94EE02813129F48AE30E943D030E9497
:1047D000B1038091930490919404A0919504B091B9
:1047E00096048093060330C08FE30E94EE02D82E19
:1047F00087FD27C02C988FEF0E947A028E010F5FF1
:104800001F4F7801C02E8E2D801B8D1538F480E04F
:104810000E947A02F70181937F01F5CF2C9A81E003
:1048200080938B01802F8C198D1530F4F8018191C4
:104830008F010E947705F6CF0E94C2058FEF80930B
:104840008B0181E08093BC05C058DF4FE8E00C94F9
:10485000932C2091400A3091410A2115310521F411
:10486000209111013091120180910F01909110015E
:10487000009741F48DB79EB74091130150911401F8
:10488000841B950B2817390718F4821B930B089586
:1048900080E090E0089582E40E94770540E265E0C0
:1048A0008091400A9091410A0E94C6050E94C2056B
:1048B00083E50E94770540E265E0809111019091C7
:1048C00012010E94C6050E94C20585E40E94770578
:1048D00040E265E080910F01909110010E94C605B1
:1048E0000E94C20586E40E947705B3DF40E265E0DE
:1048F0000E94C6050C94C2051F920F920FB60F922C
:1049000011240BB60F922F933F934F935F936F93A6
:104910007F938F939F93AF93BF93EF93FF93809178
:10492000BF05882339F08DEB95E00E94CE07809378
:10493000C60005C08091C1008F7D8093C100FF91AA
:10494000EF91BF91AF919F918F917F916F915F9107
:104950004F913F912F910F900BBE0F900FBE0F9074
:104960001F9018951F920F920FB60F9211240BB63D
:104970000F922F933F934F935F936F937F938F93F8
:104980009F93AF93BF93EF93FF9388B190E48927F0
:1049900088B96091C6008091C000887121F480E4DC
:1049A00096E00E94B807FF91EF91BF91AF919F9160
:1049B0008F917F916F915F914F913F912F910F90C8
:1049C0000BBE0F900FBE0F901F90189597FF04C05D
:1049D00022E02093C0009F779093C5008093C4008D
:1049E00088E98093C10086E08093C2000895809199
:1049F000C10085FD09C08091BF05882329F0809101
:104A0000C10080628093C1000895E0918F04F0910D
:104A1000900481E00995EBCF0F931F93CF93DF9321
:104A2000EC0110E0212F30E0F901EE0FFF1FE20F43
:104A3000F31FE457FF4F0491F901EE0FFF1FE20F40
:104A4000F31FE357FF4F25913491002399F02097EE
:104A500039F480E20E947705802F0E94770508C014
:104A60008881801305C0CE01F901099581E003C05A
:104A70001F5FD8CF80E0DF91CF911F910F910895F4
:104A8000CF93C0918B0180938B0180914206882344
:104A9000B1F180E496E00E94CE078F3FB1F3E09140
:104AA00007038A3011F08D30F9F4EE2371F3F0E052
:104AB000E85FFC4F108288E093E0AEDF811111C007
:104AC00084E393E00E94B50588E093E00E94AA0584
:104AD0008CE193E00E94B50580E090E09DDF0E94AC
:104AE000C20510920703D1CFE7FDCFCF91E09E0F13
:104AF00090930703F0E0E85FFC4F8083C6CFC0933C
:104B00008B01CF910895539A1092CD008CE0809341
:104B1000CC001092C80088E98093C90086E0809399
:104B2000CA00E0918A03F0E0E557FC4F1082109232
:104B3000890308951F920F920FB60F9211240BB69E
:104B40000F928F939F93EF93FF939091C800809162
:104B5000CE009871D1F490918903911116C08D30D7
:104B6000A1F0E0918A038A3041F4F0E0E557FC4F70
:104B7000108281E08093890308C091E09E0F90939A
:104B80008A03F0E0E557FC4F8083FF91EF919F91FE
:104B90008F910F900BBE0F900FBE0F901F90189526
:104BA00080918903882379F08AE20E9477058BE857
:104BB00093E00E94AA050E94C20510928A031092F7
:104BC0008B0310928903089521E0FC01E20FF11D8F
:104BD0003081332341F04091C80045FFFCCF2F5F67
:104BE0003093CE00F2CF8091C80085FFFCCF8DE0DE
:104BF0008093CE008091C80085FFFCCF8AE080932F
:104C0000CE000895E4E6F0E080818B7F80832F9AC8
:104C100084B1806B84B9269880E58CBD8DB58160A8
:104C20008DBD08958F929F92BF92CF92DF92EF92A7
:104C3000FF920F931F93CF93DF931F92CDB7DEB7F1
:104C4000D82EC62E7A0189012C988FEF99830E9465
:104C50007A02BD2C8D2C9981992E882D8B198C155B
:104C600038F480E00E947A02F40181934F01F5CF7D
:104C7000E114F10469F080E00E947A02F701808378
:104C80000115110529F080E00E947A02F801808365
:104C90002C9A0F90DF91CF911F910F91FF90EF9081
:104CA000DF90CF90BF909F908F900895CF938823EF
:104CB00031F01092CE0686E30E943D0307C085E3E3
:104CC0000E94EE028D30A9F780E039C085E30E9492
:104CD000EE02C82F8130D1F78BE30E943D038AE3B7
:104CE0000E943D031092C3061092C5061092C4069E
:104CF0001092C7061092C60622EF37E03093C9061D
:104D00002093C8061092CA06C093CB061092CC0618
:104D100080918B048093CD0660E083E00E942B039A
:104D200062E088E00E942B0384E30E943D0385E358
:104D30000E94EE028D30D9F781E08093CE06CF91AC
:104D400008950F931F93CF93DF93182F062F219869
:104D5000229810928B0410928C04EA98249A2C9A30
:104D60008EE190E00E940D052C988EE190E00E946B
:104D70000D052C9A8DE290E00E940D0580E30E94C3
:104D80003D0384E690E00E940D05113031F01230B1
:104D900009F06DC0CCE4D3E022C0C9E9D3E0FE0144
:104DA0008491813420F0013009F049C01DC0FE011A
:104DB00031966491FE0184910E942B032296F4E0C7
:104DC000C136DF0761F7EFCF31966491FE01849120
:104DD0000E942B032296F4E0C431DF0721F3FE0189
:104DE0008491813488F3DFCF60E087E10E942B0358
:104DF00067E083E00E942B0364E584E0113029F42E
:104E00000E942B0366E785E010C00E942B036DE330
:104E100085E00E942B0360E585E10E942B036BE592
:104E200080E10E942B0368EF81E10E942B0362E086
:104E300082E00E942B036EE280E00E942B0310931D
:104E40008B0400938C0483E30E943D038CE0E3EC2D
:104E5000F6E0DF011D928A95E9F786E0EAE3FAE0E1
:104E6000DF011D928A95E9F784E00E941205DF9127
:104E7000CF911F910F910895CF92DF92FF920F93E0
:104E80001F93CF93DF931F92CDB7DEB7182F062F56
:104E90002C988FE799830E947A02F12EC12E998176
:104EA000D92E8C2D8F19801730F4F60181916F0166
:104EB0000E947A02F6CF2C9A81E00F90DF91CF9179
:104EC0001F910F91FF90DF90CF9008958DE30C9488
:104ED0003D03A4E0B0E0EEE6F7E20EC590918C044D
:104EE000923009F009C180918B04882309F404C130
:104EF0008091CE06813049F030F0823059F0833015
:104F000009F472C0A2C081E0F6C01A9B9EC09093C3
:104F1000CE069BC0199B99C020E030E040E050E0F5
:104F200063E08091C8069091C9067CDE2091CD0691
:104F30008091C8069091C906213071F4BE016F5F5F
:104F40007F4F35D28111D3C089818093C30610D39E
:104F5000AC0160E081E00EC040E0BE016F5F7F4FBA
:104F6000ADD28111C4C089818093C30601D3AC0145
:104F700060E080E013D39093C5068093C4066091EF
:104F8000C4067091C506693482E0780708F0AFC0A6
:104F900086E06F3F710509F050F40E942B0360E03A
:104FA00088E00E942B0381E08093CA0602C00E9421
:104FB0002B038091C8069091C90603969093C90669
:104FC0008093C8068091C4069091C506039790937C
:104FD000C7068093C6061092CB0683E08093CE0668
:104FE00067E00E942B0331C0199B2FC08091C60639
:104FF0009091C7068F3F910509F058F48091CA0639
:10500000811107C060E088E00E942B0381E080935B
:10501000CA0620E030E040E050E06FE18091C80631
:105020009091C906FFDD8091C6069091C7064F9703
:105030009093C7068093C6068091C8069091C906D2
:105040004F969093C9068093C8061A9953C08091D1
:10505000CE06823008F44EC01C821B829E012D5F5A
:105060003F4FAE014C5F5F4F6091C6068091C8060E
:105070009091C906D7DD81E08093CC068091CD0662
:10508000813051F48091C30673D2AC016FEC76E0AD
:1050900082EF97E0EDD209C08091C30669D2AC01DE
:1050A0006FEC76E082EF97E056D3892B01F582E62C
:1050B0000E94770510E08091CF065AD2212F30E070
:1050C0002817390740F4F901E153F94F80810E9414
:1050D00036061F5FF0CF80919A0485FF06C08B8152
:1050E0000E9436068C810E9436060E94C2051092EC
:1050F000CE0602C080E0DADD2496E3E019C4A0E029
:10510000B0E0E4E8F8E2F3C37C018B01C42EFC01BB
:1051100080812ED2EC019C01215031092232314094
:1051200008F0C9C080918C04823019F4D0908B04AF
:1051300001C0D12C61E08C2D04DE81E0AE01B7010D
:10514000C81206C0C8013ED2AE0161E081E005C0D0
:10515000C8015ED2AE0161E080E020D290933B0AAC
:1051600080933A0AB3DE807711F086E361C08BE367
:105170000E943D0310933D0A00933C0A10923F0A9F
:1051800060913A0A70913B0A6F3F710509F058F43B
:1051900086E00E942B0360E088E00E942B0381E000
:1051A00080933E0A0AC0772786E00E942B0362E0C4
:1051B00088E00E942B0310923E0AC0913A0AD091D7
:1051C0003B0AC134D10510F0C0E4D0E06C2F8091CF
:1051D0003C0A90913D0A50DE80913C0A90913D0A34
:1051E0008C0F9D1F90933D0A80933C0A20913A0AB0
:1051F00030913B0A2C1B3D0B30933B0A20933A0A1B
:10520000232B19F481E080933F0A85E30E943D033C
:1052100011E003C0203C3105C0F180913F0A8111AB
:105220003FC019990AC052DE80778037B1F78BE30F
:105230000E943D0382E090E043C0C0913A0AD091C1
:105240003B0AC132D10510F0C0E2D0E06C2F809152
:105250003C0A90913D0A10DE20913C0A30913D0AB3
:105260002C0F3D1F30933D0A20933C0A20913A0AAF
:1052700030913B0A2C1B3D0B30933B0A20933A0A9A
:105280002115310539F610933F0A80913E0A8111AC
:10529000C4CF60E088E00E942B0310933E0ABDCF8C
:1052A00085E30E94EE028130D9F7DD2039F062E01B
:1052B0008D2D47DD03C081E090E002C080E090E0EA
:1052C000CDB7DEB7E8E02FC31F93CF93DF93EC0198
:1052D0008981823789F48A818823C9F1833719F457
:1052E00062E081E004C0843721F462E082E029DDDD
:1052F0002EC060E080E0FBCF833749F510E0612FDE
:1053000070E09B01220F331FC90103968C0F9D1F74
:10531000FC014081442369F0FE01E20FF31F248168
:10532000222339F06153794F41E00E943A061F5F12
:10533000E6CF8A81833711F441E003C0843701F559
:1053400042E062EF77E08FEC96E0D9DE19C0809101
:105350008C04823079F480918B04813029F0823082
:1053600031F480E493E008C086E493E005C08CE368
:1053700093E002C088E393E00E94B5050E94C20555
:10538000DF91CF911F910895DC01EC91AE2FA29592
:10539000AF70B0E0AB5DBE4F8C91DB018C93EF70D2
:1053A000F0E0EB5DFE4F808111968C930895CF93D2
:1053B000DF93EC01A881E981CA2FC295CF70D0E0BC
:1053C000CB5EDE4F4881AF70B0E0AB5EBE4F2C913C
:1053D000AE2FA295AF70B0E0AB5EBE4F8C91EF7078
:1053E000F0E0EB5EFE4F908151E02F3F09F050E07E
:1053F00031E04F3F09F030E0532B31E08F3F09F0AF
:1054000030E0352BA9F49F3F99F0D0E44D9FA001E7
:105410001124E0E12E9F90011124242B292BF4E08C
:105420008F9FC0011124282BEB01288380E001C04D
:1054300081E0DF91CF9108951F93CF93DF93FB011C
:1054400041110FC0EC01A981CA2FCF70D0E0CB5819
:10545000DE4F1881A295AF70B0E0AB58BE4F5C91A3
:1054600001C054E1EC01A881CA2FCF70D0E0CB5825
:10547000DE4F2881A295AF70B0E0AB58BE4F6C9163
:10548000D4E06D9FB0011124922F92959F70962BBE
:105490009083952F9695969580E1289F90011124F1
:1054A000922B9183411106C0C0E45C9FC00111247E
:1054B000812B8283DF91CF911F910895DC0111969A
:1054C0009C911197411118C012968C911297E82F58
:1054D000EF73F0E0EB5CFE4F5081E92FEF7024E0BA
:1054E000E29FF00111248295869586958370E82BC2
:1054F000EB5CFE4F808102C080E050E02C91E22FF7
:10550000E37030E1E39FF001112492959F70E92B45
:10551000EB5CFE4F908126952695E22FF0E0EB5C48
:10552000FE4F2081E1E09F3F09F0E0E031E02F3FB6
:1055300009F030E0E32B31E05F3F09F030E03E2B33
:1055400099F48F3F89F0E0E12E9F90011124292BDF
:10555000FB01208341110AC0F0E18F9FC00111249B
:10556000852BFB01818302C081E0089580E00895CE
:10557000482F50E08A3150F09A012A51310984E0D5
:10558000359527958A95E1F72D5F01C022E0CA0184
:105590000196820F911D820F911D0895882331F08D
:1055A000CA0161110196880F991F0895CA01880FD9
:1055B000991F840F951F96958795611101C040FD35
:1055C00001960895A0E0B0E0E7EEFAE28EC16A012C
:1055D0008C0186E9F80181938F01EB017F015B016A
:1055E000A40EB51ECA15DB0541F0B701CE01CCDE15
:1055F0002196F2E0EF0EF11CF5CFF601EE0FFF1F42
:10560000E00FF11F85E58083CDB7DEB7EAE089C101
:10561000A0E0B0E0EDE0FBE269C1EC017B018A01B2
:1056200075E5B72E01151105F9F00130110529F4C2
:1056300041E0BE01C70100DF0CC0CE0103966C0142
:1056400040E0BE01C7010230110531F4F5DEBB8236
:10565000E60100E010E0E6CFEFDEE60192E0E90EC1
:10566000F11C02501109DECFCDB7DEB7E9E05AC117
:10567000A0E0B0E0EDE3FBE232C14C01EB016A01D6
:10568000A12CB12C00E010E0612C712CE12CF12C4C
:10569000A2E14A2E512CC114D10409F450C0BE011C
:1056A000C40185DE81114EC082E0C816D10499F094
:1056B0008AE0E816F10458F0C7010A97B201E6D073
:1056C00031E020E0892B09F030E0032F122FA114E4
:1056D000B10499F005C0A114B10491F001E010E00B
:1056E000609470947724888190E06816790669F553
:1056F000A12CB12C612C712C17C00115110581F062
:10570000930120953095232F3327888190E0281727
:105710003907D9F4AA24A394B12C00E010E004C006
:105720006881C3019DD03C0181E0C81AD1088FEF88
:10573000E81AF80A82E0880E911C2196ACCF80E02E
:1057400090E005C081E090E002C082E090E0CDB73B
:10575000DEB7E0E1E0C0A0E0B0E0E0EBFBE2C1C01A
:105760007C01EB013A0100E010E0C12CD12C92E168
:10577000892E912C6114710409F46CC081E06816C3
:105780007104D1F441E0BE01C70198DE882319F00D
:1057900081E090E061C056018FEFA81AB80AC801F5
:1057A000809590959927288130E08217930709F416
:1057B0004DC082E090E050C040E0BE01C7017EDEF7
:1057C0008111E6CF82E0681A7108560182E0A80EC6
:1057D000B11C6114710451F08BE0A816B104C8F03B
:1057E000C6010A97B40152D0892B99F400951095FF
:1057F00098013327898190E028173907D1F6012FC6
:105800001127888190E00817190799F600E010E049
:1058100018C0688181E06816710471F4C80120D055
:105820008C019C0120953095232F3327898190E0AE
:105830002817390731F0BDCFC80112D0698110D0C7
:105840008C0183E0E80EF11C229602C0612C712CC1
:10585000650190CF80E090E0CDB7DEB7EEE05DC0AF
:1058600078E0AC0144275078452F5527262F207823
:1058700030E0880F991F4217530721F025E6822751
:105880002DE39227660F715061F70895AA1BBB1B89
:1058900051E107C0AA1FBB1FA617B70710F0A61B30
:1058A000B70B881F991F5A95A9F780959095BC0151
:1058B000CD01089597FB072E16F4009406D077FDCE
:1058C00008D0E4DF07FC05D03EF4909581959F4F0A
:1058D0000895709561957F4F08952F923F924F9252
:1058E0005F926F927F928F929F92AF92BF92CF9270
:1058F000DF92EF92FF920F931F93CF93DF93CDB779
:10590000DEB7CA1BDB0B0FB6F894DEBF0FBECDBFF0
:1059100009942A88398848885F846E847D848C84C1
:105920009B84AA84B984C884DF80EE80FD800C81CA
:105930001B81AA81B981CE0FD11D0FB6F894DEBFAD
:105940000FBECDBFED010895CF93DF938230910557
:1059500010F482E090E0E091420AF091430A20E0E6
:1059600030E0A0E0B0E0309739F140815181481734
:105970005907B8F04817590771F48281938110973D
:1059800029F013969C938E9312972CC09093430A00
:105990008093420A27C02115310531F04217530781
:1059A00018F0A901DB0101C0EF019A01BD01DF017F
:1059B0000280F381E02DD7CF21153105F9F0281BA6
:1059C000390B2430310580F48A819B816115710582
:1059D00021F0FB019383828304C09093430A809358
:1059E000420AFE01329644C0FE01E20FF31F81938A
:1059F000919322503109398328833AC02091400A7B
:105A00003091410A232B41F4209111013091120170
:105A10003093410A2093400A20910F0130911001E8
:105A20002115310541F42DB73EB740911301509136
:105A30001401241B350BE091400AF091410AE21752
:105A4000F307A0F42E1B3F0B2817390778F0AC01A1
:105A50004E5F5F4F2417350748F04E0F5F1F50937E
:105A6000410A4093400A8193919302C0E0E0F0E044
:105A7000CF01DF91CF910895CF93DF93009709F481
:105A800087C0FC01329713821282C091420AD091E2
:105A9000430A209781F420813181280F391F80919A
:105AA000400A9091410A8217930779F5F093410AD1
:105AB000E093400A6DC0DE0120E030E0AE17BF0782
:105AC00050F412964D915C9113979D01411551052B
:105AD00009F1DA01F3CFB383A28340815181840FAE
